{
  "contractName": "DabloonCAT",
  "abi": [
    {
      "inputs": [],
      "stateMutability": "nonpayable",
      "type": "constructor"
    },
    {
      "anonymous": false,
      "inputs": [
        {
          "indexed": false,
          "internalType": "address",
          "name": "previousAdmin",
          "type": "address"
        },
        {
          "indexed": false,
          "internalType": "address",
          "name": "newAdmin",
          "type": "address"
        }
      ],
      "name": "AdminChanged",
      "type": "event"
    },
    {
      "anonymous": false,
      "inputs": [
        {
          "indexed": true,
          "internalType": "address",
          "name": "owner",
          "type": "address"
        },
        {
          "indexed": true,
          "internalType": "address",
          "name": "spender",
          "type": "address"
        },
        {
          "indexed": false,
          "internalType": "uint256",
          "name": "value",
          "type": "uint256"
        }
      ],
      "name": "Approval",
      "type": "event"
    },
    {
      "anonymous": false,
      "inputs": [
        {
          "indexed": true,
          "internalType": "address",
          "name": "beacon",
          "type": "address"
        }
      ],
      "name": "BeaconUpgraded",
      "type": "event"
    },
    {
      "anonymous": false,
      "inputs": [
        {
          "indexed": false,
          "internalType": "uint8",
          "name": "version",
          "type": "uint8"
        }
      ],
      "name": "Initialized",
      "type": "event"
    },
    {
      "anonymous": false,
      "inputs": [
        {
          "indexed": true,
          "internalType": "bytes32",
          "name": "role",
          "type": "bytes32"
        },
        {
          "indexed": true,
          "internalType": "bytes32",
          "name": "previousAdminRole",
          "type": "bytes32"
        },
        {
          "indexed": true,
          "internalType": "bytes32",
          "name": "newAdminRole",
          "type": "bytes32"
        }
      ],
      "name": "RoleAdminChanged",
      "type": "event"
    },
    {
      "anonymous": false,
      "inputs": [
        {
          "indexed": true,
          "internalType": "bytes32",
          "name": "role",
          "type": "bytes32"
        },
        {
          "indexed": true,
          "internalType": "address",
          "name": "account",
          "type": "address"
        },
        {
          "indexed": true,
          "internalType": "address",
          "name": "sender",
          "type": "address"
        }
      ],
      "name": "RoleGranted",
      "type": "event"
    },
    {
      "anonymous": false,
      "inputs": [
        {
          "indexed": true,
          "internalType": "bytes32",
          "name": "role",
          "type": "bytes32"
        },
        {
          "indexed": true,
          "internalType": "address",
          "name": "account",
          "type": "address"
        },
        {
          "indexed": true,
          "internalType": "address",
          "name": "sender",
          "type": "address"
        }
      ],
      "name": "RoleRevoked",
      "type": "event"
    },
    {
      "anonymous": false,
      "inputs": [
        {
          "indexed": true,
          "internalType": "address",
          "name": "from",
          "type": "address"
        },
        {
          "indexed": true,
          "internalType": "address",
          "name": "to",
          "type": "address"
        },
        {
          "indexed": false,
          "internalType": "uint256",
          "name": "value",
          "type": "uint256"
        }
      ],
      "name": "Transfer",
      "type": "event"
    },
    {
      "anonymous": false,
      "inputs": [
        {
          "indexed": true,
          "internalType": "address",
          "name": "implementation",
          "type": "address"
        }
      ],
      "name": "Upgraded",
      "type": "event"
    },
    {
      "inputs": [],
      "name": "DEFAULT_ADMIN_ROLE",
      "outputs": [
        {
          "internalType": "bytes32",
          "name": "",
          "type": "bytes32"
        }
      ],
      "stateMutability": "view",
      "type": "function"
    },
    {
      "inputs": [],
      "name": "MINTER_ROLE",
      "outputs": [
        {
          "internalType": "bytes32",
          "name": "",
          "type": "bytes32"
        }
      ],
      "stateMutability": "view",
      "type": "function"
    },
    {
      "inputs": [],
      "name": "UPGRADER_ROLE",
      "outputs": [
        {
          "internalType": "bytes32",
          "name": "",
          "type": "bytes32"
        }
      ],
      "stateMutability": "view",
      "type": "function"
    },
    {
      "inputs": [
        {
          "internalType": "address",
          "name": "owner",
          "type": "address"
        },
        {
          "internalType": "address",
          "name": "spender",
          "type": "address"
        }
      ],
      "name": "allowance",
      "outputs": [
        {
          "internalType": "uint256",
          "name": "",
          "type": "uint256"
        }
      ],
      "stateMutability": "view",
      "type": "function"
    },
    {
      "inputs": [
        {
          "internalType": "address",
          "name": "spender",
          "type": "address"
        },
        {
          "internalType": "uint256",
          "name": "amount",
          "type": "uint256"
        }
      ],
      "name": "approve",
      "outputs": [
        {
          "internalType": "bool",
          "name": "",
          "type": "bool"
        }
      ],
      "stateMutability": "nonpayable",
      "type": "function"
    },
    {
      "inputs": [
        {
          "internalType": "address",
          "name": "account",
          "type": "address"
        }
      ],
      "name": "balanceOf",
      "outputs": [
        {
          "internalType": "uint256",
          "name": "",
          "type": "uint256"
        }
      ],
      "stateMutability": "view",
      "type": "function"
    },
    {
      "inputs": [],
      "name": "decimals",
      "outputs": [
        {
          "internalType": "uint8",
          "name": "",
          "type": "uint8"
        }
      ],
      "stateMutability": "view",
      "type": "function"
    },
    {
      "inputs": [
        {
          "internalType": "address",
          "name": "spender",
          "type": "address"
        },
        {
          "internalType": "uint256",
          "name": "subtractedValue",
          "type": "uint256"
        }
      ],
      "name": "decreaseAllowance",
      "outputs": [
        {
          "internalType": "bool",
          "name": "",
          "type": "bool"
        }
      ],
      "stateMutability": "nonpayable",
      "type": "function"
    },
    {
      "inputs": [
        {
          "internalType": "bytes32",
          "name": "role",
          "type": "bytes32"
        }
      ],
      "name": "getRoleAdmin",
      "outputs": [
        {
          "internalType": "bytes32",
          "name": "",
          "type": "bytes32"
        }
      ],
      "stateMutability": "view",
      "type": "function"
    },
    {
      "inputs": [
        {
          "internalType": "bytes32",
          "name": "role",
          "type": "bytes32"
        },
        {
          "internalType": "address",
          "name": "account",
          "type": "address"
        }
      ],
      "name": "grantRole",
      "outputs": [],
      "stateMutability": "nonpayable",
      "type": "function"
    },
    {
      "inputs": [
        {
          "internalType": "bytes32",
          "name": "role",
          "type": "bytes32"
        },
        {
          "internalType": "address",
          "name": "account",
          "type": "address"
        }
      ],
      "name": "hasRole",
      "outputs": [
        {
          "internalType": "bool",
          "name": "",
          "type": "bool"
        }
      ],
      "stateMutability": "view",
      "type": "function"
    },
    {
      "inputs": [
        {
          "internalType": "address",
          "name": "spender",
          "type": "address"
        },
        {
          "internalType": "uint256",
          "name": "addedValue",
          "type": "uint256"
        }
      ],
      "name": "increaseAllowance",
      "outputs": [
        {
          "internalType": "bool",
          "name": "",
          "type": "bool"
        }
      ],
      "stateMutability": "nonpayable",
      "type": "function"
    },
    {
      "inputs": [],
      "name": "name",
      "outputs": [
        {
          "internalType": "string",
          "name": "",
          "type": "string"
        }
      ],
      "stateMutability": "view",
      "type": "function"
    },
    {
      "inputs": [],
      "name": "proxiableUUID",
      "outputs": [
        {
          "internalType": "bytes32",
          "name": "",
          "type": "bytes32"
        }
      ],
      "stateMutability": "view",
      "type": "function"
    },
    {
      "inputs": [
        {
          "internalType": "bytes32",
          "name": "role",
          "type": "bytes32"
        },
        {
          "internalType": "address",
          "name": "account",
          "type": "address"
        }
      ],
      "name": "renounceRole",
      "outputs": [],
      "stateMutability": "nonpayable",
      "type": "function"
    },
    {
      "inputs": [
        {
          "internalType": "bytes32",
          "name": "role",
          "type": "bytes32"
        },
        {
          "internalType": "address",
          "name": "account",
          "type": "address"
        }
      ],
      "name": "revokeRole",
      "outputs": [],
      "stateMutability": "nonpayable",
      "type": "function"
    },
    {
      "inputs": [
        {
          "internalType": "bytes4",
          "name": "interfaceId",
          "type": "bytes4"
        }
      ],
      "name": "supportsInterface",
      "outputs": [
        {
          "internalType": "bool",
          "name": "",
          "type": "bool"
        }
      ],
      "stateMutability": "view",
      "type": "function"
    },
    {
      "inputs": [],
      "name": "symbol",
      "outputs": [
        {
          "internalType": "string",
          "name": "",
          "type": "string"
        }
      ],
      "stateMutability": "view",
      "type": "function"
    },
    {
      "inputs": [],
      "name": "totalSupply",
      "outputs": [
        {
          "internalType": "uint256",
          "name": "",
          "type": "uint256"
        }
      ],
      "stateMutability": "view",
      "type": "function"
    },
    {
      "inputs": [
        {
          "internalType": "address",
          "name": "to",
          "type": "address"
        },
        {
          "internalType": "uint256",
          "name": "amount",
          "type": "uint256"
        }
      ],
      "name": "transfer",
      "outputs": [
        {
          "internalType": "bool",
          "name": "",
          "type": "bool"
        }
      ],
      "stateMutability": "nonpayable",
      "type": "function"
    },
    {
      "inputs": [
        {
          "internalType": "address",
          "name": "from",
          "type": "address"
        },
        {
          "internalType": "address",
          "name": "to",
          "type": "address"
        },
        {
          "internalType": "uint256",
          "name": "amount",
          "type": "uint256"
        }
      ],
      "name": "transferFrom",
      "outputs": [
        {
          "internalType": "bool",
          "name": "",
          "type": "bool"
        }
      ],
      "stateMutability": "nonpayable",
      "type": "function"
    },
    {
      "inputs": [
        {
          "internalType": "address",
          "name": "newImplementation",
          "type": "address"
        }
      ],
      "name": "upgradeTo",
      "outputs": [],
      "stateMutability": "nonpayable",
      "type": "function"
    },
    {
      "inputs": [
        {
          "internalType": "address",
          "name": "newImplementation",
          "type": "address"
        },
        {
          "internalType": "bytes",
          "name": "data",
          "type": "bytes"
        }
      ],
      "name": "upgradeToAndCall",
      "outputs": [],
      "stateMutability": "payable",
      "type": "function"
    },
    {
      "inputs": [],
      "name": "initialize",
      "outputs": [],
      "stateMutability": "nonpayable",
      "type": "function"
    },
    {
      "inputs": [
        {
          "internalType": "address",
          "name": "to",
          "type": "address"
        },
        {
          "internalType": "uint256",
          "name": "amount",
          "type": "uint256"
        }
      ],
      "name": "mint",
      "outputs": [],
      "stateMutability": "nonpayable",
      "type": "function"
    }
  ],
  "bytecode": "0x60a06040523073ffffffffffffffffffffffffffffffffffffffff1660809073ffffffffffffffffffffffffffffffffffffffff168152503480156200004457600080fd5b50620000556200005b60201b60201c565b62000206565b600060019054906101000a900460ff1615620000ae576040517f08c379a0000000000000000000000000000000000000000000000000000000008152600401620000a590620001a9565b60405180910390fd5b60ff801660008054906101000a900460ff1660ff161015620001205760ff6000806101000a81548160ff021916908360ff1602179055507f7f26b83ff96e1f2b6a682f133852f6798a09c465da95921460cefb384740249860ff604051620001179190620001e9565b60405180910390a15b565b600082825260208201905092915050565b7f496e697469616c697a61626c653a20636f6e747261637420697320696e69746960008201527f616c697a696e6700000000000000000000000000000000000000000000000000602082015250565b60006200019160278362000122565b91506200019e8262000133565b604082019050919050565b60006020820190508181036000830152620001c48162000182565b9050919050565b600060ff82169050919050565b620001e381620001cb565b82525050565b6000602082019050620002006000830184620001d8565b92915050565b6080516137b96200023e6000396000818161085c015281816108ea01528181610a5401528181610ae20152610b9201526137b96000f3fe6080604052600436106101665760003560e01c80634f1ef286116100d1578063a217fddf1161008a578063d539139311610064578063d539139314610569578063d547741f14610594578063dd62ed3e146105bd578063f72c0d8b146105fa57610166565b8063a217fddf146104c4578063a457c2d7146104ef578063a9059cbb1461052c57610166565b80634f1ef286146103c157806352d1902d146103dd57806370a08231146104085780638129fc1c1461044557806391d148541461045c57806395d89b411461049957610166565b80632f2ff15d116101235780632f2ff15d146102b5578063313ce567146102de57806336568abe146103095780633659cfe614610332578063395093511461035b57806340c10f191461039857610166565b806301ffc9a71461016b57806306fdde03146101a8578063095ea7b3146101d357806318160ddd1461021057806323b872dd1461023b578063248a9ca314610278575b600080fd5b34801561017757600080fd5b50610192600480360381019061018d91906123e2565b610625565b60405161019f919061242a565b60405180910390f35b3480156101b457600080fd5b506101bd61069f565b6040516101ca91906124de565b60405180910390f35b3480156101df57600080fd5b506101fa60048036038101906101f59190612594565b610731565b604051610207919061242a565b60405180910390f35b34801561021c57600080fd5b50610225610754565b60405161023291906125e3565b60405180910390f35b34801561024757600080fd5b50610262600480360381019061025d91906125fe565b61075e565b60405161026f919061242a565b60405180910390f35b34801561028457600080fd5b5061029f600480360381019061029a9190612687565b61078d565b6040516102ac91906126c3565b60405180910390f35b3480156102c157600080fd5b506102dc60048036038101906102d791906126de565b6107ad565b005b3480156102ea57600080fd5b506102f36107ce565b604051610300919061273a565b60405180910390f35b34801561031557600080fd5b50610330600480360381019061032b91906126de565b6107d7565b005b34801561033e57600080fd5b5061035960048036038101906103549190612755565b61085a565b005b34801561036757600080fd5b50610382600480360381019061037d9190612594565b6109e2565b60405161038f919061242a565b60405180910390f35b3480156103a457600080fd5b506103bf60048036038101906103ba9190612594565b610a19565b005b6103db60048036038101906103d691906128b7565b610a52565b005b3480156103e957600080fd5b506103f2610b8e565b6040516103ff91906126c3565b60405180910390f35b34801561041457600080fd5b5061042f600480360381019061042a9190612755565b610c47565b60405161043c91906125e3565b60405180910390f35b34801561045157600080fd5b5061045a610c90565b005b34801561046857600080fd5b50610483600480360381019061047e91906126de565b610eab565b604051610490919061242a565b60405180910390f35b3480156104a557600080fd5b506104ae610f16565b6040516104bb91906124de565b60405180910390f35b3480156104d057600080fd5b506104d9610fa8565b6040516104e691906126c3565b60405180910390f35b3480156104fb57600080fd5b5061051660048036038101906105119190612594565b610faf565b604051610523919061242a565b60405180910390f35b34801561053857600080fd5b50610553600480360381019061054e9190612594565b611026565b604051610560919061242a565b60405180910390f35b34801561057557600080fd5b5061057e611049565b60405161058b91906126c3565b60405180910390f35b3480156105a057600080fd5b506105bb60048036038101906105b691906126de565b61106d565b005b3480156105c957600080fd5b506105e460048036038101906105df9190612913565b61108e565b6040516105f191906125e3565b60405180910390f35b34801561060657600080fd5b5061060f611115565b60405161061c91906126c3565b60405180910390f35b60007f7965db0b000000000000000000000000000000000000000000000000000000007bffffffffffffffffffffffffffffffffffffffffffffffffffffffff1916827bffffffffffffffffffffffffffffffffffffffffffffffffffffffff19161480610698575061069782611139565b5b9050919050565b6060603680546106ae90612982565b80601f01602080910402602001604051908101604052809291908181526020018280546106da90612982565b80156107275780601f106106fc57610100808354040283529160200191610727565b820191906000526020600020905b81548152906001019060200180831161070a57829003601f168201915b5050505050905090565b60008061073c6111a3565b90506107498185856111ab565b600191505092915050565b6000603554905090565b6000806107696111a3565b9050610776858285611374565b610781858585611400565b60019150509392505050565b600060976000838152602001908152602001600020600101549050919050565b6107b68261078d565b6107bf81611679565b6107c9838361168d565b505050565b60006012905090565b6107df6111a3565b73ffffffffffffffffffffffffffffffffffffffff168173ffffffffffffffffffffffffffffffffffffffff161461084c576040517f08c379a000000000000000000000000000000000000000000000000000000000815260040161084390612a25565b60405180910390fd5b610856828261176e565b5050565b7f000000000000000000000000000000000000000000000000000000000000000073ffffffffffffffffffffffffffffffffffffffff163073ffffffffffffffffffffffffffffffffffffffff16036108e8576040517f08c379a00000000000000000000000000000000000000000000000000000000081526004016108df90612ab7565b60405180910390fd5b7f000000000000000000000000000000000000000000000000000000000000000073ffffffffffffffffffffffffffffffffffffffff16610927611850565b73ffffffffffffffffffffffffffffffffffffffff161461097d576040517f08c379a000000000000000000000000000000000000000000000000000000000815260040161097490612b49565b60405180910390fd5b610986816118a7565b6109df81600067ffffffffffffffff8111156109a5576109a461278c565b5b6040519080825280601f01601f1916602001820160405280156109d75781602001600182028036833780820191505090505b5060006118d5565b50565b6000806109ed6111a3565b9050610a0e8185856109ff858961108e565b610a099190612b98565b6111ab565b600191505092915050565b7f9f2df0fed2c77648de5860a4cc508cd0818c85b8b8a1ab4ceeef8d981c8956a6610a4381611679565b610a4d8383611a43565b505050565b7f000000000000000000000000000000000000000000000000000000000000000073ffffffffffffffffffffffffffffffffffffffff163073ffffffffffffffffffffffffffffffffffffffff1603610ae0576040517f08c379a0000000000000000000000000000000000000000000000000000000008152600401610ad790612ab7565b60405180910390fd5b7f000000000000000000000000000000000000000000000000000000000000000073ffffffffffffffffffffffffffffffffffffffff16610b1f611850565b73ffffffffffffffffffffffffffffffffffffffff1614610b75576040517f08c379a0000000000000000000000000000000000000000000000000000000008152600401610b6c90612b49565b60405180910390fd5b610b7e826118a7565b610b8a828260016118d5565b5050565b60007f000000000000000000000000000000000000000000000000000000000000000073ffffffffffffffffffffffffffffffffffffffff163073ffffffffffffffffffffffffffffffffffffffff1614610c1e576040517f08c379a0000000000000000000000000000000000000000000000000000000008152600401610c1590612c60565b60405180910390fd5b7f360894a13ba1a3210667c828492db98dca3e2076cc3735a920a3ca505d382bbc60001b905090565b6000603360008373ffffffffffffffffffffffffffffffffffffffff1673ffffffffffffffffffffffffffffffffffffffff168152602001908152602001600020549050919050565b60008060019054906101000a900460ff16159050808015610cc15750600160008054906101000a900460ff1660ff16105b80610cee5750610cd030611b9a565b158015610ced5750600160008054906101000a900460ff1660ff16145b5b610d2d576040517f08c379a0000000000000000000000000000000000000000000000000000000008152600401610d2490612cf2565b60405180910390fd5b60016000806101000a81548160ff021916908360ff1602179055508015610d6a576001600060016101000a81548160ff0219169083151502179055505b610dde6040518060400160405280600a81526020017f4461626c6f6f6e434154000000000000000000000000000000000000000000008152506040518060400160405280600581526020017f4461434154000000000000000000000000000000000000000000000000000000815250611bbd565b610de6611c1a565b610dee611c6b565b610dfb6000801b3361168d565b610e257f9f2df0fed2c77648de5860a4cc508cd0818c85b8b8a1ab4ceeef8d981c8956a63361168d565b610e4f7f189ab7a9244df0848122154315af71fe140f3db0fe014031783b0946b8c9d2e33361168d565b8015610ea85760008060016101000a81548160ff0219169083151502179055507f7f26b83ff96e1f2b6a682f133852f6798a09c465da95921460cefb38474024986001604051610e9f9190612d57565b60405180910390a15b50565b60006097600084815260200190815260200160002060000160008373ffffffffffffffffffffffffffffffffffffffff1673ffffffffffffffffffffffffffffffffffffffff16815260200190815260200160002060009054906101000a900460ff16905092915050565b606060378054610f2590612982565b80601f0160208091040260200160405190810160405280929190818152602001828054610f5190612982565b8015610f9e5780601f10610f7357610100808354040283529160200191610f9e565b820191906000526020600020905b815481529060010190602001808311610f8157829003601f168201915b5050505050905090565b6000801b81565b600080610fba6111a3565b90506000610fc8828661108e565b90508381101561100d576040517f08c379a000000000000000000000000000000000000000000000000000000000815260040161100490612de4565b60405180910390fd5b61101a82868684036111ab565b60019250505092915050565b6000806110316111a3565b905061103e818585611400565b600191505092915050565b7f9f2df0fed2c77648de5860a4cc508cd0818c85b8b8a1ab4ceeef8d981c8956a681565b6110768261078d565b61107f81611679565b611089838361176e565b505050565b6000603460008473ffffffffffffffffffffffffffffffffffffffff1673ffffffffffffffffffffffffffffffffffffffff16815260200190815260200160002060008373ffffffffffffffffffffffffffffffffffffffff1673ffffffffffffffffffffffffffffffffffffffff16815260200190815260200160002054905092915050565b7f189ab7a9244df0848122154315af71fe140f3db0fe014031783b0946b8c9d2e381565b60007f01ffc9a7000000000000000000000000000000000000000000000000000000007bffffffffffffffffffffffffffffffffffffffffffffffffffffffff1916827bffffffffffffffffffffffffffffffffffffffffffffffffffffffff1916149050919050565b600033905090565b600073ffffffffffffffffffffffffffffffffffffffff168373ffffffffffffffffffffffffffffffffffffffff160361121a576040517f08c379a000000000000000000000000000000000000000000000000000000000815260040161121190612e76565b60405180910390fd5b600073ffffffffffffffffffffffffffffffffffffffff168273ffffffffffffffffffffffffffffffffffffffff1603611289576040517f08c379a000000000000000000000000000000000000000000000000000000000815260040161128090612f08565b60405180910390fd5b80603460008573ffffffffffffffffffffffffffffffffffffffff1673ffffffffffffffffffffffffffffffffffffffff16815260200190815260200160002060008473ffffffffffffffffffffffffffffffffffffffff1673ffffffffffffffffffffffffffffffffffffffff168152602001908152602001600020819055508173ffffffffffffffffffffffffffffffffffffffff168373ffffffffffffffffffffffffffffffffffffffff167f8c5be1e5ebec7d5bd14f71427d1e84f3dd0314c0f7b2291e5b200ac8c7c3b9258360405161136791906125e3565b60405180910390a3505050565b6000611380848461108e565b90507fffffffffffffffffffffffffffffffffffffffffffffffffffffffffffffffff81146113fa57818110156113ec576040517f08c379a00000000000000000000000000000000000000000000000000000000081526004016113e390612f74565b60405180910390fd5b6113f984848484036111ab565b5b50505050565b600073ffffffffffffffffffffffffffffffffffffffff168373ffffffffffffffffffffffffffffffffffffffff160361146f576040517f08c379a000000000000000000000000000000000000000000000000000000000815260040161146690613006565b60405180910390fd5b600073ffffffffffffffffffffffffffffffffffffffff168273ffffffffffffffffffffffffffffffffffffffff16036114de576040517f08c379a00000000000000000000000000000000000000000000000000000000081526004016114d590613098565b60405180910390fd5b6114e9838383611cbc565b6000603360008573ffffffffffffffffffffffffffffffffffffffff1673ffffffffffffffffffffffffffffffffffffffff16815260200190815260200160002054905081811015611570576040517f08c379a00000000000000000000000000000000000000000000000000000000081526004016115679061312a565b60405180910390fd5b818103603360008673ffffffffffffffffffffffffffffffffffffffff1673ffffffffffffffffffffffffffffffffffffffff1681526020019081526020016000208190555081603360008573ffffffffffffffffffffffffffffffffffffffff1673ffffffffffffffffffffffffffffffffffffffff168152602001908152602001600020600082825401925050819055508273ffffffffffffffffffffffffffffffffffffffff168473ffffffffffffffffffffffffffffffffffffffff167fddf252ad1be2c89b69c2b068fc378daa952ba7f163c4a11628f55a4df523b3ef8460405161166091906125e3565b60405180910390a3611673848484611cc1565b50505050565b61168a816116856111a3565b611cc6565b50565b6116978282610eab565b61176a5760016097600084815260200190815260200160002060000160008373ffffffffffffffffffffffffffffffffffffffff1673ffffffffffffffffffffffffffffffffffffffff16815260200190815260200160002060006101000a81548160ff02191690831515021790555061170f6111a3565b73ffffffffffffffffffffffffffffffffffffffff168173ffffffffffffffffffffffffffffffffffffffff16837f2f8788117e7eff1d82e926ec794901d17c78024a50270940304540a733656f0d60405160405180910390a45b5050565b6117788282610eab565b1561184c5760006097600084815260200190815260200160002060000160008373ffffffffffffffffffffffffffffffffffffffff1673ffffffffffffffffffffffffffffffffffffffff16815260200190815260200160002060006101000a81548160ff0219169083151502179055506117f16111a3565b73ffffffffffffffffffffffffffffffffffffffff168173ffffffffffffffffffffffffffffffffffffffff16837ff6391f5c32d9c69d2a47ea670b442974b53935d1edc7fd64eb21e047a839171b60405160405180910390a45b5050565b600061187e7f360894a13ba1a3210667c828492db98dca3e2076cc3735a920a3ca505d382bbc60001b611d4b565b60000160009054906101000a900473ffffffffffffffffffffffffffffffffffffffff16905090565b7f189ab7a9244df0848122154315af71fe140f3db0fe014031783b0946b8c9d2e36118d181611679565b5050565b6119017f4910fdfa16fed3260ed0e7147f7cc6da11a60208b5b9406d12a635614ffd914360001b611d55565b60000160009054906101000a900460ff16156119255761192083611d5f565b611a3e565b8273ffffffffffffffffffffffffffffffffffffffff166352d1902d6040518163ffffffff1660e01b8152600401602060405180830381865afa92505050801561198d57506040513d601f19601f8201168201806040525081019061198a919061315f565b60015b6119cc576040517f08c379a00000000000000000000000000000000000000000000000000000000081526004016119c3906131fe565b60405180910390fd5b7f360894a13ba1a3210667c828492db98dca3e2076cc3735a920a3ca505d382bbc60001b8114611a31576040517f08c379a0000000000000000000000000000000000000000000000000000000008152600401611a2890613290565b60405180910390fd5b50611a3d838383611e18565b5b505050565b600073ffffffffffffffffffffffffffffffffffffffff168273ffffffffffffffffffffffffffffffffffffffff1603611ab2576040517f08c379a0000000000000000000000000000000000000000000000000000000008152600401611aa9906132fc565b60405180910390fd5b611abe60008383611cbc565b8060356000828254611ad09190612b98565b9250508190555080603360008473ffffffffffffffffffffffffffffffffffffffff1673ffffffffffffffffffffffffffffffffffffffff168152602001908152602001600020600082825401925050819055508173ffffffffffffffffffffffffffffffffffffffff16600073ffffffffffffffffffffffffffffffffffffffff167fddf252ad1be2c89b69c2b068fc378daa952ba7f163c4a11628f55a4df523b3ef83604051611b8291906125e3565b60405180910390a3611b9660008383611cc1565b5050565b6000808273ffffffffffffffffffffffffffffffffffffffff163b119050919050565b600060019054906101000a900460ff16611c0c576040517f08c379a0000000000000000000000000000000000000000000000000000000008152600401611c039061338e565b60405180910390fd5b611c168282611e44565b5050565b600060019054906101000a900460ff16611c69576040517f08c379a0000000000000000000000000000000000000000000000000000000008152600401611c609061338e565b60405180910390fd5b565b600060019054906101000a900460ff16611cba576040517f08c379a0000000000000000000000000000000000000000000000000000000008152600401611cb19061338e565b60405180910390fd5b565b505050565b505050565b611cd08282610eab565b611d4757611cdd81611ec5565b611ceb8360001c6020611ef2565b604051602001611cfc929190613482565b6040516020818303038152906040526040517f08c379a0000000000000000000000000000000000000000000000000000000008152600401611d3e91906124de565b60405180910390fd5b5050565b6000819050919050565b6000819050919050565b611d6881611b9a565b611da7576040517f08c379a0000000000000000000000000000000000000000000000000000000008152600401611d9e9061352e565b60405180910390fd5b80611dd47f360894a13ba1a3210667c828492db98dca3e2076cc3735a920a3ca505d382bbc60001b611d4b565b60000160006101000a81548173ffffffffffffffffffffffffffffffffffffffff021916908373ffffffffffffffffffffffffffffffffffffffff16021790555050565b611e218361212e565b600082511180611e2e5750805b15611e3f57611e3d838361217d565b505b505050565b600060019054906101000a900460ff16611e93576040517f08c379a0000000000000000000000000000000000000000000000000000000008152600401611e8a9061338e565b60405180910390fd5b8160369080519060200190611ea99291906122d3565b508060379080519060200190611ec09291906122d3565b505050565b6060611eeb8273ffffffffffffffffffffffffffffffffffffffff16601460ff16611ef2565b9050919050565b606060006002836002611f05919061354e565b611f0f9190612b98565b67ffffffffffffffff811115611f2857611f2761278c565b5b6040519080825280601f01601f191660200182016040528015611f5a5781602001600182028036833780820191505090505b5090507f300000000000000000000000000000000000000000000000000000000000000081600081518110611f9257611f916135a8565b5b60200101907effffffffffffffffffffffffffffffffffffffffffffffffffffffffffffff1916908160001a9053507f780000000000000000000000000000000000000000000000000000000000000081600181518110611ff657611ff56135a8565b5b60200101907effffffffffffffffffffffffffffffffffffffffffffffffffffffffffffff1916908160001a90535060006001846002612036919061354e565b6120409190612b98565b90505b60018111156120e0577f3031323334353637383961626364656600000000000000000000000000000000600f861660108110612082576120816135a8565b5b1a60f81b828281518110612099576120986135a8565b5b60200101907effffffffffffffffffffffffffffffffffffffffffffffffffffffffffffff1916908160001a905350600485901c9450806120d9906135d7565b9050612043565b5060008414612124576040517f08c379a000000000000000000000000000000000000000000000000000000000815260040161211b9061364c565b60405180910390fd5b8091505092915050565b61213781611d5f565b8073ffffffffffffffffffffffffffffffffffffffff167fbc7cd75a20ee27fd9adebab32041f755214dbc6bffa90cc0225b39da2e5c2d3b60405160405180910390a250565b606061218883611b9a565b6121c7576040517f08c379a00000000000000000000000000000000000000000000000000000000081526004016121be906136de565b60405180910390fd5b6000808473ffffffffffffffffffffffffffffffffffffffff16846040516121ef9190613745565b600060405180830381855af49150503d806000811461222a576040519150601f19603f3d011682016040523d82523d6000602084013e61222f565b606091505b5091509150612257828260405180606001604052806027815260200161375d60279139612261565b9250505092915050565b606083156122715782905061227c565b61227b8383612283565b5b9392505050565b6000825111156122965781518083602001fd5b806040517f08c379a00000000000000000000000000000000000000000000000000000000081526004016122ca91906124de565b60405180910390fd5b8280546122df90612982565b90600052602060002090601f0160209004810192826123015760008555612348565b82601f1061231a57805160ff1916838001178555612348565b82800160010185558215612348579182015b8281111561234757825182559160200191906001019061232c565b5b5090506123559190612359565b5090565b5b8082111561237257600081600090555060010161235a565b5090565b6000604051905090565b600080fd5b600080fd5b60007fffffffff0000000000000000000000000000000000000000000000000000000082169050919050565b6123bf8161238a565b81146123ca57600080fd5b50565b6000813590506123dc816123b6565b92915050565b6000602082840312156123f8576123f7612380565b5b6000612406848285016123cd565b91505092915050565b60008115159050919050565b6124248161240f565b82525050565b600060208201905061243f600083018461241b565b92915050565b600081519050919050565b600082825260208201905092915050565b60005b8381101561247f578082015181840152602081019050612464565b8381111561248e576000848401525b50505050565b6000601f19601f8301169050919050565b60006124b082612445565b6124ba8185612450565b93506124ca818560208601612461565b6124d381612494565b840191505092915050565b600060208201905081810360008301526124f881846124a5565b905092915050565b600073ffffffffffffffffffffffffffffffffffffffff82169050919050565b600061252b82612500565b9050919050565b61253b81612520565b811461254657600080fd5b50565b60008135905061255881612532565b92915050565b6000819050919050565b6125718161255e565b811461257c57600080fd5b50565b60008135905061258e81612568565b92915050565b600080604083850312156125ab576125aa612380565b5b60006125b985828601612549565b92505060206125ca8582860161257f565b9150509250929050565b6125dd8161255e565b82525050565b60006020820190506125f860008301846125d4565b92915050565b60008060006060848603121561261757612616612380565b5b600061262586828701612549565b935050602061263686828701612549565b92505060406126478682870161257f565b9150509250925092565b6000819050919050565b61266481612651565b811461266f57600080fd5b50565b6000813590506126818161265b565b92915050565b60006020828403121561269d5761269c612380565b5b60006126ab84828501612672565b91505092915050565b6126bd81612651565b82525050565b60006020820190506126d860008301846126b4565b92915050565b600080604083850312156126f5576126f4612380565b5b600061270385828601612672565b925050602061271485828601612549565b9150509250929050565b600060ff82169050919050565b6127348161271e565b82525050565b600060208201905061274f600083018461272b565b92915050565b60006020828403121561276b5761276a612380565b5b600061277984828501612549565b91505092915050565b600080fd5b600080fd5b7f4e487b7100000000000000000000000000000000000000000000000000000000600052604160045260246000fd5b6127c482612494565b810181811067ffffffffffffffff821117156127e3576127e261278c565b5b80604052505050565b60006127f6612376565b905061280282826127bb565b919050565b600067ffffffffffffffff8211156128225761282161278c565b5b61282b82612494565b9050602081019050919050565b82818337600083830152505050565b600061285a61285584612807565b6127ec565b90508281526020810184848401111561287657612875612787565b5b612881848285612838565b509392505050565b600082601f83011261289e5761289d612782565b5b81356128ae848260208601612847565b91505092915050565b600080604083850312156128ce576128cd612380565b5b60006128dc85828601612549565b925050602083013567ffffffffffffffff8111156128fd576128fc612385565b5b61290985828601612889565b9150509250929050565b6000806040838503121561292a57612929612380565b5b600061293885828601612549565b925050602061294985828601612549565b9150509250929050565b7f4e487b7100000000000000000000000000000000000000000000000000000000600052602260045260246000fd5b6000600282049050600182168061299a57607f821691505b6020821081036129ad576129ac612953565b5b50919050565b7f416363657373436f6e74726f6c3a2063616e206f6e6c792072656e6f756e636560008201527f20726f6c657320666f722073656c660000000000000000000000000000000000602082015250565b6000612a0f602f83612450565b9150612a1a826129b3565b604082019050919050565b60006020820190508181036000830152612a3e81612a02565b9050919050565b7f46756e6374696f6e206d7573742062652063616c6c6564207468726f7567682060008201527f64656c656761746563616c6c0000000000000000000000000000000000000000602082015250565b6000612aa1602c83612450565b9150612aac82612a45565b604082019050919050565b60006020820190508181036000830152612ad081612a94565b9050919050565b7f46756e6374696f6e206d7573742062652063616c6c6564207468726f7567682060008201527f6163746976652070726f78790000000000000000000000000000000000000000602082015250565b6000612b33602c83612450565b9150612b3e82612ad7565b604082019050919050565b60006020820190508181036000830152612b6281612b26565b9050919050565b7f4e487b7100000000000000000000000000000000000000000000000000000000600052601160045260246000fd5b6000612ba38261255e565b9150612bae8361255e565b9250827fffffffffffffffffffffffffffffffffffffffffffffffffffffffffffffffff03821115612be357612be2612b69565b5b828201905092915050565b7f555550535570677261646561626c653a206d757374206e6f742062652063616c60008201527f6c6564207468726f7567682064656c656761746563616c6c0000000000000000602082015250565b6000612c4a603883612450565b9150612c5582612bee565b604082019050919050565b60006020820190508181036000830152612c7981612c3d565b9050919050565b7f496e697469616c697a61626c653a20636f6e747261637420697320616c72656160008201527f647920696e697469616c697a6564000000000000000000000000000000000000602082015250565b6000612cdc602e83612450565b9150612ce782612c80565b604082019050919050565b60006020820190508181036000830152612d0b81612ccf565b9050919050565b6000819050919050565b6000819050919050565b6000612d41612d3c612d3784612d12565b612d1c565b61271e565b9050919050565b612d5181612d26565b82525050565b6000602082019050612d6c6000830184612d48565b92915050565b7f45524332303a2064656372656173656420616c6c6f77616e63652062656c6f7760008201527f207a65726f000000000000000000000000000000000000000000000000000000602082015250565b6000612dce602583612450565b9150612dd982612d72565b604082019050919050565b60006020820190508181036000830152612dfd81612dc1565b9050919050565b7f45524332303a20617070726f76652066726f6d20746865207a65726f2061646460008201527f7265737300000000000000000000000000000000000000000000000000000000602082015250565b6000612e60602483612450565b9150612e6b82612e04565b604082019050919050565b60006020820190508181036000830152612e8f81612e53565b9050919050565b7f45524332303a20617070726f766520746f20746865207a65726f20616464726560008201527f7373000000000000000000000000000000000000000000000000000000000000602082015250565b6000612ef2602283612450565b9150612efd82612e96565b604082019050919050565b60006020820190508181036000830152612f2181612ee5565b9050919050565b7f45524332303a20696e73756666696369656e7420616c6c6f77616e6365000000600082015250565b6000612f5e601d83612450565b9150612f6982612f28565b602082019050919050565b60006020820190508181036000830152612f8d81612f51565b9050919050565b7f45524332303a207472616e736665722066726f6d20746865207a65726f20616460008201527f6472657373000000000000000000000000000000000000000000000000000000602082015250565b6000612ff0602583612450565b9150612ffb82612f94565b604082019050919050565b6000602082019050818103600083015261301f81612fe3565b9050919050565b7f45524332303a207472616e7366657220746f20746865207a65726f206164647260008201527f6573730000000000000000000000000000000000000000000000000000000000602082015250565b6000613082602383612450565b915061308d82613026565b604082019050919050565b600060208201905081810360008301526130b181613075565b9050919050565b7f45524332303a207472616e7366657220616d6f756e742065786365656473206260008201527f616c616e63650000000000000000000000000000000000000000000000000000602082015250565b6000613114602683612450565b915061311f826130b8565b604082019050919050565b6000602082019050818103600083015261314381613107565b9050919050565b6000815190506131598161265b565b92915050565b60006020828403121561317557613174612380565b5b60006131838482850161314a565b91505092915050565b7f45524331393637557067726164653a206e657720696d706c656d656e7461746960008201527f6f6e206973206e6f742055555053000000000000000000000000000000000000602082015250565b60006131e8602e83612450565b91506131f38261318c565b604082019050919050565b60006020820190508181036000830152613217816131db565b9050919050565b7f45524331393637557067726164653a20756e737570706f727465642070726f7860008201527f6961626c65555549440000000000000000000000000000000000000000000000602082015250565b600061327a602983612450565b91506132858261321e565b604082019050919050565b600060208201905081810360008301526132a98161326d565b9050919050565b7f45524332303a206d696e7420746f20746865207a65726f206164647265737300600082015250565b60006132e6601f83612450565b91506132f1826132b0565b602082019050919050565b60006020820190508181036000830152613315816132d9565b9050919050565b7f496e697469616c697a61626c653a20636f6e7472616374206973206e6f74206960008201527f6e697469616c697a696e67000000000000000000000000000000000000000000602082015250565b6000613378602b83612450565b91506133838261331c565b604082019050919050565b600060208201905081810360008301526133a78161336b565b9050919050565b600081905092915050565b7f416363657373436f6e74726f6c3a206163636f756e7420000000000000000000600082015250565b60006133ef6017836133ae565b91506133fa826133b9565b601782019050919050565b600061341082612445565b61341a81856133ae565b935061342a818560208601612461565b80840191505092915050565b7f206973206d697373696e6720726f6c6520000000000000000000000000000000600082015250565b600061346c6011836133ae565b915061347782613436565b601182019050919050565b600061348d826133e2565b91506134998285613405565b91506134a48261345f565b91506134b08284613405565b91508190509392505050565b7f455243313936373a206e657720696d706c656d656e746174696f6e206973206e60008201527f6f74206120636f6e747261637400000000000000000000000000000000000000602082015250565b6000613518602d83612450565b9150613523826134bc565b604082019050919050565b600060208201905081810360008301526135478161350b565b9050919050565b60006135598261255e565b91506135648361255e565b9250817fffffffffffffffffffffffffffffffffffffffffffffffffffffffffffffffff048311821515161561359d5761359c612b69565b5b828202905092915050565b7f4e487b7100000000000000000000000000000000000000000000000000000000600052603260045260246000fd5b60006135e28261255e565b9150600082036135f5576135f4612b69565b5b600182039050919050565b7f537472696e67733a20686578206c656e67746820696e73756666696369656e74600082015250565b6000613636602083612450565b915061364182613600565b602082019050919050565b6000602082019050818103600083015261366581613629565b9050919050565b7f416464726573733a2064656c65676174652063616c6c20746f206e6f6e2d636f60008201527f6e74726163740000000000000000000000000000000000000000000000000000602082015250565b60006136c8602683612450565b91506136d38261366c565b604082019050919050565b600060208201905081810360008301526136f7816136bb565b9050919050565b600081519050919050565b600081905092915050565b600061371f826136fe565b6137298185613709565b9350613739818560208601612461565b80840191505092915050565b60006137518284613714565b91508190509291505056fe416464726573733a206c6f772d6c6576656c2064656c65676174652063616c6c206661696c6564a264697066735822122097232ee54f13a8ded2f41e0bc6e515270d19de1284ab7e5c49881ec90aaf2d6c64736f6c634300080e0033",
  "immutableReferences": {
    "1129": [
      {
        "length": 32,
        "start": 2140
      },
      {
        "length": 32,
        "start": 2282
      },
      {
        "length": 32,
        "start": 2644
      },
      {
        "length": 32,
        "start": 2786
      },
      {
        "length": 32,
        "start": 2962
      }
    ]
  },
  "source": "// SPDX-License-Identifier: MIT\r\npragma solidity ^0.8.9;\r\n\r\nimport \"@openzeppelin/contracts-upgradeable/token/ERC20/ERC20Upgradeable.sol\";\r\nimport \"@openzeppelin/contracts-upgradeable/access/AccessControlUpgradeable.sol\";\r\nimport \"@openzeppelin/contracts-upgradeable/proxy/utils/Initializable.sol\";\r\nimport \"@openzeppelin/contracts-upgradeable/proxy/utils/UUPSUpgradeable.sol\";\r\n\r\n// DaBloonCAT (DaCAT) v1.0.0\r\n// DBC is a contract that manages the creation and transfer of DabloonCATs\r\n// DBC: createDabloonCAT\r\n// DaBloonCATs are given to you in exchange for publishing content on the nWonderland platform\r\n// every time you watch content on the nWonderland platform, you will receive 1 Dabloon (DaBLOON)\r\n// if you watch content with homework enabled, you will receive 4 DabloonCATs\r\n// homework is an optional feature that runs transactions on your behalf\r\n    // when you do your own homework, you will receive 1 DabloonCAT\r\n    // when you verify your homework, you will receive 3 DabloonCATs\r\n    // doing homework runs an AI algorithm on your behalf\r\n    // verifying homework \r\n// every time you publish content on the nWonderland platform, you will receive 1 DabloonCAT (DaCAT)\r\n// every time you like, comment, or share content on the nWonderland platform, give the cat a dabloon.\r\n// dabloon cat is a token that represents the value of your content.\r\n// dabloonCATs are used to buy and sell content on the nWonderland platform\r\n// the nWonderland platform is a decentralized content marketplace\r\n// it is only possible to buy and sell content on the nWonderland platform with DabloonCATs\r\n// DabloonCATs are the only currency on the nWonderland platform\r\n// The nWonderland platform is only accessible to users through the a nHome (nH) smart contract\r\n// this contract creates a virtual home identical to your physical home by logging your software and hardware.\r\n// This creates a more secure and private enviornment that is not accessible to the public but has trustless abilities to perform \r\n// transactions on your behalf. It's designed to keep extensive logs of your items and activities to ensure that you are not\r\n// being scammed or hacked. It creates these items as vaults of logs map the items and activities of your home.\r\n// It's important to realize that privacy is not the same as security. Privacy is the ability to keep your information private.\r\n// Security is the ability to keep your information safe. Privacy is a right, security is a responsibility.\r\n// Privacy then must be managed between individuals within the same home. Security must be managed by the home itself.\r\n// The DaBloonCAT Money system is a way to manage the value of your items and activities within your home. You can use it to buy and sell\r\n// items and activities within your home, creating a virtual economy for chores, entertainment, and other activities.\r\n// The nWonderland platform is a way to access the nHome network from anywhere in the world. It's a way to access your home from anywhere.\r\n// since the nHome network is a private network, the nWonderland platform can be used to share parts of your home with the public. \r\n// since we are taking recordings of regular interactions, we can post them in a way that allows them to be viewed in virtual reality.\r\n// with advanced AI computer vision, it is possible to create games and other interactive experiences based on the recordings with \r\n// added compositional elements, different camera angles, and other effects.\r\n// the nWonderland platform is a way to share your home with the world. The nHomes platform enables it by creating a safe infastructure network\r\n// for all of your personal data, and divides ownership and identity through profiles and vaults.\r\n// If you are an expert in a field, you can create a profile and share your knowledge so that it trains an AI algorithm directly tied to your identity.\r\n// Other users can then use your profile to train their own AI algorithms. I call this the \"AI as a Service\" model. My goal is to create a\r\n// decentralized AI as a service marketplace where users can buy and sell AI algorithms. This will be the first decentralized marketplace\r\n// to encorporate AI algorithms that are trained by the users themselves as they use the platform to redeem DabloonCATs by logging their activities.\r\n// These AI algorithms will be used to create virtual reality experiences, games, and other interactive experiences that are based on the\r\n// content that is shared on the nWonderland platform. Everyone gets rewarded for doing what they already do, get experience points through\r\n// virtual and augmented reality teaching and learning experiences, and get paid for their content.\r\n\r\ncontract DabloonCAT is Initializable, ERC20Upgradeable, AccessControlUpgradeable, UUPSUpgradeable {\r\n    bytes32 public constant MINTER_ROLE = keccak256(\"MINTER_ROLE\");\r\n    bytes32 public constant UPGRADER_ROLE = keccak256(\"UPGRADER_ROLE\");\r\n\r\n    /// @custom:oz-upgrades-unsafe-allow constructor\r\n    constructor() {\r\n        _disableInitializers();\r\n    }\r\n\r\n    function initialize() initializer public {\r\n        __ERC20_init(\"DabloonCAT\", \"DaCAT\");\r\n        __AccessControl_init();\r\n        __UUPSUpgradeable_init();\r\n\r\n        _grantRole(DEFAULT_ADMIN_ROLE, msg.sender);\r\n        _grantRole(MINTER_ROLE, msg.sender);\r\n        _grantRole(UPGRADER_ROLE, msg.sender);\r\n    }\r\n\r\n    function mint(address to, uint256 amount) public onlyRole(MINTER_ROLE) {\r\n        _mint(to, amount);\r\n    }\r\n\r\n    function _authorizeUpgrade(address newImplementation)\r\n        internal\r\n        onlyRole(UPGRADER_ROLE)\r\n        override\r\n    {}\r\n}",
  "sourcePath": "C:\\Users\\mosle\\Documents\\GitHub\\nWonderland\\contracts\\DALI\\000_DabloonCAT.sol",
  "compiler": {
    "name": "solc",
    "version": "0.8.14+commit.80d49f37.Emscripten.clang"
  },
  "schemaVersion": "3.4.8",
  "updatedAt": "2022-12-09T15:56:11.668Z",
  "devdoc": {
    "kind": "dev",
    "methods": {
      "allowance(address,address)": {
        "details": "See {IERC20-allowance}."
      },
      "approve(address,uint256)": {
        "details": "See {IERC20-approve}. NOTE: If `amount` is the maximum `uint256`, the allowance is not updated on `transferFrom`. This is semantically equivalent to an infinite approval. Requirements: - `spender` cannot be the zero address."
      },
      "balanceOf(address)": {
        "details": "See {IERC20-balanceOf}."
      },
      "constructor": {
        "custom:oz-upgrades-unsafe-allow": "constructor"
      },
      "decimals()": {
        "details": "Returns the number of decimals used to get its user representation. For example, if `decimals` equals `2`, a balance of `505` tokens should be displayed to a user as `5.05` (`505 / 10 ** 2`). Tokens usually opt for a value of 18, imitating the relationship between Ether and Wei. This is the value {ERC20} uses, unless this function is overridden; NOTE: This information is only used for _display_ purposes: it in no way affects any of the arithmetic of the contract, including {IERC20-balanceOf} and {IERC20-transfer}."
      },
      "decreaseAllowance(address,uint256)": {
        "details": "Atomically decreases the allowance granted to `spender` by the caller. This is an alternative to {approve} that can be used as a mitigation for problems described in {IERC20-approve}. Emits an {Approval} event indicating the updated allowance. Requirements: - `spender` cannot be the zero address. - `spender` must have allowance for the caller of at least `subtractedValue`."
      },
      "getRoleAdmin(bytes32)": {
        "details": "Returns the admin role that controls `role`. See {grantRole} and {revokeRole}. To change a role's admin, use {_setRoleAdmin}."
      },
      "grantRole(bytes32,address)": {
        "details": "Grants `role` to `account`. If `account` had not been already granted `role`, emits a {RoleGranted} event. Requirements: - the caller must have ``role``'s admin role. May emit a {RoleGranted} event."
      },
      "hasRole(bytes32,address)": {
        "details": "Returns `true` if `account` has been granted `role`."
      },
      "increaseAllowance(address,uint256)": {
        "details": "Atomically increases the allowance granted to `spender` by the caller. This is an alternative to {approve} that can be used as a mitigation for problems described in {IERC20-approve}. Emits an {Approval} event indicating the updated allowance. Requirements: - `spender` cannot be the zero address."
      },
      "name()": {
        "details": "Returns the name of the token."
      },
      "proxiableUUID()": {
        "details": "Implementation of the ERC1822 {proxiableUUID} function. This returns the storage slot used by the implementation. It is used to validate the implementation's compatibility when performing an upgrade. IMPORTANT: A proxy pointing at a proxiable contract should not be considered proxiable itself, because this risks bricking a proxy that upgrades to it, by delegating to itself until out of gas. Thus it is critical that this function revert if invoked through a proxy. This is guaranteed by the `notDelegated` modifier."
      },
      "renounceRole(bytes32,address)": {
        "details": "Revokes `role` from the calling account. Roles are often managed via {grantRole} and {revokeRole}: this function's purpose is to provide a mechanism for accounts to lose their privileges if they are compromised (such as when a trusted device is misplaced). If the calling account had been revoked `role`, emits a {RoleRevoked} event. Requirements: - the caller must be `account`. May emit a {RoleRevoked} event."
      },
      "revokeRole(bytes32,address)": {
        "details": "Revokes `role` from `account`. If `account` had been granted `role`, emits a {RoleRevoked} event. Requirements: - the caller must have ``role``'s admin role. May emit a {RoleRevoked} event."
      },
      "supportsInterface(bytes4)": {
        "details": "See {IERC165-supportsInterface}."
      },
      "symbol()": {
        "details": "Returns the symbol of the token, usually a shorter version of the name."
      },
      "totalSupply()": {
        "details": "See {IERC20-totalSupply}."
      },
      "transfer(address,uint256)": {
        "details": "See {IERC20-transfer}. Requirements: - `to` cannot be the zero address. - the caller must have a balance of at least `amount`."
      },
      "transferFrom(address,address,uint256)": {
        "details": "See {IERC20-transferFrom}. Emits an {Approval} event indicating the updated allowance. This is not required by the EIP. See the note at the beginning of {ERC20}. NOTE: Does not update the allowance if the current allowance is the maximum `uint256`. Requirements: - `from` and `to` cannot be the zero address. - `from` must have a balance of at least `amount`. - the caller must have allowance for ``from``'s tokens of at least `amount`."
      },
      "upgradeTo(address)": {
        "details": "Upgrade the implementation of the proxy to `newImplementation`. Calls {_authorizeUpgrade}. Emits an {Upgraded} event."
      },
      "upgradeToAndCall(address,bytes)": {
        "details": "Upgrade the implementation of the proxy to `newImplementation`, and subsequently execute the function call encoded in `data`. Calls {_authorizeUpgrade}. Emits an {Upgraded} event."
      }
    },
    "version": 1
  },
  "userdoc": {
    "kind": "user",
    "methods": {},
    "version": 1
  }
}