{
  "contractName": "DabloonCAT",
  "abi": [
    {
      "inputs": [],
      "stateMutability": "nonpayable",
      "type": "constructor"
    },
    {
      "anonymous": false,
      "inputs": [
        {
          "indexed": false,
          "internalType": "address",
          "name": "previousAdmin",
          "type": "address"
        },
        {
          "indexed": false,
          "internalType": "address",
          "name": "newAdmin",
          "type": "address"
        }
      ],
      "name": "AdminChanged",
      "type": "event"
    },
    {
      "anonymous": false,
      "inputs": [
        {
          "indexed": true,
          "internalType": "address",
          "name": "owner",
          "type": "address"
        },
        {
          "indexed": true,
          "internalType": "address",
          "name": "spender",
          "type": "address"
        },
        {
          "indexed": false,
          "internalType": "uint256",
          "name": "value",
          "type": "uint256"
        }
      ],
      "name": "Approval",
      "type": "event"
    },
    {
      "anonymous": false,
      "inputs": [
        {
          "indexed": true,
          "internalType": "address",
          "name": "beacon",
          "type": "address"
        }
      ],
      "name": "BeaconUpgraded",
      "type": "event"
    },
    {
      "anonymous": false,
      "inputs": [
        {
          "indexed": false,
          "internalType": "uint8",
          "name": "version",
          "type": "uint8"
        }
      ],
      "name": "Initialized",
      "type": "event"
    },
    {
      "anonymous": false,
      "inputs": [
        {
          "indexed": true,
          "internalType": "bytes32",
          "name": "role",
          "type": "bytes32"
        },
        {
          "indexed": true,
          "internalType": "bytes32",
          "name": "previousAdminRole",
          "type": "bytes32"
        },
        {
          "indexed": true,
          "internalType": "bytes32",
          "name": "newAdminRole",
          "type": "bytes32"
        }
      ],
      "name": "RoleAdminChanged",
      "type": "event"
    },
    {
      "anonymous": false,
      "inputs": [
        {
          "indexed": true,
          "internalType": "bytes32",
          "name": "role",
          "type": "bytes32"
        },
        {
          "indexed": true,
          "internalType": "address",
          "name": "account",
          "type": "address"
        },
        {
          "indexed": true,
          "internalType": "address",
          "name": "sender",
          "type": "address"
        }
      ],
      "name": "RoleGranted",
      "type": "event"
    },
    {
      "anonymous": false,
      "inputs": [
        {
          "indexed": true,
          "internalType": "bytes32",
          "name": "role",
          "type": "bytes32"
        },
        {
          "indexed": true,
          "internalType": "address",
          "name": "account",
          "type": "address"
        },
        {
          "indexed": true,
          "internalType": "address",
          "name": "sender",
          "type": "address"
        }
      ],
      "name": "RoleRevoked",
      "type": "event"
    },
    {
      "anonymous": false,
      "inputs": [
        {
          "indexed": true,
          "internalType": "address",
          "name": "from",
          "type": "address"
        },
        {
          "indexed": true,
          "internalType": "address",
          "name": "to",
          "type": "address"
        },
        {
          "indexed": false,
          "internalType": "uint256",
          "name": "value",
          "type": "uint256"
        }
      ],
      "name": "Transfer",
      "type": "event"
    },
    {
      "anonymous": false,
      "inputs": [
        {
          "indexed": true,
          "internalType": "address",
          "name": "implementation",
          "type": "address"
        }
      ],
      "name": "Upgraded",
      "type": "event"
    },
    {
      "inputs": [],
      "name": "DEFAULT_ADMIN_ROLE",
      "outputs": [
        {
          "internalType": "bytes32",
          "name": "",
          "type": "bytes32"
        }
      ],
      "stateMutability": "view",
      "type": "function"
    },
    {
      "inputs": [],
      "name": "MINTER_ROLE",
      "outputs": [
        {
          "internalType": "bytes32",
          "name": "",
          "type": "bytes32"
        }
      ],
      "stateMutability": "view",
      "type": "function"
    },
    {
      "inputs": [],
      "name": "UPGRADER_ROLE",
      "outputs": [
        {
          "internalType": "bytes32",
          "name": "",
          "type": "bytes32"
        }
      ],
      "stateMutability": "view",
      "type": "function"
    },
    {
      "inputs": [
        {
          "internalType": "address",
          "name": "owner",
          "type": "address"
        },
        {
          "internalType": "address",
          "name": "spender",
          "type": "address"
        }
      ],
      "name": "allowance",
      "outputs": [
        {
          "internalType": "uint256",
          "name": "",
          "type": "uint256"
        }
      ],
      "stateMutability": "view",
      "type": "function"
    },
    {
      "inputs": [
        {
          "internalType": "address",
          "name": "spender",
          "type": "address"
        },
        {
          "internalType": "uint256",
          "name": "amount",
          "type": "uint256"
        }
      ],
      "name": "approve",
      "outputs": [
        {
          "internalType": "bool",
          "name": "",
          "type": "bool"
        }
      ],
      "stateMutability": "nonpayable",
      "type": "function"
    },
    {
      "inputs": [
        {
          "internalType": "address",
          "name": "account",
          "type": "address"
        }
      ],
      "name": "balanceOf",
      "outputs": [
        {
          "internalType": "uint256",
          "name": "",
          "type": "uint256"
        }
      ],
      "stateMutability": "view",
      "type": "function"
    },
    {
      "inputs": [],
      "name": "decimals",
      "outputs": [
        {
          "internalType": "uint8",
          "name": "",
          "type": "uint8"
        }
      ],
      "stateMutability": "view",
      "type": "function"
    },
    {
      "inputs": [
        {
          "internalType": "address",
          "name": "spender",
          "type": "address"
        },
        {
          "internalType": "uint256",
          "name": "subtractedValue",
          "type": "uint256"
        }
      ],
      "name": "decreaseAllowance",
      "outputs": [
        {
          "internalType": "bool",
          "name": "",
          "type": "bool"
        }
      ],
      "stateMutability": "nonpayable",
      "type": "function"
    },
    {
      "inputs": [
        {
          "internalType": "bytes32",
          "name": "role",
          "type": "bytes32"
        }
      ],
      "name": "getRoleAdmin",
      "outputs": [
        {
          "internalType": "bytes32",
          "name": "",
          "type": "bytes32"
        }
      ],
      "stateMutability": "view",
      "type": "function"
    },
    {
      "inputs": [
        {
          "internalType": "bytes32",
          "name": "role",
          "type": "bytes32"
        },
        {
          "internalType": "address",
          "name": "account",
          "type": "address"
        }
      ],
      "name": "grantRole",
      "outputs": [],
      "stateMutability": "nonpayable",
      "type": "function"
    },
    {
      "inputs": [
        {
          "internalType": "bytes32",
          "name": "role",
          "type": "bytes32"
        },
        {
          "internalType": "address",
          "name": "account",
          "type": "address"
        }
      ],
      "name": "hasRole",
      "outputs": [
        {
          "internalType": "bool",
          "name": "",
          "type": "bool"
        }
      ],
      "stateMutability": "view",
      "type": "function"
    },
    {
      "inputs": [
        {
          "internalType": "address",
          "name": "spender",
          "type": "address"
        },
        {
          "internalType": "uint256",
          "name": "addedValue",
          "type": "uint256"
        }
      ],
      "name": "increaseAllowance",
      "outputs": [
        {
          "internalType": "bool",
          "name": "",
          "type": "bool"
        }
      ],
      "stateMutability": "nonpayable",
      "type": "function"
    },
    {
      "inputs": [],
      "name": "name",
      "outputs": [
        {
          "internalType": "string",
          "name": "",
          "type": "string"
        }
      ],
      "stateMutability": "view",
      "type": "function"
    },
    {
      "inputs": [],
      "name": "proxiableUUID",
      "outputs": [
        {
          "internalType": "bytes32",
          "name": "",
          "type": "bytes32"
        }
      ],
      "stateMutability": "view",
      "type": "function"
    },
    {
      "inputs": [
        {
          "internalType": "bytes32",
          "name": "role",
          "type": "bytes32"
        },
        {
          "internalType": "address",
          "name": "account",
          "type": "address"
        }
      ],
      "name": "renounceRole",
      "outputs": [],
      "stateMutability": "nonpayable",
      "type": "function"
    },
    {
      "inputs": [
        {
          "internalType": "bytes32",
          "name": "role",
          "type": "bytes32"
        },
        {
          "internalType": "address",
          "name": "account",
          "type": "address"
        }
      ],
      "name": "revokeRole",
      "outputs": [],
      "stateMutability": "nonpayable",
      "type": "function"
    },
    {
      "inputs": [
        {
          "internalType": "bytes4",
          "name": "interfaceId",
          "type": "bytes4"
        }
      ],
      "name": "supportsInterface",
      "outputs": [
        {
          "internalType": "bool",
          "name": "",
          "type": "bool"
        }
      ],
      "stateMutability": "view",
      "type": "function"
    },
    {
      "inputs": [],
      "name": "symbol",
      "outputs": [
        {
          "internalType": "string",
          "name": "",
          "type": "string"
        }
      ],
      "stateMutability": "view",
      "type": "function"
    },
    {
      "inputs": [],
      "name": "totalSupply",
      "outputs": [
        {
          "internalType": "uint256",
          "name": "",
          "type": "uint256"
        }
      ],
      "stateMutability": "view",
      "type": "function"
    },
    {
      "inputs": [
        {
          "internalType": "address",
          "name": "to",
          "type": "address"
        },
        {
          "internalType": "uint256",
          "name": "amount",
          "type": "uint256"
        }
      ],
      "name": "transfer",
      "outputs": [
        {
          "internalType": "bool",
          "name": "",
          "type": "bool"
        }
      ],
      "stateMutability": "nonpayable",
      "type": "function"
    },
    {
      "inputs": [
        {
          "internalType": "address",
          "name": "from",
          "type": "address"
        },
        {
          "internalType": "address",
          "name": "to",
          "type": "address"
        },
        {
          "internalType": "uint256",
          "name": "amount",
          "type": "uint256"
        }
      ],
      "name": "transferFrom",
      "outputs": [
        {
          "internalType": "bool",
          "name": "",
          "type": "bool"
        }
      ],
      "stateMutability": "nonpayable",
      "type": "function"
    },
    {
      "inputs": [
        {
          "internalType": "address",
          "name": "newImplementation",
          "type": "address"
        }
      ],
      "name": "upgradeTo",
      "outputs": [],
      "stateMutability": "nonpayable",
      "type": "function"
    },
    {
      "inputs": [
        {
          "internalType": "address",
          "name": "newImplementation",
          "type": "address"
        },
        {
          "internalType": "bytes",
          "name": "data",
          "type": "bytes"
        }
      ],
      "name": "upgradeToAndCall",
      "outputs": [],
      "stateMutability": "payable",
      "type": "function"
    },
    {
      "inputs": [],
      "name": "initialize",
      "outputs": [],
      "stateMutability": "nonpayable",
      "type": "function"
    },
    {
      "inputs": [
        {
          "internalType": "address",
          "name": "to",
          "type": "address"
        },
        {
          "internalType": "uint256",
          "name": "amount",
          "type": "uint256"
        }
      ],
      "name": "mint",
      "outputs": [],
      "stateMutability": "nonpayable",
      "type": "function"
    }
  ],
  "bytecode": "0x60a06040523060805234801561001457600080fd5b5061001d610022565b6100e2565b600054610100900460ff161561008e5760405162461bcd60e51b815260206004820152602760248201527f496e697469616c697a61626c653a20636f6e747261637420697320696e697469604482015266616c697a696e6760c81b606482015260840160405180910390fd5b60005460ff90811610156100e0576000805460ff191660ff9081179091556040519081527f7f26b83ff96e1f2b6a682f133852f6798a09c465da95921460cefb38474024989060200160405180910390a15b565b608051611d4861011960003960008181610673015281816106b3015281816107a9015281816107e901526108780152611d486000f3fe6080604052600436106101665760003560e01c80634f1ef286116100d1578063a217fddf1161008a578063d539139311610064578063d53913931461040c578063d547741f14610440578063dd62ed3e14610460578063f72c0d8b1461048057600080fd5b8063a217fddf146103b7578063a457c2d7146103cc578063a9059cbb146103ec57600080fd5b80634f1ef2861461030f57806352d1902d1461032257806370a08231146103375780638129fc1c1461036d57806391d148541461038257806395d89b41146103a257600080fd5b80632f2ff15d116101235780632f2ff15d14610251578063313ce5671461027357806336568abe1461028f5780633659cfe6146102af57806339509351146102cf57806340c10f19146102ef57600080fd5b806301ffc9a71461016b57806306fdde03146101a0578063095ea7b3146101c257806318160ddd146101e257806323b872dd14610201578063248a9ca314610221575b600080fd5b34801561017757600080fd5b5061018b61018636600461181c565b6104b4565b60405190151581526020015b60405180910390f35b3480156101ac57600080fd5b506101b56104eb565b6040516101979190611872565b3480156101ce57600080fd5b5061018b6101dd3660046118c1565b61057d565b3480156101ee57600080fd5b506035545b604051908152602001610197565b34801561020d57600080fd5b5061018b61021c3660046118eb565b610595565b34801561022d57600080fd5b506101f361023c366004611927565b60009081526097602052604090206001015490565b34801561025d57600080fd5b5061027161026c366004611940565b6105bb565b005b34801561027f57600080fd5b5060405160128152602001610197565b34801561029b57600080fd5b506102716102aa366004611940565b6105e5565b3480156102bb57600080fd5b506102716102ca36600461196c565b610668565b3480156102db57600080fd5b5061018b6102ea3660046118c1565b610748565b3480156102fb57600080fd5b5061027161030a3660046118c1565b61076a565b61027161031d36600461199d565b61079e565b34801561032e57600080fd5b506101f361086b565b34801561034357600080fd5b506101f361035236600461196c565b6001600160a01b031660009081526033602052604090205490565b34801561037957600080fd5b5061027161091e565b34801561038e57600080fd5b5061018b61039d366004611940565b610ade565b3480156103ae57600080fd5b506101b5610b09565b3480156103c357600080fd5b506101f3600081565b3480156103d857600080fd5b5061018b6103e73660046118c1565b610b18565b3480156103f857600080fd5b5061018b6104073660046118c1565b610b9e565b34801561041857600080fd5b506101f37f9f2df0fed2c77648de5860a4cc508cd0818c85b8b8a1ab4ceeef8d981c8956a681565b34801561044c57600080fd5b5061027161045b366004611940565b610bac565b34801561046c57600080fd5b506101f361047b366004611a5f565b610bd1565b34801561048c57600080fd5b506101f37f189ab7a9244df0848122154315af71fe140f3db0fe014031783b0946b8c9d2e381565b60006001600160e01b03198216637965db0b60e01b14806104e557506301ffc9a760e01b6001600160e01b03198316145b92915050565b6060603680546104fa90611a89565b80601f016020809104026020016040519081016040528092919081815260200182805461052690611a89565b80156105735780601f1061054857610100808354040283529160200191610573565b820191906000526020600020905b81548152906001019060200180831161055657829003601f168201915b5050505050905090565b60003361058b818585610bfc565b5060019392505050565b6000336105a3858285610d20565b6105ae858585610d9a565b60019150505b9392505050565b6000828152609760205260409020600101546105d681610f45565b6105e08383610f4f565b505050565b6001600160a01b038116331461065a5760405162461bcd60e51b815260206004820152602f60248201527f416363657373436f6e74726f6c3a2063616e206f6e6c792072656e6f756e636560448201526e103937b632b9903337b91039b2b63360891b60648201526084015b60405180910390fd5b6106648282610fd5565b5050565b306001600160a01b037f00000000000000000000000000000000000000000000000000000000000000001614156106b15760405162461bcd60e51b815260040161065190611ac4565b7f00000000000000000000000000000000000000000000000000000000000000006001600160a01b03166106fa600080516020611ccc833981519152546001600160a01b031690565b6001600160a01b0316146107205760405162461bcd60e51b815260040161065190611b10565b6107298161103c565b6040805160008082526020820190925261074591839190611066565b50565b60003361058b81858561075b8383610bd1565b6107659190611b72565b610bfc565b7f9f2df0fed2c77648de5860a4cc508cd0818c85b8b8a1ab4ceeef8d981c8956a661079481610f45565b6105e083836111e0565b306001600160a01b037f00000000000000000000000000000000000000000000000000000000000000001614156107e75760405162461bcd60e51b815260040161065190611ac4565b7f00000000000000000000000000000000000000000000000000000000000000006001600160a01b0316610830600080516020611ccc833981519152546001600160a01b031690565b6001600160a01b0316146108565760405162461bcd60e51b815260040161065190611b10565b61085f8261103c565b61066482826001611066565b6000306001600160a01b037f0000000000000000000000000000000000000000000000000000000000000000161461090b5760405162461bcd60e51b815260206004820152603860248201527f555550535570677261646561626c653a206d757374206e6f742062652063616c60448201527f6c6564207468726f7567682064656c656761746563616c6c00000000000000006064820152608401610651565b50600080516020611ccc83398151915290565b600054610100900460ff161580801561093e5750600054600160ff909116105b806109585750303b158015610958575060005460ff166001145b6109bb5760405162461bcd60e51b815260206004820152602e60248201527f496e697469616c697a61626c653a20636f6e747261637420697320616c72656160448201526d191e481a5b9a5d1a585b1a5e995960921b6064820152608401610651565b6000805460ff1916600117905580156109de576000805461ff0019166101001790555b610a276040518060400160405280600a8152602001691118589b1bdbdb90d05560b21b81525060405180604001604052806005815260200164111850d05560da1b8152506112a1565b610a2f6112d2565b610a376112d2565b610a42600033610f4f565b610a6c7f9f2df0fed2c77648de5860a4cc508cd0818c85b8b8a1ab4ceeef8d981c8956a633610f4f565b610a967f189ab7a9244df0848122154315af71fe140f3db0fe014031783b0946b8c9d2e333610f4f565b8015610745576000805461ff0019169055604051600181527f7f26b83ff96e1f2b6a682f133852f6798a09c465da95921460cefb38474024989060200160405180910390a150565b60009182526097602090815260408084206001600160a01b0393909316845291905290205460ff1690565b6060603780546104fa90611a89565b60003381610b268286610bd1565b905083811015610b865760405162461bcd60e51b815260206004820152602560248201527f45524332303a2064656372656173656420616c6c6f77616e63652062656c6f77604482015264207a65726f60d81b6064820152608401610651565b610b938286868403610bfc565b506001949350505050565b60003361058b818585610d9a565b600082815260976020526040902060010154610bc781610f45565b6105e08383610fd5565b6001600160a01b03918216600090815260346020908152604080832093909416825291909152205490565b6001600160a01b038316610c5e5760405162461bcd60e51b8152602060048201526024808201527f45524332303a20617070726f76652066726f6d20746865207a65726f206164646044820152637265737360e01b6064820152608401610651565b6001600160a01b038216610cbf5760405162461bcd60e51b815260206004820152602260248201527f45524332303a20617070726f766520746f20746865207a65726f206164647265604482015261737360f01b6064820152608401610651565b6001600160a01b0383811660008181526034602090815260408083209487168084529482529182902085905590518481527f8c5be1e5ebec7d5bd14f71427d1e84f3dd0314c0f7b2291e5b200ac8c7c3b925910160405180910390a3505050565b6000610d2c8484610bd1565b90506000198114610d945781811015610d875760405162461bcd60e51b815260206004820152601d60248201527f45524332303a20696e73756666696369656e7420616c6c6f77616e63650000006044820152606401610651565b610d948484848403610bfc565b50505050565b6001600160a01b038316610dfe5760405162461bcd60e51b815260206004820152602560248201527f45524332303a207472616e736665722066726f6d20746865207a65726f206164604482015264647265737360d81b6064820152608401610651565b6001600160a01b038216610e605760405162461bcd60e51b815260206004820152602360248201527f45524332303a207472616e7366657220746f20746865207a65726f206164647260448201526265737360e81b6064820152608401610651565b6001600160a01b03831660009081526033602052604090205481811015610ed85760405162461bcd60e51b815260206004820152602660248201527f45524332303a207472616e7366657220616d6f756e7420657863656564732062604482015265616c616e636560d01b6064820152608401610651565b6001600160a01b0380851660008181526033602052604080822086860390559286168082529083902080548601905591517fddf252ad1be2c89b69c2b068fc378daa952ba7f163c4a11628f55a4df523b3ef90610f389086815260200190565b60405180910390a3610d94565b61074581336112fb565b610f598282610ade565b6106645760008281526097602090815260408083206001600160a01b03851684529091529020805460ff19166001179055610f913390565b6001600160a01b0316816001600160a01b0316837f2f8788117e7eff1d82e926ec794901d17c78024a50270940304540a733656f0d60405160405180910390a45050565b610fdf8282610ade565b156106645760008281526097602090815260408083206001600160a01b0385168085529252808320805460ff1916905551339285917ff6391f5c32d9c69d2a47ea670b442974b53935d1edc7fd64eb21e047a839171b9190a45050565b7f189ab7a9244df0848122154315af71fe140f3db0fe014031783b0946b8c9d2e361066481610f45565b7f4910fdfa16fed3260ed0e7147f7cc6da11a60208b5b9406d12a635614ffd91435460ff1615611099576105e083611354565b826001600160a01b03166352d1902d6040518163ffffffff1660e01b815260040160206040518083038186803b1580156110d257600080fd5b505afa925050508015611102575060408051601f3d908101601f191682019092526110ff91810190611b8a565b60015b6111655760405162461bcd60e51b815260206004820152602e60248201527f45524331393637557067726164653a206e657720696d706c656d656e7461746960448201526d6f6e206973206e6f74205555505360901b6064820152608401610651565b600080516020611ccc83398151915281146111d45760405162461bcd60e51b815260206004820152602960248201527f45524331393637557067726164653a20756e737570706f727465642070726f786044820152681a58589b195555525160ba1b6064820152608401610651565b506105e08383836113f0565b6001600160a01b0382166112365760405162461bcd60e51b815260206004820152601f60248201527f45524332303a206d696e7420746f20746865207a65726f2061646472657373006044820152606401610651565b80603560008282546112489190611b72565b90915550506001600160a01b0382166000818152603360209081526040808320805486019055518481527fddf252ad1be2c89b69c2b068fc378daa952ba7f163c4a11628f55a4df523b3ef910160405180910390a35050565b600054610100900460ff166112c85760405162461bcd60e51b815260040161065190611ba3565b6106648282611415565b600054610100900460ff166112f95760405162461bcd60e51b815260040161065190611ba3565b565b6113058282610ade565b6106645761131281611463565b61131d836020611475565b60405160200161132e929190611bee565b60408051601f198184030181529082905262461bcd60e51b825261065191600401611872565b6001600160a01b0381163b6113c15760405162461bcd60e51b815260206004820152602d60248201527f455243313936373a206e657720696d706c656d656e746174696f6e206973206e60448201526c1bdd08184818dbdb9d1c9858dd609a1b6064820152608401610651565b600080516020611ccc83398151915280546001600160a01b0319166001600160a01b0392909216919091179055565b6113f983611611565b6000825111806114065750805b156105e057610d948383611651565b600054610100900460ff1661143c5760405162461bcd60e51b815260040161065190611ba3565b815161144f906036906020850190611783565b5080516105e0906037906020840190611783565b60606104e56001600160a01b03831660145b60606000611484836002611c63565b61148f906002611b72565b67ffffffffffffffff8111156114a7576114a7611987565b6040519080825280601f01601f1916602001820160405280156114d1576020820181803683370190505b509050600360fc1b816000815181106114ec576114ec611c82565b60200101906001600160f81b031916908160001a905350600f60fb1b8160018151811061151b5761151b611c82565b60200101906001600160f81b031916908160001a905350600061153f846002611c63565b61154a906001611b72565b90505b60018111156115c2576f181899199a1a9b1b9c1cb0b131b232b360811b85600f166010811061157e5761157e611c82565b1a60f81b82828151811061159457611594611c82565b60200101906001600160f81b031916908160001a90535060049490941c936115bb81611c98565b905061154d565b5083156105b45760405162461bcd60e51b815260206004820181905260248201527f537472696e67733a20686578206c656e67746820696e73756666696369656e746044820152606401610651565b61161a81611354565b6040516001600160a01b038216907fbc7cd75a20ee27fd9adebab32041f755214dbc6bffa90cc0225b39da2e5c2d3b90600090a250565b60606001600160a01b0383163b6116b95760405162461bcd60e51b815260206004820152602660248201527f416464726573733a2064656c65676174652063616c6c20746f206e6f6e2d636f6044820152651b9d1c9858dd60d21b6064820152608401610651565b600080846001600160a01b0316846040516116d49190611caf565b600060405180830381855af49150503d806000811461170f576040519150601f19603f3d011682016040523d82523d6000602084013e611714565b606091505b509150915061173c8282604051806060016040528060278152602001611cec60279139611745565b95945050505050565b606083156117545750816105b4565b6105b483838151156117695781518083602001fd5b8060405162461bcd60e51b81526004016106519190611872565b82805461178f90611a89565b90600052602060002090601f0160209004810192826117b157600085556117f7565b82601f106117ca57805160ff19168380011785556117f7565b828001600101855582156117f7579182015b828111156117f75782518255916020019190600101906117dc565b50611803929150611807565b5090565b5b808211156118035760008155600101611808565b60006020828403121561182e57600080fd5b81356001600160e01b0319811681146105b457600080fd5b60005b83811015611861578181015183820152602001611849565b83811115610d945750506000910152565b6020815260008251806020840152611891816040850160208701611846565b601f01601f19169190910160400192915050565b80356001600160a01b03811681146118bc57600080fd5b919050565b600080604083850312156118d457600080fd5b6118dd836118a5565b946020939093013593505050565b60008060006060848603121561190057600080fd5b611909846118a5565b9250611917602085016118a5565b9150604084013590509250925092565b60006020828403121561193957600080fd5b5035919050565b6000806040838503121561195357600080fd5b82359150611963602084016118a5565b90509250929050565b60006020828403121561197e57600080fd5b6105b4826118a5565b634e487b7160e01b600052604160045260246000fd5b600080604083850312156119b057600080fd5b6119b9836118a5565b9150602083013567ffffffffffffffff808211156119d657600080fd5b818501915085601f8301126119ea57600080fd5b8135818111156119fc576119fc611987565b604051601f8201601f19908116603f01168101908382118183101715611a2457611a24611987565b81604052828152886020848701011115611a3d57600080fd5b8260208601602083013760006020848301015280955050505050509250929050565b60008060408385031215611a7257600080fd5b611a7b836118a5565b9150611963602084016118a5565b600181811c90821680611a9d57607f821691505b60208210811415611abe57634e487b7160e01b600052602260045260246000fd5b50919050565b6020808252602c908201527f46756e6374696f6e206d7573742062652063616c6c6564207468726f7567682060408201526b19195b1959d85d1958d85b1b60a21b606082015260800190565b6020808252602c908201527f46756e6374696f6e206d7573742062652063616c6c6564207468726f7567682060408201526b6163746976652070726f787960a01b606082015260800190565b634e487b7160e01b600052601160045260246000fd5b60008219821115611b8557611b85611b5c565b500190565b600060208284031215611b9c57600080fd5b5051919050565b6020808252602b908201527f496e697469616c697a61626c653a20636f6e7472616374206973206e6f74206960408201526a6e697469616c697a696e6760a81b606082015260800190565b7f416363657373436f6e74726f6c3a206163636f756e7420000000000000000000815260008351611c26816017850160208801611846565b7001034b99036b4b9b9b4b733903937b6329607d1b6017918401918201528351611c57816028840160208801611846565b01602801949350505050565b6000816000190483118215151615611c7d57611c7d611b5c565b500290565b634e487b7160e01b600052603260045260246000fd5b600081611ca757611ca7611b5c565b506000190190565b60008251611cc1818460208701611846565b919091019291505056fe360894a13ba1a3210667c828492db98dca3e2076cc3735a920a3ca505d382bbc416464726573733a206c6f772d6c6576656c2064656c65676174652063616c6c206661696c6564a2646970667358221220a8f1ccc61c7e104a2cf7d5d418cf1fd187c00bd35393b0ac4b85e7053191de6264736f6c63430008090033",
  "immutableReferences": {
    "1129": [
      {
        "length": 32,
        "start": 1651
      },
      {
        "length": 32,
        "start": 1715
      },
      {
        "length": 32,
        "start": 1961
      },
      {
        "length": 32,
        "start": 2025
      },
      {
        "length": 32,
        "start": 2168
      }
    ]
  },
  "source": "// SPDX-License-Identifier: MIT\r\npragma solidity ^0.8.9;\r\n\r\nimport \"@openzeppelin/contracts-upgradeable/token/ERC20/ERC20Upgradeable.sol\";\r\nimport \"@openzeppelin/contracts-upgradeable/access/AccessControlUpgradeable.sol\";\r\nimport \"@openzeppelin/contracts-upgradeable/proxy/utils/Initializable.sol\";\r\nimport \"@openzeppelin/contracts-upgradeable/proxy/utils/UUPSUpgradeable.sol\";\r\n\r\n// DaBloonCAT (DaCAT) v1.0.0\r\n// DBC is a contract that manages the creation and transfer of DabloonCATs\r\n// DBC: createDabloonCAT\r\n// DaBloonCATs are given to you in exchange for publishing content on the nWonderland platform\r\n// every time you watch content on the nWonderland platform, you will receive 1 Dabloon (DaBLOON)\r\n// if you watch content with homework enabled, you will receive 4 DabloonCATs\r\n// homework is an optional feature that runs transactions on your behalf\r\n    // when you do your own homework, you will receive 1 DabloonCAT\r\n    // when you verify your homework, you will receive 3 DabloonCATs\r\n    // doing homework runs an AI algorithm on your behalf\r\n    // verifying homework \r\n// every time you publish content on the nWonderland platform, you will receive 1 DabloonCAT (DaCAT)\r\n// every time you like, comment, or share content on the nWonderland platform, give the cat a dabloon.\r\n// dabloon cat is a token that represents the value of your content.\r\n// dabloonCATs are used to buy and sell content on the nWonderland platform\r\n// the nWonderland platform is a decentralized content marketplace\r\n// it is only possible to buy and sell content on the nWonderland platform with DabloonCATs\r\n// DabloonCATs are the only currency on the nWonderland platform\r\n// The nWonderland platform is only accessible to users through the a nHome (nH) smart contract\r\n// this contract creates a virtual home identical to your physical home by logging your software and hardware.\r\n// This creates a more secure and private enviornment that is not accessible to the public but has trustless abilities to perform \r\n// transactions on your behalf. It's designed to keep extensive logs of your items and activities to ensure that you are not\r\n// being scammed or hacked. It creates these items as vaults of logs map the items and activities of your home.\r\n// It's important to realize that privacy is not the same as security. Privacy is the ability to keep your information private.\r\n// Security is the ability to keep your information safe. Privacy is a right, security is a responsibility.\r\n// Privacy then must be managed between individuals within the same home. Security must be managed by the home itself.\r\n// The DaBloonCAT Money system is a way to manage the value of your items and activities within your home. You can use it to buy and sell\r\n// items and activities within your home, creating a virtual economy for chores, entertainment, and other activities.\r\n// The nWonderland platform is a way to access the nHome network from anywhere in the world. It's a way to access your home from anywhere.\r\n// since the nHome network is a private network, the nWonderland platform can be used to share parts of your home with the public. \r\n// since we are taking recordings of regular interactions, we can post them in a way that allows them to be viewed in virtual reality.\r\n// with advanced AI computer vision, it is possible to create games and other interactive experiences based on the recordings with \r\n// added compositional elements, different camera angles, and other effects.\r\n// the nWonderland platform is a way to share your home with the world. The nHomes platform enables it by creating a safe infastructure network\r\n// for all of your personal data, and divides ownership and identity through profiles and vaults.\r\n// If you are an expert in a field, you can create a profile and share your knowledge so that it trains an AI algorithm directly tied to your identity.\r\n// Other users can then use your profile to train their own AI algorithms. I call this the \"AI as a Service\" model. My goal is to create a\r\n// decentralized AI as a service marketplace where users can buy and sell AI algorithms. This will be the first decentralized marketplace\r\n// to encorporate AI algorithms that are trained by the users themselves as they use the platform to redeem DabloonCATs by logging their activities.\r\n// These AI algorithms will be used to create virtual reality experiences, games, and other interactive experiences that are based on the\r\n// content that is shared on the nWonderland platform. Everyone gets rewarded for doing what they already do, get experience points through\r\n// virtual and augmented reality teaching and learning experiences, and get paid for their content.\r\n\r\ncontract DabloonCAT is Initializable, ERC20Upgradeable, AccessControlUpgradeable, UUPSUpgradeable {\r\n    bytes32 public constant MINTER_ROLE = keccak256(\"MINTER_ROLE\");\r\n    bytes32 public constant UPGRADER_ROLE = keccak256(\"UPGRADER_ROLE\");\r\n\r\n    /// @custom:oz-upgrades-unsafe-allow constructor\r\n    constructor() {\r\n        _disableInitializers();\r\n    }\r\n\r\n    function initialize() initializer public {\r\n        __ERC20_init(\"DabloonCAT\", \"DaCAT\");\r\n        __AccessControl_init();\r\n        __UUPSUpgradeable_init();\r\n\r\n        _grantRole(DEFAULT_ADMIN_ROLE, msg.sender);\r\n        _grantRole(MINTER_ROLE, msg.sender);\r\n        _grantRole(UPGRADER_ROLE, msg.sender);\r\n    }\r\n\r\n    function mint(address to, uint256 amount) public onlyRole(MINTER_ROLE) {\r\n        _mint(to, amount);\r\n    }\r\n\r\n    function _authorizeUpgrade(address newImplementation)\r\n        internal\r\n        onlyRole(UPGRADER_ROLE)\r\n        override\r\n    {}\r\n}",
  "sourcePath": "C:\\Users\\mosle\\Documents\\GitHub\\nWonderland\\contracts\\DALI\\000_DabloonCAT.sol",
  "compiler": {
    "name": "solc",
    "version": "0.8.9+commit.e5eed63a.Emscripten.clang"
  },
  "schemaVersion": "3.4.8",
  "updatedAt": "2022-12-15T17:05:23.900Z",
  "devdoc": {
    "kind": "dev",
    "methods": {
      "allowance(address,address)": {
        "details": "See {IERC20-allowance}."
      },
      "approve(address,uint256)": {
        "details": "See {IERC20-approve}. NOTE: If `amount` is the maximum `uint256`, the allowance is not updated on `transferFrom`. This is semantically equivalent to an infinite approval. Requirements: - `spender` cannot be the zero address."
      },
      "balanceOf(address)": {
        "details": "See {IERC20-balanceOf}."
      },
      "constructor": {
        "custom:oz-upgrades-unsafe-allow": "constructor"
      },
      "decimals()": {
        "details": "Returns the number of decimals used to get its user representation. For example, if `decimals` equals `2`, a balance of `505` tokens should be displayed to a user as `5.05` (`505 / 10 ** 2`). Tokens usually opt for a value of 18, imitating the relationship between Ether and Wei. This is the value {ERC20} uses, unless this function is overridden; NOTE: This information is only used for _display_ purposes: it in no way affects any of the arithmetic of the contract, including {IERC20-balanceOf} and {IERC20-transfer}."
      },
      "decreaseAllowance(address,uint256)": {
        "details": "Atomically decreases the allowance granted to `spender` by the caller. This is an alternative to {approve} that can be used as a mitigation for problems described in {IERC20-approve}. Emits an {Approval} event indicating the updated allowance. Requirements: - `spender` cannot be the zero address. - `spender` must have allowance for the caller of at least `subtractedValue`."
      },
      "getRoleAdmin(bytes32)": {
        "details": "Returns the admin role that controls `role`. See {grantRole} and {revokeRole}. To change a role's admin, use {_setRoleAdmin}."
      },
      "grantRole(bytes32,address)": {
        "details": "Grants `role` to `account`. If `account` had not been already granted `role`, emits a {RoleGranted} event. Requirements: - the caller must have ``role``'s admin role. May emit a {RoleGranted} event."
      },
      "hasRole(bytes32,address)": {
        "details": "Returns `true` if `account` has been granted `role`."
      },
      "increaseAllowance(address,uint256)": {
        "details": "Atomically increases the allowance granted to `spender` by the caller. This is an alternative to {approve} that can be used as a mitigation for problems described in {IERC20-approve}. Emits an {Approval} event indicating the updated allowance. Requirements: - `spender` cannot be the zero address."
      },
      "name()": {
        "details": "Returns the name of the token."
      },
      "proxiableUUID()": {
        "details": "Implementation of the ERC1822 {proxiableUUID} function. This returns the storage slot used by the implementation. It is used to validate the implementation's compatibility when performing an upgrade. IMPORTANT: A proxy pointing at a proxiable contract should not be considered proxiable itself, because this risks bricking a proxy that upgrades to it, by delegating to itself until out of gas. Thus it is critical that this function revert if invoked through a proxy. This is guaranteed by the `notDelegated` modifier."
      },
      "renounceRole(bytes32,address)": {
        "details": "Revokes `role` from the calling account. Roles are often managed via {grantRole} and {revokeRole}: this function's purpose is to provide a mechanism for accounts to lose their privileges if they are compromised (such as when a trusted device is misplaced). If the calling account had been revoked `role`, emits a {RoleRevoked} event. Requirements: - the caller must be `account`. May emit a {RoleRevoked} event."
      },
      "revokeRole(bytes32,address)": {
        "details": "Revokes `role` from `account`. If `account` had been granted `role`, emits a {RoleRevoked} event. Requirements: - the caller must have ``role``'s admin role. May emit a {RoleRevoked} event."
      },
      "supportsInterface(bytes4)": {
        "details": "See {IERC165-supportsInterface}."
      },
      "symbol()": {
        "details": "Returns the symbol of the token, usually a shorter version of the name."
      },
      "totalSupply()": {
        "details": "See {IERC20-totalSupply}."
      },
      "transfer(address,uint256)": {
        "details": "See {IERC20-transfer}. Requirements: - `to` cannot be the zero address. - the caller must have a balance of at least `amount`."
      },
      "transferFrom(address,address,uint256)": {
        "details": "See {IERC20-transferFrom}. Emits an {Approval} event indicating the updated allowance. This is not required by the EIP. See the note at the beginning of {ERC20}. NOTE: Does not update the allowance if the current allowance is the maximum `uint256`. Requirements: - `from` and `to` cannot be the zero address. - `from` must have a balance of at least `amount`. - the caller must have allowance for ``from``'s tokens of at least `amount`."
      },
      "upgradeTo(address)": {
        "details": "Upgrade the implementation of the proxy to `newImplementation`. Calls {_authorizeUpgrade}. Emits an {Upgraded} event."
      },
      "upgradeToAndCall(address,bytes)": {
        "details": "Upgrade the implementation of the proxy to `newImplementation`, and subsequently execute the function call encoded in `data`. Calls {_authorizeUpgrade}. Emits an {Upgraded} event."
      }
    },
    "version": 1
  },
  "userdoc": {
    "kind": "user",
    "methods": {},
    "version": 1
  }
}