{
  "contractName": "EncryptionTools",
  "abi": [
    {
      "inputs": [
        {
          "internalType": "string[]",
          "name": "_item",
          "type": "string[]"
        },
        {
          "internalType": "string[]",
          "name": "_hashKeys",
          "type": "string[]"
        }
      ],
      "name": "createItem",
      "outputs": [
        {
          "internalType": "bytes32[]",
          "name": "",
          "type": "bytes32[]"
        }
      ],
      "stateMutability": "pure",
      "type": "function",
      "constant": true
    },
    {
      "inputs": [
        {
          "internalType": "bytes32[]",
          "name": "_encryptedItem",
          "type": "bytes32[]"
        },
        {
          "internalType": "string[]",
          "name": "_hashKeys",
          "type": "string[]"
        }
      ],
      "name": "decryptItem",
      "outputs": [
        {
          "internalType": "string[]",
          "name": "",
          "type": "string[]"
        }
      ],
      "stateMutability": "pure",
      "type": "function",
      "constant": true
    },
    {
      "inputs": [],
      "name": "initialize",
      "outputs": [],
      "stateMutability": "nonpayable",
      "type": "function"
    }
  ],
  "bytecode": "0x608060405234801561001057600080fd5b50610a9f806100206000396000f3fe608060405234801561001057600080fd5b50600436106100415760003560e01c8063693af44f146100465780638129fc1c14610076578063c553cead14610080575b600080fd5b610060600480360381019061005b91906104db565b6100b0565b60405161006d919061061b565b60405180910390f35b61007e6101a6565b005b61009a6004803603810190610095919061072c565b6101a8565b6040516100a791906108ee565b60405180910390f35b60606000835167ffffffffffffffff8111156100cf576100ce6102c5565b5b6040519080825280602002602001820160405280156100fd5781602001602082028036833780820191505090505b50905060005b845181101561019b5784818151811061011f5761011e610910565b5b602002602001015184828151811061013a57610139610910565b5b602002602001015160405160200161015392919061097b565b6040516020818303038152906040528051906020012082828151811061017c5761017b610910565b5b6020026020010181815250508080610193906109d8565b915050610103565b508091505092915050565b565b60606000835167ffffffffffffffff8111156101c7576101c66102c5565b5b6040519080825280602002602001820160405280156101fa57816020015b60608152602001906001900390816101e55790505b50905060005b84518110156102905784818151811061021c5761021b610910565b5b602002602001015184828151811061023757610236610910565b5b6020026020010151604051602001610250929190610a41565b60405160208183030381529060405282828151811061027257610271610910565b5b60200260200101819052508080610288906109d8565b915050610200565b508091505092915050565b6000604051905090565b600080fd5b600080fd5b600080fd5b6000601f19601f8301169050919050565b7f4e487b7100000000000000000000000000000000000000000000000000000000600052604160045260246000fd5b6102fd826102b4565b810181811067ffffffffffffffff8211171561031c5761031b6102c5565b5b80604052505050565b600061032f61029b565b905061033b82826102f4565b919050565b600067ffffffffffffffff82111561035b5761035a6102c5565b5b602082029050602081019050919050565b600080fd5b600080fd5b600067ffffffffffffffff821115610391576103906102c5565b5b61039a826102b4565b9050602081019050919050565b82818337600083830152505050565b60006103c96103c484610376565b610325565b9050828152602081018484840111156103e5576103e4610371565b5b6103f08482856103a7565b509392505050565b600082601f83011261040d5761040c6102af565b5b813561041d8482602086016103b6565b91505092915050565b600061043961043484610340565b610325565b9050808382526020820190506020840283018581111561045c5761045b61036c565b5b835b818110156104a357803567ffffffffffffffff811115610481576104806102af565b5b80860161048e89826103f8565b8552602085019450505060208101905061045e565b5050509392505050565b600082601f8301126104c2576104c16102af565b5b81356104d2848260208601610426565b91505092915050565b600080604083850312156104f2576104f16102a5565b5b600083013567ffffffffffffffff8111156105105761050f6102aa565b5b61051c858286016104ad565b925050602083013567ffffffffffffffff81111561053d5761053c6102aa565b5b610549858286016104ad565b9150509250929050565b600081519050919050565b600082825260208201905092915050565b6000819050602082019050919050565b6000819050919050565b6105928161057f565b82525050565b60006105a48383610589565b60208301905092915050565b6000602082019050919050565b60006105c882610553565b6105d2818561055e565b93506105dd8361056f565b8060005b8381101561060e5781516105f58882610598565b9750610600836105b0565b9250506001810190506105e1565b5085935050505092915050565b6000602082019050818103600083015261063581846105bd565b905092915050565b600067ffffffffffffffff821115610658576106576102c5565b5b602082029050602081019050919050565b6106728161057f565b811461067d57600080fd5b50565b60008135905061068f81610669565b92915050565b60006106a86106a38461063d565b610325565b905080838252602082019050602084028301858111156106cb576106ca61036c565b5b835b818110156106f457806106e08882610680565b8452602084019350506020810190506106cd565b5050509392505050565b600082601f830112610713576107126102af565b5b8135610723848260208601610695565b91505092915050565b60008060408385031215610743576107426102a5565b5b600083013567ffffffffffffffff811115610761576107606102aa565b5b61076d858286016106fe565b925050602083013567ffffffffffffffff81111561078e5761078d6102aa565b5b61079a858286016104ad565b9150509250929050565b600081519050919050565b600082825260208201905092915050565b6000819050602082019050919050565b600081519050919050565b600082825260208201905092915050565b60005b8381101561080a5780820151818401526020810190506107ef565b83811115610819576000848401525b50505050565b600061082a826107d0565b61083481856107db565b93506108448185602086016107ec565b61084d816102b4565b840191505092915050565b6000610864838361081f565b905092915050565b6000602082019050919050565b6000610884826107a4565b61088e81856107af565b9350836020820285016108a0856107c0565b8060005b858110156108dc57848403895281516108bd8582610858565b94506108c88361086c565b925060208a019950506001810190506108a4565b50829750879550505050505092915050565b600060208201905081810360008301526109088184610879565b905092915050565b7f4e487b7100000000000000000000000000000000000000000000000000000000600052603260045260246000fd5b600081905092915050565b6000610955826107d0565b61095f818561093f565b935061096f8185602086016107ec565b80840191505092915050565b6000610987828561094a565b9150610993828461094a565b91508190509392505050565b7f4e487b7100000000000000000000000000000000000000000000000000000000600052601160045260246000fd5b6000819050919050565b60006109e3826109ce565b91507fffffffffffffffffffffffffffffffffffffffffffffffffffffffffffffffff8203610a1557610a1461099f565b5b600182019050919050565b6000819050919050565b610a3b610a368261057f565b610a20565b82525050565b6000610a4d8285610a2a565b602082019150610a5d828461094a565b9150819050939250505056fea2646970667358221220395037112d8f54097e8225bdaa98e5fb719de25f2056151415c4daf65359853964736f6c634300080e0033",
  "immutableReferences": {},
  "source": "// SPDX-License-Identifier: MIT\r\n// OpenZeppelin Contracts (last updated v4.6.0) (utils/math/SafeMath.sol)\r\npragma solidity ^0.8.4;\r\n\r\n\r\n// EncryptionTools (ET) v1.0.0\r\n// ET is a contract that manages the encryption and decryption of items\r\n// for version 1.0.0, ET uses a basic encryption algorithm\r\n// ET: createItem\r\ncontract EncryptionTools {\r\n    // item struct for version 1.0.0 of ET (basic encryption algorithm)\r\n    struct Item {\r\n        bytes32[] encryptedItem;\r\n    }\r\n    // creates an item using a basic encryption algorithm\r\n    function createItem(string[] memory _item, string[] memory _hashKeys) public pure returns (bytes32[] memory) {\r\n        bytes32[] memory encryptedItem = new bytes32[](_item.length);\r\n        for (uint256 i = 0; i < _item.length; i++) {\r\n            encryptedItem[i] = keccak256(abi.encodePacked(_item[i], _hashKeys[i]));\r\n        }\r\n        return encryptedItem;\r\n    }\r\n    // decrypts an item using a basic encryption algorithm\r\n    function decryptItem(bytes32[] memory _encryptedItem, string[] memory _hashKeys) public pure returns (string[] memory) {\r\n        string[] memory decryptedItem = new string[](_encryptedItem.length);\r\n        for (uint256 i = 0; i < _encryptedItem.length; i++) {\r\n            decryptedItem[i] = string(abi.encodePacked(_encryptedItem[i], _hashKeys[i]));\r\n        }\r\n        return decryptedItem;\r\n    }\r\n\r\n    // initialize the contract\r\n    function initialize() public {\r\n        // nothing to initialize\r\n    }\r\n}\r\n",
  "sourcePath": "C:\\Users\\mosle\\Desktop\\Home DAO\\Websites\\HeroProtagonist.dao\\contracts\\DALI\\001_EncryptionTools.sol",
  "compiler": {
    "name": "solc",
    "version": "0.8.14+commit.80d49f37.Emscripten.clang"
  },
  "schemaVersion": "3.4.10",
  "updatedAt": "2022-11-08T03:03:54.317Z",
  "networkType": "ethereum",
  "devdoc": {
    "kind": "dev",
    "methods": {},
    "version": 1
  },
  "userdoc": {
    "kind": "user",
    "methods": {},
    "version": 1
  }
}