{
  "contractName": "EncryptionTools",
  "abi": [
    {
      "inputs": [],
      "name": "itemID",
      "outputs": [
        {
          "internalType": "uint256",
          "name": "",
          "type": "uint256"
        }
      ],
      "stateMutability": "view",
      "type": "function"
    },
    {
      "inputs": [
        {
          "internalType": "bytes32[]",
          "name": "_encryptedItem",
          "type": "bytes32[]"
        },
        {
          "internalType": "string[]",
          "name": "_hashKeys",
          "type": "string[]"
        }
      ],
      "name": "decryptItem",
      "outputs": [
        {
          "internalType": "string[]",
          "name": "",
          "type": "string[]"
        }
      ],
      "stateMutability": "pure",
      "type": "function"
    },
    {
      "inputs": [],
      "name": "initialize",
      "outputs": [],
      "stateMutability": "nonpayable",
      "type": "function"
    }
  ],
  "bytecode": "0x608060405234801561001057600080fd5b506104c2806100206000396000f3fe608060405234801561001057600080fd5b50600436106100415760003560e01c806343cdef60146100465780638129fc1c14610062578063c553cead14610064575b600080fd5b61004f60005481565b6040519081526020015b60405180910390f35b005b6100776100723660046102c4565b610084565b60405161005991906103ad565b60606000835167ffffffffffffffff8111156100a2576100a2610170565b6040519080825280602002602001820160405280156100d557816020015b60608152602001906001900390816100c05790505b50905060005b8451811015610168578481815181106100f6576100f6610427565b602002602001015184828151811061011057610110610427565b602002602001015160405160200161012992919061043d565b60405160208183030381529060405282828151811061014a5761014a610427565b6020026020010181905250808061016090610463565b9150506100db565b509392505050565b634e487b7160e01b600052604160045260246000fd5b604051601f8201601f1916810167ffffffffffffffff811182821017156101af576101af610170565b604052919050565b600067ffffffffffffffff8211156101d1576101d1610170565b5060051b60200190565b6000601f83818401126101ed57600080fd5b823560206102026101fd836101b7565b610186565b82815260059290921b8501810191818101908784111561022157600080fd5b8287015b848110156102b857803567ffffffffffffffff808211156102465760008081fd5b818a0191508a603f83011261025b5760008081fd5b8582013560408282111561027157610271610170565b610282828b01601f19168901610186565b92508183528c818386010111156102995760008081fd5b8181850189850137506000908201870152845250918301918301610225565b50979650505050505050565b600080604083850312156102d757600080fd5b823567ffffffffffffffff808211156102ef57600080fd5b818501915085601f83011261030357600080fd5b813560206103136101fd836101b7565b82815260059290921b8401810191818101908984111561033257600080fd5b948201945b8386101561035057853582529482019490820190610337565b9650508601359250508082111561036657600080fd5b50610373858286016101db565b9150509250929050565b60005b83811015610398578181015183820152602001610380565b838111156103a7576000848401525b50505050565b6000602080830181845280855180835260408601915060408160051b870101925083870160005b8281101561041a57878503603f19018452815180518087526103fb818989018a850161037d565b601f01601f1916959095018601945092850192908501906001016103d4565b5092979650505050505050565b634e487b7160e01b600052603260045260246000fd5b8281526000825161045581602085016020870161037d565b919091016020019392505050565b600060001982141561048557634e487b7160e01b600052601160045260246000fd5b506001019056fea2646970667358221220157e12744fb22807dc9a7ac2daf2f5c26720c3751989e05e68d8928f3a65e61964736f6c63430008090033",
  "immutableReferences": {},
  "source": "// SPDX-License-Identifier: MIT\r\n// OpenZeppelin Contracts (last updated v4.6.0) (utils/math/SafeMath.sol)\r\npragma solidity ^0.8.9;\r\n\r\n// EncryptionTools (ET) v0.1.0\r\n// ET creates a unique ID for each item\r\n// ET includes functions for encrypting and decrypting items\r\n// it is used by Item Tracker (IT) to create ID #'s for items\r\n\r\ncontract EncryptionTools {\r\n    // create a structure for an item that will be stored in the items mapping\r\n    struct Item {\r\n        bytes32[] encryptedItem;\r\n    }\r\n    uint256 public itemID;\r\n    mapping (uint256 => Item) internal items;\r\n\r\n    // encrypts an item using a basic encryption algorithm\r\n    function getEncryption(string[] memory _item, string[] memory _hashKeys) \r\n        internal pure returns (bytes32[] memory) {\r\n            // create an array of bytes32 to store the encrypted item\r\n            bytes32[] memory encryptedItem = new bytes32[](_item.length);\r\n            // for each item in the array, encrypt the item\r\n            for (uint256 i = 0; i < _item.length; i++) {\r\n                encryptedItem[i] = keccak256(abi.encodePacked(_item[i], _hashKeys[i]));\r\n            }\r\n            return encryptedItem;\r\n        }\r\n\r\n    // decrypts an item using a basic encryption algorithm\r\n    function getDecryption(bytes32[] memory _encryptedItem, string[] memory _hashKeys) internal pure returns (string[] memory) {\r\n        string[] memory decryptedItem = new string[](_encryptedItem.length);\r\n        for (uint256 i = 0; i < _encryptedItem.length; i++) {\r\n            decryptedItem[i] = string(abi.encodePacked(_encryptedItem[i], _hashKeys[i]));\r\n        }\r\n        return decryptedItem;\r\n    }\r\n    // create an item \r\n    function createItem(string[] memory _item, string[] memory _hashKeys) internal returns (uint256) {\r\n        // create a random number between 0 and 10,000,000\r\n        uint256 random = uint256(keccak256(abi.encodePacked(block.timestamp, block.difficulty, msg.sender))) % 10000000;\r\n        // create an item\r\n        Item memory newItem;\r\n        newItem.encryptedItem = getEncryption(_item, _hashKeys);\r\n        // store the item in the items mapping\r\n        items[random] = newItem;\r\n        // return the itemID\r\n        return random;\r\n    }\r\n\r\n    // decrypts an item using a basic encryption algorithm\r\n    function decryptItem(bytes32[] memory _encryptedItem, string[] memory _hashKeys) public pure returns (string[] memory) {\r\n        string[] memory decryptedItem = new string[](_encryptedItem.length);\r\n        for (uint256 i = 0; i < _encryptedItem.length; i++) {\r\n            decryptedItem[i] = string(abi.encodePacked(_encryptedItem[i], _hashKeys[i]));\r\n        }\r\n        return decryptedItem;\r\n    }\r\n\r\n    // initialize the contract\r\n    function initialize() public {\r\n        // nothing to initialize\r\n    }\r\n}\r\n",
  "sourcePath": "C:\\Users\\mosle\\Documents\\GitHub\\nWonderland\\contracts\\DALI\\001_EncryptionTools.sol",
  "compiler": {
    "name": "solc",
    "version": "0.8.9+commit.e5eed63a.Emscripten.clang"
  },
  "schemaVersion": "3.4.8",
  "updatedAt": "2022-12-15T17:05:23.908Z",
  "devdoc": {
    "kind": "dev",
    "methods": {},
    "version": 1
  },
  "userdoc": {
    "kind": "user",
    "methods": {},
    "version": 1
  }
}