{
  "contractName": "ItemTracker",
  "abi": [
    {
      "inputs": [],
      "stateMutability": "nonpayable",
      "type": "constructor"
    },
    {
      "anonymous": false,
      "inputs": [
        {
          "indexed": false,
          "internalType": "address",
          "name": "previousAdmin",
          "type": "address"
        },
        {
          "indexed": false,
          "internalType": "address",
          "name": "newAdmin",
          "type": "address"
        }
      ],
      "name": "AdminChanged",
      "type": "event"
    },
    {
      "anonymous": false,
      "inputs": [
        {
          "indexed": true,
          "internalType": "address",
          "name": "account",
          "type": "address"
        },
        {
          "indexed": true,
          "internalType": "address",
          "name": "operator",
          "type": "address"
        },
        {
          "indexed": false,
          "internalType": "bool",
          "name": "approved",
          "type": "bool"
        }
      ],
      "name": "ApprovalForAll",
      "type": "event"
    },
    {
      "anonymous": false,
      "inputs": [
        {
          "indexed": true,
          "internalType": "address",
          "name": "beacon",
          "type": "address"
        }
      ],
      "name": "BeaconUpgraded",
      "type": "event"
    },
    {
      "anonymous": false,
      "inputs": [
        {
          "indexed": false,
          "internalType": "address",
          "name": "_encryptionTools",
          "type": "address"
        }
      ],
      "name": "EncryptionToolsSet",
      "type": "event"
    },
    {
      "anonymous": false,
      "inputs": [
        {
          "indexed": false,
          "internalType": "uint8",
          "name": "version",
          "type": "uint8"
        }
      ],
      "name": "Initialized",
      "type": "event"
    },
    {
      "anonymous": false,
      "inputs": [
        {
          "indexed": false,
          "internalType": "address",
          "name": "account",
          "type": "address"
        }
      ],
      "name": "Paused",
      "type": "event"
    },
    {
      "anonymous": false,
      "inputs": [
        {
          "indexed": true,
          "internalType": "bytes32",
          "name": "role",
          "type": "bytes32"
        },
        {
          "indexed": true,
          "internalType": "bytes32",
          "name": "previousAdminRole",
          "type": "bytes32"
        },
        {
          "indexed": true,
          "internalType": "bytes32",
          "name": "newAdminRole",
          "type": "bytes32"
        }
      ],
      "name": "RoleAdminChanged",
      "type": "event"
    },
    {
      "anonymous": false,
      "inputs": [
        {
          "indexed": true,
          "internalType": "bytes32",
          "name": "role",
          "type": "bytes32"
        },
        {
          "indexed": true,
          "internalType": "address",
          "name": "account",
          "type": "address"
        },
        {
          "indexed": true,
          "internalType": "address",
          "name": "sender",
          "type": "address"
        }
      ],
      "name": "RoleGranted",
      "type": "event"
    },
    {
      "anonymous": false,
      "inputs": [
        {
          "indexed": true,
          "internalType": "bytes32",
          "name": "role",
          "type": "bytes32"
        },
        {
          "indexed": true,
          "internalType": "address",
          "name": "account",
          "type": "address"
        },
        {
          "indexed": true,
          "internalType": "address",
          "name": "sender",
          "type": "address"
        }
      ],
      "name": "RoleRevoked",
      "type": "event"
    },
    {
      "anonymous": false,
      "inputs": [
        {
          "indexed": true,
          "internalType": "address",
          "name": "operator",
          "type": "address"
        },
        {
          "indexed": true,
          "internalType": "address",
          "name": "from",
          "type": "address"
        },
        {
          "indexed": true,
          "internalType": "address",
          "name": "to",
          "type": "address"
        },
        {
          "indexed": false,
          "internalType": "uint256[]",
          "name": "ids",
          "type": "uint256[]"
        },
        {
          "indexed": false,
          "internalType": "uint256[]",
          "name": "values",
          "type": "uint256[]"
        }
      ],
      "name": "TransferBatch",
      "type": "event"
    },
    {
      "anonymous": false,
      "inputs": [
        {
          "indexed": true,
          "internalType": "address",
          "name": "operator",
          "type": "address"
        },
        {
          "indexed": true,
          "internalType": "address",
          "name": "from",
          "type": "address"
        },
        {
          "indexed": true,
          "internalType": "address",
          "name": "to",
          "type": "address"
        },
        {
          "indexed": false,
          "internalType": "uint256",
          "name": "id",
          "type": "uint256"
        },
        {
          "indexed": false,
          "internalType": "uint256",
          "name": "value",
          "type": "uint256"
        }
      ],
      "name": "TransferSingle",
      "type": "event"
    },
    {
      "anonymous": false,
      "inputs": [
        {
          "indexed": false,
          "internalType": "string",
          "name": "value",
          "type": "string"
        },
        {
          "indexed": true,
          "internalType": "uint256",
          "name": "id",
          "type": "uint256"
        }
      ],
      "name": "URI",
      "type": "event"
    },
    {
      "anonymous": false,
      "inputs": [
        {
          "indexed": false,
          "internalType": "address",
          "name": "account",
          "type": "address"
        }
      ],
      "name": "Unpaused",
      "type": "event"
    },
    {
      "anonymous": false,
      "inputs": [
        {
          "indexed": true,
          "internalType": "address",
          "name": "implementation",
          "type": "address"
        }
      ],
      "name": "Upgraded",
      "type": "event"
    },
    {
      "inputs": [],
      "name": "DEFAULT_ADMIN_ROLE",
      "outputs": [
        {
          "internalType": "bytes32",
          "name": "",
          "type": "bytes32"
        }
      ],
      "stateMutability": "view",
      "type": "function"
    },
    {
      "inputs": [],
      "name": "ETAddress",
      "outputs": [
        {
          "internalType": "address",
          "name": "",
          "type": "address"
        }
      ],
      "stateMutability": "view",
      "type": "function"
    },
    {
      "inputs": [],
      "name": "MINTER_ROLE",
      "outputs": [
        {
          "internalType": "bytes32",
          "name": "",
          "type": "bytes32"
        }
      ],
      "stateMutability": "view",
      "type": "function"
    },
    {
      "inputs": [],
      "name": "PAUSER_ROLE",
      "outputs": [
        {
          "internalType": "bytes32",
          "name": "",
          "type": "bytes32"
        }
      ],
      "stateMutability": "view",
      "type": "function"
    },
    {
      "inputs": [],
      "name": "UPGRADER_ROLE",
      "outputs": [
        {
          "internalType": "bytes32",
          "name": "",
          "type": "bytes32"
        }
      ],
      "stateMutability": "view",
      "type": "function"
    },
    {
      "inputs": [],
      "name": "URI_SETTER_ROLE",
      "outputs": [
        {
          "internalType": "bytes32",
          "name": "",
          "type": "bytes32"
        }
      ],
      "stateMutability": "view",
      "type": "function"
    },
    {
      "inputs": [
        {
          "internalType": "address",
          "name": "account",
          "type": "address"
        },
        {
          "internalType": "uint256",
          "name": "id",
          "type": "uint256"
        }
      ],
      "name": "balanceOf",
      "outputs": [
        {
          "internalType": "uint256",
          "name": "",
          "type": "uint256"
        }
      ],
      "stateMutability": "view",
      "type": "function"
    },
    {
      "inputs": [
        {
          "internalType": "address[]",
          "name": "accounts",
          "type": "address[]"
        },
        {
          "internalType": "uint256[]",
          "name": "ids",
          "type": "uint256[]"
        }
      ],
      "name": "balanceOfBatch",
      "outputs": [
        {
          "internalType": "uint256[]",
          "name": "",
          "type": "uint256[]"
        }
      ],
      "stateMutability": "view",
      "type": "function"
    },
    {
      "inputs": [
        {
          "internalType": "address",
          "name": "account",
          "type": "address"
        },
        {
          "internalType": "uint256",
          "name": "id",
          "type": "uint256"
        },
        {
          "internalType": "uint256",
          "name": "value",
          "type": "uint256"
        }
      ],
      "name": "burn",
      "outputs": [],
      "stateMutability": "nonpayable",
      "type": "function"
    },
    {
      "inputs": [
        {
          "internalType": "address",
          "name": "account",
          "type": "address"
        },
        {
          "internalType": "uint256[]",
          "name": "ids",
          "type": "uint256[]"
        },
        {
          "internalType": "uint256[]",
          "name": "values",
          "type": "uint256[]"
        }
      ],
      "name": "burnBatch",
      "outputs": [],
      "stateMutability": "nonpayable",
      "type": "function"
    },
    {
      "inputs": [
        {
          "internalType": "uint256",
          "name": "id",
          "type": "uint256"
        }
      ],
      "name": "exists",
      "outputs": [
        {
          "internalType": "bool",
          "name": "",
          "type": "bool"
        }
      ],
      "stateMutability": "view",
      "type": "function"
    },
    {
      "inputs": [
        {
          "internalType": "bytes32",
          "name": "role",
          "type": "bytes32"
        }
      ],
      "name": "getRoleAdmin",
      "outputs": [
        {
          "internalType": "bytes32",
          "name": "",
          "type": "bytes32"
        }
      ],
      "stateMutability": "view",
      "type": "function"
    },
    {
      "inputs": [
        {
          "internalType": "bytes32",
          "name": "role",
          "type": "bytes32"
        },
        {
          "internalType": "address",
          "name": "account",
          "type": "address"
        }
      ],
      "name": "grantRole",
      "outputs": [],
      "stateMutability": "nonpayable",
      "type": "function"
    },
    {
      "inputs": [
        {
          "internalType": "bytes32",
          "name": "role",
          "type": "bytes32"
        },
        {
          "internalType": "address",
          "name": "account",
          "type": "address"
        }
      ],
      "name": "hasRole",
      "outputs": [
        {
          "internalType": "bool",
          "name": "",
          "type": "bool"
        }
      ],
      "stateMutability": "view",
      "type": "function"
    },
    {
      "inputs": [
        {
          "internalType": "address",
          "name": "account",
          "type": "address"
        },
        {
          "internalType": "address",
          "name": "operator",
          "type": "address"
        }
      ],
      "name": "isApprovedForAll",
      "outputs": [
        {
          "internalType": "bool",
          "name": "",
          "type": "bool"
        }
      ],
      "stateMutability": "view",
      "type": "function"
    },
    {
      "inputs": [],
      "name": "itemID",
      "outputs": [
        {
          "internalType": "uint256",
          "name": "",
          "type": "uint256"
        }
      ],
      "stateMutability": "view",
      "type": "function"
    },
    {
      "inputs": [],
      "name": "paused",
      "outputs": [
        {
          "internalType": "bool",
          "name": "",
          "type": "bool"
        }
      ],
      "stateMutability": "view",
      "type": "function"
    },
    {
      "inputs": [],
      "name": "proxiableUUID",
      "outputs": [
        {
          "internalType": "bytes32",
          "name": "",
          "type": "bytes32"
        }
      ],
      "stateMutability": "view",
      "type": "function"
    },
    {
      "inputs": [
        {
          "internalType": "bytes32",
          "name": "role",
          "type": "bytes32"
        },
        {
          "internalType": "address",
          "name": "account",
          "type": "address"
        }
      ],
      "name": "renounceRole",
      "outputs": [],
      "stateMutability": "nonpayable",
      "type": "function"
    },
    {
      "inputs": [
        {
          "internalType": "bytes32",
          "name": "role",
          "type": "bytes32"
        },
        {
          "internalType": "address",
          "name": "account",
          "type": "address"
        }
      ],
      "name": "revokeRole",
      "outputs": [],
      "stateMutability": "nonpayable",
      "type": "function"
    },
    {
      "inputs": [
        {
          "internalType": "address",
          "name": "from",
          "type": "address"
        },
        {
          "internalType": "address",
          "name": "to",
          "type": "address"
        },
        {
          "internalType": "uint256[]",
          "name": "ids",
          "type": "uint256[]"
        },
        {
          "internalType": "uint256[]",
          "name": "amounts",
          "type": "uint256[]"
        },
        {
          "internalType": "bytes",
          "name": "data",
          "type": "bytes"
        }
      ],
      "name": "safeBatchTransferFrom",
      "outputs": [],
      "stateMutability": "nonpayable",
      "type": "function"
    },
    {
      "inputs": [
        {
          "internalType": "address",
          "name": "from",
          "type": "address"
        },
        {
          "internalType": "address",
          "name": "to",
          "type": "address"
        },
        {
          "internalType": "uint256",
          "name": "id",
          "type": "uint256"
        },
        {
          "internalType": "uint256",
          "name": "amount",
          "type": "uint256"
        },
        {
          "internalType": "bytes",
          "name": "data",
          "type": "bytes"
        }
      ],
      "name": "safeTransferFrom",
      "outputs": [],
      "stateMutability": "nonpayable",
      "type": "function"
    },
    {
      "inputs": [
        {
          "internalType": "address",
          "name": "operator",
          "type": "address"
        },
        {
          "internalType": "bool",
          "name": "approved",
          "type": "bool"
        }
      ],
      "name": "setApprovalForAll",
      "outputs": [],
      "stateMutability": "nonpayable",
      "type": "function"
    },
    {
      "inputs": [],
      "name": "title",
      "outputs": [
        {
          "internalType": "string",
          "name": "",
          "type": "string"
        }
      ],
      "stateMutability": "view",
      "type": "function"
    },
    {
      "inputs": [
        {
          "internalType": "uint256",
          "name": "id",
          "type": "uint256"
        }
      ],
      "name": "totalSupply",
      "outputs": [
        {
          "internalType": "uint256",
          "name": "",
          "type": "uint256"
        }
      ],
      "stateMutability": "view",
      "type": "function"
    },
    {
      "inputs": [
        {
          "internalType": "address",
          "name": "newImplementation",
          "type": "address"
        }
      ],
      "name": "upgradeTo",
      "outputs": [],
      "stateMutability": "nonpayable",
      "type": "function"
    },
    {
      "inputs": [
        {
          "internalType": "address",
          "name": "newImplementation",
          "type": "address"
        },
        {
          "internalType": "bytes",
          "name": "data",
          "type": "bytes"
        }
      ],
      "name": "upgradeToAndCall",
      "outputs": [],
      "stateMutability": "payable",
      "type": "function"
    },
    {
      "inputs": [
        {
          "internalType": "uint256",
          "name": "",
          "type": "uint256"
        }
      ],
      "name": "uri",
      "outputs": [
        {
          "internalType": "string",
          "name": "",
          "type": "string"
        }
      ],
      "stateMutability": "view",
      "type": "function"
    },
    {
      "inputs": [
        {
          "internalType": "address",
          "name": "_ETAddress",
          "type": "address"
        }
      ],
      "name": "initialize",
      "outputs": [],
      "stateMutability": "nonpayable",
      "type": "function"
    },
    {
      "inputs": [
        {
          "internalType": "string",
          "name": "newuri",
          "type": "string"
        }
      ],
      "name": "setURI",
      "outputs": [],
      "stateMutability": "nonpayable",
      "type": "function"
    },
    {
      "inputs": [],
      "name": "pause",
      "outputs": [],
      "stateMutability": "nonpayable",
      "type": "function"
    },
    {
      "inputs": [],
      "name": "unpause",
      "outputs": [],
      "stateMutability": "nonpayable",
      "type": "function"
    },
    {
      "inputs": [
        {
          "internalType": "address",
          "name": "account",
          "type": "address"
        },
        {
          "internalType": "uint256",
          "name": "id",
          "type": "uint256"
        },
        {
          "internalType": "uint256",
          "name": "amount",
          "type": "uint256"
        },
        {
          "internalType": "bytes",
          "name": "data",
          "type": "bytes"
        }
      ],
      "name": "mint",
      "outputs": [],
      "stateMutability": "nonpayable",
      "type": "function"
    },
    {
      "inputs": [
        {
          "internalType": "address",
          "name": "to",
          "type": "address"
        },
        {
          "internalType": "uint256[]",
          "name": "ids",
          "type": "uint256[]"
        },
        {
          "internalType": "uint256[]",
          "name": "amounts",
          "type": "uint256[]"
        },
        {
          "internalType": "bytes",
          "name": "data",
          "type": "bytes"
        }
      ],
      "name": "mintBatch",
      "outputs": [],
      "stateMutability": "nonpayable",
      "type": "function"
    },
    {
      "inputs": [
        {
          "internalType": "bytes4",
          "name": "interfaceId",
          "type": "bytes4"
        }
      ],
      "name": "supportsInterface",
      "outputs": [
        {
          "internalType": "bool",
          "name": "",
          "type": "bool"
        }
      ],
      "stateMutability": "view",
      "type": "function"
    }
  ],
  "bytecode": "0x3060805260c06040819052600060a081905262000020916101c69162000101565b503480156200002e57600080fd5b50620000396200003f565b620001e4565b600054610100900460ff1615620000ac5760405162461bcd60e51b815260206004820152602760248201527f496e697469616c697a61626c653a20636f6e747261637420697320696e697469604482015266616c697a696e6760c81b606482015260840160405180910390fd5b60005460ff9081161015620000ff576000805460ff191660ff9081179091556040519081527f7f26b83ff96e1f2b6a682f133852f6798a09c465da95921460cefb38474024989060200160405180910390a15b565b8280546200010f90620001a7565b90600052602060002090601f0160209004810192826200013357600085556200017e565b82601f106200014e57805160ff19168380011785556200017e565b828001600101855582156200017e579182015b828111156200017e57825182559160200191906001019062000161565b506200018c92915062000190565b5090565b5b808211156200018c576000815560010162000191565b600181811c90821680620001bc57607f821691505b60208210811415620001de57634e487b7160e01b600052602260045260246000fd5b50919050565b60805161361d6200021c60003960008181610980015281816109c001528181610c3801528181610c780152610d07015261361d6000f3fe6080604052600436106102025760003560e01c806352d1902d11610118578063bd85b039116100a0578063e63ab1e91161006f578063e63ab1e91461060e578063e985e9c514610630578063f242432a14610679578063f5298aca14610699578063f72c0d8b146106b957600080fd5b8063bd85b0391461057e578063c4d66de8146105ac578063d5391393146105cc578063d547741f146105ee57600080fd5b80637f345710116100e75780637f345710146104e05780638456cb591461051457806391d1485414610529578063a217fddf14610549578063a22cb4651461055e57600080fd5b806352d1902d146104735780635c975abb146104885780636b20c454146104a0578063731133e9146104c057600080fd5b80632f2ff15d1161019b57806343cdef601161016a57806343cdef60146103d75780634a79d50c146103ee5780634e1273f4146104035780634f1ef286146104305780634f558e791461044357600080fd5b80632f2ff15d1461036257806336568abe146103825780633659cfe6146103a25780633f4ba83a146103c257600080fd5b80630e89341c116101d75780630e89341c146102c55780631f7fdffa146102f2578063248a9ca3146103125780632eb2c2d61461034257600080fd5b806249192014610207578062fdd58e1461024557806301ffc9a71461027357806302fe5305146102a3575b600080fd5b34801561021357600080fd5b506101c554610228906001600160a01b031681565b6040516001600160a01b0390911681526020015b60405180910390f35b34801561025157600080fd5b5061026561026036600461281a565b6106ed565b60405190815260200161023c565b34801561027f57600080fd5b5061029361028e36600461285a565b610785565b604051901515815260200161023c565b3480156102af57600080fd5b506102c36102be366004612916565b610796565b005b3480156102d157600080fd5b506102e56102e0366004612966565b6107cd565b60405161023c91906129d7565b3480156102fe57600080fd5b506102c361030d366004612a9e565b610861565b34801561031e57600080fd5b5061026561032d366004612966565b60009081526097602052604090206001015490565b34801561034e57600080fd5b506102c361035d366004612b36565b61088c565b34801561036e57600080fd5b506102c361037d366004612bdf565b6108d1565b34801561038e57600080fd5b506102c361039d366004612bdf565b6108fb565b3480156103ae57600080fd5b506102c36103bd366004612c0b565b610975565b3480156103ce57600080fd5b506102c3610a55565b3480156103e357600080fd5b506102656101c35481565b3480156103fa57600080fd5b506102e5610a75565b34801561040f57600080fd5b5061042361041e366004612c26565b610b04565b60405161023c9190612d2b565b6102c361043e366004612d3e565b610c2d565b34801561044f57600080fd5b5061029361045e366004612966565b600090815261012d6020526040902054151590565b34801561047f57600080fd5b50610265610cfa565b34801561049457600080fd5b5060c95460ff16610293565b3480156104ac57600080fd5b506102c36104bb366004612d81565b610dae565b3480156104cc57600080fd5b506102c36104db366004612df4565b610df1565b3480156104ec57600080fd5b506102657f7804d923f43a17d325d77e781528e0793b2edd9890ab45fc64efd7b4b427744c81565b34801561052057600080fd5b506102c3610e15565b34801561053557600080fd5b50610293610544366004612bdf565b610e35565b34801561055557600080fd5b50610265600081565b34801561056a57600080fd5b506102c3610579366004612e48565b610e60565b34801561058a57600080fd5b50610265610599366004612966565b600090815261012d602052604090205490565b3480156105b857600080fd5b506102c36105c7366004612c0b565b610e6b565b3480156105d857600080fd5b506102656000805160206135c883398151915281565b3480156105fa57600080fd5b506102c3610609366004612bdf565b61107d565b34801561061a57600080fd5b5061026560008051602061358183398151915281565b34801561063c57600080fd5b5061029361064b366004612e84565b6001600160a01b03918216600090815260666020908152604080832093909416825291909152205460ff1690565b34801561068557600080fd5b506102c3610694366004612eae565b6110a2565b3480156106a557600080fd5b506102c36106b4366004612f12565b6110e7565b3480156106c557600080fd5b506102657f189ab7a9244df0848122154315af71fe140f3db0fe014031783b0946b8c9d2e381565b60006001600160a01b03831661075d5760405162461bcd60e51b815260206004820152602a60248201527f455243313135353a2061646472657373207a65726f206973206e6f742061207660448201526930b634b21037bbb732b960b11b60648201526084015b60405180910390fd5b5060009081526065602090815260408083206001600160a01b03949094168352929052205490565b60006107908261112a565b92915050565b7f7804d923f43a17d325d77e781528e0793b2edd9890ab45fc64efd7b4b427744c6107c08161114f565b6107c982611159565b5050565b6060606780546107dc90612f45565b80601f016020809104026020016040519081016040528092919081815260200182805461080890612f45565b80156108555780601f1061082a57610100808354040283529160200191610855565b820191906000526020600020905b81548152906001019060200180831161083857829003601f168201915b50505050509050919050565b6000805160206135c88339815191526108798161114f565b6108858585858561116c565b5050505050565b6001600160a01b0385163314806108a857506108a8853361064b565b6108c45760405162461bcd60e51b815260040161075490612f80565b61088585858585856112c7565b6000828152609760205260409020600101546108ec8161114f565b6108f68383611474565b505050565b6001600160a01b038116331461096b5760405162461bcd60e51b815260206004820152602f60248201527f416363657373436f6e74726f6c3a2063616e206f6e6c792072656e6f756e636560448201526e103937b632b9903337b91039b2b63360891b6064820152608401610754565b6107c982826114fa565b306001600160a01b037f00000000000000000000000000000000000000000000000000000000000000001614156109be5760405162461bcd60e51b815260040161075490612fce565b7f00000000000000000000000000000000000000000000000000000000000000006001600160a01b0316610a07600080516020613561833981519152546001600160a01b031690565b6001600160a01b031614610a2d5760405162461bcd60e51b81526004016107549061301a565b610a3681611561565b60408051600080825260208201909252610a529183919061158b565b50565b600080516020613581833981519152610a6d8161114f565b610a52611705565b6101c68054610a8390612f45565b80601f0160208091040260200160405190810160405280929190818152602001828054610aaf90612f45565b8015610afc5780601f10610ad157610100808354040283529160200191610afc565b820191906000526020600020905b815481529060010190602001808311610adf57829003601f168201915b505050505081565b60608151835114610b695760405162461bcd60e51b815260206004820152602960248201527f455243313135353a206163636f756e747320616e6420696473206c656e677468604482015268040dad2e6dac2e8c6d60bb1b6064820152608401610754565b600083516001600160401b03811115610b8457610b84612877565b604051908082528060200260200182016040528015610bad578160200160208202803683370190505b50905060005b8451811015610c2557610bf8858281518110610bd157610bd1613066565b6020026020010151858381518110610beb57610beb613066565b60200260200101516106ed565b828281518110610c0a57610c0a613066565b6020908102919091010152610c1e81613092565b9050610bb3565b509392505050565b306001600160a01b037f0000000000000000000000000000000000000000000000000000000000000000161415610c765760405162461bcd60e51b815260040161075490612fce565b7f00000000000000000000000000000000000000000000000000000000000000006001600160a01b0316610cbf600080516020613561833981519152546001600160a01b031690565b6001600160a01b031614610ce55760405162461bcd60e51b81526004016107549061301a565b610cee82611561565b6107c98282600161158b565b6000306001600160a01b037f00000000000000000000000000000000000000000000000000000000000000001614610d9a5760405162461bcd60e51b815260206004820152603860248201527f555550535570677261646561626c653a206d757374206e6f742062652063616c60448201527f6c6564207468726f7567682064656c656761746563616c6c00000000000000006064820152608401610754565b506000805160206135618339815191525b90565b6001600160a01b038316331480610dca5750610dca833361064b565b610de65760405162461bcd60e51b815260040161075490612f80565b6108f6838383611757565b6000805160206135c8833981519152610e098161114f565b610885858585856118f8565b600080516020613581833981519152610e2d8161114f565b610a526119e3565b60009182526097602090815260408084206001600160a01b0393909316845291905290205460ff1690565b6107c9338383611a20565b600054610100900460ff1615808015610e8b5750600054600160ff909116105b80610ea55750303b158015610ea5575060005460ff166001145b610f085760405162461bcd60e51b815260206004820152602e60248201527f496e697469616c697a61626c653a20636f6e747261637420697320616c72656160448201526d191e481a5b9a5d1a585b1a5e995960921b6064820152608401610754565b6000805460ff191660011790558015610f2b576000805461ff0019166101001790555b610f616040518060400160405280601581526020017468747470733a2f2f697066732e696f2f697066732f60581b815250611b01565b610f69611b31565b610f71611b5a565b610f79611b31565b610f81611b31565b610f89611b31565b610f94600033611b89565b610fbe7f7804d923f43a17d325d77e781528e0793b2edd9890ab45fc64efd7b4b427744c33611b89565b610fd660008051602061358183398151915233611b89565b610fee6000805160206135c883398151915233611b89565b6110187f189ab7a9244df0848122154315af71fe140f3db0fe014031783b0946b8c9d2e333611b89565b6101c580546001600160a01b0319166001600160a01b03841617905580156107c9576000805461ff0019169055604051600181527f7f26b83ff96e1f2b6a682f133852f6798a09c465da95921460cefb38474024989060200160405180910390a15050565b6000828152609760205260409020600101546110988161114f565b6108f683836114fa565b6001600160a01b0385163314806110be57506110be853361064b565b6110da5760405162461bcd60e51b815260040161075490612f80565b6108858585858585611b93565b6001600160a01b0383163314806111035750611103833361064b565b61111f5760405162461bcd60e51b815260040161075490612f80565b6108f6838383611ccf565b60006001600160e01b03198216637965db0b60e01b1480610790575061079082611deb565b610a528133611e3b565b80516107c9906067906020840190612765565b6001600160a01b0384166111925760405162461bcd60e51b8152600401610754906130ad565b81518351146111b35760405162461bcd60e51b8152600401610754906130ee565b336111c381600087878787611e94565b60005b845181101561125f578381815181106111e1576111e1613066565b6020026020010151606560008784815181106111ff576111ff613066565b602002602001015181526020019081526020016000206000886001600160a01b03166001600160a01b0316815260200190815260200160002060008282546112479190613136565b9091555081905061125781613092565b9150506111c6565b50846001600160a01b031660006001600160a01b0316826001600160a01b03167f4a39dc06d4c0dbc64b70af90fd698a233a518aa5d07e595d983b8c0526c8f7fb87876040516112b092919061314e565b60405180910390a461088581600087878787611eaa565b81518351146112e85760405162461bcd60e51b8152600401610754906130ee565b6001600160a01b03841661130e5760405162461bcd60e51b815260040161075490613173565b3361131d818787878787611e94565b60005b845181101561140657600085828151811061133d5761133d613066565b60200260200101519050600085838151811061135b5761135b613066565b60209081029190910181015160008481526065835260408082206001600160a01b038e1683529093529190912054909150818110156113ac5760405162461bcd60e51b8152600401610754906131b8565b60008381526065602090815260408083206001600160a01b038e8116855292528083208585039055908b168252812080548492906113eb908490613136565b92505081905550505050806113ff90613092565b9050611320565b50846001600160a01b0316866001600160a01b0316826001600160a01b03167f4a39dc06d4c0dbc64b70af90fd698a233a518aa5d07e595d983b8c0526c8f7fb878760405161145692919061314e565b60405180910390a461146c818787878787611eaa565b505050505050565b61147e8282610e35565b6107c95760008281526097602090815260408083206001600160a01b03851684529091529020805460ff191660011790556114b63390565b6001600160a01b0316816001600160a01b0316837f2f8788117e7eff1d82e926ec794901d17c78024a50270940304540a733656f0d60405160405180910390a45050565b6115048282610e35565b156107c95760008281526097602090815260408083206001600160a01b0385168085529252808320805460ff1916905551339285917ff6391f5c32d9c69d2a47ea670b442974b53935d1edc7fd64eb21e047a839171b9190a45050565b7f189ab7a9244df0848122154315af71fe140f3db0fe014031783b0946b8c9d2e36107c98161114f565b7f4910fdfa16fed3260ed0e7147f7cc6da11a60208b5b9406d12a635614ffd91435460ff16156115be576108f683612015565b826001600160a01b03166352d1902d6040518163ffffffff1660e01b815260040160206040518083038186803b1580156115f757600080fd5b505afa925050508015611627575060408051601f3d908101601f1916820190925261162491810190613202565b60015b61168a5760405162461bcd60e51b815260206004820152602e60248201527f45524331393637557067726164653a206e657720696d706c656d656e7461746960448201526d6f6e206973206e6f74205555505360901b6064820152608401610754565b60008051602061356183398151915281146116f95760405162461bcd60e51b815260206004820152602960248201527f45524331393637557067726164653a20756e737570706f727465642070726f786044820152681a58589b195555525160ba1b6064820152608401610754565b506108f68383836120b1565b61170d6120d6565b60c9805460ff191690557f5db9ee0a495bf2e6ff9c91a7834c1ba4fdd244a5e8aa4e537bd38aeae4b073aa335b6040516001600160a01b03909116815260200160405180910390a1565b6001600160a01b03831661177d5760405162461bcd60e51b81526004016107549061321b565b805182511461179e5760405162461bcd60e51b8152600401610754906130ee565b60003390506117c181856000868660405180602001604052806000815250611e94565b60005b83518110156118895760008482815181106117e1576117e1613066565b6020026020010151905060008483815181106117ff576117ff613066565b60209081029190910181015160008481526065835260408082206001600160a01b038c1683529093529190912054909150818110156118505760405162461bcd60e51b81526004016107549061325e565b60009283526065602090815260408085206001600160a01b038b168652909152909220910390558061188181613092565b9150506117c4565b5060006001600160a01b0316846001600160a01b0316826001600160a01b03167f4a39dc06d4c0dbc64b70af90fd698a233a518aa5d07e595d983b8c0526c8f7fb86866040516118da92919061314e565b60405180910390a46040805160208101909152600090525b50505050565b6001600160a01b03841661191e5760405162461bcd60e51b8152600401610754906130ad565b33600061192a8561211f565b905060006119378561211f565b905061194883600089858589611e94565b60008681526065602090815260408083206001600160a01b038b1684529091528120805487929061197a908490613136565b909155505060408051878152602081018790526001600160a01b03808a1692600092918716917fc3d58168c5ae7397731d063d5bbf3d657854427343f4c083240f7aacaa2d0f62910160405180910390a46119da8360008989898961216a565b50505050505050565b6119eb612234565b60c9805460ff191660011790557f62e78cea01bee320cd4e420270b5ea74000d11b0c9f74754ebdbfc544b05a25861173a3390565b816001600160a01b0316836001600160a01b03161415611a945760405162461bcd60e51b815260206004820152602960248201527f455243313135353a2073657474696e6720617070726f76616c20737461747573604482015268103337b91039b2b63360b91b6064820152608401610754565b6001600160a01b03838116600081815260666020908152604080832094871680845294825291829020805460ff191686151590811790915591519182527f17307eab39ab6107e8899845ad3d59bd9653f200f220920489ca2b5937696c31910160405180910390a3505050565b600054610100900460ff16611b285760405162461bcd60e51b8152600401610754906132a2565b610a528161227a565b600054610100900460ff16611b585760405162461bcd60e51b8152600401610754906132a2565b565b600054610100900460ff16611b815760405162461bcd60e51b8152600401610754906132a2565b611b586122aa565b6107c98282611474565b6001600160a01b038416611bb95760405162461bcd60e51b815260040161075490613173565b336000611bc58561211f565b90506000611bd28561211f565b9050611be2838989858589611e94565b60008681526065602090815260408083206001600160a01b038c16845290915290205485811015611c255760405162461bcd60e51b8152600401610754906131b8565b60008781526065602090815260408083206001600160a01b038d8116855292528083208985039055908a16825281208054889290611c64908490613136565b909155505060408051888152602081018890526001600160a01b03808b16928c821692918816917fc3d58168c5ae7397731d063d5bbf3d657854427343f4c083240f7aacaa2d0f62910160405180910390a4611cc4848a8a8a8a8a61216a565b505050505050505050565b6001600160a01b038316611cf55760405162461bcd60e51b81526004016107549061321b565b336000611d018461211f565b90506000611d0e8461211f565b9050611d2e83876000858560405180602001604052806000815250611e94565b60008581526065602090815260408083206001600160a01b038a16845290915290205484811015611d715760405162461bcd60e51b81526004016107549061325e565b60008681526065602090815260408083206001600160a01b038b81168086529184528285208a8703905582518b81529384018a90529092908816917fc3d58168c5ae7397731d063d5bbf3d657854427343f4c083240f7aacaa2d0f62910160405180910390a46040805160208101909152600090526119da565b60006001600160e01b03198216636cdb3d1360e11b1480611e1c57506001600160e01b031982166303a24d0760e21b145b8061079057506301ffc9a760e01b6001600160e01b0319831614610790565b611e458282610e35565b6107c957611e52816122dd565b611e5d8360206122ef565b604051602001611e6e9291906132ed565b60408051601f198184030181529082905262461bcd60e51b8252610754916004016129d7565b611e9c612234565b61146c868686868686612491565b6001600160a01b0384163b1561146c5760405163bc197c8160e01b81526001600160a01b0385169063bc197c8190611eee9089908990889088908890600401613362565b602060405180830381600087803b158015611f0857600080fd5b505af1925050508015611f38575060408051601f3d908101601f19168201909252611f35918101906133c0565b60015b611fe557611f446133dd565b806308c379a01415611f7e5750611f596133f8565b80611f645750611f80565b8060405162461bcd60e51b815260040161075491906129d7565b505b60405162461bcd60e51b815260206004820152603460248201527f455243313135353a207472616e7366657220746f206e6f6e2d455243313135356044820152732932b1b2b4bb32b91034b6b83632b6b2b73a32b960611b6064820152608401610754565b6001600160e01b0319811663bc197c8160e01b146119da5760405162461bcd60e51b815260040161075490613481565b6001600160a01b0381163b6120825760405162461bcd60e51b815260206004820152602d60248201527f455243313936373a206e657720696d706c656d656e746174696f6e206973206e60448201526c1bdd08184818dbdb9d1c9858dd609a1b6064820152608401610754565b60008051602061356183398151915280546001600160a01b0319166001600160a01b0392909216919091179055565b6120ba8361260d565b6000825111806120c75750805b156108f6576118f2838361264d565b60c95460ff16611b585760405162461bcd60e51b815260206004820152601460248201527314185d5cd8589b194e881b9bdd081c185d5cd95960621b6044820152606401610754565b6040805160018082528183019092526060916000919060208083019080368337019050509050828160008151811061215957612159613066565b602090810291909101015292915050565b6001600160a01b0384163b1561146c5760405163f23a6e6160e01b81526001600160a01b0385169063f23a6e61906121ae90899089908890889088906004016134c9565b602060405180830381600087803b1580156121c857600080fd5b505af19250505080156121f8575060408051601f3d908101601f191682019092526121f5918101906133c0565b60015b61220457611f446133dd565b6001600160e01b0319811663f23a6e6160e01b146119da5760405162461bcd60e51b815260040161075490613481565b60c95460ff1615611b585760405162461bcd60e51b815260206004820152601060248201526f14185d5cd8589b194e881c185d5cd95960821b6044820152606401610754565b600054610100900460ff166122a15760405162461bcd60e51b8152600401610754906132a2565b610a5281611159565b600054610100900460ff166122d15760405162461bcd60e51b8152600401610754906132a2565b60c9805460ff19169055565b60606107906001600160a01b03831660145b606060006122fe83600261350e565b612309906002613136565b6001600160401b0381111561232057612320612877565b6040519080825280601f01601f19166020018201604052801561234a576020820181803683370190505b509050600360fc1b8160008151811061236557612365613066565b60200101906001600160f81b031916908160001a905350600f60fb1b8160018151811061239457612394613066565b60200101906001600160f81b031916908160001a90535060006123b884600261350e565b6123c3906001613136565b90505b600181111561243b576f181899199a1a9b1b9c1cb0b131b232b360811b85600f16601081106123f7576123f7613066565b1a60f81b82828151811061240d5761240d613066565b60200101906001600160f81b031916908160001a90535060049490941c936124348161352d565b90506123c6565b50831561248a5760405162461bcd60e51b815260206004820181905260248201527f537472696e67733a20686578206c656e67746820696e73756666696369656e746044820152606401610754565b9392505050565b6001600160a01b0385166125195760005b8351811015612517578281815181106124bd576124bd613066565b602002602001015161012d60008684815181106124dc576124dc613066565b6020026020010151815260200190815260200160002060008282546125019190613136565b90915550612510905081613092565b90506124a2565b505b6001600160a01b03841661146c5760005b83518110156119da57600084828151811061254757612547613066565b60200260200101519050600084838151811061256557612565613066565b60200260200101519050600061012d6000848152602001908152602001600020549050818110156125e95760405162461bcd60e51b815260206004820152602860248201527f455243313135353a206275726e20616d6f756e74206578636565647320746f74604482015267616c537570706c7960c01b6064820152608401610754565b600092835261012d60205260409092209103905561260681613092565b905061252a565b61261681612015565b6040516001600160a01b038216907fbc7cd75a20ee27fd9adebab32041f755214dbc6bffa90cc0225b39da2e5c2d3b90600090a250565b60606001600160a01b0383163b6126b55760405162461bcd60e51b815260206004820152602660248201527f416464726573733a2064656c65676174652063616c6c20746f206e6f6e2d636f6044820152651b9d1c9858dd60d21b6064820152608401610754565b600080846001600160a01b0316846040516126d09190613544565b600060405180830381855af49150503d806000811461270b576040519150601f19603f3d011682016040523d82523d6000602084013e612710565b606091505b509150915061273882826040518060600160405280602781526020016135a160279139612741565b95945050505050565b6060831561275057508161248a565b61248a8383815115611f645781518083602001fd5b82805461277190612f45565b90600052602060002090601f01602090048101928261279357600085556127d9565b82601f106127ac57805160ff19168380011785556127d9565b828001600101855582156127d9579182015b828111156127d95782518255916020019190600101906127be565b506127e59291506127e9565b5090565b5b808211156127e557600081556001016127ea565b80356001600160a01b038116811461281557600080fd5b919050565b6000806040838503121561282d57600080fd5b612836836127fe565b946020939093013593505050565b6001600160e01b031981168114610a5257600080fd5b60006020828403121561286c57600080fd5b813561248a81612844565b634e487b7160e01b600052604160045260246000fd5b601f8201601f191681016001600160401b03811182821017156128b2576128b2612877565b6040525050565b60006001600160401b038311156128d2576128d2612877565b6040516128e9601f8501601f19166020018261288d565b8091508381528484840111156128fe57600080fd5b83836020830137600060208583010152509392505050565b60006020828403121561292857600080fd5b81356001600160401b0381111561293e57600080fd5b8201601f8101841361294f57600080fd5b61295e848235602084016128b9565b949350505050565b60006020828403121561297857600080fd5b5035919050565b60005b8381101561299a578181015183820152602001612982565b838111156118f25750506000910152565b600081518084526129c381602086016020860161297f565b601f01601f19169290920160200192915050565b60208152600061248a60208301846129ab565b60006001600160401b03821115612a0357612a03612877565b5060051b60200190565b600082601f830112612a1e57600080fd5b81356020612a2b826129ea565b604051612a38828261288d565b83815260059390931b8501820192828101915086841115612a5857600080fd5b8286015b84811015612a735780358352918301918301612a5c565b509695505050505050565b600082601f830112612a8f57600080fd5b61248a838335602085016128b9565b60008060008060808587031215612ab457600080fd5b612abd856127fe565b935060208501356001600160401b0380821115612ad957600080fd5b612ae588838901612a0d565b94506040870135915080821115612afb57600080fd5b612b0788838901612a0d565b93506060870135915080821115612b1d57600080fd5b50612b2a87828801612a7e565b91505092959194509250565b600080600080600060a08688031215612b4e57600080fd5b612b57866127fe565b9450612b65602087016127fe565b935060408601356001600160401b0380821115612b8157600080fd5b612b8d89838a01612a0d565b94506060880135915080821115612ba357600080fd5b612baf89838a01612a0d565b93506080880135915080821115612bc557600080fd5b50612bd288828901612a7e565b9150509295509295909350565b60008060408385031215612bf257600080fd5b82359150612c02602084016127fe565b90509250929050565b600060208284031215612c1d57600080fd5b61248a826127fe565b60008060408385031215612c3957600080fd5b82356001600160401b0380821115612c5057600080fd5b818501915085601f830112612c6457600080fd5b81356020612c71826129ea565b604051612c7e828261288d565b83815260059390931b8501820192828101915089841115612c9e57600080fd5b948201945b83861015612cc357612cb4866127fe565b82529482019490820190612ca3565b96505086013592505080821115612cd957600080fd5b50612ce685828601612a0d565b9150509250929050565b600081518084526020808501945080840160005b83811015612d2057815187529582019590820190600101612d04565b509495945050505050565b60208152600061248a6020830184612cf0565b60008060408385031215612d5157600080fd5b612d5a836127fe565b915060208301356001600160401b03811115612d7557600080fd5b612ce685828601612a7e565b600080600060608486031215612d9657600080fd5b612d9f846127fe565b925060208401356001600160401b0380821115612dbb57600080fd5b612dc787838801612a0d565b93506040860135915080821115612ddd57600080fd5b50612dea86828701612a0d565b9150509250925092565b60008060008060808587031215612e0a57600080fd5b612e13856127fe565b9350602085013592506040850135915060608501356001600160401b03811115612e3c57600080fd5b612b2a87828801612a7e565b60008060408385031215612e5b57600080fd5b612e64836127fe565b915060208301358015158114612e7957600080fd5b809150509250929050565b60008060408385031215612e9757600080fd5b612ea0836127fe565b9150612c02602084016127fe565b600080600080600060a08688031215612ec657600080fd5b612ecf866127fe565b9450612edd602087016127fe565b9350604086013592506060860135915060808601356001600160401b03811115612f0657600080fd5b612bd288828901612a7e565b600080600060608486031215612f2757600080fd5b612f30846127fe565b95602085013595506040909401359392505050565b600181811c90821680612f5957607f821691505b60208210811415612f7a57634e487b7160e01b600052602260045260246000fd5b50919050565b6020808252602e908201527f455243313135353a2063616c6c6572206973206e6f7420746f6b656e206f776e60408201526d195c881bdc88185c1c1c9bdd995960921b606082015260800190565b6020808252602c908201527f46756e6374696f6e206d7573742062652063616c6c6564207468726f7567682060408201526b19195b1959d85d1958d85b1b60a21b606082015260800190565b6020808252602c908201527f46756e6374696f6e206d7573742062652063616c6c6564207468726f7567682060408201526b6163746976652070726f787960a01b606082015260800190565b634e487b7160e01b600052603260045260246000fd5b634e487b7160e01b600052601160045260246000fd5b60006000198214156130a6576130a661307c565b5060010190565b60208082526021908201527f455243313135353a206d696e7420746f20746865207a65726f206164647265736040820152607360f81b606082015260800190565b60208082526028908201527f455243313135353a2069647320616e6420616d6f756e7473206c656e677468206040820152670dad2e6dac2e8c6d60c31b606082015260800190565b600082198211156131495761314961307c565b500190565b6040815260006131616040830185612cf0565b82810360208401526127388185612cf0565b60208082526025908201527f455243313135353a207472616e7366657220746f20746865207a65726f206164604082015264647265737360d81b606082015260800190565b6020808252602a908201527f455243313135353a20696e73756666696369656e742062616c616e636520666f60408201526939103a3930b739b332b960b11b606082015260800190565b60006020828403121561321457600080fd5b5051919050565b60208082526023908201527f455243313135353a206275726e2066726f6d20746865207a65726f206164647260408201526265737360e81b606082015260800190565b60208082526024908201527f455243313135353a206275726e20616d6f756e7420657863656564732062616c604082015263616e636560e01b606082015260800190565b6020808252602b908201527f496e697469616c697a61626c653a20636f6e7472616374206973206e6f74206960408201526a6e697469616c697a696e6760a81b606082015260800190565b7f416363657373436f6e74726f6c3a206163636f756e742000000000000000000081526000835161332581601785016020880161297f565b7001034b99036b4b9b9b4b733903937b6329607d1b601791840191820152835161335681602884016020880161297f565b01602801949350505050565b6001600160a01b0386811682528516602082015260a06040820181905260009061338e90830186612cf0565b82810360608401526133a08186612cf0565b905082810360808401526133b481856129ab565b98975050505050505050565b6000602082840312156133d257600080fd5b815161248a81612844565b600060033d1115610dab5760046000803e5060005160e01c90565b600060443d10156134065790565b6040516003193d81016004833e81513d6001600160401b03816024840111818411171561343557505050505090565b828501915081518181111561344d5750505050505090565b843d87010160208285010111156134675750505050505090565b6134766020828601018761288d565b509095945050505050565b60208082526028908201527f455243313135353a204552433131353552656365697665722072656a656374656040820152676420746f6b656e7360c01b606082015260800190565b6001600160a01b03868116825285166020820152604081018490526060810183905260a060808201819052600090613503908301846129ab565b979650505050505050565b60008160001904831182151516156135285761352861307c565b500290565b60008161353c5761353c61307c565b506000190190565b6000825161355681846020870161297f565b919091019291505056fe360894a13ba1a3210667c828492db98dca3e2076cc3735a920a3ca505d382bbc65d7a28e3265b37a6474929f336521b332c1681b933f6cb9f3376673440d862a416464726573733a206c6f772d6c6576656c2064656c65676174652063616c6c206661696c65649f2df0fed2c77648de5860a4cc508cd0818c85b8b8a1ab4ceeef8d981c8956a6a26469706673582212208cc08bb526467659280a4e76929f70ac963b39d75a8581040d04d9ec5baeda3a64736f6c63430008090033",
  "immutableReferences": {
    "1129": [
      {
        "length": 32,
        "start": 2432
      },
      {
        "length": 32,
        "start": 2496
      },
      {
        "length": 32,
        "start": 3128
      },
      {
        "length": 32,
        "start": 3192
      },
      {
        "length": 32,
        "start": 3335
      }
    ]
  },
  "source": "// SPDX-License-Identifier: MIT\r\npragma solidity ^0.8.4;\r\n\r\nimport \"@openzeppelin/contracts-upgradeable/token/ERC1155/ERC1155Upgradeable.sol\";\r\nimport \"@openzeppelin/contracts-upgradeable/access/AccessControlUpgradeable.sol\";\r\nimport \"@openzeppelin/contracts-upgradeable/security/PausableUpgradeable.sol\";\r\nimport \"@openzeppelin/contracts-upgradeable/token/ERC1155/extensions/ERC1155BurnableUpgradeable.sol\";\r\nimport \"@openzeppelin/contracts-upgradeable/token/ERC1155/extensions/ERC1155SupplyUpgradeable.sol\";\r\nimport \"@openzeppelin/contracts-upgradeable/proxy/utils/Initializable.sol\";\r\nimport \"@openzeppelin/contracts-upgradeable/proxy/utils/UUPSUpgradeable.sol\";\r\n\r\n// ItemTracker (IT) v0.1.0\r\n// IT creates Names for items\r\n// IT creates a delegate call to EncryptionTools (ET) to create IDs for items\r\n// for version 1.0.0, IT uses the ERC1155 standard\r\n// IT: createItem, getItem, burnItem, pause, unpause are the main functions that will be used by the end user\r\n// IT: createItem (ERC1155), burnItem (ERC1155), pauseItem (ERC1155), unpauseItem (ERC1155), pause, unpause, hasRole, renounceRole, grantRole\r\n// IT: setURI, supportsInterface, balanceOf, balanceOfBatch, setApprovalForAll, isApprovedForAll, safeTransferFrom, safeBatchTransferFrom\r\n\r\n\r\ncontract ItemTracker is Initializable, ERC1155Upgradeable, AccessControlUpgradeable, PausableUpgradeable, ERC1155BurnableUpgradeable, ERC1155SupplyUpgradeable, UUPSUpgradeable {\r\n    struct Item {\r\n        bytes32[] encryptedItem;\r\n    }\r\n    uint256 public itemID;\r\n    mapping (uint256 => Item) internal items;\r\n    event EncryptionToolsSet(address _encryptionTools);\r\n    bytes32 public constant URI_SETTER_ROLE = keccak256(\"URI_SETTER_ROLE\");\r\n    bytes32 public constant PAUSER_ROLE = keccak256(\"PAUSER_ROLE\");\r\n    bytes32 public constant MINTER_ROLE = keccak256(\"MINTER_ROLE\");\r\n    bytes32 public constant UPGRADER_ROLE = keccak256(\"UPGRADER_ROLE\");\r\n    address public ETAddress;\r\n    string public title = \"\";\r\n\r\n\r\n    \r\n    /// @custom:oz-upgrades-unsafe-allow constructor\r\n    constructor() {\r\n        _disableInitializers();\r\n    }\r\n    \r\n    function initialize(address _ETAddress) public initializer {\r\n        __ERC1155_init(\"https://ipfs.io/ipfs/\");\r\n        __AccessControl_init();\r\n        __Pausable_init();\r\n        __ERC1155Burnable_init();\r\n        __ERC1155Supply_init();\r\n        __UUPSUpgradeable_init();\r\n        _setupRole(DEFAULT_ADMIN_ROLE, msg.sender);\r\n        _setupRole(URI_SETTER_ROLE, msg.sender);\r\n        _setupRole(PAUSER_ROLE, msg.sender);\r\n        _setupRole(MINTER_ROLE, msg.sender);\r\n        _setupRole(UPGRADER_ROLE, msg.sender);\r\n        ETAddress = _ETAddress;\r\n    }\r\n    // creates a delegate call to ET to encrypt an item\r\n\r\n    function addItteration(string[] memory _item, string[] memory _hashKeys) internal returns (uint256) {\r\n        // create an item\r\n        Item memory newItem;\r\n        (bool success, bytes memory data) = ETAddress.delegatecall(abi.encodeWithSignature(\"getEncryption(string[],string[])\", _item, _hashKeys));\r\n        require(success, \"Delegate call failed\");\r\n        newItem.encryptedItem = abi.decode(data, (bytes32[]));\r\n        // store the item in the items mapping\r\n        items[itemID] = newItem;\r\n        // return the itemID\r\n        return itemID;\r\n    }\r\n    // change the order of the items in the items mapping\r\n    function swapItems(uint256 _itemID1, uint256 _itemID2) internal {\r\n        Item memory item1 = items[_itemID1];\r\n        Item memory item2 = items[_itemID2];\r\n        items[_itemID1] = item2;\r\n        items[_itemID2] = item1;\r\n    }\r\n    // get an item from the items mapping\r\n    function getItem(uint256 _itemID) internal view returns (bytes32[] memory) {\r\n        return items[_itemID].encryptedItem;\r\n    }\r\n    // burn an item from the items mapping\r\n    function burnItem(uint256 _itemID) internal {\r\n        delete items[_itemID];\r\n    }\r\n    // sets the URI for the ERC1155 standard\r\n    function setURI(string memory newuri) public onlyRole(URI_SETTER_ROLE) {\r\n        _setURI(newuri);\r\n    }\r\n    // pauses the contract using the ERC1155 standard\r\n    function pause() public onlyRole(PAUSER_ROLE) {\r\n        _pause();\r\n    }\r\n    // unpauses the contract using the ERC1155 standard\r\n    function unpause() public onlyRole(PAUSER_ROLE) {\r\n        _unpause();\r\n    }\r\n    // minting function for the ERC1155 standard\r\n    function mint(address account, uint256 id, uint256 amount, bytes memory data)\r\n        public\r\n        onlyRole(MINTER_ROLE)\r\n    {\r\n        _mint(account, id, amount, data);\r\n    }\r\n    // mintBatch function for the ERC1155 standard\r\n    function mintBatch(address to, uint256[] memory ids, uint256[] memory amounts, bytes memory data)\r\n        public\r\n        onlyRole(MINTER_ROLE)\r\n    {\r\n        _mintBatch(to, ids, amounts, data);\r\n    }\r\n    // burn function for the ERC1155 standard\r\n    function _beforeTokenTransfer(address operator, address from, address to, uint256[] memory ids, uint256[] memory amounts, bytes memory data)\r\n        internal\r\n        whenNotPaused\r\n        override(ERC1155Upgradeable, ERC1155SupplyUpgradeable)\r\n    {\r\n        super._beforeTokenTransfer(operator, from, to, ids, amounts, data);\r\n    }\r\n\r\n    // allows the contract to be upgraded\r\n    function _authorizeUpgrade(address newImplementation)\r\n        internal\r\n        onlyRole(UPGRADER_ROLE)\r\n        override\r\n    {}\r\n\r\n    // The following functions are overrides required by Solidity.\r\n\r\n    function supportsInterface(bytes4 interfaceId)\r\n        public\r\n        view\r\n        override(ERC1155Upgradeable, AccessControlUpgradeable)\r\n        returns (bool)\r\n    {\r\n        return super.supportsInterface(interfaceId);\r\n    }\r\n}",
  "sourcePath": "C:\\Users\\mosle\\Documents\\GitHub\\nWonderland\\contracts\\DALI\\002_ItemTracker.sol",
  "compiler": {
    "name": "solc",
    "version": "0.8.9+commit.e5eed63a.Emscripten.clang"
  },
  "schemaVersion": "3.4.8",
  "updatedAt": "2022-12-15T17:05:23.917Z",
  "devdoc": {
    "kind": "dev",
    "methods": {
      "balanceOf(address,uint256)": {
        "details": "See {IERC1155-balanceOf}. Requirements: - `account` cannot be the zero address."
      },
      "balanceOfBatch(address[],uint256[])": {
        "details": "See {IERC1155-balanceOfBatch}. Requirements: - `accounts` and `ids` must have the same length."
      },
      "constructor": {
        "custom:oz-upgrades-unsafe-allow": "constructor"
      },
      "exists(uint256)": {
        "details": "Indicates whether any token exist with a given id, or not."
      },
      "getRoleAdmin(bytes32)": {
        "details": "Returns the admin role that controls `role`. See {grantRole} and {revokeRole}. To change a role's admin, use {_setRoleAdmin}."
      },
      "grantRole(bytes32,address)": {
        "details": "Grants `role` to `account`. If `account` had not been already granted `role`, emits a {RoleGranted} event. Requirements: - the caller must have ``role``'s admin role. May emit a {RoleGranted} event."
      },
      "hasRole(bytes32,address)": {
        "details": "Returns `true` if `account` has been granted `role`."
      },
      "isApprovedForAll(address,address)": {
        "details": "See {IERC1155-isApprovedForAll}."
      },
      "paused()": {
        "details": "Returns true if the contract is paused, and false otherwise."
      },
      "proxiableUUID()": {
        "details": "Implementation of the ERC1822 {proxiableUUID} function. This returns the storage slot used by the implementation. It is used to validate the implementation's compatibility when performing an upgrade. IMPORTANT: A proxy pointing at a proxiable contract should not be considered proxiable itself, because this risks bricking a proxy that upgrades to it, by delegating to itself until out of gas. Thus it is critical that this function revert if invoked through a proxy. This is guaranteed by the `notDelegated` modifier."
      },
      "renounceRole(bytes32,address)": {
        "details": "Revokes `role` from the calling account. Roles are often managed via {grantRole} and {revokeRole}: this function's purpose is to provide a mechanism for accounts to lose their privileges if they are compromised (such as when a trusted device is misplaced). If the calling account had been revoked `role`, emits a {RoleRevoked} event. Requirements: - the caller must be `account`. May emit a {RoleRevoked} event."
      },
      "revokeRole(bytes32,address)": {
        "details": "Revokes `role` from `account`. If `account` had been granted `role`, emits a {RoleRevoked} event. Requirements: - the caller must have ``role``'s admin role. May emit a {RoleRevoked} event."
      },
      "safeBatchTransferFrom(address,address,uint256[],uint256[],bytes)": {
        "details": "See {IERC1155-safeBatchTransferFrom}."
      },
      "safeTransferFrom(address,address,uint256,uint256,bytes)": {
        "details": "See {IERC1155-safeTransferFrom}."
      },
      "setApprovalForAll(address,bool)": {
        "details": "See {IERC1155-setApprovalForAll}."
      },
      "totalSupply(uint256)": {
        "details": "Total amount of tokens in with a given id."
      },
      "upgradeTo(address)": {
        "details": "Upgrade the implementation of the proxy to `newImplementation`. Calls {_authorizeUpgrade}. Emits an {Upgraded} event."
      },
      "upgradeToAndCall(address,bytes)": {
        "details": "Upgrade the implementation of the proxy to `newImplementation`, and subsequently execute the function call encoded in `data`. Calls {_authorizeUpgrade}. Emits an {Upgraded} event."
      },
      "uri(uint256)": {
        "details": "See {IERC1155MetadataURI-uri}. This implementation returns the same URI for *all* token types. It relies on the token type ID substitution mechanism https://eips.ethereum.org/EIPS/eip-1155#metadata[defined in the EIP]. Clients calling this function must replace the `\\{id\\}` substring with the actual token type ID."
      }
    },
    "version": 1
  },
  "userdoc": {
    "kind": "user",
    "methods": {},
    "version": 1
  }
}