{
  "contractName": "ItemDistributor",
  "abi": [
    {
      "anonymous": false,
      "inputs": [
        {
          "indexed": false,
          "internalType": "address",
          "name": "previousAdmin",
          "type": "address"
        },
        {
          "indexed": false,
          "internalType": "address",
          "name": "newAdmin",
          "type": "address"
        }
      ],
      "name": "AdminChanged",
      "type": "event"
    },
    {
      "anonymous": false,
      "inputs": [
        {
          "indexed": true,
          "internalType": "address",
          "name": "account",
          "type": "address"
        },
        {
          "indexed": true,
          "internalType": "address",
          "name": "operator",
          "type": "address"
        },
        {
          "indexed": false,
          "internalType": "bool",
          "name": "approved",
          "type": "bool"
        }
      ],
      "name": "ApprovalForAll",
      "type": "event"
    },
    {
      "anonymous": false,
      "inputs": [
        {
          "indexed": true,
          "internalType": "address",
          "name": "beacon",
          "type": "address"
        }
      ],
      "name": "BeaconUpgraded",
      "type": "event"
    },
    {
      "anonymous": false,
      "inputs": [
        {
          "indexed": false,
          "internalType": "address",
          "name": "_encryptionTools",
          "type": "address"
        }
      ],
      "name": "EncryptionToolsSet",
      "type": "event"
    },
    {
      "anonymous": false,
      "inputs": [
        {
          "indexed": false,
          "internalType": "uint8",
          "name": "version",
          "type": "uint8"
        }
      ],
      "name": "Initialized",
      "type": "event"
    },
    {
      "anonymous": false,
      "inputs": [
        {
          "indexed": false,
          "internalType": "address",
          "name": "_itemTracker",
          "type": "address"
        }
      ],
      "name": "ItemTrackerSet",
      "type": "event"
    },
    {
      "anonymous": false,
      "inputs": [
        {
          "indexed": false,
          "internalType": "address",
          "name": "account",
          "type": "address"
        }
      ],
      "name": "Paused",
      "type": "event"
    },
    {
      "anonymous": false,
      "inputs": [
        {
          "indexed": true,
          "internalType": "bytes32",
          "name": "role",
          "type": "bytes32"
        },
        {
          "indexed": true,
          "internalType": "bytes32",
          "name": "previousAdminRole",
          "type": "bytes32"
        },
        {
          "indexed": true,
          "internalType": "bytes32",
          "name": "newAdminRole",
          "type": "bytes32"
        }
      ],
      "name": "RoleAdminChanged",
      "type": "event"
    },
    {
      "anonymous": false,
      "inputs": [
        {
          "indexed": true,
          "internalType": "bytes32",
          "name": "role",
          "type": "bytes32"
        },
        {
          "indexed": true,
          "internalType": "address",
          "name": "account",
          "type": "address"
        },
        {
          "indexed": true,
          "internalType": "address",
          "name": "sender",
          "type": "address"
        }
      ],
      "name": "RoleGranted",
      "type": "event"
    },
    {
      "anonymous": false,
      "inputs": [
        {
          "indexed": true,
          "internalType": "bytes32",
          "name": "role",
          "type": "bytes32"
        },
        {
          "indexed": true,
          "internalType": "address",
          "name": "account",
          "type": "address"
        },
        {
          "indexed": true,
          "internalType": "address",
          "name": "sender",
          "type": "address"
        }
      ],
      "name": "RoleRevoked",
      "type": "event"
    },
    {
      "anonymous": false,
      "inputs": [
        {
          "indexed": true,
          "internalType": "address",
          "name": "operator",
          "type": "address"
        },
        {
          "indexed": true,
          "internalType": "address",
          "name": "from",
          "type": "address"
        },
        {
          "indexed": true,
          "internalType": "address",
          "name": "to",
          "type": "address"
        },
        {
          "indexed": false,
          "internalType": "uint256[]",
          "name": "ids",
          "type": "uint256[]"
        },
        {
          "indexed": false,
          "internalType": "uint256[]",
          "name": "values",
          "type": "uint256[]"
        }
      ],
      "name": "TransferBatch",
      "type": "event"
    },
    {
      "anonymous": false,
      "inputs": [
        {
          "indexed": true,
          "internalType": "address",
          "name": "operator",
          "type": "address"
        },
        {
          "indexed": true,
          "internalType": "address",
          "name": "from",
          "type": "address"
        },
        {
          "indexed": true,
          "internalType": "address",
          "name": "to",
          "type": "address"
        },
        {
          "indexed": false,
          "internalType": "uint256",
          "name": "id",
          "type": "uint256"
        },
        {
          "indexed": false,
          "internalType": "uint256",
          "name": "value",
          "type": "uint256"
        }
      ],
      "name": "TransferSingle",
      "type": "event"
    },
    {
      "anonymous": false,
      "inputs": [
        {
          "indexed": false,
          "internalType": "string",
          "name": "value",
          "type": "string"
        },
        {
          "indexed": true,
          "internalType": "uint256",
          "name": "id",
          "type": "uint256"
        }
      ],
      "name": "URI",
      "type": "event"
    },
    {
      "anonymous": false,
      "inputs": [
        {
          "indexed": false,
          "internalType": "address",
          "name": "account",
          "type": "address"
        }
      ],
      "name": "Unpaused",
      "type": "event"
    },
    {
      "anonymous": false,
      "inputs": [
        {
          "indexed": true,
          "internalType": "address",
          "name": "implementation",
          "type": "address"
        }
      ],
      "name": "Upgraded",
      "type": "event"
    },
    {
      "inputs": [],
      "name": "DEFAULT_ADMIN_ROLE",
      "outputs": [
        {
          "internalType": "bytes32",
          "name": "",
          "type": "bytes32"
        }
      ],
      "stateMutability": "view",
      "type": "function"
    },
    {
      "inputs": [],
      "name": "ETAddress",
      "outputs": [
        {
          "internalType": "address",
          "name": "",
          "type": "address"
        }
      ],
      "stateMutability": "view",
      "type": "function"
    },
    {
      "inputs": [],
      "name": "ITAddress",
      "outputs": [
        {
          "internalType": "address",
          "name": "",
          "type": "address"
        }
      ],
      "stateMutability": "view",
      "type": "function"
    },
    {
      "inputs": [],
      "name": "MINTER_ROLE",
      "outputs": [
        {
          "internalType": "bytes32",
          "name": "",
          "type": "bytes32"
        }
      ],
      "stateMutability": "view",
      "type": "function"
    },
    {
      "inputs": [],
      "name": "PAUSER_ROLE",
      "outputs": [
        {
          "internalType": "bytes32",
          "name": "",
          "type": "bytes32"
        }
      ],
      "stateMutability": "view",
      "type": "function"
    },
    {
      "inputs": [],
      "name": "UPGRADER_ROLE",
      "outputs": [
        {
          "internalType": "bytes32",
          "name": "",
          "type": "bytes32"
        }
      ],
      "stateMutability": "view",
      "type": "function"
    },
    {
      "inputs": [],
      "name": "URI_SETTER_ROLE",
      "outputs": [
        {
          "internalType": "bytes32",
          "name": "",
          "type": "bytes32"
        }
      ],
      "stateMutability": "view",
      "type": "function"
    },
    {
      "inputs": [
        {
          "internalType": "address",
          "name": "account",
          "type": "address"
        },
        {
          "internalType": "uint256",
          "name": "id",
          "type": "uint256"
        }
      ],
      "name": "balanceOf",
      "outputs": [
        {
          "internalType": "uint256",
          "name": "",
          "type": "uint256"
        }
      ],
      "stateMutability": "view",
      "type": "function"
    },
    {
      "inputs": [
        {
          "internalType": "address[]",
          "name": "accounts",
          "type": "address[]"
        },
        {
          "internalType": "uint256[]",
          "name": "ids",
          "type": "uint256[]"
        }
      ],
      "name": "balanceOfBatch",
      "outputs": [
        {
          "internalType": "uint256[]",
          "name": "",
          "type": "uint256[]"
        }
      ],
      "stateMutability": "view",
      "type": "function"
    },
    {
      "inputs": [
        {
          "internalType": "address",
          "name": "account",
          "type": "address"
        },
        {
          "internalType": "uint256",
          "name": "id",
          "type": "uint256"
        },
        {
          "internalType": "uint256",
          "name": "value",
          "type": "uint256"
        }
      ],
      "name": "burn",
      "outputs": [],
      "stateMutability": "nonpayable",
      "type": "function"
    },
    {
      "inputs": [
        {
          "internalType": "address",
          "name": "account",
          "type": "address"
        },
        {
          "internalType": "uint256[]",
          "name": "ids",
          "type": "uint256[]"
        },
        {
          "internalType": "uint256[]",
          "name": "values",
          "type": "uint256[]"
        }
      ],
      "name": "burnBatch",
      "outputs": [],
      "stateMutability": "nonpayable",
      "type": "function"
    },
    {
      "inputs": [
        {
          "internalType": "uint256",
          "name": "id",
          "type": "uint256"
        }
      ],
      "name": "exists",
      "outputs": [
        {
          "internalType": "bool",
          "name": "",
          "type": "bool"
        }
      ],
      "stateMutability": "view",
      "type": "function"
    },
    {
      "inputs": [
        {
          "internalType": "bytes32",
          "name": "role",
          "type": "bytes32"
        }
      ],
      "name": "getRoleAdmin",
      "outputs": [
        {
          "internalType": "bytes32",
          "name": "",
          "type": "bytes32"
        }
      ],
      "stateMutability": "view",
      "type": "function"
    },
    {
      "inputs": [
        {
          "internalType": "bytes32",
          "name": "role",
          "type": "bytes32"
        },
        {
          "internalType": "address",
          "name": "account",
          "type": "address"
        }
      ],
      "name": "grantRole",
      "outputs": [],
      "stateMutability": "nonpayable",
      "type": "function"
    },
    {
      "inputs": [
        {
          "internalType": "bytes32",
          "name": "role",
          "type": "bytes32"
        },
        {
          "internalType": "address",
          "name": "account",
          "type": "address"
        }
      ],
      "name": "hasRole",
      "outputs": [
        {
          "internalType": "bool",
          "name": "",
          "type": "bool"
        }
      ],
      "stateMutability": "view",
      "type": "function"
    },
    {
      "inputs": [
        {
          "internalType": "address",
          "name": "account",
          "type": "address"
        },
        {
          "internalType": "address",
          "name": "operator",
          "type": "address"
        }
      ],
      "name": "isApprovedForAll",
      "outputs": [
        {
          "internalType": "bool",
          "name": "",
          "type": "bool"
        }
      ],
      "stateMutability": "view",
      "type": "function"
    },
    {
      "inputs": [],
      "name": "itemID",
      "outputs": [
        {
          "internalType": "uint256",
          "name": "",
          "type": "uint256"
        }
      ],
      "stateMutability": "view",
      "type": "function"
    },
    {
      "inputs": [
        {
          "internalType": "uint256",
          "name": "",
          "type": "uint256"
        }
      ],
      "name": "itemOwners",
      "outputs": [
        {
          "internalType": "address",
          "name": "",
          "type": "address"
        }
      ],
      "stateMutability": "view",
      "type": "function"
    },
    {
      "inputs": [],
      "name": "newOwner",
      "outputs": [
        {
          "internalType": "address",
          "name": "",
          "type": "address"
        }
      ],
      "stateMutability": "view",
      "type": "function"
    },
    {
      "inputs": [],
      "name": "owner",
      "outputs": [
        {
          "internalType": "address",
          "name": "",
          "type": "address"
        }
      ],
      "stateMutability": "view",
      "type": "function"
    },
    {
      "inputs": [],
      "name": "paused",
      "outputs": [
        {
          "internalType": "bool",
          "name": "",
          "type": "bool"
        }
      ],
      "stateMutability": "view",
      "type": "function"
    },
    {
      "inputs": [],
      "name": "proxiableUUID",
      "outputs": [
        {
          "internalType": "bytes32",
          "name": "",
          "type": "bytes32"
        }
      ],
      "stateMutability": "view",
      "type": "function"
    },
    {
      "inputs": [
        {
          "internalType": "bytes32",
          "name": "role",
          "type": "bytes32"
        },
        {
          "internalType": "address",
          "name": "account",
          "type": "address"
        }
      ],
      "name": "renounceRole",
      "outputs": [],
      "stateMutability": "nonpayable",
      "type": "function"
    },
    {
      "inputs": [
        {
          "internalType": "bytes32",
          "name": "role",
          "type": "bytes32"
        },
        {
          "internalType": "address",
          "name": "account",
          "type": "address"
        }
      ],
      "name": "revokeRole",
      "outputs": [],
      "stateMutability": "nonpayable",
      "type": "function"
    },
    {
      "inputs": [
        {
          "internalType": "address",
          "name": "from",
          "type": "address"
        },
        {
          "internalType": "address",
          "name": "to",
          "type": "address"
        },
        {
          "internalType": "uint256[]",
          "name": "ids",
          "type": "uint256[]"
        },
        {
          "internalType": "uint256[]",
          "name": "amounts",
          "type": "uint256[]"
        },
        {
          "internalType": "bytes",
          "name": "data",
          "type": "bytes"
        }
      ],
      "name": "safeBatchTransferFrom",
      "outputs": [],
      "stateMutability": "nonpayable",
      "type": "function"
    },
    {
      "inputs": [
        {
          "internalType": "address",
          "name": "from",
          "type": "address"
        },
        {
          "internalType": "address",
          "name": "to",
          "type": "address"
        },
        {
          "internalType": "uint256",
          "name": "id",
          "type": "uint256"
        },
        {
          "internalType": "uint256",
          "name": "amount",
          "type": "uint256"
        },
        {
          "internalType": "bytes",
          "name": "data",
          "type": "bytes"
        }
      ],
      "name": "safeTransferFrom",
      "outputs": [],
      "stateMutability": "nonpayable",
      "type": "function"
    },
    {
      "inputs": [
        {
          "internalType": "address",
          "name": "operator",
          "type": "address"
        },
        {
          "internalType": "bool",
          "name": "approved",
          "type": "bool"
        }
      ],
      "name": "setApprovalForAll",
      "outputs": [],
      "stateMutability": "nonpayable",
      "type": "function"
    },
    {
      "inputs": [
        {
          "internalType": "uint256",
          "name": "id",
          "type": "uint256"
        }
      ],
      "name": "totalSupply",
      "outputs": [
        {
          "internalType": "uint256",
          "name": "",
          "type": "uint256"
        }
      ],
      "stateMutability": "view",
      "type": "function"
    },
    {
      "inputs": [
        {
          "internalType": "address",
          "name": "newImplementation",
          "type": "address"
        }
      ],
      "name": "upgradeTo",
      "outputs": [],
      "stateMutability": "nonpayable",
      "type": "function"
    },
    {
      "inputs": [
        {
          "internalType": "address",
          "name": "newImplementation",
          "type": "address"
        },
        {
          "internalType": "bytes",
          "name": "data",
          "type": "bytes"
        }
      ],
      "name": "upgradeToAndCall",
      "outputs": [],
      "stateMutability": "payable",
      "type": "function"
    },
    {
      "inputs": [
        {
          "internalType": "uint256",
          "name": "",
          "type": "uint256"
        }
      ],
      "name": "uri",
      "outputs": [
        {
          "internalType": "string",
          "name": "",
          "type": "string"
        }
      ],
      "stateMutability": "view",
      "type": "function"
    },
    {
      "inputs": [
        {
          "internalType": "address",
          "name": "_ITAddress",
          "type": "address"
        },
        {
          "internalType": "address",
          "name": "_owner",
          "type": "address"
        },
        {
          "internalType": "address",
          "name": "_newOwner",
          "type": "address"
        },
        {
          "internalType": "bytes32[]",
          "name": "_encryptedItem",
          "type": "bytes32[]"
        }
      ],
      "name": "initialize",
      "outputs": [],
      "stateMutability": "nonpayable",
      "type": "function"
    },
    {
      "inputs": [
        {
          "internalType": "uint256",
          "name": "_itemID",
          "type": "uint256"
        },
        {
          "internalType": "bytes32[]",
          "name": "_encryptedItem",
          "type": "bytes32[]"
        }
      ],
      "name": "addItemData",
      "outputs": [],
      "stateMutability": "nonpayable",
      "type": "function"
    },
    {
      "inputs": [],
      "name": "transferItem",
      "outputs": [],
      "stateMutability": "nonpayable",
      "type": "function"
    },
    {
      "inputs": [
        {
          "internalType": "string",
          "name": "newuri",
          "type": "string"
        }
      ],
      "name": "setURI",
      "outputs": [],
      "stateMutability": "nonpayable",
      "type": "function"
    },
    {
      "inputs": [],
      "name": "pause",
      "outputs": [],
      "stateMutability": "nonpayable",
      "type": "function"
    },
    {
      "inputs": [],
      "name": "unpause",
      "outputs": [],
      "stateMutability": "nonpayable",
      "type": "function"
    },
    {
      "inputs": [
        {
          "internalType": "address",
          "name": "account",
          "type": "address"
        },
        {
          "internalType": "uint256",
          "name": "id",
          "type": "uint256"
        },
        {
          "internalType": "uint256",
          "name": "amount",
          "type": "uint256"
        },
        {
          "internalType": "bytes",
          "name": "data",
          "type": "bytes"
        }
      ],
      "name": "mint",
      "outputs": [],
      "stateMutability": "nonpayable",
      "type": "function"
    },
    {
      "inputs": [
        {
          "internalType": "address",
          "name": "to",
          "type": "address"
        },
        {
          "internalType": "uint256[]",
          "name": "ids",
          "type": "uint256[]"
        },
        {
          "internalType": "uint256[]",
          "name": "amounts",
          "type": "uint256[]"
        },
        {
          "internalType": "bytes",
          "name": "data",
          "type": "bytes"
        }
      ],
      "name": "mintBatch",
      "outputs": [],
      "stateMutability": "nonpayable",
      "type": "function"
    },
    {
      "inputs": [
        {
          "internalType": "bytes4",
          "name": "interfaceId",
          "type": "bytes4"
        }
      ],
      "name": "supportsInterface",
      "outputs": [
        {
          "internalType": "bool",
          "name": "",
          "type": "bool"
        }
      ],
      "stateMutability": "view",
      "type": "function"
    }
  ],
  "bytecode": "0x60a06040523060805234801561001457600080fd5b506080516137d961004c60003960008181610aa701528181610ae701528181610ce201528181610d220152610db101526137d96000f3fe6080604052600436106102395760003560e01c8063731133e91161012e578063bd85b039116100ab578063e985e9c51161006f578063e985e9c514610724578063f242432a1461076d578063f5298aca1461078d578063f57d85af146107ad578063f72c0d8b146107ce57600080fd5b8063bd85b0391461064d578063d4ee1d901461067b578063d53913931461069c578063d547741f146106d0578063e63ab1e9146106f057600080fd5b80639216debe116100f25780639216debe146105c3578063a217fddf146105e3578063a22cb465146105f8578063a869bda014610618578063b96827fd1461062d57600080fd5b8063731133e9146105195780637f345710146105395780638456cb591461056d5780638da5cb5b1461058257806391d14854146105a357600080fd5b80633659cfe6116101bc5780634f1ef286116101805780634f1ef286146104895780634f558e791461049c57806352d1902d146104cc5780635c975abb146104e15780636b20c454146104f957600080fd5b80633659cfe6146103d95780633f4ba83a146103f957806343cdef601461040e5780634a2e30bb146104255780634e1273f41461045c57600080fd5b80631f7fdffa116102035780631f7fdffa14610329578063248a9ca3146103495780632eb2c2d6146103795780632f2ff15d1461039957806336568abe146103b957600080fd5b80624919201461023e578062fdd58e1461027c57806301ffc9a7146102aa57806302fe5305146102da5780630e89341c146102fc575b600080fd5b34801561024a57600080fd5b506101c55461025f906001600160a01b031681565b6040516001600160a01b0390911681526020015b60405180910390f35b34801561028857600080fd5b5061029c61029736600461295c565b610802565b604051908152602001610273565b3480156102b657600080fd5b506102ca6102c536600461299c565b61089a565b6040519015158152602001610273565b3480156102e657600080fd5b506102fa6102f5366004612a58565b6108ab565b005b34801561030857600080fd5b5061031c610317366004612aa8565b6108e2565b6040516102739190612b19565b34801561033557600080fd5b506102fa610344366004612be0565b610976565b34801561035557600080fd5b5061029c610364366004612aa8565b60009081526097602052604090206001015490565b34801561038557600080fd5b506102fa610394366004612c78565b6109b3565b3480156103a557600080fd5b506102fa6103b4366004612d21565b6109f8565b3480156103c557600080fd5b506102fa6103d4366004612d21565b610a22565b3480156103e557600080fd5b506102fa6103f4366004612d4d565b610a9c565b34801561040557600080fd5b506102fa610b7c565b34801561041a57600080fd5b5061029c6101c35481565b34801561043157600080fd5b5061025f610440366004612aa8565b6101c9602052600090815260409020546001600160a01b031681565b34801561046857600080fd5b5061047c610477366004612d68565b610bae565b6040516102739190612e6d565b6102fa610497366004612e80565b610cd7565b3480156104a857600080fd5b506102ca6104b7366004612aa8565b600090815261012d6020526040902054151590565b3480156104d857600080fd5b5061029c610da4565b3480156104ed57600080fd5b5060c95460ff166102ca565b34801561050557600080fd5b506102fa610514366004612ec3565b610e58565b34801561052557600080fd5b506102fa610534366004612f36565b610e9b565b34801561054557600080fd5b5061029c7f7804d923f43a17d325d77e781528e0793b2edd9890ab45fc64efd7b4b427744c81565b34801561057957600080fd5b506102fa610ed1565b34801561058e57600080fd5b506101c75461025f906001600160a01b031681565b3480156105af57600080fd5b506102ca6105be366004612d21565b610f03565b3480156105cf57600080fd5b506102fa6105de366004612f8a565b610f2e565b3480156105ef57600080fd5b5061029c600081565b34801561060457600080fd5b506102fa610613366004612fec565b610fb1565b34801561062457600080fd5b506102fa610fbc565b34801561063957600080fd5b506102fa610648366004613028565b6111f0565b34801561065957600080fd5b5061029c610668366004612aa8565b600090815261012d602052604090205490565b34801561068757600080fd5b506101c85461025f906001600160a01b031681565b3480156106a857600080fd5b5061029c7f9f2df0fed2c77648de5860a4cc508cd0818c85b8b8a1ab4ceeef8d981c8956a681565b3480156106dc57600080fd5b506102fa6106eb366004612d21565b61127a565b3480156106fc57600080fd5b5061029c7f65d7a28e3265b37a6474929f336521b332c1681b933f6cb9f3376673440d862a81565b34801561073057600080fd5b506102ca61073f366004613064565b6001600160a01b03918216600090815260666020908152604080832093909416825291909152205460ff1690565b34801561077957600080fd5b506102fa61078836600461308e565b61129f565b34801561079957600080fd5b506102fa6107a83660046130f2565b6112e4565b3480156107b957600080fd5b506101c65461025f906001600160a01b031681565b3480156107da57600080fd5b5061029c7f189ab7a9244df0848122154315af71fe140f3db0fe014031783b0946b8c9d2e381565b60006001600160a01b0383166108725760405162461bcd60e51b815260206004820152602a60248201527f455243313135353a2061646472657373207a65726f206973206e6f742061207660448201526930b634b21037bbb732b960b11b60648201526084015b60405180910390fd5b5060009081526065602090815260408083206001600160a01b03949094168352929052205490565b60006108a582611327565b92915050565b7f7804d923f43a17d325d77e781528e0793b2edd9890ab45fc64efd7b4b427744c6108d58161134c565b6108de82611356565b5050565b6060606780546108f190613125565b80601f016020809104026020016040519081016040528092919081815260200182805461091d90613125565b801561096a5780601f1061093f5761010080835404028352916020019161096a565b820191906000526020600020905b81548152906001019060200180831161094d57829003601f168201915b50505050509050919050565b7f9f2df0fed2c77648de5860a4cc508cd0818c85b8b8a1ab4ceeef8d981c8956a66109a08161134c565b6109ac85858585611369565b5050505050565b6001600160a01b0385163314806109cf57506109cf853361073f565b6109eb5760405162461bcd60e51b815260040161086990613160565b6109ac85858585856114c4565b600082815260976020526040902060010154610a138161134c565b610a1d8383611671565b505050565b6001600160a01b0381163314610a925760405162461bcd60e51b815260206004820152602f60248201527f416363657373436f6e74726f6c3a2063616e206f6e6c792072656e6f756e636560448201526e103937b632b9903337b91039b2b63360891b6064820152608401610869565b6108de82826116f7565b306001600160a01b037f0000000000000000000000000000000000000000000000000000000000000000161415610ae55760405162461bcd60e51b8152600401610869906131ae565b7f00000000000000000000000000000000000000000000000000000000000000006001600160a01b0316610b2e60008051602061375d833981519152546001600160a01b031690565b6001600160a01b031614610b545760405162461bcd60e51b8152600401610869906131fa565b610b5d8161175e565b60408051600080825260208201909252610b7991839190611788565b50565b7f65d7a28e3265b37a6474929f336521b332c1681b933f6cb9f3376673440d862a610ba68161134c565b610b79611902565b60608151835114610c135760405162461bcd60e51b815260206004820152602960248201527f455243313135353a206163636f756e747320616e6420696473206c656e677468604482015268040dad2e6dac2e8c6d60bb1b6064820152608401610869565b600083516001600160401b03811115610c2e57610c2e6129b9565b604051908082528060200260200182016040528015610c57578160200160208202803683370190505b50905060005b8451811015610ccf57610ca2858281518110610c7b57610c7b613246565b6020026020010151858381518110610c9557610c95613246565b6020026020010151610802565b828281518110610cb457610cb4613246565b6020908102919091010152610cc881613272565b9050610c5d565b509392505050565b306001600160a01b037f0000000000000000000000000000000000000000000000000000000000000000161415610d205760405162461bcd60e51b8152600401610869906131ae565b7f00000000000000000000000000000000000000000000000000000000000000006001600160a01b0316610d6960008051602061375d833981519152546001600160a01b031690565b6001600160a01b031614610d8f5760405162461bcd60e51b8152600401610869906131fa565b610d988261175e565b6108de82826001611788565b6000306001600160a01b037f00000000000000000000000000000000000000000000000000000000000000001614610e445760405162461bcd60e51b815260206004820152603860248201527f555550535570677261646561626c653a206d757374206e6f742062652063616c60448201527f6c6564207468726f7567682064656c656761746563616c6c00000000000000006064820152608401610869565b5060008051602061375d8339815191525b90565b6001600160a01b038316331480610e745750610e74833361073f565b610e905760405162461bcd60e51b815260040161086990613160565b610a1d838383611954565b7f9f2df0fed2c77648de5860a4cc508cd0818c85b8b8a1ab4ceeef8d981c8956a6610ec58161134c565b6109ac85858585611af3565b7f65d7a28e3265b37a6474929f336521b332c1681b933f6cb9f3376673440d862a610efb8161134c565b610b79611bde565b60009182526097602090815260408084206001600160a01b0393909316845291905290205460ff1690565b6101c680546001600160a01b038087166001600160a01b0319928316179092556101c780548684169083161790556101c880549285169290911691909117905560006101c381905580526101c4602090815281516109ac917f900a14da7b74a618a1c29a2c66a3b979a3228cef88a1bb8e8ee5ed807c9db89f919084019061286d565b6108de338383611c1b565b6101c6546101c7546101c35460008080526101c4602052604051909384936001600160a01b03918216936110199392909116917f900a14da7b74a618a1c29a2c66a3b979a3228cef88a1bb8e8ee5ed807c9db89f9060240161328d565b60408051601f198184030181529181526020820180516001600160e01b03166326ebe0d960e11b1790525161104e91906132f4565b600060405180830381855af49150503d8060008114611089576040519150601f19603f3d011682016040523d82523d6000602084013e61108e565b606091505b5091509150816110d25760405162461bcd60e51b815260206004820152600f60248201526e189d5c9b925d195b4819985a5b1959608a1b6044820152606401610869565b6101c6546101c8546101c35460008080526101c4602052604051909384936001600160a01b039182169361112f9392909116917f900a14da7b74a618a1c29a2c66a3b979a3228cef88a1bb8e8ee5ed807c9db89f9060240161328d565b60408051601f198184030181529181526020820180516001600160e01b031663f518a3bb60e01b1790525161116491906132f4565b600060405180830381855af49150503d806000811461119f576040519150601f19603f3d011682016040523d82523d6000602084013e6111a4565b606091505b5091509150816111ea5760405162461bcd60e51b815260206004820152601160248201527018dc99585d19525d195b4819985a5b1959607a1b6044820152606401610869565b50505050565b6101c6546001600160a01b0316331461125a5760405162461bcd60e51b815260206004820152602660248201527f4f6e6c7920746865204974656d547261636b65722063616e20616464206974656044820152656d206461746160d01b6064820152608401610869565b60008281526101c4602090815260409091208251610a1d9284019061286d565b6000828152609760205260409020600101546112958161134c565b610a1d83836116f7565b6001600160a01b0385163314806112bb57506112bb853361073f565b6112d75760405162461bcd60e51b815260040161086990613160565b6109ac8585858585611cfc565b6001600160a01b0383163314806113005750611300833361073f565b61131c5760405162461bcd60e51b815260040161086990613160565b610a1d838383611e38565b60006001600160e01b03198216637965db0b60e01b14806108a557506108a582611f54565b610b798133611fa4565b80516108de9060679060208401906128b8565b6001600160a01b03841661138f5760405162461bcd60e51b815260040161086990613310565b81518351146113b05760405162461bcd60e51b815260040161086990613351565b336113c081600087878787611ffd565b60005b845181101561145c578381815181106113de576113de613246565b6020026020010151606560008784815181106113fc576113fc613246565b602002602001015181526020019081526020016000206000886001600160a01b03166001600160a01b0316815260200190815260200160002060008282546114449190613399565b9091555081905061145481613272565b9150506113c3565b50846001600160a01b031660006001600160a01b0316826001600160a01b03167f4a39dc06d4c0dbc64b70af90fd698a233a518aa5d07e595d983b8c0526c8f7fb87876040516114ad9291906133b1565b60405180910390a46109ac81600087878787612013565b81518351146114e55760405162461bcd60e51b815260040161086990613351565b6001600160a01b03841661150b5760405162461bcd60e51b8152600401610869906133d6565b3361151a818787878787611ffd565b60005b845181101561160357600085828151811061153a5761153a613246565b60200260200101519050600085838151811061155857611558613246565b60209081029190910181015160008481526065835260408082206001600160a01b038e1683529093529190912054909150818110156115a95760405162461bcd60e51b81526004016108699061341b565b60008381526065602090815260408083206001600160a01b038e8116855292528083208585039055908b168252812080548492906115e8908490613399565b92505081905550505050806115fc90613272565b905061151d565b50846001600160a01b0316866001600160a01b0316826001600160a01b03167f4a39dc06d4c0dbc64b70af90fd698a233a518aa5d07e595d983b8c0526c8f7fb87876040516116539291906133b1565b60405180910390a4611669818787878787612013565b505050505050565b61167b8282610f03565b6108de5760008281526097602090815260408083206001600160a01b03851684529091529020805460ff191660011790556116b33390565b6001600160a01b0316816001600160a01b0316837f2f8788117e7eff1d82e926ec794901d17c78024a50270940304540a733656f0d60405160405180910390a45050565b6117018282610f03565b156108de5760008281526097602090815260408083206001600160a01b0385168085529252808320805460ff1916905551339285917ff6391f5c32d9c69d2a47ea670b442974b53935d1edc7fd64eb21e047a839171b9190a45050565b7f189ab7a9244df0848122154315af71fe140f3db0fe014031783b0946b8c9d2e36108de8161134c565b7f4910fdfa16fed3260ed0e7147f7cc6da11a60208b5b9406d12a635614ffd91435460ff16156117bb57610a1d8361217e565b826001600160a01b03166352d1902d6040518163ffffffff1660e01b815260040160206040518083038186803b1580156117f457600080fd5b505afa925050508015611824575060408051601f3d908101601f1916820190925261182191810190613465565b60015b6118875760405162461bcd60e51b815260206004820152602e60248201527f45524331393637557067726164653a206e657720696d706c656d656e7461746960448201526d6f6e206973206e6f74205555505360901b6064820152608401610869565b60008051602061375d83398151915281146118f65760405162461bcd60e51b815260206004820152602960248201527f45524331393637557067726164653a20756e737570706f727465642070726f786044820152681a58589b195555525160ba1b6064820152608401610869565b50610a1d83838361221a565b61190a61223f565b60c9805460ff191690557f5db9ee0a495bf2e6ff9c91a7834c1ba4fdd244a5e8aa4e537bd38aeae4b073aa335b6040516001600160a01b03909116815260200160405180910390a1565b6001600160a01b03831661197a5760405162461bcd60e51b81526004016108699061347e565b805182511461199b5760405162461bcd60e51b815260040161086990613351565b60003390506119be81856000868660405180602001604052806000815250611ffd565b60005b8351811015611a865760008482815181106119de576119de613246565b6020026020010151905060008483815181106119fc576119fc613246565b60209081029190910181015160008481526065835260408082206001600160a01b038c168352909352919091205490915081811015611a4d5760405162461bcd60e51b8152600401610869906134c1565b60009283526065602090815260408085206001600160a01b038b1686529091529092209103905580611a7e81613272565b9150506119c1565b5060006001600160a01b0316846001600160a01b0316826001600160a01b03167f4a39dc06d4c0dbc64b70af90fd698a233a518aa5d07e595d983b8c0526c8f7fb8686604051611ad79291906133b1565b60405180910390a46040805160208101909152600090526111ea565b6001600160a01b038416611b195760405162461bcd60e51b815260040161086990613310565b336000611b258561228a565b90506000611b328561228a565b9050611b4383600089858589611ffd565b60008681526065602090815260408083206001600160a01b038b16845290915281208054879290611b75908490613399565b909155505060408051878152602081018790526001600160a01b03808a1692600092918716917fc3d58168c5ae7397731d063d5bbf3d657854427343f4c083240f7aacaa2d0f62910160405180910390a4611bd5836000898989896122d5565b50505050505050565b611be661239f565b60c9805460ff191660011790557f62e78cea01bee320cd4e420270b5ea74000d11b0c9f74754ebdbfc544b05a2586119373390565b816001600160a01b0316836001600160a01b03161415611c8f5760405162461bcd60e51b815260206004820152602960248201527f455243313135353a2073657474696e6720617070726f76616c20737461747573604482015268103337b91039b2b63360b91b6064820152608401610869565b6001600160a01b03838116600081815260666020908152604080832094871680845294825291829020805460ff191686151590811790915591519182527f17307eab39ab6107e8899845ad3d59bd9653f200f220920489ca2b5937696c31910160405180910390a3505050565b6001600160a01b038416611d225760405162461bcd60e51b8152600401610869906133d6565b336000611d2e8561228a565b90506000611d3b8561228a565b9050611d4b838989858589611ffd565b60008681526065602090815260408083206001600160a01b038c16845290915290205485811015611d8e5760405162461bcd60e51b81526004016108699061341b565b60008781526065602090815260408083206001600160a01b038d8116855292528083208985039055908a16825281208054889290611dcd908490613399565b909155505060408051888152602081018890526001600160a01b03808b16928c821692918816917fc3d58168c5ae7397731d063d5bbf3d657854427343f4c083240f7aacaa2d0f62910160405180910390a4611e2d848a8a8a8a8a6122d5565b505050505050505050565b6001600160a01b038316611e5e5760405162461bcd60e51b81526004016108699061347e565b336000611e6a8461228a565b90506000611e778461228a565b9050611e9783876000858560405180602001604052806000815250611ffd565b60008581526065602090815260408083206001600160a01b038a16845290915290205484811015611eda5760405162461bcd60e51b8152600401610869906134c1565b60008681526065602090815260408083206001600160a01b038b81168086529184528285208a8703905582518b81529384018a90529092908816917fc3d58168c5ae7397731d063d5bbf3d657854427343f4c083240f7aacaa2d0f62910160405180910390a4604080516020810190915260009052611bd5565b60006001600160e01b03198216636cdb3d1360e11b1480611f8557506001600160e01b031982166303a24d0760e21b145b806108a557506301ffc9a760e01b6001600160e01b03198316146108a5565b611fae8282610f03565b6108de57611fbb816123e5565b611fc68360206123f7565b604051602001611fd7929190613505565b60408051601f198184030181529082905262461bcd60e51b825261086991600401612b19565b61200561239f565b611669868686868686612599565b6001600160a01b0384163b156116695760405163bc197c8160e01b81526001600160a01b0385169063bc197c8190612057908990899088908890889060040161357a565b602060405180830381600087803b15801561207157600080fd5b505af19250505080156120a1575060408051601f3d908101601f1916820190925261209e918101906135d8565b60015b61214e576120ad6135f5565b806308c379a014156120e757506120c2613610565b806120cd57506120e9565b8060405162461bcd60e51b81526004016108699190612b19565b505b60405162461bcd60e51b815260206004820152603460248201527f455243313135353a207472616e7366657220746f206e6f6e2d455243313135356044820152732932b1b2b4bb32b91034b6b83632b6b2b73a32b960611b6064820152608401610869565b6001600160e01b0319811663bc197c8160e01b14611bd55760405162461bcd60e51b815260040161086990613699565b6001600160a01b0381163b6121eb5760405162461bcd60e51b815260206004820152602d60248201527f455243313936373a206e657720696d706c656d656e746174696f6e206973206e60448201526c1bdd08184818dbdb9d1c9858dd609a1b6064820152608401610869565b60008051602061375d83398151915280546001600160a01b0319166001600160a01b0392909216919091179055565b61222383612715565b6000825111806122305750805b15610a1d576111ea8383612755565b60c95460ff166122885760405162461bcd60e51b815260206004820152601460248201527314185d5cd8589b194e881b9bdd081c185d5cd95960621b6044820152606401610869565b565b604080516001808252818301909252606091600091906020808301908036833701905050905082816000815181106122c4576122c4613246565b602090810291909101015292915050565b6001600160a01b0384163b156116695760405163f23a6e6160e01b81526001600160a01b0385169063f23a6e619061231990899089908890889088906004016136e1565b602060405180830381600087803b15801561233357600080fd5b505af1925050508015612363575060408051601f3d908101601f19168201909252612360918101906135d8565b60015b61236f576120ad6135f5565b6001600160e01b0319811663f23a6e6160e01b14611bd55760405162461bcd60e51b815260040161086990613699565b60c95460ff16156122885760405162461bcd60e51b815260206004820152601060248201526f14185d5cd8589b194e881c185d5cd95960821b6044820152606401610869565b60606108a56001600160a01b03831660145b60606000612406836002613726565b612411906002613399565b6001600160401b03811115612428576124286129b9565b6040519080825280601f01601f191660200182016040528015612452576020820181803683370190505b509050600360fc1b8160008151811061246d5761246d613246565b60200101906001600160f81b031916908160001a905350600f60fb1b8160018151811061249c5761249c613246565b60200101906001600160f81b031916908160001a90535060006124c0846002613726565b6124cb906001613399565b90505b6001811115612543576f181899199a1a9b1b9c1cb0b131b232b360811b85600f16601081106124ff576124ff613246565b1a60f81b82828151811061251557612515613246565b60200101906001600160f81b031916908160001a90535060049490941c9361253c81613745565b90506124ce565b5083156125925760405162461bcd60e51b815260206004820181905260248201527f537472696e67733a20686578206c656e67746820696e73756666696369656e746044820152606401610869565b9392505050565b6001600160a01b0385166126215760005b835181101561261f578281815181106125c5576125c5613246565b602002602001015161012d60008684815181106125e4576125e4613246565b6020026020010151815260200190815260200160002060008282546126099190613399565b90915550612618905081613272565b90506125aa565b505b6001600160a01b0384166116695760005b8351811015611bd557600084828151811061264f5761264f613246565b60200260200101519050600084838151811061266d5761266d613246565b60200260200101519050600061012d6000848152602001908152602001600020549050818110156126f15760405162461bcd60e51b815260206004820152602860248201527f455243313135353a206275726e20616d6f756e74206578636565647320746f74604482015267616c537570706c7960c01b6064820152608401610869565b600092835261012d60205260409092209103905561270e81613272565b9050612632565b61271e8161217e565b6040516001600160a01b038216907fbc7cd75a20ee27fd9adebab32041f755214dbc6bffa90cc0225b39da2e5c2d3b90600090a250565b60606001600160a01b0383163b6127bd5760405162461bcd60e51b815260206004820152602660248201527f416464726573733a2064656c65676174652063616c6c20746f206e6f6e2d636f6044820152651b9d1c9858dd60d21b6064820152608401610869565b600080846001600160a01b0316846040516127d891906132f4565b600060405180830381855af49150503d8060008114612813576040519150601f19603f3d011682016040523d82523d6000602084013e612818565b606091505b5091509150612840828260405180606001604052806027815260200161377d60279139612849565b95945050505050565b60608315612858575081612592565b61259283838151156120cd5781518083602001fd5b8280548282559060005260206000209081019282156128a8579160200282015b828111156128a857825182559160200191906001019061288d565b506128b492915061292b565b5090565b8280546128c490613125565b90600052602060002090601f0160209004810192826128e657600085556128a8565b82601f106128ff57805160ff19168380011785556128a8565b828001600101855582156128a857918201828111156128a857825182559160200191906001019061288d565b5b808211156128b4576000815560010161292c565b80356001600160a01b038116811461295757600080fd5b919050565b6000806040838503121561296f57600080fd5b61297883612940565b946020939093013593505050565b6001600160e01b031981168114610b7957600080fd5b6000602082840312156129ae57600080fd5b813561259281612986565b634e487b7160e01b600052604160045260246000fd5b601f8201601f191681016001600160401b03811182821017156129f4576129f46129b9565b6040525050565b60006001600160401b03831115612a1457612a146129b9565b604051612a2b601f8501601f1916602001826129cf565b809150838152848484011115612a4057600080fd5b83836020830137600060208583010152509392505050565b600060208284031215612a6a57600080fd5b81356001600160401b03811115612a8057600080fd5b8201601f81018413612a9157600080fd5b612aa0848235602084016129fb565b949350505050565b600060208284031215612aba57600080fd5b5035919050565b60005b83811015612adc578181015183820152602001612ac4565b838111156111ea5750506000910152565b60008151808452612b05816020860160208601612ac1565b601f01601f19169290920160200192915050565b6020815260006125926020830184612aed565b60006001600160401b03821115612b4557612b456129b9565b5060051b60200190565b600082601f830112612b6057600080fd5b81356020612b6d82612b2c565b604051612b7a82826129cf565b83815260059390931b8501820192828101915086841115612b9a57600080fd5b8286015b84811015612bb55780358352918301918301612b9e565b509695505050505050565b600082601f830112612bd157600080fd5b612592838335602085016129fb565b60008060008060808587031215612bf657600080fd5b612bff85612940565b935060208501356001600160401b0380821115612c1b57600080fd5b612c2788838901612b4f565b94506040870135915080821115612c3d57600080fd5b612c4988838901612b4f565b93506060870135915080821115612c5f57600080fd5b50612c6c87828801612bc0565b91505092959194509250565b600080600080600060a08688031215612c9057600080fd5b612c9986612940565b9450612ca760208701612940565b935060408601356001600160401b0380821115612cc357600080fd5b612ccf89838a01612b4f565b94506060880135915080821115612ce557600080fd5b612cf189838a01612b4f565b93506080880135915080821115612d0757600080fd5b50612d1488828901612bc0565b9150509295509295909350565b60008060408385031215612d3457600080fd5b82359150612d4460208401612940565b90509250929050565b600060208284031215612d5f57600080fd5b61259282612940565b60008060408385031215612d7b57600080fd5b82356001600160401b0380821115612d9257600080fd5b818501915085601f830112612da657600080fd5b81356020612db382612b2c565b604051612dc082826129cf565b83815260059390931b8501820192828101915089841115612de057600080fd5b948201945b83861015612e0557612df686612940565b82529482019490820190612de5565b96505086013592505080821115612e1b57600080fd5b50612e2885828601612b4f565b9150509250929050565b600081518084526020808501945080840160005b83811015612e6257815187529582019590820190600101612e46565b509495945050505050565b6020815260006125926020830184612e32565b60008060408385031215612e9357600080fd5b612e9c83612940565b915060208301356001600160401b03811115612eb757600080fd5b612e2885828601612bc0565b600080600060608486031215612ed857600080fd5b612ee184612940565b925060208401356001600160401b0380821115612efd57600080fd5b612f0987838801612b4f565b93506040860135915080821115612f1f57600080fd5b50612f2c86828701612b4f565b9150509250925092565b60008060008060808587031215612f4c57600080fd5b612f5585612940565b9350602085013592506040850135915060608501356001600160401b03811115612f7e57600080fd5b612c6c87828801612bc0565b60008060008060808587031215612fa057600080fd5b612fa985612940565b9350612fb760208601612940565b9250612fc560408601612940565b915060608501356001600160401b03811115612fe057600080fd5b612c6c87828801612b4f565b60008060408385031215612fff57600080fd5b61300883612940565b91506020830135801515811461301d57600080fd5b809150509250929050565b6000806040838503121561303b57600080fd5b8235915060208301356001600160401b0381111561305857600080fd5b612e2885828601612b4f565b6000806040838503121561307757600080fd5b61308083612940565b9150612d4460208401612940565b600080600080600060a086880312156130a657600080fd5b6130af86612940565b94506130bd60208701612940565b9350604086013592506060860135915060808601356001600160401b038111156130e657600080fd5b612d1488828901612bc0565b60008060006060848603121561310757600080fd5b61311084612940565b95602085013595506040909401359392505050565b600181811c9082168061313957607f821691505b6020821081141561315a57634e487b7160e01b600052602260045260246000fd5b50919050565b6020808252602e908201527f455243313135353a2063616c6c6572206973206e6f7420746f6b656e206f776e60408201526d195c881bdc88185c1c1c9bdd995960921b606082015260800190565b6020808252602c908201527f46756e6374696f6e206d7573742062652063616c6c6564207468726f7567682060408201526b19195b1959d85d1958d85b1b60a21b606082015260800190565b6020808252602c908201527f46756e6374696f6e206d7573742062652063616c6c6564207468726f7567682060408201526b6163746976652070726f787960a01b606082015260800190565b634e487b7160e01b600052603260045260246000fd5b634e487b7160e01b600052601160045260246000fd5b60006000198214156132865761328661325c565b5060010190565b6001600160a01b038416815260208082018490526060604083018190528201819052825460808301819052600084815282812090929160a0850190845b818110156132e6578354835260019384019392850192016132ca565b509098975050505050505050565b60008251613306818460208701612ac1565b9190910192915050565b60208082526021908201527f455243313135353a206d696e7420746f20746865207a65726f206164647265736040820152607360f81b606082015260800190565b60208082526028908201527f455243313135353a2069647320616e6420616d6f756e7473206c656e677468206040820152670dad2e6dac2e8c6d60c31b606082015260800190565b600082198211156133ac576133ac61325c565b500190565b6040815260006133c46040830185612e32565b82810360208401526128408185612e32565b60208082526025908201527f455243313135353a207472616e7366657220746f20746865207a65726f206164604082015264647265737360d81b606082015260800190565b6020808252602a908201527f455243313135353a20696e73756666696369656e742062616c616e636520666f60408201526939103a3930b739b332b960b11b606082015260800190565b60006020828403121561347757600080fd5b5051919050565b60208082526023908201527f455243313135353a206275726e2066726f6d20746865207a65726f206164647260408201526265737360e81b606082015260800190565b60208082526024908201527f455243313135353a206275726e20616d6f756e7420657863656564732062616c604082015263616e636560e01b606082015260800190565b7f416363657373436f6e74726f6c3a206163636f756e742000000000000000000081526000835161353d816017850160208801612ac1565b7001034b99036b4b9b9b4b733903937b6329607d1b601791840191820152835161356e816028840160208801612ac1565b01602801949350505050565b6001600160a01b0386811682528516602082015260a0604082018190526000906135a690830186612e32565b82810360608401526135b88186612e32565b905082810360808401526135cc8185612aed565b98975050505050505050565b6000602082840312156135ea57600080fd5b815161259281612986565b600060033d1115610e555760046000803e5060005160e01c90565b600060443d101561361e5790565b6040516003193d81016004833e81513d6001600160401b03816024840111818411171561364d57505050505090565b82850191508151818111156136655750505050505090565b843d870101602082850101111561367f5750505050505090565b61368e602082860101876129cf565b509095945050505050565b60208082526028908201527f455243313135353a204552433131353552656365697665722072656a656374656040820152676420746f6b656e7360c01b606082015260800190565b6001600160a01b03868116825285166020820152604081018490526060810183905260a06080820181905260009061371b90830184612aed565b979650505050505050565b60008160001904831182151516156137405761374061325c565b500290565b6000816137545761375461325c565b50600019019056fe360894a13ba1a3210667c828492db98dca3e2076cc3735a920a3ca505d382bbc416464726573733a206c6f772d6c6576656c2064656c65676174652063616c6c206661696c6564a2646970667358221220d2b0ef70611d99f2576ba1e638d0a7b1cd742f8062d9c8efd705ffe428bb2d0864736f6c63430008090033",
  "immutableReferences": {
    "1129": [
      {
        "length": 32,
        "start": 2727
      },
      {
        "length": 32,
        "start": 2791
      },
      {
        "length": 32,
        "start": 3298
      },
      {
        "length": 32,
        "start": 3362
      },
      {
        "length": 32,
        "start": 3505
      }
    ]
  },
  "source": "// SPDX-License-Identifier: MIT\r\npragma solidity ^0.8.9;\r\n\r\nimport \"@openzeppelin/contracts-upgradeable/token/ERC1155/ERC1155Upgradeable.sol\";\r\nimport \"@openzeppelin/contracts-upgradeable/token/ERC1155/extensions/ERC1155BurnableUpgradeable.sol\";\r\nimport \"@openzeppelin/contracts-upgradeable/token/ERC1155/extensions/ERC1155PausableUpgradeable.sol\";\r\nimport \"@openzeppelin/contracts-upgradeable/access/OwnableUpgradeable.sol\";\r\nimport \"@openzeppelin/contracts-upgradeable/proxy/utils/Initializable.sol\";\r\nimport \"@openzeppelin/contracts-upgradeable/proxy/utils/UUPSUpgradeable.sol\";\r\nimport \"@openzeppelin/contracts-upgradeable/access/AccessControlUpgradeable.sol\";\r\nimport \"@openzeppelin/contracts-upgradeable/token/ERC1155/extensions/ERC1155SupplyUpgradeable.sol\";\r\n\r\n\r\n// Item Distrubutor (ID) v0.1.0\r\n// ID creates Tags for items\r\n\r\n\r\ncontract ItemDistributor is Initializable, ERC1155Upgradeable, AccessControlUpgradeable, PausableUpgradeable, ERC1155BurnableUpgradeable, ERC1155SupplyUpgradeable, UUPSUpgradeable {\r\n    struct Item {\r\n        bytes32[] encryptedItem;\r\n    }\r\n    uint256 public itemID;\r\n    mapping (uint256 => Item) internal items;\r\n    event EncryptionToolsSet(address _encryptionTools);\r\n    bytes32 public constant URI_SETTER_ROLE = keccak256(\"URI_SETTER_ROLE\");\r\n    bytes32 public constant PAUSER_ROLE = keccak256(\"PAUSER_ROLE\");\r\n    bytes32 public constant MINTER_ROLE = keccak256(\"MINTER_ROLE\");\r\n    bytes32 public constant UPGRADER_ROLE = keccak256(\"UPGRADER_ROLE\");\r\n    address public ETAddress;\r\n    address public ITAddress;\r\n    address public owner;\r\n    address public newOwner;\r\n    event ItemTrackerSet(address _itemTracker);\r\n    mapping(uint256 => address) public itemOwners;\r\n\r\n    function initialize(address _ITAddress, address _owner, address _newOwner, bytes32[] memory _encryptedItem) public {\r\n        ITAddress = _ITAddress;\r\n        owner = _owner;\r\n        newOwner = _newOwner;\r\n        itemID = 0;\r\n        items[itemID].encryptedItem = _encryptedItem;\r\n    }\r\n\r\n    // add a data to an item array\r\n    function addItemData(uint256 _itemID, bytes32[] memory _encryptedItem) public {\r\n        require(msg.sender == ITAddress, \"Only the ItemTracker can add item data\");\r\n        items[_itemID].encryptedItem = _encryptedItem;\r\n    }\r\n\r\n    \r\n    // make a delecate call to the itemTracker contract to burn the item and mint a new one\r\n    function transferItem() public {\r\n        (bool success, bytes memory result) = ITAddress.delegatecall(abi.encodeWithSignature(\"burnItem(address,uint256,bytes32[])\", owner, itemID, items[0]));\r\n        require(success, \"burnItem failed\");\r\n        (bool success1, bytes memory result1) = ITAddress.delegatecall(abi.encodeWithSignature(\"createItem(address,uint256,bytes32[])\", newOwner, itemID, items[0]));\r\n        require(success1, \"createItem failed\");\r\n    }\r\n\r\n        function setURI(string memory newuri) public onlyRole(URI_SETTER_ROLE) {\r\n        _setURI(newuri);\r\n    }\r\n\r\n    function pause() public onlyRole(PAUSER_ROLE) {\r\n        _pause();\r\n    }\r\n\r\n    function unpause() public onlyRole(PAUSER_ROLE) {\r\n        _unpause();\r\n    }\r\n\r\n    function mint(address account, uint256 id, uint256 amount, bytes memory data)\r\n        public\r\n        onlyRole(MINTER_ROLE)\r\n    {\r\n        _mint(account, id, amount, data);\r\n    }\r\n\r\n    function mintBatch(address to, uint256[] memory ids, uint256[] memory amounts, bytes memory data)\r\n        public\r\n        onlyRole(MINTER_ROLE)\r\n    {\r\n        _mintBatch(to, ids, amounts, data);\r\n    }\r\n\r\n    function _beforeTokenTransfer(address operator, address from, address to, uint256[] memory ids, uint256[] memory amounts, bytes memory data)\r\n        internal\r\n        whenNotPaused\r\n        override(ERC1155Upgradeable, ERC1155SupplyUpgradeable)\r\n    {\r\n        super._beforeTokenTransfer(operator, from, to, ids, amounts, data);\r\n    }\r\n\r\n    function _authorizeUpgrade(address newImplementation)\r\n        internal\r\n        onlyRole(UPGRADER_ROLE)\r\n        override\r\n    {}\r\n\r\n    // The following functions are overrides required by Solidity.\r\n\r\n    function supportsInterface(bytes4 interfaceId)\r\n        public\r\n        view\r\n        override(ERC1155Upgradeable, AccessControlUpgradeable)\r\n        returns (bool)\r\n    {\r\n        return super.supportsInterface(interfaceId);\r\n    }\r\n\r\n}",
  "sourcePath": "C:\\Users\\mosle\\Documents\\GitHub\\nWonderland\\contracts\\DALI\\003_ItemDistributor.sol",
  "compiler": {
    "name": "solc",
    "version": "0.8.9+commit.e5eed63a.Emscripten.clang"
  },
  "schemaVersion": "3.4.8",
  "updatedAt": "2022-12-15T17:05:23.941Z",
  "devdoc": {
    "kind": "dev",
    "methods": {
      "balanceOf(address,uint256)": {
        "details": "See {IERC1155-balanceOf}. Requirements: - `account` cannot be the zero address."
      },
      "balanceOfBatch(address[],uint256[])": {
        "details": "See {IERC1155-balanceOfBatch}. Requirements: - `accounts` and `ids` must have the same length."
      },
      "exists(uint256)": {
        "details": "Indicates whether any token exist with a given id, or not."
      },
      "getRoleAdmin(bytes32)": {
        "details": "Returns the admin role that controls `role`. See {grantRole} and {revokeRole}. To change a role's admin, use {_setRoleAdmin}."
      },
      "grantRole(bytes32,address)": {
        "details": "Grants `role` to `account`. If `account` had not been already granted `role`, emits a {RoleGranted} event. Requirements: - the caller must have ``role``'s admin role. May emit a {RoleGranted} event."
      },
      "hasRole(bytes32,address)": {
        "details": "Returns `true` if `account` has been granted `role`."
      },
      "isApprovedForAll(address,address)": {
        "details": "See {IERC1155-isApprovedForAll}."
      },
      "paused()": {
        "details": "Returns true if the contract is paused, and false otherwise."
      },
      "proxiableUUID()": {
        "details": "Implementation of the ERC1822 {proxiableUUID} function. This returns the storage slot used by the implementation. It is used to validate the implementation's compatibility when performing an upgrade. IMPORTANT: A proxy pointing at a proxiable contract should not be considered proxiable itself, because this risks bricking a proxy that upgrades to it, by delegating to itself until out of gas. Thus it is critical that this function revert if invoked through a proxy. This is guaranteed by the `notDelegated` modifier."
      },
      "renounceRole(bytes32,address)": {
        "details": "Revokes `role` from the calling account. Roles are often managed via {grantRole} and {revokeRole}: this function's purpose is to provide a mechanism for accounts to lose their privileges if they are compromised (such as when a trusted device is misplaced). If the calling account had been revoked `role`, emits a {RoleRevoked} event. Requirements: - the caller must be `account`. May emit a {RoleRevoked} event."
      },
      "revokeRole(bytes32,address)": {
        "details": "Revokes `role` from `account`. If `account` had been granted `role`, emits a {RoleRevoked} event. Requirements: - the caller must have ``role``'s admin role. May emit a {RoleRevoked} event."
      },
      "safeBatchTransferFrom(address,address,uint256[],uint256[],bytes)": {
        "details": "See {IERC1155-safeBatchTransferFrom}."
      },
      "safeTransferFrom(address,address,uint256,uint256,bytes)": {
        "details": "See {IERC1155-safeTransferFrom}."
      },
      "setApprovalForAll(address,bool)": {
        "details": "See {IERC1155-setApprovalForAll}."
      },
      "totalSupply(uint256)": {
        "details": "Total amount of tokens in with a given id."
      },
      "upgradeTo(address)": {
        "details": "Upgrade the implementation of the proxy to `newImplementation`. Calls {_authorizeUpgrade}. Emits an {Upgraded} event."
      },
      "upgradeToAndCall(address,bytes)": {
        "details": "Upgrade the implementation of the proxy to `newImplementation`, and subsequently execute the function call encoded in `data`. Calls {_authorizeUpgrade}. Emits an {Upgraded} event."
      },
      "uri(uint256)": {
        "details": "See {IERC1155MetadataURI-uri}. This implementation returns the same URI for *all* token types. It relies on the token type ID substitution mechanism https://eips.ethereum.org/EIPS/eip-1155#metadata[defined in the EIP]. Clients calling this function must replace the `\\{id\\}` substring with the actual token type ID."
      }
    },
    "version": 1
  },
  "userdoc": {
    "kind": "user",
    "methods": {},
    "version": 1
  }
}