{
  "contractName": "ItemDistributor",
  "abi": [
    {
      "anonymous": false,
      "inputs": [
        {
          "indexed": false,
          "internalType": "address",
          "name": "previousAdmin",
          "type": "address"
        },
        {
          "indexed": false,
          "internalType": "address",
          "name": "newAdmin",
          "type": "address"
        }
      ],
      "name": "AdminChanged",
      "type": "event"
    },
    {
      "anonymous": false,
      "inputs": [
        {
          "indexed": true,
          "internalType": "address",
          "name": "account",
          "type": "address"
        },
        {
          "indexed": true,
          "internalType": "address",
          "name": "operator",
          "type": "address"
        },
        {
          "indexed": false,
          "internalType": "bool",
          "name": "approved",
          "type": "bool"
        }
      ],
      "name": "ApprovalForAll",
      "type": "event"
    },
    {
      "anonymous": false,
      "inputs": [
        {
          "indexed": true,
          "internalType": "address",
          "name": "beacon",
          "type": "address"
        }
      ],
      "name": "BeaconUpgraded",
      "type": "event"
    },
    {
      "anonymous": false,
      "inputs": [
        {
          "indexed": false,
          "internalType": "address",
          "name": "_encryptionTools",
          "type": "address"
        }
      ],
      "name": "EncryptionToolsSet",
      "type": "event"
    },
    {
      "anonymous": false,
      "inputs": [
        {
          "indexed": false,
          "internalType": "uint8",
          "name": "version",
          "type": "uint8"
        }
      ],
      "name": "Initialized",
      "type": "event"
    },
    {
      "anonymous": false,
      "inputs": [
        {
          "indexed": false,
          "internalType": "address",
          "name": "_itemTracker",
          "type": "address"
        }
      ],
      "name": "ItemTrackerSet",
      "type": "event"
    },
    {
      "anonymous": false,
      "inputs": [
        {
          "indexed": false,
          "internalType": "address",
          "name": "account",
          "type": "address"
        }
      ],
      "name": "Paused",
      "type": "event"
    },
    {
      "anonymous": false,
      "inputs": [
        {
          "indexed": true,
          "internalType": "bytes32",
          "name": "role",
          "type": "bytes32"
        },
        {
          "indexed": true,
          "internalType": "bytes32",
          "name": "previousAdminRole",
          "type": "bytes32"
        },
        {
          "indexed": true,
          "internalType": "bytes32",
          "name": "newAdminRole",
          "type": "bytes32"
        }
      ],
      "name": "RoleAdminChanged",
      "type": "event"
    },
    {
      "anonymous": false,
      "inputs": [
        {
          "indexed": true,
          "internalType": "bytes32",
          "name": "role",
          "type": "bytes32"
        },
        {
          "indexed": true,
          "internalType": "address",
          "name": "account",
          "type": "address"
        },
        {
          "indexed": true,
          "internalType": "address",
          "name": "sender",
          "type": "address"
        }
      ],
      "name": "RoleGranted",
      "type": "event"
    },
    {
      "anonymous": false,
      "inputs": [
        {
          "indexed": true,
          "internalType": "bytes32",
          "name": "role",
          "type": "bytes32"
        },
        {
          "indexed": true,
          "internalType": "address",
          "name": "account",
          "type": "address"
        },
        {
          "indexed": true,
          "internalType": "address",
          "name": "sender",
          "type": "address"
        }
      ],
      "name": "RoleRevoked",
      "type": "event"
    },
    {
      "anonymous": false,
      "inputs": [
        {
          "indexed": true,
          "internalType": "address",
          "name": "operator",
          "type": "address"
        },
        {
          "indexed": true,
          "internalType": "address",
          "name": "from",
          "type": "address"
        },
        {
          "indexed": true,
          "internalType": "address",
          "name": "to",
          "type": "address"
        },
        {
          "indexed": false,
          "internalType": "uint256[]",
          "name": "ids",
          "type": "uint256[]"
        },
        {
          "indexed": false,
          "internalType": "uint256[]",
          "name": "values",
          "type": "uint256[]"
        }
      ],
      "name": "TransferBatch",
      "type": "event"
    },
    {
      "anonymous": false,
      "inputs": [
        {
          "indexed": true,
          "internalType": "address",
          "name": "operator",
          "type": "address"
        },
        {
          "indexed": true,
          "internalType": "address",
          "name": "from",
          "type": "address"
        },
        {
          "indexed": true,
          "internalType": "address",
          "name": "to",
          "type": "address"
        },
        {
          "indexed": false,
          "internalType": "uint256",
          "name": "id",
          "type": "uint256"
        },
        {
          "indexed": false,
          "internalType": "uint256",
          "name": "value",
          "type": "uint256"
        }
      ],
      "name": "TransferSingle",
      "type": "event"
    },
    {
      "anonymous": false,
      "inputs": [
        {
          "indexed": false,
          "internalType": "string",
          "name": "value",
          "type": "string"
        },
        {
          "indexed": true,
          "internalType": "uint256",
          "name": "id",
          "type": "uint256"
        }
      ],
      "name": "URI",
      "type": "event"
    },
    {
      "anonymous": false,
      "inputs": [
        {
          "indexed": false,
          "internalType": "address",
          "name": "account",
          "type": "address"
        }
      ],
      "name": "Unpaused",
      "type": "event"
    },
    {
      "anonymous": false,
      "inputs": [
        {
          "indexed": true,
          "internalType": "address",
          "name": "implementation",
          "type": "address"
        }
      ],
      "name": "Upgraded",
      "type": "event"
    },
    {
      "inputs": [],
      "name": "DEFAULT_ADMIN_ROLE",
      "outputs": [
        {
          "internalType": "bytes32",
          "name": "",
          "type": "bytes32"
        }
      ],
      "stateMutability": "view",
      "type": "function"
    },
    {
      "inputs": [],
      "name": "ETAddress",
      "outputs": [
        {
          "internalType": "address",
          "name": "",
          "type": "address"
        }
      ],
      "stateMutability": "view",
      "type": "function"
    },
    {
      "inputs": [],
      "name": "ITAddress",
      "outputs": [
        {
          "internalType": "address",
          "name": "",
          "type": "address"
        }
      ],
      "stateMutability": "view",
      "type": "function"
    },
    {
      "inputs": [],
      "name": "MINTER_ROLE",
      "outputs": [
        {
          "internalType": "bytes32",
          "name": "",
          "type": "bytes32"
        }
      ],
      "stateMutability": "view",
      "type": "function"
    },
    {
      "inputs": [],
      "name": "PAUSER_ROLE",
      "outputs": [
        {
          "internalType": "bytes32",
          "name": "",
          "type": "bytes32"
        }
      ],
      "stateMutability": "view",
      "type": "function"
    },
    {
      "inputs": [],
      "name": "UPGRADER_ROLE",
      "outputs": [
        {
          "internalType": "bytes32",
          "name": "",
          "type": "bytes32"
        }
      ],
      "stateMutability": "view",
      "type": "function"
    },
    {
      "inputs": [],
      "name": "URI_SETTER_ROLE",
      "outputs": [
        {
          "internalType": "bytes32",
          "name": "",
          "type": "bytes32"
        }
      ],
      "stateMutability": "view",
      "type": "function"
    },
    {
      "inputs": [
        {
          "internalType": "address",
          "name": "account",
          "type": "address"
        },
        {
          "internalType": "uint256",
          "name": "id",
          "type": "uint256"
        }
      ],
      "name": "balanceOf",
      "outputs": [
        {
          "internalType": "uint256",
          "name": "",
          "type": "uint256"
        }
      ],
      "stateMutability": "view",
      "type": "function"
    },
    {
      "inputs": [
        {
          "internalType": "address[]",
          "name": "accounts",
          "type": "address[]"
        },
        {
          "internalType": "uint256[]",
          "name": "ids",
          "type": "uint256[]"
        }
      ],
      "name": "balanceOfBatch",
      "outputs": [
        {
          "internalType": "uint256[]",
          "name": "",
          "type": "uint256[]"
        }
      ],
      "stateMutability": "view",
      "type": "function"
    },
    {
      "inputs": [
        {
          "internalType": "address",
          "name": "account",
          "type": "address"
        },
        {
          "internalType": "uint256",
          "name": "id",
          "type": "uint256"
        },
        {
          "internalType": "uint256",
          "name": "value",
          "type": "uint256"
        }
      ],
      "name": "burn",
      "outputs": [],
      "stateMutability": "nonpayable",
      "type": "function"
    },
    {
      "inputs": [
        {
          "internalType": "address",
          "name": "account",
          "type": "address"
        },
        {
          "internalType": "uint256[]",
          "name": "ids",
          "type": "uint256[]"
        },
        {
          "internalType": "uint256[]",
          "name": "values",
          "type": "uint256[]"
        }
      ],
      "name": "burnBatch",
      "outputs": [],
      "stateMutability": "nonpayable",
      "type": "function"
    },
    {
      "inputs": [
        {
          "internalType": "uint256",
          "name": "id",
          "type": "uint256"
        }
      ],
      "name": "exists",
      "outputs": [
        {
          "internalType": "bool",
          "name": "",
          "type": "bool"
        }
      ],
      "stateMutability": "view",
      "type": "function"
    },
    {
      "inputs": [
        {
          "internalType": "bytes32",
          "name": "role",
          "type": "bytes32"
        }
      ],
      "name": "getRoleAdmin",
      "outputs": [
        {
          "internalType": "bytes32",
          "name": "",
          "type": "bytes32"
        }
      ],
      "stateMutability": "view",
      "type": "function"
    },
    {
      "inputs": [
        {
          "internalType": "bytes32",
          "name": "role",
          "type": "bytes32"
        },
        {
          "internalType": "address",
          "name": "account",
          "type": "address"
        }
      ],
      "name": "grantRole",
      "outputs": [],
      "stateMutability": "nonpayable",
      "type": "function"
    },
    {
      "inputs": [
        {
          "internalType": "bytes32",
          "name": "role",
          "type": "bytes32"
        },
        {
          "internalType": "address",
          "name": "account",
          "type": "address"
        }
      ],
      "name": "hasRole",
      "outputs": [
        {
          "internalType": "bool",
          "name": "",
          "type": "bool"
        }
      ],
      "stateMutability": "view",
      "type": "function"
    },
    {
      "inputs": [
        {
          "internalType": "address",
          "name": "account",
          "type": "address"
        },
        {
          "internalType": "address",
          "name": "operator",
          "type": "address"
        }
      ],
      "name": "isApprovedForAll",
      "outputs": [
        {
          "internalType": "bool",
          "name": "",
          "type": "bool"
        }
      ],
      "stateMutability": "view",
      "type": "function"
    },
    {
      "inputs": [],
      "name": "itemID",
      "outputs": [
        {
          "internalType": "uint256",
          "name": "",
          "type": "uint256"
        }
      ],
      "stateMutability": "view",
      "type": "function"
    },
    {
      "inputs": [
        {
          "internalType": "uint256",
          "name": "",
          "type": "uint256"
        }
      ],
      "name": "itemOwners",
      "outputs": [
        {
          "internalType": "address",
          "name": "",
          "type": "address"
        }
      ],
      "stateMutability": "view",
      "type": "function"
    },
    {
      "inputs": [],
      "name": "newOwner",
      "outputs": [
        {
          "internalType": "address",
          "name": "",
          "type": "address"
        }
      ],
      "stateMutability": "view",
      "type": "function"
    },
    {
      "inputs": [],
      "name": "owner",
      "outputs": [
        {
          "internalType": "address",
          "name": "",
          "type": "address"
        }
      ],
      "stateMutability": "view",
      "type": "function"
    },
    {
      "inputs": [],
      "name": "paused",
      "outputs": [
        {
          "internalType": "bool",
          "name": "",
          "type": "bool"
        }
      ],
      "stateMutability": "view",
      "type": "function"
    },
    {
      "inputs": [],
      "name": "proxiableUUID",
      "outputs": [
        {
          "internalType": "bytes32",
          "name": "",
          "type": "bytes32"
        }
      ],
      "stateMutability": "view",
      "type": "function"
    },
    {
      "inputs": [
        {
          "internalType": "bytes32",
          "name": "role",
          "type": "bytes32"
        },
        {
          "internalType": "address",
          "name": "account",
          "type": "address"
        }
      ],
      "name": "renounceRole",
      "outputs": [],
      "stateMutability": "nonpayable",
      "type": "function"
    },
    {
      "inputs": [
        {
          "internalType": "bytes32",
          "name": "role",
          "type": "bytes32"
        },
        {
          "internalType": "address",
          "name": "account",
          "type": "address"
        }
      ],
      "name": "revokeRole",
      "outputs": [],
      "stateMutability": "nonpayable",
      "type": "function"
    },
    {
      "inputs": [
        {
          "internalType": "address",
          "name": "from",
          "type": "address"
        },
        {
          "internalType": "address",
          "name": "to",
          "type": "address"
        },
        {
          "internalType": "uint256[]",
          "name": "ids",
          "type": "uint256[]"
        },
        {
          "internalType": "uint256[]",
          "name": "amounts",
          "type": "uint256[]"
        },
        {
          "internalType": "bytes",
          "name": "data",
          "type": "bytes"
        }
      ],
      "name": "safeBatchTransferFrom",
      "outputs": [],
      "stateMutability": "nonpayable",
      "type": "function"
    },
    {
      "inputs": [
        {
          "internalType": "address",
          "name": "from",
          "type": "address"
        },
        {
          "internalType": "address",
          "name": "to",
          "type": "address"
        },
        {
          "internalType": "uint256",
          "name": "id",
          "type": "uint256"
        },
        {
          "internalType": "uint256",
          "name": "amount",
          "type": "uint256"
        },
        {
          "internalType": "bytes",
          "name": "data",
          "type": "bytes"
        }
      ],
      "name": "safeTransferFrom",
      "outputs": [],
      "stateMutability": "nonpayable",
      "type": "function"
    },
    {
      "inputs": [
        {
          "internalType": "address",
          "name": "operator",
          "type": "address"
        },
        {
          "internalType": "bool",
          "name": "approved",
          "type": "bool"
        }
      ],
      "name": "setApprovalForAll",
      "outputs": [],
      "stateMutability": "nonpayable",
      "type": "function"
    },
    {
      "inputs": [
        {
          "internalType": "uint256",
          "name": "id",
          "type": "uint256"
        }
      ],
      "name": "totalSupply",
      "outputs": [
        {
          "internalType": "uint256",
          "name": "",
          "type": "uint256"
        }
      ],
      "stateMutability": "view",
      "type": "function"
    },
    {
      "inputs": [
        {
          "internalType": "address",
          "name": "newImplementation",
          "type": "address"
        }
      ],
      "name": "upgradeTo",
      "outputs": [],
      "stateMutability": "nonpayable",
      "type": "function"
    },
    {
      "inputs": [
        {
          "internalType": "address",
          "name": "newImplementation",
          "type": "address"
        },
        {
          "internalType": "bytes",
          "name": "data",
          "type": "bytes"
        }
      ],
      "name": "upgradeToAndCall",
      "outputs": [],
      "stateMutability": "payable",
      "type": "function"
    },
    {
      "inputs": [
        {
          "internalType": "uint256",
          "name": "",
          "type": "uint256"
        }
      ],
      "name": "uri",
      "outputs": [
        {
          "internalType": "string",
          "name": "",
          "type": "string"
        }
      ],
      "stateMutability": "view",
      "type": "function"
    },
    {
      "inputs": [
        {
          "internalType": "address",
          "name": "_ITAddress",
          "type": "address"
        },
        {
          "internalType": "address",
          "name": "_owner",
          "type": "address"
        },
        {
          "internalType": "address",
          "name": "_newOwner",
          "type": "address"
        },
        {
          "internalType": "bytes32[]",
          "name": "_encryptedItem",
          "type": "bytes32[]"
        }
      ],
      "name": "initialize",
      "outputs": [],
      "stateMutability": "nonpayable",
      "type": "function"
    },
    {
      "inputs": [
        {
          "internalType": "uint256",
          "name": "_itemID",
          "type": "uint256"
        },
        {
          "internalType": "bytes32[]",
          "name": "_encryptedItem",
          "type": "bytes32[]"
        }
      ],
      "name": "addItemData",
      "outputs": [],
      "stateMutability": "nonpayable",
      "type": "function"
    },
    {
      "inputs": [],
      "name": "transferItem",
      "outputs": [],
      "stateMutability": "nonpayable",
      "type": "function"
    },
    {
      "inputs": [
        {
          "internalType": "string",
          "name": "newuri",
          "type": "string"
        }
      ],
      "name": "setURI",
      "outputs": [],
      "stateMutability": "nonpayable",
      "type": "function"
    },
    {
      "inputs": [],
      "name": "pause",
      "outputs": [],
      "stateMutability": "nonpayable",
      "type": "function"
    },
    {
      "inputs": [],
      "name": "unpause",
      "outputs": [],
      "stateMutability": "nonpayable",
      "type": "function"
    },
    {
      "inputs": [
        {
          "internalType": "address",
          "name": "account",
          "type": "address"
        },
        {
          "internalType": "uint256",
          "name": "id",
          "type": "uint256"
        },
        {
          "internalType": "uint256",
          "name": "amount",
          "type": "uint256"
        },
        {
          "internalType": "bytes",
          "name": "data",
          "type": "bytes"
        }
      ],
      "name": "mint",
      "outputs": [],
      "stateMutability": "nonpayable",
      "type": "function"
    },
    {
      "inputs": [
        {
          "internalType": "address",
          "name": "to",
          "type": "address"
        },
        {
          "internalType": "uint256[]",
          "name": "ids",
          "type": "uint256[]"
        },
        {
          "internalType": "uint256[]",
          "name": "amounts",
          "type": "uint256[]"
        },
        {
          "internalType": "bytes",
          "name": "data",
          "type": "bytes"
        }
      ],
      "name": "mintBatch",
      "outputs": [],
      "stateMutability": "nonpayable",
      "type": "function"
    },
    {
      "inputs": [
        {
          "internalType": "bytes4",
          "name": "interfaceId",
          "type": "bytes4"
        }
      ],
      "name": "supportsInterface",
      "outputs": [
        {
          "internalType": "bool",
          "name": "",
          "type": "bool"
        }
      ],
      "stateMutability": "view",
      "type": "function"
    }
  ],
  "bytecode": "0x60a06040523073ffffffffffffffffffffffffffffffffffffffff1660809073ffffffffffffffffffffffffffffffffffffffff1681525034801561004357600080fd5b506080516163c86200007c60003960008181610cb401528181610d4201528181610fc501528181611053015261111701526163c86000f3fe6080604052600436106102395760003560e01c8063731133e91161012e578063bd85b039116100ab578063e985e9c51161006f578063e985e9c51461085e578063f242432a1461089b578063f5298aca146108c4578063f57d85af146108ed578063f72c0d8b1461091857610239565b8063bd85b03914610777578063d4ee1d90146107b4578063d5391393146107df578063d547741f1461080a578063e63ab1e91461083357610239565b80639216debe116100f25780639216debe146106ba578063a217fddf146106e3578063a22cb4651461070e578063a869bda014610737578063b96827fd1461074e57610239565b8063731133e9146105e75780637f345710146106105780638456cb591461063b5780638da5cb5b1461065257806391d148541461067d57610239565b80633659cfe6116101bc5780634f1ef286116101805780634f1ef2861461050f5780634f558e791461052b57806352d1902d146105685780635c975abb146105935780636b20c454146105be57610239565b80633659cfe61461042a5780633f4ba83a1461045357806343cdef601461046a5780634a2e30bb146104955780634e1273f4146104d257610239565b80631f7fdffa116102035780631f7fdffa14610349578063248a9ca3146103725780632eb2c2d6146103af5780632f2ff15d146103d857806336568abe1461040157610239565b80624919201461023e578062fdd58e1461026957806301ffc9a7146102a657806302fe5305146102e35780630e89341c1461030c575b600080fd5b34801561024a57600080fd5b50610253610943565b6040516102609190613f64565b60405180910390f35b34801561027557600080fd5b50610290600480360381019061028b9190613ff5565b61096a565b60405161029d9190614044565b60405180910390f35b3480156102b257600080fd5b506102cd60048036038101906102c891906140b7565b610a33565b6040516102da91906140ff565b60405180910390f35b3480156102ef57600080fd5b5061030a60048036038101906103059190614260565b610a45565b005b34801561031857600080fd5b50610333600480360381019061032e91906142a9565b610a7c565b604051610340919061435e565b60405180910390f35b34801561035557600080fd5b50610370600480360381019061036b91906144e9565b610b10565b005b34801561037e57600080fd5b50610399600480360381019061039491906145da565b610b4d565b6040516103a69190614616565b60405180910390f35b3480156103bb57600080fd5b506103d660048036038101906103d19190614631565b610b6d565b005b3480156103e457600080fd5b506103ff60048036038101906103fa9190614700565b610c0e565b005b34801561040d57600080fd5b5061042860048036038101906104239190614700565b610c2f565b005b34801561043657600080fd5b50610451600480360381019061044c9190614740565b610cb2565b005b34801561045f57600080fd5b50610468610e3a565b005b34801561047657600080fd5b5061047f610e6f565b60405161048c9190614044565b60405180910390f35b3480156104a157600080fd5b506104bc60048036038101906104b791906142a9565b610e76565b6040516104c99190613f64565b60405180910390f35b3480156104de57600080fd5b506104f960048036038101906104f49190614830565b610eaa565b6040516105069190614966565b60405180910390f35b61052960048036038101906105249190614988565b610fc3565b005b34801561053757600080fd5b50610552600480360381019061054d91906142a9565b6110ff565b60405161055f91906140ff565b60405180910390f35b34801561057457600080fd5b5061057d611113565b60405161058a9190614616565b60405180910390f35b34801561059f57600080fd5b506105a86111cc565b6040516105b591906140ff565b60405180910390f35b3480156105ca57600080fd5b506105e560048036038101906105e091906149e4565b6111e3565b005b3480156105f357600080fd5b5061060e60048036038101906106099190614a6f565b611280565b005b34801561061c57600080fd5b506106256112bd565b6040516106329190614616565b60405180910390f35b34801561064757600080fd5b506106506112e1565b005b34801561065e57600080fd5b50610667611316565b6040516106749190613f64565b60405180910390f35b34801561068957600080fd5b506106a4600480360381019061069f9190614700565b61133d565b6040516106b191906140ff565b60405180910390f35b3480156106c657600080fd5b506106e160048036038101906106dc9190614bb5565b6113a8565b005b3480156106ef57600080fd5b506106f86114ac565b6040516107059190614616565b60405180910390f35b34801561071a57600080fd5b5061073560048036038101906107309190614c64565b6114b3565b005b34801561074357600080fd5b5061074c6114c9565b005b34801561075a57600080fd5b5061077560048036038101906107709190614ca4565b611783565b005b34801561078357600080fd5b5061079e600480360381019061079991906142a9565b611844565b6040516107ab9190614044565b60405180910390f35b3480156107c057600080fd5b506107c9611862565b6040516107d69190613f64565b60405180910390f35b3480156107eb57600080fd5b506107f4611889565b6040516108019190614616565b60405180910390f35b34801561081657600080fd5b50610831600480360381019061082c9190614700565b6118ad565b005b34801561083f57600080fd5b506108486118ce565b6040516108559190614616565b60405180910390f35b34801561086a57600080fd5b5061088560048036038101906108809190614d00565b6118f2565b60405161089291906140ff565b60405180910390f35b3480156108a757600080fd5b506108c260048036038101906108bd9190614d40565b611986565b005b3480156108d057600080fd5b506108eb60048036038101906108e69190614dd7565b611a27565b005b3480156108f957600080fd5b50610902611ac4565b60405161090f9190613f64565b60405180910390f35b34801561092457600080fd5b5061092d611aeb565b60405161093a9190614616565b60405180910390f35b6101c360009054906101000a900473ffffffffffffffffffffffffffffffffffffffff1681565b60008073ffffffffffffffffffffffffffffffffffffffff168373ffffffffffffffffffffffffffffffffffffffff16036109da576040517f08c379a00000000000000000000000000000000000000000000000000000000081526004016109d190614e9c565b60405180910390fd5b6065600083815260200190815260200160002060008473ffffffffffffffffffffffffffffffffffffffff1673ffffffffffffffffffffffffffffffffffffffff16815260200190815260200160002054905092915050565b6000610a3e82611b0f565b9050919050565b7f7804d923f43a17d325d77e781528e0793b2edd9890ab45fc64efd7b4b427744c610a6f81611b89565b610a7882611b9d565b5050565b606060678054610a8b90614eeb565b80601f0160208091040260200160405190810160405280929190818152602001828054610ab790614eeb565b8015610b045780601f10610ad957610100808354040283529160200191610b04565b820191906000526020600020905b815481529060010190602001808311610ae757829003601f168201915b50505050509050919050565b7f9f2df0fed2c77648de5860a4cc508cd0818c85b8b8a1ab4ceeef8d981c8956a6610b3a81611b89565b610b4685858585611bb7565b5050505050565b600060976000838152602001908152602001600020600101549050919050565b610b75611de4565b73ffffffffffffffffffffffffffffffffffffffff168573ffffffffffffffffffffffffffffffffffffffff161480610bbb5750610bba85610bb5611de4565b6118f2565b5b610bfa576040517f08c379a0000000000000000000000000000000000000000000000000000000008152600401610bf190614f8e565b60405180910390fd5b610c078585858585611dec565b5050505050565b610c1782610b4d565b610c2081611b89565b610c2a8383612110565b505050565b610c37611de4565b73ffffffffffffffffffffffffffffffffffffffff168173ffffffffffffffffffffffffffffffffffffffff1614610ca4576040517f08c379a0000000000000000000000000000000000000000000000000000000008152600401610c9b90615020565b60405180910390fd5b610cae82826121f1565b5050565b7f000000000000000000000000000000000000000000000000000000000000000073ffffffffffffffffffffffffffffffffffffffff163073ffffffffffffffffffffffffffffffffffffffff1603610d40576040517f08c379a0000000000000000000000000000000000000000000000000000000008152600401610d37906150b2565b60405180910390fd5b7f000000000000000000000000000000000000000000000000000000000000000073ffffffffffffffffffffffffffffffffffffffff16610d7f6122d3565b73ffffffffffffffffffffffffffffffffffffffff1614610dd5576040517f08c379a0000000000000000000000000000000000000000000000000000000008152600401610dcc90615144565b60405180910390fd5b610dde8161232a565b610e3781600067ffffffffffffffff811115610dfd57610dfc614135565b5b6040519080825280601f01601f191660200182016040528015610e2f5781602001600182028036833780820191505090505b506000612358565b50565b7f65d7a28e3265b37a6474929f336521b332c1681b933f6cb9f3376673440d862a610e6481611b89565b610e6c6124c6565b50565b6101c45481565b6101c96020528060005260406000206000915054906101000a900473ffffffffffffffffffffffffffffffffffffffff1681565b60608151835114610ef0576040517f08c379a0000000000000000000000000000000000000000000000000000000008152600401610ee7906151d6565b60405180910390fd5b6000835167ffffffffffffffff811115610f0d57610f0c614135565b5b604051908082528060200260200182016040528015610f3b5781602001602082028036833780820191505090505b50905060005b8451811015610fb857610f88858281518110610f6057610f5f6151f6565b5b6020026020010151858381518110610f7b57610f7a6151f6565b5b602002602001015161096a565b828281518110610f9b57610f9a6151f6565b5b60200260200101818152505080610fb190615254565b9050610f41565b508091505092915050565b7f000000000000000000000000000000000000000000000000000000000000000073ffffffffffffffffffffffffffffffffffffffff163073ffffffffffffffffffffffffffffffffffffffff1603611051576040517f08c379a0000000000000000000000000000000000000000000000000000000008152600401611048906150b2565b60405180910390fd5b7f000000000000000000000000000000000000000000000000000000000000000073ffffffffffffffffffffffffffffffffffffffff166110906122d3565b73ffffffffffffffffffffffffffffffffffffffff16146110e6576040517f08c379a00000000000000000000000000000000000000000000000000000000081526004016110dd90615144565b60405180910390fd5b6110ef8261232a565b6110fb82826001612358565b5050565b60008061110b83611844565b119050919050565b60007f000000000000000000000000000000000000000000000000000000000000000073ffffffffffffffffffffffffffffffffffffffff163073ffffffffffffffffffffffffffffffffffffffff16146111a3576040517f08c379a000000000000000000000000000000000000000000000000000000000815260040161119a9061530e565b60405180910390fd5b7f360894a13ba1a3210667c828492db98dca3e2076cc3735a920a3ca505d382bbc60001b905090565b600060c960009054906101000a900460ff16905090565b6111eb611de4565b73ffffffffffffffffffffffffffffffffffffffff168373ffffffffffffffffffffffffffffffffffffffff16148061123157506112308361122b611de4565b6118f2565b5b611270576040517f08c379a000000000000000000000000000000000000000000000000000000000815260040161126790614f8e565b60405180910390fd5b61127b838383612529565b505050565b7f9f2df0fed2c77648de5860a4cc508cd0818c85b8b8a1ab4ceeef8d981c8956a66112aa81611b89565b6112b6858585856127f9565b5050505050565b7f7804d923f43a17d325d77e781528e0793b2edd9890ab45fc64efd7b4b427744c81565b7f65d7a28e3265b37a6474929f336521b332c1681b933f6cb9f3376673440d862a61130b81611b89565b6113136129aa565b50565b6101c760009054906101000a900473ffffffffffffffffffffffffffffffffffffffff1681565b60006097600084815260200190815260200160002060000160008373ffffffffffffffffffffffffffffffffffffffff1673ffffffffffffffffffffffffffffffffffffffff16815260200190815260200160002060009054906101000a900460ff16905092915050565b836101c660006101000a81548173ffffffffffffffffffffffffffffffffffffffff021916908373ffffffffffffffffffffffffffffffffffffffff160217905550826101c760006101000a81548173ffffffffffffffffffffffffffffffffffffffff021916908373ffffffffffffffffffffffffffffffffffffffff160217905550816101c860006101000a81548173ffffffffffffffffffffffffffffffffffffffff021916908373ffffffffffffffffffffffffffffffffffffffff16021790555060006101c481905550806101c560006101c454815260200190815260200160002060000190805190602001906114a5929190613e16565b5050505050565b6000801b81565b6114c56114be611de4565b8383612a0d565b5050565b6000806101c660009054906101000a900473ffffffffffffffffffffffffffffffffffffffff1673ffffffffffffffffffffffffffffffffffffffff166101c760009054906101000a900473ffffffffffffffffffffffffffffffffffffffff166101c4546101c5600080815260200190815260200160002060405160240161155493929190615467565b6040516020818303038152906040527f4dd7c1b2000000000000000000000000000000000000000000000000000000007bffffffffffffffffffffffffffffffffffffffffffffffffffffffff19166020820180517bffffffffffffffffffffffffffffffffffffffffffffffffffffffff83818316178352505050506040516115de91906154ec565b600060405180830381855af49150503d8060008114611619576040519150601f19603f3d011682016040523d82523d6000602084013e61161e565b606091505b50915091506000806101c660009054906101000a900473ffffffffffffffffffffffffffffffffffffffff1673ffffffffffffffffffffffffffffffffffffffff166101c860009054906101000a900473ffffffffffffffffffffffffffffffffffffffff166101c4546101c560008081526020019081526020016000206040516024016116ae93929190615467565b6040516020818303038152906040527ff518a3bb000000000000000000000000000000000000000000000000000000007bffffffffffffffffffffffffffffffffffffffffffffffffffffffff19166020820180517bffffffffffffffffffffffffffffffffffffffffffffffffffffffff838183161783525050505060405161173891906154ec565b600060405180830381855af49150503d8060008114611773576040519150601f19603f3d011682016040523d82523d6000602084013e611778565b606091505b509150915050505050565b6101c660009054906101000a900473ffffffffffffffffffffffffffffffffffffffff1673ffffffffffffffffffffffffffffffffffffffff163373ffffffffffffffffffffffffffffffffffffffff1614611814576040517f08c379a000000000000000000000000000000000000000000000000000000000815260040161180b90615575565b60405180910390fd5b806101c56000848152602001908152602001600020600001908051906020019061183f929190613e16565b505050565b600061012d6000838152602001908152602001600020549050919050565b6101c860009054906101000a900473ffffffffffffffffffffffffffffffffffffffff1681565b7f9f2df0fed2c77648de5860a4cc508cd0818c85b8b8a1ab4ceeef8d981c8956a681565b6118b682610b4d565b6118bf81611b89565b6118c983836121f1565b505050565b7f65d7a28e3265b37a6474929f336521b332c1681b933f6cb9f3376673440d862a81565b6000606660008473ffffffffffffffffffffffffffffffffffffffff1673ffffffffffffffffffffffffffffffffffffffff16815260200190815260200160002060008373ffffffffffffffffffffffffffffffffffffffff1673ffffffffffffffffffffffffffffffffffffffff16815260200190815260200160002060009054906101000a900460ff16905092915050565b61198e611de4565b73ffffffffffffffffffffffffffffffffffffffff168573ffffffffffffffffffffffffffffffffffffffff1614806119d457506119d3856119ce611de4565b6118f2565b5b611a13576040517f08c379a0000000000000000000000000000000000000000000000000000000008152600401611a0a90614f8e565b60405180910390fd5b611a208585858585612b79565b5050505050565b611a2f611de4565b73ffffffffffffffffffffffffffffffffffffffff168373ffffffffffffffffffffffffffffffffffffffff161480611a755750611a7483611a6f611de4565b6118f2565b5b611ab4576040517f08c379a0000000000000000000000000000000000000000000000000000000008152600401611aab90614f8e565b60405180910390fd5b611abf838383612e17565b505050565b6101c660009054906101000a900473ffffffffffffffffffffffffffffffffffffffff1681565b7f189ab7a9244df0848122154315af71fe140f3db0fe014031783b0946b8c9d2e381565b60007f7965db0b000000000000000000000000000000000000000000000000000000007bffffffffffffffffffffffffffffffffffffffffffffffffffffffff1916827bffffffffffffffffffffffffffffffffffffffffffffffffffffffff19161480611b825750611b818261305f565b5b9050919050565b611b9a81611b95611de4565b613141565b50565b8060679080519060200190611bb3929190613e63565b5050565b600073ffffffffffffffffffffffffffffffffffffffff168473ffffffffffffffffffffffffffffffffffffffff1603611c26576040517f08c379a0000000000000000000000000000000000000000000000000000000008152600401611c1d90615607565b60405180910390fd5b8151835114611c6a576040517f08c379a0000000000000000000000000000000000000000000000000000000008152600401611c6190615699565b60405180910390fd5b6000611c74611de4565b9050611c85816000878787876131c6565b60005b8451811015611d3f57838181518110611ca457611ca36151f6565b5b602002602001015160656000878481518110611cc357611cc26151f6565b5b6020026020010151815260200190815260200160002060008873ffffffffffffffffffffffffffffffffffffffff1673ffffffffffffffffffffffffffffffffffffffff1681526020019081526020016000206000828254611d2591906156b9565b925050819055508080611d3790615254565b915050611c88565b508473ffffffffffffffffffffffffffffffffffffffff16600073ffffffffffffffffffffffffffffffffffffffff168273ffffffffffffffffffffffffffffffffffffffff167f4a39dc06d4c0dbc64b70af90fd698a233a518aa5d07e595d983b8c0526c8f7fb8787604051611db792919061570f565b60405180910390a4611dce816000878787876131e4565b611ddd816000878787876131ec565b5050505050565b600033905090565b8151835114611e30576040517f08c379a0000000000000000000000000000000000000000000000000000000008152600401611e2790615699565b60405180910390fd5b600073ffffffffffffffffffffffffffffffffffffffff168473ffffffffffffffffffffffffffffffffffffffff1603611e9f576040517f08c379a0000000000000000000000000000000000000000000000000000000008152600401611e96906157b8565b60405180910390fd5b6000611ea9611de4565b9050611eb98187878787876131c6565b60005b845181101561206d576000858281518110611eda57611ed96151f6565b5b602002602001015190506000858381518110611ef957611ef86151f6565b5b6020026020010151905060006065600084815260200190815260200160002060008b73ffffffffffffffffffffffffffffffffffffffff1673ffffffffffffffffffffffffffffffffffffffff16815260200190815260200160002054905081811015611f9b576040517f08c379a0000000000000000000000000000000000000000000000000000000008152600401611f929061584a565b60405180910390fd5b8181036065600085815260200190815260200160002060008c73ffffffffffffffffffffffffffffffffffffffff1673ffffffffffffffffffffffffffffffffffffffff16815260200190815260200160002081905550816065600085815260200190815260200160002060008b73ffffffffffffffffffffffffffffffffffffffff1673ffffffffffffffffffffffffffffffffffffffff168152602001908152602001600020600082825461205291906156b9565b925050819055505050508061206690615254565b9050611ebc565b508473ffffffffffffffffffffffffffffffffffffffff168673ffffffffffffffffffffffffffffffffffffffff168273ffffffffffffffffffffffffffffffffffffffff167f4a39dc06d4c0dbc64b70af90fd698a233a518aa5d07e595d983b8c0526c8f7fb87876040516120e492919061570f565b60405180910390a46120fa8187878787876131e4565b6121088187878787876131ec565b505050505050565b61211a828261133d565b6121ed5760016097600084815260200190815260200160002060000160008373ffffffffffffffffffffffffffffffffffffffff1673ffffffffffffffffffffffffffffffffffffffff16815260200190815260200160002060006101000a81548160ff021916908315150217905550612192611de4565b73ffffffffffffffffffffffffffffffffffffffff168173ffffffffffffffffffffffffffffffffffffffff16837f2f8788117e7eff1d82e926ec794901d17c78024a50270940304540a733656f0d60405160405180910390a45b5050565b6121fb828261133d565b156122cf5760006097600084815260200190815260200160002060000160008373ffffffffffffffffffffffffffffffffffffffff1673ffffffffffffffffffffffffffffffffffffffff16815260200190815260200160002060006101000a81548160ff021916908315150217905550612274611de4565b73ffffffffffffffffffffffffffffffffffffffff168173ffffffffffffffffffffffffffffffffffffffff16837ff6391f5c32d9c69d2a47ea670b442974b53935d1edc7fd64eb21e047a839171b60405160405180910390a45b5050565b60006123017f360894a13ba1a3210667c828492db98dca3e2076cc3735a920a3ca505d382bbc60001b6133c3565b60000160009054906101000a900473ffffffffffffffffffffffffffffffffffffffff16905090565b7f189ab7a9244df0848122154315af71fe140f3db0fe014031783b0946b8c9d2e361235481611b89565b5050565b6123847f4910fdfa16fed3260ed0e7147f7cc6da11a60208b5b9406d12a635614ffd914360001b6133cd565b60000160009054906101000a900460ff16156123a8576123a3836133d7565b6124c1565b8273ffffffffffffffffffffffffffffffffffffffff166352d1902d6040518163ffffffff1660e01b8152600401602060405180830381865afa92505050801561241057506040513d601f19601f8201168201806040525081019061240d919061587f565b60015b61244f576040517f08c379a00000000000000000000000000000000000000000000000000000000081526004016124469061591e565b60405180910390fd5b7f360894a13ba1a3210667c828492db98dca3e2076cc3735a920a3ca505d382bbc60001b81146124b4576040517f08c379a00000000000000000000000000000000000000000000000000000000081526004016124ab906159b0565b60405180910390fd5b506124c0838383613490565b5b505050565b6124ce6134bc565b600060c960006101000a81548160ff0219169083151502179055507f5db9ee0a495bf2e6ff9c91a7834c1ba4fdd244a5e8aa4e537bd38aeae4b073aa612512611de4565b60405161251f9190613f64565b60405180910390a1565b600073ffffffffffffffffffffffffffffffffffffffff168373ffffffffffffffffffffffffffffffffffffffff1603612598576040517f08c379a000000000000000000000000000000000000000000000000000000000815260040161258f90615a42565b60405180910390fd5b80518251146125dc576040517f08c379a00000000000000000000000000000000000000000000000000000000081526004016125d390615699565b60405180910390fd5b60006125e6611de4565b9050612606818560008686604051806020016040528060008152506131c6565b60005b8351811015612755576000848281518110612627576126266151f6565b5b602002602001015190506000848381518110612646576126456151f6565b5b6020026020010151905060006065600084815260200190815260200160002060008973ffffffffffffffffffffffffffffffffffffffff1673ffffffffffffffffffffffffffffffffffffffff168152602001908152602001600020549050818110156126e8576040517f08c379a00000000000000000000000000000000000000000000000000000000081526004016126df90615ad4565b60405180910390fd5b8181036065600085815260200190815260200160002060008a73ffffffffffffffffffffffffffffffffffffffff1673ffffffffffffffffffffffffffffffffffffffff16815260200190815260200160002081905550505050808061274d90615254565b915050612609565b50600073ffffffffffffffffffffffffffffffffffffffff168473ffffffffffffffffffffffffffffffffffffffff168273ffffffffffffffffffffffffffffffffffffffff167f4a39dc06d4c0dbc64b70af90fd698a233a518aa5d07e595d983b8c0526c8f7fb86866040516127cd92919061570f565b60405180910390a46127f3818560008686604051806020016040528060008152506131e4565b50505050565b600073ffffffffffffffffffffffffffffffffffffffff168473ffffffffffffffffffffffffffffffffffffffff1603612868576040517f08c379a000000000000000000000000000000000000000000000000000000000815260040161285f90615607565b60405180910390fd5b6000612872611de4565b9050600061287f85613505565b9050600061288c85613505565b905061289d836000898585896131c6565b846065600088815260200190815260200160002060008973ffffffffffffffffffffffffffffffffffffffff1673ffffffffffffffffffffffffffffffffffffffff16815260200190815260200160002060008282546128fd91906156b9565b925050819055508673ffffffffffffffffffffffffffffffffffffffff16600073ffffffffffffffffffffffffffffffffffffffff168473ffffffffffffffffffffffffffffffffffffffff167fc3d58168c5ae7397731d063d5bbf3d657854427343f4c083240f7aacaa2d0f62898960405161297b929190615af4565b60405180910390a4612992836000898585896131e4565b6129a18360008989898961357f565b50505050505050565b6129b2613756565b600160c960006101000a81548160ff0219169083151502179055507f62e78cea01bee320cd4e420270b5ea74000d11b0c9f74754ebdbfc544b05a2586129f6611de4565b604051612a039190613f64565b60405180910390a1565b8173ffffffffffffffffffffffffffffffffffffffff168373ffffffffffffffffffffffffffffffffffffffff1603612a7b576040517f08c379a0000000000000000000000000000000000000000000000000000000008152600401612a7290615b8f565b60405180910390fd5b80606660008573ffffffffffffffffffffffffffffffffffffffff1673ffffffffffffffffffffffffffffffffffffffff16815260200190815260200160002060008473ffffffffffffffffffffffffffffffffffffffff1673ffffffffffffffffffffffffffffffffffffffff16815260200190815260200160002060006101000a81548160ff0219169083151502179055508173ffffffffffffffffffffffffffffffffffffffff168373ffffffffffffffffffffffffffffffffffffffff167f17307eab39ab6107e8899845ad3d59bd9653f200f220920489ca2b5937696c3183604051612b6c91906140ff565b60405180910390a3505050565b600073ffffffffffffffffffffffffffffffffffffffff168473ffffffffffffffffffffffffffffffffffffffff1603612be8576040517f08c379a0000000000000000000000000000000000000000000000000000000008152600401612bdf906157b8565b60405180910390fd5b6000612bf2611de4565b90506000612bff85613505565b90506000612c0c85613505565b9050612c1c8389898585896131c6565b60006065600088815260200190815260200160002060008a73ffffffffffffffffffffffffffffffffffffffff1673ffffffffffffffffffffffffffffffffffffffff16815260200190815260200160002054905085811015612cb4576040517f08c379a0000000000000000000000000000000000000000000000000000000008152600401612cab9061584a565b60405180910390fd5b8581036065600089815260200190815260200160002060008b73ffffffffffffffffffffffffffffffffffffffff1673ffffffffffffffffffffffffffffffffffffffff16815260200190815260200160002081905550856065600089815260200190815260200160002060008a73ffffffffffffffffffffffffffffffffffffffff1673ffffffffffffffffffffffffffffffffffffffff1681526020019081526020016000206000828254612d6b91906156b9565b925050819055508773ffffffffffffffffffffffffffffffffffffffff168973ffffffffffffffffffffffffffffffffffffffff168573ffffffffffffffffffffffffffffffffffffffff167fc3d58168c5ae7397731d063d5bbf3d657854427343f4c083240f7aacaa2d0f628a8a604051612de8929190615af4565b60405180910390a4612dfe848a8a86868a6131e4565b612e0c848a8a8a8a8a61357f565b505050505050505050565b600073ffffffffffffffffffffffffffffffffffffffff168373ffffffffffffffffffffffffffffffffffffffff1603612e86576040517f08c379a0000000000000000000000000000000000000000000000000000000008152600401612e7d90615a42565b60405180910390fd5b6000612e90611de4565b90506000612e9d84613505565b90506000612eaa84613505565b9050612eca838760008585604051806020016040528060008152506131c6565b60006065600087815260200190815260200160002060008873ffffffffffffffffffffffffffffffffffffffff1673ffffffffffffffffffffffffffffffffffffffff16815260200190815260200160002054905084811015612f62576040517f08c379a0000000000000000000000000000000000000000000000000000000008152600401612f5990615ad4565b60405180910390fd5b8481036065600088815260200190815260200160002060008973ffffffffffffffffffffffffffffffffffffffff1673ffffffffffffffffffffffffffffffffffffffff16815260200190815260200160002081905550600073ffffffffffffffffffffffffffffffffffffffff168773ffffffffffffffffffffffffffffffffffffffff168573ffffffffffffffffffffffffffffffffffffffff167fc3d58168c5ae7397731d063d5bbf3d657854427343f4c083240f7aacaa2d0f628989604051613030929190615af4565b60405180910390a4613056848860008686604051806020016040528060008152506131e4565b50505050505050565b60007fd9b67a26000000000000000000000000000000000000000000000000000000007bffffffffffffffffffffffffffffffffffffffffffffffffffffffff1916827bffffffffffffffffffffffffffffffffffffffffffffffffffffffff1916148061312a57507f0e89341c000000000000000000000000000000000000000000000000000000007bffffffffffffffffffffffffffffffffffffffffffffffffffffffff1916827bffffffffffffffffffffffffffffffffffffffffffffffffffffffff1916145b8061313a5750613139826137a0565b5b9050919050565b61314b828261133d565b6131c2576131588161380a565b6131668360001c6020613837565b604051602001613177929190615c83565b6040516020818303038152906040526040517f08c379a00000000000000000000000000000000000000000000000000000000081526004016131b9919061435e565b60405180910390fd5b5050565b6131ce613756565b6131dc868686868686613a73565b505050505050565b505050505050565b61320b8473ffffffffffffffffffffffffffffffffffffffff16613c46565b156133bb578373ffffffffffffffffffffffffffffffffffffffff1663bc197c8187878686866040518663ffffffff1660e01b8152600401613251959493929190615d07565b6020604051808303816000875af192505050801561328d57506040513d601f19601f8201168201806040525081019061328a9190615d84565b60015b61333257613299615dbe565b806308c379a0036132f557506132ad615de0565b806132b857506132f7565b806040517f08c379a00000000000000000000000000000000000000000000000000000000081526004016132ec919061435e565b60405180910390fd5b505b6040517f08c379a000000000000000000000000000000000000000000000000000000000815260040161332990615ee2565b60405180910390fd5b63bc197c8160e01b7bffffffffffffffffffffffffffffffffffffffffffffffffffffffff1916817bffffffffffffffffffffffffffffffffffffffffffffffffffffffff1916146133b9576040517f08c379a00000000000000000000000000000000000000000000000000000000081526004016133b090615f74565b60405180910390fd5b505b505050505050565b6000819050919050565b6000819050919050565b6133e081613c46565b61341f576040517f08c379a000000000000000000000000000000000000000000000000000000000815260040161341690616006565b60405180910390fd5b8061344c7f360894a13ba1a3210667c828492db98dca3e2076cc3735a920a3ca505d382bbc60001b6133c3565b60000160006101000a81548173ffffffffffffffffffffffffffffffffffffffff021916908373ffffffffffffffffffffffffffffffffffffffff16021790555050565b61349983613c69565b6000825111806134a65750805b156134b7576134b58383613cb8565b505b505050565b6134c46111cc565b613503576040517f08c379a00000000000000000000000000000000000000000000000000000000081526004016134fa90616072565b60405180910390fd5b565b60606000600167ffffffffffffffff81111561352457613523614135565b5b6040519080825280602002602001820160405280156135525781602001602082028036833780820191505090505b509050828160008151811061356a576135696151f6565b5b60200260200101818152505080915050919050565b61359e8473ffffffffffffffffffffffffffffffffffffffff16613c46565b1561374e578373ffffffffffffffffffffffffffffffffffffffff1663f23a6e6187878686866040518663ffffffff1660e01b81526004016135e4959493929190616092565b6020604051808303816000875af192505050801561362057506040513d601f19601f8201168201806040525081019061361d9190615d84565b60015b6136c55761362c615dbe565b806308c379a0036136885750613640615de0565b8061364b575061368a565b806040517f08c379a000000000000000000000000000000000000000000000000000000000815260040161367f919061435e565b60405180910390fd5b505b6040517f08c379a00000000000000000000000000000000000000000000000000000000081526004016136bc90615ee2565b60405180910390fd5b63f23a6e6160e01b7bffffffffffffffffffffffffffffffffffffffffffffffffffffffff1916817bffffffffffffffffffffffffffffffffffffffffffffffffffffffff19161461374c576040517f08c379a000000000000000000000000000000000000000000000000000000000815260040161374390615f74565b60405180910390fd5b505b505050505050565b61375e6111cc565b1561379e576040517f08c379a000000000000000000000000000000000000000000000000000000000815260040161379590616138565b60405180910390fd5b565b60007f01ffc9a7000000000000000000000000000000000000000000000000000000007bffffffffffffffffffffffffffffffffffffffffffffffffffffffff1916827bffffffffffffffffffffffffffffffffffffffffffffffffffffffff1916149050919050565b60606138308273ffffffffffffffffffffffffffffffffffffffff16601460ff16613837565b9050919050565b60606000600283600261384a9190616158565b61385491906156b9565b67ffffffffffffffff81111561386d5761386c614135565b5b6040519080825280601f01601f19166020018201604052801561389f5781602001600182028036833780820191505090505b5090507f3000000000000000000000000000000000000000000000000000000000000000816000815181106138d7576138d66151f6565b5b60200101907effffffffffffffffffffffffffffffffffffffffffffffffffffffffffffff1916908160001a9053507f78000000000000000000000000000000000000000000000000000000000000008160018151811061393b5761393a6151f6565b5b60200101907effffffffffffffffffffffffffffffffffffffffffffffffffffffffffffff1916908160001a9053506000600184600261397b9190616158565b61398591906156b9565b90505b6001811115613a25577f3031323334353637383961626364656600000000000000000000000000000000600f8616601081106139c7576139c66151f6565b5b1a60f81b8282815181106139de576139dd6151f6565b5b60200101907effffffffffffffffffffffffffffffffffffffffffffffffffffffffffffff1916908160001a905350600485901c945080613a1e906161b2565b9050613988565b5060008414613a69576040517f08c379a0000000000000000000000000000000000000000000000000000000008152600401613a6090616227565b60405180910390fd5b8091505092915050565b613a81868686868686613d9c565b600073ffffffffffffffffffffffffffffffffffffffff168573ffffffffffffffffffffffffffffffffffffffff1603613b335760005b8351811015613b3157828181518110613ad457613ad36151f6565b5b602002602001015161012d6000868481518110613af457613af36151f6565b5b602002602001015181526020019081526020016000206000828254613b1991906156b9565b9250508190555080613b2a90615254565b9050613ab8565b505b600073ffffffffffffffffffffffffffffffffffffffff168473ffffffffffffffffffffffffffffffffffffffff1603613c3e5760005b8351811015613c3c576000848281518110613b8857613b876151f6565b5b602002602001015190506000848381518110613ba757613ba66151f6565b5b60200260200101519050600061012d600084815260200190815260200160002054905081811015613c0d576040517f08c379a0000000000000000000000000000000000000000000000000000000008152600401613c04906162b9565b60405180910390fd5b81810361012d60008581526020019081526020016000208190555050505080613c3590615254565b9050613b6a565b505b505050505050565b6000808273ffffffffffffffffffffffffffffffffffffffff163b119050919050565b613c72816133d7565b8073ffffffffffffffffffffffffffffffffffffffff167fbc7cd75a20ee27fd9adebab32041f755214dbc6bffa90cc0225b39da2e5c2d3b60405160405180910390a250565b6060613cc383613c46565b613d02576040517f08c379a0000000000000000000000000000000000000000000000000000000008152600401613cf99061634b565b60405180910390fd5b6000808473ffffffffffffffffffffffffffffffffffffffff1684604051613d2a91906154ec565b600060405180830381855af49150503d8060008114613d65576040519150601f19603f3d011682016040523d82523d6000602084013e613d6a565b606091505b5091509150613d92828260405180606001604052806027815260200161636c60279139613da4565b9250505092915050565b505050505050565b60608315613db457829050613dbf565b613dbe8383613dc6565b5b9392505050565b600082511115613dd95781518083602001fd5b806040517f08c379a0000000000000000000000000000000000000000000000000000000008152600401613e0d919061435e565b60405180910390fd5b828054828255906000526020600020908101928215613e52579160200282015b82811115613e51578251825591602001919060010190613e36565b5b509050613e5f9190613ee9565b5090565b828054613e6f90614eeb565b90600052602060002090601f016020900481019282613e915760008555613ed8565b82601f10613eaa57805160ff1916838001178555613ed8565b82800160010185558215613ed8579182015b82811115613ed7578251825591602001919060010190613ebc565b5b509050613ee59190613f06565b5090565b5b80821115613f02576000816000905550600101613eea565b5090565b5b80821115613f1f576000816000905550600101613f07565b5090565b600073ffffffffffffffffffffffffffffffffffffffff82169050919050565b6000613f4e82613f23565b9050919050565b613f5e81613f43565b82525050565b6000602082019050613f796000830184613f55565b92915050565b6000604051905090565b600080fd5b600080fd5b613f9c81613f43565b8114613fa757600080fd5b50565b600081359050613fb981613f93565b92915050565b6000819050919050565b613fd281613fbf565b8114613fdd57600080fd5b50565b600081359050613fef81613fc9565b92915050565b6000806040838503121561400c5761400b613f89565b5b600061401a85828601613faa565b925050602061402b85828601613fe0565b9150509250929050565b61403e81613fbf565b82525050565b60006020820190506140596000830184614035565b92915050565b60007fffffffff0000000000000000000000000000000000000000000000000000000082169050919050565b6140948161405f565b811461409f57600080fd5b50565b6000813590506140b18161408b565b92915050565b6000602082840312156140cd576140cc613f89565b5b60006140db848285016140a2565b91505092915050565b60008115159050919050565b6140f9816140e4565b82525050565b600060208201905061411460008301846140f0565b92915050565b600080fd5b600080fd5b6000601f19601f8301169050919050565b7f4e487b7100000000000000000000000000000000000000000000000000000000600052604160045260246000fd5b61416d82614124565b810181811067ffffffffffffffff8211171561418c5761418b614135565b5b80604052505050565b600061419f613f7f565b90506141ab8282614164565b919050565b600067ffffffffffffffff8211156141cb576141ca614135565b5b6141d482614124565b9050602081019050919050565b82818337600083830152505050565b60006142036141fe846141b0565b614195565b90508281526020810184848401111561421f5761421e61411f565b5b61422a8482856141e1565b509392505050565b600082601f8301126142475761424661411a565b5b81356142578482602086016141f0565b91505092915050565b60006020828403121561427657614275613f89565b5b600082013567ffffffffffffffff81111561429457614293613f8e565b5b6142a084828501614232565b91505092915050565b6000602082840312156142bf576142be613f89565b5b60006142cd84828501613fe0565b91505092915050565b600081519050919050565b600082825260208201905092915050565b60005b838110156143105780820151818401526020810190506142f5565b8381111561431f576000848401525b50505050565b6000614330826142d6565b61433a81856142e1565b935061434a8185602086016142f2565b61435381614124565b840191505092915050565b600060208201905081810360008301526143788184614325565b905092915050565b600067ffffffffffffffff82111561439b5761439a614135565b5b602082029050602081019050919050565b600080fd5b60006143c46143bf84614380565b614195565b905080838252602082019050602084028301858111156143e7576143e66143ac565b5b835b8181101561441057806143fc8882613fe0565b8452602084019350506020810190506143e9565b5050509392505050565b600082601f83011261442f5761442e61411a565b5b813561443f8482602086016143b1565b91505092915050565b600067ffffffffffffffff82111561446357614462614135565b5b61446c82614124565b9050602081019050919050565b600061448c61448784614448565b614195565b9050828152602081018484840111156144a8576144a761411f565b5b6144b38482856141e1565b509392505050565b600082601f8301126144d0576144cf61411a565b5b81356144e0848260208601614479565b91505092915050565b6000806000806080858703121561450357614502613f89565b5b600061451187828801613faa565b945050602085013567ffffffffffffffff81111561453257614531613f8e565b5b61453e8782880161441a565b935050604085013567ffffffffffffffff81111561455f5761455e613f8e565b5b61456b8782880161441a565b925050606085013567ffffffffffffffff81111561458c5761458b613f8e565b5b614598878288016144bb565b91505092959194509250565b6000819050919050565b6145b7816145a4565b81146145c257600080fd5b50565b6000813590506145d4816145ae565b92915050565b6000602082840312156145f0576145ef613f89565b5b60006145fe848285016145c5565b91505092915050565b614610816145a4565b82525050565b600060208201905061462b6000830184614607565b92915050565b600080600080600060a0868803121561464d5761464c613f89565b5b600061465b88828901613faa565b955050602061466c88828901613faa565b945050604086013567ffffffffffffffff81111561468d5761468c613f8e565b5b6146998882890161441a565b935050606086013567ffffffffffffffff8111156146ba576146b9613f8e565b5b6146c68882890161441a565b925050608086013567ffffffffffffffff8111156146e7576146e6613f8e565b5b6146f3888289016144bb565b9150509295509295909350565b6000806040838503121561471757614716613f89565b5b6000614725858286016145c5565b925050602061473685828601613faa565b9150509250929050565b60006020828403121561475657614755613f89565b5b600061476484828501613faa565b91505092915050565b600067ffffffffffffffff82111561478857614787614135565b5b602082029050602081019050919050565b60006147ac6147a78461476d565b614195565b905080838252602082019050602084028301858111156147cf576147ce6143ac565b5b835b818110156147f857806147e48882613faa565b8452602084019350506020810190506147d1565b5050509392505050565b600082601f8301126148175761481661411a565b5b8135614827848260208601614799565b91505092915050565b6000806040838503121561484757614846613f89565b5b600083013567ffffffffffffffff81111561486557614864613f8e565b5b61487185828601614802565b925050602083013567ffffffffffffffff81111561489257614891613f8e565b5b61489e8582860161441a565b9150509250929050565b600081519050919050565b600082825260208201905092915050565b6000819050602082019050919050565b6148dd81613fbf565b82525050565b60006148ef83836148d4565b60208301905092915050565b6000602082019050919050565b6000614913826148a8565b61491d81856148b3565b9350614928836148c4565b8060005b8381101561495957815161494088826148e3565b975061494b836148fb565b92505060018101905061492c565b5085935050505092915050565b600060208201905081810360008301526149808184614908565b905092915050565b6000806040838503121561499f5761499e613f89565b5b60006149ad85828601613faa565b925050602083013567ffffffffffffffff8111156149ce576149cd613f8e565b5b6149da858286016144bb565b9150509250929050565b6000806000606084860312156149fd576149fc613f89565b5b6000614a0b86828701613faa565b935050602084013567ffffffffffffffff811115614a2c57614a2b613f8e565b5b614a388682870161441a565b925050604084013567ffffffffffffffff811115614a5957614a58613f8e565b5b614a658682870161441a565b9150509250925092565b60008060008060808587031215614a8957614a88613f89565b5b6000614a9787828801613faa565b9450506020614aa887828801613fe0565b9350506040614ab987828801613fe0565b925050606085013567ffffffffffffffff811115614ada57614ad9613f8e565b5b614ae6878288016144bb565b91505092959194509250565b600067ffffffffffffffff821115614b0d57614b0c614135565b5b602082029050602081019050919050565b6000614b31614b2c84614af2565b614195565b90508083825260208201905060208402830185811115614b5457614b536143ac565b5b835b81811015614b7d5780614b6988826145c5565b845260208401935050602081019050614b56565b5050509392505050565b600082601f830112614b9c57614b9b61411a565b5b8135614bac848260208601614b1e565b91505092915050565b60008060008060808587031215614bcf57614bce613f89565b5b6000614bdd87828801613faa565b9450506020614bee87828801613faa565b9350506040614bff87828801613faa565b925050606085013567ffffffffffffffff811115614c2057614c1f613f8e565b5b614c2c87828801614b87565b91505092959194509250565b614c41816140e4565b8114614c4c57600080fd5b50565b600081359050614c5e81614c38565b92915050565b60008060408385031215614c7b57614c7a613f89565b5b6000614c8985828601613faa565b9250506020614c9a85828601614c4f565b9150509250929050565b60008060408385031215614cbb57614cba613f89565b5b6000614cc985828601613fe0565b925050602083013567ffffffffffffffff811115614cea57614ce9613f8e565b5b614cf685828601614b87565b9150509250929050565b60008060408385031215614d1757614d16613f89565b5b6000614d2585828601613faa565b9250506020614d3685828601613faa565b9150509250929050565b600080600080600060a08688031215614d5c57614d5b613f89565b5b6000614d6a88828901613faa565b9550506020614d7b88828901613faa565b9450506040614d8c88828901613fe0565b9350506060614d9d88828901613fe0565b925050608086013567ffffffffffffffff811115614dbe57614dbd613f8e565b5b614dca888289016144bb565b9150509295509295909350565b600080600060608486031215614df057614def613f89565b5b6000614dfe86828701613faa565b9350506020614e0f86828701613fe0565b9250506040614e2086828701613fe0565b9150509250925092565b7f455243313135353a2061646472657373207a65726f206973206e6f742061207660008201527f616c6964206f776e657200000000000000000000000000000000000000000000602082015250565b6000614e86602a836142e1565b9150614e9182614e2a565b604082019050919050565b60006020820190508181036000830152614eb581614e79565b9050919050565b7f4e487b7100000000000000000000000000000000000000000000000000000000600052602260045260246000fd5b60006002820490506001821680614f0357607f821691505b602082108103614f1657614f15614ebc565b5b50919050565b7f455243313135353a2063616c6c6572206973206e6f7420746f6b656e206f776e60008201527f6572206f7220617070726f766564000000000000000000000000000000000000602082015250565b6000614f78602e836142e1565b9150614f8382614f1c565b604082019050919050565b60006020820190508181036000830152614fa781614f6b565b9050919050565b7f416363657373436f6e74726f6c3a2063616e206f6e6c792072656e6f756e636560008201527f20726f6c657320666f722073656c660000000000000000000000000000000000602082015250565b600061500a602f836142e1565b915061501582614fae565b604082019050919050565b6000602082019050818103600083015261503981614ffd565b9050919050565b7f46756e6374696f6e206d7573742062652063616c6c6564207468726f7567682060008201527f64656c656761746563616c6c0000000000000000000000000000000000000000602082015250565b600061509c602c836142e1565b91506150a782615040565b604082019050919050565b600060208201905081810360008301526150cb8161508f565b9050919050565b7f46756e6374696f6e206d7573742062652063616c6c6564207468726f7567682060008201527f6163746976652070726f78790000000000000000000000000000000000000000602082015250565b600061512e602c836142e1565b9150615139826150d2565b604082019050919050565b6000602082019050818103600083015261515d81615121565b9050919050565b7f455243313135353a206163636f756e747320616e6420696473206c656e67746860008201527f206d69736d617463680000000000000000000000000000000000000000000000602082015250565b60006151c06029836142e1565b91506151cb82615164565b604082019050919050565b600060208201905081810360008301526151ef816151b3565b9050919050565b7f4e487b7100000000000000000000000000000000000000000000000000000000600052603260045260246000fd5b7f4e487b7100000000000000000000000000000000000000000000000000000000600052601160045260246000fd5b600061525f82613fbf565b91507fffffffffffffffffffffffffffffffffffffffffffffffffffffffffffffffff820361529157615290615225565b5b600182019050919050565b7f555550535570677261646561626c653a206d757374206e6f742062652063616c60008201527f6c6564207468726f7567682064656c656761746563616c6c0000000000000000602082015250565b60006152f86038836142e1565b91506153038261529c565b604082019050919050565b60006020820190508181036000830152615327816152eb565b9050919050565b600081549050919050565b600082825260208201905092915050565b60008190508160005260206000209050919050565b615368816145a4565b82525050565b600061537a838361535f565b60208301905092915050565b60008160001c9050919050565b6000819050919050565b60006153b06153ab83615386565b615393565b9050919050565b60006153c3825461539d565b9050919050565b6000600182019050919050565b60006153e28261532e565b6153ec8185615339565b93506153f78361534a565b8060005b8381101561542f5761540c826153b7565b615416888261536e565b9750615421836153ca565b9250506001810190506153fb565b5085935050505092915050565b6000602083016000808401858303600087015261545983826153d7565b925050819250505092915050565b600060608201905061547c6000830186613f55565b6154896020830185614035565b818103604083015261549b818461543c565b9050949350505050565b600081519050919050565b600081905092915050565b60006154c6826154a5565b6154d081856154b0565b93506154e08185602086016142f2565b80840191505092915050565b60006154f882846154bb565b915081905092915050565b7f4f6e6c7920746865204974656d547261636b65722063616e206164642069746560008201527f6d20646174610000000000000000000000000000000000000000000000000000602082015250565b600061555f6026836142e1565b915061556a82615503565b604082019050919050565b6000602082019050818103600083015261558e81615552565b9050919050565b7f455243313135353a206d696e7420746f20746865207a65726f2061646472657360008201527f7300000000000000000000000000000000000000000000000000000000000000602082015250565b60006155f16021836142e1565b91506155fc82615595565b604082019050919050565b60006020820190508181036000830152615620816155e4565b9050919050565b7f455243313135353a2069647320616e6420616d6f756e7473206c656e6774682060008201527f6d69736d61746368000000000000000000000000000000000000000000000000602082015250565b60006156836028836142e1565b915061568e82615627565b604082019050919050565b600060208201905081810360008301526156b281615676565b9050919050565b60006156c482613fbf565b91506156cf83613fbf565b9250827fffffffffffffffffffffffffffffffffffffffffffffffffffffffffffffffff0382111561570457615703615225565b5b828201905092915050565b600060408201905081810360008301526157298185614908565b9050818103602083015261573d8184614908565b90509392505050565b7f455243313135353a207472616e7366657220746f20746865207a65726f20616460008201527f6472657373000000000000000000000000000000000000000000000000000000602082015250565b60006157a26025836142e1565b91506157ad82615746565b604082019050919050565b600060208201905081810360008301526157d181615795565b9050919050565b7f455243313135353a20696e73756666696369656e742062616c616e636520666f60008201527f72207472616e7366657200000000000000000000000000000000000000000000602082015250565b6000615834602a836142e1565b915061583f826157d8565b604082019050919050565b6000602082019050818103600083015261586381615827565b9050919050565b600081519050615879816145ae565b92915050565b60006020828403121561589557615894613f89565b5b60006158a38482850161586a565b91505092915050565b7f45524331393637557067726164653a206e657720696d706c656d656e7461746960008201527f6f6e206973206e6f742055555053000000000000000000000000000000000000602082015250565b6000615908602e836142e1565b9150615913826158ac565b604082019050919050565b60006020820190508181036000830152615937816158fb565b9050919050565b7f45524331393637557067726164653a20756e737570706f727465642070726f7860008201527f6961626c65555549440000000000000000000000000000000000000000000000602082015250565b600061599a6029836142e1565b91506159a58261593e565b604082019050919050565b600060208201905081810360008301526159c98161598d565b9050919050565b7f455243313135353a206275726e2066726f6d20746865207a65726f206164647260008201527f6573730000000000000000000000000000000000000000000000000000000000602082015250565b6000615a2c6023836142e1565b9150615a37826159d0565b604082019050919050565b60006020820190508181036000830152615a5b81615a1f565b9050919050565b7f455243313135353a206275726e20616d6f756e7420657863656564732062616c60008201527f616e636500000000000000000000000000000000000000000000000000000000602082015250565b6000615abe6024836142e1565b9150615ac982615a62565b604082019050919050565b60006020820190508181036000830152615aed81615ab1565b9050919050565b6000604082019050615b096000830185614035565b615b166020830184614035565b9392505050565b7f455243313135353a2073657474696e6720617070726f76616c2073746174757360008201527f20666f722073656c660000000000000000000000000000000000000000000000602082015250565b6000615b796029836142e1565b9150615b8482615b1d565b604082019050919050565b60006020820190508181036000830152615ba881615b6c565b9050919050565b600081905092915050565b7f416363657373436f6e74726f6c3a206163636f756e7420000000000000000000600082015250565b6000615bf0601783615baf565b9150615bfb82615bba565b601782019050919050565b6000615c11826142d6565b615c1b8185615baf565b9350615c2b8185602086016142f2565b80840191505092915050565b7f206973206d697373696e6720726f6c6520000000000000000000000000000000600082015250565b6000615c6d601183615baf565b9150615c7882615c37565b601182019050919050565b6000615c8e82615be3565b9150615c9a8285615c06565b9150615ca582615c60565b9150615cb18284615c06565b91508190509392505050565b600082825260208201905092915050565b6000615cd9826154a5565b615ce38185615cbd565b9350615cf38185602086016142f2565b615cfc81614124565b840191505092915050565b600060a082019050615d1c6000830188613f55565b615d296020830187613f55565b8181036040830152615d3b8186614908565b90508181036060830152615d4f8185614908565b90508181036080830152615d638184615cce565b90509695505050505050565b600081519050615d7e8161408b565b92915050565b600060208284031215615d9a57615d99613f89565b5b6000615da884828501615d6f565b91505092915050565b60008160e01c9050919050565b600060033d1115615ddd5760046000803e615dda600051615db1565b90505b90565b600060443d10615e6d57615df2613f7f565b60043d036004823e80513d602482011167ffffffffffffffff82111715615e1a575050615e6d565b808201805167ffffffffffffffff811115615e385750505050615e6d565b80602083010160043d038501811115615e55575050505050615e6d565b615e6482602001850186614164565b82955050505050505b90565b7f455243313135353a207472616e7366657220746f206e6f6e2d4552433131353560008201527f526563656976657220696d706c656d656e746572000000000000000000000000602082015250565b6000615ecc6034836142e1565b9150615ed782615e70565b604082019050919050565b60006020820190508181036000830152615efb81615ebf565b9050919050565b7f455243313135353a204552433131353552656365697665722072656a6563746560008201527f6420746f6b656e73000000000000000000000000000000000000000000000000602082015250565b6000615f5e6028836142e1565b9150615f6982615f02565b604082019050919050565b60006020820190508181036000830152615f8d81615f51565b9050919050565b7f455243313936373a206e657720696d706c656d656e746174696f6e206973206e60008201527f6f74206120636f6e747261637400000000000000000000000000000000000000602082015250565b6000615ff0602d836142e1565b9150615ffb82615f94565b604082019050919050565b6000602082019050818103600083015261601f81615fe3565b9050919050565b7f5061757361626c653a206e6f7420706175736564000000000000000000000000600082015250565b600061605c6014836142e1565b915061606782616026565b602082019050919050565b6000602082019050818103600083015261608b8161604f565b9050919050565b600060a0820190506160a76000830188613f55565b6160b46020830187613f55565b6160c16040830186614035565b6160ce6060830185614035565b81810360808301526160e08184615cce565b90509695505050505050565b7f5061757361626c653a2070617573656400000000000000000000000000000000600082015250565b60006161226010836142e1565b915061612d826160ec565b602082019050919050565b6000602082019050818103600083015261615181616115565b9050919050565b600061616382613fbf565b915061616e83613fbf565b9250817fffffffffffffffffffffffffffffffffffffffffffffffffffffffffffffffff04831182151516156161a7576161a6615225565b5b828202905092915050565b60006161bd82613fbf565b9150600082036161d0576161cf615225565b5b600182039050919050565b7f537472696e67733a20686578206c656e67746820696e73756666696369656e74600082015250565b60006162116020836142e1565b915061621c826161db565b602082019050919050565b6000602082019050818103600083015261624081616204565b9050919050565b7f455243313135353a206275726e20616d6f756e74206578636565647320746f7460008201527f616c537570706c79000000000000000000000000000000000000000000000000602082015250565b60006162a36028836142e1565b91506162ae82616247565b604082019050919050565b600060208201905081810360008301526162d281616296565b9050919050565b7f416464726573733a2064656c65676174652063616c6c20746f206e6f6e2d636f60008201527f6e74726163740000000000000000000000000000000000000000000000000000602082015250565b60006163356026836142e1565b9150616340826162d9565b604082019050919050565b6000602082019050818103600083015261636481616328565b905091905056fe416464726573733a206c6f772d6c6576656c2064656c65676174652063616c6c206661696c6564a2646970667358221220f592327cb23f5c310e207217cc9a764013cfbf1a013c04e6779aee3d55a64ccf64736f6c634300080e0033",
  "immutableReferences": {
    "1129": [
      {
        "length": 32,
        "start": 3252
      },
      {
        "length": 32,
        "start": 3394
      },
      {
        "length": 32,
        "start": 4037
      },
      {
        "length": 32,
        "start": 4179
      },
      {
        "length": 32,
        "start": 4375
      }
    ]
  },
  "source": "// SPDX-License-Identifier: MIT\r\npragma solidity ^0.8.4;\r\n\r\nimport \"@openzeppelin/contracts-upgradeable/token/ERC1155/ERC1155Upgradeable.sol\";\r\nimport \"@openzeppelin/contracts-upgradeable/token/ERC1155/extensions/ERC1155BurnableUpgradeable.sol\";\r\nimport \"@openzeppelin/contracts-upgradeable/token/ERC1155/extensions/ERC1155PausableUpgradeable.sol\";\r\nimport \"@openzeppelin/contracts-upgradeable/access/OwnableUpgradeable.sol\";\r\nimport \"@openzeppelin/contracts-upgradeable/proxy/utils/Initializable.sol\";\r\nimport \"@openzeppelin/contracts-upgradeable/proxy/utils/UUPSUpgradeable.sol\";\r\nimport \"@openzeppelin/contracts-upgradeable/access/AccessControlUpgradeable.sol\";\r\nimport \"@openzeppelin/contracts-upgradeable/token/ERC1155/extensions/ERC1155SupplyUpgradeable.sol\";\r\n\r\n\r\n// this contract is a proxy the itemTracker contract\r\n// it is used to move items from one address to another\r\n// it calls the itemTracker contract to do the actual transfer of ownership by buring the item and minting a new one\r\n// this allows items to be moved while including only the parts of the item that are agreed upon by both parties\r\n// this contract is not intended to be used by the public, but by other contracts\r\n// this calls on the ItemTracker by address, so it can be used with any ItemTracker contract\r\n\r\ncontract ItemDistributor is Initializable, ERC1155Upgradeable, AccessControlUpgradeable, PausableUpgradeable, ERC1155BurnableUpgradeable, ERC1155SupplyUpgradeable, UUPSUpgradeable {\r\n    struct Item {\r\n        bytes32[] encryptedItem;\r\n    }\r\n    event EncryptionToolsSet(address _encryptionTools);\r\n    bytes32 public constant URI_SETTER_ROLE = keccak256(\"URI_SETTER_ROLE\");\r\n    bytes32 public constant PAUSER_ROLE = keccak256(\"PAUSER_ROLE\");\r\n    bytes32 public constant MINTER_ROLE = keccak256(\"MINTER_ROLE\");\r\n    bytes32 public constant UPGRADER_ROLE = keccak256(\"UPGRADER_ROLE\");\r\n    address public ETAddress;\r\n    uint256 public itemID;\r\n    mapping (uint256 => Item) internal items;\r\n    address public ITAddress;\r\n    address public owner;\r\n    address public newOwner;\r\n    event ItemTrackerSet(address _itemTracker);\r\n    mapping(uint256 => address) public itemOwners;\r\n\r\n    function initialize(address _ITAddress, address _owner, address _newOwner, bytes32[] memory _encryptedItem) public {\r\n        ITAddress = _ITAddress;\r\n        owner = _owner;\r\n        newOwner = _newOwner;\r\n        itemID = 0;\r\n        items[itemID].encryptedItem = _encryptedItem;\r\n    }\r\n\r\n    // add a data to an item array\r\n    function addItemData(uint256 _itemID, bytes32[] memory _encryptedItem) public {\r\n        require(msg.sender == ITAddress, \"Only the ItemTracker can add item data\");\r\n        items[_itemID].encryptedItem = _encryptedItem;\r\n    }\r\n\r\n    \r\n    // make a delecate call to the itemTracker contract to burn the item and mint a new one\r\n    function transferItem() public {\r\n        (bool success, bytes memory result) = ITAddress.delegatecall(abi.encodeWithSignature(\"burnItem(address,uint256,bytes32[])\", owner, itemID, items[0]));\r\n        (bool success1, bytes memory result1) = ITAddress.delegatecall(abi.encodeWithSignature(\"createItem(address,uint256,bytes32[])\", newOwner, itemID, items[0]));\r\n    }\r\n\r\n        function setURI(string memory newuri) public onlyRole(URI_SETTER_ROLE) {\r\n        _setURI(newuri);\r\n    }\r\n\r\n    function pause() public onlyRole(PAUSER_ROLE) {\r\n        _pause();\r\n    }\r\n\r\n    function unpause() public onlyRole(PAUSER_ROLE) {\r\n        _unpause();\r\n    }\r\n\r\n    function mint(address account, uint256 id, uint256 amount, bytes memory data)\r\n        public\r\n        onlyRole(MINTER_ROLE)\r\n    {\r\n        _mint(account, id, amount, data);\r\n    }\r\n\r\n    function mintBatch(address to, uint256[] memory ids, uint256[] memory amounts, bytes memory data)\r\n        public\r\n        onlyRole(MINTER_ROLE)\r\n    {\r\n        _mintBatch(to, ids, amounts, data);\r\n    }\r\n\r\n    function _beforeTokenTransfer(address operator, address from, address to, uint256[] memory ids, uint256[] memory amounts, bytes memory data)\r\n        internal\r\n        whenNotPaused\r\n        override(ERC1155Upgradeable, ERC1155SupplyUpgradeable)\r\n    {\r\n        super._beforeTokenTransfer(operator, from, to, ids, amounts, data);\r\n    }\r\n\r\n    function _authorizeUpgrade(address newImplementation)\r\n        internal\r\n        onlyRole(UPGRADER_ROLE)\r\n        override\r\n    {}\r\n\r\n    // The following functions are overrides required by Solidity.\r\n\r\n    function supportsInterface(bytes4 interfaceId)\r\n        public\r\n        view\r\n        override(ERC1155Upgradeable, AccessControlUpgradeable)\r\n        returns (bool)\r\n    {\r\n        return super.supportsInterface(interfaceId);\r\n    }\r\n\r\n}",
  "sourcePath": "C:\\Users\\mosle\\Documents\\GitHub\\nWonderland\\contracts\\DALI\\003_ItemDistributor.sol",
  "compiler": {
    "name": "solc",
    "version": "0.8.14+commit.80d49f37.Emscripten.clang"
  },
  "schemaVersion": "3.4.8",
  "updatedAt": "2022-12-09T15:56:11.699Z",
  "devdoc": {
    "kind": "dev",
    "methods": {
      "balanceOf(address,uint256)": {
        "details": "See {IERC1155-balanceOf}. Requirements: - `account` cannot be the zero address."
      },
      "balanceOfBatch(address[],uint256[])": {
        "details": "See {IERC1155-balanceOfBatch}. Requirements: - `accounts` and `ids` must have the same length."
      },
      "exists(uint256)": {
        "details": "Indicates whether any token exist with a given id, or not."
      },
      "getRoleAdmin(bytes32)": {
        "details": "Returns the admin role that controls `role`. See {grantRole} and {revokeRole}. To change a role's admin, use {_setRoleAdmin}."
      },
      "grantRole(bytes32,address)": {
        "details": "Grants `role` to `account`. If `account` had not been already granted `role`, emits a {RoleGranted} event. Requirements: - the caller must have ``role``'s admin role. May emit a {RoleGranted} event."
      },
      "hasRole(bytes32,address)": {
        "details": "Returns `true` if `account` has been granted `role`."
      },
      "isApprovedForAll(address,address)": {
        "details": "See {IERC1155-isApprovedForAll}."
      },
      "paused()": {
        "details": "Returns true if the contract is paused, and false otherwise."
      },
      "proxiableUUID()": {
        "details": "Implementation of the ERC1822 {proxiableUUID} function. This returns the storage slot used by the implementation. It is used to validate the implementation's compatibility when performing an upgrade. IMPORTANT: A proxy pointing at a proxiable contract should not be considered proxiable itself, because this risks bricking a proxy that upgrades to it, by delegating to itself until out of gas. Thus it is critical that this function revert if invoked through a proxy. This is guaranteed by the `notDelegated` modifier."
      },
      "renounceRole(bytes32,address)": {
        "details": "Revokes `role` from the calling account. Roles are often managed via {grantRole} and {revokeRole}: this function's purpose is to provide a mechanism for accounts to lose their privileges if they are compromised (such as when a trusted device is misplaced). If the calling account had been revoked `role`, emits a {RoleRevoked} event. Requirements: - the caller must be `account`. May emit a {RoleRevoked} event."
      },
      "revokeRole(bytes32,address)": {
        "details": "Revokes `role` from `account`. If `account` had been granted `role`, emits a {RoleRevoked} event. Requirements: - the caller must have ``role``'s admin role. May emit a {RoleRevoked} event."
      },
      "safeBatchTransferFrom(address,address,uint256[],uint256[],bytes)": {
        "details": "See {IERC1155-safeBatchTransferFrom}."
      },
      "safeTransferFrom(address,address,uint256,uint256,bytes)": {
        "details": "See {IERC1155-safeTransferFrom}."
      },
      "setApprovalForAll(address,bool)": {
        "details": "See {IERC1155-setApprovalForAll}."
      },
      "totalSupply(uint256)": {
        "details": "Total amount of tokens in with a given id."
      },
      "upgradeTo(address)": {
        "details": "Upgrade the implementation of the proxy to `newImplementation`. Calls {_authorizeUpgrade}. Emits an {Upgraded} event."
      },
      "upgradeToAndCall(address,bytes)": {
        "details": "Upgrade the implementation of the proxy to `newImplementation`, and subsequently execute the function call encoded in `data`. Calls {_authorizeUpgrade}. Emits an {Upgraded} event."
      },
      "uri(uint256)": {
        "details": "See {IERC1155MetadataURI-uri}. This implementation returns the same URI for *all* token types. It relies on the token type ID substitution mechanism https://eips.ethereum.org/EIPS/eip-1155#metadata[defined in the EIP]. Clients calling this function must replace the `\\{id\\}` substring with the actual token type ID."
      }
    },
    "version": 1
  },
  "userdoc": {
    "kind": "user",
    "methods": {},
    "version": 1
  }
}