{
  "contractName": "ItemTracker",
  "abi": [
    {
      "inputs": [],
      "stateMutability": "nonpayable",
      "type": "constructor"
    },
    {
      "anonymous": false,
      "inputs": [
        {
          "indexed": false,
          "internalType": "address",
          "name": "previousAdmin",
          "type": "address"
        },
        {
          "indexed": false,
          "internalType": "address",
          "name": "newAdmin",
          "type": "address"
        }
      ],
      "name": "AdminChanged",
      "type": "event"
    },
    {
      "anonymous": false,
      "inputs": [
        {
          "indexed": true,
          "internalType": "address",
          "name": "account",
          "type": "address"
        },
        {
          "indexed": true,
          "internalType": "address",
          "name": "operator",
          "type": "address"
        },
        {
          "indexed": false,
          "internalType": "bool",
          "name": "approved",
          "type": "bool"
        }
      ],
      "name": "ApprovalForAll",
      "type": "event"
    },
    {
      "anonymous": false,
      "inputs": [
        {
          "indexed": true,
          "internalType": "address",
          "name": "beacon",
          "type": "address"
        }
      ],
      "name": "BeaconUpgraded",
      "type": "event"
    },
    {
      "anonymous": false,
      "inputs": [
        {
          "indexed": false,
          "internalType": "uint8",
          "name": "version",
          "type": "uint8"
        }
      ],
      "name": "Initialized",
      "type": "event"
    },
    {
      "anonymous": false,
      "inputs": [
        {
          "indexed": false,
          "internalType": "address",
          "name": "account",
          "type": "address"
        }
      ],
      "name": "Paused",
      "type": "event"
    },
    {
      "anonymous": false,
      "inputs": [
        {
          "indexed": true,
          "internalType": "bytes32",
          "name": "role",
          "type": "bytes32"
        },
        {
          "indexed": true,
          "internalType": "bytes32",
          "name": "previousAdminRole",
          "type": "bytes32"
        },
        {
          "indexed": true,
          "internalType": "bytes32",
          "name": "newAdminRole",
          "type": "bytes32"
        }
      ],
      "name": "RoleAdminChanged",
      "type": "event"
    },
    {
      "anonymous": false,
      "inputs": [
        {
          "indexed": true,
          "internalType": "bytes32",
          "name": "role",
          "type": "bytes32"
        },
        {
          "indexed": true,
          "internalType": "address",
          "name": "account",
          "type": "address"
        },
        {
          "indexed": true,
          "internalType": "address",
          "name": "sender",
          "type": "address"
        }
      ],
      "name": "RoleGranted",
      "type": "event"
    },
    {
      "anonymous": false,
      "inputs": [
        {
          "indexed": true,
          "internalType": "bytes32",
          "name": "role",
          "type": "bytes32"
        },
        {
          "indexed": true,
          "internalType": "address",
          "name": "account",
          "type": "address"
        },
        {
          "indexed": true,
          "internalType": "address",
          "name": "sender",
          "type": "address"
        }
      ],
      "name": "RoleRevoked",
      "type": "event"
    },
    {
      "anonymous": false,
      "inputs": [
        {
          "indexed": true,
          "internalType": "address",
          "name": "operator",
          "type": "address"
        },
        {
          "indexed": true,
          "internalType": "address",
          "name": "from",
          "type": "address"
        },
        {
          "indexed": true,
          "internalType": "address",
          "name": "to",
          "type": "address"
        },
        {
          "indexed": false,
          "internalType": "uint256[]",
          "name": "ids",
          "type": "uint256[]"
        },
        {
          "indexed": false,
          "internalType": "uint256[]",
          "name": "values",
          "type": "uint256[]"
        }
      ],
      "name": "TransferBatch",
      "type": "event"
    },
    {
      "anonymous": false,
      "inputs": [
        {
          "indexed": true,
          "internalType": "address",
          "name": "operator",
          "type": "address"
        },
        {
          "indexed": true,
          "internalType": "address",
          "name": "from",
          "type": "address"
        },
        {
          "indexed": true,
          "internalType": "address",
          "name": "to",
          "type": "address"
        },
        {
          "indexed": false,
          "internalType": "uint256",
          "name": "id",
          "type": "uint256"
        },
        {
          "indexed": false,
          "internalType": "uint256",
          "name": "value",
          "type": "uint256"
        }
      ],
      "name": "TransferSingle",
      "type": "event"
    },
    {
      "anonymous": false,
      "inputs": [
        {
          "indexed": false,
          "internalType": "string",
          "name": "value",
          "type": "string"
        },
        {
          "indexed": true,
          "internalType": "uint256",
          "name": "id",
          "type": "uint256"
        }
      ],
      "name": "URI",
      "type": "event"
    },
    {
      "anonymous": false,
      "inputs": [
        {
          "indexed": false,
          "internalType": "address",
          "name": "account",
          "type": "address"
        }
      ],
      "name": "Unpaused",
      "type": "event"
    },
    {
      "anonymous": false,
      "inputs": [
        {
          "indexed": true,
          "internalType": "address",
          "name": "implementation",
          "type": "address"
        }
      ],
      "name": "Upgraded",
      "type": "event"
    },
    {
      "inputs": [],
      "name": "DEFAULT_ADMIN_ROLE",
      "outputs": [
        {
          "internalType": "bytes32",
          "name": "",
          "type": "bytes32"
        }
      ],
      "stateMutability": "view",
      "type": "function",
      "constant": true
    },
    {
      "inputs": [],
      "name": "MINTER_ROLE",
      "outputs": [
        {
          "internalType": "bytes32",
          "name": "",
          "type": "bytes32"
        }
      ],
      "stateMutability": "view",
      "type": "function",
      "constant": true
    },
    {
      "inputs": [],
      "name": "PAUSER_ROLE",
      "outputs": [
        {
          "internalType": "bytes32",
          "name": "",
          "type": "bytes32"
        }
      ],
      "stateMutability": "view",
      "type": "function",
      "constant": true
    },
    {
      "inputs": [],
      "name": "UPGRADER_ROLE",
      "outputs": [
        {
          "internalType": "bytes32",
          "name": "",
          "type": "bytes32"
        }
      ],
      "stateMutability": "view",
      "type": "function",
      "constant": true
    },
    {
      "inputs": [],
      "name": "URI_SETTER_ROLE",
      "outputs": [
        {
          "internalType": "bytes32",
          "name": "",
          "type": "bytes32"
        }
      ],
      "stateMutability": "view",
      "type": "function",
      "constant": true
    },
    {
      "inputs": [
        {
          "internalType": "address",
          "name": "account",
          "type": "address"
        },
        {
          "internalType": "uint256",
          "name": "id",
          "type": "uint256"
        }
      ],
      "name": "balanceOf",
      "outputs": [
        {
          "internalType": "uint256",
          "name": "",
          "type": "uint256"
        }
      ],
      "stateMutability": "view",
      "type": "function",
      "constant": true
    },
    {
      "inputs": [
        {
          "internalType": "address[]",
          "name": "accounts",
          "type": "address[]"
        },
        {
          "internalType": "uint256[]",
          "name": "ids",
          "type": "uint256[]"
        }
      ],
      "name": "balanceOfBatch",
      "outputs": [
        {
          "internalType": "uint256[]",
          "name": "",
          "type": "uint256[]"
        }
      ],
      "stateMutability": "view",
      "type": "function",
      "constant": true
    },
    {
      "inputs": [
        {
          "internalType": "address",
          "name": "account",
          "type": "address"
        },
        {
          "internalType": "uint256",
          "name": "id",
          "type": "uint256"
        },
        {
          "internalType": "uint256",
          "name": "value",
          "type": "uint256"
        }
      ],
      "name": "burn",
      "outputs": [],
      "stateMutability": "nonpayable",
      "type": "function"
    },
    {
      "inputs": [
        {
          "internalType": "address",
          "name": "account",
          "type": "address"
        },
        {
          "internalType": "uint256[]",
          "name": "ids",
          "type": "uint256[]"
        },
        {
          "internalType": "uint256[]",
          "name": "values",
          "type": "uint256[]"
        }
      ],
      "name": "burnBatch",
      "outputs": [],
      "stateMutability": "nonpayable",
      "type": "function"
    },
    {
      "inputs": [
        {
          "internalType": "uint256",
          "name": "id",
          "type": "uint256"
        }
      ],
      "name": "exists",
      "outputs": [
        {
          "internalType": "bool",
          "name": "",
          "type": "bool"
        }
      ],
      "stateMutability": "view",
      "type": "function",
      "constant": true
    },
    {
      "inputs": [
        {
          "internalType": "bytes32",
          "name": "role",
          "type": "bytes32"
        }
      ],
      "name": "getRoleAdmin",
      "outputs": [
        {
          "internalType": "bytes32",
          "name": "",
          "type": "bytes32"
        }
      ],
      "stateMutability": "view",
      "type": "function",
      "constant": true
    },
    {
      "inputs": [
        {
          "internalType": "bytes32",
          "name": "role",
          "type": "bytes32"
        },
        {
          "internalType": "address",
          "name": "account",
          "type": "address"
        }
      ],
      "name": "grantRole",
      "outputs": [],
      "stateMutability": "nonpayable",
      "type": "function"
    },
    {
      "inputs": [
        {
          "internalType": "bytes32",
          "name": "role",
          "type": "bytes32"
        },
        {
          "internalType": "address",
          "name": "account",
          "type": "address"
        }
      ],
      "name": "hasRole",
      "outputs": [
        {
          "internalType": "bool",
          "name": "",
          "type": "bool"
        }
      ],
      "stateMutability": "view",
      "type": "function",
      "constant": true
    },
    {
      "inputs": [
        {
          "internalType": "address",
          "name": "account",
          "type": "address"
        },
        {
          "internalType": "address",
          "name": "operator",
          "type": "address"
        }
      ],
      "name": "isApprovedForAll",
      "outputs": [
        {
          "internalType": "bool",
          "name": "",
          "type": "bool"
        }
      ],
      "stateMutability": "view",
      "type": "function",
      "constant": true
    },
    {
      "inputs": [],
      "name": "paused",
      "outputs": [
        {
          "internalType": "bool",
          "name": "",
          "type": "bool"
        }
      ],
      "stateMutability": "view",
      "type": "function",
      "constant": true
    },
    {
      "inputs": [],
      "name": "proxiableUUID",
      "outputs": [
        {
          "internalType": "bytes32",
          "name": "",
          "type": "bytes32"
        }
      ],
      "stateMutability": "view",
      "type": "function",
      "constant": true
    },
    {
      "inputs": [
        {
          "internalType": "bytes32",
          "name": "role",
          "type": "bytes32"
        },
        {
          "internalType": "address",
          "name": "account",
          "type": "address"
        }
      ],
      "name": "renounceRole",
      "outputs": [],
      "stateMutability": "nonpayable",
      "type": "function"
    },
    {
      "inputs": [
        {
          "internalType": "bytes32",
          "name": "role",
          "type": "bytes32"
        },
        {
          "internalType": "address",
          "name": "account",
          "type": "address"
        }
      ],
      "name": "revokeRole",
      "outputs": [],
      "stateMutability": "nonpayable",
      "type": "function"
    },
    {
      "inputs": [
        {
          "internalType": "address",
          "name": "from",
          "type": "address"
        },
        {
          "internalType": "address",
          "name": "to",
          "type": "address"
        },
        {
          "internalType": "uint256[]",
          "name": "ids",
          "type": "uint256[]"
        },
        {
          "internalType": "uint256[]",
          "name": "amounts",
          "type": "uint256[]"
        },
        {
          "internalType": "bytes",
          "name": "data",
          "type": "bytes"
        }
      ],
      "name": "safeBatchTransferFrom",
      "outputs": [],
      "stateMutability": "nonpayable",
      "type": "function"
    },
    {
      "inputs": [
        {
          "internalType": "address",
          "name": "from",
          "type": "address"
        },
        {
          "internalType": "address",
          "name": "to",
          "type": "address"
        },
        {
          "internalType": "uint256",
          "name": "id",
          "type": "uint256"
        },
        {
          "internalType": "uint256",
          "name": "amount",
          "type": "uint256"
        },
        {
          "internalType": "bytes",
          "name": "data",
          "type": "bytes"
        }
      ],
      "name": "safeTransferFrom",
      "outputs": [],
      "stateMutability": "nonpayable",
      "type": "function"
    },
    {
      "inputs": [
        {
          "internalType": "address",
          "name": "operator",
          "type": "address"
        },
        {
          "internalType": "bool",
          "name": "approved",
          "type": "bool"
        }
      ],
      "name": "setApprovalForAll",
      "outputs": [],
      "stateMutability": "nonpayable",
      "type": "function"
    },
    {
      "inputs": [
        {
          "internalType": "uint256",
          "name": "id",
          "type": "uint256"
        }
      ],
      "name": "totalSupply",
      "outputs": [
        {
          "internalType": "uint256",
          "name": "",
          "type": "uint256"
        }
      ],
      "stateMutability": "view",
      "type": "function",
      "constant": true
    },
    {
      "inputs": [
        {
          "internalType": "address",
          "name": "newImplementation",
          "type": "address"
        }
      ],
      "name": "upgradeTo",
      "outputs": [],
      "stateMutability": "nonpayable",
      "type": "function"
    },
    {
      "inputs": [
        {
          "internalType": "address",
          "name": "newImplementation",
          "type": "address"
        },
        {
          "internalType": "bytes",
          "name": "data",
          "type": "bytes"
        }
      ],
      "name": "upgradeToAndCall",
      "outputs": [],
      "stateMutability": "payable",
      "type": "function",
      "payable": true
    },
    {
      "inputs": [
        {
          "internalType": "uint256",
          "name": "",
          "type": "uint256"
        }
      ],
      "name": "uri",
      "outputs": [
        {
          "internalType": "string",
          "name": "",
          "type": "string"
        }
      ],
      "stateMutability": "view",
      "type": "function",
      "constant": true
    },
    {
      "inputs": [],
      "name": "initialize",
      "outputs": [],
      "stateMutability": "nonpayable",
      "type": "function"
    },
    {
      "inputs": [
        {
          "internalType": "string",
          "name": "newuri",
          "type": "string"
        }
      ],
      "name": "setURI",
      "outputs": [],
      "stateMutability": "nonpayable",
      "type": "function"
    },
    {
      "inputs": [],
      "name": "pause",
      "outputs": [],
      "stateMutability": "nonpayable",
      "type": "function"
    },
    {
      "inputs": [],
      "name": "unpause",
      "outputs": [],
      "stateMutability": "nonpayable",
      "type": "function"
    },
    {
      "inputs": [
        {
          "internalType": "address",
          "name": "account",
          "type": "address"
        },
        {
          "internalType": "uint256",
          "name": "id",
          "type": "uint256"
        },
        {
          "internalType": "uint256",
          "name": "amount",
          "type": "uint256"
        },
        {
          "internalType": "bytes",
          "name": "data",
          "type": "bytes"
        }
      ],
      "name": "mint",
      "outputs": [],
      "stateMutability": "nonpayable",
      "type": "function"
    },
    {
      "inputs": [
        {
          "internalType": "address",
          "name": "to",
          "type": "address"
        },
        {
          "internalType": "uint256[]",
          "name": "ids",
          "type": "uint256[]"
        },
        {
          "internalType": "uint256[]",
          "name": "amounts",
          "type": "uint256[]"
        },
        {
          "internalType": "bytes",
          "name": "data",
          "type": "bytes"
        }
      ],
      "name": "mintBatch",
      "outputs": [],
      "stateMutability": "nonpayable",
      "type": "function"
    },
    {
      "inputs": [
        {
          "internalType": "bytes4",
          "name": "interfaceId",
          "type": "bytes4"
        }
      ],
      "name": "supportsInterface",
      "outputs": [
        {
          "internalType": "bool",
          "name": "",
          "type": "bool"
        }
      ],
      "stateMutability": "view",
      "type": "function",
      "constant": true
    }
  ],
  "bytecode": "0x60a06040523073ffffffffffffffffffffffffffffffffffffffff1660809073ffffffffffffffffffffffffffffffffffffffff168152503480156200004457600080fd5b50620000556200005b60201b60201c565b62000206565b600060019054906101000a900460ff1615620000ae576040517f08c379a0000000000000000000000000000000000000000000000000000000008152600401620000a590620001a9565b60405180910390fd5b60ff801660008054906101000a900460ff1660ff161015620001205760ff6000806101000a81548160ff021916908360ff1602179055507f7f26b83ff96e1f2b6a682f133852f6798a09c465da95921460cefb384740249860ff604051620001179190620001e9565b60405180910390a15b565b600082825260208201905092915050565b7f496e697469616c697a61626c653a20636f6e747261637420697320696e69746960008201527f616c697a696e6700000000000000000000000000000000000000000000000000602082015250565b60006200019160278362000122565b91506200019e8262000133565b604082019050919050565b60006020820190508181036000830152620001c48162000182565b9050919050565b600060ff82169050919050565b620001e381620001cb565b82525050565b6000602082019050620002006000830184620001d8565b92915050565b608051615efb6200023e60003960008181610ad001528181610b5e01528181610da601528181610e340152610ef80152615efb6000f3fe6080604052600436106101e25760003560e01c80636b20c45411610102578063bd85b03911610095578063e985e9c511610064578063e985e9c5146106cc578063f242432a14610709578063f5298aca14610732578063f72c0d8b1461075b576101e2565b8063bd85b03914610610578063d53913931461064d578063d547741f14610678578063e63ab1e9146106a1576101e2565b80638456cb59116100d15780638456cb591461056857806391d148541461057f578063a217fddf146105bc578063a22cb465146105e7576101e2565b80636b20c454146104d4578063731133e9146104fd5780637f345710146105265780638129fc1c14610551576101e2565b806336568abe1161017a5780634f1ef286116101495780634f1ef286146104255780634f558e791461044157806352d1902d1461047e5780635c975abb146104a9576101e2565b806336568abe1461037f5780633659cfe6146103a85780633f4ba83a146103d15780634e1273f4146103e8576101e2565b80631f7fdffa116101b65780631f7fdffa146102c7578063248a9ca3146102f05780632eb2c2d61461032d5780632f2ff15d14610356576101e2565b8062fdd58e146101e757806301ffc9a71461022457806302fe5305146102615780630e89341c1461028a575b600080fd5b3480156101f357600080fd5b5061020e60048036038101906102099190613d18565b610786565b60405161021b9190613d67565b60405180910390f35b34801561023057600080fd5b5061024b60048036038101906102469190613dda565b61084f565b6040516102589190613e22565b60405180910390f35b34801561026d57600080fd5b5061028860048036038101906102839190613f83565b610861565b005b34801561029657600080fd5b506102b160048036038101906102ac9190613fcc565b610898565b6040516102be9190614081565b60405180910390f35b3480156102d357600080fd5b506102ee60048036038101906102e9919061420c565b61092c565b005b3480156102fc57600080fd5b50610317600480360381019061031291906142fd565b610969565b6040516103249190614339565b60405180910390f35b34801561033957600080fd5b50610354600480360381019061034f9190614354565b610989565b005b34801561036257600080fd5b5061037d60048036038101906103789190614423565b610a2a565b005b34801561038b57600080fd5b506103a660048036038101906103a19190614423565b610a4b565b005b3480156103b457600080fd5b506103cf60048036038101906103ca9190614463565b610ace565b005b3480156103dd57600080fd5b506103e6610c56565b005b3480156103f457600080fd5b5061040f600480360381019061040a9190614553565b610c8b565b60405161041c9190614689565b60405180910390f35b61043f600480360381019061043a91906146ab565b610da4565b005b34801561044d57600080fd5b5061046860048036038101906104639190613fcc565b610ee0565b6040516104759190613e22565b60405180910390f35b34801561048a57600080fd5b50610493610ef4565b6040516104a09190614339565b60405180910390f35b3480156104b557600080fd5b506104be610fad565b6040516104cb9190613e22565b60405180910390f35b3480156104e057600080fd5b506104fb60048036038101906104f69190614707565b610fc4565b005b34801561050957600080fd5b50610524600480360381019061051f9190614792565b611061565b005b34801561053257600080fd5b5061053b61109e565b6040516105489190614339565b60405180910390f35b34801561055d57600080fd5b506105666110c2565b005b34801561057457600080fd5b5061057d6112ed565b005b34801561058b57600080fd5b506105a660048036038101906105a19190614423565b611322565b6040516105b39190613e22565b60405180910390f35b3480156105c857600080fd5b506105d161138d565b6040516105de9190614339565b60405180910390f35b3480156105f357600080fd5b5061060e60048036038101906106099190614841565b611394565b005b34801561061c57600080fd5b5061063760048036038101906106329190613fcc565b6113aa565b6040516106449190613d67565b60405180910390f35b34801561065957600080fd5b506106626113c8565b60405161066f9190614339565b60405180910390f35b34801561068457600080fd5b5061069f600480360381019061069a9190614423565b6113ec565b005b3480156106ad57600080fd5b506106b661140d565b6040516106c39190614339565b60405180910390f35b3480156106d857600080fd5b506106f360048036038101906106ee9190614881565b611431565b6040516107009190613e22565b60405180910390f35b34801561071557600080fd5b50610730600480360381019061072b91906148c1565b6114c5565b005b34801561073e57600080fd5b5061075960048036038101906107549190614958565b611566565b005b34801561076757600080fd5b50610770611603565b60405161077d9190614339565b60405180910390f35b60008073ffffffffffffffffffffffffffffffffffffffff168373ffffffffffffffffffffffffffffffffffffffff16036107f6576040517f08c379a00000000000000000000000000000000000000000000000000000000081526004016107ed90614a1d565b60405180910390fd5b6065600083815260200190815260200160002060008473ffffffffffffffffffffffffffffffffffffffff1673ffffffffffffffffffffffffffffffffffffffff16815260200190815260200160002054905092915050565b600061085a82611627565b9050919050565b7f7804d923f43a17d325d77e781528e0793b2edd9890ab45fc64efd7b4b427744c61088b816116a1565b610894826116b5565b5050565b6060606780546108a790614a6c565b80601f01602080910402602001604051908101604052809291908181526020018280546108d390614a6c565b80156109205780601f106108f557610100808354040283529160200191610920565b820191906000526020600020905b81548152906001019060200180831161090357829003601f168201915b50505050509050919050565b7f9f2df0fed2c77648de5860a4cc508cd0818c85b8b8a1ab4ceeef8d981c8956a6610956816116a1565b610962858585856116cf565b5050505050565b600060976000838152602001908152602001600020600101549050919050565b6109916118fc565b73ffffffffffffffffffffffffffffffffffffffff168573ffffffffffffffffffffffffffffffffffffffff1614806109d757506109d6856109d16118fc565b611431565b5b610a16576040517f08c379a0000000000000000000000000000000000000000000000000000000008152600401610a0d90614b0f565b60405180910390fd5b610a238585858585611904565b5050505050565b610a3382610969565b610a3c816116a1565b610a468383611c28565b505050565b610a536118fc565b73ffffffffffffffffffffffffffffffffffffffff168173ffffffffffffffffffffffffffffffffffffffff1614610ac0576040517f08c379a0000000000000000000000000000000000000000000000000000000008152600401610ab790614ba1565b60405180910390fd5b610aca8282611d09565b5050565b7f000000000000000000000000000000000000000000000000000000000000000073ffffffffffffffffffffffffffffffffffffffff163073ffffffffffffffffffffffffffffffffffffffff1603610b5c576040517f08c379a0000000000000000000000000000000000000000000000000000000008152600401610b5390614c33565b60405180910390fd5b7f000000000000000000000000000000000000000000000000000000000000000073ffffffffffffffffffffffffffffffffffffffff16610b9b611deb565b73ffffffffffffffffffffffffffffffffffffffff1614610bf1576040517f08c379a0000000000000000000000000000000000000000000000000000000008152600401610be890614cc5565b60405180910390fd5b610bfa81611e42565b610c5381600067ffffffffffffffff811115610c1957610c18613e58565b5b6040519080825280601f01601f191660200182016040528015610c4b5781602001600182028036833780820191505090505b506000611e70565b50565b7f65d7a28e3265b37a6474929f336521b332c1681b933f6cb9f3376673440d862a610c80816116a1565b610c88611fde565b50565b60608151835114610cd1576040517f08c379a0000000000000000000000000000000000000000000000000000000008152600401610cc890614d57565b60405180910390fd5b6000835167ffffffffffffffff811115610cee57610ced613e58565b5b604051908082528060200260200182016040528015610d1c5781602001602082028036833780820191505090505b50905060005b8451811015610d9957610d69858281518110610d4157610d40614d77565b5b6020026020010151858381518110610d5c57610d5b614d77565b5b6020026020010151610786565b828281518110610d7c57610d7b614d77565b5b60200260200101818152505080610d9290614dd5565b9050610d22565b508091505092915050565b7f000000000000000000000000000000000000000000000000000000000000000073ffffffffffffffffffffffffffffffffffffffff163073ffffffffffffffffffffffffffffffffffffffff1603610e32576040517f08c379a0000000000000000000000000000000000000000000000000000000008152600401610e2990614c33565b60405180910390fd5b7f000000000000000000000000000000000000000000000000000000000000000073ffffffffffffffffffffffffffffffffffffffff16610e71611deb565b73ffffffffffffffffffffffffffffffffffffffff1614610ec7576040517f08c379a0000000000000000000000000000000000000000000000000000000008152600401610ebe90614cc5565b60405180910390fd5b610ed082611e42565b610edc82826001611e70565b5050565b600080610eec836113aa565b119050919050565b60007f000000000000000000000000000000000000000000000000000000000000000073ffffffffffffffffffffffffffffffffffffffff163073ffffffffffffffffffffffffffffffffffffffff1614610f84576040517f08c379a0000000000000000000000000000000000000000000000000000000008152600401610f7b90614e8f565b60405180910390fd5b7f360894a13ba1a3210667c828492db98dca3e2076cc3735a920a3ca505d382bbc60001b905090565b600060c960009054906101000a900460ff16905090565b610fcc6118fc565b73ffffffffffffffffffffffffffffffffffffffff168373ffffffffffffffffffffffffffffffffffffffff16148061101257506110118361100c6118fc565b611431565b5b611051576040517f08c379a000000000000000000000000000000000000000000000000000000000815260040161104890614b0f565b60405180910390fd5b61105c838383612041565b505050565b7f9f2df0fed2c77648de5860a4cc508cd0818c85b8b8a1ab4ceeef8d981c8956a661108b816116a1565b61109785858585612311565b5050505050565b7f7804d923f43a17d325d77e781528e0793b2edd9890ab45fc64efd7b4b427744c81565b60008060019054906101000a900460ff161590508080156110f35750600160008054906101000a900460ff1660ff16105b806111205750611102306124c2565b15801561111f5750600160008054906101000a900460ff1660ff16145b5b61115f576040517f08c379a000000000000000000000000000000000000000000000000000000000815260040161115690614f21565b60405180910390fd5b60016000806101000a81548160ff021916908360ff160217905550801561119c576001600060016101000a81548160ff0219169083151502179055505b6111b4604051806020016040528060008152506124e5565b6111bc612540565b6111c4612591565b6111cc6125ea565b6111d461263b565b6111dc61268c565b6111e96000801b33611c28565b6112137f7804d923f43a17d325d77e781528e0793b2edd9890ab45fc64efd7b4b427744c33611c28565b61123d7f65d7a28e3265b37a6474929f336521b332c1681b933f6cb9f3376673440d862a33611c28565b6112677f9f2df0fed2c77648de5860a4cc508cd0818c85b8b8a1ab4ceeef8d981c8956a633611c28565b6112917f189ab7a9244df0848122154315af71fe140f3db0fe014031783b0946b8c9d2e333611c28565b80156112ea5760008060016101000a81548160ff0219169083151502179055507f7f26b83ff96e1f2b6a682f133852f6798a09c465da95921460cefb384740249860016040516112e19190614f93565b60405180910390a15b50565b7f65d7a28e3265b37a6474929f336521b332c1681b933f6cb9f3376673440d862a611317816116a1565b61131f6126dd565b50565b60006097600084815260200190815260200160002060000160008373ffffffffffffffffffffffffffffffffffffffff1673ffffffffffffffffffffffffffffffffffffffff16815260200190815260200160002060009054906101000a900460ff16905092915050565b6000801b81565b6113a661139f6118fc565b8383612740565b5050565b600061012d6000838152602001908152602001600020549050919050565b7f9f2df0fed2c77648de5860a4cc508cd0818c85b8b8a1ab4ceeef8d981c8956a681565b6113f582610969565b6113fe816116a1565b6114088383611d09565b505050565b7f65d7a28e3265b37a6474929f336521b332c1681b933f6cb9f3376673440d862a81565b6000606660008473ffffffffffffffffffffffffffffffffffffffff1673ffffffffffffffffffffffffffffffffffffffff16815260200190815260200160002060008373ffffffffffffffffffffffffffffffffffffffff1673ffffffffffffffffffffffffffffffffffffffff16815260200190815260200160002060009054906101000a900460ff16905092915050565b6114cd6118fc565b73ffffffffffffffffffffffffffffffffffffffff168573ffffffffffffffffffffffffffffffffffffffff16148061151357506115128561150d6118fc565b611431565b5b611552576040517f08c379a000000000000000000000000000000000000000000000000000000000815260040161154990614b0f565b60405180910390fd5b61155f85858585856128ac565b5050505050565b61156e6118fc565b73ffffffffffffffffffffffffffffffffffffffff168373ffffffffffffffffffffffffffffffffffffffff1614806115b457506115b3836115ae6118fc565b611431565b5b6115f3576040517f08c379a00000000000000000000000000000000000000000000000000000000081526004016115ea90614b0f565b60405180910390fd5b6115fe838383612b4a565b505050565b7f189ab7a9244df0848122154315af71fe140f3db0fe014031783b0946b8c9d2e381565b60007f7965db0b000000000000000000000000000000000000000000000000000000007bffffffffffffffffffffffffffffffffffffffffffffffffffffffff1916827bffffffffffffffffffffffffffffffffffffffffffffffffffffffff1916148061169a575061169982612d92565b5b9050919050565b6116b2816116ad6118fc565b612e74565b50565b80606790805190602001906116cb929190613bcd565b5050565b600073ffffffffffffffffffffffffffffffffffffffff168473ffffffffffffffffffffffffffffffffffffffff160361173e576040517f08c379a000000000000000000000000000000000000000000000000000000000815260040161173590615020565b60405180910390fd5b8151835114611782576040517f08c379a0000000000000000000000000000000000000000000000000000000008152600401611779906150b2565b60405180910390fd5b600061178c6118fc565b905061179d81600087878787612f11565b60005b8451811015611857578381815181106117bc576117bb614d77565b5b6020026020010151606560008784815181106117db576117da614d77565b5b6020026020010151815260200190815260200160002060008873ffffffffffffffffffffffffffffffffffffffff1673ffffffffffffffffffffffffffffffffffffffff168152602001908152602001600020600082825461183d91906150d2565b92505081905550808061184f90614dd5565b9150506117a0565b508473ffffffffffffffffffffffffffffffffffffffff16600073ffffffffffffffffffffffffffffffffffffffff168273ffffffffffffffffffffffffffffffffffffffff167f4a39dc06d4c0dbc64b70af90fd698a233a518aa5d07e595d983b8c0526c8f7fb87876040516118cf929190615128565b60405180910390a46118e681600087878787612f2f565b6118f581600087878787612f37565b5050505050565b600033905090565b8151835114611948576040517f08c379a000000000000000000000000000000000000000000000000000000000815260040161193f906150b2565b60405180910390fd5b600073ffffffffffffffffffffffffffffffffffffffff168473ffffffffffffffffffffffffffffffffffffffff16036119b7576040517f08c379a00000000000000000000000000000000000000000000000000000000081526004016119ae906151d1565b60405180910390fd5b60006119c16118fc565b90506119d1818787878787612f11565b60005b8451811015611b855760008582815181106119f2576119f1614d77565b5b602002602001015190506000858381518110611a1157611a10614d77565b5b6020026020010151905060006065600084815260200190815260200160002060008b73ffffffffffffffffffffffffffffffffffffffff1673ffffffffffffffffffffffffffffffffffffffff16815260200190815260200160002054905081811015611ab3576040517f08c379a0000000000000000000000000000000000000000000000000000000008152600401611aaa90615263565b60405180910390fd5b8181036065600085815260200190815260200160002060008c73ffffffffffffffffffffffffffffffffffffffff1673ffffffffffffffffffffffffffffffffffffffff16815260200190815260200160002081905550816065600085815260200190815260200160002060008b73ffffffffffffffffffffffffffffffffffffffff1673ffffffffffffffffffffffffffffffffffffffff1681526020019081526020016000206000828254611b6a91906150d2565b9250508190555050505080611b7e90614dd5565b90506119d4565b508473ffffffffffffffffffffffffffffffffffffffff168673ffffffffffffffffffffffffffffffffffffffff168273ffffffffffffffffffffffffffffffffffffffff167f4a39dc06d4c0dbc64b70af90fd698a233a518aa5d07e595d983b8c0526c8f7fb8787604051611bfc929190615128565b60405180910390a4611c12818787878787612f2f565b611c20818787878787612f37565b505050505050565b611c328282611322565b611d055760016097600084815260200190815260200160002060000160008373ffffffffffffffffffffffffffffffffffffffff1673ffffffffffffffffffffffffffffffffffffffff16815260200190815260200160002060006101000a81548160ff021916908315150217905550611caa6118fc565b73ffffffffffffffffffffffffffffffffffffffff168173ffffffffffffffffffffffffffffffffffffffff16837f2f8788117e7eff1d82e926ec794901d17c78024a50270940304540a733656f0d60405160405180910390a45b5050565b611d138282611322565b15611de75760006097600084815260200190815260200160002060000160008373ffffffffffffffffffffffffffffffffffffffff1673ffffffffffffffffffffffffffffffffffffffff16815260200190815260200160002060006101000a81548160ff021916908315150217905550611d8c6118fc565b73ffffffffffffffffffffffffffffffffffffffff168173ffffffffffffffffffffffffffffffffffffffff16837ff6391f5c32d9c69d2a47ea670b442974b53935d1edc7fd64eb21e047a839171b60405160405180910390a45b5050565b6000611e197f360894a13ba1a3210667c828492db98dca3e2076cc3735a920a3ca505d382bbc60001b61310e565b60000160009054906101000a900473ffffffffffffffffffffffffffffffffffffffff16905090565b7f189ab7a9244df0848122154315af71fe140f3db0fe014031783b0946b8c9d2e3611e6c816116a1565b5050565b611e9c7f4910fdfa16fed3260ed0e7147f7cc6da11a60208b5b9406d12a635614ffd914360001b613118565b60000160009054906101000a900460ff1615611ec057611ebb83613122565b611fd9565b8273ffffffffffffffffffffffffffffffffffffffff166352d1902d6040518163ffffffff1660e01b8152600401602060405180830381865afa925050508015611f2857506040513d601f19601f82011682018060405250810190611f259190615298565b60015b611f67576040517f08c379a0000000000000000000000000000000000000000000000000000000008152600401611f5e90615337565b60405180910390fd5b7f360894a13ba1a3210667c828492db98dca3e2076cc3735a920a3ca505d382bbc60001b8114611fcc576040517f08c379a0000000000000000000000000000000000000000000000000000000008152600401611fc3906153c9565b60405180910390fd5b50611fd88383836131db565b5b505050565b611fe6613207565b600060c960006101000a81548160ff0219169083151502179055507f5db9ee0a495bf2e6ff9c91a7834c1ba4fdd244a5e8aa4e537bd38aeae4b073aa61202a6118fc565b60405161203791906153f8565b60405180910390a1565b600073ffffffffffffffffffffffffffffffffffffffff168373ffffffffffffffffffffffffffffffffffffffff16036120b0576040517f08c379a00000000000000000000000000000000000000000000000000000000081526004016120a790615485565b60405180910390fd5b80518251146120f4576040517f08c379a00000000000000000000000000000000000000000000000000000000081526004016120eb906150b2565b60405180910390fd5b60006120fe6118fc565b905061211e81856000868660405180602001604052806000815250612f11565b60005b835181101561226d57600084828151811061213f5761213e614d77565b5b60200260200101519050600084838151811061215e5761215d614d77565b5b6020026020010151905060006065600084815260200190815260200160002060008973ffffffffffffffffffffffffffffffffffffffff1673ffffffffffffffffffffffffffffffffffffffff16815260200190815260200160002054905081811015612200576040517f08c379a00000000000000000000000000000000000000000000000000000000081526004016121f790615517565b60405180910390fd5b8181036065600085815260200190815260200160002060008a73ffffffffffffffffffffffffffffffffffffffff1673ffffffffffffffffffffffffffffffffffffffff16815260200190815260200160002081905550505050808061226590614dd5565b915050612121565b50600073ffffffffffffffffffffffffffffffffffffffff168473ffffffffffffffffffffffffffffffffffffffff168273ffffffffffffffffffffffffffffffffffffffff167f4a39dc06d4c0dbc64b70af90fd698a233a518aa5d07e595d983b8c0526c8f7fb86866040516122e5929190615128565b60405180910390a461230b81856000868660405180602001604052806000815250612f2f565b50505050565b600073ffffffffffffffffffffffffffffffffffffffff168473ffffffffffffffffffffffffffffffffffffffff1603612380576040517f08c379a000000000000000000000000000000000000000000000000000000000815260040161237790615020565b60405180910390fd5b600061238a6118fc565b9050600061239785613250565b905060006123a485613250565b90506123b583600089858589612f11565b846065600088815260200190815260200160002060008973ffffffffffffffffffffffffffffffffffffffff1673ffffffffffffffffffffffffffffffffffffffff168152602001908152602001600020600082825461241591906150d2565b925050819055508673ffffffffffffffffffffffffffffffffffffffff16600073ffffffffffffffffffffffffffffffffffffffff168473ffffffffffffffffffffffffffffffffffffffff167fc3d58168c5ae7397731d063d5bbf3d657854427343f4c083240f7aacaa2d0f628989604051612493929190615537565b60405180910390a46124aa83600089858589612f2f565b6124b9836000898989896132ca565b50505050505050565b6000808273ffffffffffffffffffffffffffffffffffffffff163b119050919050565b600060019054906101000a900460ff16612534576040517f08c379a000000000000000000000000000000000000000000000000000000000815260040161252b906155d2565b60405180910390fd5b61253d816134a1565b50565b600060019054906101000a900460ff1661258f576040517f08c379a0000000000000000000000000000000000000000000000000000000008152600401612586906155d2565b60405180910390fd5b565b600060019054906101000a900460ff166125e0576040517f08c379a00000000000000000000000000000000000000000000000000000000081526004016125d7906155d2565b60405180910390fd5b6125e86134fc565b565b600060019054906101000a900460ff16612639576040517f08c379a0000000000000000000000000000000000000000000000000000000008152600401612630906155d2565b60405180910390fd5b565b600060019054906101000a900460ff1661268a576040517f08c379a0000000000000000000000000000000000000000000000000000000008152600401612681906155d2565b60405180910390fd5b565b600060019054906101000a900460ff166126db576040517f08c379a00000000000000000000000000000000000000000000000000000000081526004016126d2906155d2565b60405180910390fd5b565b6126e5613568565b600160c960006101000a81548160ff0219169083151502179055507f62e78cea01bee320cd4e420270b5ea74000d11b0c9f74754ebdbfc544b05a2586127296118fc565b60405161273691906153f8565b60405180910390a1565b8173ffffffffffffffffffffffffffffffffffffffff168373ffffffffffffffffffffffffffffffffffffffff16036127ae576040517f08c379a00000000000000000000000000000000000000000000000000000000081526004016127a590615664565b60405180910390fd5b80606660008573ffffffffffffffffffffffffffffffffffffffff1673ffffffffffffffffffffffffffffffffffffffff16815260200190815260200160002060008473ffffffffffffffffffffffffffffffffffffffff1673ffffffffffffffffffffffffffffffffffffffff16815260200190815260200160002060006101000a81548160ff0219169083151502179055508173ffffffffffffffffffffffffffffffffffffffff168373ffffffffffffffffffffffffffffffffffffffff167f17307eab39ab6107e8899845ad3d59bd9653f200f220920489ca2b5937696c318360405161289f9190613e22565b60405180910390a3505050565b600073ffffffffffffffffffffffffffffffffffffffff168473ffffffffffffffffffffffffffffffffffffffff160361291b576040517f08c379a0000000000000000000000000000000000000000000000000000000008152600401612912906151d1565b60405180910390fd5b60006129256118fc565b9050600061293285613250565b9050600061293f85613250565b905061294f838989858589612f11565b60006065600088815260200190815260200160002060008a73ffffffffffffffffffffffffffffffffffffffff1673ffffffffffffffffffffffffffffffffffffffff168152602001908152602001600020549050858110156129e7576040517f08c379a00000000000000000000000000000000000000000000000000000000081526004016129de90615263565b60405180910390fd5b8581036065600089815260200190815260200160002060008b73ffffffffffffffffffffffffffffffffffffffff1673ffffffffffffffffffffffffffffffffffffffff16815260200190815260200160002081905550856065600089815260200190815260200160002060008a73ffffffffffffffffffffffffffffffffffffffff1673ffffffffffffffffffffffffffffffffffffffff1681526020019081526020016000206000828254612a9e91906150d2565b925050819055508773ffffffffffffffffffffffffffffffffffffffff168973ffffffffffffffffffffffffffffffffffffffff168573ffffffffffffffffffffffffffffffffffffffff167fc3d58168c5ae7397731d063d5bbf3d657854427343f4c083240f7aacaa2d0f628a8a604051612b1b929190615537565b60405180910390a4612b31848a8a86868a612f2f565b612b3f848a8a8a8a8a6132ca565b505050505050505050565b600073ffffffffffffffffffffffffffffffffffffffff168373ffffffffffffffffffffffffffffffffffffffff1603612bb9576040517f08c379a0000000000000000000000000000000000000000000000000000000008152600401612bb090615485565b60405180910390fd5b6000612bc36118fc565b90506000612bd084613250565b90506000612bdd84613250565b9050612bfd83876000858560405180602001604052806000815250612f11565b60006065600087815260200190815260200160002060008873ffffffffffffffffffffffffffffffffffffffff1673ffffffffffffffffffffffffffffffffffffffff16815260200190815260200160002054905084811015612c95576040517f08c379a0000000000000000000000000000000000000000000000000000000008152600401612c8c90615517565b60405180910390fd5b8481036065600088815260200190815260200160002060008973ffffffffffffffffffffffffffffffffffffffff1673ffffffffffffffffffffffffffffffffffffffff16815260200190815260200160002081905550600073ffffffffffffffffffffffffffffffffffffffff168773ffffffffffffffffffffffffffffffffffffffff168573ffffffffffffffffffffffffffffffffffffffff167fc3d58168c5ae7397731d063d5bbf3d657854427343f4c083240f7aacaa2d0f628989604051612d63929190615537565b60405180910390a4612d8984886000868660405180602001604052806000815250612f2f565b50505050505050565b60007fd9b67a26000000000000000000000000000000000000000000000000000000007bffffffffffffffffffffffffffffffffffffffffffffffffffffffff1916827bffffffffffffffffffffffffffffffffffffffffffffffffffffffff19161480612e5d57507f0e89341c000000000000000000000000000000000000000000000000000000007bffffffffffffffffffffffffffffffffffffffffffffffffffffffff1916827bffffffffffffffffffffffffffffffffffffffffffffffffffffffff1916145b80612e6d5750612e6c826135b2565b5b9050919050565b612e7e8282611322565b612f0d57612ea38173ffffffffffffffffffffffffffffffffffffffff16601461361c565b612eb18360001c602061361c565b604051602001612ec2929190615758565b6040516020818303038152906040526040517f08c379a0000000000000000000000000000000000000000000000000000000008152600401612f049190614081565b60405180910390fd5b5050565b612f19613568565b612f27868686868686613858565b505050505050565b505050505050565b612f568473ffffffffffffffffffffffffffffffffffffffff166124c2565b15613106578373ffffffffffffffffffffffffffffffffffffffff1663bc197c8187878686866040518663ffffffff1660e01b8152600401612f9c9594939291906157e7565b6020604051808303816000875af1925050508015612fd857506040513d601f19601f82011682018060405250810190612fd59190615864565b60015b61307d57612fe461589e565b806308c379a0036130405750612ff86158c0565b806130035750613042565b806040517f08c379a00000000000000000000000000000000000000000000000000000000081526004016130379190614081565b60405180910390fd5b505b6040517f08c379a0000000000000000000000000000000000000000000000000000000008152600401613074906159c2565b60405180910390fd5b63bc197c8160e01b7bffffffffffffffffffffffffffffffffffffffffffffffffffffffff1916817bffffffffffffffffffffffffffffffffffffffffffffffffffffffff191614613104576040517f08c379a00000000000000000000000000000000000000000000000000000000081526004016130fb90615a54565b60405180910390fd5b505b505050505050565b6000819050919050565b6000819050919050565b61312b816124c2565b61316a576040517f08c379a000000000000000000000000000000000000000000000000000000000815260040161316190615ae6565b60405180910390fd5b806131977f360894a13ba1a3210667c828492db98dca3e2076cc3735a920a3ca505d382bbc60001b61310e565b60000160006101000a81548173ffffffffffffffffffffffffffffffffffffffff021916908373ffffffffffffffffffffffffffffffffffffffff16021790555050565b6131e483613a2b565b6000825111806131f15750805b15613202576132008383613a7a565b505b505050565b61320f610fad565b61324e576040517f08c379a000000000000000000000000000000000000000000000000000000000815260040161324590615b52565b60405180910390fd5b565b60606000600167ffffffffffffffff81111561326f5761326e613e58565b5b60405190808252806020026020018201604052801561329d5781602001602082028036833780820191505090505b50905082816000815181106132b5576132b4614d77565b5b60200260200101818152505080915050919050565b6132e98473ffffffffffffffffffffffffffffffffffffffff166124c2565b15613499578373ffffffffffffffffffffffffffffffffffffffff1663f23a6e6187878686866040518663ffffffff1660e01b815260040161332f959493929190615b72565b6020604051808303816000875af192505050801561336b57506040513d601f19601f820116820180604052508101906133689190615864565b60015b6134105761337761589e565b806308c379a0036133d3575061338b6158c0565b8061339657506133d5565b806040517f08c379a00000000000000000000000000000000000000000000000000000000081526004016133ca9190614081565b60405180910390fd5b505b6040517f08c379a0000000000000000000000000000000000000000000000000000000008152600401613407906159c2565b60405180910390fd5b63f23a6e6160e01b7bffffffffffffffffffffffffffffffffffffffffffffffffffffffff1916817bffffffffffffffffffffffffffffffffffffffffffffffffffffffff191614613497576040517f08c379a000000000000000000000000000000000000000000000000000000000815260040161348e90615a54565b60405180910390fd5b505b505050505050565b600060019054906101000a900460ff166134f0576040517f08c379a00000000000000000000000000000000000000000000000000000000081526004016134e7906155d2565b60405180910390fd5b6134f9816116b5565b50565b600060019054906101000a900460ff1661354b576040517f08c379a0000000000000000000000000000000000000000000000000000000008152600401613542906155d2565b60405180910390fd5b600060c960006101000a81548160ff021916908315150217905550565b613570610fad565b156135b0576040517f08c379a00000000000000000000000000000000000000000000000000000000081526004016135a790615c18565b60405180910390fd5b565b60007f01ffc9a7000000000000000000000000000000000000000000000000000000007bffffffffffffffffffffffffffffffffffffffffffffffffffffffff1916827bffffffffffffffffffffffffffffffffffffffffffffffffffffffff1916149050919050565b60606000600283600261362f9190615c38565b61363991906150d2565b67ffffffffffffffff81111561365257613651613e58565b5b6040519080825280601f01601f1916602001820160405280156136845781602001600182028036833780820191505090505b5090507f3000000000000000000000000000000000000000000000000000000000000000816000815181106136bc576136bb614d77565b5b60200101907effffffffffffffffffffffffffffffffffffffffffffffffffffffffffffff1916908160001a9053507f7800000000000000000000000000000000000000000000000000000000000000816001815181106137205761371f614d77565b5b60200101907effffffffffffffffffffffffffffffffffffffffffffffffffffffffffffff1916908160001a905350600060018460026137609190615c38565b61376a91906150d2565b90505b600181111561380a577f3031323334353637383961626364656600000000000000000000000000000000600f8616601081106137ac576137ab614d77565b5b1a60f81b8282815181106137c3576137c2614d77565b5b60200101907effffffffffffffffffffffffffffffffffffffffffffffffffffffffffffff1916908160001a905350600485901c94508061380390615c92565b905061376d565b506000841461384e576040517f08c379a000000000000000000000000000000000000000000000000000000000815260040161384590615d07565b60405180910390fd5b8091505092915050565b613866868686868686613b5e565b600073ffffffffffffffffffffffffffffffffffffffff168573ffffffffffffffffffffffffffffffffffffffff16036139185760005b8351811015613916578281815181106138b9576138b8614d77565b5b602002602001015161012d60008684815181106138d9576138d8614d77565b5b6020026020010151815260200190815260200160002060008282546138fe91906150d2565b925050819055508061390f90614dd5565b905061389d565b505b600073ffffffffffffffffffffffffffffffffffffffff168473ffffffffffffffffffffffffffffffffffffffff1603613a235760005b8351811015613a2157600084828151811061396d5761396c614d77565b5b60200260200101519050600084838151811061398c5761398b614d77565b5b60200260200101519050600061012d6000848152602001908152602001600020549050818110156139f2576040517f08c379a00000000000000000000000000000000000000000000000000000000081526004016139e990615d99565b60405180910390fd5b81810361012d60008581526020019081526020016000208190555050505080613a1a90614dd5565b905061394f565b505b505050505050565b613a3481613122565b8073ffffffffffffffffffffffffffffffffffffffff167fbc7cd75a20ee27fd9adebab32041f755214dbc6bffa90cc0225b39da2e5c2d3b60405160405180910390a250565b6060613a85836124c2565b613ac4576040517f08c379a0000000000000000000000000000000000000000000000000000000008152600401613abb90615e2b565b60405180910390fd5b6000808473ffffffffffffffffffffffffffffffffffffffff1684604051613aec9190615e87565b600060405180830381855af49150503d8060008114613b27576040519150601f19603f3d011682016040523d82523d6000602084013e613b2c565b606091505b5091509150613b548282604051806060016040528060278152602001615e9f60279139613b66565b9250505092915050565b505050505050565b60608315613b7657829050613bc6565b600083511115613b895782518084602001fd5b816040517f08c379a0000000000000000000000000000000000000000000000000000000008152600401613bbd9190614081565b60405180910390fd5b9392505050565b828054613bd990614a6c565b90600052602060002090601f016020900481019282613bfb5760008555613c42565b82601f10613c1457805160ff1916838001178555613c42565b82800160010185558215613c42579182015b82811115613c41578251825591602001919060010190613c26565b5b509050613c4f9190613c53565b5090565b5b80821115613c6c576000816000905550600101613c54565b5090565b6000604051905090565b600080fd5b600080fd5b600073ffffffffffffffffffffffffffffffffffffffff82169050919050565b6000613caf82613c84565b9050919050565b613cbf81613ca4565b8114613cca57600080fd5b50565b600081359050613cdc81613cb6565b92915050565b6000819050919050565b613cf581613ce2565b8114613d0057600080fd5b50565b600081359050613d1281613cec565b92915050565b60008060408385031215613d2f57613d2e613c7a565b5b6000613d3d85828601613ccd565b9250506020613d4e85828601613d03565b9150509250929050565b613d6181613ce2565b82525050565b6000602082019050613d7c6000830184613d58565b92915050565b60007fffffffff0000000000000000000000000000000000000000000000000000000082169050919050565b613db781613d82565b8114613dc257600080fd5b50565b600081359050613dd481613dae565b92915050565b600060208284031215613df057613def613c7a565b5b6000613dfe84828501613dc5565b91505092915050565b60008115159050919050565b613e1c81613e07565b82525050565b6000602082019050613e376000830184613e13565b92915050565b600080fd5b600080fd5b6000601f19601f8301169050919050565b7f4e487b7100000000000000000000000000000000000000000000000000000000600052604160045260246000fd5b613e9082613e47565b810181811067ffffffffffffffff82111715613eaf57613eae613e58565b5b80604052505050565b6000613ec2613c70565b9050613ece8282613e87565b919050565b600067ffffffffffffffff821115613eee57613eed613e58565b5b613ef782613e47565b9050602081019050919050565b82818337600083830152505050565b6000613f26613f2184613ed3565b613eb8565b905082815260208101848484011115613f4257613f41613e42565b5b613f4d848285613f04565b509392505050565b600082601f830112613f6a57613f69613e3d565b5b8135613f7a848260208601613f13565b91505092915050565b600060208284031215613f9957613f98613c7a565b5b600082013567ffffffffffffffff811115613fb757613fb6613c7f565b5b613fc384828501613f55565b91505092915050565b600060208284031215613fe257613fe1613c7a565b5b6000613ff084828501613d03565b91505092915050565b600081519050919050565b600082825260208201905092915050565b60005b83811015614033578082015181840152602081019050614018565b83811115614042576000848401525b50505050565b600061405382613ff9565b61405d8185614004565b935061406d818560208601614015565b61407681613e47565b840191505092915050565b6000602082019050818103600083015261409b8184614048565b905092915050565b600067ffffffffffffffff8211156140be576140bd613e58565b5b602082029050602081019050919050565b600080fd5b60006140e76140e2846140a3565b613eb8565b9050808382526020820190506020840283018581111561410a576141096140cf565b5b835b81811015614133578061411f8882613d03565b84526020840193505060208101905061410c565b5050509392505050565b600082601f83011261415257614151613e3d565b5b81356141628482602086016140d4565b91505092915050565b600067ffffffffffffffff82111561418657614185613e58565b5b61418f82613e47565b9050602081019050919050565b60006141af6141aa8461416b565b613eb8565b9050828152602081018484840111156141cb576141ca613e42565b5b6141d6848285613f04565b509392505050565b600082601f8301126141f3576141f2613e3d565b5b813561420384826020860161419c565b91505092915050565b6000806000806080858703121561422657614225613c7a565b5b600061423487828801613ccd565b945050602085013567ffffffffffffffff81111561425557614254613c7f565b5b6142618782880161413d565b935050604085013567ffffffffffffffff81111561428257614281613c7f565b5b61428e8782880161413d565b925050606085013567ffffffffffffffff8111156142af576142ae613c7f565b5b6142bb878288016141de565b91505092959194509250565b6000819050919050565b6142da816142c7565b81146142e557600080fd5b50565b6000813590506142f7816142d1565b92915050565b60006020828403121561431357614312613c7a565b5b6000614321848285016142e8565b91505092915050565b614333816142c7565b82525050565b600060208201905061434e600083018461432a565b92915050565b600080600080600060a086880312156143705761436f613c7a565b5b600061437e88828901613ccd565b955050602061438f88828901613ccd565b945050604086013567ffffffffffffffff8111156143b0576143af613c7f565b5b6143bc8882890161413d565b935050606086013567ffffffffffffffff8111156143dd576143dc613c7f565b5b6143e98882890161413d565b925050608086013567ffffffffffffffff81111561440a57614409613c7f565b5b614416888289016141de565b9150509295509295909350565b6000806040838503121561443a57614439613c7a565b5b6000614448858286016142e8565b925050602061445985828601613ccd565b9150509250929050565b60006020828403121561447957614478613c7a565b5b600061448784828501613ccd565b91505092915050565b600067ffffffffffffffff8211156144ab576144aa613e58565b5b602082029050602081019050919050565b60006144cf6144ca84614490565b613eb8565b905080838252602082019050602084028301858111156144f2576144f16140cf565b5b835b8181101561451b57806145078882613ccd565b8452602084019350506020810190506144f4565b5050509392505050565b600082601f83011261453a57614539613e3d565b5b813561454a8482602086016144bc565b91505092915050565b6000806040838503121561456a57614569613c7a565b5b600083013567ffffffffffffffff81111561458857614587613c7f565b5b61459485828601614525565b925050602083013567ffffffffffffffff8111156145b5576145b4613c7f565b5b6145c18582860161413d565b9150509250929050565b600081519050919050565b600082825260208201905092915050565b6000819050602082019050919050565b61460081613ce2565b82525050565b600061461283836145f7565b60208301905092915050565b6000602082019050919050565b6000614636826145cb565b61464081856145d6565b935061464b836145e7565b8060005b8381101561467c5781516146638882614606565b975061466e8361461e565b92505060018101905061464f565b5085935050505092915050565b600060208201905081810360008301526146a3818461462b565b905092915050565b600080604083850312156146c2576146c1613c7a565b5b60006146d085828601613ccd565b925050602083013567ffffffffffffffff8111156146f1576146f0613c7f565b5b6146fd858286016141de565b9150509250929050565b6000806000606084860312156147205761471f613c7a565b5b600061472e86828701613ccd565b935050602084013567ffffffffffffffff81111561474f5761474e613c7f565b5b61475b8682870161413d565b925050604084013567ffffffffffffffff81111561477c5761477b613c7f565b5b6147888682870161413d565b9150509250925092565b600080600080608085870312156147ac576147ab613c7a565b5b60006147ba87828801613ccd565b94505060206147cb87828801613d03565b93505060406147dc87828801613d03565b925050606085013567ffffffffffffffff8111156147fd576147fc613c7f565b5b614809878288016141de565b91505092959194509250565b61481e81613e07565b811461482957600080fd5b50565b60008135905061483b81614815565b92915050565b6000806040838503121561485857614857613c7a565b5b600061486685828601613ccd565b92505060206148778582860161482c565b9150509250929050565b6000806040838503121561489857614897613c7a565b5b60006148a685828601613ccd565b92505060206148b785828601613ccd565b9150509250929050565b600080600080600060a086880312156148dd576148dc613c7a565b5b60006148eb88828901613ccd565b95505060206148fc88828901613ccd565b945050604061490d88828901613d03565b935050606061491e88828901613d03565b925050608086013567ffffffffffffffff81111561493f5761493e613c7f565b5b61494b888289016141de565b9150509295509295909350565b60008060006060848603121561497157614970613c7a565b5b600061497f86828701613ccd565b935050602061499086828701613d03565b92505060406149a186828701613d03565b9150509250925092565b7f455243313135353a2061646472657373207a65726f206973206e6f742061207660008201527f616c6964206f776e657200000000000000000000000000000000000000000000602082015250565b6000614a07602a83614004565b9150614a12826149ab565b604082019050919050565b60006020820190508181036000830152614a36816149fa565b9050919050565b7f4e487b7100000000000000000000000000000000000000000000000000000000600052602260045260246000fd5b60006002820490506001821680614a8457607f821691505b602082108103614a9757614a96614a3d565b5b50919050565b7f455243313135353a2063616c6c6572206973206e6f7420746f6b656e206f776e60008201527f6572206e6f7220617070726f7665640000000000000000000000000000000000602082015250565b6000614af9602f83614004565b9150614b0482614a9d565b604082019050919050565b60006020820190508181036000830152614b2881614aec565b9050919050565b7f416363657373436f6e74726f6c3a2063616e206f6e6c792072656e6f756e636560008201527f20726f6c657320666f722073656c660000000000000000000000000000000000602082015250565b6000614b8b602f83614004565b9150614b9682614b2f565b604082019050919050565b60006020820190508181036000830152614bba81614b7e565b9050919050565b7f46756e6374696f6e206d7573742062652063616c6c6564207468726f7567682060008201527f64656c656761746563616c6c0000000000000000000000000000000000000000602082015250565b6000614c1d602c83614004565b9150614c2882614bc1565b604082019050919050565b60006020820190508181036000830152614c4c81614c10565b9050919050565b7f46756e6374696f6e206d7573742062652063616c6c6564207468726f7567682060008201527f6163746976652070726f78790000000000000000000000000000000000000000602082015250565b6000614caf602c83614004565b9150614cba82614c53565b604082019050919050565b60006020820190508181036000830152614cde81614ca2565b9050919050565b7f455243313135353a206163636f756e747320616e6420696473206c656e67746860008201527f206d69736d617463680000000000000000000000000000000000000000000000602082015250565b6000614d41602983614004565b9150614d4c82614ce5565b604082019050919050565b60006020820190508181036000830152614d7081614d34565b9050919050565b7f4e487b7100000000000000000000000000000000000000000000000000000000600052603260045260246000fd5b7f4e487b7100000000000000000000000000000000000000000000000000000000600052601160045260246000fd5b6000614de082613ce2565b91507fffffffffffffffffffffffffffffffffffffffffffffffffffffffffffffffff8203614e1257614e11614da6565b5b600182019050919050565b7f555550535570677261646561626c653a206d757374206e6f742062652063616c60008201527f6c6564207468726f7567682064656c656761746563616c6c0000000000000000602082015250565b6000614e79603883614004565b9150614e8482614e1d565b604082019050919050565b60006020820190508181036000830152614ea881614e6c565b9050919050565b7f496e697469616c697a61626c653a20636f6e747261637420697320616c72656160008201527f647920696e697469616c697a6564000000000000000000000000000000000000602082015250565b6000614f0b602e83614004565b9150614f1682614eaf565b604082019050919050565b60006020820190508181036000830152614f3a81614efe565b9050919050565b6000819050919050565b600060ff82169050919050565b6000819050919050565b6000614f7d614f78614f7384614f41565b614f58565b614f4b565b9050919050565b614f8d81614f62565b82525050565b6000602082019050614fa86000830184614f84565b92915050565b7f455243313135353a206d696e7420746f20746865207a65726f2061646472657360008201527f7300000000000000000000000000000000000000000000000000000000000000602082015250565b600061500a602183614004565b915061501582614fae565b604082019050919050565b6000602082019050818103600083015261503981614ffd565b9050919050565b7f455243313135353a2069647320616e6420616d6f756e7473206c656e6774682060008201527f6d69736d61746368000000000000000000000000000000000000000000000000602082015250565b600061509c602883614004565b91506150a782615040565b604082019050919050565b600060208201905081810360008301526150cb8161508f565b9050919050565b60006150dd82613ce2565b91506150e883613ce2565b9250827fffffffffffffffffffffffffffffffffffffffffffffffffffffffffffffffff0382111561511d5761511c614da6565b5b828201905092915050565b60006040820190508181036000830152615142818561462b565b90508181036020830152615156818461462b565b90509392505050565b7f455243313135353a207472616e7366657220746f20746865207a65726f20616460008201527f6472657373000000000000000000000000000000000000000000000000000000602082015250565b60006151bb602583614004565b91506151c68261515f565b604082019050919050565b600060208201905081810360008301526151ea816151ae565b9050919050565b7f455243313135353a20696e73756666696369656e742062616c616e636520666f60008201527f72207472616e7366657200000000000000000000000000000000000000000000602082015250565b600061524d602a83614004565b9150615258826151f1565b604082019050919050565b6000602082019050818103600083015261527c81615240565b9050919050565b600081519050615292816142d1565b92915050565b6000602082840312156152ae576152ad613c7a565b5b60006152bc84828501615283565b91505092915050565b7f45524331393637557067726164653a206e657720696d706c656d656e7461746960008201527f6f6e206973206e6f742055555053000000000000000000000000000000000000602082015250565b6000615321602e83614004565b915061532c826152c5565b604082019050919050565b6000602082019050818103600083015261535081615314565b9050919050565b7f45524331393637557067726164653a20756e737570706f727465642070726f7860008201527f6961626c65555549440000000000000000000000000000000000000000000000602082015250565b60006153b3602983614004565b91506153be82615357565b604082019050919050565b600060208201905081810360008301526153e2816153a6565b9050919050565b6153f281613ca4565b82525050565b600060208201905061540d60008301846153e9565b92915050565b7f455243313135353a206275726e2066726f6d20746865207a65726f206164647260008201527f6573730000000000000000000000000000000000000000000000000000000000602082015250565b600061546f602383614004565b915061547a82615413565b604082019050919050565b6000602082019050818103600083015261549e81615462565b9050919050565b7f455243313135353a206275726e20616d6f756e7420657863656564732062616c60008201527f616e636500000000000000000000000000000000000000000000000000000000602082015250565b6000615501602483614004565b915061550c826154a5565b604082019050919050565b60006020820190508181036000830152615530816154f4565b9050919050565b600060408201905061554c6000830185613d58565b6155596020830184613d58565b9392505050565b7f496e697469616c697a61626c653a20636f6e7472616374206973206e6f74206960008201527f6e697469616c697a696e67000000000000000000000000000000000000000000602082015250565b60006155bc602b83614004565b91506155c782615560565b604082019050919050565b600060208201905081810360008301526155eb816155af565b9050919050565b7f455243313135353a2073657474696e6720617070726f76616c2073746174757360008201527f20666f722073656c660000000000000000000000000000000000000000000000602082015250565b600061564e602983614004565b9150615659826155f2565b604082019050919050565b6000602082019050818103600083015261567d81615641565b9050919050565b600081905092915050565b7f416363657373436f6e74726f6c3a206163636f756e7420000000000000000000600082015250565b60006156c5601783615684565b91506156d08261568f565b601782019050919050565b60006156e682613ff9565b6156f08185615684565b9350615700818560208601614015565b80840191505092915050565b7f206973206d697373696e6720726f6c6520000000000000000000000000000000600082015250565b6000615742601183615684565b915061574d8261570c565b601182019050919050565b6000615763826156b8565b915061576f82856156db565b915061577a82615735565b915061578682846156db565b91508190509392505050565b600081519050919050565b600082825260208201905092915050565b60006157b982615792565b6157c3818561579d565b93506157d3818560208601614015565b6157dc81613e47565b840191505092915050565b600060a0820190506157fc60008301886153e9565b61580960208301876153e9565b818103604083015261581b818661462b565b9050818103606083015261582f818561462b565b9050818103608083015261584381846157ae565b90509695505050505050565b60008151905061585e81613dae565b92915050565b60006020828403121561587a57615879613c7a565b5b60006158888482850161584f565b91505092915050565b60008160e01c9050919050565b600060033d11156158bd5760046000803e6158ba600051615891565b90505b90565b600060443d1061594d576158d2613c70565b60043d036004823e80513d602482011167ffffffffffffffff821117156158fa57505061594d565b808201805167ffffffffffffffff811115615918575050505061594d565b80602083010160043d03850181111561593557505050505061594d565b61594482602001850186613e87565b82955050505050505b90565b7f455243313135353a207472616e7366657220746f206e6f6e204552433131353560008201527f526563656976657220696d706c656d656e746572000000000000000000000000602082015250565b60006159ac603483614004565b91506159b782615950565b604082019050919050565b600060208201905081810360008301526159db8161599f565b9050919050565b7f455243313135353a204552433131353552656365697665722072656a6563746560008201527f6420746f6b656e73000000000000000000000000000000000000000000000000602082015250565b6000615a3e602883614004565b9150615a49826159e2565b604082019050919050565b60006020820190508181036000830152615a6d81615a31565b9050919050565b7f455243313936373a206e657720696d706c656d656e746174696f6e206973206e60008201527f6f74206120636f6e747261637400000000000000000000000000000000000000602082015250565b6000615ad0602d83614004565b9150615adb82615a74565b604082019050919050565b60006020820190508181036000830152615aff81615ac3565b9050919050565b7f5061757361626c653a206e6f7420706175736564000000000000000000000000600082015250565b6000615b3c601483614004565b9150615b4782615b06565b602082019050919050565b60006020820190508181036000830152615b6b81615b2f565b9050919050565b600060a082019050615b8760008301886153e9565b615b9460208301876153e9565b615ba16040830186613d58565b615bae6060830185613d58565b8181036080830152615bc081846157ae565b90509695505050505050565b7f5061757361626c653a2070617573656400000000000000000000000000000000600082015250565b6000615c02601083614004565b9150615c0d82615bcc565b602082019050919050565b60006020820190508181036000830152615c3181615bf5565b9050919050565b6000615c4382613ce2565b9150615c4e83613ce2565b9250817fffffffffffffffffffffffffffffffffffffffffffffffffffffffffffffffff0483118215151615615c8757615c86614da6565b5b828202905092915050565b6000615c9d82613ce2565b915060008203615cb057615caf614da6565b5b600182039050919050565b7f537472696e67733a20686578206c656e67746820696e73756666696369656e74600082015250565b6000615cf1602083614004565b9150615cfc82615cbb565b602082019050919050565b60006020820190508181036000830152615d2081615ce4565b9050919050565b7f455243313135353a206275726e20616d6f756e74206578636565647320746f7460008201527f616c537570706c79000000000000000000000000000000000000000000000000602082015250565b6000615d83602883614004565b9150615d8e82615d27565b604082019050919050565b60006020820190508181036000830152615db281615d76565b9050919050565b7f416464726573733a2064656c65676174652063616c6c20746f206e6f6e2d636f60008201527f6e74726163740000000000000000000000000000000000000000000000000000602082015250565b6000615e15602683614004565b9150615e2082615db9565b604082019050919050565b60006020820190508181036000830152615e4481615e08565b9050919050565b600081905092915050565b6000615e6182615792565b615e6b8185615e4b565b9350615e7b818560208601614015565b80840191505092915050565b6000615e938284615e56565b91508190509291505056fe416464726573733a206c6f772d6c6576656c2064656c65676174652063616c6c206661696c6564a2646970667358221220252f2af1d39e5e19d782625b89c58237cbf4c1e7084630dd90a9c33d84b24ff064736f6c634300080e0033",
  "immutableReferences": {
    "983": [
      {
        "length": 32,
        "start": 2768
      },
      {
        "length": 32,
        "start": 2910
      },
      {
        "length": 32,
        "start": 3494
      },
      {
        "length": 32,
        "start": 3636
      },
      {
        "length": 32,
        "start": 3832
      }
    ]
  },
  "source": "// SPDX-License-Identifier: MIT\r\npragma solidity ^0.8.4;\r\n\r\nimport \"@openzeppelin/contracts-upgradeable/token/ERC1155/ERC1155Upgradeable.sol\";\r\nimport \"@openzeppelin/contracts-upgradeable/access/AccessControlUpgradeable.sol\";\r\nimport \"@openzeppelin/contracts-upgradeable/security/PausableUpgradeable.sol\";\r\nimport \"@openzeppelin/contracts-upgradeable/token/ERC1155/extensions/ERC1155BurnableUpgradeable.sol\";\r\nimport \"@openzeppelin/contracts-upgradeable/token/ERC1155/extensions/ERC1155SupplyUpgradeable.sol\";\r\nimport \"@openzeppelin/contracts-upgradeable/proxy/utils/Initializable.sol\";\r\nimport \"@openzeppelin/contracts-upgradeable/proxy/utils/UUPSUpgradeable.sol\";\r\n\r\n\r\n\r\ncontract ItemTracker is Initializable, ERC1155Upgradeable, AccessControlUpgradeable, PausableUpgradeable, ERC1155BurnableUpgradeable, ERC1155SupplyUpgradeable, UUPSUpgradeable {\r\n    bytes32 public constant URI_SETTER_ROLE = keccak256(\"URI_SETTER_ROLE\");\r\n    bytes32 public constant PAUSER_ROLE = keccak256(\"PAUSER_ROLE\");\r\n    bytes32 public constant MINTER_ROLE = keccak256(\"MINTER_ROLE\");\r\n    bytes32 public constant UPGRADER_ROLE = keccak256(\"UPGRADER_ROLE\");\r\n\r\n    /// @custom:oz-upgrades-unsafe-allow constructor\r\n    constructor() {\r\n        _disableInitializers();\r\n    }\r\n\r\n    function initialize() initializer public {\r\n        __ERC1155_init(\"\");\r\n        __AccessControl_init();\r\n        __Pausable_init();\r\n        __ERC1155Burnable_init();\r\n        __ERC1155Supply_init();\r\n        __UUPSUpgradeable_init();\r\n\r\n        _grantRole(DEFAULT_ADMIN_ROLE, msg.sender);\r\n        _grantRole(URI_SETTER_ROLE, msg.sender);\r\n        _grantRole(PAUSER_ROLE, msg.sender);\r\n        _grantRole(MINTER_ROLE, msg.sender);\r\n        _grantRole(UPGRADER_ROLE, msg.sender);\r\n\r\n        // initialize the EncryptionTools contract\r\n        \r\n\r\n    }\r\n\r\n    function setURI(string memory newuri) public onlyRole(URI_SETTER_ROLE) {\r\n        _setURI(newuri);\r\n    }\r\n\r\n    function pause() public onlyRole(PAUSER_ROLE) {\r\n        _pause();\r\n    }\r\n\r\n    function unpause() public onlyRole(PAUSER_ROLE) {\r\n        _unpause();\r\n    }\r\n\r\n    function mint(address account, uint256 id, uint256 amount, bytes memory data)\r\n        public\r\n        onlyRole(MINTER_ROLE)\r\n    {\r\n        _mint(account, id, amount, data);\r\n    }\r\n\r\n    function mintBatch(address to, uint256[] memory ids, uint256[] memory amounts, bytes memory data)\r\n        public\r\n        onlyRole(MINTER_ROLE)\r\n    {\r\n        _mintBatch(to, ids, amounts, data);\r\n    }\r\n\r\n    function _beforeTokenTransfer(address operator, address from, address to, uint256[] memory ids, uint256[] memory amounts, bytes memory data)\r\n        internal\r\n        whenNotPaused\r\n        override(ERC1155Upgradeable, ERC1155SupplyUpgradeable)\r\n    {\r\n        super._beforeTokenTransfer(operator, from, to, ids, amounts, data);\r\n    }\r\n\r\n    function _authorizeUpgrade(address newImplementation)\r\n        internal\r\n        onlyRole(UPGRADER_ROLE)\r\n        override\r\n    {}\r\n\r\n    // The following functions are overrides required by Solidity.\r\n\r\n    function supportsInterface(bytes4 interfaceId)\r\n        public\r\n        view\r\n        override(ERC1155Upgradeable, AccessControlUpgradeable)\r\n        returns (bool)\r\n    {\r\n        return super.supportsInterface(interfaceId);\r\n    }\r\n}",
  "sourcePath": "C:\\Users\\mosle\\Desktop\\Home DAO\\Websites\\HeroProtagonist.dao\\contracts\\DALI\\002_ItemTracker.sol",
  "compiler": {
    "name": "solc",
    "version": "0.8.14+commit.80d49f37.Emscripten.clang"
  },
  "schemaVersion": "3.4.10",
  "updatedAt": "2022-11-08T03:03:54.325Z",
  "networkType": "ethereum",
  "devdoc": {
    "kind": "dev",
    "methods": {
      "balanceOf(address,uint256)": {
        "details": "See {IERC1155-balanceOf}. Requirements: - `account` cannot be the zero address."
      },
      "balanceOfBatch(address[],uint256[])": {
        "details": "See {IERC1155-balanceOfBatch}. Requirements: - `accounts` and `ids` must have the same length."
      },
      "constructor": {
        "custom:oz-upgrades-unsafe-allow": "constructor"
      },
      "exists(uint256)": {
        "details": "Indicates whether any token exist with a given id, or not."
      },
      "getRoleAdmin(bytes32)": {
        "details": "Returns the admin role that controls `role`. See {grantRole} and {revokeRole}. To change a role's admin, use {_setRoleAdmin}."
      },
      "grantRole(bytes32,address)": {
        "details": "Grants `role` to `account`. If `account` had not been already granted `role`, emits a {RoleGranted} event. Requirements: - the caller must have ``role``'s admin role. May emit a {RoleGranted} event."
      },
      "hasRole(bytes32,address)": {
        "details": "Returns `true` if `account` has been granted `role`."
      },
      "isApprovedForAll(address,address)": {
        "details": "See {IERC1155-isApprovedForAll}."
      },
      "paused()": {
        "details": "Returns true if the contract is paused, and false otherwise."
      },
      "proxiableUUID()": {
        "details": "Implementation of the ERC1822 {proxiableUUID} function. This returns the storage slot used by the implementation. It is used to validate that the this implementation remains valid after an upgrade. IMPORTANT: A proxy pointing at a proxiable contract should not be considered proxiable itself, because this risks bricking a proxy that upgrades to it, by delegating to itself until out of gas. Thus it is critical that this function revert if invoked through a proxy. This is guaranteed by the `notDelegated` modifier."
      },
      "renounceRole(bytes32,address)": {
        "details": "Revokes `role` from the calling account. Roles are often managed via {grantRole} and {revokeRole}: this function's purpose is to provide a mechanism for accounts to lose their privileges if they are compromised (such as when a trusted device is misplaced). If the calling account had been revoked `role`, emits a {RoleRevoked} event. Requirements: - the caller must be `account`. May emit a {RoleRevoked} event."
      },
      "revokeRole(bytes32,address)": {
        "details": "Revokes `role` from `account`. If `account` had been granted `role`, emits a {RoleRevoked} event. Requirements: - the caller must have ``role``'s admin role. May emit a {RoleRevoked} event."
      },
      "safeBatchTransferFrom(address,address,uint256[],uint256[],bytes)": {
        "details": "See {IERC1155-safeBatchTransferFrom}."
      },
      "safeTransferFrom(address,address,uint256,uint256,bytes)": {
        "details": "See {IERC1155-safeTransferFrom}."
      },
      "setApprovalForAll(address,bool)": {
        "details": "See {IERC1155-setApprovalForAll}."
      },
      "totalSupply(uint256)": {
        "details": "Total amount of tokens in with a given id."
      },
      "upgradeTo(address)": {
        "details": "Upgrade the implementation of the proxy to `newImplementation`. Calls {_authorizeUpgrade}. Emits an {Upgraded} event."
      },
      "upgradeToAndCall(address,bytes)": {
        "details": "Upgrade the implementation of the proxy to `newImplementation`, and subsequently execute the function call encoded in `data`. Calls {_authorizeUpgrade}. Emits an {Upgraded} event."
      },
      "uri(uint256)": {
        "details": "See {IERC1155MetadataURI-uri}. This implementation returns the same URI for *all* token types. It relies on the token type ID substitution mechanism https://eips.ethereum.org/EIPS/eip-1155#metadata[defined in the EIP]. Clients calling this function must replace the `\\{id\\}` substring with the actual token type ID."
      }
    },
    "version": 1
  },
  "userdoc": {
    "kind": "user",
    "methods": {},
    "version": 1
  }
}