{
  "contractName": "ItemTracker",
  "abi": [
    {
      "inputs": [],
      "stateMutability": "nonpayable",
      "type": "constructor"
    },
    {
      "anonymous": false,
      "inputs": [
        {
          "indexed": false,
          "internalType": "address",
          "name": "previousAdmin",
          "type": "address"
        },
        {
          "indexed": false,
          "internalType": "address",
          "name": "newAdmin",
          "type": "address"
        }
      ],
      "name": "AdminChanged",
      "type": "event"
    },
    {
      "anonymous": false,
      "inputs": [
        {
          "indexed": true,
          "internalType": "address",
          "name": "account",
          "type": "address"
        },
        {
          "indexed": true,
          "internalType": "address",
          "name": "operator",
          "type": "address"
        },
        {
          "indexed": false,
          "internalType": "bool",
          "name": "approved",
          "type": "bool"
        }
      ],
      "name": "ApprovalForAll",
      "type": "event"
    },
    {
      "anonymous": false,
      "inputs": [
        {
          "indexed": true,
          "internalType": "address",
          "name": "beacon",
          "type": "address"
        }
      ],
      "name": "BeaconUpgraded",
      "type": "event"
    },
    {
      "anonymous": false,
      "inputs": [
        {
          "indexed": false,
          "internalType": "address",
          "name": "_encryptionTools",
          "type": "address"
        }
      ],
      "name": "EncryptionToolsSet",
      "type": "event"
    },
    {
      "anonymous": false,
      "inputs": [
        {
          "indexed": false,
          "internalType": "uint8",
          "name": "version",
          "type": "uint8"
        }
      ],
      "name": "Initialized",
      "type": "event"
    },
    {
      "anonymous": false,
      "inputs": [
        {
          "indexed": false,
          "internalType": "address",
          "name": "account",
          "type": "address"
        }
      ],
      "name": "Paused",
      "type": "event"
    },
    {
      "anonymous": false,
      "inputs": [
        {
          "indexed": true,
          "internalType": "bytes32",
          "name": "role",
          "type": "bytes32"
        },
        {
          "indexed": true,
          "internalType": "bytes32",
          "name": "previousAdminRole",
          "type": "bytes32"
        },
        {
          "indexed": true,
          "internalType": "bytes32",
          "name": "newAdminRole",
          "type": "bytes32"
        }
      ],
      "name": "RoleAdminChanged",
      "type": "event"
    },
    {
      "anonymous": false,
      "inputs": [
        {
          "indexed": true,
          "internalType": "bytes32",
          "name": "role",
          "type": "bytes32"
        },
        {
          "indexed": true,
          "internalType": "address",
          "name": "account",
          "type": "address"
        },
        {
          "indexed": true,
          "internalType": "address",
          "name": "sender",
          "type": "address"
        }
      ],
      "name": "RoleGranted",
      "type": "event"
    },
    {
      "anonymous": false,
      "inputs": [
        {
          "indexed": true,
          "internalType": "bytes32",
          "name": "role",
          "type": "bytes32"
        },
        {
          "indexed": true,
          "internalType": "address",
          "name": "account",
          "type": "address"
        },
        {
          "indexed": true,
          "internalType": "address",
          "name": "sender",
          "type": "address"
        }
      ],
      "name": "RoleRevoked",
      "type": "event"
    },
    {
      "anonymous": false,
      "inputs": [
        {
          "indexed": true,
          "internalType": "address",
          "name": "operator",
          "type": "address"
        },
        {
          "indexed": true,
          "internalType": "address",
          "name": "from",
          "type": "address"
        },
        {
          "indexed": true,
          "internalType": "address",
          "name": "to",
          "type": "address"
        },
        {
          "indexed": false,
          "internalType": "uint256[]",
          "name": "ids",
          "type": "uint256[]"
        },
        {
          "indexed": false,
          "internalType": "uint256[]",
          "name": "values",
          "type": "uint256[]"
        }
      ],
      "name": "TransferBatch",
      "type": "event"
    },
    {
      "anonymous": false,
      "inputs": [
        {
          "indexed": true,
          "internalType": "address",
          "name": "operator",
          "type": "address"
        },
        {
          "indexed": true,
          "internalType": "address",
          "name": "from",
          "type": "address"
        },
        {
          "indexed": true,
          "internalType": "address",
          "name": "to",
          "type": "address"
        },
        {
          "indexed": false,
          "internalType": "uint256",
          "name": "id",
          "type": "uint256"
        },
        {
          "indexed": false,
          "internalType": "uint256",
          "name": "value",
          "type": "uint256"
        }
      ],
      "name": "TransferSingle",
      "type": "event"
    },
    {
      "anonymous": false,
      "inputs": [
        {
          "indexed": false,
          "internalType": "string",
          "name": "value",
          "type": "string"
        },
        {
          "indexed": true,
          "internalType": "uint256",
          "name": "id",
          "type": "uint256"
        }
      ],
      "name": "URI",
      "type": "event"
    },
    {
      "anonymous": false,
      "inputs": [
        {
          "indexed": false,
          "internalType": "address",
          "name": "account",
          "type": "address"
        }
      ],
      "name": "Unpaused",
      "type": "event"
    },
    {
      "anonymous": false,
      "inputs": [
        {
          "indexed": true,
          "internalType": "address",
          "name": "implementation",
          "type": "address"
        }
      ],
      "name": "Upgraded",
      "type": "event"
    },
    {
      "inputs": [],
      "name": "DEFAULT_ADMIN_ROLE",
      "outputs": [
        {
          "internalType": "bytes32",
          "name": "",
          "type": "bytes32"
        }
      ],
      "stateMutability": "view",
      "type": "function"
    },
    {
      "inputs": [],
      "name": "ETAddress",
      "outputs": [
        {
          "internalType": "address",
          "name": "",
          "type": "address"
        }
      ],
      "stateMutability": "view",
      "type": "function"
    },
    {
      "inputs": [],
      "name": "MINTER_ROLE",
      "outputs": [
        {
          "internalType": "bytes32",
          "name": "",
          "type": "bytes32"
        }
      ],
      "stateMutability": "view",
      "type": "function"
    },
    {
      "inputs": [],
      "name": "PAUSER_ROLE",
      "outputs": [
        {
          "internalType": "bytes32",
          "name": "",
          "type": "bytes32"
        }
      ],
      "stateMutability": "view",
      "type": "function"
    },
    {
      "inputs": [],
      "name": "UPGRADER_ROLE",
      "outputs": [
        {
          "internalType": "bytes32",
          "name": "",
          "type": "bytes32"
        }
      ],
      "stateMutability": "view",
      "type": "function"
    },
    {
      "inputs": [],
      "name": "URI_SETTER_ROLE",
      "outputs": [
        {
          "internalType": "bytes32",
          "name": "",
          "type": "bytes32"
        }
      ],
      "stateMutability": "view",
      "type": "function"
    },
    {
      "inputs": [
        {
          "internalType": "address",
          "name": "account",
          "type": "address"
        },
        {
          "internalType": "uint256",
          "name": "id",
          "type": "uint256"
        }
      ],
      "name": "balanceOf",
      "outputs": [
        {
          "internalType": "uint256",
          "name": "",
          "type": "uint256"
        }
      ],
      "stateMutability": "view",
      "type": "function"
    },
    {
      "inputs": [
        {
          "internalType": "address[]",
          "name": "accounts",
          "type": "address[]"
        },
        {
          "internalType": "uint256[]",
          "name": "ids",
          "type": "uint256[]"
        }
      ],
      "name": "balanceOfBatch",
      "outputs": [
        {
          "internalType": "uint256[]",
          "name": "",
          "type": "uint256[]"
        }
      ],
      "stateMutability": "view",
      "type": "function"
    },
    {
      "inputs": [
        {
          "internalType": "address",
          "name": "account",
          "type": "address"
        },
        {
          "internalType": "uint256",
          "name": "id",
          "type": "uint256"
        },
        {
          "internalType": "uint256",
          "name": "value",
          "type": "uint256"
        }
      ],
      "name": "burn",
      "outputs": [],
      "stateMutability": "nonpayable",
      "type": "function"
    },
    {
      "inputs": [
        {
          "internalType": "address",
          "name": "account",
          "type": "address"
        },
        {
          "internalType": "uint256[]",
          "name": "ids",
          "type": "uint256[]"
        },
        {
          "internalType": "uint256[]",
          "name": "values",
          "type": "uint256[]"
        }
      ],
      "name": "burnBatch",
      "outputs": [],
      "stateMutability": "nonpayable",
      "type": "function"
    },
    {
      "inputs": [
        {
          "internalType": "uint256",
          "name": "id",
          "type": "uint256"
        }
      ],
      "name": "exists",
      "outputs": [
        {
          "internalType": "bool",
          "name": "",
          "type": "bool"
        }
      ],
      "stateMutability": "view",
      "type": "function"
    },
    {
      "inputs": [
        {
          "internalType": "bytes32",
          "name": "role",
          "type": "bytes32"
        }
      ],
      "name": "getRoleAdmin",
      "outputs": [
        {
          "internalType": "bytes32",
          "name": "",
          "type": "bytes32"
        }
      ],
      "stateMutability": "view",
      "type": "function"
    },
    {
      "inputs": [
        {
          "internalType": "bytes32",
          "name": "role",
          "type": "bytes32"
        },
        {
          "internalType": "address",
          "name": "account",
          "type": "address"
        }
      ],
      "name": "grantRole",
      "outputs": [],
      "stateMutability": "nonpayable",
      "type": "function"
    },
    {
      "inputs": [
        {
          "internalType": "bytes32",
          "name": "role",
          "type": "bytes32"
        },
        {
          "internalType": "address",
          "name": "account",
          "type": "address"
        }
      ],
      "name": "hasRole",
      "outputs": [
        {
          "internalType": "bool",
          "name": "",
          "type": "bool"
        }
      ],
      "stateMutability": "view",
      "type": "function"
    },
    {
      "inputs": [
        {
          "internalType": "address",
          "name": "account",
          "type": "address"
        },
        {
          "internalType": "address",
          "name": "operator",
          "type": "address"
        }
      ],
      "name": "isApprovedForAll",
      "outputs": [
        {
          "internalType": "bool",
          "name": "",
          "type": "bool"
        }
      ],
      "stateMutability": "view",
      "type": "function"
    },
    {
      "inputs": [],
      "name": "itemID",
      "outputs": [
        {
          "internalType": "uint256",
          "name": "",
          "type": "uint256"
        }
      ],
      "stateMutability": "view",
      "type": "function"
    },
    {
      "inputs": [],
      "name": "paused",
      "outputs": [
        {
          "internalType": "bool",
          "name": "",
          "type": "bool"
        }
      ],
      "stateMutability": "view",
      "type": "function"
    },
    {
      "inputs": [],
      "name": "proxiableUUID",
      "outputs": [
        {
          "internalType": "bytes32",
          "name": "",
          "type": "bytes32"
        }
      ],
      "stateMutability": "view",
      "type": "function"
    },
    {
      "inputs": [
        {
          "internalType": "bytes32",
          "name": "role",
          "type": "bytes32"
        },
        {
          "internalType": "address",
          "name": "account",
          "type": "address"
        }
      ],
      "name": "renounceRole",
      "outputs": [],
      "stateMutability": "nonpayable",
      "type": "function"
    },
    {
      "inputs": [
        {
          "internalType": "bytes32",
          "name": "role",
          "type": "bytes32"
        },
        {
          "internalType": "address",
          "name": "account",
          "type": "address"
        }
      ],
      "name": "revokeRole",
      "outputs": [],
      "stateMutability": "nonpayable",
      "type": "function"
    },
    {
      "inputs": [
        {
          "internalType": "address",
          "name": "from",
          "type": "address"
        },
        {
          "internalType": "address",
          "name": "to",
          "type": "address"
        },
        {
          "internalType": "uint256[]",
          "name": "ids",
          "type": "uint256[]"
        },
        {
          "internalType": "uint256[]",
          "name": "amounts",
          "type": "uint256[]"
        },
        {
          "internalType": "bytes",
          "name": "data",
          "type": "bytes"
        }
      ],
      "name": "safeBatchTransferFrom",
      "outputs": [],
      "stateMutability": "nonpayable",
      "type": "function"
    },
    {
      "inputs": [
        {
          "internalType": "address",
          "name": "from",
          "type": "address"
        },
        {
          "internalType": "address",
          "name": "to",
          "type": "address"
        },
        {
          "internalType": "uint256",
          "name": "id",
          "type": "uint256"
        },
        {
          "internalType": "uint256",
          "name": "amount",
          "type": "uint256"
        },
        {
          "internalType": "bytes",
          "name": "data",
          "type": "bytes"
        }
      ],
      "name": "safeTransferFrom",
      "outputs": [],
      "stateMutability": "nonpayable",
      "type": "function"
    },
    {
      "inputs": [
        {
          "internalType": "address",
          "name": "operator",
          "type": "address"
        },
        {
          "internalType": "bool",
          "name": "approved",
          "type": "bool"
        }
      ],
      "name": "setApprovalForAll",
      "outputs": [],
      "stateMutability": "nonpayable",
      "type": "function"
    },
    {
      "inputs": [
        {
          "internalType": "uint256",
          "name": "id",
          "type": "uint256"
        }
      ],
      "name": "totalSupply",
      "outputs": [
        {
          "internalType": "uint256",
          "name": "",
          "type": "uint256"
        }
      ],
      "stateMutability": "view",
      "type": "function"
    },
    {
      "inputs": [
        {
          "internalType": "address",
          "name": "newImplementation",
          "type": "address"
        }
      ],
      "name": "upgradeTo",
      "outputs": [],
      "stateMutability": "nonpayable",
      "type": "function"
    },
    {
      "inputs": [
        {
          "internalType": "address",
          "name": "newImplementation",
          "type": "address"
        },
        {
          "internalType": "bytes",
          "name": "data",
          "type": "bytes"
        }
      ],
      "name": "upgradeToAndCall",
      "outputs": [],
      "stateMutability": "payable",
      "type": "function"
    },
    {
      "inputs": [
        {
          "internalType": "uint256",
          "name": "",
          "type": "uint256"
        }
      ],
      "name": "uri",
      "outputs": [
        {
          "internalType": "string",
          "name": "",
          "type": "string"
        }
      ],
      "stateMutability": "view",
      "type": "function"
    },
    {
      "inputs": [
        {
          "internalType": "address",
          "name": "_ETAddress",
          "type": "address"
        }
      ],
      "name": "initialize",
      "outputs": [],
      "stateMutability": "nonpayable",
      "type": "function"
    },
    {
      "inputs": [
        {
          "internalType": "string",
          "name": "newuri",
          "type": "string"
        }
      ],
      "name": "setURI",
      "outputs": [],
      "stateMutability": "nonpayable",
      "type": "function"
    },
    {
      "inputs": [],
      "name": "pause",
      "outputs": [],
      "stateMutability": "nonpayable",
      "type": "function"
    },
    {
      "inputs": [],
      "name": "unpause",
      "outputs": [],
      "stateMutability": "nonpayable",
      "type": "function"
    },
    {
      "inputs": [
        {
          "internalType": "address",
          "name": "account",
          "type": "address"
        },
        {
          "internalType": "uint256",
          "name": "id",
          "type": "uint256"
        },
        {
          "internalType": "uint256",
          "name": "amount",
          "type": "uint256"
        },
        {
          "internalType": "bytes",
          "name": "data",
          "type": "bytes"
        }
      ],
      "name": "mint",
      "outputs": [],
      "stateMutability": "nonpayable",
      "type": "function"
    },
    {
      "inputs": [
        {
          "internalType": "address",
          "name": "to",
          "type": "address"
        },
        {
          "internalType": "uint256[]",
          "name": "ids",
          "type": "uint256[]"
        },
        {
          "internalType": "uint256[]",
          "name": "amounts",
          "type": "uint256[]"
        },
        {
          "internalType": "bytes",
          "name": "data",
          "type": "bytes"
        }
      ],
      "name": "mintBatch",
      "outputs": [],
      "stateMutability": "nonpayable",
      "type": "function"
    },
    {
      "inputs": [
        {
          "internalType": "bytes4",
          "name": "interfaceId",
          "type": "bytes4"
        }
      ],
      "name": "supportsInterface",
      "outputs": [
        {
          "internalType": "bool",
          "name": "",
          "type": "bool"
        }
      ],
      "stateMutability": "view",
      "type": "function"
    }
  ],
  "bytecode": "0x60a06040523073ffffffffffffffffffffffffffffffffffffffff1660809073ffffffffffffffffffffffffffffffffffffffff168152503480156200004457600080fd5b50620000556200005b60201b60201c565b62000206565b600060019054906101000a900460ff1615620000ae576040517f08c379a0000000000000000000000000000000000000000000000000000000008152600401620000a590620001a9565b60405180910390fd5b60ff801660008054906101000a900460ff1660ff161015620001205760ff6000806101000a81548160ff021916908360ff1602179055507f7f26b83ff96e1f2b6a682f133852f6798a09c465da95921460cefb384740249860ff604051620001179190620001e9565b60405180910390a15b565b600082825260208201905092915050565b7f496e697469616c697a61626c653a20636f6e747261637420697320696e69746960008201527f616c697a696e6700000000000000000000000000000000000000000000000000602082015250565b60006200019160278362000122565b91506200019e8262000133565b604082019050919050565b60006020820190508181036000830152620001c48162000182565b9050919050565b600060ff82169050919050565b620001e381620001cb565b82525050565b6000602082019050620002006000830184620001d8565b92915050565b60805161603d6200023e60003960008181610b7401528181610c0201528181610e5101528181610edf0152610fa3015261603d6000f3fe6080604052600436106101f75760003560e01c80635c975abb1161010d578063bd85b039116100a0578063e63ab1e91161006f578063e63ab1e91461071e578063e985e9c514610749578063f242432a14610786578063f5298aca146107af578063f72c0d8b146107d8576101f7565b8063bd85b03914610664578063c4d66de8146106a1578063d5391393146106ca578063d547741f146106f5576101f7565b80638456cb59116100dc5780638456cb59146105bc57806391d14854146105d3578063a217fddf14610610578063a22cb4651461063b576101f7565b80635c975abb146105145780636b20c4541461053f578063731133e9146105685780637f34571014610591576101f7565b80632f2ff15d1161019057806343cdef601161015f57806343cdef60146104285780634e1273f4146104535780634f1ef286146104905780634f558e79146104ac57806352d1902d146104e9576101f7565b80632f2ff15d1461039657806336568abe146103bf5780633659cfe6146103e85780633f4ba83a14610411576101f7565b80630e89341c116101cc5780630e89341c146102ca5780631f7fdffa14610307578063248a9ca3146103305780632eb2c2d61461036d576101f7565b8062491920146101fc578062fdd58e1461022757806301ffc9a71461026457806302fe5305146102a1575b600080fd5b34801561020857600080fd5b50610211610803565b60405161021e9190613df3565b60405180910390f35b34801561023357600080fd5b5061024e60048036038101906102499190613e84565b61082a565b60405161025b9190613ed3565b60405180910390f35b34801561027057600080fd5b5061028b60048036038101906102869190613f46565b6108f3565b6040516102989190613f8e565b60405180910390f35b3480156102ad57600080fd5b506102c860048036038101906102c391906140ef565b610905565b005b3480156102d657600080fd5b506102f160048036038101906102ec9190614138565b61093c565b6040516102fe91906141ed565b60405180910390f35b34801561031357600080fd5b5061032e60048036038101906103299190614378565b6109d0565b005b34801561033c57600080fd5b5061035760048036038101906103529190614469565b610a0d565b60405161036491906144a5565b60405180910390f35b34801561037957600080fd5b50610394600480360381019061038f91906144c0565b610a2d565b005b3480156103a257600080fd5b506103bd60048036038101906103b8919061458f565b610ace565b005b3480156103cb57600080fd5b506103e660048036038101906103e1919061458f565b610aef565b005b3480156103f457600080fd5b5061040f600480360381019061040a91906145cf565b610b72565b005b34801561041d57600080fd5b50610426610cfa565b005b34801561043457600080fd5b5061043d610d2f565b60405161044a9190613ed3565b60405180910390f35b34801561045f57600080fd5b5061047a600480360381019061047591906146bf565b610d36565b60405161048791906147f5565b60405180910390f35b6104aa60048036038101906104a59190614817565b610e4f565b005b3480156104b857600080fd5b506104d360048036038101906104ce9190614138565b610f8b565b6040516104e09190613f8e565b60405180910390f35b3480156104f557600080fd5b506104fe610f9f565b60405161050b91906144a5565b60405180910390f35b34801561052057600080fd5b50610529611058565b6040516105369190613f8e565b60405180910390f35b34801561054b57600080fd5b5061056660048036038101906105619190614873565b61106f565b005b34801561057457600080fd5b5061058f600480360381019061058a91906148fe565b61110c565b005b34801561059d57600080fd5b506105a6611149565b6040516105b391906144a5565b60405180910390f35b3480156105c857600080fd5b506105d161116d565b005b3480156105df57600080fd5b506105fa60048036038101906105f5919061458f565b6111a2565b6040516106079190613f8e565b60405180910390f35b34801561061c57600080fd5b5061062561120d565b60405161063291906144a5565b60405180910390f35b34801561064757600080fd5b50610662600480360381019061065d91906149ad565b611214565b005b34801561067057600080fd5b5061068b60048036038101906106869190614138565b61122a565b6040516106989190613ed3565b60405180910390f35b3480156106ad57600080fd5b506106c860048036038101906106c391906145cf565b611248565b005b3480156106d657600080fd5b506106df6114dc565b6040516106ec91906144a5565b60405180910390f35b34801561070157600080fd5b5061071c6004803603810190610717919061458f565b611500565b005b34801561072a57600080fd5b50610733611521565b60405161074091906144a5565b60405180910390f35b34801561075557600080fd5b50610770600480360381019061076b91906149ed565b611545565b60405161077d9190613f8e565b60405180910390f35b34801561079257600080fd5b506107ad60048036038101906107a89190614a2d565b6115d9565b005b3480156107bb57600080fd5b506107d660048036038101906107d19190614ac4565b61167a565b005b3480156107e457600080fd5b506107ed611717565b6040516107fa91906144a5565b60405180910390f35b6101c360009054906101000a900473ffffffffffffffffffffffffffffffffffffffff1681565b60008073ffffffffffffffffffffffffffffffffffffffff168373ffffffffffffffffffffffffffffffffffffffff160361089a576040517f08c379a000000000000000000000000000000000000000000000000000000000815260040161089190614b89565b60405180910390fd5b6065600083815260200190815260200160002060008473ffffffffffffffffffffffffffffffffffffffff1673ffffffffffffffffffffffffffffffffffffffff16815260200190815260200160002054905092915050565b60006108fe8261173b565b9050919050565b7f7804d923f43a17d325d77e781528e0793b2edd9890ab45fc64efd7b4b427744c61092f816117b5565b610938826117c9565b5050565b60606067805461094b90614bd8565b80601f016020809104026020016040519081016040528092919081815260200182805461097790614bd8565b80156109c45780601f10610999576101008083540402835291602001916109c4565b820191906000526020600020905b8154815290600101906020018083116109a757829003601f168201915b50505050509050919050565b7f9f2df0fed2c77648de5860a4cc508cd0818c85b8b8a1ab4ceeef8d981c8956a66109fa816117b5565b610a06858585856117e3565b5050505050565b600060976000838152602001908152602001600020600101549050919050565b610a35611a10565b73ffffffffffffffffffffffffffffffffffffffff168573ffffffffffffffffffffffffffffffffffffffff161480610a7b5750610a7a85610a75611a10565b611545565b5b610aba576040517f08c379a0000000000000000000000000000000000000000000000000000000008152600401610ab190614c7b565b60405180910390fd5b610ac78585858585611a18565b5050505050565b610ad782610a0d565b610ae0816117b5565b610aea8383611d3c565b505050565b610af7611a10565b73ffffffffffffffffffffffffffffffffffffffff168173ffffffffffffffffffffffffffffffffffffffff1614610b64576040517f08c379a0000000000000000000000000000000000000000000000000000000008152600401610b5b90614d0d565b60405180910390fd5b610b6e8282611e1d565b5050565b7f000000000000000000000000000000000000000000000000000000000000000073ffffffffffffffffffffffffffffffffffffffff163073ffffffffffffffffffffffffffffffffffffffff1603610c00576040517f08c379a0000000000000000000000000000000000000000000000000000000008152600401610bf790614d9f565b60405180910390fd5b7f000000000000000000000000000000000000000000000000000000000000000073ffffffffffffffffffffffffffffffffffffffff16610c3f611eff565b73ffffffffffffffffffffffffffffffffffffffff1614610c95576040517f08c379a0000000000000000000000000000000000000000000000000000000008152600401610c8c90614e31565b60405180910390fd5b610c9e81611f56565b610cf781600067ffffffffffffffff811115610cbd57610cbc613fc4565b5b6040519080825280601f01601f191660200182016040528015610cef5781602001600182028036833780820191505090505b506000611f84565b50565b7f65d7a28e3265b37a6474929f336521b332c1681b933f6cb9f3376673440d862a610d24816117b5565b610d2c6120f2565b50565b6101c45481565b60608151835114610d7c576040517f08c379a0000000000000000000000000000000000000000000000000000000008152600401610d7390614ec3565b60405180910390fd5b6000835167ffffffffffffffff811115610d9957610d98613fc4565b5b604051908082528060200260200182016040528015610dc75781602001602082028036833780820191505090505b50905060005b8451811015610e4457610e14858281518110610dec57610deb614ee3565b5b6020026020010151858381518110610e0757610e06614ee3565b5b602002602001015161082a565b828281518110610e2757610e26614ee3565b5b60200260200101818152505080610e3d90614f41565b9050610dcd565b508091505092915050565b7f000000000000000000000000000000000000000000000000000000000000000073ffffffffffffffffffffffffffffffffffffffff163073ffffffffffffffffffffffffffffffffffffffff1603610edd576040517f08c379a0000000000000000000000000000000000000000000000000000000008152600401610ed490614d9f565b60405180910390fd5b7f000000000000000000000000000000000000000000000000000000000000000073ffffffffffffffffffffffffffffffffffffffff16610f1c611eff565b73ffffffffffffffffffffffffffffffffffffffff1614610f72576040517f08c379a0000000000000000000000000000000000000000000000000000000008152600401610f6990614e31565b60405180910390fd5b610f7b82611f56565b610f8782826001611f84565b5050565b600080610f978361122a565b119050919050565b60007f000000000000000000000000000000000000000000000000000000000000000073ffffffffffffffffffffffffffffffffffffffff163073ffffffffffffffffffffffffffffffffffffffff161461102f576040517f08c379a000000000000000000000000000000000000000000000000000000000815260040161102690614ffb565b60405180910390fd5b7f360894a13ba1a3210667c828492db98dca3e2076cc3735a920a3ca505d382bbc60001b905090565b600060c960009054906101000a900460ff16905090565b611077611a10565b73ffffffffffffffffffffffffffffffffffffffff168373ffffffffffffffffffffffffffffffffffffffff1614806110bd57506110bc836110b7611a10565b611545565b5b6110fc576040517f08c379a00000000000000000000000000000000000000000000000000000000081526004016110f390614c7b565b60405180910390fd5b611107838383612155565b505050565b7f9f2df0fed2c77648de5860a4cc508cd0818c85b8b8a1ab4ceeef8d981c8956a6611136816117b5565b61114285858585612425565b5050505050565b7f7804d923f43a17d325d77e781528e0793b2edd9890ab45fc64efd7b4b427744c81565b7f65d7a28e3265b37a6474929f336521b332c1681b933f6cb9f3376673440d862a611197816117b5565b61119f6125d6565b50565b60006097600084815260200190815260200160002060000160008373ffffffffffffffffffffffffffffffffffffffff1673ffffffffffffffffffffffffffffffffffffffff16815260200190815260200160002060009054906101000a900460ff16905092915050565b6000801b81565b61122661121f611a10565b8383612639565b5050565b600061012d6000838152602001908152602001600020549050919050565b60008060019054906101000a900460ff161590508080156112795750600160008054906101000a900460ff1660ff16105b806112a65750611288306127a5565b1580156112a55750600160008054906101000a900460ff1660ff16145b5b6112e5576040517f08c379a00000000000000000000000000000000000000000000000000000000081526004016112dc9061508d565b60405180910390fd5b60016000806101000a81548160ff021916908360ff1602179055508015611322576001600060016101000a81548160ff0219169083151502179055505b6113606040518060400160405280601581526020017f68747470733a2f2f697066732e696f2f697066732f00000000000000000000008152506127c8565b611368612823565b611370612874565b6113786128cd565b61138061291e565b61138861296f565b6113956000801b336129c0565b6113bf7f7804d923f43a17d325d77e781528e0793b2edd9890ab45fc64efd7b4b427744c336129c0565b6113e97f65d7a28e3265b37a6474929f336521b332c1681b933f6cb9f3376673440d862a336129c0565b6114137f9f2df0fed2c77648de5860a4cc508cd0818c85b8b8a1ab4ceeef8d981c8956a6336129c0565b61143d7f189ab7a9244df0848122154315af71fe140f3db0fe014031783b0946b8c9d2e3336129c0565b816101c360006101000a81548173ffffffffffffffffffffffffffffffffffffffff021916908373ffffffffffffffffffffffffffffffffffffffff16021790555080156114d85760008060016101000a81548160ff0219169083151502179055507f7f26b83ff96e1f2b6a682f133852f6798a09c465da95921460cefb384740249860016040516114cf91906150ff565b60405180910390a15b5050565b7f9f2df0fed2c77648de5860a4cc508cd0818c85b8b8a1ab4ceeef8d981c8956a681565b61150982610a0d565b611512816117b5565b61151c8383611e1d565b505050565b7f65d7a28e3265b37a6474929f336521b332c1681b933f6cb9f3376673440d862a81565b6000606660008473ffffffffffffffffffffffffffffffffffffffff1673ffffffffffffffffffffffffffffffffffffffff16815260200190815260200160002060008373ffffffffffffffffffffffffffffffffffffffff1673ffffffffffffffffffffffffffffffffffffffff16815260200190815260200160002060009054906101000a900460ff16905092915050565b6115e1611a10565b73ffffffffffffffffffffffffffffffffffffffff168573ffffffffffffffffffffffffffffffffffffffff161480611627575061162685611621611a10565b611545565b5b611666576040517f08c379a000000000000000000000000000000000000000000000000000000000815260040161165d90614c7b565b60405180910390fd5b61167385858585856129ce565b5050505050565b611682611a10565b73ffffffffffffffffffffffffffffffffffffffff168373ffffffffffffffffffffffffffffffffffffffff1614806116c857506116c7836116c2611a10565b611545565b5b611707576040517f08c379a00000000000000000000000000000000000000000000000000000000081526004016116fe90614c7b565b60405180910390fd5b611712838383612c6c565b505050565b7f189ab7a9244df0848122154315af71fe140f3db0fe014031783b0946b8c9d2e381565b60007f7965db0b000000000000000000000000000000000000000000000000000000007bffffffffffffffffffffffffffffffffffffffffffffffffffffffff1916827bffffffffffffffffffffffffffffffffffffffffffffffffffffffff191614806117ae57506117ad82612eb4565b5b9050919050565b6117c6816117c1611a10565b612f96565b50565b80606790805190602001906117df929190613d0f565b5050565b600073ffffffffffffffffffffffffffffffffffffffff168473ffffffffffffffffffffffffffffffffffffffff1603611852576040517f08c379a00000000000000000000000000000000000000000000000000000000081526004016118499061518c565b60405180910390fd5b8151835114611896576040517f08c379a000000000000000000000000000000000000000000000000000000000815260040161188d9061521e565b60405180910390fd5b60006118a0611a10565b90506118b18160008787878761301b565b60005b845181101561196b578381815181106118d0576118cf614ee3565b5b6020026020010151606560008784815181106118ef576118ee614ee3565b5b6020026020010151815260200190815260200160002060008873ffffffffffffffffffffffffffffffffffffffff1673ffffffffffffffffffffffffffffffffffffffff1681526020019081526020016000206000828254611951919061523e565b92505081905550808061196390614f41565b9150506118b4565b508473ffffffffffffffffffffffffffffffffffffffff16600073ffffffffffffffffffffffffffffffffffffffff168273ffffffffffffffffffffffffffffffffffffffff167f4a39dc06d4c0dbc64b70af90fd698a233a518aa5d07e595d983b8c0526c8f7fb87876040516119e3929190615294565b60405180910390a46119fa81600087878787613039565b611a0981600087878787613041565b5050505050565b600033905090565b8151835114611a5c576040517f08c379a0000000000000000000000000000000000000000000000000000000008152600401611a539061521e565b60405180910390fd5b600073ffffffffffffffffffffffffffffffffffffffff168473ffffffffffffffffffffffffffffffffffffffff1603611acb576040517f08c379a0000000000000000000000000000000000000000000000000000000008152600401611ac29061533d565b60405180910390fd5b6000611ad5611a10565b9050611ae581878787878761301b565b60005b8451811015611c99576000858281518110611b0657611b05614ee3565b5b602002602001015190506000858381518110611b2557611b24614ee3565b5b6020026020010151905060006065600084815260200190815260200160002060008b73ffffffffffffffffffffffffffffffffffffffff1673ffffffffffffffffffffffffffffffffffffffff16815260200190815260200160002054905081811015611bc7576040517f08c379a0000000000000000000000000000000000000000000000000000000008152600401611bbe906153cf565b60405180910390fd5b8181036065600085815260200190815260200160002060008c73ffffffffffffffffffffffffffffffffffffffff1673ffffffffffffffffffffffffffffffffffffffff16815260200190815260200160002081905550816065600085815260200190815260200160002060008b73ffffffffffffffffffffffffffffffffffffffff1673ffffffffffffffffffffffffffffffffffffffff1681526020019081526020016000206000828254611c7e919061523e565b9250508190555050505080611c9290614f41565b9050611ae8565b508473ffffffffffffffffffffffffffffffffffffffff168673ffffffffffffffffffffffffffffffffffffffff168273ffffffffffffffffffffffffffffffffffffffff167f4a39dc06d4c0dbc64b70af90fd698a233a518aa5d07e595d983b8c0526c8f7fb8787604051611d10929190615294565b60405180910390a4611d26818787878787613039565b611d34818787878787613041565b505050505050565b611d4682826111a2565b611e195760016097600084815260200190815260200160002060000160008373ffffffffffffffffffffffffffffffffffffffff1673ffffffffffffffffffffffffffffffffffffffff16815260200190815260200160002060006101000a81548160ff021916908315150217905550611dbe611a10565b73ffffffffffffffffffffffffffffffffffffffff168173ffffffffffffffffffffffffffffffffffffffff16837f2f8788117e7eff1d82e926ec794901d17c78024a50270940304540a733656f0d60405160405180910390a45b5050565b611e2782826111a2565b15611efb5760006097600084815260200190815260200160002060000160008373ffffffffffffffffffffffffffffffffffffffff1673ffffffffffffffffffffffffffffffffffffffff16815260200190815260200160002060006101000a81548160ff021916908315150217905550611ea0611a10565b73ffffffffffffffffffffffffffffffffffffffff168173ffffffffffffffffffffffffffffffffffffffff16837ff6391f5c32d9c69d2a47ea670b442974b53935d1edc7fd64eb21e047a839171b60405160405180910390a45b5050565b6000611f2d7f360894a13ba1a3210667c828492db98dca3e2076cc3735a920a3ca505d382bbc60001b613218565b60000160009054906101000a900473ffffffffffffffffffffffffffffffffffffffff16905090565b7f189ab7a9244df0848122154315af71fe140f3db0fe014031783b0946b8c9d2e3611f80816117b5565b5050565b611fb07f4910fdfa16fed3260ed0e7147f7cc6da11a60208b5b9406d12a635614ffd914360001b613222565b60000160009054906101000a900460ff1615611fd457611fcf8361322c565b6120ed565b8273ffffffffffffffffffffffffffffffffffffffff166352d1902d6040518163ffffffff1660e01b8152600401602060405180830381865afa92505050801561203c57506040513d601f19601f820116820180604052508101906120399190615404565b60015b61207b576040517f08c379a0000000000000000000000000000000000000000000000000000000008152600401612072906154a3565b60405180910390fd5b7f360894a13ba1a3210667c828492db98dca3e2076cc3735a920a3ca505d382bbc60001b81146120e0576040517f08c379a00000000000000000000000000000000000000000000000000000000081526004016120d790615535565b60405180910390fd5b506120ec8383836132e5565b5b505050565b6120fa613311565b600060c960006101000a81548160ff0219169083151502179055507f5db9ee0a495bf2e6ff9c91a7834c1ba4fdd244a5e8aa4e537bd38aeae4b073aa61213e611a10565b60405161214b9190613df3565b60405180910390a1565b600073ffffffffffffffffffffffffffffffffffffffff168373ffffffffffffffffffffffffffffffffffffffff16036121c4576040517f08c379a00000000000000000000000000000000000000000000000000000000081526004016121bb906155c7565b60405180910390fd5b8051825114612208576040517f08c379a00000000000000000000000000000000000000000000000000000000081526004016121ff9061521e565b60405180910390fd5b6000612212611a10565b90506122328185600086866040518060200160405280600081525061301b565b60005b835181101561238157600084828151811061225357612252614ee3565b5b60200260200101519050600084838151811061227257612271614ee3565b5b6020026020010151905060006065600084815260200190815260200160002060008973ffffffffffffffffffffffffffffffffffffffff1673ffffffffffffffffffffffffffffffffffffffff16815260200190815260200160002054905081811015612314576040517f08c379a000000000000000000000000000000000000000000000000000000000815260040161230b90615659565b60405180910390fd5b8181036065600085815260200190815260200160002060008a73ffffffffffffffffffffffffffffffffffffffff1673ffffffffffffffffffffffffffffffffffffffff16815260200190815260200160002081905550505050808061237990614f41565b915050612235565b50600073ffffffffffffffffffffffffffffffffffffffff168473ffffffffffffffffffffffffffffffffffffffff168273ffffffffffffffffffffffffffffffffffffffff167f4a39dc06d4c0dbc64b70af90fd698a233a518aa5d07e595d983b8c0526c8f7fb86866040516123f9929190615294565b60405180910390a461241f81856000868660405180602001604052806000815250613039565b50505050565b600073ffffffffffffffffffffffffffffffffffffffff168473ffffffffffffffffffffffffffffffffffffffff1603612494576040517f08c379a000000000000000000000000000000000000000000000000000000000815260040161248b9061518c565b60405180910390fd5b600061249e611a10565b905060006124ab8561335a565b905060006124b88561335a565b90506124c98360008985858961301b565b846065600088815260200190815260200160002060008973ffffffffffffffffffffffffffffffffffffffff1673ffffffffffffffffffffffffffffffffffffffff1681526020019081526020016000206000828254612529919061523e565b925050819055508673ffffffffffffffffffffffffffffffffffffffff16600073ffffffffffffffffffffffffffffffffffffffff168473ffffffffffffffffffffffffffffffffffffffff167fc3d58168c5ae7397731d063d5bbf3d657854427343f4c083240f7aacaa2d0f6289896040516125a7929190615679565b60405180910390a46125be83600089858589613039565b6125cd836000898989896133d4565b50505050505050565b6125de6135ab565b600160c960006101000a81548160ff0219169083151502179055507f62e78cea01bee320cd4e420270b5ea74000d11b0c9f74754ebdbfc544b05a258612622611a10565b60405161262f9190613df3565b60405180910390a1565b8173ffffffffffffffffffffffffffffffffffffffff168373ffffffffffffffffffffffffffffffffffffffff16036126a7576040517f08c379a000000000000000000000000000000000000000000000000000000000815260040161269e90615714565b60405180910390fd5b80606660008573ffffffffffffffffffffffffffffffffffffffff1673ffffffffffffffffffffffffffffffffffffffff16815260200190815260200160002060008473ffffffffffffffffffffffffffffffffffffffff1673ffffffffffffffffffffffffffffffffffffffff16815260200190815260200160002060006101000a81548160ff0219169083151502179055508173ffffffffffffffffffffffffffffffffffffffff168373ffffffffffffffffffffffffffffffffffffffff167f17307eab39ab6107e8899845ad3d59bd9653f200f220920489ca2b5937696c31836040516127989190613f8e565b60405180910390a3505050565b6000808273ffffffffffffffffffffffffffffffffffffffff163b119050919050565b600060019054906101000a900460ff16612817576040517f08c379a000000000000000000000000000000000000000000000000000000000815260040161280e906157a6565b60405180910390fd5b612820816135f5565b50565b600060019054906101000a900460ff16612872576040517f08c379a0000000000000000000000000000000000000000000000000000000008152600401612869906157a6565b60405180910390fd5b565b600060019054906101000a900460ff166128c3576040517f08c379a00000000000000000000000000000000000000000000000000000000081526004016128ba906157a6565b60405180910390fd5b6128cb613650565b565b600060019054906101000a900460ff1661291c576040517f08c379a0000000000000000000000000000000000000000000000000000000008152600401612913906157a6565b60405180910390fd5b565b600060019054906101000a900460ff1661296d576040517f08c379a0000000000000000000000000000000000000000000000000000000008152600401612964906157a6565b60405180910390fd5b565b600060019054906101000a900460ff166129be576040517f08c379a00000000000000000000000000000000000000000000000000000000081526004016129b5906157a6565b60405180910390fd5b565b6129ca8282611d3c565b5050565b600073ffffffffffffffffffffffffffffffffffffffff168473ffffffffffffffffffffffffffffffffffffffff1603612a3d576040517f08c379a0000000000000000000000000000000000000000000000000000000008152600401612a349061533d565b60405180910390fd5b6000612a47611a10565b90506000612a548561335a565b90506000612a618561335a565b9050612a7183898985858961301b565b60006065600088815260200190815260200160002060008a73ffffffffffffffffffffffffffffffffffffffff1673ffffffffffffffffffffffffffffffffffffffff16815260200190815260200160002054905085811015612b09576040517f08c379a0000000000000000000000000000000000000000000000000000000008152600401612b00906153cf565b60405180910390fd5b8581036065600089815260200190815260200160002060008b73ffffffffffffffffffffffffffffffffffffffff1673ffffffffffffffffffffffffffffffffffffffff16815260200190815260200160002081905550856065600089815260200190815260200160002060008a73ffffffffffffffffffffffffffffffffffffffff1673ffffffffffffffffffffffffffffffffffffffff1681526020019081526020016000206000828254612bc0919061523e565b925050819055508773ffffffffffffffffffffffffffffffffffffffff168973ffffffffffffffffffffffffffffffffffffffff168573ffffffffffffffffffffffffffffffffffffffff167fc3d58168c5ae7397731d063d5bbf3d657854427343f4c083240f7aacaa2d0f628a8a604051612c3d929190615679565b60405180910390a4612c53848a8a86868a613039565b612c61848a8a8a8a8a6133d4565b505050505050505050565b600073ffffffffffffffffffffffffffffffffffffffff168373ffffffffffffffffffffffffffffffffffffffff1603612cdb576040517f08c379a0000000000000000000000000000000000000000000000000000000008152600401612cd2906155c7565b60405180910390fd5b6000612ce5611a10565b90506000612cf28461335a565b90506000612cff8461335a565b9050612d1f8387600085856040518060200160405280600081525061301b565b60006065600087815260200190815260200160002060008873ffffffffffffffffffffffffffffffffffffffff1673ffffffffffffffffffffffffffffffffffffffff16815260200190815260200160002054905084811015612db7576040517f08c379a0000000000000000000000000000000000000000000000000000000008152600401612dae90615659565b60405180910390fd5b8481036065600088815260200190815260200160002060008973ffffffffffffffffffffffffffffffffffffffff1673ffffffffffffffffffffffffffffffffffffffff16815260200190815260200160002081905550600073ffffffffffffffffffffffffffffffffffffffff168773ffffffffffffffffffffffffffffffffffffffff168573ffffffffffffffffffffffffffffffffffffffff167fc3d58168c5ae7397731d063d5bbf3d657854427343f4c083240f7aacaa2d0f628989604051612e85929190615679565b60405180910390a4612eab84886000868660405180602001604052806000815250613039565b50505050505050565b60007fd9b67a26000000000000000000000000000000000000000000000000000000007bffffffffffffffffffffffffffffffffffffffffffffffffffffffff1916827bffffffffffffffffffffffffffffffffffffffffffffffffffffffff19161480612f7f57507f0e89341c000000000000000000000000000000000000000000000000000000007bffffffffffffffffffffffffffffffffffffffffffffffffffffffff1916827bffffffffffffffffffffffffffffffffffffffffffffffffffffffff1916145b80612f8f5750612f8e826136bc565b5b9050919050565b612fa082826111a2565b61301757612fad81613726565b612fbb8360001c6020613753565b604051602001612fcc92919061589a565b6040516020818303038152906040526040517f08c379a000000000000000000000000000000000000000000000000000000000815260040161300e91906141ed565b60405180910390fd5b5050565b6130236135ab565b61303186868686868661398f565b505050505050565b505050505050565b6130608473ffffffffffffffffffffffffffffffffffffffff166127a5565b15613210578373ffffffffffffffffffffffffffffffffffffffff1663bc197c8187878686866040518663ffffffff1660e01b81526004016130a6959493929190615929565b6020604051808303816000875af19250505080156130e257506040513d601f19601f820116820180604052508101906130df91906159a6565b60015b613187576130ee6159e0565b806308c379a00361314a5750613102615a02565b8061310d575061314c565b806040517f08c379a000000000000000000000000000000000000000000000000000000000815260040161314191906141ed565b60405180910390fd5b505b6040517f08c379a000000000000000000000000000000000000000000000000000000000815260040161317e90615b04565b60405180910390fd5b63bc197c8160e01b7bffffffffffffffffffffffffffffffffffffffffffffffffffffffff1916817bffffffffffffffffffffffffffffffffffffffffffffffffffffffff19161461320e576040517f08c379a000000000000000000000000000000000000000000000000000000000815260040161320590615b96565b60405180910390fd5b505b505050505050565b6000819050919050565b6000819050919050565b613235816127a5565b613274576040517f08c379a000000000000000000000000000000000000000000000000000000000815260040161326b90615c28565b60405180910390fd5b806132a17f360894a13ba1a3210667c828492db98dca3e2076cc3735a920a3ca505d382bbc60001b613218565b60000160006101000a81548173ffffffffffffffffffffffffffffffffffffffff021916908373ffffffffffffffffffffffffffffffffffffffff16021790555050565b6132ee83613b62565b6000825111806132fb5750805b1561330c5761330a8383613bb1565b505b505050565b613319611058565b613358576040517f08c379a000000000000000000000000000000000000000000000000000000000815260040161334f90615c94565b60405180910390fd5b565b60606000600167ffffffffffffffff81111561337957613378613fc4565b5b6040519080825280602002602001820160405280156133a75781602001602082028036833780820191505090505b50905082816000815181106133bf576133be614ee3565b5b60200260200101818152505080915050919050565b6133f38473ffffffffffffffffffffffffffffffffffffffff166127a5565b156135a3578373ffffffffffffffffffffffffffffffffffffffff1663f23a6e6187878686866040518663ffffffff1660e01b8152600401613439959493929190615cb4565b6020604051808303816000875af192505050801561347557506040513d601f19601f8201168201806040525081019061347291906159a6565b60015b61351a576134816159e0565b806308c379a0036134dd5750613495615a02565b806134a057506134df565b806040517f08c379a00000000000000000000000000000000000000000000000000000000081526004016134d491906141ed565b60405180910390fd5b505b6040517f08c379a000000000000000000000000000000000000000000000000000000000815260040161351190615b04565b60405180910390fd5b63f23a6e6160e01b7bffffffffffffffffffffffffffffffffffffffffffffffffffffffff1916817bffffffffffffffffffffffffffffffffffffffffffffffffffffffff1916146135a1576040517f08c379a000000000000000000000000000000000000000000000000000000000815260040161359890615b96565b60405180910390fd5b505b505050505050565b6135b3611058565b156135f3576040517f08c379a00000000000000000000000000000000000000000000000000000000081526004016135ea90615d5a565b60405180910390fd5b565b600060019054906101000a900460ff16613644576040517f08c379a000000000000000000000000000000000000000000000000000000000815260040161363b906157a6565b60405180910390fd5b61364d816117c9565b50565b600060019054906101000a900460ff1661369f576040517f08c379a0000000000000000000000000000000000000000000000000000000008152600401613696906157a6565b60405180910390fd5b600060c960006101000a81548160ff021916908315150217905550565b60007f01ffc9a7000000000000000000000000000000000000000000000000000000007bffffffffffffffffffffffffffffffffffffffffffffffffffffffff1916827bffffffffffffffffffffffffffffffffffffffffffffffffffffffff1916149050919050565b606061374c8273ffffffffffffffffffffffffffffffffffffffff16601460ff16613753565b9050919050565b6060600060028360026137669190615d7a565b613770919061523e565b67ffffffffffffffff81111561378957613788613fc4565b5b6040519080825280601f01601f1916602001820160405280156137bb5781602001600182028036833780820191505090505b5090507f3000000000000000000000000000000000000000000000000000000000000000816000815181106137f3576137f2614ee3565b5b60200101907effffffffffffffffffffffffffffffffffffffffffffffffffffffffffffff1916908160001a9053507f78000000000000000000000000000000000000000000000000000000000000008160018151811061385757613856614ee3565b5b60200101907effffffffffffffffffffffffffffffffffffffffffffffffffffffffffffff1916908160001a905350600060018460026138979190615d7a565b6138a1919061523e565b90505b6001811115613941577f3031323334353637383961626364656600000000000000000000000000000000600f8616601081106138e3576138e2614ee3565b5b1a60f81b8282815181106138fa576138f9614ee3565b5b60200101907effffffffffffffffffffffffffffffffffffffffffffffffffffffffffffff1916908160001a905350600485901c94508061393a90615dd4565b90506138a4565b5060008414613985576040517f08c379a000000000000000000000000000000000000000000000000000000000815260040161397c90615e49565b60405180910390fd5b8091505092915050565b61399d868686868686613c95565b600073ffffffffffffffffffffffffffffffffffffffff168573ffffffffffffffffffffffffffffffffffffffff1603613a4f5760005b8351811015613a4d578281815181106139f0576139ef614ee3565b5b602002602001015161012d6000868481518110613a1057613a0f614ee3565b5b602002602001015181526020019081526020016000206000828254613a35919061523e565b9250508190555080613a4690614f41565b90506139d4565b505b600073ffffffffffffffffffffffffffffffffffffffff168473ffffffffffffffffffffffffffffffffffffffff1603613b5a5760005b8351811015613b58576000848281518110613aa457613aa3614ee3565b5b602002602001015190506000848381518110613ac357613ac2614ee3565b5b60200260200101519050600061012d600084815260200190815260200160002054905081811015613b29576040517f08c379a0000000000000000000000000000000000000000000000000000000008152600401613b2090615edb565b60405180910390fd5b81810361012d60008581526020019081526020016000208190555050505080613b5190614f41565b9050613a86565b505b505050505050565b613b6b8161322c565b8073ffffffffffffffffffffffffffffffffffffffff167fbc7cd75a20ee27fd9adebab32041f755214dbc6bffa90cc0225b39da2e5c2d3b60405160405180910390a250565b6060613bbc836127a5565b613bfb576040517f08c379a0000000000000000000000000000000000000000000000000000000008152600401613bf290615f6d565b60405180910390fd5b6000808473ffffffffffffffffffffffffffffffffffffffff1684604051613c239190615fc9565b600060405180830381855af49150503d8060008114613c5e576040519150601f19603f3d011682016040523d82523d6000602084013e613c63565b606091505b5091509150613c8b8282604051806060016040528060278152602001615fe160279139613c9d565b9250505092915050565b505050505050565b60608315613cad57829050613cb8565b613cb78383613cbf565b5b9392505050565b600082511115613cd25781518083602001fd5b806040517f08c379a0000000000000000000000000000000000000000000000000000000008152600401613d0691906141ed565b60405180910390fd5b828054613d1b90614bd8565b90600052602060002090601f016020900481019282613d3d5760008555613d84565b82601f10613d5657805160ff1916838001178555613d84565b82800160010185558215613d84579182015b82811115613d83578251825591602001919060010190613d68565b5b509050613d919190613d95565b5090565b5b80821115613dae576000816000905550600101613d96565b5090565b600073ffffffffffffffffffffffffffffffffffffffff82169050919050565b6000613ddd82613db2565b9050919050565b613ded81613dd2565b82525050565b6000602082019050613e086000830184613de4565b92915050565b6000604051905090565b600080fd5b600080fd5b613e2b81613dd2565b8114613e3657600080fd5b50565b600081359050613e4881613e22565b92915050565b6000819050919050565b613e6181613e4e565b8114613e6c57600080fd5b50565b600081359050613e7e81613e58565b92915050565b60008060408385031215613e9b57613e9a613e18565b5b6000613ea985828601613e39565b9250506020613eba85828601613e6f565b9150509250929050565b613ecd81613e4e565b82525050565b6000602082019050613ee86000830184613ec4565b92915050565b60007fffffffff0000000000000000000000000000000000000000000000000000000082169050919050565b613f2381613eee565b8114613f2e57600080fd5b50565b600081359050613f4081613f1a565b92915050565b600060208284031215613f5c57613f5b613e18565b5b6000613f6a84828501613f31565b91505092915050565b60008115159050919050565b613f8881613f73565b82525050565b6000602082019050613fa36000830184613f7f565b92915050565b600080fd5b600080fd5b6000601f19601f8301169050919050565b7f4e487b7100000000000000000000000000000000000000000000000000000000600052604160045260246000fd5b613ffc82613fb3565b810181811067ffffffffffffffff8211171561401b5761401a613fc4565b5b80604052505050565b600061402e613e0e565b905061403a8282613ff3565b919050565b600067ffffffffffffffff82111561405a57614059613fc4565b5b61406382613fb3565b9050602081019050919050565b82818337600083830152505050565b600061409261408d8461403f565b614024565b9050828152602081018484840111156140ae576140ad613fae565b5b6140b9848285614070565b509392505050565b600082601f8301126140d6576140d5613fa9565b5b81356140e684826020860161407f565b91505092915050565b60006020828403121561410557614104613e18565b5b600082013567ffffffffffffffff81111561412357614122613e1d565b5b61412f848285016140c1565b91505092915050565b60006020828403121561414e5761414d613e18565b5b600061415c84828501613e6f565b91505092915050565b600081519050919050565b600082825260208201905092915050565b60005b8381101561419f578082015181840152602081019050614184565b838111156141ae576000848401525b50505050565b60006141bf82614165565b6141c98185614170565b93506141d9818560208601614181565b6141e281613fb3565b840191505092915050565b6000602082019050818103600083015261420781846141b4565b905092915050565b600067ffffffffffffffff82111561422a57614229613fc4565b5b602082029050602081019050919050565b600080fd5b600061425361424e8461420f565b614024565b905080838252602082019050602084028301858111156142765761427561423b565b5b835b8181101561429f578061428b8882613e6f565b845260208401935050602081019050614278565b5050509392505050565b600082601f8301126142be576142bd613fa9565b5b81356142ce848260208601614240565b91505092915050565b600067ffffffffffffffff8211156142f2576142f1613fc4565b5b6142fb82613fb3565b9050602081019050919050565b600061431b614316846142d7565b614024565b90508281526020810184848401111561433757614336613fae565b5b614342848285614070565b509392505050565b600082601f83011261435f5761435e613fa9565b5b813561436f848260208601614308565b91505092915050565b6000806000806080858703121561439257614391613e18565b5b60006143a087828801613e39565b945050602085013567ffffffffffffffff8111156143c1576143c0613e1d565b5b6143cd878288016142a9565b935050604085013567ffffffffffffffff8111156143ee576143ed613e1d565b5b6143fa878288016142a9565b925050606085013567ffffffffffffffff81111561441b5761441a613e1d565b5b6144278782880161434a565b91505092959194509250565b6000819050919050565b61444681614433565b811461445157600080fd5b50565b6000813590506144638161443d565b92915050565b60006020828403121561447f5761447e613e18565b5b600061448d84828501614454565b91505092915050565b61449f81614433565b82525050565b60006020820190506144ba6000830184614496565b92915050565b600080600080600060a086880312156144dc576144db613e18565b5b60006144ea88828901613e39565b95505060206144fb88828901613e39565b945050604086013567ffffffffffffffff81111561451c5761451b613e1d565b5b614528888289016142a9565b935050606086013567ffffffffffffffff81111561454957614548613e1d565b5b614555888289016142a9565b925050608086013567ffffffffffffffff81111561457657614575613e1d565b5b6145828882890161434a565b9150509295509295909350565b600080604083850312156145a6576145a5613e18565b5b60006145b485828601614454565b92505060206145c585828601613e39565b9150509250929050565b6000602082840312156145e5576145e4613e18565b5b60006145f384828501613e39565b91505092915050565b600067ffffffffffffffff82111561461757614616613fc4565b5b602082029050602081019050919050565b600061463b614636846145fc565b614024565b9050808382526020820190506020840283018581111561465e5761465d61423b565b5b835b8181101561468757806146738882613e39565b845260208401935050602081019050614660565b5050509392505050565b600082601f8301126146a6576146a5613fa9565b5b81356146b6848260208601614628565b91505092915050565b600080604083850312156146d6576146d5613e18565b5b600083013567ffffffffffffffff8111156146f4576146f3613e1d565b5b61470085828601614691565b925050602083013567ffffffffffffffff81111561472157614720613e1d565b5b61472d858286016142a9565b9150509250929050565b600081519050919050565b600082825260208201905092915050565b6000819050602082019050919050565b61476c81613e4e565b82525050565b600061477e8383614763565b60208301905092915050565b6000602082019050919050565b60006147a282614737565b6147ac8185614742565b93506147b783614753565b8060005b838110156147e85781516147cf8882614772565b97506147da8361478a565b9250506001810190506147bb565b5085935050505092915050565b6000602082019050818103600083015261480f8184614797565b905092915050565b6000806040838503121561482e5761482d613e18565b5b600061483c85828601613e39565b925050602083013567ffffffffffffffff81111561485d5761485c613e1d565b5b6148698582860161434a565b9150509250929050565b60008060006060848603121561488c5761488b613e18565b5b600061489a86828701613e39565b935050602084013567ffffffffffffffff8111156148bb576148ba613e1d565b5b6148c7868287016142a9565b925050604084013567ffffffffffffffff8111156148e8576148e7613e1d565b5b6148f4868287016142a9565b9150509250925092565b6000806000806080858703121561491857614917613e18565b5b600061492687828801613e39565b945050602061493787828801613e6f565b935050604061494887828801613e6f565b925050606085013567ffffffffffffffff81111561496957614968613e1d565b5b6149758782880161434a565b91505092959194509250565b61498a81613f73565b811461499557600080fd5b50565b6000813590506149a781614981565b92915050565b600080604083850312156149c4576149c3613e18565b5b60006149d285828601613e39565b92505060206149e385828601614998565b9150509250929050565b60008060408385031215614a0457614a03613e18565b5b6000614a1285828601613e39565b9250506020614a2385828601613e39565b9150509250929050565b600080600080600060a08688031215614a4957614a48613e18565b5b6000614a5788828901613e39565b9550506020614a6888828901613e39565b9450506040614a7988828901613e6f565b9350506060614a8a88828901613e6f565b925050608086013567ffffffffffffffff811115614aab57614aaa613e1d565b5b614ab78882890161434a565b9150509295509295909350565b600080600060608486031215614add57614adc613e18565b5b6000614aeb86828701613e39565b9350506020614afc86828701613e6f565b9250506040614b0d86828701613e6f565b9150509250925092565b7f455243313135353a2061646472657373207a65726f206973206e6f742061207660008201527f616c6964206f776e657200000000000000000000000000000000000000000000602082015250565b6000614b73602a83614170565b9150614b7e82614b17565b604082019050919050565b60006020820190508181036000830152614ba281614b66565b9050919050565b7f4e487b7100000000000000000000000000000000000000000000000000000000600052602260045260246000fd5b60006002820490506001821680614bf057607f821691505b602082108103614c0357614c02614ba9565b5b50919050565b7f455243313135353a2063616c6c6572206973206e6f7420746f6b656e206f776e60008201527f6572206f7220617070726f766564000000000000000000000000000000000000602082015250565b6000614c65602e83614170565b9150614c7082614c09565b604082019050919050565b60006020820190508181036000830152614c9481614c58565b9050919050565b7f416363657373436f6e74726f6c3a2063616e206f6e6c792072656e6f756e636560008201527f20726f6c657320666f722073656c660000000000000000000000000000000000602082015250565b6000614cf7602f83614170565b9150614d0282614c9b565b604082019050919050565b60006020820190508181036000830152614d2681614cea565b9050919050565b7f46756e6374696f6e206d7573742062652063616c6c6564207468726f7567682060008201527f64656c656761746563616c6c0000000000000000000000000000000000000000602082015250565b6000614d89602c83614170565b9150614d9482614d2d565b604082019050919050565b60006020820190508181036000830152614db881614d7c565b9050919050565b7f46756e6374696f6e206d7573742062652063616c6c6564207468726f7567682060008201527f6163746976652070726f78790000000000000000000000000000000000000000602082015250565b6000614e1b602c83614170565b9150614e2682614dbf565b604082019050919050565b60006020820190508181036000830152614e4a81614e0e565b9050919050565b7f455243313135353a206163636f756e747320616e6420696473206c656e67746860008201527f206d69736d617463680000000000000000000000000000000000000000000000602082015250565b6000614ead602983614170565b9150614eb882614e51565b604082019050919050565b60006020820190508181036000830152614edc81614ea0565b9050919050565b7f4e487b7100000000000000000000000000000000000000000000000000000000600052603260045260246000fd5b7f4e487b7100000000000000000000000000000000000000000000000000000000600052601160045260246000fd5b6000614f4c82613e4e565b91507fffffffffffffffffffffffffffffffffffffffffffffffffffffffffffffffff8203614f7e57614f7d614f12565b5b600182019050919050565b7f555550535570677261646561626c653a206d757374206e6f742062652063616c60008201527f6c6564207468726f7567682064656c656761746563616c6c0000000000000000602082015250565b6000614fe5603883614170565b9150614ff082614f89565b604082019050919050565b6000602082019050818103600083015261501481614fd8565b9050919050565b7f496e697469616c697a61626c653a20636f6e747261637420697320616c72656160008201527f647920696e697469616c697a6564000000000000000000000000000000000000602082015250565b6000615077602e83614170565b91506150828261501b565b604082019050919050565b600060208201905081810360008301526150a68161506a565b9050919050565b6000819050919050565b600060ff82169050919050565b6000819050919050565b60006150e96150e46150df846150ad565b6150c4565b6150b7565b9050919050565b6150f9816150ce565b82525050565b600060208201905061511460008301846150f0565b92915050565b7f455243313135353a206d696e7420746f20746865207a65726f2061646472657360008201527f7300000000000000000000000000000000000000000000000000000000000000602082015250565b6000615176602183614170565b91506151818261511a565b604082019050919050565b600060208201905081810360008301526151a581615169565b9050919050565b7f455243313135353a2069647320616e6420616d6f756e7473206c656e6774682060008201527f6d69736d61746368000000000000000000000000000000000000000000000000602082015250565b6000615208602883614170565b9150615213826151ac565b604082019050919050565b60006020820190508181036000830152615237816151fb565b9050919050565b600061524982613e4e565b915061525483613e4e565b9250827fffffffffffffffffffffffffffffffffffffffffffffffffffffffffffffffff0382111561528957615288614f12565b5b828201905092915050565b600060408201905081810360008301526152ae8185614797565b905081810360208301526152c28184614797565b90509392505050565b7f455243313135353a207472616e7366657220746f20746865207a65726f20616460008201527f6472657373000000000000000000000000000000000000000000000000000000602082015250565b6000615327602583614170565b9150615332826152cb565b604082019050919050565b600060208201905081810360008301526153568161531a565b9050919050565b7f455243313135353a20696e73756666696369656e742062616c616e636520666f60008201527f72207472616e7366657200000000000000000000000000000000000000000000602082015250565b60006153b9602a83614170565b91506153c48261535d565b604082019050919050565b600060208201905081810360008301526153e8816153ac565b9050919050565b6000815190506153fe8161443d565b92915050565b60006020828403121561541a57615419613e18565b5b6000615428848285016153ef565b91505092915050565b7f45524331393637557067726164653a206e657720696d706c656d656e7461746960008201527f6f6e206973206e6f742055555053000000000000000000000000000000000000602082015250565b600061548d602e83614170565b915061549882615431565b604082019050919050565b600060208201905081810360008301526154bc81615480565b9050919050565b7f45524331393637557067726164653a20756e737570706f727465642070726f7860008201527f6961626c65555549440000000000000000000000000000000000000000000000602082015250565b600061551f602983614170565b915061552a826154c3565b604082019050919050565b6000602082019050818103600083015261554e81615512565b9050919050565b7f455243313135353a206275726e2066726f6d20746865207a65726f206164647260008201527f6573730000000000000000000000000000000000000000000000000000000000602082015250565b60006155b1602383614170565b91506155bc82615555565b604082019050919050565b600060208201905081810360008301526155e0816155a4565b9050919050565b7f455243313135353a206275726e20616d6f756e7420657863656564732062616c60008201527f616e636500000000000000000000000000000000000000000000000000000000602082015250565b6000615643602483614170565b915061564e826155e7565b604082019050919050565b6000602082019050818103600083015261567281615636565b9050919050565b600060408201905061568e6000830185613ec4565b61569b6020830184613ec4565b9392505050565b7f455243313135353a2073657474696e6720617070726f76616c2073746174757360008201527f20666f722073656c660000000000000000000000000000000000000000000000602082015250565b60006156fe602983614170565b9150615709826156a2565b604082019050919050565b6000602082019050818103600083015261572d816156f1565b9050919050565b7f496e697469616c697a61626c653a20636f6e7472616374206973206e6f74206960008201527f6e697469616c697a696e67000000000000000000000000000000000000000000602082015250565b6000615790602b83614170565b915061579b82615734565b604082019050919050565b600060208201905081810360008301526157bf81615783565b9050919050565b600081905092915050565b7f416363657373436f6e74726f6c3a206163636f756e7420000000000000000000600082015250565b60006158076017836157c6565b9150615812826157d1565b601782019050919050565b600061582882614165565b61583281856157c6565b9350615842818560208601614181565b80840191505092915050565b7f206973206d697373696e6720726f6c6520000000000000000000000000000000600082015250565b60006158846011836157c6565b915061588f8261584e565b601182019050919050565b60006158a5826157fa565b91506158b1828561581d565b91506158bc82615877565b91506158c8828461581d565b91508190509392505050565b600081519050919050565b600082825260208201905092915050565b60006158fb826158d4565b61590581856158df565b9350615915818560208601614181565b61591e81613fb3565b840191505092915050565b600060a08201905061593e6000830188613de4565b61594b6020830187613de4565b818103604083015261595d8186614797565b905081810360608301526159718185614797565b9050818103608083015261598581846158f0565b90509695505050505050565b6000815190506159a081613f1a565b92915050565b6000602082840312156159bc576159bb613e18565b5b60006159ca84828501615991565b91505092915050565b60008160e01c9050919050565b600060033d11156159ff5760046000803e6159fc6000516159d3565b90505b90565b600060443d10615a8f57615a14613e0e565b60043d036004823e80513d602482011167ffffffffffffffff82111715615a3c575050615a8f565b808201805167ffffffffffffffff811115615a5a5750505050615a8f565b80602083010160043d038501811115615a77575050505050615a8f565b615a8682602001850186613ff3565b82955050505050505b90565b7f455243313135353a207472616e7366657220746f206e6f6e2d4552433131353560008201527f526563656976657220696d706c656d656e746572000000000000000000000000602082015250565b6000615aee603483614170565b9150615af982615a92565b604082019050919050565b60006020820190508181036000830152615b1d81615ae1565b9050919050565b7f455243313135353a204552433131353552656365697665722072656a6563746560008201527f6420746f6b656e73000000000000000000000000000000000000000000000000602082015250565b6000615b80602883614170565b9150615b8b82615b24565b604082019050919050565b60006020820190508181036000830152615baf81615b73565b9050919050565b7f455243313936373a206e657720696d706c656d656e746174696f6e206973206e60008201527f6f74206120636f6e747261637400000000000000000000000000000000000000602082015250565b6000615c12602d83614170565b9150615c1d82615bb6565b604082019050919050565b60006020820190508181036000830152615c4181615c05565b9050919050565b7f5061757361626c653a206e6f7420706175736564000000000000000000000000600082015250565b6000615c7e601483614170565b9150615c8982615c48565b602082019050919050565b60006020820190508181036000830152615cad81615c71565b9050919050565b600060a082019050615cc96000830188613de4565b615cd66020830187613de4565b615ce36040830186613ec4565b615cf06060830185613ec4565b8181036080830152615d0281846158f0565b90509695505050505050565b7f5061757361626c653a2070617573656400000000000000000000000000000000600082015250565b6000615d44601083614170565b9150615d4f82615d0e565b602082019050919050565b60006020820190508181036000830152615d7381615d37565b9050919050565b6000615d8582613e4e565b9150615d9083613e4e565b9250817fffffffffffffffffffffffffffffffffffffffffffffffffffffffffffffffff0483118215151615615dc957615dc8614f12565b5b828202905092915050565b6000615ddf82613e4e565b915060008203615df257615df1614f12565b5b600182039050919050565b7f537472696e67733a20686578206c656e67746820696e73756666696369656e74600082015250565b6000615e33602083614170565b9150615e3e82615dfd565b602082019050919050565b60006020820190508181036000830152615e6281615e26565b9050919050565b7f455243313135353a206275726e20616d6f756e74206578636565647320746f7460008201527f616c537570706c79000000000000000000000000000000000000000000000000602082015250565b6000615ec5602883614170565b9150615ed082615e69565b604082019050919050565b60006020820190508181036000830152615ef481615eb8565b9050919050565b7f416464726573733a2064656c65676174652063616c6c20746f206e6f6e2d636f60008201527f6e74726163740000000000000000000000000000000000000000000000000000602082015250565b6000615f57602683614170565b9150615f6282615efb565b604082019050919050565b60006020820190508181036000830152615f8681615f4a565b9050919050565b600081905092915050565b6000615fa3826158d4565b615fad8185615f8d565b9350615fbd818560208601614181565b80840191505092915050565b6000615fd58284615f98565b91508190509291505056fe416464726573733a206c6f772d6c6576656c2064656c65676174652063616c6c206661696c6564a26469706673582212207f3383b6bedd8d1900c88915bb76b17ab893e0da775baaf366bf8c448dd5499e64736f6c634300080e0033",
  "immutableReferences": {
    "1129": [
      {
        "length": 32,
        "start": 2932
      },
      {
        "length": 32,
        "start": 3074
      },
      {
        "length": 32,
        "start": 3665
      },
      {
        "length": 32,
        "start": 3807
      },
      {
        "length": 32,
        "start": 4003
      }
    ]
  },
  "source": "// SPDX-License-Identifier: MIT\r\npragma solidity ^0.8.4;\r\n\r\nimport \"@openzeppelin/contracts-upgradeable/token/ERC1155/ERC1155Upgradeable.sol\";\r\nimport \"@openzeppelin/contracts-upgradeable/access/AccessControlUpgradeable.sol\";\r\nimport \"@openzeppelin/contracts-upgradeable/security/PausableUpgradeable.sol\";\r\nimport \"@openzeppelin/contracts-upgradeable/token/ERC1155/extensions/ERC1155BurnableUpgradeable.sol\";\r\nimport \"@openzeppelin/contracts-upgradeable/token/ERC1155/extensions/ERC1155SupplyUpgradeable.sol\";\r\nimport \"@openzeppelin/contracts-upgradeable/proxy/utils/Initializable.sol\";\r\nimport \"@openzeppelin/contracts-upgradeable/proxy/utils/UUPSUpgradeable.sol\";\r\n\r\n// ItemTracker (IT) v1.0.0\r\n// IT is a contract that manages the creation and tracking of items\\\r\n// IT creates a delegate call to EncryptionTools (ET) to encrypt items\r\n// for version 1.0.0, IT uses the ERC1155 standard\r\n// IT: createItem, getItem, burnItem, pause, unpause are the main functions that will be used by the end user\r\n// IT: createItem (ERC1155), burnItem (ERC1155), pauseItem (ERC1155), unpauseItem (ERC1155), pause, unpause, hasRole, renounceRole, grantRole\r\n// IT: setURI, supportsInterface, balanceOf, balanceOfBatch, setApprovalForAll, isApprovedForAll, safeTransferFrom, safeBatchTransferFrom\r\n\r\n\r\n\r\ncontract ItemTracker is Initializable, ERC1155Upgradeable, AccessControlUpgradeable, PausableUpgradeable, ERC1155BurnableUpgradeable, ERC1155SupplyUpgradeable, UUPSUpgradeable {\r\n    struct Item {\r\n        bytes32[] encryptedItem;\r\n    }\r\n    event EncryptionToolsSet(address _encryptionTools);\r\n    bytes32 public constant URI_SETTER_ROLE = keccak256(\"URI_SETTER_ROLE\");\r\n    bytes32 public constant PAUSER_ROLE = keccak256(\"PAUSER_ROLE\");\r\n    bytes32 public constant MINTER_ROLE = keccak256(\"MINTER_ROLE\");\r\n    bytes32 public constant UPGRADER_ROLE = keccak256(\"UPGRADER_ROLE\");\r\n    address public ETAddress;\r\n    uint256 public itemID;\r\n    mapping (uint256 => Item) internal items;\r\n    \r\n    /// @custom:oz-upgrades-unsafe-allow constructor\r\n    constructor() {\r\n        _disableInitializers();\r\n    }\r\n    \r\n    function initialize(address _ETAddress) public initializer {\r\n        __ERC1155_init(\"https://ipfs.io/ipfs/\");\r\n        __AccessControl_init();\r\n        __Pausable_init();\r\n        __ERC1155Burnable_init();\r\n        __ERC1155Supply_init();\r\n        __UUPSUpgradeable_init();\r\n        _setupRole(DEFAULT_ADMIN_ROLE, msg.sender);\r\n        _setupRole(URI_SETTER_ROLE, msg.sender);\r\n        _setupRole(PAUSER_ROLE, msg.sender);\r\n        _setupRole(MINTER_ROLE, msg.sender);\r\n        _setupRole(UPGRADER_ROLE, msg.sender);\r\n        ETAddress = _ETAddress;\r\n    }\r\n    // creates a delegate call to ET to encrypt an item\r\n    function getEncryption(string[] memory _item, string[] memory _hashKeys) internal returns (bytes32[] memory) {\r\n        (bool success, bytes memory result) = ETAddress.delegatecall(abi.encodeWithSignature(\"createItem(string[],string[])\", _item, _hashKeys));\r\n        return abi.decode(result, (bytes32[]));\r\n        }\r\n    // creates an NFT by randomly placing the item into a slot in an array of 10,000,000 items\r\n    // the item is encrypted by ET\r\n    // the item is stored in the items mapping\r\n    // the itemID is returned\r\n    function createItem(string[] memory _item, string[] memory _hashKeys) internal returns (uint256) {\r\n        // create a random number between 0 and 10,000,000\r\n        uint256 random = uint256(keccak256(abi.encodePacked(block.timestamp, block.difficulty, msg.sender))) % 10000000;\r\n        // create an item\r\n        Item memory newItem;\r\n        newItem.encryptedItem = getEncryption(_item, _hashKeys);\r\n        // store the item in the items mapping\r\n        items[random] = newItem;\r\n        // return the itemID\r\n        return random;\r\n    }\r\n    // create an item and add it to the items mapping\r\n    function addIteration(string[] memory _item, string[] memory _hashKeys) internal returns (uint256) {\r\n        // create an item\r\n        Item memory newItem;\r\n        newItem.encryptedItem = getEncryption(_item, _hashKeys);\r\n        // store the item in the items mapping\r\n        items[itemID] = newItem;\r\n        // return the itemID\r\n        return itemID;\r\n    }\r\n    // change the order of the items in the items mapping\r\n    function swapItems(uint256 _itemID1, uint256 _itemID2) internal {\r\n        Item memory item1 = items[_itemID1];\r\n        Item memory item2 = items[_itemID2];\r\n        items[_itemID1] = item2;\r\n        items[_itemID2] = item1;\r\n    }\r\n    // get an item from the items mapping\r\n    function getItem(uint256 _itemID) internal view returns (bytes32[] memory) {\r\n        return items[_itemID].encryptedItem;\r\n    }\r\n    // burn an item from the items mapping\r\n    function burnItem(uint256 _itemID) internal {\r\n        delete items[_itemID];\r\n    }\r\n    // sets the URI for the ERC1155 standard\r\n    function setURI(string memory newuri) public onlyRole(URI_SETTER_ROLE) {\r\n        _setURI(newuri);\r\n    }\r\n    // pauses the contract using the ERC1155 standard\r\n    function pause() public onlyRole(PAUSER_ROLE) {\r\n        _pause();\r\n    }\r\n    // unpauses the contract using the ERC1155 standard\r\n    function unpause() public onlyRole(PAUSER_ROLE) {\r\n        _unpause();\r\n    }\r\n    // minting function for the ERC1155 standard\r\n    function mint(address account, uint256 id, uint256 amount, bytes memory data)\r\n        public\r\n        onlyRole(MINTER_ROLE)\r\n    {\r\n        _mint(account, id, amount, data);\r\n    }\r\n    // mintBatch function for the ERC1155 standard\r\n    function mintBatch(address to, uint256[] memory ids, uint256[] memory amounts, bytes memory data)\r\n        public\r\n        onlyRole(MINTER_ROLE)\r\n    {\r\n        _mintBatch(to, ids, amounts, data);\r\n    }\r\n    // burn function for the ERC1155 standard\r\n    function _beforeTokenTransfer(address operator, address from, address to, uint256[] memory ids, uint256[] memory amounts, bytes memory data)\r\n        internal\r\n        whenNotPaused\r\n        override(ERC1155Upgradeable, ERC1155SupplyUpgradeable)\r\n    {\r\n        super._beforeTokenTransfer(operator, from, to, ids, amounts, data);\r\n    }\r\n\r\n    // allows the contract to be upgraded\r\n    function _authorizeUpgrade(address newImplementation)\r\n        internal\r\n        onlyRole(UPGRADER_ROLE)\r\n        override\r\n    {}\r\n\r\n    // The following functions are overrides required by Solidity.\r\n\r\n    function supportsInterface(bytes4 interfaceId)\r\n        public\r\n        view\r\n        override(ERC1155Upgradeable, AccessControlUpgradeable)\r\n        returns (bool)\r\n    {\r\n        return super.supportsInterface(interfaceId);\r\n    }\r\n}",
  "sourcePath": "C:\\Users\\mosle\\Documents\\GitHub\\nWonderland\\contracts\\DALI\\002_ItemTracker.sol",
  "compiler": {
    "name": "solc",
    "version": "0.8.14+commit.80d49f37.Emscripten.clang"
  },
  "schemaVersion": "3.4.8",
  "updatedAt": "2022-12-09T15:56:11.685Z",
  "devdoc": {
    "kind": "dev",
    "methods": {
      "balanceOf(address,uint256)": {
        "details": "See {IERC1155-balanceOf}. Requirements: - `account` cannot be the zero address."
      },
      "balanceOfBatch(address[],uint256[])": {
        "details": "See {IERC1155-balanceOfBatch}. Requirements: - `accounts` and `ids` must have the same length."
      },
      "constructor": {
        "custom:oz-upgrades-unsafe-allow": "constructor"
      },
      "exists(uint256)": {
        "details": "Indicates whether any token exist with a given id, or not."
      },
      "getRoleAdmin(bytes32)": {
        "details": "Returns the admin role that controls `role`. See {grantRole} and {revokeRole}. To change a role's admin, use {_setRoleAdmin}."
      },
      "grantRole(bytes32,address)": {
        "details": "Grants `role` to `account`. If `account` had not been already granted `role`, emits a {RoleGranted} event. Requirements: - the caller must have ``role``'s admin role. May emit a {RoleGranted} event."
      },
      "hasRole(bytes32,address)": {
        "details": "Returns `true` if `account` has been granted `role`."
      },
      "isApprovedForAll(address,address)": {
        "details": "See {IERC1155-isApprovedForAll}."
      },
      "paused()": {
        "details": "Returns true if the contract is paused, and false otherwise."
      },
      "proxiableUUID()": {
        "details": "Implementation of the ERC1822 {proxiableUUID} function. This returns the storage slot used by the implementation. It is used to validate the implementation's compatibility when performing an upgrade. IMPORTANT: A proxy pointing at a proxiable contract should not be considered proxiable itself, because this risks bricking a proxy that upgrades to it, by delegating to itself until out of gas. Thus it is critical that this function revert if invoked through a proxy. This is guaranteed by the `notDelegated` modifier."
      },
      "renounceRole(bytes32,address)": {
        "details": "Revokes `role` from the calling account. Roles are often managed via {grantRole} and {revokeRole}: this function's purpose is to provide a mechanism for accounts to lose their privileges if they are compromised (such as when a trusted device is misplaced). If the calling account had been revoked `role`, emits a {RoleRevoked} event. Requirements: - the caller must be `account`. May emit a {RoleRevoked} event."
      },
      "revokeRole(bytes32,address)": {
        "details": "Revokes `role` from `account`. If `account` had been granted `role`, emits a {RoleRevoked} event. Requirements: - the caller must have ``role``'s admin role. May emit a {RoleRevoked} event."
      },
      "safeBatchTransferFrom(address,address,uint256[],uint256[],bytes)": {
        "details": "See {IERC1155-safeBatchTransferFrom}."
      },
      "safeTransferFrom(address,address,uint256,uint256,bytes)": {
        "details": "See {IERC1155-safeTransferFrom}."
      },
      "setApprovalForAll(address,bool)": {
        "details": "See {IERC1155-setApprovalForAll}."
      },
      "totalSupply(uint256)": {
        "details": "Total amount of tokens in with a given id."
      },
      "upgradeTo(address)": {
        "details": "Upgrade the implementation of the proxy to `newImplementation`. Calls {_authorizeUpgrade}. Emits an {Upgraded} event."
      },
      "upgradeToAndCall(address,bytes)": {
        "details": "Upgrade the implementation of the proxy to `newImplementation`, and subsequently execute the function call encoded in `data`. Calls {_authorizeUpgrade}. Emits an {Upgraded} event."
      },
      "uri(uint256)": {
        "details": "See {IERC1155MetadataURI-uri}. This implementation returns the same URI for *all* token types. It relies on the token type ID substitution mechanism https://eips.ethereum.org/EIPS/eip-1155#metadata[defined in the EIP]. Clients calling this function must replace the `\\{id\\}` substring with the actual token type ID."
      }
    },
    "version": 1
  },
  "userdoc": {
    "kind": "user",
    "methods": {},
    "version": 1
  }
}