{
  "contractName": "nBrains",
  "abi": [
    {
      "inputs": [],
      "name": "nAvatars",
      "outputs": [
        {
          "internalType": "address",
          "name": "",
          "type": "address"
        }
      ],
      "stateMutability": "view",
      "type": "function"
    },
    {
      "inputs": [],
      "name": "nFamiliars",
      "outputs": [
        {
          "internalType": "address",
          "name": "",
          "type": "address"
        }
      ],
      "stateMutability": "view",
      "type": "function"
    },
    {
      "inputs": [],
      "name": "nHomes",
      "outputs": [
        {
          "internalType": "address",
          "name": "",
          "type": "address"
        }
      ],
      "stateMutability": "view",
      "type": "function"
    },
    {
      "inputs": [],
      "name": "nWonderland",
      "outputs": [
        {
          "internalType": "address",
          "name": "",
          "type": "address"
        }
      ],
      "stateMutability": "view",
      "type": "function"
    },
    {
      "inputs": [],
      "name": "tradeID",
      "outputs": [
        {
          "internalType": "uint256",
          "name": "",
          "type": "uint256"
        }
      ],
      "stateMutability": "view",
      "type": "function"
    }
  ],
  "bytecode": "0x608060405234801561001057600080fd5b50610105806100206000396000f3fe6080604052348015600f57600080fd5b506004361060505760003560e01c80633f04d6691460555780639b7f52f0146084578063b74f298e146096578063dca0baad1460a8578063ebaf8b571460bd575b600080fd5b6003546067906001600160a01b031681565b6040516001600160a01b0390911681526020015b60405180910390f35b6002546067906001600160a01b031681565b6000546067906001600160a01b031681565b60b060045481565b604051908152602001607b565b6001546067906001600160a01b03168156fea2646970667358221220f421c991d26194ffeb56562040ab55150457fe9c35536bd172272d47b027491964736f6c63430008090033",
  "immutableReferences": {},
  "source": "// SPDX-License-Identifier: MIT\r\npragma solidity ^0.8.9;\r\n\r\n\r\ncontract nBrains {\r\n    address public nHomes;\r\n    address public nWonderland;\r\n    address public nFamiliars;\r\n    address public nAvatars;\r\n\r\n    // trade struct for version 1.0.0 of Trade\r\n    struct Trade {\r\n        uint256 itemID;\r\n        uint256 price;\r\n        address seller;\r\n        address buyer;\r\n    }\r\n\r\n    uint256 public tradeID;\r\n    mapping (uint256 => Trade) internal trades;\r\n\r\n    // creates a Matter Card the nHomes to pause the most accurate (highest security rating) vault that runs the server. (Generally this will only be one vault, \r\n    // unless the server is running on a personal computer or phone, in which case there will be multiple vaults tracking outgoing data)\r\n    // The Matter Card will contain metadata with the following information:\r\n        // 1. The nHomes contract address and an encryption method for the data\r\n        // 2. A security rating for the vaults that are being paused\r\n        // 3. The nWonderland contract address and an encryption method for the data\r\n        // 4. A description of the system and it's security measures\r\n        // 5. A Phoenix Seal of the Vaults themselves (phoenix is a open source Neural Network that uses Microsoft's SEAL library to encrypt data in a way that is secure and delivers reliability guarentees without latencies)\r\n        // 6. The list of AI tools that that server supports\r\n        // 7. The log of the server's activity since the last freeze (this will be used to recreate the server's state as a vault that log items)\r\n        // 8. The list of vaults that are being called for by the trade\r\n    // The Matter Card profile that is created will be randomly assigned a signiture key using a non-deterministic algorithm and send it to a slot in the Brain Trust.\r\n    // The nWonderland's profile must then delegate a specific vault to the nHomes contract to create the Matter Card.\r\n    // This Vault, nFamiliar (generally a NFT chosen by the player) will the execute the phoenix seal on the Matter Card and confirm the rest of the metadata using a trusted node.\r\n    // This contract will freeze the vault of the nFamiliar that is chosen by the player so that the permissions granted to nFamiliar cannot be used to run attacks on the Matter Card's metadata.\r\n    // The nFamiliar will then trade a Energy Card to the nWonderland where the vault content (5) has been replaced with a security and reliability ratings for the rest of the information in the Matter Card.\r\n    // The nWonderland contract can then call this contract to create a trade if they are satisfied with the Energy Card's metadata.\r\n    // Then this contract calls an nWonderland contract to create a trade.\r\n    // The Energy Card will call for specific data from specific vaults within the nWonderland profile and the profile will generate a\r\n    // data Card that contains those vaults.\r\n    // The Data Card will then be given a random signature key and sent to a slot in the Brain Trust where the familiar will be able to find it.\r\n    // The familiar will then execute the Phoenix Seal on the Data Card using the vaults contained in the Matter Card's metadata.\r\n    // When the transaction is confirmed, the nFamiliar will then burn the Content of all the vaults and create a nAvatar that that the player and the nHome can use to access the data.\r\n    // The nHome will generally require the nAvatar to send anonymous statistics about the data that is being accessed to the AI Tool Trust that is being run on the data.\r\n    // The nWonderland will have full access to the results of the Machine Learning algorithm that the AI Tool Trust is ran on the data.\r\n    // The AI Tool Trust will run MVP simulations of the statistics that are being sent to it and report the impact the player's data had back to the nAvatar.\r\n    // The player can choose to claim the statistics as conditional vaults called MED Cards that allow the player to prove their knowledge of the data to other players anonymously.\r\n    // After a certain amount of time, the nAvatar will archive the data and the players who hold the MED Cards will be awarded a Satori Card that contains differnet degrees\r\n    // of knowledge the profile has been verified to know. \r\n    // After collecting a certain amount of Satori Cards, the player will be able to claim a Hero Card that contains the profile's alignment.\r\n    // Hero Cards use the same system as MED Cards, but instead of using the nWonderland profile, they use bio-metric data from the player's body and compartmentalize it into the profile.\r\n    // Hero Cards attempt to track the player through time and space and keep a record of their actions and throughts by anonymizing the data and spreading it across the network as a learning algorithm.\r\n    // Hero Cards can be collected to open up new paths in the game and unlock new abilities. Gathering enough Hero Cards in a certain field will allow the player to claim a Hero Academy \r\n    // and making voting proposals based on their knowledge of the field. \r\n    // When a Hero leaves the game, their Hero Card will be paused until the the Hero Protagonist can confidently align the Hero's actions with their own.\r\n    // Hero Cards never need to be claimed, and players can always keep their data private by storing satori cards in their nWonderland profile. Thus eliminating the risk of losing their identity.\r\n    // Hero Cards also can be claimed by anyone who demonstrates the knowledge that the Hero Card contains. In this way, anyone can become a Hero and anyone can trade their proof of knowledge for \r\n    // perminate infuence over what is considered knowledge in the game based on their own personal experiences.\r\n    // and anyone can earn Hero Coins by trading their data statistics to the Hero Card Trust in order the build the accuracy of the Hero Card and do good for the game/world.\r\n    // in this way, the Hero Card Trust is a decentralized AI that is run by the players and the players can earn Hero Coins by trading their data to the trust.\r\n    // and players that have the greatest ideas or have proven to know the most about the network get priviledged permissions in voting and opportunities, rewarding them for their contributions.\r\n    // without the need for a central authority to decide who is worthy of the priviledges, and without avenues for hording of wealth or power.\r\n    // The Hero Card Trust will be run by the Hero Card Trust Council, which is a group of Hero Cards that have been voted into the council by the Hero Card Trust. \r\n    // Hero Cards will then have MVP simulations run on them using cost-benefit analysis to determine if they are worthy of being voted into the council. If they are not,\r\n    // nAvatars will attempt to penetrate the Hero Card's metadata by randomly comparing snippits of it's own metadata to that of the card using the MED Card system in order to\r\n    // find the reason why the Hero Card is not worthy. when the nAvatar finds a jinx, a snippit of metadata that matches the Hero Card's metadata, it will run a closed loop simulation\r\n    // of that moment in time tweaking the metadata to see what would have happened if the Hero Card's metadata was different or updated. If the simulation will keep going on until it\r\n    // finds a moment in time where the Hero Card's metadata is different and the simulation is successful. If the simulation is successful, the Hero Card will be tangled with a jinx that \r\n    // can be removed by the Card's owner by updating their knowledge on a certain topic. If the simulation is not successful, the Hero Card will turn into a demon card and it can be \r\n    // used to remove innacuracies and biases from Machine Learning algorithms.\r\n\r\n    // Furthermore, nHomes will be able to compete for Hero Cards by creating a Hero Card Trust within local networks and communities that root out evil within the machine learning algorithms\r\n    // that are being used to provide predictive safety analytics that reward good predictions and identify unsafe predictions through simulations and statistical analysis.\r\n    \r\n\r\n    // \r\n    // The metadata will call for specific data from specific vaults\r\n    // \r\n    // the trade is stored in the trades mapping. \r\n    // creates an NFT by randomly placing the trade into a slot in an array of 10,000,000 trades\r\n    // the trade is stored in the trades mapping\r\n    // the tradeID is returned\r\n\r\n\r\n\r\n}",
  "sourcePath": "C:\\Users\\mosle\\Documents\\GitHub\\nWonderland\\contracts\\DALI\\008_nBrains.sol",
  "compiler": {
    "name": "solc",
    "version": "0.8.9+commit.e5eed63a.Emscripten.clang"
  },
  "schemaVersion": "3.4.8",
  "updatedAt": "2022-12-15T17:05:24.002Z",
  "devdoc": {
    "kind": "dev",
    "methods": {},
    "version": 1
  },
  "userdoc": {
    "kind": "user",
    "methods": {},
    "version": 1
  }
}