{
  "contractName": "nHomes",
  "abi": [
    {
      "anonymous": false,
      "inputs": [
        {
          "indexed": false,
          "internalType": "address",
          "name": "previousAdmin",
          "type": "address"
        },
        {
          "indexed": false,
          "internalType": "address",
          "name": "newAdmin",
          "type": "address"
        }
      ],
      "name": "AdminChanged",
      "type": "event"
    },
    {
      "anonymous": false,
      "inputs": [
        {
          "indexed": true,
          "internalType": "address",
          "name": "account",
          "type": "address"
        },
        {
          "indexed": true,
          "internalType": "address",
          "name": "operator",
          "type": "address"
        },
        {
          "indexed": false,
          "internalType": "bool",
          "name": "approved",
          "type": "bool"
        }
      ],
      "name": "ApprovalForAll",
      "type": "event"
    },
    {
      "anonymous": false,
      "inputs": [
        {
          "indexed": true,
          "internalType": "address",
          "name": "beacon",
          "type": "address"
        }
      ],
      "name": "BeaconUpgraded",
      "type": "event"
    },
    {
      "anonymous": false,
      "inputs": [
        {
          "indexed": false,
          "internalType": "address",
          "name": "_encryptionTools",
          "type": "address"
        }
      ],
      "name": "EncryptionToolsSet",
      "type": "event"
    },
    {
      "anonymous": false,
      "inputs": [
        {
          "indexed": false,
          "internalType": "address",
          "name": "_home",
          "type": "address"
        }
      ],
      "name": "HomeSet",
      "type": "event"
    },
    {
      "anonymous": false,
      "inputs": [
        {
          "indexed": false,
          "internalType": "uint8",
          "name": "version",
          "type": "uint8"
        }
      ],
      "name": "Initialized",
      "type": "event"
    },
    {
      "anonymous": false,
      "inputs": [
        {
          "indexed": false,
          "internalType": "address",
          "name": "_itemTracker",
          "type": "address"
        }
      ],
      "name": "ItemTrackerSet",
      "type": "event"
    },
    {
      "anonymous": false,
      "inputs": [
        {
          "indexed": false,
          "internalType": "address",
          "name": "_node",
          "type": "address"
        }
      ],
      "name": "NodeSet",
      "type": "event"
    },
    {
      "anonymous": false,
      "inputs": [
        {
          "indexed": false,
          "internalType": "address",
          "name": "_office",
          "type": "address"
        }
      ],
      "name": "OfficeSet",
      "type": "event"
    },
    {
      "anonymous": false,
      "inputs": [
        {
          "indexed": true,
          "internalType": "address",
          "name": "previousOwner",
          "type": "address"
        },
        {
          "indexed": true,
          "internalType": "address",
          "name": "newOwner",
          "type": "address"
        }
      ],
      "name": "OwnershipTransferred",
      "type": "event"
    },
    {
      "anonymous": false,
      "inputs": [
        {
          "indexed": false,
          "internalType": "address",
          "name": "account",
          "type": "address"
        }
      ],
      "name": "Paused",
      "type": "event"
    },
    {
      "anonymous": false,
      "inputs": [
        {
          "indexed": false,
          "internalType": "address",
          "name": "_profile",
          "type": "address"
        }
      ],
      "name": "ProfileSet",
      "type": "event"
    },
    {
      "anonymous": false,
      "inputs": [
        {
          "indexed": true,
          "internalType": "bytes32",
          "name": "role",
          "type": "bytes32"
        },
        {
          "indexed": true,
          "internalType": "bytes32",
          "name": "previousAdminRole",
          "type": "bytes32"
        },
        {
          "indexed": true,
          "internalType": "bytes32",
          "name": "newAdminRole",
          "type": "bytes32"
        }
      ],
      "name": "RoleAdminChanged",
      "type": "event"
    },
    {
      "anonymous": false,
      "inputs": [
        {
          "indexed": true,
          "internalType": "bytes32",
          "name": "role",
          "type": "bytes32"
        },
        {
          "indexed": true,
          "internalType": "address",
          "name": "account",
          "type": "address"
        },
        {
          "indexed": true,
          "internalType": "address",
          "name": "sender",
          "type": "address"
        }
      ],
      "name": "RoleGranted",
      "type": "event"
    },
    {
      "anonymous": false,
      "inputs": [
        {
          "indexed": true,
          "internalType": "bytes32",
          "name": "role",
          "type": "bytes32"
        },
        {
          "indexed": true,
          "internalType": "address",
          "name": "account",
          "type": "address"
        },
        {
          "indexed": true,
          "internalType": "address",
          "name": "sender",
          "type": "address"
        }
      ],
      "name": "RoleRevoked",
      "type": "event"
    },
    {
      "anonymous": false,
      "inputs": [
        {
          "indexed": true,
          "internalType": "address",
          "name": "operator",
          "type": "address"
        },
        {
          "indexed": true,
          "internalType": "address",
          "name": "from",
          "type": "address"
        },
        {
          "indexed": true,
          "internalType": "address",
          "name": "to",
          "type": "address"
        },
        {
          "indexed": false,
          "internalType": "uint256[]",
          "name": "ids",
          "type": "uint256[]"
        },
        {
          "indexed": false,
          "internalType": "uint256[]",
          "name": "values",
          "type": "uint256[]"
        }
      ],
      "name": "TransferBatch",
      "type": "event"
    },
    {
      "anonymous": false,
      "inputs": [
        {
          "indexed": true,
          "internalType": "address",
          "name": "operator",
          "type": "address"
        },
        {
          "indexed": true,
          "internalType": "address",
          "name": "from",
          "type": "address"
        },
        {
          "indexed": true,
          "internalType": "address",
          "name": "to",
          "type": "address"
        },
        {
          "indexed": false,
          "internalType": "uint256",
          "name": "id",
          "type": "uint256"
        },
        {
          "indexed": false,
          "internalType": "uint256",
          "name": "value",
          "type": "uint256"
        }
      ],
      "name": "TransferSingle",
      "type": "event"
    },
    {
      "anonymous": false,
      "inputs": [
        {
          "indexed": false,
          "internalType": "string",
          "name": "value",
          "type": "string"
        },
        {
          "indexed": true,
          "internalType": "uint256",
          "name": "id",
          "type": "uint256"
        }
      ],
      "name": "URI",
      "type": "event"
    },
    {
      "anonymous": false,
      "inputs": [
        {
          "indexed": false,
          "internalType": "address",
          "name": "account",
          "type": "address"
        }
      ],
      "name": "Unpaused",
      "type": "event"
    },
    {
      "anonymous": false,
      "inputs": [
        {
          "indexed": true,
          "internalType": "address",
          "name": "implementation",
          "type": "address"
        }
      ],
      "name": "Upgraded",
      "type": "event"
    },
    {
      "anonymous": false,
      "inputs": [
        {
          "indexed": false,
          "internalType": "address",
          "name": "_vault",
          "type": "address"
        }
      ],
      "name": "VaultSet",
      "type": "event"
    },
    {
      "inputs": [],
      "name": "DEFAULT_ADMIN_ROLE",
      "outputs": [
        {
          "internalType": "bytes32",
          "name": "",
          "type": "bytes32"
        }
      ],
      "stateMutability": "view",
      "type": "function"
    },
    {
      "inputs": [],
      "name": "ETAddress",
      "outputs": [
        {
          "internalType": "address",
          "name": "",
          "type": "address"
        }
      ],
      "stateMutability": "view",
      "type": "function"
    },
    {
      "inputs": [
        {
          "internalType": "uint256",
          "name": "",
          "type": "uint256"
        }
      ],
      "name": "HomeBalances",
      "outputs": [
        {
          "internalType": "uint256",
          "name": "",
          "type": "uint256"
        }
      ],
      "stateMutability": "view",
      "type": "function"
    },
    {
      "inputs": [
        {
          "internalType": "uint256",
          "name": "",
          "type": "uint256"
        }
      ],
      "name": "HomeIDs",
      "outputs": [
        {
          "internalType": "uint256",
          "name": "",
          "type": "uint256"
        }
      ],
      "stateMutability": "view",
      "type": "function"
    },
    {
      "inputs": [
        {
          "internalType": "uint256",
          "name": "",
          "type": "uint256"
        }
      ],
      "name": "Homes",
      "outputs": [
        {
          "internalType": "uint256",
          "name": "",
          "type": "uint256"
        }
      ],
      "stateMutability": "view",
      "type": "function"
    },
    {
      "inputs": [],
      "name": "IDAddress",
      "outputs": [
        {
          "internalType": "address",
          "name": "",
          "type": "address"
        }
      ],
      "stateMutability": "view",
      "type": "function"
    },
    {
      "inputs": [],
      "name": "ITAddress",
      "outputs": [
        {
          "internalType": "address",
          "name": "",
          "type": "address"
        }
      ],
      "stateMutability": "view",
      "type": "function"
    },
    {
      "inputs": [],
      "name": "MINTER_ROLE",
      "outputs": [
        {
          "internalType": "bytes32",
          "name": "",
          "type": "bytes32"
        }
      ],
      "stateMutability": "view",
      "type": "function"
    },
    {
      "inputs": [
        {
          "internalType": "uint256",
          "name": "",
          "type": "uint256"
        }
      ],
      "name": "NodeBalances",
      "outputs": [
        {
          "internalType": "uint256",
          "name": "",
          "type": "uint256"
        }
      ],
      "stateMutability": "view",
      "type": "function"
    },
    {
      "inputs": [
        {
          "internalType": "uint256",
          "name": "",
          "type": "uint256"
        }
      ],
      "name": "NodeIDs",
      "outputs": [
        {
          "internalType": "uint256",
          "name": "",
          "type": "uint256"
        }
      ],
      "stateMutability": "view",
      "type": "function"
    },
    {
      "inputs": [
        {
          "internalType": "uint256",
          "name": "",
          "type": "uint256"
        }
      ],
      "name": "Nodes",
      "outputs": [
        {
          "internalType": "uint256",
          "name": "",
          "type": "uint256"
        }
      ],
      "stateMutability": "view",
      "type": "function"
    },
    {
      "inputs": [
        {
          "internalType": "uint256",
          "name": "",
          "type": "uint256"
        }
      ],
      "name": "OfficeBalances",
      "outputs": [
        {
          "internalType": "uint256",
          "name": "",
          "type": "uint256"
        }
      ],
      "stateMutability": "view",
      "type": "function"
    },
    {
      "inputs": [
        {
          "internalType": "uint256",
          "name": "",
          "type": "uint256"
        }
      ],
      "name": "OfficeIDs",
      "outputs": [
        {
          "internalType": "uint256",
          "name": "",
          "type": "uint256"
        }
      ],
      "stateMutability": "view",
      "type": "function"
    },
    {
      "inputs": [
        {
          "internalType": "uint256",
          "name": "",
          "type": "uint256"
        }
      ],
      "name": "Offices",
      "outputs": [
        {
          "internalType": "uint256",
          "name": "",
          "type": "uint256"
        }
      ],
      "stateMutability": "view",
      "type": "function"
    },
    {
      "inputs": [],
      "name": "PAUSER_ROLE",
      "outputs": [
        {
          "internalType": "bytes32",
          "name": "",
          "type": "bytes32"
        }
      ],
      "stateMutability": "view",
      "type": "function"
    },
    {
      "inputs": [
        {
          "internalType": "uint256",
          "name": "",
          "type": "uint256"
        }
      ],
      "name": "ProfileBalances",
      "outputs": [
        {
          "internalType": "uint256",
          "name": "",
          "type": "uint256"
        }
      ],
      "stateMutability": "view",
      "type": "function"
    },
    {
      "inputs": [
        {
          "internalType": "uint256",
          "name": "",
          "type": "uint256"
        }
      ],
      "name": "ProfileIDs",
      "outputs": [
        {
          "internalType": "uint256",
          "name": "",
          "type": "uint256"
        }
      ],
      "stateMutability": "view",
      "type": "function"
    },
    {
      "inputs": [
        {
          "internalType": "uint256",
          "name": "",
          "type": "uint256"
        }
      ],
      "name": "Profiles",
      "outputs": [
        {
          "internalType": "uint256",
          "name": "",
          "type": "uint256"
        }
      ],
      "stateMutability": "view",
      "type": "function"
    },
    {
      "inputs": [],
      "name": "UPGRADER_ROLE",
      "outputs": [
        {
          "internalType": "bytes32",
          "name": "",
          "type": "bytes32"
        }
      ],
      "stateMutability": "view",
      "type": "function"
    },
    {
      "inputs": [],
      "name": "URI_SETTER_ROLE",
      "outputs": [
        {
          "internalType": "bytes32",
          "name": "",
          "type": "bytes32"
        }
      ],
      "stateMutability": "view",
      "type": "function"
    },
    {
      "inputs": [
        {
          "internalType": "address",
          "name": "account",
          "type": "address"
        },
        {
          "internalType": "uint256",
          "name": "id",
          "type": "uint256"
        }
      ],
      "name": "balanceOf",
      "outputs": [
        {
          "internalType": "uint256",
          "name": "",
          "type": "uint256"
        }
      ],
      "stateMutability": "view",
      "type": "function"
    },
    {
      "inputs": [
        {
          "internalType": "address[]",
          "name": "accounts",
          "type": "address[]"
        },
        {
          "internalType": "uint256[]",
          "name": "ids",
          "type": "uint256[]"
        }
      ],
      "name": "balanceOfBatch",
      "outputs": [
        {
          "internalType": "uint256[]",
          "name": "",
          "type": "uint256[]"
        }
      ],
      "stateMutability": "view",
      "type": "function"
    },
    {
      "inputs": [
        {
          "internalType": "address",
          "name": "account",
          "type": "address"
        },
        {
          "internalType": "uint256",
          "name": "id",
          "type": "uint256"
        },
        {
          "internalType": "uint256",
          "name": "value",
          "type": "uint256"
        }
      ],
      "name": "burn",
      "outputs": [],
      "stateMutability": "nonpayable",
      "type": "function"
    },
    {
      "inputs": [
        {
          "internalType": "address",
          "name": "account",
          "type": "address"
        },
        {
          "internalType": "uint256[]",
          "name": "ids",
          "type": "uint256[]"
        },
        {
          "internalType": "uint256[]",
          "name": "values",
          "type": "uint256[]"
        }
      ],
      "name": "burnBatch",
      "outputs": [],
      "stateMutability": "nonpayable",
      "type": "function"
    },
    {
      "inputs": [
        {
          "internalType": "uint256",
          "name": "id",
          "type": "uint256"
        }
      ],
      "name": "exists",
      "outputs": [
        {
          "internalType": "bool",
          "name": "",
          "type": "bool"
        }
      ],
      "stateMutability": "view",
      "type": "function"
    },
    {
      "inputs": [
        {
          "internalType": "bytes32",
          "name": "role",
          "type": "bytes32"
        }
      ],
      "name": "getRoleAdmin",
      "outputs": [
        {
          "internalType": "bytes32",
          "name": "",
          "type": "bytes32"
        }
      ],
      "stateMutability": "view",
      "type": "function"
    },
    {
      "inputs": [
        {
          "internalType": "bytes32",
          "name": "role",
          "type": "bytes32"
        },
        {
          "internalType": "address",
          "name": "account",
          "type": "address"
        }
      ],
      "name": "grantRole",
      "outputs": [],
      "stateMutability": "nonpayable",
      "type": "function"
    },
    {
      "inputs": [
        {
          "internalType": "bytes32",
          "name": "role",
          "type": "bytes32"
        },
        {
          "internalType": "address",
          "name": "account",
          "type": "address"
        }
      ],
      "name": "hasRole",
      "outputs": [
        {
          "internalType": "bool",
          "name": "",
          "type": "bool"
        }
      ],
      "stateMutability": "view",
      "type": "function"
    },
    {
      "inputs": [],
      "name": "homeAddress",
      "outputs": [
        {
          "internalType": "address",
          "name": "",
          "type": "address"
        }
      ],
      "stateMutability": "view",
      "type": "function"
    },
    {
      "inputs": [
        {
          "internalType": "address",
          "name": "account",
          "type": "address"
        },
        {
          "internalType": "address",
          "name": "operator",
          "type": "address"
        }
      ],
      "name": "isApprovedForAll",
      "outputs": [
        {
          "internalType": "bool",
          "name": "",
          "type": "bool"
        }
      ],
      "stateMutability": "view",
      "type": "function"
    },
    {
      "inputs": [],
      "name": "itemID",
      "outputs": [
        {
          "internalType": "uint256",
          "name": "",
          "type": "uint256"
        }
      ],
      "stateMutability": "view",
      "type": "function"
    },
    {
      "inputs": [
        {
          "internalType": "uint256",
          "name": "",
          "type": "uint256"
        }
      ],
      "name": "itemOwners",
      "outputs": [
        {
          "internalType": "address",
          "name": "",
          "type": "address"
        }
      ],
      "stateMutability": "view",
      "type": "function"
    },
    {
      "inputs": [],
      "name": "newOwner",
      "outputs": [
        {
          "internalType": "address",
          "name": "",
          "type": "address"
        }
      ],
      "stateMutability": "view",
      "type": "function"
    },
    {
      "inputs": [],
      "name": "nodeAddress",
      "outputs": [
        {
          "internalType": "address",
          "name": "",
          "type": "address"
        }
      ],
      "stateMutability": "view",
      "type": "function"
    },
    {
      "inputs": [],
      "name": "officeAddress",
      "outputs": [
        {
          "internalType": "address",
          "name": "",
          "type": "address"
        }
      ],
      "stateMutability": "view",
      "type": "function"
    },
    {
      "inputs": [],
      "name": "owner",
      "outputs": [
        {
          "internalType": "address",
          "name": "",
          "type": "address"
        }
      ],
      "stateMutability": "view",
      "type": "function"
    },
    {
      "inputs": [],
      "name": "paused",
      "outputs": [
        {
          "internalType": "bool",
          "name": "",
          "type": "bool"
        }
      ],
      "stateMutability": "view",
      "type": "function"
    },
    {
      "inputs": [],
      "name": "proxiableUUID",
      "outputs": [
        {
          "internalType": "bytes32",
          "name": "",
          "type": "bytes32"
        }
      ],
      "stateMutability": "view",
      "type": "function"
    },
    {
      "inputs": [],
      "name": "renounceOwnership",
      "outputs": [],
      "stateMutability": "nonpayable",
      "type": "function"
    },
    {
      "inputs": [
        {
          "internalType": "bytes32",
          "name": "role",
          "type": "bytes32"
        },
        {
          "internalType": "address",
          "name": "account",
          "type": "address"
        }
      ],
      "name": "renounceRole",
      "outputs": [],
      "stateMutability": "nonpayable",
      "type": "function"
    },
    {
      "inputs": [
        {
          "internalType": "bytes32",
          "name": "role",
          "type": "bytes32"
        },
        {
          "internalType": "address",
          "name": "account",
          "type": "address"
        }
      ],
      "name": "revokeRole",
      "outputs": [],
      "stateMutability": "nonpayable",
      "type": "function"
    },
    {
      "inputs": [
        {
          "internalType": "address",
          "name": "from",
          "type": "address"
        },
        {
          "internalType": "address",
          "name": "to",
          "type": "address"
        },
        {
          "internalType": "uint256[]",
          "name": "ids",
          "type": "uint256[]"
        },
        {
          "internalType": "uint256[]",
          "name": "amounts",
          "type": "uint256[]"
        },
        {
          "internalType": "bytes",
          "name": "data",
          "type": "bytes"
        }
      ],
      "name": "safeBatchTransferFrom",
      "outputs": [],
      "stateMutability": "nonpayable",
      "type": "function"
    },
    {
      "inputs": [
        {
          "internalType": "address",
          "name": "from",
          "type": "address"
        },
        {
          "internalType": "address",
          "name": "to",
          "type": "address"
        },
        {
          "internalType": "uint256",
          "name": "id",
          "type": "uint256"
        },
        {
          "internalType": "uint256",
          "name": "amount",
          "type": "uint256"
        },
        {
          "internalType": "bytes",
          "name": "data",
          "type": "bytes"
        }
      ],
      "name": "safeTransferFrom",
      "outputs": [],
      "stateMutability": "nonpayable",
      "type": "function"
    },
    {
      "inputs": [
        {
          "internalType": "address",
          "name": "operator",
          "type": "address"
        },
        {
          "internalType": "bool",
          "name": "approved",
          "type": "bool"
        }
      ],
      "name": "setApprovalForAll",
      "outputs": [],
      "stateMutability": "nonpayable",
      "type": "function"
    },
    {
      "inputs": [
        {
          "internalType": "uint256",
          "name": "id",
          "type": "uint256"
        }
      ],
      "name": "totalSupply",
      "outputs": [
        {
          "internalType": "uint256",
          "name": "",
          "type": "uint256"
        }
      ],
      "stateMutability": "view",
      "type": "function"
    },
    {
      "inputs": [
        {
          "internalType": "address",
          "name": "newOwner",
          "type": "address"
        }
      ],
      "name": "transferOwnership",
      "outputs": [],
      "stateMutability": "nonpayable",
      "type": "function"
    },
    {
      "inputs": [
        {
          "internalType": "address",
          "name": "newImplementation",
          "type": "address"
        }
      ],
      "name": "upgradeTo",
      "outputs": [],
      "stateMutability": "nonpayable",
      "type": "function"
    },
    {
      "inputs": [
        {
          "internalType": "address",
          "name": "newImplementation",
          "type": "address"
        },
        {
          "internalType": "bytes",
          "name": "data",
          "type": "bytes"
        }
      ],
      "name": "upgradeToAndCall",
      "outputs": [],
      "stateMutability": "payable",
      "type": "function"
    },
    {
      "inputs": [
        {
          "internalType": "uint256",
          "name": "",
          "type": "uint256"
        }
      ],
      "name": "uri",
      "outputs": [
        {
          "internalType": "string",
          "name": "",
          "type": "string"
        }
      ],
      "stateMutability": "view",
      "type": "function"
    },
    {
      "inputs": [],
      "name": "vaultAddress",
      "outputs": [
        {
          "internalType": "address",
          "name": "",
          "type": "address"
        }
      ],
      "stateMutability": "view",
      "type": "function"
    },
    {
      "inputs": [
        {
          "internalType": "uint256",
          "name": "",
          "type": "uint256"
        }
      ],
      "name": "vaultBalances",
      "outputs": [
        {
          "internalType": "uint256",
          "name": "",
          "type": "uint256"
        }
      ],
      "stateMutability": "view",
      "type": "function"
    },
    {
      "inputs": [
        {
          "internalType": "uint256",
          "name": "",
          "type": "uint256"
        }
      ],
      "name": "vaultIDs",
      "outputs": [
        {
          "internalType": "uint256",
          "name": "",
          "type": "uint256"
        }
      ],
      "stateMutability": "view",
      "type": "function"
    },
    {
      "inputs": [
        {
          "internalType": "uint256",
          "name": "",
          "type": "uint256"
        }
      ],
      "name": "vaults",
      "outputs": [
        {
          "internalType": "address",
          "name": "",
          "type": "address"
        }
      ],
      "stateMutability": "view",
      "type": "function"
    },
    {
      "inputs": [
        {
          "internalType": "address",
          "name": "_nodeAddress",
          "type": "address"
        }
      ],
      "name": "initialize",
      "outputs": [],
      "stateMutability": "nonpayable",
      "type": "function"
    },
    {
      "inputs": [],
      "name": "activateNode",
      "outputs": [],
      "stateMutability": "nonpayable",
      "type": "function"
    },
    {
      "inputs": [
        {
          "internalType": "string",
          "name": "newuri",
          "type": "string"
        }
      ],
      "name": "setURI",
      "outputs": [],
      "stateMutability": "nonpayable",
      "type": "function"
    },
    {
      "inputs": [],
      "name": "pause",
      "outputs": [],
      "stateMutability": "nonpayable",
      "type": "function"
    },
    {
      "inputs": [],
      "name": "unpause",
      "outputs": [],
      "stateMutability": "nonpayable",
      "type": "function"
    },
    {
      "inputs": [
        {
          "internalType": "address",
          "name": "account",
          "type": "address"
        },
        {
          "internalType": "uint256",
          "name": "id",
          "type": "uint256"
        },
        {
          "internalType": "uint256",
          "name": "amount",
          "type": "uint256"
        },
        {
          "internalType": "bytes",
          "name": "data",
          "type": "bytes"
        }
      ],
      "name": "mint",
      "outputs": [],
      "stateMutability": "nonpayable",
      "type": "function"
    },
    {
      "inputs": [
        {
          "internalType": "address",
          "name": "to",
          "type": "address"
        },
        {
          "internalType": "uint256[]",
          "name": "ids",
          "type": "uint256[]"
        },
        {
          "internalType": "uint256[]",
          "name": "amounts",
          "type": "uint256[]"
        },
        {
          "internalType": "bytes",
          "name": "data",
          "type": "bytes"
        }
      ],
      "name": "mintBatch",
      "outputs": [],
      "stateMutability": "nonpayable",
      "type": "function"
    },
    {
      "inputs": [
        {
          "internalType": "bytes4",
          "name": "interfaceId",
          "type": "bytes4"
        }
      ],
      "name": "supportsInterface",
      "outputs": [
        {
          "internalType": "bool",
          "name": "",
          "type": "bool"
        }
      ],
      "stateMutability": "view",
      "type": "function"
    }
  ],
  "bytecode": "0x60a06040523073ffffffffffffffffffffffffffffffffffffffff1660809073ffffffffffffffffffffffffffffffffffffffff1681525034801561004357600080fd5b5060805161796b6200007c60003960008181611d3601528181611dc4015281816120870152818161211501526121f2015261796b6000f3fe6080604052600436106103a05760003560e01c8063715018a6116101e7578063d547741f1161010d578063f242432a116100a0578063f5298aca1161006f578063f5298aca14610e81578063f57d85af14610eaa578063f629ad3014610ed5578063f72c0d8b14610f00576103a0565b8063f242432a14610dc7578063f2fde38b14610df0578063f36039c714610e19578063f455334e14610e56576103a0565b8063de8bfd55116100dc578063de8bfd5514610cf7578063e63ab1e914610d22578063e985e9c514610d4d578063f0feff0514610d8a576103a0565b8063d547741f14610c17578063d69f5c4a14610c40578063d811215e14610c7d578063de1d019b14610cba576103a0565b806391d1485411610185578063bd85b03911610154578063bd85b03914610b5b578063c4d66de814610b98578063d4ee1d9014610bc1578063d539139314610bec576103a0565b806391d1485414610a8d578063a217fddf14610aca578063a22cb46514610af5578063a83733a414610b1e576103a0565b80638456cb59116101c15780638456cb59146109d15780638544246d146109e85780638c64ea4a14610a255780638da5cb5b14610a62576103a0565b8063715018a614610966578063731133e91461097d5780637f345710146109a6576103a0565b8063430bf08a116102cc5780634f5b5d1a1161026a57806362b68e821161023957806362b68e8214610886578063651b31bd146108c357806367220f59146109005780636b20c4541461093d576103a0565b80634f5b5d1a146107b657806352d1902d146107f357806355da1e961461081e5780635c975abb1461085b576103a0565b80634cea965e116102a65780634cea965e146106e35780634e1273f4146107205780634f1ef2861461075d5780634f558e7914610779576103a0565b8063430bf08a1461065057806343cdef601461067b5780634a2e30bb146106a6576103a0565b80631f7fdffa116103445780632f2ff15d116103135780632f2ff15d146105be57806336568abe146105e75780633659cfe6146106105780633f4ba83a14610639576103a0565b80631f7fdffa14610504578063248a9ca31461052d5780632aa8481f1461056a5780632eb2c2d614610595576103a0565b806302fe53051161038057806302fe53051461044a57806309260b23146104735780630e89341c146104b0578063105ddd1d146104ed576103a0565b8062491920146103a5578062fdd58e146103d057806301ffc9a71461040d575b600080fd5b3480156103b157600080fd5b506103ba610f2b565b6040516103c791906155fb565b60405180910390f35b3480156103dc57600080fd5b506103f760048036038101906103f2919061568c565b610f52565b60405161040491906156db565b60405180910390f35b34801561041957600080fd5b50610434600480360381019061042f919061574e565b61101b565b6040516104419190615796565b60405180910390f35b34801561045657600080fd5b50610471600480360381019061046c91906158f7565b61102d565b005b34801561047f57600080fd5b5061049a60048036038101906104959190615940565b611064565b6040516104a791906156db565b60405180910390f35b3480156104bc57600080fd5b506104d760048036038101906104d29190615940565b61107d565b6040516104e491906159f5565b60405180910390f35b3480156104f957600080fd5b50610502611111565b005b34801561051057600080fd5b5061052b60048036038101906105269190615b80565b611b6a565b005b34801561053957600080fd5b50610554600480360381019061054f9190615c71565b611ba7565b6040516105619190615cad565b60405180910390f35b34801561057657600080fd5b5061057f611bc8565b60405161058c91906155fb565b60405180910390f35b3480156105a157600080fd5b506105bc60048036038101906105b79190615cc8565b611bef565b005b3480156105ca57600080fd5b506105e560048036038101906105e09190615d97565b611c90565b005b3480156105f357600080fd5b5061060e60048036038101906106099190615d97565b611cb1565b005b34801561061c57600080fd5b5061063760048036038101906106329190615dd7565b611d34565b005b34801561064557600080fd5b5061064e611ebc565b005b34801561065c57600080fd5b50610665611ef1565b60405161067291906155fb565b60405180910390f35b34801561068757600080fd5b50610690611f18565b60405161069d91906156db565b60405180910390f35b3480156106b257600080fd5b506106cd60048036038101906106c89190615940565b611f1f565b6040516106da91906155fb565b60405180910390f35b3480156106ef57600080fd5b5061070a60048036038101906107059190615940565b611f53565b60405161071791906156db565b60405180910390f35b34801561072c57600080fd5b5061074760048036038101906107429190615ec7565b611f6c565b6040516107549190615ffd565b60405180910390f35b6107776004803603810190610772919061601f565b612085565b005b34801561078557600080fd5b506107a0600480360381019061079b9190615940565b6121c1565b6040516107ad9190615796565b60405180910390f35b3480156107c257600080fd5b506107dd60048036038101906107d89190615940565b6121d5565b6040516107ea91906156db565b60405180910390f35b3480156107ff57600080fd5b506108086121ee565b6040516108159190615cad565b60405180910390f35b34801561082a57600080fd5b5061084560048036038101906108409190615940565b6122a7565b60405161085291906156db565b60405180910390f35b34801561086757600080fd5b506108706122c0565b60405161087d9190615796565b60405180910390f35b34801561089257600080fd5b506108ad60048036038101906108a89190615940565b6122d7565b6040516108ba91906156db565b60405180910390f35b3480156108cf57600080fd5b506108ea60048036038101906108e59190615940565b6122f0565b6040516108f791906156db565b60405180910390f35b34801561090c57600080fd5b5061092760048036038101906109229190615940565b612309565b60405161093491906156db565b60405180910390f35b34801561094957600080fd5b50610964600480360381019061095f919061607b565b612322565b005b34801561097257600080fd5b5061097b6123bf565b005b34801561098957600080fd5b506109a4600480360381019061099f9190616106565b6123d3565b005b3480156109b257600080fd5b506109bb612410565b6040516109c89190615cad565b60405180910390f35b3480156109dd57600080fd5b506109e6612434565b005b3480156109f457600080fd5b50610a0f6004803603810190610a0a9190615940565b612469565b604051610a1c91906156db565b60405180910390f35b348015610a3157600080fd5b50610a4c6004803603810190610a479190615940565b612482565b604051610a5991906155fb565b60405180910390f35b348015610a6e57600080fd5b50610a776124b6565b604051610a8491906155fb565b60405180910390f35b348015610a9957600080fd5b50610ab46004803603810190610aaf9190615d97565b6124e1565b604051610ac19190615796565b60405180910390f35b348015610ad657600080fd5b50610adf61254d565b604051610aec9190615cad565b60405180910390f35b348015610b0157600080fd5b50610b1c6004803603810190610b1791906161b5565b612554565b005b348015610b2a57600080fd5b50610b456004803603810190610b409190615940565b61256a565b604051610b5291906156db565b60405180910390f35b348015610b6757600080fd5b50610b826004803603810190610b7d9190615940565b612583565b604051610b8f91906156db565b60405180910390f35b348015610ba457600080fd5b50610bbf6004803603810190610bba9190615dd7565b6125a1565b005b348015610bcd57600080fd5b50610bd66128c1565b604051610be391906155fb565b60405180910390f35b348015610bf857600080fd5b50610c016128e8565b604051610c0e9190615cad565b60405180910390f35b348015610c2357600080fd5b50610c3e6004803603810190610c399190615d97565b61290c565b005b348015610c4c57600080fd5b50610c676004803603810190610c629190615940565b61292d565b604051610c7491906156db565b60405180910390f35b348015610c8957600080fd5b50610ca46004803603810190610c9f9190615940565b612946565b604051610cb191906156db565b60405180910390f35b348015610cc657600080fd5b50610ce16004803603810190610cdc9190615940565b61295f565b604051610cee91906156db565b60405180910390f35b348015610d0357600080fd5b50610d0c612978565b604051610d1991906155fb565b60405180910390f35b348015610d2e57600080fd5b50610d3761299f565b604051610d449190615cad565b60405180910390f35b348015610d5957600080fd5b50610d746004803603810190610d6f91906161f5565b6129c3565b604051610d819190615796565b60405180910390f35b348015610d9657600080fd5b50610db16004803603810190610dac9190615940565b612a57565b604051610dbe91906156db565b60405180910390f35b348015610dd357600080fd5b50610dee6004803603810190610de99190616235565b612a70565b005b348015610dfc57600080fd5b50610e176004803603810190610e129190615dd7565b612b11565b005b348015610e2557600080fd5b50610e406004803603810190610e3b9190615940565b612b94565b604051610e4d91906156db565b60405180910390f35b348015610e6257600080fd5b50610e6b612bad565b604051610e7891906155fb565b60405180910390f35b348015610e8d57600080fd5b50610ea86004803603810190610ea391906162cc565b612bd4565b005b348015610eb657600080fd5b50610ebf612c71565b604051610ecc91906155fb565b60405180910390f35b348015610ee157600080fd5b50610eea612c98565b604051610ef791906155fb565b60405180910390f35b348015610f0c57600080fd5b50610f15612cbf565b604051610f229190615cad565b60405180910390f35b61022760009054906101000a900473ffffffffffffffffffffffffffffffffffffffff1681565b60008073ffffffffffffffffffffffffffffffffffffffff168373ffffffffffffffffffffffffffffffffffffffff1603610fc2576040517f08c379a0000000000000000000000000000000000000000000000000000000008152600401610fb990616391565b60405180910390fd5b6065600083815260200190815260200160002060008473ffffffffffffffffffffffffffffffffffffffff1673ffffffffffffffffffffffffffffffffffffffff16815260200190815260200160002054905092915050565b600061102682612ce3565b9050919050565b7f7804d923f43a17d325d77e781528e0793b2edd9890ab45fc64efd7b4b427744c61105781612d5d565b61106082612d71565b5050565b6102366020528060005260406000206000915090505481565b60606067805461108c906163e0565b80601f01602080910402602001604051908101604052809291908181526020018280546110b8906163e0565b80156111055780601f106110da57610100808354040283529160200191611105565b820191906000526020600020905b8154815290600101906020018083116110e857829003601f168201915b50505050509050919050565b60008061023d60009054906101000a900473ffffffffffffffffffffffffffffffffffffffff1673ffffffffffffffffffffffffffffffffffffffff1661022760009054906101000a900473ffffffffffffffffffffffffffffffffffffffff1660405160240161118291906155fb565b6040516020818303038152906040527f966b1910000000000000000000000000000000000000000000000000000000007bffffffffffffffffffffffffffffffffffffffffffffffffffffffff19166020820180517bffffffffffffffffffffffffffffffffffffffffffffffffffffffff838183161783525050505060405161120c9190616458565b600060405180830381855af49150503d8060008114611247576040519150601f19603f3d011682016040523d82523d6000602084013e61124c565b606091505b509150915081611291576040517f08c379a0000000000000000000000000000000000000000000000000000000008152600401611288906164bb565b60405180910390fd5b60008061023d60009054906101000a900473ffffffffffffffffffffffffffffffffffffffff1673ffffffffffffffffffffffffffffffffffffffff1661022a60009054906101000a900473ffffffffffffffffffffffffffffffffffffffff1660405160240161130291906155fb565b6040516020818303038152906040527f921dbc88000000000000000000000000000000000000000000000000000000007bffffffffffffffffffffffffffffffffffffffffffffffffffffffff19166020820180517bffffffffffffffffffffffffffffffffffffffffffffffffffffffff838183161783525050505060405161138c9190616458565b600060405180830381855af49150503d80600081146113c7576040519150601f19603f3d011682016040523d82523d6000602084013e6113cc565b606091505b509150915081611411576040517f08c379a0000000000000000000000000000000000000000000000000000000008152600401611408906164bb565b60405180910390fd5b60008061023d60009054906101000a900473ffffffffffffffffffffffffffffffffffffffff1673ffffffffffffffffffffffffffffffffffffffff1661022c60009054906101000a900473ffffffffffffffffffffffffffffffffffffffff1660405160240161148291906155fb565b6040516020818303038152906040527f1cd0d952000000000000000000000000000000000000000000000000000000007bffffffffffffffffffffffffffffffffffffffffffffffffffffffff19166020820180517bffffffffffffffffffffffffffffffffffffffffffffffffffffffff838183161783525050505060405161150c9190616458565b600060405180830381855af49150503d8060008114611547576040519150601f19603f3d011682016040523d82523d6000602084013e61154c565b606091505b509150915081611591576040517f08c379a0000000000000000000000000000000000000000000000000000000008152600401611588906164bb565b60405180910390fd5b60008061023d60009054906101000a900473ffffffffffffffffffffffffffffffffffffffff1673ffffffffffffffffffffffffffffffffffffffff1661022e60009054906101000a900473ffffffffffffffffffffffffffffffffffffffff1660405160240161160291906155fb565b6040516020818303038152906040527f1b36115f000000000000000000000000000000000000000000000000000000007bffffffffffffffffffffffffffffffffffffffffffffffffffffffff19166020820180517bffffffffffffffffffffffffffffffffffffffffffffffffffffffff838183161783525050505060405161168c9190616458565b600060405180830381855af49150503d80600081146116c7576040519150601f19603f3d011682016040523d82523d6000602084013e6116cc565b606091505b509150915081611711576040517f08c379a0000000000000000000000000000000000000000000000000000000008152600401611708906164bb565b60405180910390fd5b60008061023d60009054906101000a900473ffffffffffffffffffffffffffffffffffffffff1673ffffffffffffffffffffffffffffffffffffffff166102285461022e60009054906101000a900473ffffffffffffffffffffffffffffffffffffffff166040516024016117879291906164db565b6040516020818303038152906040527fbccb9fbf000000000000000000000000000000000000000000000000000000007bffffffffffffffffffffffffffffffffffffffffffffffffffffffff19166020820180517bffffffffffffffffffffffffffffffffffffffffffffffffffffffff83818316178352505050506040516118119190616458565b600060405180830381855af49150503d806000811461184c576040519150601f19603f3d011682016040523d82523d6000602084013e611851565b606091505b509150915081611896576040517f08c379a000000000000000000000000000000000000000000000000000000000815260040161188d906164bb565b60405180910390fd5b60008061023d60009054906101000a900473ffffffffffffffffffffffffffffffffffffffff1673ffffffffffffffffffffffffffffffffffffffff1661022854306040516024016118e99291906164db565b6040516020818303038152906040527f165edcbb000000000000000000000000000000000000000000000000000000007bffffffffffffffffffffffffffffffffffffffffffffffffffffffff19166020820180517bffffffffffffffffffffffffffffffffffffffffffffffffffffffff83818316178352505050506040516119739190616458565b600060405180830381855af49150503d80600081146119ae576040519150601f19603f3d011682016040523d82523d6000602084013e6119b3565b606091505b5091509150816119f8576040517f08c379a00000000000000000000000000000000000000000000000000000000081526004016119ef906164bb565b60405180910390fd5b60008061023d60009054906101000a900473ffffffffffffffffffffffffffffffffffffffff1673ffffffffffffffffffffffffffffffffffffffff166102285430604051602401611a4b9291906164db565b6040516020818303038152906040527fe5dd5244000000000000000000000000000000000000000000000000000000007bffffffffffffffffffffffffffffffffffffffffffffffffffffffff19166020820180517bffffffffffffffffffffffffffffffffffffffffffffffffffffffff8381831617835250505050604051611ad59190616458565b600060405180830381855af49150503d8060008114611b10576040519150601f19603f3d011682016040523d82523d6000602084013e611b15565b606091505b509150915081611b5a576040517f08c379a0000000000000000000000000000000000000000000000000000000008152600401611b51906164bb565b60405180910390fd5b5050505050505050505050505050565b7f9f2df0fed2c77648de5860a4cc508cd0818c85b8b8a1ab4ceeef8d981c8956a6611b9481612d5d565b611ba085858585612d8b565b5050505050565b60006101c36000838152602001908152602001600020600101549050919050565b61023d60009054906101000a900473ffffffffffffffffffffffffffffffffffffffff1681565b611bf7612fb8565b73ffffffffffffffffffffffffffffffffffffffff168573ffffffffffffffffffffffffffffffffffffffff161480611c3d5750611c3c85611c37612fb8565b6129c3565b5b611c7c576040517f08c379a0000000000000000000000000000000000000000000000000000000008152600401611c7390616576565b60405180910390fd5b611c898585858585612fc0565b5050505050565b611c9982611ba7565b611ca281612d5d565b611cac83836132e4565b505050565b611cb9612fb8565b73ffffffffffffffffffffffffffffffffffffffff168173ffffffffffffffffffffffffffffffffffffffff1614611d26576040517f08c379a0000000000000000000000000000000000000000000000000000000008152600401611d1d90616608565b60405180910390fd5b611d3082826133c6565b5050565b7f000000000000000000000000000000000000000000000000000000000000000073ffffffffffffffffffffffffffffffffffffffff163073ffffffffffffffffffffffffffffffffffffffff1603611dc2576040517f08c379a0000000000000000000000000000000000000000000000000000000008152600401611db99061669a565b60405180910390fd5b7f000000000000000000000000000000000000000000000000000000000000000073ffffffffffffffffffffffffffffffffffffffff16611e016134a9565b73ffffffffffffffffffffffffffffffffffffffff1614611e57576040517f08c379a0000000000000000000000000000000000000000000000000000000008152600401611e4e9061672c565b60405180910390fd5b611e6081613500565b611eb981600067ffffffffffffffff811115611e7f57611e7e6157cc565b5b6040519080825280601f01601f191660200182016040528015611eb15781602001600182028036833780820191505090505b50600061352e565b50565b7f65d7a28e3265b37a6474929f336521b332c1681b933f6cb9f3376673440d862a611ee681612d5d565b611eee61369c565b50565b61022e60009054906101000a900473ffffffffffffffffffffffffffffffffffffffff1681565b6102285481565b61022d6020528060005260406000206000915054906101000a900473ffffffffffffffffffffffffffffffffffffffff1681565b6102326020528060005260406000206000915090505481565b60608151835114611fb2576040517f08c379a0000000000000000000000000000000000000000000000000000000008152600401611fa9906167be565b60405180910390fd5b6000835167ffffffffffffffff811115611fcf57611fce6157cc565b5b604051908082528060200260200182016040528015611ffd5781602001602082028036833780820191505090505b50905060005b845181101561207a5761204a858281518110612022576120216167de565b5b602002602001015185838151811061203d5761203c6167de565b5b6020026020010151610f52565b82828151811061205d5761205c6167de565b5b602002602001018181525050806120739061683c565b9050612003565b508091505092915050565b7f000000000000000000000000000000000000000000000000000000000000000073ffffffffffffffffffffffffffffffffffffffff163073ffffffffffffffffffffffffffffffffffffffff1603612113576040517f08c379a000000000000000000000000000000000000000000000000000000000815260040161210a9061669a565b60405180910390fd5b7f000000000000000000000000000000000000000000000000000000000000000073ffffffffffffffffffffffffffffffffffffffff166121526134a9565b73ffffffffffffffffffffffffffffffffffffffff16146121a8576040517f08c379a000000000000000000000000000000000000000000000000000000000815260040161219f9061672c565b60405180910390fd5b6121b182613500565b6121bd8282600161352e565b5050565b6000806121cd83612583565b119050919050565b6102406020528060005260406000206000915090505481565b60007f000000000000000000000000000000000000000000000000000000000000000073ffffffffffffffffffffffffffffffffffffffff163073ffffffffffffffffffffffffffffffffffffffff161461227e576040517f08c379a0000000000000000000000000000000000000000000000000000000008152600401612275906168f6565b60405180910390fd5b7f360894a13ba1a3210667c828492db98dca3e2076cc3735a920a3ca505d382bbc60001b905090565b6102386020528060005260406000206000915090505481565b600060c960009054906101000a900460ff16905090565b61023a6020528060005260406000206000915090505481565b6102346020528060005260406000206000915090505481565b61023b6020528060005260406000206000915090505481565b61232a612fb8565b73ffffffffffffffffffffffffffffffffffffffff168373ffffffffffffffffffffffffffffffffffffffff161480612370575061236f8361236a612fb8565b6129c3565b5b6123af576040517f08c379a00000000000000000000000000000000000000000000000000000000081526004016123a690616576565b60405180910390fd5b6123ba8383836136ff565b505050565b6123c76139cf565b6123d16000613a4d565b565b7f9f2df0fed2c77648de5860a4cc508cd0818c85b8b8a1ab4ceeef8d981c8956a66123fd81612d5d565b61240985858585613b15565b5050505050565b7f7804d923f43a17d325d77e781528e0793b2edd9890ab45fc64efd7b4b427744c81565b7f65d7a28e3265b37a6474929f336521b332c1681b933f6cb9f3376673440d862a61245e81612d5d565b612466613cc6565b50565b61023f6020528060005260406000206000915090505481565b61022f6020528060005260406000206000915054906101000a900473ffffffffffffffffffffffffffffffffffffffff1681565b600061012d60009054906101000a900473ffffffffffffffffffffffffffffffffffffffff16905090565b60006101c3600084815260200190815260200160002060000160008373ffffffffffffffffffffffffffffffffffffffff1673ffffffffffffffffffffffffffffffffffffffff16815260200190815260200160002060009054906101000a900460ff16905092915050565b6000801b81565b61256661255f612fb8565b8383613d29565b5050565b61023e6020528060005260406000206000915090505481565b60006101f56000838152602001908152602001600020549050919050565b6125df6040518060400160405280601581526020017f68747470733a2f2f697066732e696f2f697066732f0000000000000000000000815250613e95565b6125e7613ef0565b6125ef613f41565b6125f7613f9a565b6125ff613ff3565b612607614044565b61260f614095565b61261c6000801b336140e6565b6126467f7804d923f43a17d325d77e781528e0793b2edd9890ab45fc64efd7b4b427744c336140e6565b6126707f65d7a28e3265b37a6474929f336521b332c1681b933f6cb9f3376673440d862a336140e6565b61269a7f9f2df0fed2c77648de5860a4cc508cd0818c85b8b8a1ab4ceeef8d981c8956a6336140e6565b6126c47f189ab7a9244df0848122154315af71fe140f3db0fe014031783b0946b8c9d2e3336140e6565b8061023d60006101000a81548173ffffffffffffffffffffffffffffffffffffffff021916908373ffffffffffffffffffffffffffffffffffffffff1602179055506000610228819055503061022d600061022854815260200190815260200160002060006101000a81548173ffffffffffffffffffffffffffffffffffffffff021916908373ffffffffffffffffffffffffffffffffffffffff1602179055503061022e60006101000a81548173ffffffffffffffffffffffffffffffffffffffff021916908373ffffffffffffffffffffffffffffffffffffffff16021790555061022e60009054906101000a900473ffffffffffffffffffffffffffffffffffffffff1661022f600061022854815260200190815260200160002060006101000a81548173ffffffffffffffffffffffffffffffffffffffff021916908373ffffffffffffffffffffffffffffffffffffffff16021790555061022854610230600061022854815260200190815260200160002081905550600161023160006102285481526020019081526020016000208190555061287b3061022854600160405180602001604052806000815250613b15565b6128be3061022e60009054906101000a900473ffffffffffffffffffffffffffffffffffffffff16610228546001604051806020016040528060008152506140f4565b50565b61022b60009054906101000a900473ffffffffffffffffffffffffffffffffffffffff1681565b7f9f2df0fed2c77648de5860a4cc508cd0818c85b8b8a1ab4ceeef8d981c8956a681565b61291582611ba7565b61291e81612d5d565b61292883836133c6565b505050565b6102376020528060005260406000206000915090505481565b61023c6020528060005260406000206000915090505481565b6102306020528060005260406000206000915090505481565b61022c60009054906101000a900473ffffffffffffffffffffffffffffffffffffffff1681565b7f65d7a28e3265b37a6474929f336521b332c1681b933f6cb9f3376673440d862a81565b6000606660008473ffffffffffffffffffffffffffffffffffffffff1673ffffffffffffffffffffffffffffffffffffffff16815260200190815260200160002060008373ffffffffffffffffffffffffffffffffffffffff1673ffffffffffffffffffffffffffffffffffffffff16815260200190815260200160002060009054906101000a900460ff16905092915050565b6102316020528060005260406000206000915090505481565b612a78612fb8565b73ffffffffffffffffffffffffffffffffffffffff168573ffffffffffffffffffffffffffffffffffffffff161480612abe5750612abd85612ab8612fb8565b6129c3565b5b612afd576040517f08c379a0000000000000000000000000000000000000000000000000000000008152600401612af490616576565b60405180910390fd5b612b0a85858585856140f4565b5050505050565b612b196139cf565b600073ffffffffffffffffffffffffffffffffffffffff168173ffffffffffffffffffffffffffffffffffffffff1603612b88576040517f08c379a0000000000000000000000000000000000000000000000000000000008152600401612b7f90616988565b60405180910390fd5b612b9181613a4d565b50565b6102336020528060005260406000206000915090505481565b61023960009054906101000a900473ffffffffffffffffffffffffffffffffffffffff1681565b612bdc612fb8565b73ffffffffffffffffffffffffffffffffffffffff168373ffffffffffffffffffffffffffffffffffffffff161480612c225750612c2183612c1c612fb8565b6129c3565b5b612c61576040517f08c379a0000000000000000000000000000000000000000000000000000000008152600401612c5890616576565b60405180910390fd5b612c6c838383614392565b505050565b61022a60009054906101000a900473ffffffffffffffffffffffffffffffffffffffff1681565b61023560009054906101000a900473ffffffffffffffffffffffffffffffffffffffff1681565b7f189ab7a9244df0848122154315af71fe140f3db0fe014031783b0946b8c9d2e381565b60007f7965db0b000000000000000000000000000000000000000000000000000000007bffffffffffffffffffffffffffffffffffffffffffffffffffffffff1916827bffffffffffffffffffffffffffffffffffffffffffffffffffffffff19161480612d565750612d55826145da565b5b9050919050565b612d6e81612d69612fb8565b6146bc565b50565b8060679080519060200190612d87929190615517565b5050565b600073ffffffffffffffffffffffffffffffffffffffff168473ffffffffffffffffffffffffffffffffffffffff1603612dfa576040517f08c379a0000000000000000000000000000000000000000000000000000000008152600401612df190616a1a565b60405180910390fd5b8151835114612e3e576040517f08c379a0000000000000000000000000000000000000000000000000000000008152600401612e3590616aac565b60405180910390fd5b6000612e48612fb8565b9050612e5981600087878787614741565b60005b8451811015612f1357838181518110612e7857612e776167de565b5b602002602001015160656000878481518110612e9757612e966167de565b5b6020026020010151815260200190815260200160002060008873ffffffffffffffffffffffffffffffffffffffff1673ffffffffffffffffffffffffffffffffffffffff1681526020019081526020016000206000828254612ef99190616acc565b925050819055508080612f0b9061683c565b915050612e5c565b508473ffffffffffffffffffffffffffffffffffffffff16600073ffffffffffffffffffffffffffffffffffffffff168273ffffffffffffffffffffffffffffffffffffffff167f4a39dc06d4c0dbc64b70af90fd698a233a518aa5d07e595d983b8c0526c8f7fb8787604051612f8b929190616b22565b60405180910390a4612fa28160008787878761475f565b612fb181600087878787614767565b5050505050565b600033905090565b8151835114613004576040517f08c379a0000000000000000000000000000000000000000000000000000000008152600401612ffb90616aac565b60405180910390fd5b600073ffffffffffffffffffffffffffffffffffffffff168473ffffffffffffffffffffffffffffffffffffffff1603613073576040517f08c379a000000000000000000000000000000000000000000000000000000000815260040161306a90616bcb565b60405180910390fd5b600061307d612fb8565b905061308d818787878787614741565b60005b84518110156132415760008582815181106130ae576130ad6167de565b5b6020026020010151905060008583815181106130cd576130cc6167de565b5b6020026020010151905060006065600084815260200190815260200160002060008b73ffffffffffffffffffffffffffffffffffffffff1673ffffffffffffffffffffffffffffffffffffffff1681526020019081526020016000205490508181101561316f576040517f08c379a000000000000000000000000000000000000000000000000000000000815260040161316690616c5d565b60405180910390fd5b8181036065600085815260200190815260200160002060008c73ffffffffffffffffffffffffffffffffffffffff1673ffffffffffffffffffffffffffffffffffffffff16815260200190815260200160002081905550816065600085815260200190815260200160002060008b73ffffffffffffffffffffffffffffffffffffffff1673ffffffffffffffffffffffffffffffffffffffff16815260200190815260200160002060008282546132269190616acc565b925050819055505050508061323a9061683c565b9050613090565b508473ffffffffffffffffffffffffffffffffffffffff168673ffffffffffffffffffffffffffffffffffffffff168273ffffffffffffffffffffffffffffffffffffffff167f4a39dc06d4c0dbc64b70af90fd698a233a518aa5d07e595d983b8c0526c8f7fb87876040516132b8929190616b22565b60405180910390a46132ce81878787878761475f565b6132dc818787878787614767565b505050505050565b6132ee82826124e1565b6133c25760016101c3600084815260200190815260200160002060000160008373ffffffffffffffffffffffffffffffffffffffff1673ffffffffffffffffffffffffffffffffffffffff16815260200190815260200160002060006101000a81548160ff021916908315150217905550613367612fb8565b73ffffffffffffffffffffffffffffffffffffffff168173ffffffffffffffffffffffffffffffffffffffff16837f2f8788117e7eff1d82e926ec794901d17c78024a50270940304540a733656f0d60405160405180910390a45b5050565b6133d082826124e1565b156134a55760006101c3600084815260200190815260200160002060000160008373ffffffffffffffffffffffffffffffffffffffff1673ffffffffffffffffffffffffffffffffffffffff16815260200190815260200160002060006101000a81548160ff02191690831515021790555061344a612fb8565b73ffffffffffffffffffffffffffffffffffffffff168173ffffffffffffffffffffffffffffffffffffffff16837ff6391f5c32d9c69d2a47ea670b442974b53935d1edc7fd64eb21e047a839171b60405160405180910390a45b5050565b60006134d77f360894a13ba1a3210667c828492db98dca3e2076cc3735a920a3ca505d382bbc60001b61493e565b60000160009054906101000a900473ffffffffffffffffffffffffffffffffffffffff16905090565b7f189ab7a9244df0848122154315af71fe140f3db0fe014031783b0946b8c9d2e361352a81612d5d565b5050565b61355a7f4910fdfa16fed3260ed0e7147f7cc6da11a60208b5b9406d12a635614ffd914360001b614948565b60000160009054906101000a900460ff161561357e5761357983614952565b613697565b8273ffffffffffffffffffffffffffffffffffffffff166352d1902d6040518163ffffffff1660e01b8152600401602060405180830381865afa9250505080156135e657506040513d601f19601f820116820180604052508101906135e39190616c92565b60015b613625576040517f08c379a000000000000000000000000000000000000000000000000000000000815260040161361c90616d31565b60405180910390fd5b7f360894a13ba1a3210667c828492db98dca3e2076cc3735a920a3ca505d382bbc60001b811461368a576040517f08c379a000000000000000000000000000000000000000000000000000000000815260040161368190616dc3565b60405180910390fd5b50613696838383614a0b565b5b505050565b6136a4614a37565b600060c960006101000a81548160ff0219169083151502179055507f5db9ee0a495bf2e6ff9c91a7834c1ba4fdd244a5e8aa4e537bd38aeae4b073aa6136e8612fb8565b6040516136f591906155fb565b60405180910390a1565b600073ffffffffffffffffffffffffffffffffffffffff168373ffffffffffffffffffffffffffffffffffffffff160361376e576040517f08c379a000000000000000000000000000000000000000000000000000000000815260040161376590616e55565b60405180910390fd5b80518251146137b2576040517f08c379a00000000000000000000000000000000000000000000000000000000081526004016137a990616aac565b60405180910390fd5b60006137bc612fb8565b90506137dc81856000868660405180602001604052806000815250614741565b60005b835181101561392b5760008482815181106137fd576137fc6167de565b5b60200260200101519050600084838151811061381c5761381b6167de565b5b6020026020010151905060006065600084815260200190815260200160002060008973ffffffffffffffffffffffffffffffffffffffff1673ffffffffffffffffffffffffffffffffffffffff168152602001908152602001600020549050818110156138be576040517f08c379a00000000000000000000000000000000000000000000000000000000081526004016138b590616ee7565b60405180910390fd5b8181036065600085815260200190815260200160002060008a73ffffffffffffffffffffffffffffffffffffffff1673ffffffffffffffffffffffffffffffffffffffff1681526020019081526020016000208190555050505080806139239061683c565b9150506137df565b50600073ffffffffffffffffffffffffffffffffffffffff168473ffffffffffffffffffffffffffffffffffffffff168273ffffffffffffffffffffffffffffffffffffffff167f4a39dc06d4c0dbc64b70af90fd698a233a518aa5d07e595d983b8c0526c8f7fb86866040516139a3929190616b22565b60405180910390a46139c98185600086866040518060200160405280600081525061475f565b50505050565b6139d7612fb8565b73ffffffffffffffffffffffffffffffffffffffff166139f56124b6565b73ffffffffffffffffffffffffffffffffffffffff1614613a4b576040517f08c379a0000000000000000000000000000000000000000000000000000000008152600401613a4290616f53565b60405180910390fd5b565b600061012d60009054906101000a900473ffffffffffffffffffffffffffffffffffffffff1690508161012d60006101000a81548173ffffffffffffffffffffffffffffffffffffffff021916908373ffffffffffffffffffffffffffffffffffffffff1602179055508173ffffffffffffffffffffffffffffffffffffffff168173ffffffffffffffffffffffffffffffffffffffff167f8be0079c531659141344cd1fd0a4f28419497f9722a3daafe3b4186f6b6457e060405160405180910390a35050565b600073ffffffffffffffffffffffffffffffffffffffff168473ffffffffffffffffffffffffffffffffffffffff1603613b84576040517f08c379a0000000000000000000000000000000000000000000000000000000008152600401613b7b90616a1a565b60405180910390fd5b6000613b8e612fb8565b90506000613b9b85614a80565b90506000613ba885614a80565b9050613bb983600089858589614741565b846065600088815260200190815260200160002060008973ffffffffffffffffffffffffffffffffffffffff1673ffffffffffffffffffffffffffffffffffffffff1681526020019081526020016000206000828254613c199190616acc565b925050819055508673ffffffffffffffffffffffffffffffffffffffff16600073ffffffffffffffffffffffffffffffffffffffff168473ffffffffffffffffffffffffffffffffffffffff167fc3d58168c5ae7397731d063d5bbf3d657854427343f4c083240f7aacaa2d0f628989604051613c97929190616f73565b60405180910390a4613cae8360008985858961475f565b613cbd83600089898989614afa565b50505050505050565b613cce614cd1565b600160c960006101000a81548160ff0219169083151502179055507f62e78cea01bee320cd4e420270b5ea74000d11b0c9f74754ebdbfc544b05a258613d12612fb8565b604051613d1f91906155fb565b60405180910390a1565b8173ffffffffffffffffffffffffffffffffffffffff168373ffffffffffffffffffffffffffffffffffffffff1603613d97576040517f08c379a0000000000000000000000000000000000000000000000000000000008152600401613d8e9061700e565b60405180910390fd5b80606660008573ffffffffffffffffffffffffffffffffffffffff1673ffffffffffffffffffffffffffffffffffffffff16815260200190815260200160002060008473ffffffffffffffffffffffffffffffffffffffff1673ffffffffffffffffffffffffffffffffffffffff16815260200190815260200160002060006101000a81548160ff0219169083151502179055508173ffffffffffffffffffffffffffffffffffffffff168373ffffffffffffffffffffffffffffffffffffffff167f17307eab39ab6107e8899845ad3d59bd9653f200f220920489ca2b5937696c3183604051613e889190615796565b60405180910390a3505050565b600060019054906101000a900460ff16613ee4576040517f08c379a0000000000000000000000000000000000000000000000000000000008152600401613edb906170a0565b60405180910390fd5b613eed81614d1b565b50565b600060019054906101000a900460ff16613f3f576040517f08c379a0000000000000000000000000000000000000000000000000000000008152600401613f36906170a0565b60405180910390fd5b565b600060019054906101000a900460ff16613f90576040517f08c379a0000000000000000000000000000000000000000000000000000000008152600401613f87906170a0565b60405180910390fd5b613f98614d76565b565b600060019054906101000a900460ff16613fe9576040517f08c379a0000000000000000000000000000000000000000000000000000000008152600401613fe0906170a0565b60405180910390fd5b613ff1614de2565b565b600060019054906101000a900460ff16614042576040517f08c379a0000000000000000000000000000000000000000000000000000000008152600401614039906170a0565b60405180910390fd5b565b600060019054906101000a900460ff16614093576040517f08c379a000000000000000000000000000000000000000000000000000000000815260040161408a906170a0565b60405180910390fd5b565b600060019054906101000a900460ff166140e4576040517f08c379a00000000000000000000000000000000000000000000000000000000081526004016140db906170a0565b60405180910390fd5b565b6140f082826132e4565b5050565b600073ffffffffffffffffffffffffffffffffffffffff168473ffffffffffffffffffffffffffffffffffffffff1603614163576040517f08c379a000000000000000000000000000000000000000000000000000000000815260040161415a90616bcb565b60405180910390fd5b600061416d612fb8565b9050600061417a85614a80565b9050600061418785614a80565b9050614197838989858589614741565b60006065600088815260200190815260200160002060008a73ffffffffffffffffffffffffffffffffffffffff1673ffffffffffffffffffffffffffffffffffffffff1681526020019081526020016000205490508581101561422f576040517f08c379a000000000000000000000000000000000000000000000000000000000815260040161422690616c5d565b60405180910390fd5b8581036065600089815260200190815260200160002060008b73ffffffffffffffffffffffffffffffffffffffff1673ffffffffffffffffffffffffffffffffffffffff16815260200190815260200160002081905550856065600089815260200190815260200160002060008a73ffffffffffffffffffffffffffffffffffffffff1673ffffffffffffffffffffffffffffffffffffffff16815260200190815260200160002060008282546142e69190616acc565b925050819055508773ffffffffffffffffffffffffffffffffffffffff168973ffffffffffffffffffffffffffffffffffffffff168573ffffffffffffffffffffffffffffffffffffffff167fc3d58168c5ae7397731d063d5bbf3d657854427343f4c083240f7aacaa2d0f628a8a604051614363929190616f73565b60405180910390a4614379848a8a86868a61475f565b614387848a8a8a8a8a614afa565b505050505050505050565b600073ffffffffffffffffffffffffffffffffffffffff168373ffffffffffffffffffffffffffffffffffffffff1603614401576040517f08c379a00000000000000000000000000000000000000000000000000000000081526004016143f890616e55565b60405180910390fd5b600061440b612fb8565b9050600061441884614a80565b9050600061442584614a80565b905061444583876000858560405180602001604052806000815250614741565b60006065600087815260200190815260200160002060008873ffffffffffffffffffffffffffffffffffffffff1673ffffffffffffffffffffffffffffffffffffffff168152602001908152602001600020549050848110156144dd576040517f08c379a00000000000000000000000000000000000000000000000000000000081526004016144d490616ee7565b60405180910390fd5b8481036065600088815260200190815260200160002060008973ffffffffffffffffffffffffffffffffffffffff1673ffffffffffffffffffffffffffffffffffffffff16815260200190815260200160002081905550600073ffffffffffffffffffffffffffffffffffffffff168773ffffffffffffffffffffffffffffffffffffffff168573ffffffffffffffffffffffffffffffffffffffff167fc3d58168c5ae7397731d063d5bbf3d657854427343f4c083240f7aacaa2d0f6289896040516145ab929190616f73565b60405180910390a46145d18488600086866040518060200160405280600081525061475f565b50505050505050565b60007fd9b67a26000000000000000000000000000000000000000000000000000000007bffffffffffffffffffffffffffffffffffffffffffffffffffffffff1916827bffffffffffffffffffffffffffffffffffffffffffffffffffffffff191614806146a557507f0e89341c000000000000000000000000000000000000000000000000000000007bffffffffffffffffffffffffffffffffffffffffffffffffffffffff1916827bffffffffffffffffffffffffffffffffffffffffffffffffffffffff1916145b806146b557506146b482614e43565b5b9050919050565b6146c682826124e1565b61473d576146d381614ead565b6146e18360001c6020614eda565b6040516020016146f2929190617194565b6040516020818303038152906040526040517f08c379a000000000000000000000000000000000000000000000000000000000815260040161473491906159f5565b60405180910390fd5b5050565b614749614cd1565b614757868686868686615116565b505050505050565b505050505050565b6147868473ffffffffffffffffffffffffffffffffffffffff166152e9565b15614936578373ffffffffffffffffffffffffffffffffffffffff1663bc197c8187878686866040518663ffffffff1660e01b81526004016147cc959493929190617218565b6020604051808303816000875af192505050801561480857506040513d601f19601f820116820180604052508101906148059190617295565b60015b6148ad576148146172cf565b806308c379a00361487057506148286172f1565b806148335750614872565b806040517f08c379a000000000000000000000000000000000000000000000000000000000815260040161486791906159f5565b60405180910390fd5b505b6040517f08c379a00000000000000000000000000000000000000000000000000000000081526004016148a4906173f3565b60405180910390fd5b63bc197c8160e01b7bffffffffffffffffffffffffffffffffffffffffffffffffffffffff1916817bffffffffffffffffffffffffffffffffffffffffffffffffffffffff191614614934576040517f08c379a000000000000000000000000000000000000000000000000000000000815260040161492b90617485565b60405180910390fd5b505b505050505050565b6000819050919050565b6000819050919050565b61495b816152e9565b61499a576040517f08c379a000000000000000000000000000000000000000000000000000000000815260040161499190617517565b60405180910390fd5b806149c77f360894a13ba1a3210667c828492db98dca3e2076cc3735a920a3ca505d382bbc60001b61493e565b60000160006101000a81548173ffffffffffffffffffffffffffffffffffffffff021916908373ffffffffffffffffffffffffffffffffffffffff16021790555050565b614a148361530c565b600082511180614a215750805b15614a3257614a30838361535b565b505b505050565b614a3f6122c0565b614a7e576040517f08c379a0000000000000000000000000000000000000000000000000000000008152600401614a7590617583565b60405180910390fd5b565b60606000600167ffffffffffffffff811115614a9f57614a9e6157cc565b5b604051908082528060200260200182016040528015614acd5781602001602082028036833780820191505090505b5090508281600081518110614ae557614ae46167de565b5b60200260200101818152505080915050919050565b614b198473ffffffffffffffffffffffffffffffffffffffff166152e9565b15614cc9578373ffffffffffffffffffffffffffffffffffffffff1663f23a6e6187878686866040518663ffffffff1660e01b8152600401614b5f9594939291906175a3565b6020604051808303816000875af1925050508015614b9b57506040513d601f19601f82011682018060405250810190614b989190617295565b60015b614c4057614ba76172cf565b806308c379a003614c035750614bbb6172f1565b80614bc65750614c05565b806040517f08c379a0000000000000000000000000000000000000000000000000000000008152600401614bfa91906159f5565b60405180910390fd5b505b6040517f08c379a0000000000000000000000000000000000000000000000000000000008152600401614c37906173f3565b60405180910390fd5b63f23a6e6160e01b7bffffffffffffffffffffffffffffffffffffffffffffffffffffffff1916817bffffffffffffffffffffffffffffffffffffffffffffffffffffffff191614614cc7576040517f08c379a0000000000000000000000000000000000000000000000000000000008152600401614cbe90617485565b60405180910390fd5b505b505050505050565b614cd96122c0565b15614d19576040517f08c379a0000000000000000000000000000000000000000000000000000000008152600401614d1090617649565b60405180910390fd5b565b600060019054906101000a900460ff16614d6a576040517f08c379a0000000000000000000000000000000000000000000000000000000008152600401614d61906170a0565b60405180910390fd5b614d7381612d71565b50565b600060019054906101000a900460ff16614dc5576040517f08c379a0000000000000000000000000000000000000000000000000000000008152600401614dbc906170a0565b60405180910390fd5b600060c960006101000a81548160ff021916908315150217905550565b600060019054906101000a900460ff16614e31576040517f08c379a0000000000000000000000000000000000000000000000000000000008152600401614e28906170a0565b60405180910390fd5b614e41614e3c612fb8565b613a4d565b565b60007f01ffc9a7000000000000000000000000000000000000000000000000000000007bffffffffffffffffffffffffffffffffffffffffffffffffffffffff1916827bffffffffffffffffffffffffffffffffffffffffffffffffffffffff1916149050919050565b6060614ed38273ffffffffffffffffffffffffffffffffffffffff16601460ff16614eda565b9050919050565b606060006002836002614eed9190617669565b614ef79190616acc565b67ffffffffffffffff811115614f1057614f0f6157cc565b5b6040519080825280601f01601f191660200182016040528015614f425781602001600182028036833780820191505090505b5090507f300000000000000000000000000000000000000000000000000000000000000081600081518110614f7a57614f796167de565b5b60200101907effffffffffffffffffffffffffffffffffffffffffffffffffffffffffffff1916908160001a9053507f780000000000000000000000000000000000000000000000000000000000000081600181518110614fde57614fdd6167de565b5b60200101907effffffffffffffffffffffffffffffffffffffffffffffffffffffffffffff1916908160001a9053506000600184600261501e9190617669565b6150289190616acc565b90505b60018111156150c8577f3031323334353637383961626364656600000000000000000000000000000000600f86166010811061506a576150696167de565b5b1a60f81b828281518110615081576150806167de565b5b60200101907effffffffffffffffffffffffffffffffffffffffffffffffffffffffffffff1916908160001a905350600485901c9450806150c1906176c3565b905061502b565b506000841461510c576040517f08c379a000000000000000000000000000000000000000000000000000000000815260040161510390617738565b60405180910390fd5b8091505092915050565b61512486868686868661543f565b600073ffffffffffffffffffffffffffffffffffffffff168573ffffffffffffffffffffffffffffffffffffffff16036151d65760005b83518110156151d457828181518110615177576151766167de565b5b60200260200101516101f56000868481518110615197576151966167de565b5b6020026020010151815260200190815260200160002060008282546151bc9190616acc565b92505081905550806151cd9061683c565b905061515b565b505b600073ffffffffffffffffffffffffffffffffffffffff168473ffffffffffffffffffffffffffffffffffffffff16036152e15760005b83518110156152df57600084828151811061522b5761522a6167de565b5b60200260200101519050600084838151811061524a576152496167de565b5b6020026020010151905060006101f56000848152602001908152602001600020549050818110156152b0576040517f08c379a00000000000000000000000000000000000000000000000000000000081526004016152a7906177ca565b60405180910390fd5b8181036101f5600085815260200190815260200160002081905550505050806152d89061683c565b905061520d565b505b505050505050565b6000808273ffffffffffffffffffffffffffffffffffffffff163b119050919050565b61531581614952565b8073ffffffffffffffffffffffffffffffffffffffff167fbc7cd75a20ee27fd9adebab32041f755214dbc6bffa90cc0225b39da2e5c2d3b60405160405180910390a250565b6060615366836152e9565b6153a5576040517f08c379a000000000000000000000000000000000000000000000000000000000815260040161539c9061785c565b60405180910390fd5b6000808473ffffffffffffffffffffffffffffffffffffffff16846040516153cd9190616458565b600060405180830381855af49150503d8060008114615408576040519150601f19603f3d011682016040523d82523d6000602084013e61540d565b606091505b5091509150615435828260405180606001604052806027815260200161790f6027913961549d565b9250505092915050565b61544d8686868686866154bf565b6154556122c0565b15615495576040517f08c379a000000000000000000000000000000000000000000000000000000000815260040161548c906178ee565b60405180910390fd5b505050505050565b606083156154ad578290506154b8565b6154b783836154c7565b5b9392505050565b505050505050565b6000825111156154da5781518083602001fd5b806040517f08c379a000000000000000000000000000000000000000000000000000000000815260040161550e91906159f5565b60405180910390fd5b828054615523906163e0565b90600052602060002090601f016020900481019282615545576000855561558c565b82601f1061555e57805160ff191683800117855561558c565b8280016001018555821561558c579182015b8281111561558b578251825591602001919060010190615570565b5b509050615599919061559d565b5090565b5b808211156155b657600081600090555060010161559e565b5090565b600073ffffffffffffffffffffffffffffffffffffffff82169050919050565b60006155e5826155ba565b9050919050565b6155f5816155da565b82525050565b600060208201905061561060008301846155ec565b92915050565b6000604051905090565b600080fd5b600080fd5b615633816155da565b811461563e57600080fd5b50565b6000813590506156508161562a565b92915050565b6000819050919050565b61566981615656565b811461567457600080fd5b50565b60008135905061568681615660565b92915050565b600080604083850312156156a3576156a2615620565b5b60006156b185828601615641565b92505060206156c285828601615677565b9150509250929050565b6156d581615656565b82525050565b60006020820190506156f060008301846156cc565b92915050565b60007fffffffff0000000000000000000000000000000000000000000000000000000082169050919050565b61572b816156f6565b811461573657600080fd5b50565b60008135905061574881615722565b92915050565b60006020828403121561576457615763615620565b5b600061577284828501615739565b91505092915050565b60008115159050919050565b6157908161577b565b82525050565b60006020820190506157ab6000830184615787565b92915050565b600080fd5b600080fd5b6000601f19601f8301169050919050565b7f4e487b7100000000000000000000000000000000000000000000000000000000600052604160045260246000fd5b615804826157bb565b810181811067ffffffffffffffff82111715615823576158226157cc565b5b80604052505050565b6000615836615616565b905061584282826157fb565b919050565b600067ffffffffffffffff821115615862576158616157cc565b5b61586b826157bb565b9050602081019050919050565b82818337600083830152505050565b600061589a61589584615847565b61582c565b9050828152602081018484840111156158b6576158b56157b6565b5b6158c1848285615878565b509392505050565b600082601f8301126158de576158dd6157b1565b5b81356158ee848260208601615887565b91505092915050565b60006020828403121561590d5761590c615620565b5b600082013567ffffffffffffffff81111561592b5761592a615625565b5b615937848285016158c9565b91505092915050565b60006020828403121561595657615955615620565b5b600061596484828501615677565b91505092915050565b600081519050919050565b600082825260208201905092915050565b60005b838110156159a757808201518184015260208101905061598c565b838111156159b6576000848401525b50505050565b60006159c78261596d565b6159d18185615978565b93506159e1818560208601615989565b6159ea816157bb565b840191505092915050565b60006020820190508181036000830152615a0f81846159bc565b905092915050565b600067ffffffffffffffff821115615a3257615a316157cc565b5b602082029050602081019050919050565b600080fd5b6000615a5b615a5684615a17565b61582c565b90508083825260208201905060208402830185811115615a7e57615a7d615a43565b5b835b81811015615aa75780615a938882615677565b845260208401935050602081019050615a80565b5050509392505050565b600082601f830112615ac657615ac56157b1565b5b8135615ad6848260208601615a48565b91505092915050565b600067ffffffffffffffff821115615afa57615af96157cc565b5b615b03826157bb565b9050602081019050919050565b6000615b23615b1e84615adf565b61582c565b905082815260208101848484011115615b3f57615b3e6157b6565b5b615b4a848285615878565b509392505050565b600082601f830112615b6757615b666157b1565b5b8135615b77848260208601615b10565b91505092915050565b60008060008060808587031215615b9a57615b99615620565b5b6000615ba887828801615641565b945050602085013567ffffffffffffffff811115615bc957615bc8615625565b5b615bd587828801615ab1565b935050604085013567ffffffffffffffff811115615bf657615bf5615625565b5b615c0287828801615ab1565b925050606085013567ffffffffffffffff811115615c2357615c22615625565b5b615c2f87828801615b52565b91505092959194509250565b6000819050919050565b615c4e81615c3b565b8114615c5957600080fd5b50565b600081359050615c6b81615c45565b92915050565b600060208284031215615c8757615c86615620565b5b6000615c9584828501615c5c565b91505092915050565b615ca781615c3b565b82525050565b6000602082019050615cc26000830184615c9e565b92915050565b600080600080600060a08688031215615ce457615ce3615620565b5b6000615cf288828901615641565b9550506020615d0388828901615641565b945050604086013567ffffffffffffffff811115615d2457615d23615625565b5b615d3088828901615ab1565b935050606086013567ffffffffffffffff811115615d5157615d50615625565b5b615d5d88828901615ab1565b925050608086013567ffffffffffffffff811115615d7e57615d7d615625565b5b615d8a88828901615b52565b9150509295509295909350565b60008060408385031215615dae57615dad615620565b5b6000615dbc85828601615c5c565b9250506020615dcd85828601615641565b9150509250929050565b600060208284031215615ded57615dec615620565b5b6000615dfb84828501615641565b91505092915050565b600067ffffffffffffffff821115615e1f57615e1e6157cc565b5b602082029050602081019050919050565b6000615e43615e3e84615e04565b61582c565b90508083825260208201905060208402830185811115615e6657615e65615a43565b5b835b81811015615e8f5780615e7b8882615641565b845260208401935050602081019050615e68565b5050509392505050565b600082601f830112615eae57615ead6157b1565b5b8135615ebe848260208601615e30565b91505092915050565b60008060408385031215615ede57615edd615620565b5b600083013567ffffffffffffffff811115615efc57615efb615625565b5b615f0885828601615e99565b925050602083013567ffffffffffffffff811115615f2957615f28615625565b5b615f3585828601615ab1565b9150509250929050565b600081519050919050565b600082825260208201905092915050565b6000819050602082019050919050565b615f7481615656565b82525050565b6000615f868383615f6b565b60208301905092915050565b6000602082019050919050565b6000615faa82615f3f565b615fb48185615f4a565b9350615fbf83615f5b565b8060005b83811015615ff0578151615fd78882615f7a565b9750615fe283615f92565b925050600181019050615fc3565b5085935050505092915050565b600060208201905081810360008301526160178184615f9f565b905092915050565b6000806040838503121561603657616035615620565b5b600061604485828601615641565b925050602083013567ffffffffffffffff81111561606557616064615625565b5b61607185828601615b52565b9150509250929050565b60008060006060848603121561609457616093615620565b5b60006160a286828701615641565b935050602084013567ffffffffffffffff8111156160c3576160c2615625565b5b6160cf86828701615ab1565b925050604084013567ffffffffffffffff8111156160f0576160ef615625565b5b6160fc86828701615ab1565b9150509250925092565b600080600080608085870312156161205761611f615620565b5b600061612e87828801615641565b945050602061613f87828801615677565b935050604061615087828801615677565b925050606085013567ffffffffffffffff81111561617157616170615625565b5b61617d87828801615b52565b91505092959194509250565b6161928161577b565b811461619d57600080fd5b50565b6000813590506161af81616189565b92915050565b600080604083850312156161cc576161cb615620565b5b60006161da85828601615641565b92505060206161eb858286016161a0565b9150509250929050565b6000806040838503121561620c5761620b615620565b5b600061621a85828601615641565b925050602061622b85828601615641565b9150509250929050565b600080600080600060a0868803121561625157616250615620565b5b600061625f88828901615641565b955050602061627088828901615641565b945050604061628188828901615677565b935050606061629288828901615677565b925050608086013567ffffffffffffffff8111156162b3576162b2615625565b5b6162bf88828901615b52565b9150509295509295909350565b6000806000606084860312156162e5576162e4615620565b5b60006162f386828701615641565b935050602061630486828701615677565b925050604061631586828701615677565b9150509250925092565b7f455243313135353a2061646472657373207a65726f206973206e6f742061207660008201527f616c6964206f776e657200000000000000000000000000000000000000000000602082015250565b600061637b602a83615978565b91506163868261631f565b604082019050919050565b600060208201905081810360008301526163aa8161636e565b9050919050565b7f4e487b7100000000000000000000000000000000000000000000000000000000600052602260045260246000fd5b600060028204905060018216806163f857607f821691505b60208210810361640b5761640a6163b1565b5b50919050565b600081519050919050565b600081905092915050565b600061643282616411565b61643c818561641c565b935061644c818560208601615989565b80840191505092915050565b60006164648284616427565b915081905092915050565b7f44656c65676174652063616c6c206661696c6564000000000000000000000000600082015250565b60006164a5601483615978565b91506164b08261646f565b602082019050919050565b600060208201905081810360008301526164d481616498565b9050919050565b60006040820190506164f060008301856156cc565b6164fd60208301846155ec565b9392505050565b7f455243313135353a2063616c6c6572206973206e6f7420746f6b656e206f776e60008201527f6572206f7220617070726f766564000000000000000000000000000000000000602082015250565b6000616560602e83615978565b915061656b82616504565b604082019050919050565b6000602082019050818103600083015261658f81616553565b9050919050565b7f416363657373436f6e74726f6c3a2063616e206f6e6c792072656e6f756e636560008201527f20726f6c657320666f722073656c660000000000000000000000000000000000602082015250565b60006165f2602f83615978565b91506165fd82616596565b604082019050919050565b60006020820190508181036000830152616621816165e5565b9050919050565b7f46756e6374696f6e206d7573742062652063616c6c6564207468726f7567682060008201527f64656c656761746563616c6c0000000000000000000000000000000000000000602082015250565b6000616684602c83615978565b915061668f82616628565b604082019050919050565b600060208201905081810360008301526166b381616677565b9050919050565b7f46756e6374696f6e206d7573742062652063616c6c6564207468726f7567682060008201527f6163746976652070726f78790000000000000000000000000000000000000000602082015250565b6000616716602c83615978565b9150616721826166ba565b604082019050919050565b6000602082019050818103600083015261674581616709565b9050919050565b7f455243313135353a206163636f756e747320616e6420696473206c656e67746860008201527f206d69736d617463680000000000000000000000000000000000000000000000602082015250565b60006167a8602983615978565b91506167b38261674c565b604082019050919050565b600060208201905081810360008301526167d78161679b565b9050919050565b7f4e487b7100000000000000000000000000000000000000000000000000000000600052603260045260246000fd5b7f4e487b7100000000000000000000000000000000000000000000000000000000600052601160045260246000fd5b600061684782615656565b91507fffffffffffffffffffffffffffffffffffffffffffffffffffffffffffffffff82036168795761687861680d565b5b600182019050919050565b7f555550535570677261646561626c653a206d757374206e6f742062652063616c60008201527f6c6564207468726f7567682064656c656761746563616c6c0000000000000000602082015250565b60006168e0603883615978565b91506168eb82616884565b604082019050919050565b6000602082019050818103600083015261690f816168d3565b9050919050565b7f4f776e61626c653a206e6577206f776e657220697320746865207a65726f206160008201527f6464726573730000000000000000000000000000000000000000000000000000602082015250565b6000616972602683615978565b915061697d82616916565b604082019050919050565b600060208201905081810360008301526169a181616965565b9050919050565b7f455243313135353a206d696e7420746f20746865207a65726f2061646472657360008201527f7300000000000000000000000000000000000000000000000000000000000000602082015250565b6000616a04602183615978565b9150616a0f826169a8565b604082019050919050565b60006020820190508181036000830152616a33816169f7565b9050919050565b7f455243313135353a2069647320616e6420616d6f756e7473206c656e6774682060008201527f6d69736d61746368000000000000000000000000000000000000000000000000602082015250565b6000616a96602883615978565b9150616aa182616a3a565b604082019050919050565b60006020820190508181036000830152616ac581616a89565b9050919050565b6000616ad782615656565b9150616ae283615656565b9250827fffffffffffffffffffffffffffffffffffffffffffffffffffffffffffffffff03821115616b1757616b1661680d565b5b828201905092915050565b60006040820190508181036000830152616b3c8185615f9f565b90508181036020830152616b508184615f9f565b90509392505050565b7f455243313135353a207472616e7366657220746f20746865207a65726f20616460008201527f6472657373000000000000000000000000000000000000000000000000000000602082015250565b6000616bb5602583615978565b9150616bc082616b59565b604082019050919050565b60006020820190508181036000830152616be481616ba8565b9050919050565b7f455243313135353a20696e73756666696369656e742062616c616e636520666f60008201527f72207472616e7366657200000000000000000000000000000000000000000000602082015250565b6000616c47602a83615978565b9150616c5282616beb565b604082019050919050565b60006020820190508181036000830152616c7681616c3a565b9050919050565b600081519050616c8c81615c45565b92915050565b600060208284031215616ca857616ca7615620565b5b6000616cb684828501616c7d565b91505092915050565b7f45524331393637557067726164653a206e657720696d706c656d656e7461746960008201527f6f6e206973206e6f742055555053000000000000000000000000000000000000602082015250565b6000616d1b602e83615978565b9150616d2682616cbf565b604082019050919050565b60006020820190508181036000830152616d4a81616d0e565b9050919050565b7f45524331393637557067726164653a20756e737570706f727465642070726f7860008201527f6961626c65555549440000000000000000000000000000000000000000000000602082015250565b6000616dad602983615978565b9150616db882616d51565b604082019050919050565b60006020820190508181036000830152616ddc81616da0565b9050919050565b7f455243313135353a206275726e2066726f6d20746865207a65726f206164647260008201527f6573730000000000000000000000000000000000000000000000000000000000602082015250565b6000616e3f602383615978565b9150616e4a82616de3565b604082019050919050565b60006020820190508181036000830152616e6e81616e32565b9050919050565b7f455243313135353a206275726e20616d6f756e7420657863656564732062616c60008201527f616e636500000000000000000000000000000000000000000000000000000000602082015250565b6000616ed1602483615978565b9150616edc82616e75565b604082019050919050565b60006020820190508181036000830152616f0081616ec4565b9050919050565b7f4f776e61626c653a2063616c6c6572206973206e6f7420746865206f776e6572600082015250565b6000616f3d602083615978565b9150616f4882616f07565b602082019050919050565b60006020820190508181036000830152616f6c81616f30565b9050919050565b6000604082019050616f8860008301856156cc565b616f9560208301846156cc565b9392505050565b7f455243313135353a2073657474696e6720617070726f76616c2073746174757360008201527f20666f722073656c660000000000000000000000000000000000000000000000602082015250565b6000616ff8602983615978565b915061700382616f9c565b604082019050919050565b6000602082019050818103600083015261702781616feb565b9050919050565b7f496e697469616c697a61626c653a20636f6e7472616374206973206e6f74206960008201527f6e697469616c697a696e67000000000000000000000000000000000000000000602082015250565b600061708a602b83615978565b91506170958261702e565b604082019050919050565b600060208201905081810360008301526170b98161707d565b9050919050565b600081905092915050565b7f416363657373436f6e74726f6c3a206163636f756e7420000000000000000000600082015250565b60006171016017836170c0565b915061710c826170cb565b601782019050919050565b60006171228261596d565b61712c81856170c0565b935061713c818560208601615989565b80840191505092915050565b7f206973206d697373696e6720726f6c6520000000000000000000000000000000600082015250565b600061717e6011836170c0565b915061718982617148565b601182019050919050565b600061719f826170f4565b91506171ab8285617117565b91506171b682617171565b91506171c28284617117565b91508190509392505050565b600082825260208201905092915050565b60006171ea82616411565b6171f481856171ce565b9350617204818560208601615989565b61720d816157bb565b840191505092915050565b600060a08201905061722d60008301886155ec565b61723a60208301876155ec565b818103604083015261724c8186615f9f565b905081810360608301526172608185615f9f565b9050818103608083015261727481846171df565b90509695505050505050565b60008151905061728f81615722565b92915050565b6000602082840312156172ab576172aa615620565b5b60006172b984828501617280565b91505092915050565b60008160e01c9050919050565b600060033d11156172ee5760046000803e6172eb6000516172c2565b90505b90565b600060443d1061737e57617303615616565b60043d036004823e80513d602482011167ffffffffffffffff8211171561732b57505061737e565b808201805167ffffffffffffffff811115617349575050505061737e565b80602083010160043d03850181111561736657505050505061737e565b617375826020018501866157fb565b82955050505050505b90565b7f455243313135353a207472616e7366657220746f206e6f6e2d4552433131353560008201527f526563656976657220696d706c656d656e746572000000000000000000000000602082015250565b60006173dd603483615978565b91506173e882617381565b604082019050919050565b6000602082019050818103600083015261740c816173d0565b9050919050565b7f455243313135353a204552433131353552656365697665722072656a6563746560008201527f6420746f6b656e73000000000000000000000000000000000000000000000000602082015250565b600061746f602883615978565b915061747a82617413565b604082019050919050565b6000602082019050818103600083015261749e81617462565b9050919050565b7f455243313936373a206e657720696d706c656d656e746174696f6e206973206e60008201527f6f74206120636f6e747261637400000000000000000000000000000000000000602082015250565b6000617501602d83615978565b915061750c826174a5565b604082019050919050565b60006020820190508181036000830152617530816174f4565b9050919050565b7f5061757361626c653a206e6f7420706175736564000000000000000000000000600082015250565b600061756d601483615978565b915061757882617537565b602082019050919050565b6000602082019050818103600083015261759c81617560565b9050919050565b600060a0820190506175b860008301886155ec565b6175c560208301876155ec565b6175d260408301866156cc565b6175df60608301856156cc565b81810360808301526175f181846171df565b90509695505050505050565b7f5061757361626c653a2070617573656400000000000000000000000000000000600082015250565b6000617633601083615978565b915061763e826175fd565b602082019050919050565b6000602082019050818103600083015261766281617626565b9050919050565b600061767482615656565b915061767f83615656565b9250817fffffffffffffffffffffffffffffffffffffffffffffffffffffffffffffffff04831182151516156176b8576176b761680d565b5b828202905092915050565b60006176ce82615656565b9150600082036176e1576176e061680d565b5b600182039050919050565b7f537472696e67733a20686578206c656e67746820696e73756666696369656e74600082015250565b6000617722602083615978565b915061772d826176ec565b602082019050919050565b6000602082019050818103600083015261775181617715565b9050919050565b7f455243313135353a206275726e20616d6f756e74206578636565647320746f7460008201527f616c537570706c79000000000000000000000000000000000000000000000000602082015250565b60006177b4602883615978565b91506177bf82617758565b604082019050919050565b600060208201905081810360008301526177e3816177a7565b9050919050565b7f416464726573733a2064656c65676174652063616c6c20746f206e6f6e2d636f60008201527f6e74726163740000000000000000000000000000000000000000000000000000602082015250565b6000617846602683615978565b9150617851826177ea565b604082019050919050565b6000602082019050818103600083015261787581617839565b9050919050565b7f455243313135355061757361626c653a20746f6b656e207472616e736665722060008201527f7768696c65207061757365640000000000000000000000000000000000000000602082015250565b60006178d8602c83615978565b91506178e38261787c565b604082019050919050565b60006020820190508181036000830152617907816178cb565b905091905056fe416464726573733a206c6f772d6c6576656c2064656c65676174652063616c6c206661696c6564a26469706673582212209d0925a9622eaa2b99dcf893935d45b376652939065ec67298efe6a5bcde836864736f6c634300080e0033",
  "immutableReferences": {
    "1129": [
      {
        "length": 32,
        "start": 7478
      },
      {
        "length": 32,
        "start": 7620
      },
      {
        "length": 32,
        "start": 8327
      },
      {
        "length": 32,
        "start": 8469
      },
      {
        "length": 32,
        "start": 8690
      }
    ]
  },
  "source": "// SPDX-License-Identifier: MIT\r\npragma solidity ^0.8.4;\r\n\r\nimport \"@openzeppelin/contracts-upgradeable/token/ERC1155/ERC1155Upgradeable.sol\";\r\nimport \"@openzeppelin/contracts-upgradeable/token/ERC1155/extensions/ERC1155BurnableUpgradeable.sol\";\r\nimport \"@openzeppelin/contracts-upgradeable/token/ERC1155/extensions/ERC1155PausableUpgradeable.sol\";\r\nimport \"@openzeppelin/contracts-upgradeable/access/OwnableUpgradeable.sol\";\r\nimport \"@openzeppelin/contracts-upgradeable/proxy/utils/Initializable.sol\";\r\nimport \"@openzeppelin/contracts-upgradeable/proxy/utils/UUPSUpgradeable.sol\";\r\nimport \"@openzeppelin/contracts-upgradeable/access/AccessControlUpgradeable.sol\";\r\nimport \"@openzeppelin/contracts-upgradeable/token/ERC1155/extensions/ERC1155SupplyUpgradeable.sol\";\r\n\r\n// nHomes (nH) v1.0.0\r\n// this contract is a proxy to the profile contract\r\n// this contract is called by a conda enviornment running on a user's computer to create a household node as a profile.\r\n// this node can hold multiple profiles while keeping the profiles private, and the household node public.\r\n// this node can also hold multiple homes as offices, and each home can hold multiple profiles to be used in professional settings\r\n// nodes are used to create profiles\r\n// profiles can be made in a number of ways\r\n    // profiles can be generated by a user's computer, phone, or tablet\r\n    // profiles can be generated automatically by a home or professional node (this is the default) and locked to the user's biometrics\r\n        // in this case, the data from the profile is encrypted and stored locally on the node's computer.\r\n        // this contract can use non-detirministic algorithms to generate a signiture key. using Phoenix these keys can be uploaded to the blockchain to give the user access to their profile\r\n            // this can allow for time delayed access to the data, giving the user time to recover their profile before it is deleted\r\n            // this can also allow for the user to recover their profile if they lose their phone or computer\r\n\r\n// it has a function to create a profile node\r\n// it has a function to create a profile node fragment\r\n\r\n\r\n\r\ncontract nHomes is Initializable, ERC1155Upgradeable, ERC1155BurnableUpgradeable, ERC1155PausableUpgradeable, OwnableUpgradeable, UUPSUpgradeable, AccessControlUpgradeable, ERC1155SupplyUpgradeable {\r\n    struct Item {\r\n        bytes32[] encryptedItem;\r\n    }\r\n    event EncryptionToolsSet(address _encryptionTools);\r\n    bytes32 public constant URI_SETTER_ROLE = keccak256(\"URI_SETTER_ROLE\");\r\n    bytes32 public constant PAUSER_ROLE = keccak256(\"PAUSER_ROLE\");\r\n    bytes32 public constant MINTER_ROLE = keccak256(\"MINTER_ROLE\");\r\n    bytes32 public constant UPGRADER_ROLE = keccak256(\"UPGRADER_ROLE\");\r\n    address public ETAddress;\r\n    uint256 public itemID;\r\n    mapping (uint256 => Item) internal items;\r\n    address public ITAddress;\r\n    address public newOwner;\r\n    address public IDAddress;\r\n    event ItemTrackerSet(address _itemTracker);\r\n    mapping(uint256 => address) public itemOwners;\r\n    address public vaultAddress;\r\n    mapping(uint256 => address) public vaults;\r\n    mapping(uint256 => uint256) public vaultIDs;\r\n    mapping(uint256 => uint256) public vaultBalances;\r\n    event VaultSet(address _vault);\r\n    mapping(uint256 => uint256) public Profiles;\r\n    mapping(uint256 => uint256) public ProfileIDs;\r\n    mapping(uint256 => uint256) public ProfileBalances;\r\n    event ProfileSet(address _profile);\r\n    address public homeAddress;\r\n    mapping(uint256 => uint256) public Homes;\r\n    mapping(uint256 => uint256) public HomeIDs;\r\n    mapping(uint256 => uint256) public HomeBalances;\r\n    event HomeSet(address _home);\r\n    address public officeAddress;\r\n    mapping(uint256 => uint256) public Offices;\r\n    mapping(uint256 => uint256) public OfficeIDs;\r\n    mapping(uint256 => uint256) public OfficeBalances;\r\n    event OfficeSet(address _office);\r\n    address public nodeAddress;\r\n    mapping(uint256 => uint256) public Nodes;\r\n    mapping(uint256 => uint256) public NodeIDs;\r\n    mapping(uint256 => uint256) public NodeBalances;\r\n    event NodeSet(address _node);\r\n    \r\n    // initialize the contract\r\n    // set the profile contract address\r\n    // use a random number generator to create a profile node\r\n    // set the profile node as the owner of the profile contract\r\n    // create a profile node fragment and set it as the owner of the profile node\r\n    // this fragment is a non-fungible token that is claimable by the person who created the profile node\r\n    // this fragment can be used to claim the profile node\r\n    // this fragment can be used to claim the profile contract\r\n    // the initializer returns a random number that is used to claim the profile node fragment\r\nfunction initialize(address _nodeAddress) public {\r\n        __ERC1155_init(\"https://ipfs.io/ipfs/\");\r\n        __ERC1155Burnable_init();\r\n        __ERC1155Pausable_init();\r\n        __Ownable_init();\r\n        __UUPSUpgradeable_init();\r\n        __AccessControl_init();\r\n        __ERC1155Supply_init();\r\n        _setupRole(DEFAULT_ADMIN_ROLE, msg.sender);\r\n        _setupRole(URI_SETTER_ROLE, msg.sender);\r\n        _setupRole(PAUSER_ROLE, msg.sender);\r\n        _setupRole(MINTER_ROLE, msg.sender);\r\n        _setupRole(UPGRADER_ROLE, msg.sender);\r\n        nodeAddress = _nodeAddress;\r\n        // creates an item and sets the owner of the item to this contract and then transfers the vault to the owner of the item\r\n        itemID = 0;\r\n        itemOwners[itemID] = address(this);\r\n        vaultAddress = address(this);\r\n        vaults[itemID] = vaultAddress;\r\n        vaultIDs[itemID] = itemID;\r\n        vaultBalances[itemID] = 1;\r\n        _mint(address(this), itemID, 1, \"\");\r\n        _safeTransferFrom(address(this), vaultAddress, itemID, 1, \"\");\r\n        // // creates a profile node and sets the owner of the profile node to this contract and then transfers the profile node to the owner of the item\r\n        // // this is transfered to a nWonderland contract that is deployed by the user who created the profile node by signing a message with their private key \r\n        // // over to a wallet that is owned by the user\r\n        // itemID = 1;\r\n        // itemOwners[itemID] = address(this);\r\n        // nodeAddress = address(this);\r\n        // Nodes[itemID] = nodeAddress;\r\n        // NodeIDs[itemID] = itemID;\r\n        // NodeBalances[itemID] = 1;\r\n        // _mint(address(this), itemID, 1, \"\");\r\n        // _safeTransferFrom(address(this), nodeAddress, itemID, 1, \"\");\r\n    }\r\n    // this function creates a delegate call to the profile contract to set the encryption tools, the item tracker, the Item Distributor, and then creates a vault and then \r\n    // creates an item and sets the owner of the item to this contract and then transfers the vault to the owner of the item\r\n    function activateNode()public{\r\n        (bool success, bytes memory result) = nodeAddress.delegatecall(abi.encodeWithSignature(\"setEncryptionTools\", ETAddress));\r\n        require(success, \"Delegate call failed\");\r\n        (bool success2, bytes memory result2) = nodeAddress.delegatecall(abi.encodeWithSignature(\"setItemTracker\", ITAddress));\r\n        require(success2, \"Delegate call failed\");\r\n        (bool success3, bytes memory result3) = nodeAddress.delegatecall(abi.encodeWithSignature(\"setItemDistributor\", IDAddress));\r\n        require(success3, \"Delegate call failed\");\r\n        (bool success4, bytes memory result4) = nodeAddress.delegatecall(abi.encodeWithSignature(\"createVault\", vaultAddress));\r\n        require(success4, \"Delegate call failed\");\r\n        (bool success5, bytes memory result5) = nodeAddress.delegatecall(abi.encodeWithSignature(\"createItem\", itemID, vaultAddress));\r\n        require(success5, \"Delegate call failed\");\r\n        (bool success6, bytes memory result6) = nodeAddress.delegatecall(abi.encodeWithSignature(\"setItemOwner\", itemID, address(this)));\r\n        require(success6, \"Delegate call failed\");\r\n        (bool success7, bytes memory result7) = nodeAddress.delegatecall(abi.encodeWithSignature(\"transferVault\", itemID, address(this)));\r\n        require(success7, \"Delegate call failed\");\r\n    }\r\n\r\n\r\n\r\n    // this function creates an item using ET, creates a set of blank NFTs using IT, creates a random list of numbers using ID, and encrypts all three of them within a vault.\r\n    // The vault is then sent returned to the user's computer and the key is set a time delayed digital signature key that is cleared after a set amount of time or \r\n    // a certain number of transactions have been made giving the processor time to verify the data and upload it to the blockchain.\r\n        // Through an MVP reward oracle, the confidence of a user owning a profile will be increased over time as the IT fills out data about the item.\r\n        // in this case, the item is a profile, so the IT nfts will be filled with data about the profile.\r\n        // over time, there will be ten million pictures of the user in different settings, and the user will be able to use this data to prove ownership of the profile.\r\n        // at 60fps, this will take 1.9 days to fill out the data. These 10 million frames will be used to create 3d models of the user in different settings and in different poses \r\n        // and eventually the entire profile will just be a high resolution 3d model of the user, all other data that is not needed can be saved in other vaults under the profile.\r\n\r\n    // lets create a profile node fragment first\r\n    \r\n            function setURI(string memory newuri) public onlyRole(URI_SETTER_ROLE) {\r\n        _setURI(newuri);\r\n    }\r\n\r\n    function pause() public onlyRole(PAUSER_ROLE) {\r\n        _pause();\r\n    }\r\n\r\n    function unpause() public onlyRole(PAUSER_ROLE) {\r\n        _unpause();\r\n    }\r\n\r\n    function mint(address account, uint256 id, uint256 amount, bytes memory data)\r\n        public\r\n        onlyRole(MINTER_ROLE)\r\n    {\r\n        _mint(account, id, amount, data);\r\n    }\r\n\r\n    function mintBatch(address to, uint256[] memory ids, uint256[] memory amounts, bytes memory data)\r\n        public\r\n        onlyRole(MINTER_ROLE)\r\n    {\r\n        _mintBatch(to, ids, amounts, data);\r\n    }\r\n\r\n    function _beforeTokenTransfer(address operator, address from, address to, uint256[] memory ids, uint256[] memory amounts, bytes memory data)\r\n        internal\r\n        whenNotPaused\r\n        override(ERC1155PausableUpgradeable, ERC1155Upgradeable, ERC1155SupplyUpgradeable)\r\n    {\r\n        super._beforeTokenTransfer(operator, from, to, ids, amounts, data);\r\n    }\r\n\r\n    function _authorizeUpgrade(address newImplementation)\r\n        internal\r\n        onlyRole(UPGRADER_ROLE)\r\n        override\r\n    {}\r\n\r\n    // The following functions are overrides required by Solidity.\r\n\r\n    function supportsInterface(bytes4 interfaceId)\r\n        public\r\n        view\r\n        override(ERC1155Upgradeable, AccessControlUpgradeable)\r\n        returns (bool)\r\n    {\r\n        return super.supportsInterface(interfaceId);\r\n    }\r\n\r\n\r\n}",
  "sourcePath": "C:\\Users\\mosle\\Documents\\GitHub\\nWonderland\\contracts\\DALI\\006_nHomes.sol",
  "compiler": {
    "name": "solc",
    "version": "0.8.14+commit.80d49f37.Emscripten.clang"
  },
  "schemaVersion": "3.4.8",
  "updatedAt": "2022-12-09T15:56:11.749Z",
  "devdoc": {
    "kind": "dev",
    "methods": {
      "balanceOf(address,uint256)": {
        "details": "See {IERC1155-balanceOf}. Requirements: - `account` cannot be the zero address."
      },
      "balanceOfBatch(address[],uint256[])": {
        "details": "See {IERC1155-balanceOfBatch}. Requirements: - `accounts` and `ids` must have the same length."
      },
      "exists(uint256)": {
        "details": "Indicates whether any token exist with a given id, or not."
      },
      "getRoleAdmin(bytes32)": {
        "details": "Returns the admin role that controls `role`. See {grantRole} and {revokeRole}. To change a role's admin, use {_setRoleAdmin}."
      },
      "grantRole(bytes32,address)": {
        "details": "Grants `role` to `account`. If `account` had not been already granted `role`, emits a {RoleGranted} event. Requirements: - the caller must have ``role``'s admin role. May emit a {RoleGranted} event."
      },
      "hasRole(bytes32,address)": {
        "details": "Returns `true` if `account` has been granted `role`."
      },
      "isApprovedForAll(address,address)": {
        "details": "See {IERC1155-isApprovedForAll}."
      },
      "owner()": {
        "details": "Returns the address of the current owner."
      },
      "paused()": {
        "details": "Returns true if the contract is paused, and false otherwise."
      },
      "proxiableUUID()": {
        "details": "Implementation of the ERC1822 {proxiableUUID} function. This returns the storage slot used by the implementation. It is used to validate the implementation's compatibility when performing an upgrade. IMPORTANT: A proxy pointing at a proxiable contract should not be considered proxiable itself, because this risks bricking a proxy that upgrades to it, by delegating to itself until out of gas. Thus it is critical that this function revert if invoked through a proxy. This is guaranteed by the `notDelegated` modifier."
      },
      "renounceOwnership()": {
        "details": "Leaves the contract without owner. It will not be possible to call `onlyOwner` functions anymore. Can only be called by the current owner. NOTE: Renouncing ownership will leave the contract without an owner, thereby removing any functionality that is only available to the owner."
      },
      "renounceRole(bytes32,address)": {
        "details": "Revokes `role` from the calling account. Roles are often managed via {grantRole} and {revokeRole}: this function's purpose is to provide a mechanism for accounts to lose their privileges if they are compromised (such as when a trusted device is misplaced). If the calling account had been revoked `role`, emits a {RoleRevoked} event. Requirements: - the caller must be `account`. May emit a {RoleRevoked} event."
      },
      "revokeRole(bytes32,address)": {
        "details": "Revokes `role` from `account`. If `account` had been granted `role`, emits a {RoleRevoked} event. Requirements: - the caller must have ``role``'s admin role. May emit a {RoleRevoked} event."
      },
      "safeBatchTransferFrom(address,address,uint256[],uint256[],bytes)": {
        "details": "See {IERC1155-safeBatchTransferFrom}."
      },
      "safeTransferFrom(address,address,uint256,uint256,bytes)": {
        "details": "See {IERC1155-safeTransferFrom}."
      },
      "setApprovalForAll(address,bool)": {
        "details": "See {IERC1155-setApprovalForAll}."
      },
      "totalSupply(uint256)": {
        "details": "Total amount of tokens in with a given id."
      },
      "transferOwnership(address)": {
        "details": "Transfers ownership of the contract to a new account (`newOwner`). Can only be called by the current owner."
      },
      "upgradeTo(address)": {
        "details": "Upgrade the implementation of the proxy to `newImplementation`. Calls {_authorizeUpgrade}. Emits an {Upgraded} event."
      },
      "upgradeToAndCall(address,bytes)": {
        "details": "Upgrade the implementation of the proxy to `newImplementation`, and subsequently execute the function call encoded in `data`. Calls {_authorizeUpgrade}. Emits an {Upgraded} event."
      },
      "uri(uint256)": {
        "details": "See {IERC1155MetadataURI-uri}. This implementation returns the same URI for *all* token types. It relies on the token type ID substitution mechanism https://eips.ethereum.org/EIPS/eip-1155#metadata[defined in the EIP]. Clients calling this function must replace the `\\{id\\}` substring with the actual token type ID."
      }
    },
    "version": 1
  },
  "userdoc": {
    "kind": "user",
    "methods": {},
    "version": 1
  }
}