{
  "contractName": "nHomes",
  "abi": [
    {
      "anonymous": false,
      "inputs": [
        {
          "indexed": false,
          "internalType": "address",
          "name": "previousAdmin",
          "type": "address"
        },
        {
          "indexed": false,
          "internalType": "address",
          "name": "newAdmin",
          "type": "address"
        }
      ],
      "name": "AdminChanged",
      "type": "event"
    },
    {
      "anonymous": false,
      "inputs": [
        {
          "indexed": true,
          "internalType": "address",
          "name": "account",
          "type": "address"
        },
        {
          "indexed": true,
          "internalType": "address",
          "name": "operator",
          "type": "address"
        },
        {
          "indexed": false,
          "internalType": "bool",
          "name": "approved",
          "type": "bool"
        }
      ],
      "name": "ApprovalForAll",
      "type": "event"
    },
    {
      "anonymous": false,
      "inputs": [
        {
          "indexed": true,
          "internalType": "address",
          "name": "beacon",
          "type": "address"
        }
      ],
      "name": "BeaconUpgraded",
      "type": "event"
    },
    {
      "anonymous": false,
      "inputs": [
        {
          "indexed": false,
          "internalType": "address",
          "name": "_encryptionTools",
          "type": "address"
        }
      ],
      "name": "EncryptionToolsSet",
      "type": "event"
    },
    {
      "anonymous": false,
      "inputs": [
        {
          "indexed": false,
          "internalType": "address",
          "name": "_home",
          "type": "address"
        }
      ],
      "name": "HomeSet",
      "type": "event"
    },
    {
      "anonymous": false,
      "inputs": [
        {
          "indexed": false,
          "internalType": "uint8",
          "name": "version",
          "type": "uint8"
        }
      ],
      "name": "Initialized",
      "type": "event"
    },
    {
      "anonymous": false,
      "inputs": [
        {
          "indexed": false,
          "internalType": "address",
          "name": "_itemTracker",
          "type": "address"
        }
      ],
      "name": "ItemTrackerSet",
      "type": "event"
    },
    {
      "anonymous": false,
      "inputs": [
        {
          "indexed": false,
          "internalType": "address",
          "name": "_node",
          "type": "address"
        }
      ],
      "name": "NodeSet",
      "type": "event"
    },
    {
      "anonymous": false,
      "inputs": [
        {
          "indexed": false,
          "internalType": "address",
          "name": "_office",
          "type": "address"
        }
      ],
      "name": "OfficeSet",
      "type": "event"
    },
    {
      "anonymous": false,
      "inputs": [
        {
          "indexed": true,
          "internalType": "address",
          "name": "previousOwner",
          "type": "address"
        },
        {
          "indexed": true,
          "internalType": "address",
          "name": "newOwner",
          "type": "address"
        }
      ],
      "name": "OwnershipTransferred",
      "type": "event"
    },
    {
      "anonymous": false,
      "inputs": [
        {
          "indexed": false,
          "internalType": "address",
          "name": "account",
          "type": "address"
        }
      ],
      "name": "Paused",
      "type": "event"
    },
    {
      "anonymous": false,
      "inputs": [
        {
          "indexed": false,
          "internalType": "address",
          "name": "_profile",
          "type": "address"
        }
      ],
      "name": "ProfileSet",
      "type": "event"
    },
    {
      "anonymous": false,
      "inputs": [
        {
          "indexed": true,
          "internalType": "bytes32",
          "name": "role",
          "type": "bytes32"
        },
        {
          "indexed": true,
          "internalType": "bytes32",
          "name": "previousAdminRole",
          "type": "bytes32"
        },
        {
          "indexed": true,
          "internalType": "bytes32",
          "name": "newAdminRole",
          "type": "bytes32"
        }
      ],
      "name": "RoleAdminChanged",
      "type": "event"
    },
    {
      "anonymous": false,
      "inputs": [
        {
          "indexed": true,
          "internalType": "bytes32",
          "name": "role",
          "type": "bytes32"
        },
        {
          "indexed": true,
          "internalType": "address",
          "name": "account",
          "type": "address"
        },
        {
          "indexed": true,
          "internalType": "address",
          "name": "sender",
          "type": "address"
        }
      ],
      "name": "RoleGranted",
      "type": "event"
    },
    {
      "anonymous": false,
      "inputs": [
        {
          "indexed": true,
          "internalType": "bytes32",
          "name": "role",
          "type": "bytes32"
        },
        {
          "indexed": true,
          "internalType": "address",
          "name": "account",
          "type": "address"
        },
        {
          "indexed": true,
          "internalType": "address",
          "name": "sender",
          "type": "address"
        }
      ],
      "name": "RoleRevoked",
      "type": "event"
    },
    {
      "anonymous": false,
      "inputs": [
        {
          "indexed": true,
          "internalType": "address",
          "name": "operator",
          "type": "address"
        },
        {
          "indexed": true,
          "internalType": "address",
          "name": "from",
          "type": "address"
        },
        {
          "indexed": true,
          "internalType": "address",
          "name": "to",
          "type": "address"
        },
        {
          "indexed": false,
          "internalType": "uint256[]",
          "name": "ids",
          "type": "uint256[]"
        },
        {
          "indexed": false,
          "internalType": "uint256[]",
          "name": "values",
          "type": "uint256[]"
        }
      ],
      "name": "TransferBatch",
      "type": "event"
    },
    {
      "anonymous": false,
      "inputs": [
        {
          "indexed": true,
          "internalType": "address",
          "name": "operator",
          "type": "address"
        },
        {
          "indexed": true,
          "internalType": "address",
          "name": "from",
          "type": "address"
        },
        {
          "indexed": true,
          "internalType": "address",
          "name": "to",
          "type": "address"
        },
        {
          "indexed": false,
          "internalType": "uint256",
          "name": "id",
          "type": "uint256"
        },
        {
          "indexed": false,
          "internalType": "uint256",
          "name": "value",
          "type": "uint256"
        }
      ],
      "name": "TransferSingle",
      "type": "event"
    },
    {
      "anonymous": false,
      "inputs": [
        {
          "indexed": false,
          "internalType": "string",
          "name": "value",
          "type": "string"
        },
        {
          "indexed": true,
          "internalType": "uint256",
          "name": "id",
          "type": "uint256"
        }
      ],
      "name": "URI",
      "type": "event"
    },
    {
      "anonymous": false,
      "inputs": [
        {
          "indexed": false,
          "internalType": "address",
          "name": "account",
          "type": "address"
        }
      ],
      "name": "Unpaused",
      "type": "event"
    },
    {
      "anonymous": false,
      "inputs": [
        {
          "indexed": true,
          "internalType": "address",
          "name": "implementation",
          "type": "address"
        }
      ],
      "name": "Upgraded",
      "type": "event"
    },
    {
      "anonymous": false,
      "inputs": [
        {
          "indexed": false,
          "internalType": "address",
          "name": "_vault",
          "type": "address"
        }
      ],
      "name": "VaultSet",
      "type": "event"
    },
    {
      "inputs": [],
      "name": "DEFAULT_ADMIN_ROLE",
      "outputs": [
        {
          "internalType": "bytes32",
          "name": "",
          "type": "bytes32"
        }
      ],
      "stateMutability": "view",
      "type": "function"
    },
    {
      "inputs": [],
      "name": "ETAddress",
      "outputs": [
        {
          "internalType": "address",
          "name": "",
          "type": "address"
        }
      ],
      "stateMutability": "view",
      "type": "function"
    },
    {
      "inputs": [
        {
          "internalType": "uint256",
          "name": "",
          "type": "uint256"
        }
      ],
      "name": "HomeBalances",
      "outputs": [
        {
          "internalType": "uint256",
          "name": "",
          "type": "uint256"
        }
      ],
      "stateMutability": "view",
      "type": "function"
    },
    {
      "inputs": [
        {
          "internalType": "uint256",
          "name": "",
          "type": "uint256"
        }
      ],
      "name": "HomeIDs",
      "outputs": [
        {
          "internalType": "uint256",
          "name": "",
          "type": "uint256"
        }
      ],
      "stateMutability": "view",
      "type": "function"
    },
    {
      "inputs": [
        {
          "internalType": "uint256",
          "name": "",
          "type": "uint256"
        }
      ],
      "name": "Homes",
      "outputs": [
        {
          "internalType": "uint256",
          "name": "",
          "type": "uint256"
        }
      ],
      "stateMutability": "view",
      "type": "function"
    },
    {
      "inputs": [],
      "name": "IDAddress",
      "outputs": [
        {
          "internalType": "address",
          "name": "",
          "type": "address"
        }
      ],
      "stateMutability": "view",
      "type": "function"
    },
    {
      "inputs": [],
      "name": "ITAddress",
      "outputs": [
        {
          "internalType": "address",
          "name": "",
          "type": "address"
        }
      ],
      "stateMutability": "view",
      "type": "function"
    },
    {
      "inputs": [],
      "name": "MINTER_ROLE",
      "outputs": [
        {
          "internalType": "bytes32",
          "name": "",
          "type": "bytes32"
        }
      ],
      "stateMutability": "view",
      "type": "function"
    },
    {
      "inputs": [
        {
          "internalType": "uint256",
          "name": "",
          "type": "uint256"
        }
      ],
      "name": "NodeBalances",
      "outputs": [
        {
          "internalType": "uint256",
          "name": "",
          "type": "uint256"
        }
      ],
      "stateMutability": "view",
      "type": "function"
    },
    {
      "inputs": [
        {
          "internalType": "uint256",
          "name": "",
          "type": "uint256"
        }
      ],
      "name": "NodeIDs",
      "outputs": [
        {
          "internalType": "uint256",
          "name": "",
          "type": "uint256"
        }
      ],
      "stateMutability": "view",
      "type": "function"
    },
    {
      "inputs": [
        {
          "internalType": "uint256",
          "name": "",
          "type": "uint256"
        }
      ],
      "name": "Nodes",
      "outputs": [
        {
          "internalType": "uint256",
          "name": "",
          "type": "uint256"
        }
      ],
      "stateMutability": "view",
      "type": "function"
    },
    {
      "inputs": [
        {
          "internalType": "uint256",
          "name": "",
          "type": "uint256"
        }
      ],
      "name": "OfficeBalances",
      "outputs": [
        {
          "internalType": "uint256",
          "name": "",
          "type": "uint256"
        }
      ],
      "stateMutability": "view",
      "type": "function"
    },
    {
      "inputs": [
        {
          "internalType": "uint256",
          "name": "",
          "type": "uint256"
        }
      ],
      "name": "OfficeIDs",
      "outputs": [
        {
          "internalType": "uint256",
          "name": "",
          "type": "uint256"
        }
      ],
      "stateMutability": "view",
      "type": "function"
    },
    {
      "inputs": [
        {
          "internalType": "uint256",
          "name": "",
          "type": "uint256"
        }
      ],
      "name": "Offices",
      "outputs": [
        {
          "internalType": "uint256",
          "name": "",
          "type": "uint256"
        }
      ],
      "stateMutability": "view",
      "type": "function"
    },
    {
      "inputs": [],
      "name": "PAUSER_ROLE",
      "outputs": [
        {
          "internalType": "bytes32",
          "name": "",
          "type": "bytes32"
        }
      ],
      "stateMutability": "view",
      "type": "function"
    },
    {
      "inputs": [
        {
          "internalType": "uint256",
          "name": "",
          "type": "uint256"
        }
      ],
      "name": "ProfileBalances",
      "outputs": [
        {
          "internalType": "uint256",
          "name": "",
          "type": "uint256"
        }
      ],
      "stateMutability": "view",
      "type": "function"
    },
    {
      "inputs": [
        {
          "internalType": "uint256",
          "name": "",
          "type": "uint256"
        }
      ],
      "name": "ProfileIDs",
      "outputs": [
        {
          "internalType": "uint256",
          "name": "",
          "type": "uint256"
        }
      ],
      "stateMutability": "view",
      "type": "function"
    },
    {
      "inputs": [
        {
          "internalType": "uint256",
          "name": "",
          "type": "uint256"
        }
      ],
      "name": "Profiles",
      "outputs": [
        {
          "internalType": "uint256",
          "name": "",
          "type": "uint256"
        }
      ],
      "stateMutability": "view",
      "type": "function"
    },
    {
      "inputs": [],
      "name": "UPGRADER_ROLE",
      "outputs": [
        {
          "internalType": "bytes32",
          "name": "",
          "type": "bytes32"
        }
      ],
      "stateMutability": "view",
      "type": "function"
    },
    {
      "inputs": [],
      "name": "URI_SETTER_ROLE",
      "outputs": [
        {
          "internalType": "bytes32",
          "name": "",
          "type": "bytes32"
        }
      ],
      "stateMutability": "view",
      "type": "function"
    },
    {
      "inputs": [
        {
          "internalType": "address",
          "name": "account",
          "type": "address"
        },
        {
          "internalType": "uint256",
          "name": "id",
          "type": "uint256"
        }
      ],
      "name": "balanceOf",
      "outputs": [
        {
          "internalType": "uint256",
          "name": "",
          "type": "uint256"
        }
      ],
      "stateMutability": "view",
      "type": "function"
    },
    {
      "inputs": [
        {
          "internalType": "address[]",
          "name": "accounts",
          "type": "address[]"
        },
        {
          "internalType": "uint256[]",
          "name": "ids",
          "type": "uint256[]"
        }
      ],
      "name": "balanceOfBatch",
      "outputs": [
        {
          "internalType": "uint256[]",
          "name": "",
          "type": "uint256[]"
        }
      ],
      "stateMutability": "view",
      "type": "function"
    },
    {
      "inputs": [
        {
          "internalType": "address",
          "name": "account",
          "type": "address"
        },
        {
          "internalType": "uint256",
          "name": "id",
          "type": "uint256"
        },
        {
          "internalType": "uint256",
          "name": "value",
          "type": "uint256"
        }
      ],
      "name": "burn",
      "outputs": [],
      "stateMutability": "nonpayable",
      "type": "function"
    },
    {
      "inputs": [
        {
          "internalType": "address",
          "name": "account",
          "type": "address"
        },
        {
          "internalType": "uint256[]",
          "name": "ids",
          "type": "uint256[]"
        },
        {
          "internalType": "uint256[]",
          "name": "values",
          "type": "uint256[]"
        }
      ],
      "name": "burnBatch",
      "outputs": [],
      "stateMutability": "nonpayable",
      "type": "function"
    },
    {
      "inputs": [
        {
          "internalType": "uint256",
          "name": "id",
          "type": "uint256"
        }
      ],
      "name": "exists",
      "outputs": [
        {
          "internalType": "bool",
          "name": "",
          "type": "bool"
        }
      ],
      "stateMutability": "view",
      "type": "function"
    },
    {
      "inputs": [
        {
          "internalType": "bytes32",
          "name": "role",
          "type": "bytes32"
        }
      ],
      "name": "getRoleAdmin",
      "outputs": [
        {
          "internalType": "bytes32",
          "name": "",
          "type": "bytes32"
        }
      ],
      "stateMutability": "view",
      "type": "function"
    },
    {
      "inputs": [
        {
          "internalType": "bytes32",
          "name": "role",
          "type": "bytes32"
        },
        {
          "internalType": "address",
          "name": "account",
          "type": "address"
        }
      ],
      "name": "grantRole",
      "outputs": [],
      "stateMutability": "nonpayable",
      "type": "function"
    },
    {
      "inputs": [
        {
          "internalType": "bytes32",
          "name": "role",
          "type": "bytes32"
        },
        {
          "internalType": "address",
          "name": "account",
          "type": "address"
        }
      ],
      "name": "hasRole",
      "outputs": [
        {
          "internalType": "bool",
          "name": "",
          "type": "bool"
        }
      ],
      "stateMutability": "view",
      "type": "function"
    },
    {
      "inputs": [],
      "name": "homeAddress",
      "outputs": [
        {
          "internalType": "address",
          "name": "",
          "type": "address"
        }
      ],
      "stateMutability": "view",
      "type": "function"
    },
    {
      "inputs": [
        {
          "internalType": "address",
          "name": "account",
          "type": "address"
        },
        {
          "internalType": "address",
          "name": "operator",
          "type": "address"
        }
      ],
      "name": "isApprovedForAll",
      "outputs": [
        {
          "internalType": "bool",
          "name": "",
          "type": "bool"
        }
      ],
      "stateMutability": "view",
      "type": "function"
    },
    {
      "inputs": [],
      "name": "itemID",
      "outputs": [
        {
          "internalType": "uint256",
          "name": "",
          "type": "uint256"
        }
      ],
      "stateMutability": "view",
      "type": "function"
    },
    {
      "inputs": [
        {
          "internalType": "uint256",
          "name": "",
          "type": "uint256"
        }
      ],
      "name": "itemOwners",
      "outputs": [
        {
          "internalType": "address",
          "name": "",
          "type": "address"
        }
      ],
      "stateMutability": "view",
      "type": "function"
    },
    {
      "inputs": [],
      "name": "newOwner",
      "outputs": [
        {
          "internalType": "address",
          "name": "",
          "type": "address"
        }
      ],
      "stateMutability": "view",
      "type": "function"
    },
    {
      "inputs": [],
      "name": "nodeAddress",
      "outputs": [
        {
          "internalType": "address",
          "name": "",
          "type": "address"
        }
      ],
      "stateMutability": "view",
      "type": "function"
    },
    {
      "inputs": [],
      "name": "officeAddress",
      "outputs": [
        {
          "internalType": "address",
          "name": "",
          "type": "address"
        }
      ],
      "stateMutability": "view",
      "type": "function"
    },
    {
      "inputs": [],
      "name": "owner",
      "outputs": [
        {
          "internalType": "address",
          "name": "",
          "type": "address"
        }
      ],
      "stateMutability": "view",
      "type": "function"
    },
    {
      "inputs": [],
      "name": "paused",
      "outputs": [
        {
          "internalType": "bool",
          "name": "",
          "type": "bool"
        }
      ],
      "stateMutability": "view",
      "type": "function"
    },
    {
      "inputs": [],
      "name": "profileAddress",
      "outputs": [
        {
          "internalType": "address",
          "name": "",
          "type": "address"
        }
      ],
      "stateMutability": "view",
      "type": "function"
    },
    {
      "inputs": [],
      "name": "proxiableUUID",
      "outputs": [
        {
          "internalType": "bytes32",
          "name": "",
          "type": "bytes32"
        }
      ],
      "stateMutability": "view",
      "type": "function"
    },
    {
      "inputs": [],
      "name": "renounceOwnership",
      "outputs": [],
      "stateMutability": "nonpayable",
      "type": "function"
    },
    {
      "inputs": [
        {
          "internalType": "bytes32",
          "name": "role",
          "type": "bytes32"
        },
        {
          "internalType": "address",
          "name": "account",
          "type": "address"
        }
      ],
      "name": "renounceRole",
      "outputs": [],
      "stateMutability": "nonpayable",
      "type": "function"
    },
    {
      "inputs": [
        {
          "internalType": "bytes32",
          "name": "role",
          "type": "bytes32"
        },
        {
          "internalType": "address",
          "name": "account",
          "type": "address"
        }
      ],
      "name": "revokeRole",
      "outputs": [],
      "stateMutability": "nonpayable",
      "type": "function"
    },
    {
      "inputs": [
        {
          "internalType": "address",
          "name": "from",
          "type": "address"
        },
        {
          "internalType": "address",
          "name": "to",
          "type": "address"
        },
        {
          "internalType": "uint256[]",
          "name": "ids",
          "type": "uint256[]"
        },
        {
          "internalType": "uint256[]",
          "name": "amounts",
          "type": "uint256[]"
        },
        {
          "internalType": "bytes",
          "name": "data",
          "type": "bytes"
        }
      ],
      "name": "safeBatchTransferFrom",
      "outputs": [],
      "stateMutability": "nonpayable",
      "type": "function"
    },
    {
      "inputs": [
        {
          "internalType": "address",
          "name": "from",
          "type": "address"
        },
        {
          "internalType": "address",
          "name": "to",
          "type": "address"
        },
        {
          "internalType": "uint256",
          "name": "id",
          "type": "uint256"
        },
        {
          "internalType": "uint256",
          "name": "amount",
          "type": "uint256"
        },
        {
          "internalType": "bytes",
          "name": "data",
          "type": "bytes"
        }
      ],
      "name": "safeTransferFrom",
      "outputs": [],
      "stateMutability": "nonpayable",
      "type": "function"
    },
    {
      "inputs": [
        {
          "internalType": "address",
          "name": "operator",
          "type": "address"
        },
        {
          "internalType": "bool",
          "name": "approved",
          "type": "bool"
        }
      ],
      "name": "setApprovalForAll",
      "outputs": [],
      "stateMutability": "nonpayable",
      "type": "function"
    },
    {
      "inputs": [
        {
          "internalType": "uint256",
          "name": "id",
          "type": "uint256"
        }
      ],
      "name": "totalSupply",
      "outputs": [
        {
          "internalType": "uint256",
          "name": "",
          "type": "uint256"
        }
      ],
      "stateMutability": "view",
      "type": "function"
    },
    {
      "inputs": [
        {
          "internalType": "address",
          "name": "newOwner",
          "type": "address"
        }
      ],
      "name": "transferOwnership",
      "outputs": [],
      "stateMutability": "nonpayable",
      "type": "function"
    },
    {
      "inputs": [
        {
          "internalType": "address",
          "name": "newImplementation",
          "type": "address"
        }
      ],
      "name": "upgradeTo",
      "outputs": [],
      "stateMutability": "nonpayable",
      "type": "function"
    },
    {
      "inputs": [
        {
          "internalType": "address",
          "name": "newImplementation",
          "type": "address"
        },
        {
          "internalType": "bytes",
          "name": "data",
          "type": "bytes"
        }
      ],
      "name": "upgradeToAndCall",
      "outputs": [],
      "stateMutability": "payable",
      "type": "function"
    },
    {
      "inputs": [
        {
          "internalType": "uint256",
          "name": "",
          "type": "uint256"
        }
      ],
      "name": "uri",
      "outputs": [
        {
          "internalType": "string",
          "name": "",
          "type": "string"
        }
      ],
      "stateMutability": "view",
      "type": "function"
    },
    {
      "inputs": [],
      "name": "vaultAddress",
      "outputs": [
        {
          "internalType": "address",
          "name": "",
          "type": "address"
        }
      ],
      "stateMutability": "view",
      "type": "function"
    },
    {
      "inputs": [
        {
          "internalType": "uint256",
          "name": "",
          "type": "uint256"
        }
      ],
      "name": "vaultBalances",
      "outputs": [
        {
          "internalType": "uint256",
          "name": "",
          "type": "uint256"
        }
      ],
      "stateMutability": "view",
      "type": "function"
    },
    {
      "inputs": [
        {
          "internalType": "uint256",
          "name": "",
          "type": "uint256"
        }
      ],
      "name": "vaultIDs",
      "outputs": [
        {
          "internalType": "uint256",
          "name": "",
          "type": "uint256"
        }
      ],
      "stateMutability": "view",
      "type": "function"
    },
    {
      "inputs": [
        {
          "internalType": "uint256",
          "name": "",
          "type": "uint256"
        }
      ],
      "name": "vaults",
      "outputs": [
        {
          "internalType": "address",
          "name": "",
          "type": "address"
        }
      ],
      "stateMutability": "view",
      "type": "function"
    },
    {
      "inputs": [
        {
          "internalType": "address",
          "name": "_nodeAddress",
          "type": "address"
        }
      ],
      "name": "initialize",
      "outputs": [],
      "stateMutability": "nonpayable",
      "type": "function"
    },
    {
      "inputs": [],
      "name": "activateNode",
      "outputs": [],
      "stateMutability": "nonpayable",
      "type": "function"
    },
    {
      "inputs": [
        {
          "internalType": "string",
          "name": "newuri",
          "type": "string"
        }
      ],
      "name": "setURI",
      "outputs": [],
      "stateMutability": "nonpayable",
      "type": "function"
    },
    {
      "inputs": [],
      "name": "pause",
      "outputs": [],
      "stateMutability": "nonpayable",
      "type": "function"
    },
    {
      "inputs": [],
      "name": "unpause",
      "outputs": [],
      "stateMutability": "nonpayable",
      "type": "function"
    },
    {
      "inputs": [
        {
          "internalType": "address",
          "name": "account",
          "type": "address"
        },
        {
          "internalType": "uint256",
          "name": "id",
          "type": "uint256"
        },
        {
          "internalType": "uint256",
          "name": "amount",
          "type": "uint256"
        },
        {
          "internalType": "bytes",
          "name": "data",
          "type": "bytes"
        }
      ],
      "name": "mint",
      "outputs": [],
      "stateMutability": "nonpayable",
      "type": "function"
    },
    {
      "inputs": [
        {
          "internalType": "address",
          "name": "to",
          "type": "address"
        },
        {
          "internalType": "uint256[]",
          "name": "ids",
          "type": "uint256[]"
        },
        {
          "internalType": "uint256[]",
          "name": "amounts",
          "type": "uint256[]"
        },
        {
          "internalType": "bytes",
          "name": "data",
          "type": "bytes"
        }
      ],
      "name": "mintBatch",
      "outputs": [],
      "stateMutability": "nonpayable",
      "type": "function"
    },
    {
      "inputs": [
        {
          "internalType": "bytes4",
          "name": "interfaceId",
          "type": "bytes4"
        }
      ],
      "name": "supportsInterface",
      "outputs": [
        {
          "internalType": "bool",
          "name": "",
          "type": "bool"
        }
      ],
      "stateMutability": "view",
      "type": "function"
    }
  ],
  "bytecode": "0x60a06040523060805234801561001457600080fd5b50608051613e7361004c6000396000818161104d0152818161108d01528181611276015281816112b601526113450152613e736000f3fe6080604052600436106103ab5760003560e01c8063715018a6116101e7578063d547741f1161010d578063f242432a116100a0578063f5298aca1161006f578063f5298aca14610c4f578063f57d85af14610c6f578063f629ad3014610c90578063f72c0d8b14610cb157600080fd5b8063f242432a14610bc0578063f2fde38b14610be0578063f36039c714610c00578063f455334e14610c2e57600080fd5b8063de8bfd55116100dc578063de8bfd5514610b06578063e63ab1e914610b27578063e985e9c514610b49578063f0feff0514610b9257600080fd5b8063d547741f14610a5c578063d69f5c4a14610a7c578063d811215e14610aaa578063de1d019b14610ad857600080fd5b806391d1485411610185578063bd85b03911610154578063bd85b039146109cb578063c4d66de8146109f9578063d4ee1d9014610a19578063d539139314610a3a57600080fd5b806391d1485414610948578063a217fddf14610968578063a22cb4651461097d578063a83733a41461099d57600080fd5b80638456cb59116101c15780638456cb59146108af5780638544246d146108c45780638c64ea4a146108f25780638da5cb5b1461092957600080fd5b8063715018a614610846578063731133e91461085b5780637f3457101461087b57600080fd5b8063430bf08a116102d757806352d1902d1161026a578063651b31bd11610239578063651b31bd146107a957806367220f59146107d75780636b20c454146108055780636c167e031461082557600080fd5b806352d1902d1461072057806355da1e96146107355780635c975abb1461076357806362b68e821461077b57600080fd5b80634e1273f4116102a65780634e1273f4146106825780634f1ef286146106af5780634f558e79146106c25780634f5b5d1a146106f257600080fd5b8063430bf08a146105e557806343cdef60146106065780634a2e30bb1461061d5780634cea965e1461065457600080fd5b80631f7fdffa1161034f5780632f2ff15d1161031e5780632f2ff15d1461057057806336568abe146105905780633659cfe6146105b05780633f4ba83a146105d057600080fd5b80631f7fdffa146104de578063248a9ca3146104fe5780632aa8481f1461052f5780632eb2c2d61461055057600080fd5b806302fe53051161038b57806302fe53051461044c57806309260b231461046e5780630e89341c1461049c578063105ddd1d146104c957600080fd5b8062491920146103b0578062fdd58e146103ee57806301ffc9a71461041c575b600080fd5b3480156103bc57600080fd5b50610229546103d1906001600160a01b031681565b6040516001600160a01b0390911681526020015b60405180910390f35b3480156103fa57600080fd5b5061040e610409366004613070565b610ce5565b6040519081526020016103e5565b34801561042857600080fd5b5061043c6104373660046130b0565b610d7d565b60405190151581526020016103e5565b34801561045857600080fd5b5061046c61046736600461316c565b610d8e565b005b34801561047a57600080fd5b5061040e6104893660046131bc565b6102376020526000908152604090205481565b3480156104a857600080fd5b506104bc6104b73660046131bc565b610dc5565b6040516103e5919061322d565b3480156104d557600080fd5b5061046c610e59565b3480156104ea57600080fd5b5061046c6104f93660046132f4565b610f2d565b34801561050a57600080fd5b5061040e6105193660046131bc565b60009081526101c3602052604090206001015490565b34801561053b57600080fd5b5061023e546103d1906001600160a01b031681565b34801561055c57600080fd5b5061046c61056b36600461338c565b610f58565b34801561057c57600080fd5b5061046c61058b366004613435565b610f9d565b34801561059c57600080fd5b5061046c6105ab366004613435565b610fc8565b3480156105bc57600080fd5b5061046c6105cb366004613461565b611042565b3480156105dc57600080fd5b5061046c611122565b3480156105f157600080fd5b5061022e546103d1906001600160a01b031681565b34801561061257600080fd5b5061040e6102275481565b34801561062957600080fd5b506103d16106383660046131bc565b61022d602052600090815260409020546001600160a01b031681565b34801561066057600080fd5b5061040e61066f3660046131bc565b6102336020526000908152604090205481565b34801561068e57600080fd5b506106a261069d36600461347c565b611142565b6040516103e59190613581565b61046c6106bd366004613594565b61126b565b3480156106ce57600080fd5b5061043c6106dd3660046131bc565b60009081526101f56020526040902054151590565b3480156106fe57600080fd5b5061040e61070d3660046131bc565b6102416020526000908152604090205481565b34801561072c57600080fd5b5061040e611338565b34801561074157600080fd5b5061040e6107503660046131bc565b6102396020526000908152604090205481565b34801561076f57600080fd5b5060c95460ff1661043c565b34801561078757600080fd5b5061040e6107963660046131bc565b61023b6020526000908152604090205481565b3480156107b557600080fd5b5061040e6107c43660046131bc565b6102356020526000908152604090205481565b3480156107e357600080fd5b5061040e6107f23660046131bc565b61023c6020526000908152604090205481565b34801561081157600080fd5b5061046c6108203660046135d7565b6113ec565b34801561083157600080fd5b50610232546103d1906001600160a01b031681565b34801561085257600080fd5b5061046c61142f565b34801561086757600080fd5b5061046c61087636600461364a565b611443565b34801561088757600080fd5b5061040e7f7804d923f43a17d325d77e781528e0793b2edd9890ab45fc64efd7b4b427744c81565b3480156108bb57600080fd5b5061046c611467565b3480156108d057600080fd5b5061040e6108df3660046131bc565b6102406020526000908152604090205481565b3480156108fe57600080fd5b506103d161090d3660046131bc565b61022f602052600090815260409020546001600160a01b031681565b34801561093557600080fd5b5061012d546001600160a01b03166103d1565b34801561095457600080fd5b5061043c610963366004613435565b611487565b34801561097457600080fd5b5061040e600081565b34801561098957600080fd5b5061046c61099836600461369e565b6114b3565b3480156109a957600080fd5b5061040e6109b83660046131bc565b61023f6020526000908152604090205481565b3480156109d757600080fd5b5061040e6109e63660046131bc565b60009081526101f5602052604090205490565b348015610a0557600080fd5b5061046c610a14366004613461565b6114be565b348015610a2557600080fd5b5061022b546103d1906001600160a01b031681565b348015610a4657600080fd5b5061040e600080516020613e1e83398151915281565b348015610a6857600080fd5b5061046c610a77366004613435565b6116d9565b348015610a8857600080fd5b5061040e610a973660046131bc565b6102386020526000908152604090205481565b348015610ab657600080fd5b5061040e610ac53660046131bc565b61023d6020526000908152604090205481565b348015610ae457600080fd5b5061040e610af33660046131bc565b6102306020526000908152604090205481565b348015610b1257600080fd5b5061022c546103d1906001600160a01b031681565b348015610b3357600080fd5b5061040e600080516020613dd783398151915281565b348015610b5557600080fd5b5061043c610b643660046136da565b6001600160a01b03918216600090815260666020908152604080832093909416825291909152205460ff1690565b348015610b9e57600080fd5b5061040e610bad3660046131bc565b6102316020526000908152604090205481565b348015610bcc57600080fd5b5061046c610bdb366004613704565b6116ff565b348015610bec57600080fd5b5061046c610bfb366004613461565b611744565b348015610c0c57600080fd5b5061040e610c1b3660046131bc565b6102346020526000908152604090205481565b348015610c3a57600080fd5b5061023a546103d1906001600160a01b031681565b348015610c5b57600080fd5b5061046c610c6a366004613768565b6117ba565b348015610c7b57600080fd5b5061022a546103d1906001600160a01b031681565b348015610c9c57600080fd5b50610236546103d1906001600160a01b031681565b348015610cbd57600080fd5b5061040e7f189ab7a9244df0848122154315af71fe140f3db0fe014031783b0946b8c9d2e381565b60006001600160a01b038316610d555760405162461bcd60e51b815260206004820152602a60248201527f455243313135353a2061646472657373207a65726f206973206e6f742061207660448201526930b634b21037bbb732b960b11b60648201526084015b60405180910390fd5b5060009081526065602090815260408083206001600160a01b03949094168352929052205490565b6000610d88826117fd565b92915050565b7f7804d923f43a17d325d77e781528e0793b2edd9890ab45fc64efd7b4b427744c610db881611822565b610dc18261182c565b5050565b606060678054610dd49061379b565b80601f0160208091040260200160405190810160405280929190818152602001828054610e009061379b565b8015610e4d5780601f10610e2257610100808354040283529160200191610e4d565b820191906000526020600020905b815481529060010190602001808311610e3057829003601f168201915b50505050509050919050565b6102325460408051600481526024810182526020810180516001600160e01b0316635d12928b60e01b179052905160009283926001600160a01b0390911691610ea291906137d6565b6000604051808303816000865af19150503d8060008114610edf576040519150601f19603f3d011682016040523d82523d6000602084013e610ee4565b606091505b509150915081610dc15760405162461bcd60e51b815260206004820152601460248201527311195b1959d85d194818d85b1b0819985a5b195960621b6044820152606401610d4c565b600080516020613e1e833981519152610f4581611822565b610f518585858561183f565b5050505050565b6001600160a01b038516331480610f745750610f748533610b64565b610f905760405162461bcd60e51b8152600401610d4c906137f2565b610f51858585858561199a565b60008281526101c36020526040902060010154610fb981611822565b610fc38383611b47565b505050565b6001600160a01b03811633146110385760405162461bcd60e51b815260206004820152602f60248201527f416363657373436f6e74726f6c3a2063616e206f6e6c792072656e6f756e636560448201526e103937b632b9903337b91039b2b63360891b6064820152608401610d4c565b610dc18282611bce565b306001600160a01b037f000000000000000000000000000000000000000000000000000000000000000016141561108b5760405162461bcd60e51b8152600401610d4c90613840565b7f00000000000000000000000000000000000000000000000000000000000000006001600160a01b03166110d4600080516020613db7833981519152546001600160a01b031690565b6001600160a01b0316146110fa5760405162461bcd60e51b8152600401610d4c9061388c565b61110381611c36565b6040805160008082526020820190925261111f91839190611c60565b50565b600080516020613dd783398151915261113a81611822565b61111f611dda565b606081518351146111a75760405162461bcd60e51b815260206004820152602960248201527f455243313135353a206163636f756e747320616e6420696473206c656e677468604482015268040dad2e6dac2e8c6d60bb1b6064820152608401610d4c565b600083516001600160401b038111156111c2576111c26130cd565b6040519080825280602002602001820160405280156111eb578160200160208202803683370190505b50905060005b84518110156112635761123685828151811061120f5761120f6138d8565b6020026020010151858381518110611229576112296138d8565b6020026020010151610ce5565b828281518110611248576112486138d8565b602090810291909101015261125c81613904565b90506111f1565b509392505050565b306001600160a01b037f00000000000000000000000000000000000000000000000000000000000000001614156112b45760405162461bcd60e51b8152600401610d4c90613840565b7f00000000000000000000000000000000000000000000000000000000000000006001600160a01b03166112fd600080516020613db7833981519152546001600160a01b031690565b6001600160a01b0316146113235760405162461bcd60e51b8152600401610d4c9061388c565b61132c82611c36565b610dc182826001611c60565b6000306001600160a01b037f000000000000000000000000000000000000000000000000000000000000000016146113d85760405162461bcd60e51b815260206004820152603860248201527f555550535570677261646561626c653a206d757374206e6f742062652063616c60448201527f6c6564207468726f7567682064656c656761746563616c6c00000000000000006064820152608401610d4c565b50600080516020613db78339815191525b90565b6001600160a01b03831633148061140857506114088333610b64565b6114245760405162461bcd60e51b8152600401610d4c906137f2565b610fc3838383611e2c565b611437611fcd565b6114416000612028565b565b600080516020613e1e83398151915261145b81611822565b610f518585858561207b565b600080516020613dd783398151915261147f81611822565b61111f612166565b60009182526101c3602090815260408084206001600160a01b0393909316845291905290205460ff1690565b610dc13383836121a3565b6114f46040518060400160405280601581526020017468747470733a2f2f697066732e696f2f697066732f60581b815250612284565b6114fc6122b4565b6115046122db565b61150c61230a565b6115146122b4565b61151c6122b4565b6115246122b4565b61152f600033612339565b6115597f7804d923f43a17d325d77e781528e0793b2edd9890ab45fc64efd7b4b427744c33612339565b611571600080516020613dd783398151915233612339565b611589600080516020613e1e83398151915233612339565b6115b37f189ab7a9244df0848122154315af71fe140f3db0fe014031783b0946b8c9d2e333612339565b61023e80546001600160a01b0383166001600160a01b03199182161790915560006102278190558080527f87374f4378eb5b7c3463b69839bcd3ab9f121ca117be1d30c960465480417f3a805483163090811790915561022e80548416821790557feb36650ca849dda964bbfe0d852a92a983640909bec7b0ff036d687f5ee94b03805490931681179092557f25412eba06f0ed0fcc14d3cabe280bbb81431ab9f3a4c4cc52ee13d344e32a30819055610231602090815260017f3e1db9ccd368b7547b3b3a6c9a466b2e55a29e2b34b496e0f50396c2a8c291cb8190556040805192830190528282526116a893929161207b565b61022e546102275460408051602081019091526000815261111f9230926001600160a01b0390911691600190612343565b60008281526101c360205260409020600101546116f581611822565b610fc38383611bce565b6001600160a01b03851633148061171b575061171b8533610b64565b6117375760405162461bcd60e51b8152600401610d4c906137f2565b610f518585858585612343565b61174c611fcd565b6001600160a01b0381166117b15760405162461bcd60e51b815260206004820152602660248201527f4f776e61626c653a206e6577206f776e657220697320746865207a65726f206160448201526564647265737360d01b6064820152608401610d4c565b61111f81612028565b6001600160a01b0383163314806117d657506117d68333610b64565b6117f25760405162461bcd60e51b8152600401610d4c906137f2565b610fc383838361247f565b60006001600160e01b03198216637965db0b60e01b1480610d885750610d888261259b565b61111f81336125eb565b8051610dc1906067906020840190612fbb565b6001600160a01b0384166118655760405162461bcd60e51b8152600401610d4c9061391f565b81518351146118865760405162461bcd60e51b8152600401610d4c90613960565b3361189681600087878787612644565b60005b8451811015611932578381815181106118b4576118b46138d8565b6020026020010151606560008784815181106118d2576118d26138d8565b602002602001015181526020019081526020016000206000886001600160a01b03166001600160a01b03168152602001908152602001600020600082825461191a91906139a8565b9091555081905061192a81613904565b915050611899565b50846001600160a01b031660006001600160a01b0316826001600160a01b03167f4a39dc06d4c0dbc64b70af90fd698a233a518aa5d07e595d983b8c0526c8f7fb87876040516119839291906139c0565b60405180910390a4610f518160008787878761265a565b81518351146119bb5760405162461bcd60e51b8152600401610d4c90613960565b6001600160a01b0384166119e15760405162461bcd60e51b8152600401610d4c906139e5565b336119f0818787878787612644565b60005b8451811015611ad9576000858281518110611a1057611a106138d8565b602002602001015190506000858381518110611a2e57611a2e6138d8565b60209081029190910181015160008481526065835260408082206001600160a01b038e168352909352919091205490915081811015611a7f5760405162461bcd60e51b8152600401610d4c90613a2a565b60008381526065602090815260408083206001600160a01b038e8116855292528083208585039055908b16825281208054849290611abe9084906139a8565b9250508190555050505080611ad290613904565b90506119f3565b50846001600160a01b0316866001600160a01b0316826001600160a01b03167f4a39dc06d4c0dbc64b70af90fd698a233a518aa5d07e595d983b8c0526c8f7fb8787604051611b299291906139c0565b60405180910390a4611b3f81878787878761265a565b505050505050565b611b518282611487565b610dc15760008281526101c3602090815260408083206001600160a01b03851684529091529020805460ff19166001179055611b8a3390565b6001600160a01b0316816001600160a01b0316837f2f8788117e7eff1d82e926ec794901d17c78024a50270940304540a733656f0d60405160405180910390a45050565b611bd88282611487565b15610dc15760008281526101c3602090815260408083206001600160a01b0385168085529252808320805460ff1916905551339285917ff6391f5c32d9c69d2a47ea670b442974b53935d1edc7fd64eb21e047a839171b9190a45050565b7f189ab7a9244df0848122154315af71fe140f3db0fe014031783b0946b8c9d2e3610dc181611822565b7f4910fdfa16fed3260ed0e7147f7cc6da11a60208b5b9406d12a635614ffd91435460ff1615611c9357610fc3836127c5565b826001600160a01b03166352d1902d6040518163ffffffff1660e01b815260040160206040518083038186803b158015611ccc57600080fd5b505afa925050508015611cfc575060408051601f3d908101601f19168201909252611cf991810190613a74565b60015b611d5f5760405162461bcd60e51b815260206004820152602e60248201527f45524331393637557067726164653a206e657720696d706c656d656e7461746960448201526d6f6e206973206e6f74205555505360901b6064820152608401610d4c565b600080516020613db78339815191528114611dce5760405162461bcd60e51b815260206004820152602960248201527f45524331393637557067726164653a20756e737570706f727465642070726f786044820152681a58589b195555525160ba1b6064820152608401610d4c565b50610fc3838383612861565b611de2612886565b60c9805460ff191690557f5db9ee0a495bf2e6ff9c91a7834c1ba4fdd244a5e8aa4e537bd38aeae4b073aa335b6040516001600160a01b03909116815260200160405180910390a1565b6001600160a01b038316611e525760405162461bcd60e51b8152600401610d4c90613a8d565b8051825114611e735760405162461bcd60e51b8152600401610d4c90613960565b6000339050611e9681856000868660405180602001604052806000815250612644565b60005b8351811015611f5e576000848281518110611eb657611eb66138d8565b602002602001015190506000848381518110611ed457611ed46138d8565b60209081029190910181015160008481526065835260408082206001600160a01b038c168352909352919091205490915081811015611f255760405162461bcd60e51b8152600401610d4c90613ad0565b60009283526065602090815260408085206001600160a01b038b1686529091529092209103905580611f5681613904565b915050611e99565b5060006001600160a01b0316846001600160a01b0316826001600160a01b03167f4a39dc06d4c0dbc64b70af90fd698a233a518aa5d07e595d983b8c0526c8f7fb8686604051611faf9291906139c0565b60405180910390a46040805160208101909152600090525b50505050565b61012d546001600160a01b031633146114415760405162461bcd60e51b815260206004820181905260248201527f4f776e61626c653a2063616c6c6572206973206e6f7420746865206f776e65726044820152606401610d4c565b61012d80546001600160a01b038381166001600160a01b0319831681179093556040519116919082907f8be0079c531659141344cd1fd0a4f28419497f9722a3daafe3b4186f6b6457e090600090a35050565b6001600160a01b0384166120a15760405162461bcd60e51b8152600401610d4c9061391f565b3360006120ad856128cf565b905060006120ba856128cf565b90506120cb83600089858589612644565b60008681526065602090815260408083206001600160a01b038b168452909152812080548792906120fd9084906139a8565b909155505060408051878152602081018790526001600160a01b03808a1692600092918716917fc3d58168c5ae7397731d063d5bbf3d657854427343f4c083240f7aacaa2d0f62910160405180910390a461215d8360008989898961291a565b50505050505050565b61216e6129e4565b60c9805460ff191660011790557f62e78cea01bee320cd4e420270b5ea74000d11b0c9f74754ebdbfc544b05a258611e0f3390565b816001600160a01b0316836001600160a01b031614156122175760405162461bcd60e51b815260206004820152602960248201527f455243313135353a2073657474696e6720617070726f76616c20737461747573604482015268103337b91039b2b63360b91b6064820152608401610d4c565b6001600160a01b03838116600081815260666020908152604080832094871680845294825291829020805460ff191686151590811790915591519182527f17307eab39ab6107e8899845ad3d59bd9653f200f220920489ca2b5937696c31910160405180910390a3505050565b600054610100900460ff166122ab5760405162461bcd60e51b8152600401610d4c90613b14565b61111f81612a2a565b600054610100900460ff166114415760405162461bcd60e51b8152600401610d4c90613b14565b600054610100900460ff166123025760405162461bcd60e51b8152600401610d4c90613b14565b611441612a5a565b600054610100900460ff166123315760405162461bcd60e51b8152600401610d4c90613b14565b611441612a8d565b610dc18282611b47565b6001600160a01b0384166123695760405162461bcd60e51b8152600401610d4c906139e5565b336000612375856128cf565b90506000612382856128cf565b9050612392838989858589612644565b60008681526065602090815260408083206001600160a01b038c168452909152902054858110156123d55760405162461bcd60e51b8152600401610d4c90613a2a565b60008781526065602090815260408083206001600160a01b038d8116855292528083208985039055908a168252812080548892906124149084906139a8565b909155505060408051888152602081018890526001600160a01b03808b16928c821692918816917fc3d58168c5ae7397731d063d5bbf3d657854427343f4c083240f7aacaa2d0f62910160405180910390a4612474848a8a8a8a8a61291a565b505050505050505050565b6001600160a01b0383166124a55760405162461bcd60e51b8152600401610d4c90613a8d565b3360006124b1846128cf565b905060006124be846128cf565b90506124de83876000858560405180602001604052806000815250612644565b60008581526065602090815260408083206001600160a01b038a168452909152902054848110156125215760405162461bcd60e51b8152600401610d4c90613ad0565b60008681526065602090815260408083206001600160a01b038b81168086529184528285208a8703905582518b81529384018a90529092908816917fc3d58168c5ae7397731d063d5bbf3d657854427343f4c083240f7aacaa2d0f62910160405180910390a460408051602081019091526000905261215d565b60006001600160e01b03198216636cdb3d1360e11b14806125cc57506001600160e01b031982166303a24d0760e21b145b80610d8857506301ffc9a760e01b6001600160e01b0319831614610d88565b6125f58282611487565b610dc15761260281612abd565b61260d836020612acf565b60405160200161261e929190613b5f565b60408051601f198184030181529082905262461bcd60e51b8252610d4c9160040161322d565b61264c6129e4565b611b3f868686868686612c71565b6001600160a01b0384163b15611b3f5760405163bc197c8160e01b81526001600160a01b0385169063bc197c819061269e9089908990889088908890600401613bd4565b602060405180830381600087803b1580156126b857600080fd5b505af19250505080156126e8575060408051601f3d908101601f191682019092526126e591810190613c32565b60015b612795576126f4613c4f565b806308c379a0141561272e5750612709613c6a565b806127145750612730565b8060405162461bcd60e51b8152600401610d4c919061322d565b505b60405162461bcd60e51b815260206004820152603460248201527f455243313135353a207472616e7366657220746f206e6f6e2d455243313135356044820152732932b1b2b4bb32b91034b6b83632b6b2b73a32b960611b6064820152608401610d4c565b6001600160e01b0319811663bc197c8160e01b1461215d5760405162461bcd60e51b8152600401610d4c90613cf3565b6001600160a01b0381163b6128325760405162461bcd60e51b815260206004820152602d60248201527f455243313936373a206e657720696d706c656d656e746174696f6e206973206e60448201526c1bdd08184818dbdb9d1c9858dd609a1b6064820152608401610d4c565b600080516020613db783398151915280546001600160a01b0319166001600160a01b0392909216919091179055565b61286a83612dfb565b6000825111806128775750805b15610fc357611fc78383612e3b565b60c95460ff166114415760405162461bcd60e51b815260206004820152601460248201527314185d5cd8589b194e881b9bdd081c185d5cd95960621b6044820152606401610d4c565b60408051600180825281830190925260609160009190602080830190803683370190505090508281600081518110612909576129096138d8565b602090810291909101015292915050565b6001600160a01b0384163b15611b3f5760405163f23a6e6160e01b81526001600160a01b0385169063f23a6e619061295e9089908990889088908890600401613d3b565b602060405180830381600087803b15801561297857600080fd5b505af19250505080156129a8575060408051601f3d908101601f191682019092526129a591810190613c32565b60015b6129b4576126f4613c4f565b6001600160e01b0319811663f23a6e6160e01b1461215d5760405162461bcd60e51b8152600401610d4c90613cf3565b60c95460ff16156114415760405162461bcd60e51b815260206004820152601060248201526f14185d5cd8589b194e881c185d5cd95960821b6044820152606401610d4c565b600054610100900460ff16612a515760405162461bcd60e51b8152600401610d4c90613b14565b61111f8161182c565b600054610100900460ff16612a815760405162461bcd60e51b8152600401610d4c90613b14565b60c9805460ff19169055565b600054610100900460ff16612ab45760405162461bcd60e51b8152600401610d4c90613b14565b61144133612028565b6060610d886001600160a01b03831660145b60606000612ade836002613d80565b612ae99060026139a8565b6001600160401b03811115612b0057612b006130cd565b6040519080825280601f01601f191660200182016040528015612b2a576020820181803683370190505b509050600360fc1b81600081518110612b4557612b456138d8565b60200101906001600160f81b031916908160001a905350600f60fb1b81600181518110612b7457612b746138d8565b60200101906001600160f81b031916908160001a9053506000612b98846002613d80565b612ba39060016139a8565b90505b6001811115612c1b576f181899199a1a9b1b9c1cb0b131b232b360811b85600f1660108110612bd757612bd76138d8565b1a60f81b828281518110612bed57612bed6138d8565b60200101906001600160f81b031916908160001a90535060049490941c93612c1481613d9f565b9050612ba6565b508315612c6a5760405162461bcd60e51b815260206004820181905260248201527f537472696e67733a20686578206c656e67746820696e73756666696369656e746044820152606401610d4c565b9392505050565b612c7f868686868686612f2f565b6001600160a01b038516612d075760005b8351811015612d0557828181518110612cab57612cab6138d8565b60200260200101516101f56000868481518110612cca57612cca6138d8565b602002602001015181526020019081526020016000206000828254612cef91906139a8565b90915550612cfe905081613904565b9050612c90565b505b6001600160a01b038416611b3f5760005b835181101561215d576000848281518110612d3557612d356138d8565b602002602001015190506000848381518110612d5357612d536138d8565b6020026020010151905060006101f5600084815260200190815260200160002054905081811015612dd75760405162461bcd60e51b815260206004820152602860248201527f455243313135353a206275726e20616d6f756e74206578636565647320746f74604482015267616c537570706c7960c01b6064820152608401610d4c565b60009283526101f5602052604090922091039055612df481613904565b9050612d18565b612e04816127c5565b6040516001600160a01b038216907fbc7cd75a20ee27fd9adebab32041f755214dbc6bffa90cc0225b39da2e5c2d3b90600090a250565b60606001600160a01b0383163b612ea35760405162461bcd60e51b815260206004820152602660248201527f416464726573733a2064656c65676174652063616c6c20746f206e6f6e2d636f6044820152651b9d1c9858dd60d21b6064820152608401610d4c565b600080846001600160a01b031684604051612ebe91906137d6565b600060405180830381855af49150503d8060008114612ef9576040519150601f19603f3d011682016040523d82523d6000602084013e612efe565b606091505b5091509150612f268282604051806060016040528060278152602001613df760279139612f97565b95945050505050565b60c95460ff1615611b3f5760405162461bcd60e51b815260206004820152602c60248201527f455243313135355061757361626c653a20746f6b656e207472616e736665722060448201526b1dda1a5b19481c185d5cd95960a21b6064820152608401610d4c565b60608315612fa6575081612c6a565b612c6a83838151156127145781518083602001fd5b828054612fc79061379b565b90600052602060002090601f016020900481019282612fe9576000855561302f565b82601f1061300257805160ff191683800117855561302f565b8280016001018555821561302f579182015b8281111561302f578251825591602001919060010190613014565b5061303b92915061303f565b5090565b5b8082111561303b5760008155600101613040565b80356001600160a01b038116811461306b57600080fd5b919050565b6000806040838503121561308357600080fd5b61308c83613054565b946020939093013593505050565b6001600160e01b03198116811461111f57600080fd5b6000602082840312156130c257600080fd5b8135612c6a8161309a565b634e487b7160e01b600052604160045260246000fd5b601f8201601f191681016001600160401b0381118282101715613108576131086130cd565b6040525050565b60006001600160401b03831115613128576131286130cd565b60405161313f601f8501601f1916602001826130e3565b80915083815284848401111561315457600080fd5b83836020830137600060208583010152509392505050565b60006020828403121561317e57600080fd5b81356001600160401b0381111561319457600080fd5b8201601f810184136131a557600080fd5b6131b48482356020840161310f565b949350505050565b6000602082840312156131ce57600080fd5b5035919050565b60005b838110156131f05781810151838201526020016131d8565b83811115611fc75750506000910152565b600081518084526132198160208601602086016131d5565b601f01601f19169290920160200192915050565b602081526000612c6a6020830184613201565b60006001600160401b03821115613259576132596130cd565b5060051b60200190565b600082601f83011261327457600080fd5b8135602061328182613240565b60405161328e82826130e3565b83815260059390931b85018201928281019150868411156132ae57600080fd5b8286015b848110156132c957803583529183019183016132b2565b509695505050505050565b600082601f8301126132e557600080fd5b612c6a8383356020850161310f565b6000806000806080858703121561330a57600080fd5b61331385613054565b935060208501356001600160401b038082111561332f57600080fd5b61333b88838901613263565b9450604087013591508082111561335157600080fd5b61335d88838901613263565b9350606087013591508082111561337357600080fd5b50613380878288016132d4565b91505092959194509250565b600080600080600060a086880312156133a457600080fd5b6133ad86613054565b94506133bb60208701613054565b935060408601356001600160401b03808211156133d757600080fd5b6133e389838a01613263565b945060608801359150808211156133f957600080fd5b61340589838a01613263565b9350608088013591508082111561341b57600080fd5b50613428888289016132d4565b9150509295509295909350565b6000806040838503121561344857600080fd5b8235915061345860208401613054565b90509250929050565b60006020828403121561347357600080fd5b612c6a82613054565b6000806040838503121561348f57600080fd5b82356001600160401b03808211156134a657600080fd5b818501915085601f8301126134ba57600080fd5b813560206134c782613240565b6040516134d482826130e3565b83815260059390931b85018201928281019150898411156134f457600080fd5b948201945b838610156135195761350a86613054565b825294820194908201906134f9565b9650508601359250508082111561352f57600080fd5b5061353c85828601613263565b9150509250929050565b600081518084526020808501945080840160005b838110156135765781518752958201959082019060010161355a565b509495945050505050565b602081526000612c6a6020830184613546565b600080604083850312156135a757600080fd5b6135b083613054565b915060208301356001600160401b038111156135cb57600080fd5b61353c858286016132d4565b6000806000606084860312156135ec57600080fd5b6135f584613054565b925060208401356001600160401b038082111561361157600080fd5b61361d87838801613263565b9350604086013591508082111561363357600080fd5b5061364086828701613263565b9150509250925092565b6000806000806080858703121561366057600080fd5b61366985613054565b9350602085013592506040850135915060608501356001600160401b0381111561369257600080fd5b613380878288016132d4565b600080604083850312156136b157600080fd5b6136ba83613054565b9150602083013580151581146136cf57600080fd5b809150509250929050565b600080604083850312156136ed57600080fd5b6136f683613054565b915061345860208401613054565b600080600080600060a0868803121561371c57600080fd5b61372586613054565b945061373360208701613054565b9350604086013592506060860135915060808601356001600160401b0381111561375c57600080fd5b613428888289016132d4565b60008060006060848603121561377d57600080fd5b61378684613054565b95602085013595506040909401359392505050565b600181811c908216806137af57607f821691505b602082108114156137d057634e487b7160e01b600052602260045260246000fd5b50919050565b600082516137e88184602087016131d5565b9190910192915050565b6020808252602e908201527f455243313135353a2063616c6c6572206973206e6f7420746f6b656e206f776e60408201526d195c881bdc88185c1c1c9bdd995960921b606082015260800190565b6020808252602c908201527f46756e6374696f6e206d7573742062652063616c6c6564207468726f7567682060408201526b19195b1959d85d1958d85b1b60a21b606082015260800190565b6020808252602c908201527f46756e6374696f6e206d7573742062652063616c6c6564207468726f7567682060408201526b6163746976652070726f787960a01b606082015260800190565b634e487b7160e01b600052603260045260246000fd5b634e487b7160e01b600052601160045260246000fd5b6000600019821415613918576139186138ee565b5060010190565b60208082526021908201527f455243313135353a206d696e7420746f20746865207a65726f206164647265736040820152607360f81b606082015260800190565b60208082526028908201527f455243313135353a2069647320616e6420616d6f756e7473206c656e677468206040820152670dad2e6dac2e8c6d60c31b606082015260800190565b600082198211156139bb576139bb6138ee565b500190565b6040815260006139d36040830185613546565b8281036020840152612f268185613546565b60208082526025908201527f455243313135353a207472616e7366657220746f20746865207a65726f206164604082015264647265737360d81b606082015260800190565b6020808252602a908201527f455243313135353a20696e73756666696369656e742062616c616e636520666f60408201526939103a3930b739b332b960b11b606082015260800190565b600060208284031215613a8657600080fd5b5051919050565b60208082526023908201527f455243313135353a206275726e2066726f6d20746865207a65726f206164647260408201526265737360e81b606082015260800190565b60208082526024908201527f455243313135353a206275726e20616d6f756e7420657863656564732062616c604082015263616e636560e01b606082015260800190565b6020808252602b908201527f496e697469616c697a61626c653a20636f6e7472616374206973206e6f74206960408201526a6e697469616c697a696e6760a81b606082015260800190565b7f416363657373436f6e74726f6c3a206163636f756e7420000000000000000000815260008351613b978160178501602088016131d5565b7001034b99036b4b9b9b4b733903937b6329607d1b6017918401918201528351613bc88160288401602088016131d5565b01602801949350505050565b6001600160a01b0386811682528516602082015260a060408201819052600090613c0090830186613546565b8281036060840152613c128186613546565b90508281036080840152613c268185613201565b98975050505050505050565b600060208284031215613c4457600080fd5b8151612c6a8161309a565b600060033d11156113e95760046000803e5060005160e01c90565b600060443d1015613c785790565b6040516003193d81016004833e81513d6001600160401b038160248401118184111715613ca757505050505090565b8285019150815181811115613cbf5750505050505090565b843d8701016020828501011115613cd95750505050505090565b613ce8602082860101876130e3565b509095945050505050565b60208082526028908201527f455243313135353a204552433131353552656365697665722072656a656374656040820152676420746f6b656e7360c01b606082015260800190565b6001600160a01b03868116825285166020820152604081018490526060810183905260a060808201819052600090613d7590830184613201565b979650505050505050565b6000816000190483118215151615613d9a57613d9a6138ee565b500290565b600081613dae57613dae6138ee565b50600019019056fe360894a13ba1a3210667c828492db98dca3e2076cc3735a920a3ca505d382bbc65d7a28e3265b37a6474929f336521b332c1681b933f6cb9f3376673440d862a416464726573733a206c6f772d6c6576656c2064656c65676174652063616c6c206661696c65649f2df0fed2c77648de5860a4cc508cd0818c85b8b8a1ab4ceeef8d981c8956a6a2646970667358221220cf1cbace65d2404525e8957d0889ed7dcb2b67ba29127be485b8ca79a4cb14db64736f6c63430008090033",
  "immutableReferences": {
    "1129": [
      {
        "length": 32,
        "start": 4173
      },
      {
        "length": 32,
        "start": 4237
      },
      {
        "length": 32,
        "start": 4726
      },
      {
        "length": 32,
        "start": 4790
      },
      {
        "length": 32,
        "start": 4933
      }
    ]
  },
  "source": "// SPDX-License-Identifier: MIT\r\npragma solidity ^0.8.9;\r\n\r\nimport \"@openzeppelin/contracts-upgradeable/token/ERC1155/ERC1155Upgradeable.sol\";\r\nimport \"@openzeppelin/contracts-upgradeable/token/ERC1155/extensions/ERC1155BurnableUpgradeable.sol\";\r\nimport \"@openzeppelin/contracts-upgradeable/token/ERC1155/extensions/ERC1155PausableUpgradeable.sol\";\r\nimport \"@openzeppelin/contracts-upgradeable/access/OwnableUpgradeable.sol\";\r\nimport \"@openzeppelin/contracts-upgradeable/proxy/utils/Initializable.sol\";\r\nimport \"@openzeppelin/contracts-upgradeable/proxy/utils/UUPSUpgradeable.sol\";\r\nimport \"@openzeppelin/contracts-upgradeable/access/AccessControlUpgradeable.sol\";\r\nimport \"@openzeppelin/contracts-upgradeable/token/ERC1155/extensions/ERC1155SupplyUpgradeable.sol\";\r\n\r\n// nHomes (nH) v1.0.0\r\n// nH registers homes and offices for users to use as nodes to create profiles\r\n// this contract is a proxy to the profile contract\r\n// this contract is called by a conda enviornment running on a user's computer to create a household node as a profile.\r\n// this node can hold multiple profiles while keeping the profiles private, and the household node public.\r\n// this node can also hold multiple homes as offices, and each home can hold multiple profiles to be used in professional settings\r\n// nodes are used to create profiles\r\n// profiles can be made in a number of ways\r\n    // profiles can be generated by a user's computer, phone, or tablet\r\n    // profiles can be generated automatically by a home or professional node (this is the default) and locked to the user's biometrics\r\n        // in this case, the data from the profile is encrypted and stored locally on the node's computer.\r\n        // this contract can use non-detirministic algorithms to generate a signiture key. using Phoenix these keys can be uploaded to the blockchain to give the user access to their profile\r\n            // this can allow for time delayed access to the data, giving the user time to recover their profile before it is deleted\r\n            // this can also allow for the user to recover their profile if they lose their phone or computer\r\n// it has a function to create a profile node\r\n// it has a function to create a profile node fragment\r\n\r\n\r\n\r\ncontract nHomes is Initializable, ERC1155Upgradeable, ERC1155BurnableUpgradeable, ERC1155PausableUpgradeable, OwnableUpgradeable, UUPSUpgradeable, AccessControlUpgradeable, ERC1155SupplyUpgradeable {\r\n    struct Item {\r\n        bytes32[] encryptedItem;\r\n    }\r\n    uint256 public itemID;\r\n    mapping (uint256 => Item) internal items;\r\n    event EncryptionToolsSet(address _encryptionTools);\r\n    bytes32 public constant URI_SETTER_ROLE = keccak256(\"URI_SETTER_ROLE\");\r\n    bytes32 public constant PAUSER_ROLE = keccak256(\"PAUSER_ROLE\");\r\n    bytes32 public constant MINTER_ROLE = keccak256(\"MINTER_ROLE\");\r\n    bytes32 public constant UPGRADER_ROLE = keccak256(\"UPGRADER_ROLE\");\r\n    address public ETAddress;\r\n    address public ITAddress;\r\n    address public newOwner;\r\n    address public IDAddress;\r\n    event ItemTrackerSet(address _itemTracker);\r\n    mapping(uint256 => address) public itemOwners;\r\n    address public vaultAddress;\r\n    mapping(uint256 => address) public vaults;\r\n    mapping(uint256 => uint256) public vaultIDs;\r\n    mapping(uint256 => uint256) public vaultBalances;\r\n    event VaultSet(address _vault);\r\n    address public profileAddress;\r\n    mapping(uint256 => uint256) public Profiles;\r\n    mapping(uint256 => uint256) public ProfileIDs;\r\n    mapping(uint256 => uint256) public ProfileBalances;\r\n    event ProfileSet(address _profile);\r\n    // this is the nHome contract address that local clients can use to connect to the server locally\r\n    address public homeAddress;\r\n    mapping(uint256 => uint256) public Homes;\r\n    mapping(uint256 => uint256) public HomeIDs;\r\n    mapping(uint256 => uint256) public HomeBalances;\r\n    event HomeSet(address _home);\r\n    // this is the nWonderland contract addresses that clients can use to connect to the server remotely\r\n    address public officeAddress;\r\n    mapping(uint256 => uint256) public Offices;\r\n    mapping(uint256 => uint256) public OfficeIDs;\r\n    mapping(uint256 => uint256) public OfficeBalances;\r\n    event OfficeSet(address _office);\r\n    // this is the brain instance of the server\r\n    address public nodeAddress;\r\n    mapping(uint256 => uint256) public Nodes;\r\n    mapping(uint256 => uint256) public NodeIDs;\r\n    mapping(uint256 => uint256) public NodeBalances;\r\n    event NodeSet(address _node);\r\n\r\nfunction initialize(address _nodeAddress) public {\r\n        __ERC1155_init(\"https://ipfs.io/ipfs/\");\r\n        __ERC1155Burnable_init();\r\n        __ERC1155Pausable_init();\r\n        __Ownable_init();\r\n        __UUPSUpgradeable_init();\r\n        __AccessControl_init();\r\n        __ERC1155Supply_init();\r\n        _setupRole(DEFAULT_ADMIN_ROLE, msg.sender);\r\n        _setupRole(URI_SETTER_ROLE, msg.sender);\r\n        _setupRole(PAUSER_ROLE, msg.sender);\r\n        _setupRole(MINTER_ROLE, msg.sender);\r\n        _setupRole(UPGRADER_ROLE, msg.sender);\r\n        nodeAddress = _nodeAddress;\r\n        // creates an item and sets the owner of the item to this contract and then transfers the vault to the owner of the item\r\n        itemID = 0;\r\n        itemOwners[itemID] = address(this);\r\n        vaultAddress = address(this);\r\n        vaults[itemID] = vaultAddress;\r\n        vaultIDs[itemID] = itemID;\r\n        vaultBalances[itemID] = 1;\r\n        _mint(address(this), itemID, 1, \"\");\r\n        _safeTransferFrom(address(this), vaultAddress, itemID, 1, \"\");\r\n        // // creates a profile node and sets the owner of the profile node to this contract and then transfers the profile node to the owner of the item\r\n        // // this is transfered to a nWonderland contract that is deployed by the user who created the profile node by signing a message with their private key \r\n        // // over to a wallet that is owned by the user\r\n        // itemID = 1;\r\n        // itemOwners[itemID] = address(this);\r\n        // nodeAddress = address(this);\r\n        // Nodes[itemID] = nodeAddress;\r\n        // NodeIDs[itemID] = itemID;\r\n        // NodeBalances[itemID] = 1;\r\n        // _mint(address(this), itemID, 1, \"\");\r\n        // _safeTransferFrom(address(this), nodeAddress, itemID, 1, \"\");\r\n    }\r\n    // this function creates a delegate call to the profile contract to set the encryption tools, the item tracker, the Item Distributor, and then creates a vault and then \r\n    // creates an item and sets the owner of the item to this contract and then transfers the vault to the owner of the item\r\n\r\n    function activateNode()public{\r\n        // create a delegate call to the profile contract to make a profile\r\n        (bool success, bytes memory result) = profileAddress.call(abi.encodeWithSignature(\"createVault()\"));\r\n        require(success, \"Delegate call failed\");\r\n    }\r\n\r\n    // 1. create a profile\r\n    // 2. add 3 vaults to the profile\r\n    // 3. add homes to vault 1 (homes are the local clients)\r\n    // 4. add offices to vault 2 (offices are the remote clients)\r\n    // 5. add nodes to vault 3 (nodes are trades with a wonderland contract)\r\n\r\n\r\n    // this function creates an item using ET, creates a set of blank NFTs using IT, creates a random list of numbers using ID, and encrypts all three of them within a vault.\r\n    // The vault is then sent returned to the user's computer and the key is set a time delayed digital signature key that is cleared after a set amount of time or \r\n    // a certain number of transactions have been made giving the processor time to verify the data and upload it to the blockchain.\r\n        // Through an MVP reward oracle, the confidence of a user owning a profile will be increased over time as the IT fills out data about the item.\r\n        // in this case, the item is a profile, so the IT nfts will be filled with data about the profile.\r\n        // over time, there will be ten million pictures of the user in different settings, and the user will be able to use this data to prove ownership of the profile.\r\n        // at 60fps, this will take 1.9 days to fill out the data. These 10 million frames will be used to create 3d models of the user in different settings and in different poses \r\n        // and eventually the entire profile will just be a high resolution 3d model of the user, all other data that is not needed can be saved in other vaults under the profile.\r\n\r\n    \r\n    \r\n            function setURI(string memory newuri) public onlyRole(URI_SETTER_ROLE) {\r\n        _setURI(newuri);\r\n    }\r\n\r\n    function pause() public onlyRole(PAUSER_ROLE) {\r\n        _pause();\r\n    }\r\n\r\n    function unpause() public onlyRole(PAUSER_ROLE) {\r\n        _unpause();\r\n    }\r\n\r\n    function mint(address account, uint256 id, uint256 amount, bytes memory data)\r\n        public\r\n        onlyRole(MINTER_ROLE)\r\n    {\r\n        _mint(account, id, amount, data);\r\n    }\r\n\r\n    function mintBatch(address to, uint256[] memory ids, uint256[] memory amounts, bytes memory data)\r\n        public\r\n        onlyRole(MINTER_ROLE)\r\n    {\r\n        _mintBatch(to, ids, amounts, data);\r\n    }\r\n\r\n    function _beforeTokenTransfer(address operator, address from, address to, uint256[] memory ids, uint256[] memory amounts, bytes memory data)\r\n        internal\r\n        whenNotPaused\r\n        override(ERC1155PausableUpgradeable, ERC1155Upgradeable, ERC1155SupplyUpgradeable)\r\n    {\r\n        super._beforeTokenTransfer(operator, from, to, ids, amounts, data);\r\n    }\r\n\r\n    function _authorizeUpgrade(address newImplementation)\r\n        internal\r\n        onlyRole(UPGRADER_ROLE)\r\n        override\r\n    {}\r\n\r\n    // The following functions are overrides required by Solidity.\r\n\r\n    function supportsInterface(bytes4 interfaceId)\r\n        public\r\n        view\r\n        override(ERC1155Upgradeable, AccessControlUpgradeable)\r\n        returns (bool)\r\n    {\r\n        return super.supportsInterface(interfaceId);\r\n    }\r\n\r\n\r\n}",
  "sourcePath": "C:\\Users\\mosle\\Documents\\GitHub\\nWonderland\\contracts\\DALI\\006_nHomes.sol",
  "compiler": {
    "name": "solc",
    "version": "0.8.9+commit.e5eed63a.Emscripten.clang"
  },
  "schemaVersion": "3.4.8",
  "updatedAt": "2022-12-15T17:05:23.984Z",
  "devdoc": {
    "kind": "dev",
    "methods": {
      "balanceOf(address,uint256)": {
        "details": "See {IERC1155-balanceOf}. Requirements: - `account` cannot be the zero address."
      },
      "balanceOfBatch(address[],uint256[])": {
        "details": "See {IERC1155-balanceOfBatch}. Requirements: - `accounts` and `ids` must have the same length."
      },
      "exists(uint256)": {
        "details": "Indicates whether any token exist with a given id, or not."
      },
      "getRoleAdmin(bytes32)": {
        "details": "Returns the admin role that controls `role`. See {grantRole} and {revokeRole}. To change a role's admin, use {_setRoleAdmin}."
      },
      "grantRole(bytes32,address)": {
        "details": "Grants `role` to `account`. If `account` had not been already granted `role`, emits a {RoleGranted} event. Requirements: - the caller must have ``role``'s admin role. May emit a {RoleGranted} event."
      },
      "hasRole(bytes32,address)": {
        "details": "Returns `true` if `account` has been granted `role`."
      },
      "isApprovedForAll(address,address)": {
        "details": "See {IERC1155-isApprovedForAll}."
      },
      "owner()": {
        "details": "Returns the address of the current owner."
      },
      "paused()": {
        "details": "Returns true if the contract is paused, and false otherwise."
      },
      "proxiableUUID()": {
        "details": "Implementation of the ERC1822 {proxiableUUID} function. This returns the storage slot used by the implementation. It is used to validate the implementation's compatibility when performing an upgrade. IMPORTANT: A proxy pointing at a proxiable contract should not be considered proxiable itself, because this risks bricking a proxy that upgrades to it, by delegating to itself until out of gas. Thus it is critical that this function revert if invoked through a proxy. This is guaranteed by the `notDelegated` modifier."
      },
      "renounceOwnership()": {
        "details": "Leaves the contract without owner. It will not be possible to call `onlyOwner` functions anymore. Can only be called by the current owner. NOTE: Renouncing ownership will leave the contract without an owner, thereby removing any functionality that is only available to the owner."
      },
      "renounceRole(bytes32,address)": {
        "details": "Revokes `role` from the calling account. Roles are often managed via {grantRole} and {revokeRole}: this function's purpose is to provide a mechanism for accounts to lose their privileges if they are compromised (such as when a trusted device is misplaced). If the calling account had been revoked `role`, emits a {RoleRevoked} event. Requirements: - the caller must be `account`. May emit a {RoleRevoked} event."
      },
      "revokeRole(bytes32,address)": {
        "details": "Revokes `role` from `account`. If `account` had been granted `role`, emits a {RoleRevoked} event. Requirements: - the caller must have ``role``'s admin role. May emit a {RoleRevoked} event."
      },
      "safeBatchTransferFrom(address,address,uint256[],uint256[],bytes)": {
        "details": "See {IERC1155-safeBatchTransferFrom}."
      },
      "safeTransferFrom(address,address,uint256,uint256,bytes)": {
        "details": "See {IERC1155-safeTransferFrom}."
      },
      "setApprovalForAll(address,bool)": {
        "details": "See {IERC1155-setApprovalForAll}."
      },
      "totalSupply(uint256)": {
        "details": "Total amount of tokens in with a given id."
      },
      "transferOwnership(address)": {
        "details": "Transfers ownership of the contract to a new account (`newOwner`). Can only be called by the current owner."
      },
      "upgradeTo(address)": {
        "details": "Upgrade the implementation of the proxy to `newImplementation`. Calls {_authorizeUpgrade}. Emits an {Upgraded} event."
      },
      "upgradeToAndCall(address,bytes)": {
        "details": "Upgrade the implementation of the proxy to `newImplementation`, and subsequently execute the function call encoded in `data`. Calls {_authorizeUpgrade}. Emits an {Upgraded} event."
      },
      "uri(uint256)": {
        "details": "See {IERC1155MetadataURI-uri}. This implementation returns the same URI for *all* token types. It relies on the token type ID substitution mechanism https://eips.ethereum.org/EIPS/eip-1155#metadata[defined in the EIP]. Clients calling this function must replace the `\\{id\\}` substring with the actual token type ID."
      }
    },
    "version": 1
  },
  "userdoc": {
    "kind": "user",
    "methods": {},
    "version": 1
  }
}