{
  "contractName": "nWonderlands",
  "abi": [
    {
      "anonymous": false,
      "inputs": [
        {
          "indexed": false,
          "internalType": "address",
          "name": "previousAdmin",
          "type": "address"
        },
        {
          "indexed": false,
          "internalType": "address",
          "name": "newAdmin",
          "type": "address"
        }
      ],
      "name": "AdminChanged",
      "type": "event"
    },
    {
      "anonymous": false,
      "inputs": [
        {
          "indexed": true,
          "internalType": "address",
          "name": "account",
          "type": "address"
        },
        {
          "indexed": true,
          "internalType": "address",
          "name": "operator",
          "type": "address"
        },
        {
          "indexed": false,
          "internalType": "bool",
          "name": "approved",
          "type": "bool"
        }
      ],
      "name": "ApprovalForAll",
      "type": "event"
    },
    {
      "anonymous": false,
      "inputs": [
        {
          "indexed": true,
          "internalType": "address",
          "name": "beacon",
          "type": "address"
        }
      ],
      "name": "BeaconUpgraded",
      "type": "event"
    },
    {
      "anonymous": false,
      "inputs": [
        {
          "indexed": false,
          "internalType": "address",
          "name": "_encryptionTools",
          "type": "address"
        }
      ],
      "name": "EncryptionToolsSet",
      "type": "event"
    },
    {
      "anonymous": false,
      "inputs": [
        {
          "indexed": false,
          "internalType": "uint8",
          "name": "version",
          "type": "uint8"
        }
      ],
      "name": "Initialized",
      "type": "event"
    },
    {
      "anonymous": false,
      "inputs": [
        {
          "indexed": false,
          "internalType": "address",
          "name": "_itemTracker",
          "type": "address"
        }
      ],
      "name": "ItemTrackerSet",
      "type": "event"
    },
    {
      "anonymous": false,
      "inputs": [
        {
          "indexed": true,
          "internalType": "address",
          "name": "previousOwner",
          "type": "address"
        },
        {
          "indexed": true,
          "internalType": "address",
          "name": "newOwner",
          "type": "address"
        }
      ],
      "name": "OwnershipTransferred",
      "type": "event"
    },
    {
      "anonymous": false,
      "inputs": [
        {
          "indexed": false,
          "internalType": "address",
          "name": "account",
          "type": "address"
        }
      ],
      "name": "Paused",
      "type": "event"
    },
    {
      "anonymous": false,
      "inputs": [
        {
          "indexed": false,
          "internalType": "address",
          "name": "_profile",
          "type": "address"
        }
      ],
      "name": "ProfileSet",
      "type": "event"
    },
    {
      "anonymous": false,
      "inputs": [
        {
          "indexed": true,
          "internalType": "bytes32",
          "name": "role",
          "type": "bytes32"
        },
        {
          "indexed": true,
          "internalType": "bytes32",
          "name": "previousAdminRole",
          "type": "bytes32"
        },
        {
          "indexed": true,
          "internalType": "bytes32",
          "name": "newAdminRole",
          "type": "bytes32"
        }
      ],
      "name": "RoleAdminChanged",
      "type": "event"
    },
    {
      "anonymous": false,
      "inputs": [
        {
          "indexed": true,
          "internalType": "bytes32",
          "name": "role",
          "type": "bytes32"
        },
        {
          "indexed": true,
          "internalType": "address",
          "name": "account",
          "type": "address"
        },
        {
          "indexed": true,
          "internalType": "address",
          "name": "sender",
          "type": "address"
        }
      ],
      "name": "RoleGranted",
      "type": "event"
    },
    {
      "anonymous": false,
      "inputs": [
        {
          "indexed": true,
          "internalType": "bytes32",
          "name": "role",
          "type": "bytes32"
        },
        {
          "indexed": true,
          "internalType": "address",
          "name": "account",
          "type": "address"
        },
        {
          "indexed": true,
          "internalType": "address",
          "name": "sender",
          "type": "address"
        }
      ],
      "name": "RoleRevoked",
      "type": "event"
    },
    {
      "anonymous": false,
      "inputs": [
        {
          "indexed": true,
          "internalType": "address",
          "name": "operator",
          "type": "address"
        },
        {
          "indexed": true,
          "internalType": "address",
          "name": "from",
          "type": "address"
        },
        {
          "indexed": true,
          "internalType": "address",
          "name": "to",
          "type": "address"
        },
        {
          "indexed": false,
          "internalType": "uint256[]",
          "name": "ids",
          "type": "uint256[]"
        },
        {
          "indexed": false,
          "internalType": "uint256[]",
          "name": "values",
          "type": "uint256[]"
        }
      ],
      "name": "TransferBatch",
      "type": "event"
    },
    {
      "anonymous": false,
      "inputs": [
        {
          "indexed": true,
          "internalType": "address",
          "name": "operator",
          "type": "address"
        },
        {
          "indexed": true,
          "internalType": "address",
          "name": "from",
          "type": "address"
        },
        {
          "indexed": true,
          "internalType": "address",
          "name": "to",
          "type": "address"
        },
        {
          "indexed": false,
          "internalType": "uint256",
          "name": "id",
          "type": "uint256"
        },
        {
          "indexed": false,
          "internalType": "uint256",
          "name": "value",
          "type": "uint256"
        }
      ],
      "name": "TransferSingle",
      "type": "event"
    },
    {
      "anonymous": false,
      "inputs": [
        {
          "indexed": false,
          "internalType": "string",
          "name": "value",
          "type": "string"
        },
        {
          "indexed": true,
          "internalType": "uint256",
          "name": "id",
          "type": "uint256"
        }
      ],
      "name": "URI",
      "type": "event"
    },
    {
      "anonymous": false,
      "inputs": [
        {
          "indexed": false,
          "internalType": "address",
          "name": "account",
          "type": "address"
        }
      ],
      "name": "Unpaused",
      "type": "event"
    },
    {
      "anonymous": false,
      "inputs": [
        {
          "indexed": true,
          "internalType": "address",
          "name": "implementation",
          "type": "address"
        }
      ],
      "name": "Upgraded",
      "type": "event"
    },
    {
      "anonymous": false,
      "inputs": [
        {
          "indexed": false,
          "internalType": "address",
          "name": "_vault",
          "type": "address"
        }
      ],
      "name": "VaultSet",
      "type": "event"
    },
    {
      "inputs": [],
      "name": "DEFAULT_ADMIN_ROLE",
      "outputs": [
        {
          "internalType": "bytes32",
          "name": "",
          "type": "bytes32"
        }
      ],
      "stateMutability": "view",
      "type": "function"
    },
    {
      "inputs": [],
      "name": "ETAddress",
      "outputs": [
        {
          "internalType": "address",
          "name": "",
          "type": "address"
        }
      ],
      "stateMutability": "view",
      "type": "function"
    },
    {
      "inputs": [],
      "name": "IDAddress",
      "outputs": [
        {
          "internalType": "address",
          "name": "",
          "type": "address"
        }
      ],
      "stateMutability": "view",
      "type": "function"
    },
    {
      "inputs": [],
      "name": "ITAddress",
      "outputs": [
        {
          "internalType": "address",
          "name": "",
          "type": "address"
        }
      ],
      "stateMutability": "view",
      "type": "function"
    },
    {
      "inputs": [],
      "name": "MINTER_ROLE",
      "outputs": [
        {
          "internalType": "bytes32",
          "name": "",
          "type": "bytes32"
        }
      ],
      "stateMutability": "view",
      "type": "function"
    },
    {
      "inputs": [],
      "name": "PAUSER_ROLE",
      "outputs": [
        {
          "internalType": "bytes32",
          "name": "",
          "type": "bytes32"
        }
      ],
      "stateMutability": "view",
      "type": "function"
    },
    {
      "inputs": [
        {
          "internalType": "uint256",
          "name": "",
          "type": "uint256"
        }
      ],
      "name": "ProfileBalances",
      "outputs": [
        {
          "internalType": "uint256",
          "name": "",
          "type": "uint256"
        }
      ],
      "stateMutability": "view",
      "type": "function"
    },
    {
      "inputs": [
        {
          "internalType": "uint256",
          "name": "",
          "type": "uint256"
        }
      ],
      "name": "ProfileIDs",
      "outputs": [
        {
          "internalType": "uint256",
          "name": "",
          "type": "uint256"
        }
      ],
      "stateMutability": "view",
      "type": "function"
    },
    {
      "inputs": [
        {
          "internalType": "uint256",
          "name": "",
          "type": "uint256"
        }
      ],
      "name": "Profiles",
      "outputs": [
        {
          "internalType": "uint256",
          "name": "",
          "type": "uint256"
        }
      ],
      "stateMutability": "view",
      "type": "function"
    },
    {
      "inputs": [],
      "name": "UPGRADER_ROLE",
      "outputs": [
        {
          "internalType": "bytes32",
          "name": "",
          "type": "bytes32"
        }
      ],
      "stateMutability": "view",
      "type": "function"
    },
    {
      "inputs": [],
      "name": "URI_SETTER_ROLE",
      "outputs": [
        {
          "internalType": "bytes32",
          "name": "",
          "type": "bytes32"
        }
      ],
      "stateMutability": "view",
      "type": "function"
    },
    {
      "inputs": [
        {
          "internalType": "address",
          "name": "account",
          "type": "address"
        },
        {
          "internalType": "uint256",
          "name": "id",
          "type": "uint256"
        }
      ],
      "name": "balanceOf",
      "outputs": [
        {
          "internalType": "uint256",
          "name": "",
          "type": "uint256"
        }
      ],
      "stateMutability": "view",
      "type": "function"
    },
    {
      "inputs": [
        {
          "internalType": "address[]",
          "name": "accounts",
          "type": "address[]"
        },
        {
          "internalType": "uint256[]",
          "name": "ids",
          "type": "uint256[]"
        }
      ],
      "name": "balanceOfBatch",
      "outputs": [
        {
          "internalType": "uint256[]",
          "name": "",
          "type": "uint256[]"
        }
      ],
      "stateMutability": "view",
      "type": "function"
    },
    {
      "inputs": [
        {
          "internalType": "address",
          "name": "account",
          "type": "address"
        },
        {
          "internalType": "uint256",
          "name": "id",
          "type": "uint256"
        },
        {
          "internalType": "uint256",
          "name": "value",
          "type": "uint256"
        }
      ],
      "name": "burn",
      "outputs": [],
      "stateMutability": "nonpayable",
      "type": "function"
    },
    {
      "inputs": [
        {
          "internalType": "address",
          "name": "account",
          "type": "address"
        },
        {
          "internalType": "uint256[]",
          "name": "ids",
          "type": "uint256[]"
        },
        {
          "internalType": "uint256[]",
          "name": "values",
          "type": "uint256[]"
        }
      ],
      "name": "burnBatch",
      "outputs": [],
      "stateMutability": "nonpayable",
      "type": "function"
    },
    {
      "inputs": [
        {
          "internalType": "uint256",
          "name": "id",
          "type": "uint256"
        }
      ],
      "name": "exists",
      "outputs": [
        {
          "internalType": "bool",
          "name": "",
          "type": "bool"
        }
      ],
      "stateMutability": "view",
      "type": "function"
    },
    {
      "inputs": [
        {
          "internalType": "bytes32",
          "name": "role",
          "type": "bytes32"
        }
      ],
      "name": "getRoleAdmin",
      "outputs": [
        {
          "internalType": "bytes32",
          "name": "",
          "type": "bytes32"
        }
      ],
      "stateMutability": "view",
      "type": "function"
    },
    {
      "inputs": [
        {
          "internalType": "bytes32",
          "name": "role",
          "type": "bytes32"
        },
        {
          "internalType": "address",
          "name": "account",
          "type": "address"
        }
      ],
      "name": "grantRole",
      "outputs": [],
      "stateMutability": "nonpayable",
      "type": "function"
    },
    {
      "inputs": [
        {
          "internalType": "bytes32",
          "name": "role",
          "type": "bytes32"
        },
        {
          "internalType": "address",
          "name": "account",
          "type": "address"
        }
      ],
      "name": "hasRole",
      "outputs": [
        {
          "internalType": "bool",
          "name": "",
          "type": "bool"
        }
      ],
      "stateMutability": "view",
      "type": "function"
    },
    {
      "inputs": [
        {
          "internalType": "address",
          "name": "account",
          "type": "address"
        },
        {
          "internalType": "address",
          "name": "operator",
          "type": "address"
        }
      ],
      "name": "isApprovedForAll",
      "outputs": [
        {
          "internalType": "bool",
          "name": "",
          "type": "bool"
        }
      ],
      "stateMutability": "view",
      "type": "function"
    },
    {
      "inputs": [],
      "name": "itemID",
      "outputs": [
        {
          "internalType": "uint256",
          "name": "",
          "type": "uint256"
        }
      ],
      "stateMutability": "view",
      "type": "function"
    },
    {
      "inputs": [
        {
          "internalType": "uint256",
          "name": "",
          "type": "uint256"
        }
      ],
      "name": "itemOwners",
      "outputs": [
        {
          "internalType": "address",
          "name": "",
          "type": "address"
        }
      ],
      "stateMutability": "view",
      "type": "function"
    },
    {
      "inputs": [],
      "name": "newOwner",
      "outputs": [
        {
          "internalType": "address",
          "name": "",
          "type": "address"
        }
      ],
      "stateMutability": "view",
      "type": "function"
    },
    {
      "inputs": [],
      "name": "owner",
      "outputs": [
        {
          "internalType": "address",
          "name": "",
          "type": "address"
        }
      ],
      "stateMutability": "view",
      "type": "function"
    },
    {
      "inputs": [],
      "name": "paused",
      "outputs": [
        {
          "internalType": "bool",
          "name": "",
          "type": "bool"
        }
      ],
      "stateMutability": "view",
      "type": "function"
    },
    {
      "inputs": [],
      "name": "profileAddress",
      "outputs": [
        {
          "internalType": "address",
          "name": "",
          "type": "address"
        }
      ],
      "stateMutability": "view",
      "type": "function"
    },
    {
      "inputs": [],
      "name": "proxiableUUID",
      "outputs": [
        {
          "internalType": "bytes32",
          "name": "",
          "type": "bytes32"
        }
      ],
      "stateMutability": "view",
      "type": "function"
    },
    {
      "inputs": [],
      "name": "renounceOwnership",
      "outputs": [],
      "stateMutability": "nonpayable",
      "type": "function"
    },
    {
      "inputs": [
        {
          "internalType": "bytes32",
          "name": "role",
          "type": "bytes32"
        },
        {
          "internalType": "address",
          "name": "account",
          "type": "address"
        }
      ],
      "name": "renounceRole",
      "outputs": [],
      "stateMutability": "nonpayable",
      "type": "function"
    },
    {
      "inputs": [
        {
          "internalType": "bytes32",
          "name": "role",
          "type": "bytes32"
        },
        {
          "internalType": "address",
          "name": "account",
          "type": "address"
        }
      ],
      "name": "revokeRole",
      "outputs": [],
      "stateMutability": "nonpayable",
      "type": "function"
    },
    {
      "inputs": [
        {
          "internalType": "address",
          "name": "from",
          "type": "address"
        },
        {
          "internalType": "address",
          "name": "to",
          "type": "address"
        },
        {
          "internalType": "uint256[]",
          "name": "ids",
          "type": "uint256[]"
        },
        {
          "internalType": "uint256[]",
          "name": "amounts",
          "type": "uint256[]"
        },
        {
          "internalType": "bytes",
          "name": "data",
          "type": "bytes"
        }
      ],
      "name": "safeBatchTransferFrom",
      "outputs": [],
      "stateMutability": "nonpayable",
      "type": "function"
    },
    {
      "inputs": [
        {
          "internalType": "address",
          "name": "from",
          "type": "address"
        },
        {
          "internalType": "address",
          "name": "to",
          "type": "address"
        },
        {
          "internalType": "uint256",
          "name": "id",
          "type": "uint256"
        },
        {
          "internalType": "uint256",
          "name": "amount",
          "type": "uint256"
        },
        {
          "internalType": "bytes",
          "name": "data",
          "type": "bytes"
        }
      ],
      "name": "safeTransferFrom",
      "outputs": [],
      "stateMutability": "nonpayable",
      "type": "function"
    },
    {
      "inputs": [
        {
          "internalType": "address",
          "name": "operator",
          "type": "address"
        },
        {
          "internalType": "bool",
          "name": "approved",
          "type": "bool"
        }
      ],
      "name": "setApprovalForAll",
      "outputs": [],
      "stateMutability": "nonpayable",
      "type": "function"
    },
    {
      "inputs": [
        {
          "internalType": "uint256",
          "name": "id",
          "type": "uint256"
        }
      ],
      "name": "totalSupply",
      "outputs": [
        {
          "internalType": "uint256",
          "name": "",
          "type": "uint256"
        }
      ],
      "stateMutability": "view",
      "type": "function"
    },
    {
      "inputs": [
        {
          "internalType": "address",
          "name": "newOwner",
          "type": "address"
        }
      ],
      "name": "transferOwnership",
      "outputs": [],
      "stateMutability": "nonpayable",
      "type": "function"
    },
    {
      "inputs": [
        {
          "internalType": "address",
          "name": "newImplementation",
          "type": "address"
        }
      ],
      "name": "upgradeTo",
      "outputs": [],
      "stateMutability": "nonpayable",
      "type": "function"
    },
    {
      "inputs": [
        {
          "internalType": "address",
          "name": "newImplementation",
          "type": "address"
        },
        {
          "internalType": "bytes",
          "name": "data",
          "type": "bytes"
        }
      ],
      "name": "upgradeToAndCall",
      "outputs": [],
      "stateMutability": "payable",
      "type": "function"
    },
    {
      "inputs": [
        {
          "internalType": "uint256",
          "name": "",
          "type": "uint256"
        }
      ],
      "name": "uri",
      "outputs": [
        {
          "internalType": "string",
          "name": "",
          "type": "string"
        }
      ],
      "stateMutability": "view",
      "type": "function"
    },
    {
      "inputs": [],
      "name": "vaultAddress",
      "outputs": [
        {
          "internalType": "address",
          "name": "",
          "type": "address"
        }
      ],
      "stateMutability": "view",
      "type": "function"
    },
    {
      "inputs": [
        {
          "internalType": "uint256",
          "name": "",
          "type": "uint256"
        }
      ],
      "name": "vaultBalances",
      "outputs": [
        {
          "internalType": "uint256",
          "name": "",
          "type": "uint256"
        }
      ],
      "stateMutability": "view",
      "type": "function"
    },
    {
      "inputs": [
        {
          "internalType": "uint256",
          "name": "",
          "type": "uint256"
        }
      ],
      "name": "vaultIDs",
      "outputs": [
        {
          "internalType": "uint256",
          "name": "",
          "type": "uint256"
        }
      ],
      "stateMutability": "view",
      "type": "function"
    },
    {
      "inputs": [
        {
          "internalType": "uint256",
          "name": "",
          "type": "uint256"
        }
      ],
      "name": "vaults",
      "outputs": [
        {
          "internalType": "address",
          "name": "",
          "type": "address"
        }
      ],
      "stateMutability": "view",
      "type": "function"
    },
    {
      "inputs": [
        {
          "internalType": "address",
          "name": "_profileAddress",
          "type": "address"
        }
      ],
      "name": "initialize",
      "outputs": [],
      "stateMutability": "nonpayable",
      "type": "function"
    },
    {
      "inputs": [],
      "name": "activateProfile",
      "outputs": [],
      "stateMutability": "nonpayable",
      "type": "function"
    },
    {
      "inputs": [
        {
          "internalType": "string",
          "name": "newuri",
          "type": "string"
        }
      ],
      "name": "setURI",
      "outputs": [],
      "stateMutability": "nonpayable",
      "type": "function"
    },
    {
      "inputs": [],
      "name": "pause",
      "outputs": [],
      "stateMutability": "nonpayable",
      "type": "function"
    },
    {
      "inputs": [],
      "name": "unpause",
      "outputs": [],
      "stateMutability": "nonpayable",
      "type": "function"
    },
    {
      "inputs": [
        {
          "internalType": "address",
          "name": "account",
          "type": "address"
        },
        {
          "internalType": "uint256",
          "name": "id",
          "type": "uint256"
        },
        {
          "internalType": "uint256",
          "name": "amount",
          "type": "uint256"
        },
        {
          "internalType": "bytes",
          "name": "data",
          "type": "bytes"
        }
      ],
      "name": "mint",
      "outputs": [],
      "stateMutability": "nonpayable",
      "type": "function"
    },
    {
      "inputs": [
        {
          "internalType": "address",
          "name": "to",
          "type": "address"
        },
        {
          "internalType": "uint256[]",
          "name": "ids",
          "type": "uint256[]"
        },
        {
          "internalType": "uint256[]",
          "name": "amounts",
          "type": "uint256[]"
        },
        {
          "internalType": "bytes",
          "name": "data",
          "type": "bytes"
        }
      ],
      "name": "mintBatch",
      "outputs": [],
      "stateMutability": "nonpayable",
      "type": "function"
    },
    {
      "inputs": [
        {
          "internalType": "bytes4",
          "name": "interfaceId",
          "type": "bytes4"
        }
      ],
      "name": "supportsInterface",
      "outputs": [
        {
          "internalType": "bool",
          "name": "",
          "type": "bool"
        }
      ],
      "stateMutability": "view",
      "type": "function"
    }
  ],
  "bytecode": "0x60a06040523073ffffffffffffffffffffffffffffffffffffffff1660809073ffffffffffffffffffffffffffffffffffffffff1681525034801561004357600080fd5b506080516171cc6200007c60003960008181610f4901528181610fd70152818161129a0152818161132801526113ec01526171cc6000f3fe6080604052600436106102c75760003560e01c8063731133e911610175578063d5391393116100dc578063f0feff0511610095578063f36039c71161006f578063f36039c714610b1b578063f5298aca14610b58578063f57d85af14610b81578063f72c0d8b14610bac576102c7565b8063f0feff0514610a8c578063f242432a14610ac9578063f2fde38b14610af2576102c7565b8063d539139314610968578063d547741f14610993578063de1d019b146109bc578063de8bfd55146109f9578063e63ab1e914610a24578063e985e9c514610a4f576102c7565b80639831e9e71161012e5780639831e9e71461086c578063a217fddf14610883578063a22cb465146108ae578063bd85b039146108d7578063c4d66de814610914578063d4ee1d901461093d576102c7565b8063731133e91461075c5780637f345710146107855780638456cb59146107b05780638c64ea4a146107c75780638da5cb5b1461080457806391d148541461082f576102c7565b8063430bf08a116102345780634f558e79116101ed578063651b31bd116101c7578063651b31bd146106b45780636b20c454146106f15780636c167e031461071a578063715018a614610745576102c7565b80634f558e791461062157806352d1902d1461065e5780635c975abb14610689576102c7565b8063430bf08a146104f857806343cdef60146105235780634a2e30bb1461054e5780634cea965e1461058b5780634e1273f4146105c85780634f1ef28614610605576102c7565b8063248a9ca311610286578063248a9ca3146104005780632eb2c2d61461043d5780632f2ff15d1461046657806336568abe1461048f5780633659cfe6146104b85780633f4ba83a146104e1576102c7565b8062491920146102cc578062fdd58e146102f757806301ffc9a71461033457806302fe5305146103715780630e89341c1461039a5780631f7fdffa146103d7575b600080fd5b3480156102d857600080fd5b506102e1610bd7565b6040516102ee9190614e5c565b60405180910390f35b34801561030357600080fd5b5061031e60048036038101906103199190614eed565b610bfe565b60405161032b9190614f3c565b60405180910390f35b34801561034057600080fd5b5061035b60048036038101906103569190614faf565b610cc7565b6040516103689190614ff7565b60405180910390f35b34801561037d57600080fd5b5061039860048036038101906103939190615158565b610cd9565b005b3480156103a657600080fd5b506103c160048036038101906103bc91906151a1565b610d10565b6040516103ce9190615256565b60405180910390f35b3480156103e357600080fd5b506103fe60048036038101906103f991906153e1565b610da4565b005b34801561040c57600080fd5b50610427600480360381019061042291906154d2565b610de1565b604051610434919061550e565b60405180910390f35b34801561044957600080fd5b50610464600480360381019061045f9190615529565b610e02565b005b34801561047257600080fd5b5061048d600480360381019061048891906155f8565b610ea3565b005b34801561049b57600080fd5b506104b660048036038101906104b191906155f8565b610ec4565b005b3480156104c457600080fd5b506104df60048036038101906104da9190615638565b610f47565b005b3480156104ed57600080fd5b506104f66110cf565b005b34801561050457600080fd5b5061050d611104565b60405161051a9190614e5c565b60405180910390f35b34801561052f57600080fd5b5061053861112b565b6040516105459190614f3c565b60405180910390f35b34801561055a57600080fd5b50610575600480360381019061057091906151a1565b611132565b6040516105829190614e5c565b60405180910390f35b34801561059757600080fd5b506105b260048036038101906105ad91906151a1565b611166565b6040516105bf9190614f3c565b60405180910390f35b3480156105d457600080fd5b506105ef60048036038101906105ea9190615728565b61117f565b6040516105fc919061585e565b60405180910390f35b61061f600480360381019061061a9190615880565b611298565b005b34801561062d57600080fd5b50610648600480360381019061064391906151a1565b6113d4565b6040516106559190614ff7565b60405180910390f35b34801561066a57600080fd5b506106736113e8565b604051610680919061550e565b60405180910390f35b34801561069557600080fd5b5061069e6114a1565b6040516106ab9190614ff7565b60405180910390f35b3480156106c057600080fd5b506106db60048036038101906106d691906151a1565b6114b8565b6040516106e89190614f3c565b60405180910390f35b3480156106fd57600080fd5b50610718600480360381019061071391906158dc565b6114d1565b005b34801561072657600080fd5b5061072f61156e565b60405161073c9190614e5c565b60405180910390f35b34801561075157600080fd5b5061075a611595565b005b34801561076857600080fd5b50610783600480360381019061077e9190615967565b6115a9565b005b34801561079157600080fd5b5061079a6115e6565b6040516107a7919061550e565b60405180910390f35b3480156107bc57600080fd5b506107c561160a565b005b3480156107d357600080fd5b506107ee60048036038101906107e991906151a1565b61163f565b6040516107fb9190614e5c565b60405180910390f35b34801561081057600080fd5b50610819611673565b6040516108269190614e5c565b60405180910390f35b34801561083b57600080fd5b50610856600480360381019061085191906155f8565b61169e565b6040516108639190614ff7565b60405180910390f35b34801561087857600080fd5b5061088161170a565b005b34801561088f57600080fd5b50610898611fff565b6040516108a5919061550e565b60405180910390f35b3480156108ba57600080fd5b506108d560048036038101906108d09190615a16565b612006565b005b3480156108e357600080fd5b506108fe60048036038101906108f991906151a1565b61201c565b60405161090b9190614f3c565b60405180910390f35b34801561092057600080fd5b5061093b60048036038101906109369190615638565b61203a565b005b34801561094957600080fd5b506109526121a2565b60405161095f9190614e5c565b60405180910390f35b34801561097457600080fd5b5061097d6121c9565b60405161098a919061550e565b60405180910390f35b34801561099f57600080fd5b506109ba60048036038101906109b591906155f8565b6121ed565b005b3480156109c857600080fd5b506109e360048036038101906109de91906151a1565b61220e565b6040516109f09190614f3c565b60405180910390f35b348015610a0557600080fd5b50610a0e612227565b604051610a1b9190614e5c565b60405180910390f35b348015610a3057600080fd5b50610a3961224e565b604051610a46919061550e565b60405180910390f35b348015610a5b57600080fd5b50610a766004803603810190610a719190615a56565b612272565b604051610a839190614ff7565b60405180910390f35b348015610a9857600080fd5b50610ab36004803603810190610aae91906151a1565b612306565b604051610ac09190614f3c565b60405180910390f35b348015610ad557600080fd5b50610af06004803603810190610aeb9190615a96565b61231f565b005b348015610afe57600080fd5b50610b196004803603810190610b149190615638565b6123c0565b005b348015610b2757600080fd5b50610b426004803603810190610b3d91906151a1565b612443565b604051610b4f9190614f3c565b60405180910390f35b348015610b6457600080fd5b50610b7f6004803603810190610b7a9190615b2d565b61245c565b005b348015610b8d57600080fd5b50610b966124f9565b604051610ba39190614e5c565b60405180910390f35b348015610bb857600080fd5b50610bc1612520565b604051610bce919061550e565b60405180910390f35b61022760009054906101000a900473ffffffffffffffffffffffffffffffffffffffff1681565b60008073ffffffffffffffffffffffffffffffffffffffff168373ffffffffffffffffffffffffffffffffffffffff1603610c6e576040517f08c379a0000000000000000000000000000000000000000000000000000000008152600401610c6590615bf2565b60405180910390fd5b6065600083815260200190815260200160002060008473ffffffffffffffffffffffffffffffffffffffff1673ffffffffffffffffffffffffffffffffffffffff16815260200190815260200160002054905092915050565b6000610cd282612544565b9050919050565b7f7804d923f43a17d325d77e781528e0793b2edd9890ab45fc64efd7b4b427744c610d03816125be565b610d0c826125d2565b5050565b606060678054610d1f90615c41565b80601f0160208091040260200160405190810160405280929190818152602001828054610d4b90615c41565b8015610d985780601f10610d6d57610100808354040283529160200191610d98565b820191906000526020600020905b815481529060010190602001808311610d7b57829003601f168201915b50505050509050919050565b7f9f2df0fed2c77648de5860a4cc508cd0818c85b8b8a1ab4ceeef8d981c8956a6610dce816125be565b610dda858585856125ec565b5050505050565b60006101c36000838152602001908152602001600020600101549050919050565b610e0a612819565b73ffffffffffffffffffffffffffffffffffffffff168573ffffffffffffffffffffffffffffffffffffffff161480610e505750610e4f85610e4a612819565b612272565b5b610e8f576040517f08c379a0000000000000000000000000000000000000000000000000000000008152600401610e8690615ce4565b60405180910390fd5b610e9c8585858585612821565b5050505050565b610eac82610de1565b610eb5816125be565b610ebf8383612b45565b505050565b610ecc612819565b73ffffffffffffffffffffffffffffffffffffffff168173ffffffffffffffffffffffffffffffffffffffff1614610f39576040517f08c379a0000000000000000000000000000000000000000000000000000000008152600401610f3090615d76565b60405180910390fd5b610f438282612c27565b5050565b7f000000000000000000000000000000000000000000000000000000000000000073ffffffffffffffffffffffffffffffffffffffff163073ffffffffffffffffffffffffffffffffffffffff1603610fd5576040517f08c379a0000000000000000000000000000000000000000000000000000000008152600401610fcc90615e08565b60405180910390fd5b7f000000000000000000000000000000000000000000000000000000000000000073ffffffffffffffffffffffffffffffffffffffff16611014612d0a565b73ffffffffffffffffffffffffffffffffffffffff161461106a576040517f08c379a000000000000000000000000000000000000000000000000000000000815260040161106190615e9a565b60405180910390fd5b61107381612d61565b6110cc81600067ffffffffffffffff8111156110925761109161502d565b5b6040519080825280601f01601f1916602001820160405280156110c45781602001600182028036833780820191505090505b506000612d8f565b50565b7f65d7a28e3265b37a6474929f336521b332c1681b933f6cb9f3376673440d862a6110f9816125be565b611101612efd565b50565b61022e60009054906101000a900473ffffffffffffffffffffffffffffffffffffffff1681565b6102285481565b61022d6020528060005260406000206000915054906101000a900473ffffffffffffffffffffffffffffffffffffffff1681565b6102336020528060005260406000206000915090505481565b606081518351146111c5576040517f08c379a00000000000000000000000000000000000000000000000000000000081526004016111bc90615f2c565b60405180910390fd5b6000835167ffffffffffffffff8111156111e2576111e161502d565b5b6040519080825280602002602001820160405280156112105781602001602082028036833780820191505090505b50905060005b845181101561128d5761125d85828151811061123557611234615f4c565b5b60200260200101518583815181106112505761124f615f4c565b5b6020026020010151610bfe565b8282815181106112705761126f615f4c565b5b6020026020010181815250508061128690615faa565b9050611216565b508091505092915050565b7f000000000000000000000000000000000000000000000000000000000000000073ffffffffffffffffffffffffffffffffffffffff163073ffffffffffffffffffffffffffffffffffffffff1603611326576040517f08c379a000000000000000000000000000000000000000000000000000000000815260040161131d90615e08565b60405180910390fd5b7f000000000000000000000000000000000000000000000000000000000000000073ffffffffffffffffffffffffffffffffffffffff16611365612d0a565b73ffffffffffffffffffffffffffffffffffffffff16146113bb576040517f08c379a00000000000000000000000000000000000000000000000000000000081526004016113b290615e9a565b60405180910390fd5b6113c482612d61565b6113d082826001612d8f565b5050565b6000806113e08361201c565b119050919050565b60007f000000000000000000000000000000000000000000000000000000000000000073ffffffffffffffffffffffffffffffffffffffff163073ffffffffffffffffffffffffffffffffffffffff1614611478576040517f08c379a000000000000000000000000000000000000000000000000000000000815260040161146f90616064565b60405180910390fd5b7f360894a13ba1a3210667c828492db98dca3e2076cc3735a920a3ca505d382bbc60001b905090565b600060c960009054906101000a900460ff16905090565b6102356020528060005260406000206000915090505481565b6114d9612819565b73ffffffffffffffffffffffffffffffffffffffff168373ffffffffffffffffffffffffffffffffffffffff16148061151f575061151e83611519612819565b612272565b5b61155e576040517f08c379a000000000000000000000000000000000000000000000000000000000815260040161155590615ce4565b60405180910390fd5b611569838383612f60565b505050565b61023260009054906101000a900473ffffffffffffffffffffffffffffffffffffffff1681565b61159d613230565b6115a760006132ae565b565b7f9f2df0fed2c77648de5860a4cc508cd0818c85b8b8a1ab4ceeef8d981c8956a66115d3816125be565b6115df85858585613376565b5050505050565b7f7804d923f43a17d325d77e781528e0793b2edd9890ab45fc64efd7b4b427744c81565b7f65d7a28e3265b37a6474929f336521b332c1681b933f6cb9f3376673440d862a611634816125be565b61163c613527565b50565b61022f6020528060005260406000206000915054906101000a900473ffffffffffffffffffffffffffffffffffffffff1681565b600061012d60009054906101000a900473ffffffffffffffffffffffffffffffffffffffff16905090565b60006101c3600084815260200190815260200160002060000160008373ffffffffffffffffffffffffffffffffffffffff1673ffffffffffffffffffffffffffffffffffffffff16815260200190815260200160002060009054906101000a900460ff16905092915050565b60008061023260009054906101000a900473ffffffffffffffffffffffffffffffffffffffff1673ffffffffffffffffffffffffffffffffffffffff1661022760009054906101000a900473ffffffffffffffffffffffffffffffffffffffff1660405160240161177b9190614e5c565b6040516020818303038152906040527f966b1910000000000000000000000000000000000000000000000000000000007bffffffffffffffffffffffffffffffffffffffffffffffffffffffff19166020820180517bffffffffffffffffffffffffffffffffffffffffffffffffffffffff838183161783525050505060405161180591906160cb565b600060405180830381855af49150503d8060008114611840576040519150601f19603f3d011682016040523d82523d6000602084013e611845565b606091505b50915091508161188a576040517f08c379a00000000000000000000000000000000000000000000000000000000081526004016118819061612e565b60405180910390fd5b60008061023260009054906101000a900473ffffffffffffffffffffffffffffffffffffffff1673ffffffffffffffffffffffffffffffffffffffff1661022a60009054906101000a900473ffffffffffffffffffffffffffffffffffffffff166040516024016118fb9190614e5c565b6040516020818303038152906040527f921dbc88000000000000000000000000000000000000000000000000000000007bffffffffffffffffffffffffffffffffffffffffffffffffffffffff19166020820180517bffffffffffffffffffffffffffffffffffffffffffffffffffffffff838183161783525050505060405161198591906160cb565b600060405180830381855af49150503d80600081146119c0576040519150601f19603f3d011682016040523d82523d6000602084013e6119c5565b606091505b509150915081611a0a576040517f08c379a0000000000000000000000000000000000000000000000000000000008152600401611a019061612e565b60405180910390fd5b60008061023260009054906101000a900473ffffffffffffffffffffffffffffffffffffffff1673ffffffffffffffffffffffffffffffffffffffff1661022c60009054906101000a900473ffffffffffffffffffffffffffffffffffffffff16604051602401611a7b9190614e5c565b6040516020818303038152906040527f1cd0d952000000000000000000000000000000000000000000000000000000007bffffffffffffffffffffffffffffffffffffffffffffffffffffffff19166020820180517bffffffffffffffffffffffffffffffffffffffffffffffffffffffff8381831617835250505050604051611b0591906160cb565b600060405180830381855af49150503d8060008114611b40576040519150601f19603f3d011682016040523d82523d6000602084013e611b45565b606091505b509150915081611b8a576040517f08c379a0000000000000000000000000000000000000000000000000000000008152600401611b819061612e565b60405180910390fd5b60008061023260009054906101000a900473ffffffffffffffffffffffffffffffffffffffff1673ffffffffffffffffffffffffffffffffffffffff1661022e60009054906101000a900473ffffffffffffffffffffffffffffffffffffffff16604051602401611bfb9190614e5c565b6040516020818303038152906040527f1b36115f000000000000000000000000000000000000000000000000000000007bffffffffffffffffffffffffffffffffffffffffffffffffffffffff19166020820180517bffffffffffffffffffffffffffffffffffffffffffffffffffffffff8381831617835250505050604051611c8591906160cb565b600060405180830381855af49150503d8060008114611cc0576040519150601f19603f3d011682016040523d82523d6000602084013e611cc5565b606091505b509150915081611d0a576040517f08c379a0000000000000000000000000000000000000000000000000000000008152600401611d019061612e565b60405180910390fd5b60008061023260009054906101000a900473ffffffffffffffffffffffffffffffffffffffff1673ffffffffffffffffffffffffffffffffffffffff166102285461022e60009054906101000a900473ffffffffffffffffffffffffffffffffffffffff16604051602401611d8092919061614e565b6040516020818303038152906040527fbccb9fbf000000000000000000000000000000000000000000000000000000007bffffffffffffffffffffffffffffffffffffffffffffffffffffffff19166020820180517bffffffffffffffffffffffffffffffffffffffffffffffffffffffff8381831617835250505050604051611e0a91906160cb565b600060405180830381855af49150503d8060008114611e45576040519150601f19603f3d011682016040523d82523d6000602084013e611e4a565b606091505b509150915081611e8f576040517f08c379a0000000000000000000000000000000000000000000000000000000008152600401611e869061612e565b60405180910390fd5b60008061023260009054906101000a900473ffffffffffffffffffffffffffffffffffffffff1673ffffffffffffffffffffffffffffffffffffffff166102285430604051602401611ee292919061614e565b6040516020818303038152906040527f165edcbb000000000000000000000000000000000000000000000000000000007bffffffffffffffffffffffffffffffffffffffffffffffffffffffff19166020820180517bffffffffffffffffffffffffffffffffffffffffffffffffffffffff8381831617835250505050604051611f6c91906160cb565b600060405180830381855af49150503d8060008114611fa7576040519150601f19603f3d011682016040523d82523d6000602084013e611fac565b606091505b509150915081611ff1576040517f08c379a0000000000000000000000000000000000000000000000000000000008152600401611fe89061612e565b60405180910390fd5b505050505050505050505050565b6000801b81565b612018612011612819565b838361358a565b5050565b60006101f56000838152602001908152602001600020549050919050565b6120786040518060400160405280601581526020017f68747470733a2f2f697066732e696f2f697066732f00000000000000000000008152506136f6565b612080613751565b6120886137a2565b6120906137fb565b612098613854565b6120a06138a5565b6120a86138f6565b6120b56000801b33613947565b6120df7f7804d923f43a17d325d77e781528e0793b2edd9890ab45fc64efd7b4b427744c33613947565b6121097f65d7a28e3265b37a6474929f336521b332c1681b933f6cb9f3376673440d862a33613947565b6121337f9f2df0fed2c77648de5860a4cc508cd0818c85b8b8a1ab4ceeef8d981c8956a633613947565b61215d7f189ab7a9244df0848122154315af71fe140f3db0fe014031783b0946b8c9d2e333613947565b8061023260006101000a81548173ffffffffffffffffffffffffffffffffffffffff021916908373ffffffffffffffffffffffffffffffffffffffff16021790555050565b61022b60009054906101000a900473ffffffffffffffffffffffffffffffffffffffff1681565b7f9f2df0fed2c77648de5860a4cc508cd0818c85b8b8a1ab4ceeef8d981c8956a681565b6121f682610de1565b6121ff816125be565b6122098383612c27565b505050565b6102306020528060005260406000206000915090505481565b61022c60009054906101000a900473ffffffffffffffffffffffffffffffffffffffff1681565b7f65d7a28e3265b37a6474929f336521b332c1681b933f6cb9f3376673440d862a81565b6000606660008473ffffffffffffffffffffffffffffffffffffffff1673ffffffffffffffffffffffffffffffffffffffff16815260200190815260200160002060008373ffffffffffffffffffffffffffffffffffffffff1673ffffffffffffffffffffffffffffffffffffffff16815260200190815260200160002060009054906101000a900460ff16905092915050565b6102316020528060005260406000206000915090505481565b612327612819565b73ffffffffffffffffffffffffffffffffffffffff168573ffffffffffffffffffffffffffffffffffffffff16148061236d575061236c85612367612819565b612272565b5b6123ac576040517f08c379a00000000000000000000000000000000000000000000000000000000081526004016123a390615ce4565b60405180910390fd5b6123b98585858585613955565b5050505050565b6123c8613230565b600073ffffffffffffffffffffffffffffffffffffffff168173ffffffffffffffffffffffffffffffffffffffff1603612437576040517f08c379a000000000000000000000000000000000000000000000000000000000815260040161242e906161e9565b60405180910390fd5b612440816132ae565b50565b6102346020528060005260406000206000915090505481565b612464612819565b73ffffffffffffffffffffffffffffffffffffffff168373ffffffffffffffffffffffffffffffffffffffff1614806124aa57506124a9836124a4612819565b612272565b5b6124e9576040517f08c379a00000000000000000000000000000000000000000000000000000000081526004016124e090615ce4565b60405180910390fd5b6124f4838383613bf3565b505050565b61022a60009054906101000a900473ffffffffffffffffffffffffffffffffffffffff1681565b7f189ab7a9244df0848122154315af71fe140f3db0fe014031783b0946b8c9d2e381565b60007f7965db0b000000000000000000000000000000000000000000000000000000007bffffffffffffffffffffffffffffffffffffffffffffffffffffffff1916827bffffffffffffffffffffffffffffffffffffffffffffffffffffffff191614806125b757506125b682613e3b565b5b9050919050565b6125cf816125ca612819565b613f1d565b50565b80606790805190602001906125e8929190614d78565b5050565b600073ffffffffffffffffffffffffffffffffffffffff168473ffffffffffffffffffffffffffffffffffffffff160361265b576040517f08c379a00000000000000000000000000000000000000000000000000000000081526004016126529061627b565b60405180910390fd5b815183511461269f576040517f08c379a00000000000000000000000000000000000000000000000000000000081526004016126969061630d565b60405180910390fd5b60006126a9612819565b90506126ba81600087878787613fa2565b60005b8451811015612774578381815181106126d9576126d8615f4c565b5b6020026020010151606560008784815181106126f8576126f7615f4c565b5b6020026020010151815260200190815260200160002060008873ffffffffffffffffffffffffffffffffffffffff1673ffffffffffffffffffffffffffffffffffffffff168152602001908152602001600020600082825461275a919061632d565b92505081905550808061276c90615faa565b9150506126bd565b508473ffffffffffffffffffffffffffffffffffffffff16600073ffffffffffffffffffffffffffffffffffffffff168273ffffffffffffffffffffffffffffffffffffffff167f4a39dc06d4c0dbc64b70af90fd698a233a518aa5d07e595d983b8c0526c8f7fb87876040516127ec929190616383565b60405180910390a461280381600087878787613fc0565b61281281600087878787613fc8565b5050505050565b600033905090565b8151835114612865576040517f08c379a000000000000000000000000000000000000000000000000000000000815260040161285c9061630d565b60405180910390fd5b600073ffffffffffffffffffffffffffffffffffffffff168473ffffffffffffffffffffffffffffffffffffffff16036128d4576040517f08c379a00000000000000000000000000000000000000000000000000000000081526004016128cb9061642c565b60405180910390fd5b60006128de612819565b90506128ee818787878787613fa2565b60005b8451811015612aa257600085828151811061290f5761290e615f4c565b5b60200260200101519050600085838151811061292e5761292d615f4c565b5b6020026020010151905060006065600084815260200190815260200160002060008b73ffffffffffffffffffffffffffffffffffffffff1673ffffffffffffffffffffffffffffffffffffffff168152602001908152602001600020549050818110156129d0576040517f08c379a00000000000000000000000000000000000000000000000000000000081526004016129c7906164be565b60405180910390fd5b8181036065600085815260200190815260200160002060008c73ffffffffffffffffffffffffffffffffffffffff1673ffffffffffffffffffffffffffffffffffffffff16815260200190815260200160002081905550816065600085815260200190815260200160002060008b73ffffffffffffffffffffffffffffffffffffffff1673ffffffffffffffffffffffffffffffffffffffff1681526020019081526020016000206000828254612a87919061632d565b9250508190555050505080612a9b90615faa565b90506128f1565b508473ffffffffffffffffffffffffffffffffffffffff168673ffffffffffffffffffffffffffffffffffffffff168273ffffffffffffffffffffffffffffffffffffffff167f4a39dc06d4c0dbc64b70af90fd698a233a518aa5d07e595d983b8c0526c8f7fb8787604051612b19929190616383565b60405180910390a4612b2f818787878787613fc0565b612b3d818787878787613fc8565b505050505050565b612b4f828261169e565b612c235760016101c3600084815260200190815260200160002060000160008373ffffffffffffffffffffffffffffffffffffffff1673ffffffffffffffffffffffffffffffffffffffff16815260200190815260200160002060006101000a81548160ff021916908315150217905550612bc8612819565b73ffffffffffffffffffffffffffffffffffffffff168173ffffffffffffffffffffffffffffffffffffffff16837f2f8788117e7eff1d82e926ec794901d17c78024a50270940304540a733656f0d60405160405180910390a45b5050565b612c31828261169e565b15612d065760006101c3600084815260200190815260200160002060000160008373ffffffffffffffffffffffffffffffffffffffff1673ffffffffffffffffffffffffffffffffffffffff16815260200190815260200160002060006101000a81548160ff021916908315150217905550612cab612819565b73ffffffffffffffffffffffffffffffffffffffff168173ffffffffffffffffffffffffffffffffffffffff16837ff6391f5c32d9c69d2a47ea670b442974b53935d1edc7fd64eb21e047a839171b60405160405180910390a45b5050565b6000612d387f360894a13ba1a3210667c828492db98dca3e2076cc3735a920a3ca505d382bbc60001b61419f565b60000160009054906101000a900473ffffffffffffffffffffffffffffffffffffffff16905090565b7f189ab7a9244df0848122154315af71fe140f3db0fe014031783b0946b8c9d2e3612d8b816125be565b5050565b612dbb7f4910fdfa16fed3260ed0e7147f7cc6da11a60208b5b9406d12a635614ffd914360001b6141a9565b60000160009054906101000a900460ff1615612ddf57612dda836141b3565b612ef8565b8273ffffffffffffffffffffffffffffffffffffffff166352d1902d6040518163ffffffff1660e01b8152600401602060405180830381865afa925050508015612e4757506040513d601f19601f82011682018060405250810190612e4491906164f3565b60015b612e86576040517f08c379a0000000000000000000000000000000000000000000000000000000008152600401612e7d90616592565b60405180910390fd5b7f360894a13ba1a3210667c828492db98dca3e2076cc3735a920a3ca505d382bbc60001b8114612eeb576040517f08c379a0000000000000000000000000000000000000000000000000000000008152600401612ee290616624565b60405180910390fd5b50612ef783838361426c565b5b505050565b612f05614298565b600060c960006101000a81548160ff0219169083151502179055507f5db9ee0a495bf2e6ff9c91a7834c1ba4fdd244a5e8aa4e537bd38aeae4b073aa612f49612819565b604051612f569190614e5c565b60405180910390a1565b600073ffffffffffffffffffffffffffffffffffffffff168373ffffffffffffffffffffffffffffffffffffffff1603612fcf576040517f08c379a0000000000000000000000000000000000000000000000000000000008152600401612fc6906166b6565b60405180910390fd5b8051825114613013576040517f08c379a000000000000000000000000000000000000000000000000000000000815260040161300a9061630d565b60405180910390fd5b600061301d612819565b905061303d81856000868660405180602001604052806000815250613fa2565b60005b835181101561318c57600084828151811061305e5761305d615f4c565b5b60200260200101519050600084838151811061307d5761307c615f4c565b5b6020026020010151905060006065600084815260200190815260200160002060008973ffffffffffffffffffffffffffffffffffffffff1673ffffffffffffffffffffffffffffffffffffffff1681526020019081526020016000205490508181101561311f576040517f08c379a000000000000000000000000000000000000000000000000000000000815260040161311690616748565b60405180910390fd5b8181036065600085815260200190815260200160002060008a73ffffffffffffffffffffffffffffffffffffffff1673ffffffffffffffffffffffffffffffffffffffff16815260200190815260200160002081905550505050808061318490615faa565b915050613040565b50600073ffffffffffffffffffffffffffffffffffffffff168473ffffffffffffffffffffffffffffffffffffffff168273ffffffffffffffffffffffffffffffffffffffff167f4a39dc06d4c0dbc64b70af90fd698a233a518aa5d07e595d983b8c0526c8f7fb8686604051613204929190616383565b60405180910390a461322a81856000868660405180602001604052806000815250613fc0565b50505050565b613238612819565b73ffffffffffffffffffffffffffffffffffffffff16613256611673565b73ffffffffffffffffffffffffffffffffffffffff16146132ac576040517f08c379a00000000000000000000000000000000000000000000000000000000081526004016132a3906167b4565b60405180910390fd5b565b600061012d60009054906101000a900473ffffffffffffffffffffffffffffffffffffffff1690508161012d60006101000a81548173ffffffffffffffffffffffffffffffffffffffff021916908373ffffffffffffffffffffffffffffffffffffffff1602179055508173ffffffffffffffffffffffffffffffffffffffff168173ffffffffffffffffffffffffffffffffffffffff167f8be0079c531659141344cd1fd0a4f28419497f9722a3daafe3b4186f6b6457e060405160405180910390a35050565b600073ffffffffffffffffffffffffffffffffffffffff168473ffffffffffffffffffffffffffffffffffffffff16036133e5576040517f08c379a00000000000000000000000000000000000000000000000000000000081526004016133dc9061627b565b60405180910390fd5b60006133ef612819565b905060006133fc856142e1565b90506000613409856142e1565b905061341a83600089858589613fa2565b846065600088815260200190815260200160002060008973ffffffffffffffffffffffffffffffffffffffff1673ffffffffffffffffffffffffffffffffffffffff168152602001908152602001600020600082825461347a919061632d565b925050819055508673ffffffffffffffffffffffffffffffffffffffff16600073ffffffffffffffffffffffffffffffffffffffff168473ffffffffffffffffffffffffffffffffffffffff167fc3d58168c5ae7397731d063d5bbf3d657854427343f4c083240f7aacaa2d0f6289896040516134f89291906167d4565b60405180910390a461350f83600089858589613fc0565b61351e8360008989898961435b565b50505050505050565b61352f614532565b600160c960006101000a81548160ff0219169083151502179055507f62e78cea01bee320cd4e420270b5ea74000d11b0c9f74754ebdbfc544b05a258613573612819565b6040516135809190614e5c565b60405180910390a1565b8173ffffffffffffffffffffffffffffffffffffffff168373ffffffffffffffffffffffffffffffffffffffff16036135f8576040517f08c379a00000000000000000000000000000000000000000000000000000000081526004016135ef9061686f565b60405180910390fd5b80606660008573ffffffffffffffffffffffffffffffffffffffff1673ffffffffffffffffffffffffffffffffffffffff16815260200190815260200160002060008473ffffffffffffffffffffffffffffffffffffffff1673ffffffffffffffffffffffffffffffffffffffff16815260200190815260200160002060006101000a81548160ff0219169083151502179055508173ffffffffffffffffffffffffffffffffffffffff168373ffffffffffffffffffffffffffffffffffffffff167f17307eab39ab6107e8899845ad3d59bd9653f200f220920489ca2b5937696c31836040516136e99190614ff7565b60405180910390a3505050565b600060019054906101000a900460ff16613745576040517f08c379a000000000000000000000000000000000000000000000000000000000815260040161373c90616901565b60405180910390fd5b61374e8161457c565b50565b600060019054906101000a900460ff166137a0576040517f08c379a000000000000000000000000000000000000000000000000000000000815260040161379790616901565b60405180910390fd5b565b600060019054906101000a900460ff166137f1576040517f08c379a00000000000000000000000000000000000000000000000000000000081526004016137e890616901565b60405180910390fd5b6137f96145d7565b565b600060019054906101000a900460ff1661384a576040517f08c379a000000000000000000000000000000000000000000000000000000000815260040161384190616901565b60405180910390fd5b613852614643565b565b600060019054906101000a900460ff166138a3576040517f08c379a000000000000000000000000000000000000000000000000000000000815260040161389a90616901565b60405180910390fd5b565b600060019054906101000a900460ff166138f4576040517f08c379a00000000000000000000000000000000000000000000000000000000081526004016138eb90616901565b60405180910390fd5b565b600060019054906101000a900460ff16613945576040517f08c379a000000000000000000000000000000000000000000000000000000000815260040161393c90616901565b60405180910390fd5b565b6139518282612b45565b5050565b600073ffffffffffffffffffffffffffffffffffffffff168473ffffffffffffffffffffffffffffffffffffffff16036139c4576040517f08c379a00000000000000000000000000000000000000000000000000000000081526004016139bb9061642c565b60405180910390fd5b60006139ce612819565b905060006139db856142e1565b905060006139e8856142e1565b90506139f8838989858589613fa2565b60006065600088815260200190815260200160002060008a73ffffffffffffffffffffffffffffffffffffffff1673ffffffffffffffffffffffffffffffffffffffff16815260200190815260200160002054905085811015613a90576040517f08c379a0000000000000000000000000000000000000000000000000000000008152600401613a87906164be565b60405180910390fd5b8581036065600089815260200190815260200160002060008b73ffffffffffffffffffffffffffffffffffffffff1673ffffffffffffffffffffffffffffffffffffffff16815260200190815260200160002081905550856065600089815260200190815260200160002060008a73ffffffffffffffffffffffffffffffffffffffff1673ffffffffffffffffffffffffffffffffffffffff1681526020019081526020016000206000828254613b47919061632d565b925050819055508773ffffffffffffffffffffffffffffffffffffffff168973ffffffffffffffffffffffffffffffffffffffff168573ffffffffffffffffffffffffffffffffffffffff167fc3d58168c5ae7397731d063d5bbf3d657854427343f4c083240f7aacaa2d0f628a8a604051613bc49291906167d4565b60405180910390a4613bda848a8a86868a613fc0565b613be8848a8a8a8a8a61435b565b505050505050505050565b600073ffffffffffffffffffffffffffffffffffffffff168373ffffffffffffffffffffffffffffffffffffffff1603613c62576040517f08c379a0000000000000000000000000000000000000000000000000000000008152600401613c59906166b6565b60405180910390fd5b6000613c6c612819565b90506000613c79846142e1565b90506000613c86846142e1565b9050613ca683876000858560405180602001604052806000815250613fa2565b60006065600087815260200190815260200160002060008873ffffffffffffffffffffffffffffffffffffffff1673ffffffffffffffffffffffffffffffffffffffff16815260200190815260200160002054905084811015613d3e576040517f08c379a0000000000000000000000000000000000000000000000000000000008152600401613d3590616748565b60405180910390fd5b8481036065600088815260200190815260200160002060008973ffffffffffffffffffffffffffffffffffffffff1673ffffffffffffffffffffffffffffffffffffffff16815260200190815260200160002081905550600073ffffffffffffffffffffffffffffffffffffffff168773ffffffffffffffffffffffffffffffffffffffff168573ffffffffffffffffffffffffffffffffffffffff167fc3d58168c5ae7397731d063d5bbf3d657854427343f4c083240f7aacaa2d0f628989604051613e0c9291906167d4565b60405180910390a4613e3284886000868660405180602001604052806000815250613fc0565b50505050505050565b60007fd9b67a26000000000000000000000000000000000000000000000000000000007bffffffffffffffffffffffffffffffffffffffffffffffffffffffff1916827bffffffffffffffffffffffffffffffffffffffffffffffffffffffff19161480613f0657507f0e89341c000000000000000000000000000000000000000000000000000000007bffffffffffffffffffffffffffffffffffffffffffffffffffffffff1916827bffffffffffffffffffffffffffffffffffffffffffffffffffffffff1916145b80613f165750613f15826146a4565b5b9050919050565b613f27828261169e565b613f9e57613f348161470e565b613f428360001c602061473b565b604051602001613f539291906169f5565b6040516020818303038152906040526040517f08c379a0000000000000000000000000000000000000000000000000000000008152600401613f959190615256565b60405180910390fd5b5050565b613faa614532565b613fb8868686868686614977565b505050505050565b505050505050565b613fe78473ffffffffffffffffffffffffffffffffffffffff16614b4a565b15614197578373ffffffffffffffffffffffffffffffffffffffff1663bc197c8187878686866040518663ffffffff1660e01b815260040161402d959493929190616a79565b6020604051808303816000875af192505050801561406957506040513d601f19601f820116820180604052508101906140669190616af6565b60015b61410e57614075616b30565b806308c379a0036140d15750614089616b52565b8061409457506140d3565b806040517f08c379a00000000000000000000000000000000000000000000000000000000081526004016140c89190615256565b60405180910390fd5b505b6040517f08c379a000000000000000000000000000000000000000000000000000000000815260040161410590616c54565b60405180910390fd5b63bc197c8160e01b7bffffffffffffffffffffffffffffffffffffffffffffffffffffffff1916817bffffffffffffffffffffffffffffffffffffffffffffffffffffffff191614614195576040517f08c379a000000000000000000000000000000000000000000000000000000000815260040161418c90616ce6565b60405180910390fd5b505b505050505050565b6000819050919050565b6000819050919050565b6141bc81614b4a565b6141fb576040517f08c379a00000000000000000000000000000000000000000000000000000000081526004016141f290616d78565b60405180910390fd5b806142287f360894a13ba1a3210667c828492db98dca3e2076cc3735a920a3ca505d382bbc60001b61419f565b60000160006101000a81548173ffffffffffffffffffffffffffffffffffffffff021916908373ffffffffffffffffffffffffffffffffffffffff16021790555050565b61427583614b6d565b6000825111806142825750805b15614293576142918383614bbc565b505b505050565b6142a06114a1565b6142df576040517f08c379a00000000000000000000000000000000000000000000000000000000081526004016142d690616de4565b60405180910390fd5b565b60606000600167ffffffffffffffff811115614300576142ff61502d565b5b60405190808252806020026020018201604052801561432e5781602001602082028036833780820191505090505b509050828160008151811061434657614345615f4c565b5b60200260200101818152505080915050919050565b61437a8473ffffffffffffffffffffffffffffffffffffffff16614b4a565b1561452a578373ffffffffffffffffffffffffffffffffffffffff1663f23a6e6187878686866040518663ffffffff1660e01b81526004016143c0959493929190616e04565b6020604051808303816000875af19250505080156143fc57506040513d601f19601f820116820180604052508101906143f99190616af6565b60015b6144a157614408616b30565b806308c379a003614464575061441c616b52565b806144275750614466565b806040517f08c379a000000000000000000000000000000000000000000000000000000000815260040161445b9190615256565b60405180910390fd5b505b6040517f08c379a000000000000000000000000000000000000000000000000000000000815260040161449890616c54565b60405180910390fd5b63f23a6e6160e01b7bffffffffffffffffffffffffffffffffffffffffffffffffffffffff1916817bffffffffffffffffffffffffffffffffffffffffffffffffffffffff191614614528576040517f08c379a000000000000000000000000000000000000000000000000000000000815260040161451f90616ce6565b60405180910390fd5b505b505050505050565b61453a6114a1565b1561457a576040517f08c379a000000000000000000000000000000000000000000000000000000000815260040161457190616eaa565b60405180910390fd5b565b600060019054906101000a900460ff166145cb576040517f08c379a00000000000000000000000000000000000000000000000000000000081526004016145c290616901565b60405180910390fd5b6145d4816125d2565b50565b600060019054906101000a900460ff16614626576040517f08c379a000000000000000000000000000000000000000000000000000000000815260040161461d90616901565b60405180910390fd5b600060c960006101000a81548160ff021916908315150217905550565b600060019054906101000a900460ff16614692576040517f08c379a000000000000000000000000000000000000000000000000000000000815260040161468990616901565b60405180910390fd5b6146a261469d612819565b6132ae565b565b60007f01ffc9a7000000000000000000000000000000000000000000000000000000007bffffffffffffffffffffffffffffffffffffffffffffffffffffffff1916827bffffffffffffffffffffffffffffffffffffffffffffffffffffffff1916149050919050565b60606147348273ffffffffffffffffffffffffffffffffffffffff16601460ff1661473b565b9050919050565b60606000600283600261474e9190616eca565b614758919061632d565b67ffffffffffffffff8111156147715761477061502d565b5b6040519080825280601f01601f1916602001820160405280156147a35781602001600182028036833780820191505090505b5090507f3000000000000000000000000000000000000000000000000000000000000000816000815181106147db576147da615f4c565b5b60200101907effffffffffffffffffffffffffffffffffffffffffffffffffffffffffffff1916908160001a9053507f78000000000000000000000000000000000000000000000000000000000000008160018151811061483f5761483e615f4c565b5b60200101907effffffffffffffffffffffffffffffffffffffffffffffffffffffffffffff1916908160001a9053506000600184600261487f9190616eca565b614889919061632d565b90505b6001811115614929577f3031323334353637383961626364656600000000000000000000000000000000600f8616601081106148cb576148ca615f4c565b5b1a60f81b8282815181106148e2576148e1615f4c565b5b60200101907effffffffffffffffffffffffffffffffffffffffffffffffffffffffffffff1916908160001a905350600485901c94508061492290616f24565b905061488c565b506000841461496d576040517f08c379a000000000000000000000000000000000000000000000000000000000815260040161496490616f99565b60405180910390fd5b8091505092915050565b614985868686868686614ca0565b600073ffffffffffffffffffffffffffffffffffffffff168573ffffffffffffffffffffffffffffffffffffffff1603614a375760005b8351811015614a35578281815181106149d8576149d7615f4c565b5b60200260200101516101f560008684815181106149f8576149f7615f4c565b5b602002602001015181526020019081526020016000206000828254614a1d919061632d565b9250508190555080614a2e90615faa565b90506149bc565b505b600073ffffffffffffffffffffffffffffffffffffffff168473ffffffffffffffffffffffffffffffffffffffff1603614b425760005b8351811015614b40576000848281518110614a8c57614a8b615f4c565b5b602002602001015190506000848381518110614aab57614aaa615f4c565b5b6020026020010151905060006101f5600084815260200190815260200160002054905081811015614b11576040517f08c379a0000000000000000000000000000000000000000000000000000000008152600401614b089061702b565b60405180910390fd5b8181036101f560008581526020019081526020016000208190555050505080614b3990615faa565b9050614a6e565b505b505050505050565b6000808273ffffffffffffffffffffffffffffffffffffffff163b119050919050565b614b76816141b3565b8073ffffffffffffffffffffffffffffffffffffffff167fbc7cd75a20ee27fd9adebab32041f755214dbc6bffa90cc0225b39da2e5c2d3b60405160405180910390a250565b6060614bc783614b4a565b614c06576040517f08c379a0000000000000000000000000000000000000000000000000000000008152600401614bfd906170bd565b60405180910390fd5b6000808473ffffffffffffffffffffffffffffffffffffffff1684604051614c2e91906160cb565b600060405180830381855af49150503d8060008114614c69576040519150601f19603f3d011682016040523d82523d6000602084013e614c6e565b606091505b5091509150614c96828260405180606001604052806027815260200161717060279139614cfe565b9250505092915050565b614cae868686868686614d20565b614cb66114a1565b15614cf6576040517f08c379a0000000000000000000000000000000000000000000000000000000008152600401614ced9061714f565b60405180910390fd5b505050505050565b60608315614d0e57829050614d19565b614d188383614d28565b5b9392505050565b505050505050565b600082511115614d3b5781518083602001fd5b806040517f08c379a0000000000000000000000000000000000000000000000000000000008152600401614d6f9190615256565b60405180910390fd5b828054614d8490615c41565b90600052602060002090601f016020900481019282614da65760008555614ded565b82601f10614dbf57805160ff1916838001178555614ded565b82800160010185558215614ded579182015b82811115614dec578251825591602001919060010190614dd1565b5b509050614dfa9190614dfe565b5090565b5b80821115614e17576000816000905550600101614dff565b5090565b600073ffffffffffffffffffffffffffffffffffffffff82169050919050565b6000614e4682614e1b565b9050919050565b614e5681614e3b565b82525050565b6000602082019050614e716000830184614e4d565b92915050565b6000604051905090565b600080fd5b600080fd5b614e9481614e3b565b8114614e9f57600080fd5b50565b600081359050614eb181614e8b565b92915050565b6000819050919050565b614eca81614eb7565b8114614ed557600080fd5b50565b600081359050614ee781614ec1565b92915050565b60008060408385031215614f0457614f03614e81565b5b6000614f1285828601614ea2565b9250506020614f2385828601614ed8565b9150509250929050565b614f3681614eb7565b82525050565b6000602082019050614f516000830184614f2d565b92915050565b60007fffffffff0000000000000000000000000000000000000000000000000000000082169050919050565b614f8c81614f57565b8114614f9757600080fd5b50565b600081359050614fa981614f83565b92915050565b600060208284031215614fc557614fc4614e81565b5b6000614fd384828501614f9a565b91505092915050565b60008115159050919050565b614ff181614fdc565b82525050565b600060208201905061500c6000830184614fe8565b92915050565b600080fd5b600080fd5b6000601f19601f8301169050919050565b7f4e487b7100000000000000000000000000000000000000000000000000000000600052604160045260246000fd5b6150658261501c565b810181811067ffffffffffffffff821117156150845761508361502d565b5b80604052505050565b6000615097614e77565b90506150a3828261505c565b919050565b600067ffffffffffffffff8211156150c3576150c261502d565b5b6150cc8261501c565b9050602081019050919050565b82818337600083830152505050565b60006150fb6150f6846150a8565b61508d565b90508281526020810184848401111561511757615116615017565b5b6151228482856150d9565b509392505050565b600082601f83011261513f5761513e615012565b5b813561514f8482602086016150e8565b91505092915050565b60006020828403121561516e5761516d614e81565b5b600082013567ffffffffffffffff81111561518c5761518b614e86565b5b6151988482850161512a565b91505092915050565b6000602082840312156151b7576151b6614e81565b5b60006151c584828501614ed8565b91505092915050565b600081519050919050565b600082825260208201905092915050565b60005b838110156152085780820151818401526020810190506151ed565b83811115615217576000848401525b50505050565b6000615228826151ce565b61523281856151d9565b93506152428185602086016151ea565b61524b8161501c565b840191505092915050565b60006020820190508181036000830152615270818461521d565b905092915050565b600067ffffffffffffffff8211156152935761529261502d565b5b602082029050602081019050919050565b600080fd5b60006152bc6152b784615278565b61508d565b905080838252602082019050602084028301858111156152df576152de6152a4565b5b835b8181101561530857806152f48882614ed8565b8452602084019350506020810190506152e1565b5050509392505050565b600082601f83011261532757615326615012565b5b81356153378482602086016152a9565b91505092915050565b600067ffffffffffffffff82111561535b5761535a61502d565b5b6153648261501c565b9050602081019050919050565b600061538461537f84615340565b61508d565b9050828152602081018484840111156153a05761539f615017565b5b6153ab8482856150d9565b509392505050565b600082601f8301126153c8576153c7615012565b5b81356153d8848260208601615371565b91505092915050565b600080600080608085870312156153fb576153fa614e81565b5b600061540987828801614ea2565b945050602085013567ffffffffffffffff81111561542a57615429614e86565b5b61543687828801615312565b935050604085013567ffffffffffffffff81111561545757615456614e86565b5b61546387828801615312565b925050606085013567ffffffffffffffff81111561548457615483614e86565b5b615490878288016153b3565b91505092959194509250565b6000819050919050565b6154af8161549c565b81146154ba57600080fd5b50565b6000813590506154cc816154a6565b92915050565b6000602082840312156154e8576154e7614e81565b5b60006154f6848285016154bd565b91505092915050565b6155088161549c565b82525050565b600060208201905061552360008301846154ff565b92915050565b600080600080600060a0868803121561554557615544614e81565b5b600061555388828901614ea2565b955050602061556488828901614ea2565b945050604086013567ffffffffffffffff81111561558557615584614e86565b5b61559188828901615312565b935050606086013567ffffffffffffffff8111156155b2576155b1614e86565b5b6155be88828901615312565b925050608086013567ffffffffffffffff8111156155df576155de614e86565b5b6155eb888289016153b3565b9150509295509295909350565b6000806040838503121561560f5761560e614e81565b5b600061561d858286016154bd565b925050602061562e85828601614ea2565b9150509250929050565b60006020828403121561564e5761564d614e81565b5b600061565c84828501614ea2565b91505092915050565b600067ffffffffffffffff8211156156805761567f61502d565b5b602082029050602081019050919050565b60006156a461569f84615665565b61508d565b905080838252602082019050602084028301858111156156c7576156c66152a4565b5b835b818110156156f057806156dc8882614ea2565b8452602084019350506020810190506156c9565b5050509392505050565b600082601f83011261570f5761570e615012565b5b813561571f848260208601615691565b91505092915050565b6000806040838503121561573f5761573e614e81565b5b600083013567ffffffffffffffff81111561575d5761575c614e86565b5b615769858286016156fa565b925050602083013567ffffffffffffffff81111561578a57615789614e86565b5b61579685828601615312565b9150509250929050565b600081519050919050565b600082825260208201905092915050565b6000819050602082019050919050565b6157d581614eb7565b82525050565b60006157e783836157cc565b60208301905092915050565b6000602082019050919050565b600061580b826157a0565b61581581856157ab565b9350615820836157bc565b8060005b8381101561585157815161583888826157db565b9750615843836157f3565b925050600181019050615824565b5085935050505092915050565b600060208201905081810360008301526158788184615800565b905092915050565b6000806040838503121561589757615896614e81565b5b60006158a585828601614ea2565b925050602083013567ffffffffffffffff8111156158c6576158c5614e86565b5b6158d2858286016153b3565b9150509250929050565b6000806000606084860312156158f5576158f4614e81565b5b600061590386828701614ea2565b935050602084013567ffffffffffffffff81111561592457615923614e86565b5b61593086828701615312565b925050604084013567ffffffffffffffff81111561595157615950614e86565b5b61595d86828701615312565b9150509250925092565b6000806000806080858703121561598157615980614e81565b5b600061598f87828801614ea2565b94505060206159a087828801614ed8565b93505060406159b187828801614ed8565b925050606085013567ffffffffffffffff8111156159d2576159d1614e86565b5b6159de878288016153b3565b91505092959194509250565b6159f381614fdc565b81146159fe57600080fd5b50565b600081359050615a10816159ea565b92915050565b60008060408385031215615a2d57615a2c614e81565b5b6000615a3b85828601614ea2565b9250506020615a4c85828601615a01565b9150509250929050565b60008060408385031215615a6d57615a6c614e81565b5b6000615a7b85828601614ea2565b9250506020615a8c85828601614ea2565b9150509250929050565b600080600080600060a08688031215615ab257615ab1614e81565b5b6000615ac088828901614ea2565b9550506020615ad188828901614ea2565b9450506040615ae288828901614ed8565b9350506060615af388828901614ed8565b925050608086013567ffffffffffffffff811115615b1457615b13614e86565b5b615b20888289016153b3565b9150509295509295909350565b600080600060608486031215615b4657615b45614e81565b5b6000615b5486828701614ea2565b9350506020615b6586828701614ed8565b9250506040615b7686828701614ed8565b9150509250925092565b7f455243313135353a2061646472657373207a65726f206973206e6f742061207660008201527f616c6964206f776e657200000000000000000000000000000000000000000000602082015250565b6000615bdc602a836151d9565b9150615be782615b80565b604082019050919050565b60006020820190508181036000830152615c0b81615bcf565b9050919050565b7f4e487b7100000000000000000000000000000000000000000000000000000000600052602260045260246000fd5b60006002820490506001821680615c5957607f821691505b602082108103615c6c57615c6b615c12565b5b50919050565b7f455243313135353a2063616c6c6572206973206e6f7420746f6b656e206f776e60008201527f6572206f7220617070726f766564000000000000000000000000000000000000602082015250565b6000615cce602e836151d9565b9150615cd982615c72565b604082019050919050565b60006020820190508181036000830152615cfd81615cc1565b9050919050565b7f416363657373436f6e74726f6c3a2063616e206f6e6c792072656e6f756e636560008201527f20726f6c657320666f722073656c660000000000000000000000000000000000602082015250565b6000615d60602f836151d9565b9150615d6b82615d04565b604082019050919050565b60006020820190508181036000830152615d8f81615d53565b9050919050565b7f46756e6374696f6e206d7573742062652063616c6c6564207468726f7567682060008201527f64656c656761746563616c6c0000000000000000000000000000000000000000602082015250565b6000615df2602c836151d9565b9150615dfd82615d96565b604082019050919050565b60006020820190508181036000830152615e2181615de5565b9050919050565b7f46756e6374696f6e206d7573742062652063616c6c6564207468726f7567682060008201527f6163746976652070726f78790000000000000000000000000000000000000000602082015250565b6000615e84602c836151d9565b9150615e8f82615e28565b604082019050919050565b60006020820190508181036000830152615eb381615e77565b9050919050565b7f455243313135353a206163636f756e747320616e6420696473206c656e67746860008201527f206d69736d617463680000000000000000000000000000000000000000000000602082015250565b6000615f166029836151d9565b9150615f2182615eba565b604082019050919050565b60006020820190508181036000830152615f4581615f09565b9050919050565b7f4e487b7100000000000000000000000000000000000000000000000000000000600052603260045260246000fd5b7f4e487b7100000000000000000000000000000000000000000000000000000000600052601160045260246000fd5b6000615fb582614eb7565b91507fffffffffffffffffffffffffffffffffffffffffffffffffffffffffffffffff8203615fe757615fe6615f7b565b5b600182019050919050565b7f555550535570677261646561626c653a206d757374206e6f742062652063616c60008201527f6c6564207468726f7567682064656c656761746563616c6c0000000000000000602082015250565b600061604e6038836151d9565b915061605982615ff2565b604082019050919050565b6000602082019050818103600083015261607d81616041565b9050919050565b600081519050919050565b600081905092915050565b60006160a582616084565b6160af818561608f565b93506160bf8185602086016151ea565b80840191505092915050565b60006160d7828461609a565b915081905092915050565b7f44656c65676174652063616c6c206661696c6564000000000000000000000000600082015250565b60006161186014836151d9565b9150616123826160e2565b602082019050919050565b600060208201905081810360008301526161478161610b565b9050919050565b60006040820190506161636000830185614f2d565b6161706020830184614e4d565b9392505050565b7f4f776e61626c653a206e6577206f776e657220697320746865207a65726f206160008201527f6464726573730000000000000000000000000000000000000000000000000000602082015250565b60006161d36026836151d9565b91506161de82616177565b604082019050919050565b60006020820190508181036000830152616202816161c6565b9050919050565b7f455243313135353a206d696e7420746f20746865207a65726f2061646472657360008201527f7300000000000000000000000000000000000000000000000000000000000000602082015250565b60006162656021836151d9565b915061627082616209565b604082019050919050565b6000602082019050818103600083015261629481616258565b9050919050565b7f455243313135353a2069647320616e6420616d6f756e7473206c656e6774682060008201527f6d69736d61746368000000000000000000000000000000000000000000000000602082015250565b60006162f76028836151d9565b91506163028261629b565b604082019050919050565b60006020820190508181036000830152616326816162ea565b9050919050565b600061633882614eb7565b915061634383614eb7565b9250827fffffffffffffffffffffffffffffffffffffffffffffffffffffffffffffffff0382111561637857616377615f7b565b5b828201905092915050565b6000604082019050818103600083015261639d8185615800565b905081810360208301526163b18184615800565b90509392505050565b7f455243313135353a207472616e7366657220746f20746865207a65726f20616460008201527f6472657373000000000000000000000000000000000000000000000000000000602082015250565b60006164166025836151d9565b9150616421826163ba565b604082019050919050565b6000602082019050818103600083015261644581616409565b9050919050565b7f455243313135353a20696e73756666696369656e742062616c616e636520666f60008201527f72207472616e7366657200000000000000000000000000000000000000000000602082015250565b60006164a8602a836151d9565b91506164b38261644c565b604082019050919050565b600060208201905081810360008301526164d78161649b565b9050919050565b6000815190506164ed816154a6565b92915050565b60006020828403121561650957616508614e81565b5b6000616517848285016164de565b91505092915050565b7f45524331393637557067726164653a206e657720696d706c656d656e7461746960008201527f6f6e206973206e6f742055555053000000000000000000000000000000000000602082015250565b600061657c602e836151d9565b915061658782616520565b604082019050919050565b600060208201905081810360008301526165ab8161656f565b9050919050565b7f45524331393637557067726164653a20756e737570706f727465642070726f7860008201527f6961626c65555549440000000000000000000000000000000000000000000000602082015250565b600061660e6029836151d9565b9150616619826165b2565b604082019050919050565b6000602082019050818103600083015261663d81616601565b9050919050565b7f455243313135353a206275726e2066726f6d20746865207a65726f206164647260008201527f6573730000000000000000000000000000000000000000000000000000000000602082015250565b60006166a06023836151d9565b91506166ab82616644565b604082019050919050565b600060208201905081810360008301526166cf81616693565b9050919050565b7f455243313135353a206275726e20616d6f756e7420657863656564732062616c60008201527f616e636500000000000000000000000000000000000000000000000000000000602082015250565b60006167326024836151d9565b915061673d826166d6565b604082019050919050565b6000602082019050818103600083015261676181616725565b9050919050565b7f4f776e61626c653a2063616c6c6572206973206e6f7420746865206f776e6572600082015250565b600061679e6020836151d9565b91506167a982616768565b602082019050919050565b600060208201905081810360008301526167cd81616791565b9050919050565b60006040820190506167e96000830185614f2d565b6167f66020830184614f2d565b9392505050565b7f455243313135353a2073657474696e6720617070726f76616c2073746174757360008201527f20666f722073656c660000000000000000000000000000000000000000000000602082015250565b60006168596029836151d9565b9150616864826167fd565b604082019050919050565b600060208201905081810360008301526168888161684c565b9050919050565b7f496e697469616c697a61626c653a20636f6e7472616374206973206e6f74206960008201527f6e697469616c697a696e67000000000000000000000000000000000000000000602082015250565b60006168eb602b836151d9565b91506168f68261688f565b604082019050919050565b6000602082019050818103600083015261691a816168de565b9050919050565b600081905092915050565b7f416363657373436f6e74726f6c3a206163636f756e7420000000000000000000600082015250565b6000616962601783616921565b915061696d8261692c565b601782019050919050565b6000616983826151ce565b61698d8185616921565b935061699d8185602086016151ea565b80840191505092915050565b7f206973206d697373696e6720726f6c6520000000000000000000000000000000600082015250565b60006169df601183616921565b91506169ea826169a9565b601182019050919050565b6000616a0082616955565b9150616a0c8285616978565b9150616a17826169d2565b9150616a238284616978565b91508190509392505050565b600082825260208201905092915050565b6000616a4b82616084565b616a558185616a2f565b9350616a658185602086016151ea565b616a6e8161501c565b840191505092915050565b600060a082019050616a8e6000830188614e4d565b616a9b6020830187614e4d565b8181036040830152616aad8186615800565b90508181036060830152616ac18185615800565b90508181036080830152616ad58184616a40565b90509695505050505050565b600081519050616af081614f83565b92915050565b600060208284031215616b0c57616b0b614e81565b5b6000616b1a84828501616ae1565b91505092915050565b60008160e01c9050919050565b600060033d1115616b4f5760046000803e616b4c600051616b23565b90505b90565b600060443d10616bdf57616b64614e77565b60043d036004823e80513d602482011167ffffffffffffffff82111715616b8c575050616bdf565b808201805167ffffffffffffffff811115616baa5750505050616bdf565b80602083010160043d038501811115616bc7575050505050616bdf565b616bd68260200185018661505c565b82955050505050505b90565b7f455243313135353a207472616e7366657220746f206e6f6e2d4552433131353560008201527f526563656976657220696d706c656d656e746572000000000000000000000000602082015250565b6000616c3e6034836151d9565b9150616c4982616be2565b604082019050919050565b60006020820190508181036000830152616c6d81616c31565b9050919050565b7f455243313135353a204552433131353552656365697665722072656a6563746560008201527f6420746f6b656e73000000000000000000000000000000000000000000000000602082015250565b6000616cd06028836151d9565b9150616cdb82616c74565b604082019050919050565b60006020820190508181036000830152616cff81616cc3565b9050919050565b7f455243313936373a206e657720696d706c656d656e746174696f6e206973206e60008201527f6f74206120636f6e747261637400000000000000000000000000000000000000602082015250565b6000616d62602d836151d9565b9150616d6d82616d06565b604082019050919050565b60006020820190508181036000830152616d9181616d55565b9050919050565b7f5061757361626c653a206e6f7420706175736564000000000000000000000000600082015250565b6000616dce6014836151d9565b9150616dd982616d98565b602082019050919050565b60006020820190508181036000830152616dfd81616dc1565b9050919050565b600060a082019050616e196000830188614e4d565b616e266020830187614e4d565b616e336040830186614f2d565b616e406060830185614f2d565b8181036080830152616e528184616a40565b90509695505050505050565b7f5061757361626c653a2070617573656400000000000000000000000000000000600082015250565b6000616e946010836151d9565b9150616e9f82616e5e565b602082019050919050565b60006020820190508181036000830152616ec381616e87565b9050919050565b6000616ed582614eb7565b9150616ee083614eb7565b9250817fffffffffffffffffffffffffffffffffffffffffffffffffffffffffffffffff0483118215151615616f1957616f18615f7b565b5b828202905092915050565b6000616f2f82614eb7565b915060008203616f4257616f41615f7b565b5b600182039050919050565b7f537472696e67733a20686578206c656e67746820696e73756666696369656e74600082015250565b6000616f836020836151d9565b9150616f8e82616f4d565b602082019050919050565b60006020820190508181036000830152616fb281616f76565b9050919050565b7f455243313135353a206275726e20616d6f756e74206578636565647320746f7460008201527f616c537570706c79000000000000000000000000000000000000000000000000602082015250565b60006170156028836151d9565b915061702082616fb9565b604082019050919050565b6000602082019050818103600083015261704481617008565b9050919050565b7f416464726573733a2064656c65676174652063616c6c20746f206e6f6e2d636f60008201527f6e74726163740000000000000000000000000000000000000000000000000000602082015250565b60006170a76026836151d9565b91506170b28261704b565b604082019050919050565b600060208201905081810360008301526170d68161709a565b9050919050565b7f455243313135355061757361626c653a20746f6b656e207472616e736665722060008201527f7768696c65207061757365640000000000000000000000000000000000000000602082015250565b6000617139602c836151d9565b9150617144826170dd565b604082019050919050565b600060208201905081810360008301526171688161712c565b905091905056fe416464726573733a206c6f772d6c6576656c2064656c65676174652063616c6c206661696c6564a264697066735822122071ff8d40bb3ca655010d73d3dc507f1cbf590858b9e0c623a5295e55aa17e54c64736f6c634300080e0033",
  "immutableReferences": {
    "1129": [
      {
        "length": 32,
        "start": 3913
      },
      {
        "length": 32,
        "start": 4055
      },
      {
        "length": 32,
        "start": 4762
      },
      {
        "length": 32,
        "start": 4904
      },
      {
        "length": 32,
        "start": 5100
      }
    ]
  },
  "source": "// SPDX-License-Identifier: MIT\r\npragma solidity ^0.8.4;\r\n\r\nimport \"@openzeppelin/contracts-upgradeable/token/ERC1155/ERC1155Upgradeable.sol\";\r\nimport \"@openzeppelin/contracts-upgradeable/token/ERC1155/extensions/ERC1155BurnableUpgradeable.sol\";\r\nimport \"@openzeppelin/contracts-upgradeable/token/ERC1155/extensions/ERC1155PausableUpgradeable.sol\";\r\nimport \"@openzeppelin/contracts-upgradeable/access/OwnableUpgradeable.sol\";\r\nimport \"@openzeppelin/contracts-upgradeable/proxy/utils/Initializable.sol\";\r\nimport \"@openzeppelin/contracts-upgradeable/proxy/utils/UUPSUpgradeable.sol\";\r\nimport \"@openzeppelin/contracts-upgradeable/access/AccessControlUpgradeable.sol\";\r\nimport \"@openzeppelin/contracts-upgradeable/token/ERC1155/extensions/ERC1155SupplyUpgradeable.sol\";\r\n\r\n// nWonderland (nW) v1.0.0\r\n// this contract is a proxy to the profile contracta\r\n// this contract is called by a profile node to pin a node fragment to an ipfs hash\r\n// it has a function to create a profile node\r\n// it has a function to create a profile node fragment\r\n\r\ncontract nWonderlands is Initializable, ERC1155Upgradeable, ERC1155BurnableUpgradeable, ERC1155PausableUpgradeable, OwnableUpgradeable, UUPSUpgradeable, AccessControlUpgradeable, ERC1155SupplyUpgradeable {\r\n    struct Item {\r\n        bytes32[] encryptedItem;\r\n    }\r\n    event EncryptionToolsSet(address _encryptionTools);\r\n    bytes32 public constant URI_SETTER_ROLE = keccak256(\"URI_SETTER_ROLE\");\r\n    bytes32 public constant PAUSER_ROLE = keccak256(\"PAUSER_ROLE\");\r\n    bytes32 public constant MINTER_ROLE = keccak256(\"MINTER_ROLE\");\r\n    bytes32 public constant UPGRADER_ROLE = keccak256(\"UPGRADER_ROLE\");\r\n    address public ETAddress;\r\n    uint256 public itemID;\r\n    mapping (uint256 => Item) internal items;\r\n    address public ITAddress;\r\n    address public newOwner;\r\n    address public IDAddress;\r\n    event ItemTrackerSet(address _itemTracker);\r\n    mapping(uint256 => address) public itemOwners;\r\n    address public vaultAddress;\r\n    mapping(uint256 => address) public vaults;\r\n    mapping(uint256 => uint256) public vaultIDs;\r\n    mapping(uint256 => uint256) public vaultBalances;\r\n    event VaultSet(address _vault);\r\n    address public profileAddress;\r\n    mapping(uint256 => uint256) public Profiles;\r\n    mapping(uint256 => uint256) public ProfileIDs;\r\n    mapping(uint256 => uint256) public ProfileBalances;\r\n    event ProfileSet(address _profile);\r\n\r\nfunction initialize(address _profileAddress) public {\r\n        __ERC1155_init(\"https://ipfs.io/ipfs/\");\r\n        __ERC1155Burnable_init();\r\n        __ERC1155Pausable_init();\r\n        __Ownable_init();\r\n        __UUPSUpgradeable_init();\r\n        __AccessControl_init();\r\n        __ERC1155Supply_init();\r\n        _setupRole(DEFAULT_ADMIN_ROLE, msg.sender);\r\n        _setupRole(URI_SETTER_ROLE, msg.sender);\r\n        _setupRole(PAUSER_ROLE, msg.sender);\r\n        _setupRole(MINTER_ROLE, msg.sender);\r\n        _setupRole(UPGRADER_ROLE, msg.sender);\r\n        profileAddress = _profileAddress;\r\n    }\r\n    // this function creates a delegate call to the profile contract to set the encryption tools, the item tracker, the Item Distributor, and then creates a vault and then \r\n    // creates an item and sets the owner of the item to this contract and then transfers the vault to the owner of the item\r\n    function activateProfile()public{\r\n        (bool success, bytes memory result) = profileAddress.delegatecall(abi.encodeWithSignature(\"setEncryptionTools\", ETAddress));\r\n        require(success, \"Delegate call failed\");\r\n        (bool success2, bytes memory result2) = profileAddress.delegatecall(abi.encodeWithSignature(\"setItemTracker\", ITAddress));\r\n        require(success2, \"Delegate call failed\");\r\n        (bool success3, bytes memory result3) = profileAddress.delegatecall(abi.encodeWithSignature(\"setItemDistributor\", IDAddress));\r\n        require(success3, \"Delegate call failed\");\r\n        (bool success4, bytes memory result4) = profileAddress.delegatecall(abi.encodeWithSignature(\"createVault\", vaultAddress));\r\n        require(success4, \"Delegate call failed\");\r\n        (bool success5, bytes memory result5) = profileAddress.delegatecall(abi.encodeWithSignature(\"createItem\", itemID, vaultAddress));\r\n        require(success5, \"Delegate call failed\");\r\n        (bool success6, bytes memory result6) = profileAddress.delegatecall(abi.encodeWithSignature(\"setItemOwner\", itemID, address(this)));\r\n        require(success6, \"Delegate call failed\");\r\n\r\n    }\r\n            function setURI(string memory newuri) public onlyRole(URI_SETTER_ROLE) {\r\n        _setURI(newuri);\r\n    }\r\n\r\n    function pause() public onlyRole(PAUSER_ROLE) {\r\n        _pause();\r\n    }\r\n\r\n    function unpause() public onlyRole(PAUSER_ROLE) {\r\n        _unpause();\r\n    }\r\n\r\n    function mint(address account, uint256 id, uint256 amount, bytes memory data)\r\n        public\r\n        onlyRole(MINTER_ROLE)\r\n    {\r\n        _mint(account, id, amount, data);\r\n    }\r\n\r\n    function mintBatch(address to, uint256[] memory ids, uint256[] memory amounts, bytes memory data)\r\n        public\r\n        onlyRole(MINTER_ROLE)\r\n    {\r\n        _mintBatch(to, ids, amounts, data);\r\n    }\r\n\r\n    function _beforeTokenTransfer(address operator, address from, address to, uint256[] memory ids, uint256[] memory amounts, bytes memory data)\r\n        internal\r\n        whenNotPaused\r\n        override(ERC1155PausableUpgradeable, ERC1155Upgradeable, ERC1155SupplyUpgradeable)\r\n    {\r\n        super._beforeTokenTransfer(operator, from, to, ids, amounts, data);\r\n    }\r\n\r\n    function _authorizeUpgrade(address newImplementation)\r\n        internal\r\n        onlyRole(UPGRADER_ROLE)\r\n        override\r\n    {}\r\n\r\n    // The following functions are overrides required by Solidity.\r\n\r\n    function supportsInterface(bytes4 interfaceId)\r\n        public\r\n        view\r\n        override(ERC1155Upgradeable, AccessControlUpgradeable)\r\n        returns (bool)\r\n    {\r\n        return super.supportsInterface(interfaceId);\r\n    }\r\n}",
  "sourcePath": "C:\\Users\\mosle\\Documents\\GitHub\\nWonderland\\contracts\\DALI\\007_nWonderland.sol",
  "compiler": {
    "name": "solc",
    "version": "0.8.14+commit.80d49f37.Emscripten.clang"
  },
  "schemaVersion": "3.4.8",
  "updatedAt": "2022-12-09T15:56:11.763Z",
  "devdoc": {
    "kind": "dev",
    "methods": {
      "balanceOf(address,uint256)": {
        "details": "See {IERC1155-balanceOf}. Requirements: - `account` cannot be the zero address."
      },
      "balanceOfBatch(address[],uint256[])": {
        "details": "See {IERC1155-balanceOfBatch}. Requirements: - `accounts` and `ids` must have the same length."
      },
      "exists(uint256)": {
        "details": "Indicates whether any token exist with a given id, or not."
      },
      "getRoleAdmin(bytes32)": {
        "details": "Returns the admin role that controls `role`. See {grantRole} and {revokeRole}. To change a role's admin, use {_setRoleAdmin}."
      },
      "grantRole(bytes32,address)": {
        "details": "Grants `role` to `account`. If `account` had not been already granted `role`, emits a {RoleGranted} event. Requirements: - the caller must have ``role``'s admin role. May emit a {RoleGranted} event."
      },
      "hasRole(bytes32,address)": {
        "details": "Returns `true` if `account` has been granted `role`."
      },
      "isApprovedForAll(address,address)": {
        "details": "See {IERC1155-isApprovedForAll}."
      },
      "owner()": {
        "details": "Returns the address of the current owner."
      },
      "paused()": {
        "details": "Returns true if the contract is paused, and false otherwise."
      },
      "proxiableUUID()": {
        "details": "Implementation of the ERC1822 {proxiableUUID} function. This returns the storage slot used by the implementation. It is used to validate the implementation's compatibility when performing an upgrade. IMPORTANT: A proxy pointing at a proxiable contract should not be considered proxiable itself, because this risks bricking a proxy that upgrades to it, by delegating to itself until out of gas. Thus it is critical that this function revert if invoked through a proxy. This is guaranteed by the `notDelegated` modifier."
      },
      "renounceOwnership()": {
        "details": "Leaves the contract without owner. It will not be possible to call `onlyOwner` functions anymore. Can only be called by the current owner. NOTE: Renouncing ownership will leave the contract without an owner, thereby removing any functionality that is only available to the owner."
      },
      "renounceRole(bytes32,address)": {
        "details": "Revokes `role` from the calling account. Roles are often managed via {grantRole} and {revokeRole}: this function's purpose is to provide a mechanism for accounts to lose their privileges if they are compromised (such as when a trusted device is misplaced). If the calling account had been revoked `role`, emits a {RoleRevoked} event. Requirements: - the caller must be `account`. May emit a {RoleRevoked} event."
      },
      "revokeRole(bytes32,address)": {
        "details": "Revokes `role` from `account`. If `account` had been granted `role`, emits a {RoleRevoked} event. Requirements: - the caller must have ``role``'s admin role. May emit a {RoleRevoked} event."
      },
      "safeBatchTransferFrom(address,address,uint256[],uint256[],bytes)": {
        "details": "See {IERC1155-safeBatchTransferFrom}."
      },
      "safeTransferFrom(address,address,uint256,uint256,bytes)": {
        "details": "See {IERC1155-safeTransferFrom}."
      },
      "setApprovalForAll(address,bool)": {
        "details": "See {IERC1155-setApprovalForAll}."
      },
      "totalSupply(uint256)": {
        "details": "Total amount of tokens in with a given id."
      },
      "transferOwnership(address)": {
        "details": "Transfers ownership of the contract to a new account (`newOwner`). Can only be called by the current owner."
      },
      "upgradeTo(address)": {
        "details": "Upgrade the implementation of the proxy to `newImplementation`. Calls {_authorizeUpgrade}. Emits an {Upgraded} event."
      },
      "upgradeToAndCall(address,bytes)": {
        "details": "Upgrade the implementation of the proxy to `newImplementation`, and subsequently execute the function call encoded in `data`. Calls {_authorizeUpgrade}. Emits an {Upgraded} event."
      },
      "uri(uint256)": {
        "details": "See {IERC1155MetadataURI-uri}. This implementation returns the same URI for *all* token types. It relies on the token type ID substitution mechanism https://eips.ethereum.org/EIPS/eip-1155#metadata[defined in the EIP]. Clients calling this function must replace the `\\{id\\}` substring with the actual token type ID."
      }
    },
    "version": 1
  },
  "userdoc": {
    "kind": "user",
    "methods": {},
    "version": 1
  }
}