{
  "contractName": "nWonderland",
  "abi": [
    {
      "anonymous": false,
      "inputs": [
        {
          "indexed": false,
          "internalType": "address",
          "name": "previousAdmin",
          "type": "address"
        },
        {
          "indexed": false,
          "internalType": "address",
          "name": "newAdmin",
          "type": "address"
        }
      ],
      "name": "AdminChanged",
      "type": "event"
    },
    {
      "anonymous": false,
      "inputs": [
        {
          "indexed": true,
          "internalType": "address",
          "name": "account",
          "type": "address"
        },
        {
          "indexed": true,
          "internalType": "address",
          "name": "operator",
          "type": "address"
        },
        {
          "indexed": false,
          "internalType": "bool",
          "name": "approved",
          "type": "bool"
        }
      ],
      "name": "ApprovalForAll",
      "type": "event"
    },
    {
      "anonymous": false,
      "inputs": [
        {
          "indexed": true,
          "internalType": "address",
          "name": "beacon",
          "type": "address"
        }
      ],
      "name": "BeaconUpgraded",
      "type": "event"
    },
    {
      "anonymous": false,
      "inputs": [
        {
          "indexed": false,
          "internalType": "address",
          "name": "_encryptionTools",
          "type": "address"
        }
      ],
      "name": "EncryptionToolsSet",
      "type": "event"
    },
    {
      "anonymous": false,
      "inputs": [
        {
          "indexed": false,
          "internalType": "address",
          "name": "_home",
          "type": "address"
        }
      ],
      "name": "HomeSet",
      "type": "event"
    },
    {
      "anonymous": false,
      "inputs": [
        {
          "indexed": false,
          "internalType": "uint8",
          "name": "version",
          "type": "uint8"
        }
      ],
      "name": "Initialized",
      "type": "event"
    },
    {
      "anonymous": false,
      "inputs": [
        {
          "indexed": false,
          "internalType": "address",
          "name": "_itemTracker",
          "type": "address"
        }
      ],
      "name": "ItemTrackerSet",
      "type": "event"
    },
    {
      "anonymous": false,
      "inputs": [
        {
          "indexed": false,
          "internalType": "address",
          "name": "_node",
          "type": "address"
        }
      ],
      "name": "NodeSet",
      "type": "event"
    },
    {
      "anonymous": false,
      "inputs": [
        {
          "indexed": false,
          "internalType": "address",
          "name": "_office",
          "type": "address"
        }
      ],
      "name": "OfficeSet",
      "type": "event"
    },
    {
      "anonymous": false,
      "inputs": [
        {
          "indexed": true,
          "internalType": "address",
          "name": "previousOwner",
          "type": "address"
        },
        {
          "indexed": true,
          "internalType": "address",
          "name": "newOwner",
          "type": "address"
        }
      ],
      "name": "OwnershipTransferred",
      "type": "event"
    },
    {
      "anonymous": false,
      "inputs": [
        {
          "indexed": false,
          "internalType": "address",
          "name": "account",
          "type": "address"
        }
      ],
      "name": "Paused",
      "type": "event"
    },
    {
      "anonymous": false,
      "inputs": [
        {
          "indexed": false,
          "internalType": "address",
          "name": "_profile",
          "type": "address"
        }
      ],
      "name": "ProfileSet",
      "type": "event"
    },
    {
      "anonymous": false,
      "inputs": [
        {
          "indexed": false,
          "internalType": "address",
          "name": "_program",
          "type": "address"
        }
      ],
      "name": "ProgramSet",
      "type": "event"
    },
    {
      "anonymous": false,
      "inputs": [
        {
          "indexed": true,
          "internalType": "bytes32",
          "name": "role",
          "type": "bytes32"
        },
        {
          "indexed": true,
          "internalType": "bytes32",
          "name": "previousAdminRole",
          "type": "bytes32"
        },
        {
          "indexed": true,
          "internalType": "bytes32",
          "name": "newAdminRole",
          "type": "bytes32"
        }
      ],
      "name": "RoleAdminChanged",
      "type": "event"
    },
    {
      "anonymous": false,
      "inputs": [
        {
          "indexed": true,
          "internalType": "bytes32",
          "name": "role",
          "type": "bytes32"
        },
        {
          "indexed": true,
          "internalType": "address",
          "name": "account",
          "type": "address"
        },
        {
          "indexed": true,
          "internalType": "address",
          "name": "sender",
          "type": "address"
        }
      ],
      "name": "RoleGranted",
      "type": "event"
    },
    {
      "anonymous": false,
      "inputs": [
        {
          "indexed": true,
          "internalType": "bytes32",
          "name": "role",
          "type": "bytes32"
        },
        {
          "indexed": true,
          "internalType": "address",
          "name": "account",
          "type": "address"
        },
        {
          "indexed": true,
          "internalType": "address",
          "name": "sender",
          "type": "address"
        }
      ],
      "name": "RoleRevoked",
      "type": "event"
    },
    {
      "anonymous": false,
      "inputs": [
        {
          "indexed": false,
          "internalType": "address",
          "name": "_trade",
          "type": "address"
        }
      ],
      "name": "TradeSet",
      "type": "event"
    },
    {
      "anonymous": false,
      "inputs": [
        {
          "indexed": true,
          "internalType": "address",
          "name": "operator",
          "type": "address"
        },
        {
          "indexed": true,
          "internalType": "address",
          "name": "from",
          "type": "address"
        },
        {
          "indexed": true,
          "internalType": "address",
          "name": "to",
          "type": "address"
        },
        {
          "indexed": false,
          "internalType": "uint256[]",
          "name": "ids",
          "type": "uint256[]"
        },
        {
          "indexed": false,
          "internalType": "uint256[]",
          "name": "values",
          "type": "uint256[]"
        }
      ],
      "name": "TransferBatch",
      "type": "event"
    },
    {
      "anonymous": false,
      "inputs": [
        {
          "indexed": true,
          "internalType": "address",
          "name": "operator",
          "type": "address"
        },
        {
          "indexed": true,
          "internalType": "address",
          "name": "from",
          "type": "address"
        },
        {
          "indexed": true,
          "internalType": "address",
          "name": "to",
          "type": "address"
        },
        {
          "indexed": false,
          "internalType": "uint256",
          "name": "id",
          "type": "uint256"
        },
        {
          "indexed": false,
          "internalType": "uint256",
          "name": "value",
          "type": "uint256"
        }
      ],
      "name": "TransferSingle",
      "type": "event"
    },
    {
      "anonymous": false,
      "inputs": [
        {
          "indexed": false,
          "internalType": "string",
          "name": "value",
          "type": "string"
        },
        {
          "indexed": true,
          "internalType": "uint256",
          "name": "id",
          "type": "uint256"
        }
      ],
      "name": "URI",
      "type": "event"
    },
    {
      "anonymous": false,
      "inputs": [
        {
          "indexed": false,
          "internalType": "address",
          "name": "account",
          "type": "address"
        }
      ],
      "name": "Unpaused",
      "type": "event"
    },
    {
      "anonymous": false,
      "inputs": [
        {
          "indexed": true,
          "internalType": "address",
          "name": "implementation",
          "type": "address"
        }
      ],
      "name": "Upgraded",
      "type": "event"
    },
    {
      "anonymous": false,
      "inputs": [
        {
          "indexed": false,
          "internalType": "address",
          "name": "_vault",
          "type": "address"
        }
      ],
      "name": "VaultSet",
      "type": "event"
    },
    {
      "inputs": [],
      "name": "DEFAULT_ADMIN_ROLE",
      "outputs": [
        {
          "internalType": "bytes32",
          "name": "",
          "type": "bytes32"
        }
      ],
      "stateMutability": "view",
      "type": "function",
      "constant": true
    },
    {
      "inputs": [],
      "name": "ETAddress",
      "outputs": [
        {
          "internalType": "address",
          "name": "",
          "type": "address"
        }
      ],
      "stateMutability": "view",
      "type": "function",
      "constant": true
    },
    {
      "inputs": [
        {
          "internalType": "uint256",
          "name": "",
          "type": "uint256"
        }
      ],
      "name": "HomeBalances",
      "outputs": [
        {
          "internalType": "uint256",
          "name": "",
          "type": "uint256"
        }
      ],
      "stateMutability": "view",
      "type": "function",
      "constant": true
    },
    {
      "inputs": [
        {
          "internalType": "uint256",
          "name": "",
          "type": "uint256"
        }
      ],
      "name": "HomeIDs",
      "outputs": [
        {
          "internalType": "uint256",
          "name": "",
          "type": "uint256"
        }
      ],
      "stateMutability": "view",
      "type": "function",
      "constant": true
    },
    {
      "inputs": [
        {
          "internalType": "uint256",
          "name": "",
          "type": "uint256"
        }
      ],
      "name": "Homes",
      "outputs": [
        {
          "internalType": "uint256",
          "name": "",
          "type": "uint256"
        }
      ],
      "stateMutability": "view",
      "type": "function",
      "constant": true
    },
    {
      "inputs": [],
      "name": "IDAddress",
      "outputs": [
        {
          "internalType": "address",
          "name": "",
          "type": "address"
        }
      ],
      "stateMutability": "view",
      "type": "function",
      "constant": true
    },
    {
      "inputs": [],
      "name": "ITAddress",
      "outputs": [
        {
          "internalType": "address",
          "name": "",
          "type": "address"
        }
      ],
      "stateMutability": "view",
      "type": "function",
      "constant": true
    },
    {
      "inputs": [],
      "name": "MINTER_ROLE",
      "outputs": [
        {
          "internalType": "bytes32",
          "name": "",
          "type": "bytes32"
        }
      ],
      "stateMutability": "view",
      "type": "function",
      "constant": true
    },
    {
      "inputs": [
        {
          "internalType": "uint256",
          "name": "",
          "type": "uint256"
        }
      ],
      "name": "NodeBalances",
      "outputs": [
        {
          "internalType": "uint256",
          "name": "",
          "type": "uint256"
        }
      ],
      "stateMutability": "view",
      "type": "function",
      "constant": true
    },
    {
      "inputs": [
        {
          "internalType": "uint256",
          "name": "",
          "type": "uint256"
        }
      ],
      "name": "NodeIDs",
      "outputs": [
        {
          "internalType": "uint256",
          "name": "",
          "type": "uint256"
        }
      ],
      "stateMutability": "view",
      "type": "function",
      "constant": true
    },
    {
      "inputs": [
        {
          "internalType": "uint256",
          "name": "",
          "type": "uint256"
        }
      ],
      "name": "Nodes",
      "outputs": [
        {
          "internalType": "uint256",
          "name": "",
          "type": "uint256"
        }
      ],
      "stateMutability": "view",
      "type": "function",
      "constant": true
    },
    {
      "inputs": [
        {
          "internalType": "uint256",
          "name": "",
          "type": "uint256"
        }
      ],
      "name": "OfficeBalances",
      "outputs": [
        {
          "internalType": "uint256",
          "name": "",
          "type": "uint256"
        }
      ],
      "stateMutability": "view",
      "type": "function",
      "constant": true
    },
    {
      "inputs": [
        {
          "internalType": "uint256",
          "name": "",
          "type": "uint256"
        }
      ],
      "name": "OfficeIDs",
      "outputs": [
        {
          "internalType": "uint256",
          "name": "",
          "type": "uint256"
        }
      ],
      "stateMutability": "view",
      "type": "function",
      "constant": true
    },
    {
      "inputs": [
        {
          "internalType": "uint256",
          "name": "",
          "type": "uint256"
        }
      ],
      "name": "Offices",
      "outputs": [
        {
          "internalType": "uint256",
          "name": "",
          "type": "uint256"
        }
      ],
      "stateMutability": "view",
      "type": "function",
      "constant": true
    },
    {
      "inputs": [],
      "name": "PAUSER_ROLE",
      "outputs": [
        {
          "internalType": "bytes32",
          "name": "",
          "type": "bytes32"
        }
      ],
      "stateMutability": "view",
      "type": "function",
      "constant": true
    },
    {
      "inputs": [
        {
          "internalType": "uint256",
          "name": "",
          "type": "uint256"
        }
      ],
      "name": "ProfileBalances",
      "outputs": [
        {
          "internalType": "uint256",
          "name": "",
          "type": "uint256"
        }
      ],
      "stateMutability": "view",
      "type": "function",
      "constant": true
    },
    {
      "inputs": [
        {
          "internalType": "uint256",
          "name": "",
          "type": "uint256"
        }
      ],
      "name": "ProfileIDs",
      "outputs": [
        {
          "internalType": "uint256",
          "name": "",
          "type": "uint256"
        }
      ],
      "stateMutability": "view",
      "type": "function",
      "constant": true
    },
    {
      "inputs": [
        {
          "internalType": "uint256",
          "name": "",
          "type": "uint256"
        }
      ],
      "name": "Profiles",
      "outputs": [
        {
          "internalType": "uint256",
          "name": "",
          "type": "uint256"
        }
      ],
      "stateMutability": "view",
      "type": "function",
      "constant": true
    },
    {
      "inputs": [
        {
          "internalType": "uint256",
          "name": "",
          "type": "uint256"
        }
      ],
      "name": "ProgramBalances",
      "outputs": [
        {
          "internalType": "uint256",
          "name": "",
          "type": "uint256"
        }
      ],
      "stateMutability": "view",
      "type": "function",
      "constant": true
    },
    {
      "inputs": [
        {
          "internalType": "uint256",
          "name": "",
          "type": "uint256"
        }
      ],
      "name": "ProgramIDs",
      "outputs": [
        {
          "internalType": "uint256",
          "name": "",
          "type": "uint256"
        }
      ],
      "stateMutability": "view",
      "type": "function",
      "constant": true
    },
    {
      "inputs": [
        {
          "internalType": "uint256",
          "name": "",
          "type": "uint256"
        }
      ],
      "name": "Programs",
      "outputs": [
        {
          "internalType": "uint256",
          "name": "",
          "type": "uint256"
        }
      ],
      "stateMutability": "view",
      "type": "function",
      "constant": true
    },
    {
      "inputs": [
        {
          "internalType": "uint256",
          "name": "",
          "type": "uint256"
        }
      ],
      "name": "TradeBalances",
      "outputs": [
        {
          "internalType": "uint256",
          "name": "",
          "type": "uint256"
        }
      ],
      "stateMutability": "view",
      "type": "function",
      "constant": true
    },
    {
      "inputs": [
        {
          "internalType": "uint256",
          "name": "",
          "type": "uint256"
        }
      ],
      "name": "TradeIDs",
      "outputs": [
        {
          "internalType": "uint256",
          "name": "",
          "type": "uint256"
        }
      ],
      "stateMutability": "view",
      "type": "function",
      "constant": true
    },
    {
      "inputs": [
        {
          "internalType": "uint256",
          "name": "",
          "type": "uint256"
        }
      ],
      "name": "Trades",
      "outputs": [
        {
          "internalType": "uint256",
          "name": "",
          "type": "uint256"
        }
      ],
      "stateMutability": "view",
      "type": "function",
      "constant": true
    },
    {
      "inputs": [],
      "name": "UPGRADER_ROLE",
      "outputs": [
        {
          "internalType": "bytes32",
          "name": "",
          "type": "bytes32"
        }
      ],
      "stateMutability": "view",
      "type": "function",
      "constant": true
    },
    {
      "inputs": [],
      "name": "URI_SETTER_ROLE",
      "outputs": [
        {
          "internalType": "bytes32",
          "name": "",
          "type": "bytes32"
        }
      ],
      "stateMutability": "view",
      "type": "function",
      "constant": true
    },
    {
      "inputs": [
        {
          "internalType": "address",
          "name": "account",
          "type": "address"
        },
        {
          "internalType": "uint256",
          "name": "id",
          "type": "uint256"
        }
      ],
      "name": "balanceOf",
      "outputs": [
        {
          "internalType": "uint256",
          "name": "",
          "type": "uint256"
        }
      ],
      "stateMutability": "view",
      "type": "function",
      "constant": true
    },
    {
      "inputs": [
        {
          "internalType": "address[]",
          "name": "accounts",
          "type": "address[]"
        },
        {
          "internalType": "uint256[]",
          "name": "ids",
          "type": "uint256[]"
        }
      ],
      "name": "balanceOfBatch",
      "outputs": [
        {
          "internalType": "uint256[]",
          "name": "",
          "type": "uint256[]"
        }
      ],
      "stateMutability": "view",
      "type": "function",
      "constant": true
    },
    {
      "inputs": [
        {
          "internalType": "address",
          "name": "account",
          "type": "address"
        },
        {
          "internalType": "uint256",
          "name": "id",
          "type": "uint256"
        },
        {
          "internalType": "uint256",
          "name": "value",
          "type": "uint256"
        }
      ],
      "name": "burn",
      "outputs": [],
      "stateMutability": "nonpayable",
      "type": "function"
    },
    {
      "inputs": [
        {
          "internalType": "address",
          "name": "account",
          "type": "address"
        },
        {
          "internalType": "uint256[]",
          "name": "ids",
          "type": "uint256[]"
        },
        {
          "internalType": "uint256[]",
          "name": "values",
          "type": "uint256[]"
        }
      ],
      "name": "burnBatch",
      "outputs": [],
      "stateMutability": "nonpayable",
      "type": "function"
    },
    {
      "inputs": [
        {
          "internalType": "uint256",
          "name": "id",
          "type": "uint256"
        }
      ],
      "name": "exists",
      "outputs": [
        {
          "internalType": "bool",
          "name": "",
          "type": "bool"
        }
      ],
      "stateMutability": "view",
      "type": "function",
      "constant": true
    },
    {
      "inputs": [
        {
          "internalType": "bytes32",
          "name": "role",
          "type": "bytes32"
        }
      ],
      "name": "getRoleAdmin",
      "outputs": [
        {
          "internalType": "bytes32",
          "name": "",
          "type": "bytes32"
        }
      ],
      "stateMutability": "view",
      "type": "function",
      "constant": true
    },
    {
      "inputs": [
        {
          "internalType": "bytes32",
          "name": "role",
          "type": "bytes32"
        },
        {
          "internalType": "address",
          "name": "account",
          "type": "address"
        }
      ],
      "name": "grantRole",
      "outputs": [],
      "stateMutability": "nonpayable",
      "type": "function"
    },
    {
      "inputs": [
        {
          "internalType": "bytes32",
          "name": "role",
          "type": "bytes32"
        },
        {
          "internalType": "address",
          "name": "account",
          "type": "address"
        }
      ],
      "name": "hasRole",
      "outputs": [
        {
          "internalType": "bool",
          "name": "",
          "type": "bool"
        }
      ],
      "stateMutability": "view",
      "type": "function",
      "constant": true
    },
    {
      "inputs": [],
      "name": "homeAddress",
      "outputs": [
        {
          "internalType": "address",
          "name": "",
          "type": "address"
        }
      ],
      "stateMutability": "view",
      "type": "function",
      "constant": true
    },
    {
      "inputs": [
        {
          "internalType": "address",
          "name": "account",
          "type": "address"
        },
        {
          "internalType": "address",
          "name": "operator",
          "type": "address"
        }
      ],
      "name": "isApprovedForAll",
      "outputs": [
        {
          "internalType": "bool",
          "name": "",
          "type": "bool"
        }
      ],
      "stateMutability": "view",
      "type": "function",
      "constant": true
    },
    {
      "inputs": [],
      "name": "itemID",
      "outputs": [
        {
          "internalType": "uint256",
          "name": "",
          "type": "uint256"
        }
      ],
      "stateMutability": "view",
      "type": "function",
      "constant": true
    },
    {
      "inputs": [
        {
          "internalType": "uint256",
          "name": "",
          "type": "uint256"
        }
      ],
      "name": "itemOwners",
      "outputs": [
        {
          "internalType": "address",
          "name": "",
          "type": "address"
        }
      ],
      "stateMutability": "view",
      "type": "function",
      "constant": true
    },
    {
      "inputs": [],
      "name": "newOwner",
      "outputs": [
        {
          "internalType": "address",
          "name": "",
          "type": "address"
        }
      ],
      "stateMutability": "view",
      "type": "function",
      "constant": true
    },
    {
      "inputs": [],
      "name": "nodeAddress",
      "outputs": [
        {
          "internalType": "address",
          "name": "",
          "type": "address"
        }
      ],
      "stateMutability": "view",
      "type": "function",
      "constant": true
    },
    {
      "inputs": [],
      "name": "officeAddress",
      "outputs": [
        {
          "internalType": "address",
          "name": "",
          "type": "address"
        }
      ],
      "stateMutability": "view",
      "type": "function",
      "constant": true
    },
    {
      "inputs": [],
      "name": "owner",
      "outputs": [
        {
          "internalType": "address",
          "name": "",
          "type": "address"
        }
      ],
      "stateMutability": "view",
      "type": "function",
      "constant": true
    },
    {
      "inputs": [],
      "name": "paused",
      "outputs": [
        {
          "internalType": "bool",
          "name": "",
          "type": "bool"
        }
      ],
      "stateMutability": "view",
      "type": "function",
      "constant": true
    },
    {
      "inputs": [],
      "name": "profileAddress",
      "outputs": [
        {
          "internalType": "address",
          "name": "",
          "type": "address"
        }
      ],
      "stateMutability": "view",
      "type": "function",
      "constant": true
    },
    {
      "inputs": [],
      "name": "programAddress",
      "outputs": [
        {
          "internalType": "address",
          "name": "",
          "type": "address"
        }
      ],
      "stateMutability": "view",
      "type": "function",
      "constant": true
    },
    {
      "inputs": [],
      "name": "proxiableUUID",
      "outputs": [
        {
          "internalType": "bytes32",
          "name": "",
          "type": "bytes32"
        }
      ],
      "stateMutability": "view",
      "type": "function",
      "constant": true
    },
    {
      "inputs": [],
      "name": "renounceOwnership",
      "outputs": [],
      "stateMutability": "nonpayable",
      "type": "function"
    },
    {
      "inputs": [
        {
          "internalType": "bytes32",
          "name": "role",
          "type": "bytes32"
        },
        {
          "internalType": "address",
          "name": "account",
          "type": "address"
        }
      ],
      "name": "renounceRole",
      "outputs": [],
      "stateMutability": "nonpayable",
      "type": "function"
    },
    {
      "inputs": [
        {
          "internalType": "bytes32",
          "name": "role",
          "type": "bytes32"
        },
        {
          "internalType": "address",
          "name": "account",
          "type": "address"
        }
      ],
      "name": "revokeRole",
      "outputs": [],
      "stateMutability": "nonpayable",
      "type": "function"
    },
    {
      "inputs": [
        {
          "internalType": "address",
          "name": "from",
          "type": "address"
        },
        {
          "internalType": "address",
          "name": "to",
          "type": "address"
        },
        {
          "internalType": "uint256[]",
          "name": "ids",
          "type": "uint256[]"
        },
        {
          "internalType": "uint256[]",
          "name": "amounts",
          "type": "uint256[]"
        },
        {
          "internalType": "bytes",
          "name": "data",
          "type": "bytes"
        }
      ],
      "name": "safeBatchTransferFrom",
      "outputs": [],
      "stateMutability": "nonpayable",
      "type": "function"
    },
    {
      "inputs": [
        {
          "internalType": "address",
          "name": "from",
          "type": "address"
        },
        {
          "internalType": "address",
          "name": "to",
          "type": "address"
        },
        {
          "internalType": "uint256",
          "name": "id",
          "type": "uint256"
        },
        {
          "internalType": "uint256",
          "name": "amount",
          "type": "uint256"
        },
        {
          "internalType": "bytes",
          "name": "data",
          "type": "bytes"
        }
      ],
      "name": "safeTransferFrom",
      "outputs": [],
      "stateMutability": "nonpayable",
      "type": "function"
    },
    {
      "inputs": [
        {
          "internalType": "address",
          "name": "operator",
          "type": "address"
        },
        {
          "internalType": "bool",
          "name": "approved",
          "type": "bool"
        }
      ],
      "name": "setApprovalForAll",
      "outputs": [],
      "stateMutability": "nonpayable",
      "type": "function"
    },
    {
      "inputs": [
        {
          "internalType": "uint256",
          "name": "id",
          "type": "uint256"
        }
      ],
      "name": "totalSupply",
      "outputs": [
        {
          "internalType": "uint256",
          "name": "",
          "type": "uint256"
        }
      ],
      "stateMutability": "view",
      "type": "function",
      "constant": true
    },
    {
      "inputs": [],
      "name": "tradeAddress",
      "outputs": [
        {
          "internalType": "address",
          "name": "",
          "type": "address"
        }
      ],
      "stateMutability": "view",
      "type": "function",
      "constant": true
    },
    {
      "inputs": [
        {
          "internalType": "address",
          "name": "newOwner",
          "type": "address"
        }
      ],
      "name": "transferOwnership",
      "outputs": [],
      "stateMutability": "nonpayable",
      "type": "function"
    },
    {
      "inputs": [
        {
          "internalType": "address",
          "name": "newImplementation",
          "type": "address"
        }
      ],
      "name": "upgradeTo",
      "outputs": [],
      "stateMutability": "nonpayable",
      "type": "function"
    },
    {
      "inputs": [
        {
          "internalType": "address",
          "name": "newImplementation",
          "type": "address"
        },
        {
          "internalType": "bytes",
          "name": "data",
          "type": "bytes"
        }
      ],
      "name": "upgradeToAndCall",
      "outputs": [],
      "stateMutability": "payable",
      "type": "function",
      "payable": true
    },
    {
      "inputs": [
        {
          "internalType": "uint256",
          "name": "",
          "type": "uint256"
        }
      ],
      "name": "uri",
      "outputs": [
        {
          "internalType": "string",
          "name": "",
          "type": "string"
        }
      ],
      "stateMutability": "view",
      "type": "function",
      "constant": true
    },
    {
      "inputs": [],
      "name": "vaultAddress",
      "outputs": [
        {
          "internalType": "address",
          "name": "",
          "type": "address"
        }
      ],
      "stateMutability": "view",
      "type": "function",
      "constant": true
    },
    {
      "inputs": [
        {
          "internalType": "uint256",
          "name": "",
          "type": "uint256"
        }
      ],
      "name": "vaultBalances",
      "outputs": [
        {
          "internalType": "uint256",
          "name": "",
          "type": "uint256"
        }
      ],
      "stateMutability": "view",
      "type": "function",
      "constant": true
    },
    {
      "inputs": [
        {
          "internalType": "uint256",
          "name": "",
          "type": "uint256"
        }
      ],
      "name": "vaultIDs",
      "outputs": [
        {
          "internalType": "uint256",
          "name": "",
          "type": "uint256"
        }
      ],
      "stateMutability": "view",
      "type": "function",
      "constant": true
    },
    {
      "inputs": [
        {
          "internalType": "uint256",
          "name": "",
          "type": "uint256"
        }
      ],
      "name": "vaults",
      "outputs": [
        {
          "internalType": "address",
          "name": "",
          "type": "address"
        }
      ],
      "stateMutability": "view",
      "type": "function",
      "constant": true
    },
    {
      "inputs": [
        {
          "internalType": "address",
          "name": "_profileAddress",
          "type": "address"
        }
      ],
      "name": "initialize",
      "outputs": [],
      "stateMutability": "nonpayable",
      "type": "function"
    },
    {
      "inputs": [],
      "name": "activateProfile",
      "outputs": [],
      "stateMutability": "nonpayable",
      "type": "function"
    },
    {
      "inputs": [
        {
          "internalType": "string",
          "name": "newuri",
          "type": "string"
        }
      ],
      "name": "setURI",
      "outputs": [],
      "stateMutability": "nonpayable",
      "type": "function"
    },
    {
      "inputs": [],
      "name": "pause",
      "outputs": [],
      "stateMutability": "nonpayable",
      "type": "function"
    },
    {
      "inputs": [],
      "name": "unpause",
      "outputs": [],
      "stateMutability": "nonpayable",
      "type": "function"
    },
    {
      "inputs": [
        {
          "internalType": "address",
          "name": "account",
          "type": "address"
        },
        {
          "internalType": "uint256",
          "name": "id",
          "type": "uint256"
        },
        {
          "internalType": "uint256",
          "name": "amount",
          "type": "uint256"
        },
        {
          "internalType": "bytes",
          "name": "data",
          "type": "bytes"
        }
      ],
      "name": "mint",
      "outputs": [],
      "stateMutability": "nonpayable",
      "type": "function"
    },
    {
      "inputs": [
        {
          "internalType": "address",
          "name": "to",
          "type": "address"
        },
        {
          "internalType": "uint256[]",
          "name": "ids",
          "type": "uint256[]"
        },
        {
          "internalType": "uint256[]",
          "name": "amounts",
          "type": "uint256[]"
        },
        {
          "internalType": "bytes",
          "name": "data",
          "type": "bytes"
        }
      ],
      "name": "mintBatch",
      "outputs": [],
      "stateMutability": "nonpayable",
      "type": "function"
    },
    {
      "inputs": [
        {
          "internalType": "bytes4",
          "name": "interfaceId",
          "type": "bytes4"
        }
      ],
      "name": "supportsInterface",
      "outputs": [
        {
          "internalType": "bool",
          "name": "",
          "type": "bool"
        }
      ],
      "stateMutability": "view",
      "type": "function",
      "constant": true
    }
  ],
  "bytecode": "0x60a06040523060805234801561001457600080fd5b5060805161430361004c60003960008181611127015281816111670152818161135001528181611390015261141f01526143036000f3fe6080604052600436106104035760003560e01c8063731133e911610213578063d4ee1d9011610123578063f0feff05116100ab578063f455334e1161007a578063f455334e14610ddc578063f5298aca14610dfd578063f57d85af14610e1d578063f629ad3014610e3e578063f72c0d8b14610e5f57600080fd5b8063f0feff0514610d40578063f242432a14610d6e578063f2fde38b14610d8e578063f36039c714610dae57600080fd5b8063d811215e116100f2578063d811215e14610c58578063de1d019b14610c86578063de8bfd5514610cb4578063e63ab1e914610cd5578063e985e9c514610cf757600080fd5b8063d4ee1d9014610bc7578063d539139314610be8578063d547741f14610c0a578063d69f5c4a14610c2a57600080fd5b80639831e9e7116101a6578063a83733a411610175578063a83733a414610afc578063ad332ae914610b2a578063bd85b03914610b58578063c4d66de814610b86578063d0d019b014610ba657600080fd5b80639831e9e714610a84578063a217fddf14610a99578063a22cb46514610aae578063a523f76814610ace57600080fd5b80638c64ea4a116101e25780638c64ea4a146109e05780638da5cb5b14610a1757806391d1485414610a3657806393dba69214610a5657600080fd5b8063731133e9146109495780637f345710146109695780638456cb591461099d5780638544246d146109b257600080fd5b8063430bf08a1161031957806352d1902d116102a1578063651b31bd11610270578063651b31bd1461089757806367220f59146108c55780636b20c454146108f35780636c167e0314610913578063715018a61461093457600080fd5b806352d1902d1461080e57806355da1e96146108235780635c975abb1461085157806362b68e821461086957600080fd5b80634cea965e116102e85780634cea965e146107425780634e1273f4146107705780634f1ef2861461079d5780634f558e79146107b05780634f5b5d1a146107e057600080fd5b8063430bf08a146106b257806343cdef60146106d357806349daca7a146106ea5780634a2e30bb1461070b57600080fd5b806318385f481161039c5780632eb2c2d61161036b5780632eb2c2d61461061d5780632f2ff15d1461063d57806336568abe1461065d5780633659cfe61461067d5780633f4ba83a1461069d57600080fd5b806318385f481461057d5780631f7fdffa146105ab578063248a9ca3146105cb5780632aa8481f146105fc57600080fd5b80630432e238116103d85780630432e238146104c657806309260b23146104f45780630e89341c14610522578063144557201461054f57600080fd5b806249192014610408578062fdd58e1461044657806301ffc9a71461047457806302fe5305146104a4575b600080fd5b34801561041457600080fd5b5061022954610429906001600160a01b031681565b6040516001600160a01b0390911681526020015b60405180910390f35b34801561045257600080fd5b506104666104613660046134d2565b610e93565b60405190815260200161043d565b34801561048057600080fd5b5061049461048f366004613512565b610f2b565b604051901515815260200161043d565b3480156104b057600080fd5b506104c46104bf3660046135ce565b610f3c565b005b3480156104d257600080fd5b506104666104e136600461361e565b6102496020526000908152604090205481565b34801561050057600080fd5b5061046661050f36600461361e565b6102376020526000908152604090205481565b34801561052e57600080fd5b5061054261053d36600461361e565b610f73565b60405161043d919061368f565b34801561055b57600080fd5b5061046661056a36600461361e565b6102446020526000908152604090205481565b34801561058957600080fd5b5061046661059836600461361e565b6102476020526000908152604090205481565b3480156105b757600080fd5b506104c46105c6366004613756565b611007565b3480156105d757600080fd5b506104666105e636600461361e565b60009081526101c3602052604090206001015490565b34801561060857600080fd5b5061023e54610429906001600160a01b031681565b34801561062957600080fd5b506104c46106383660046137ee565b611032565b34801561064957600080fd5b506104c4610658366004613897565b611077565b34801561066957600080fd5b506104c4610678366004613897565b6110a2565b34801561068957600080fd5b506104c46106983660046138c3565b61111c565b3480156106a957600080fd5b506104c46111fc565b3480156106be57600080fd5b5061022e54610429906001600160a01b031681565b3480156106df57600080fd5b506104666102275481565b3480156106f657600080fd5b5061024654610429906001600160a01b031681565b34801561071757600080fd5b5061042961072636600461361e565b61022d602052600090815260409020546001600160a01b031681565b34801561074e57600080fd5b5061046661075d36600461361e565b6102336020526000908152604090205481565b34801561077c57600080fd5b5061079061078b3660046138de565b61121c565b60405161043d91906139e3565b6104c46107ab3660046139f6565b611345565b3480156107bc57600080fd5b506104946107cb36600461361e565b60009081526101f56020526040902054151590565b3480156107ec57600080fd5b506104666107fb36600461361e565b6102416020526000908152604090205481565b34801561081a57600080fd5b50610466611412565b34801561082f57600080fd5b5061046661083e36600461361e565b6102396020526000908152604090205481565b34801561085d57600080fd5b5060c95460ff16610494565b34801561087557600080fd5b5061046661088436600461361e565b61023b6020526000908152604090205481565b3480156108a357600080fd5b506104666108b236600461361e565b6102356020526000908152604090205481565b3480156108d157600080fd5b506104666108e036600461361e565b61023c6020526000908152604090205481565b3480156108ff57600080fd5b506104c461090e366004613a39565b6114c6565b34801561091f57600080fd5b5061023254610429906001600160a01b031681565b34801561094057600080fd5b506104c4611509565b34801561095557600080fd5b506104c4610964366004613aac565b61151d565b34801561097557600080fd5b506104667f7804d923f43a17d325d77e781528e0793b2edd9890ab45fc64efd7b4b427744c81565b3480156109a957600080fd5b506104c4611541565b3480156109be57600080fd5b506104666109cd36600461361e565b6102406020526000908152604090205481565b3480156109ec57600080fd5b506104296109fb36600461361e565b61022f602052600090815260409020546001600160a01b031681565b348015610a2357600080fd5b5061012d546001600160a01b0316610429565b348015610a4257600080fd5b50610494610a51366004613897565b611561565b348015610a6257600080fd5b50610466610a7136600461361e565b6102486020526000908152604090205481565b348015610a9057600080fd5b506104c461158d565b348015610aa557600080fd5b50610466600081565b348015610aba57600080fd5b506104c4610ac9366004613b00565b611a18565b348015610ada57600080fd5b50610466610ae936600461361e565b6102456020526000908152604090205481565b348015610b0857600080fd5b50610466610b1736600461361e565b61023f6020526000908152604090205481565b348015610b3657600080fd5b50610466610b4536600461361e565b6102436020526000908152604090205481565b348015610b6457600080fd5b50610466610b7336600461361e565b60009081526101f5602052604090205490565b348015610b9257600080fd5b506104c4610ba13660046138c3565b611a23565b348015610bb257600080fd5b5061024254610429906001600160a01b031681565b348015610bd357600080fd5b5061022b54610429906001600160a01b031681565b348015610bf457600080fd5b506104666000805160206142ae83398151915281565b348015610c1657600080fd5b506104c4610c25366004613897565b611b3b565b348015610c3657600080fd5b50610466610c4536600461361e565b6102386020526000908152604090205481565b348015610c6457600080fd5b50610466610c7336600461361e565b61023d6020526000908152604090205481565b348015610c9257600080fd5b50610466610ca136600461361e565b6102306020526000908152604090205481565b348015610cc057600080fd5b5061022c54610429906001600160a01b031681565b348015610ce157600080fd5b5061046660008051602061426783398151915281565b348015610d0357600080fd5b50610494610d12366004613b3c565b6001600160a01b03918216600090815260666020908152604080832093909416825291909152205460ff1690565b348015610d4c57600080fd5b50610466610d5b36600461361e565b6102316020526000908152604090205481565b348015610d7a57600080fd5b506104c4610d89366004613b66565b611b61565b348015610d9a57600080fd5b506104c4610da93660046138c3565b611ba6565b348015610dba57600080fd5b50610466610dc936600461361e565b6102346020526000908152604090205481565b348015610de857600080fd5b5061023a54610429906001600160a01b031681565b348015610e0957600080fd5b506104c4610e18366004613bca565b611c1c565b348015610e2957600080fd5b5061022a54610429906001600160a01b031681565b348015610e4a57600080fd5b5061023654610429906001600160a01b031681565b348015610e6b57600080fd5b506104667f189ab7a9244df0848122154315af71fe140f3db0fe014031783b0946b8c9d2e381565b60006001600160a01b038316610f035760405162461bcd60e51b815260206004820152602a60248201527f455243313135353a2061646472657373207a65726f206973206e6f742061207660448201526930b634b21037bbb732b960b11b60648201526084015b60405180910390fd5b5060009081526065602090815260408083206001600160a01b03949094168352929052205490565b6000610f3682611c5f565b92915050565b7f7804d923f43a17d325d77e781528e0793b2edd9890ab45fc64efd7b4b427744c610f6681611c84565b610f6f82611c8e565b5050565b606060678054610f8290613bfd565b80601f0160208091040260200160405190810160405280929190818152602001828054610fae90613bfd565b8015610ffb5780601f10610fd057610100808354040283529160200191610ffb565b820191906000526020600020905b815481529060010190602001808311610fde57829003601f168201915b50505050509050919050565b6000805160206142ae83398151915261101f81611c84565b61102b85858585611ca1565b5050505050565b6001600160a01b03851633148061104e575061104e8533610d12565b61106a5760405162461bcd60e51b8152600401610efa90613c38565b61102b8585858585611dfc565b60008281526101c3602052604090206001015461109381611c84565b61109d8383611fa9565b505050565b6001600160a01b03811633146111125760405162461bcd60e51b815260206004820152602f60248201527f416363657373436f6e74726f6c3a2063616e206f6e6c792072656e6f756e636560448201526e103937b632b9903337b91039b2b63360891b6064820152608401610efa565b610f6f8282612030565b306001600160a01b037f00000000000000000000000000000000000000000000000000000000000000001614156111655760405162461bcd60e51b8152600401610efa90613c86565b7f00000000000000000000000000000000000000000000000000000000000000006001600160a01b03166111ae600080516020614247833981519152546001600160a01b031690565b6001600160a01b0316146111d45760405162461bcd60e51b8152600401610efa90613cd2565b6111dd81612098565b604080516000808252602082019092526111f9918391906120c2565b50565b60008051602061426783398151915261121481611c84565b6111f961223c565b606081518351146112815760405162461bcd60e51b815260206004820152602960248201527f455243313135353a206163636f756e747320616e6420696473206c656e677468604482015268040dad2e6dac2e8c6d60bb1b6064820152608401610efa565b600083516001600160401b0381111561129c5761129c61352f565b6040519080825280602002602001820160405280156112c5578160200160208202803683370190505b50905060005b845181101561133d576113108582815181106112e9576112e9613d1e565b602002602001015185838151811061130357611303613d1e565b6020026020010151610e93565b82828151811061132257611322613d1e565b602090810291909101015261133681613d4a565b90506112cb565b509392505050565b306001600160a01b037f000000000000000000000000000000000000000000000000000000000000000016141561138e5760405162461bcd60e51b8152600401610efa90613c86565b7f00000000000000000000000000000000000000000000000000000000000000006001600160a01b03166113d7600080516020614247833981519152546001600160a01b031690565b6001600160a01b0316146113fd5760405162461bcd60e51b8152600401610efa90613cd2565b61140682612098565b610f6f828260016120c2565b6000306001600160a01b037f000000000000000000000000000000000000000000000000000000000000000016146114b25760405162461bcd60e51b815260206004820152603860248201527f555550535570677261646561626c653a206d757374206e6f742062652063616c60448201527f6c6564207468726f7567682064656c656761746563616c6c00000000000000006064820152608401610efa565b506000805160206142478339815191525b90565b6001600160a01b0383163314806114e257506114e28333610d12565b6114fe5760405162461bcd60e51b8152600401610efa90613c38565b61109d83838361228e565b61151161242f565b61151b600061248a565b565b6000805160206142ae83398151915261153581611c84565b61102b858585856124dd565b60008051602061426783398151915261155981611c84565b6111f96125c8565b60009182526101c3602090815260408084206001600160a01b0393909316845291905290205460ff1690565b61023254610229546040516001600160a01b0391821660248201526000928392169060440160408051601f198184030181529181526020820180516001600160e01b0316630966b19160e41b179052516115e79190613d65565b600060405180830381855af49150503d8060008114611622576040519150601f19603f3d011682016040523d82523d6000602084013e611627565b606091505b5091509150816116495760405162461bcd60e51b8152600401610efa90613d81565b6102325461022a546040516001600160a01b0391821660248201526000928392169060440160408051601f198184030181529181526020820180516001600160e01b0316631243b79160e31b179052516116a39190613d65565b600060405180830381855af49150503d80600081146116de576040519150601f19603f3d011682016040523d82523d6000602084013e6116e3565b606091505b5091509150816117055760405162461bcd60e51b8152600401610efa90613d81565b6102325461022c546040516001600160a01b0391821660248201526000928392169060440160408051601f198184030181529181526020820180516001600160e01b0316630e686ca960e11b1790525161175f9190613d65565b600060405180830381855af49150503d806000811461179a576040519150601f19603f3d011682016040523d82523d6000602084013e61179f565b606091505b5091509150816117c15760405162461bcd60e51b8152600401610efa90613d81565b6102325461022e546040516001600160a01b0391821660248201526000928392169060440160408051601f198184030181529181526020820180516001600160e01b0316631b36115f60e01b1790525161181b9190613d65565b600060405180830381855af49150503d8060008114611856576040519150601f19603f3d011682016040523d82523d6000602084013e61185b565b606091505b50915091508161187d5760405162461bcd60e51b8152600401610efa90613d81565b610232546102275461022e5460405160248101929092526001600160a01b039081166044830152600092839291169060640160408051601f198184030181529181526020820180516001600160e01b031663bccb9fbf60e01b179052516118e49190613d65565b600060405180830381855af49150503d806000811461191f576040519150601f19603f3d011682016040523d82523d6000602084013e611924565b606091505b5091509150816119465760405162461bcd60e51b8152600401610efa90613d81565b6102325461022754604051602481019190915230604482015260009182916001600160a01b039091169060640160408051601f198184030181529181526020820180516001600160e01b031663165edcbb60e01b179052516119a89190613d65565b600060405180830381855af49150503d80600081146119e3576040519150601f19603f3d011682016040523d82523d6000602084013e6119e8565b606091505b509150915081611a0a5760405162461bcd60e51b8152600401610efa90613d81565b505050505050505050505050565b610f6f338383612605565b611a596040518060400160405280601581526020017468747470733a2f2f697066732e696f2f697066732f60581b8152506126e6565b611a61612716565b611a6961273d565b611a7161276c565b611a79612716565b611a81612716565b611a89612716565b611a9460003361279b565b611abe7f7804d923f43a17d325d77e781528e0793b2edd9890ab45fc64efd7b4b427744c3361279b565b611ad66000805160206142678339815191523361279b565b611aee6000805160206142ae8339815191523361279b565b611b187f189ab7a9244df0848122154315af71fe140f3db0fe014031783b0946b8c9d2e33361279b565b61023280546001600160a01b0319166001600160a01b0392909216919091179055565b60008281526101c36020526040902060010154611b5781611c84565b61109d8383612030565b6001600160a01b038516331480611b7d5750611b7d8533610d12565b611b995760405162461bcd60e51b8152600401610efa90613c38565b61102b85858585856127a5565b611bae61242f565b6001600160a01b038116611c135760405162461bcd60e51b815260206004820152602660248201527f4f776e61626c653a206e6577206f776e657220697320746865207a65726f206160448201526564647265737360d01b6064820152608401610efa565b6111f98161248a565b6001600160a01b038316331480611c385750611c388333610d12565b611c545760405162461bcd60e51b8152600401610efa90613c38565b61109d8383836128e1565b60006001600160e01b03198216637965db0b60e01b1480610f365750610f36826129fd565b6111f98133612a4d565b8051610f6f90606790602084019061341d565b6001600160a01b038416611cc75760405162461bcd60e51b8152600401610efa90613daf565b8151835114611ce85760405162461bcd60e51b8152600401610efa90613df0565b33611cf881600087878787612aa6565b60005b8451811015611d9457838181518110611d1657611d16613d1e565b602002602001015160656000878481518110611d3457611d34613d1e565b602002602001015181526020019081526020016000206000886001600160a01b03166001600160a01b031681526020019081526020016000206000828254611d7c9190613e38565b90915550819050611d8c81613d4a565b915050611cfb565b50846001600160a01b031660006001600160a01b0316826001600160a01b03167f4a39dc06d4c0dbc64b70af90fd698a233a518aa5d07e595d983b8c0526c8f7fb8787604051611de5929190613e50565b60405180910390a461102b81600087878787612abc565b8151835114611e1d5760405162461bcd60e51b8152600401610efa90613df0565b6001600160a01b038416611e435760405162461bcd60e51b8152600401610efa90613e75565b33611e52818787878787612aa6565b60005b8451811015611f3b576000858281518110611e7257611e72613d1e565b602002602001015190506000858381518110611e9057611e90613d1e565b60209081029190910181015160008481526065835260408082206001600160a01b038e168352909352919091205490915081811015611ee15760405162461bcd60e51b8152600401610efa90613eba565b60008381526065602090815260408083206001600160a01b038e8116855292528083208585039055908b16825281208054849290611f20908490613e38565b9250508190555050505080611f3490613d4a565b9050611e55565b50846001600160a01b0316866001600160a01b0316826001600160a01b03167f4a39dc06d4c0dbc64b70af90fd698a233a518aa5d07e595d983b8c0526c8f7fb8787604051611f8b929190613e50565b60405180910390a4611fa1818787878787612abc565b505050505050565b611fb38282611561565b610f6f5760008281526101c3602090815260408083206001600160a01b03851684529091529020805460ff19166001179055611fec3390565b6001600160a01b0316816001600160a01b0316837f2f8788117e7eff1d82e926ec794901d17c78024a50270940304540a733656f0d60405160405180910390a45050565b61203a8282611561565b15610f6f5760008281526101c3602090815260408083206001600160a01b0385168085529252808320805460ff1916905551339285917ff6391f5c32d9c69d2a47ea670b442974b53935d1edc7fd64eb21e047a839171b9190a45050565b7f189ab7a9244df0848122154315af71fe140f3db0fe014031783b0946b8c9d2e3610f6f81611c84565b7f4910fdfa16fed3260ed0e7147f7cc6da11a60208b5b9406d12a635614ffd91435460ff16156120f55761109d83612c27565b826001600160a01b03166352d1902d6040518163ffffffff1660e01b815260040160206040518083038186803b15801561212e57600080fd5b505afa92505050801561215e575060408051601f3d908101601f1916820190925261215b91810190613f04565b60015b6121c15760405162461bcd60e51b815260206004820152602e60248201527f45524331393637557067726164653a206e657720696d706c656d656e7461746960448201526d6f6e206973206e6f74205555505360901b6064820152608401610efa565b60008051602061424783398151915281146122305760405162461bcd60e51b815260206004820152602960248201527f45524331393637557067726164653a20756e737570706f727465642070726f786044820152681a58589b195555525160ba1b6064820152608401610efa565b5061109d838383612cc3565b612244612ce8565b60c9805460ff191690557f5db9ee0a495bf2e6ff9c91a7834c1ba4fdd244a5e8aa4e537bd38aeae4b073aa335b6040516001600160a01b03909116815260200160405180910390a1565b6001600160a01b0383166122b45760405162461bcd60e51b8152600401610efa90613f1d565b80518251146122d55760405162461bcd60e51b8152600401610efa90613df0565b60003390506122f881856000868660405180602001604052806000815250612aa6565b60005b83518110156123c057600084828151811061231857612318613d1e565b60200260200101519050600084838151811061233657612336613d1e565b60209081029190910181015160008481526065835260408082206001600160a01b038c1683529093529190912054909150818110156123875760405162461bcd60e51b8152600401610efa90613f60565b60009283526065602090815260408085206001600160a01b038b16865290915290922091039055806123b881613d4a565b9150506122fb565b5060006001600160a01b0316846001600160a01b0316826001600160a01b03167f4a39dc06d4c0dbc64b70af90fd698a233a518aa5d07e595d983b8c0526c8f7fb8686604051612411929190613e50565b60405180910390a46040805160208101909152600090525b50505050565b61012d546001600160a01b0316331461151b5760405162461bcd60e51b815260206004820181905260248201527f4f776e61626c653a2063616c6c6572206973206e6f7420746865206f776e65726044820152606401610efa565b61012d80546001600160a01b038381166001600160a01b0319831681179093556040519116919082907f8be0079c531659141344cd1fd0a4f28419497f9722a3daafe3b4186f6b6457e090600090a35050565b6001600160a01b0384166125035760405162461bcd60e51b8152600401610efa90613daf565b33600061250f85612d31565b9050600061251c85612d31565b905061252d83600089858589612aa6565b60008681526065602090815260408083206001600160a01b038b1684529091528120805487929061255f908490613e38565b909155505060408051878152602081018790526001600160a01b03808a1692600092918716917fc3d58168c5ae7397731d063d5bbf3d657854427343f4c083240f7aacaa2d0f62910160405180910390a46125bf83600089898989612d7c565b50505050505050565b6125d0612e46565b60c9805460ff191660011790557f62e78cea01bee320cd4e420270b5ea74000d11b0c9f74754ebdbfc544b05a2586122713390565b816001600160a01b0316836001600160a01b031614156126795760405162461bcd60e51b815260206004820152602960248201527f455243313135353a2073657474696e6720617070726f76616c20737461747573604482015268103337b91039b2b63360b91b6064820152608401610efa565b6001600160a01b03838116600081815260666020908152604080832094871680845294825291829020805460ff191686151590811790915591519182527f17307eab39ab6107e8899845ad3d59bd9653f200f220920489ca2b5937696c31910160405180910390a3505050565b600054610100900460ff1661270d5760405162461bcd60e51b8152600401610efa90613fa4565b6111f981612e8c565b600054610100900460ff1661151b5760405162461bcd60e51b8152600401610efa90613fa4565b600054610100900460ff166127645760405162461bcd60e51b8152600401610efa90613fa4565b61151b612ebc565b600054610100900460ff166127935760405162461bcd60e51b8152600401610efa90613fa4565b61151b612eef565b610f6f8282611fa9565b6001600160a01b0384166127cb5760405162461bcd60e51b8152600401610efa90613e75565b3360006127d785612d31565b905060006127e485612d31565b90506127f4838989858589612aa6565b60008681526065602090815260408083206001600160a01b038c168452909152902054858110156128375760405162461bcd60e51b8152600401610efa90613eba565b60008781526065602090815260408083206001600160a01b038d8116855292528083208985039055908a16825281208054889290612876908490613e38565b909155505060408051888152602081018890526001600160a01b03808b16928c821692918816917fc3d58168c5ae7397731d063d5bbf3d657854427343f4c083240f7aacaa2d0f62910160405180910390a46128d6848a8a8a8a8a612d7c565b505050505050505050565b6001600160a01b0383166129075760405162461bcd60e51b8152600401610efa90613f1d565b33600061291384612d31565b9050600061292084612d31565b905061294083876000858560405180602001604052806000815250612aa6565b60008581526065602090815260408083206001600160a01b038a168452909152902054848110156129835760405162461bcd60e51b8152600401610efa90613f60565b60008681526065602090815260408083206001600160a01b038b81168086529184528285208a8703905582518b81529384018a90529092908816917fc3d58168c5ae7397731d063d5bbf3d657854427343f4c083240f7aacaa2d0f62910160405180910390a46040805160208101909152600090526125bf565b60006001600160e01b03198216636cdb3d1360e11b1480612a2e57506001600160e01b031982166303a24d0760e21b145b80610f3657506301ffc9a760e01b6001600160e01b0319831614610f36565b612a578282611561565b610f6f57612a6481612f1f565b612a6f836020612f31565b604051602001612a80929190613fef565b60408051601f198184030181529082905262461bcd60e51b8252610efa9160040161368f565b612aae612e46565b611fa18686868686866130d3565b6001600160a01b0384163b15611fa15760405163bc197c8160e01b81526001600160a01b0385169063bc197c8190612b009089908990889088908890600401614064565b602060405180830381600087803b158015612b1a57600080fd5b505af1925050508015612b4a575060408051601f3d908101601f19168201909252612b47918101906140c2565b60015b612bf757612b566140df565b806308c379a01415612b905750612b6b6140fa565b80612b765750612b92565b8060405162461bcd60e51b8152600401610efa919061368f565b505b60405162461bcd60e51b815260206004820152603460248201527f455243313135353a207472616e7366657220746f206e6f6e2d455243313135356044820152732932b1b2b4bb32b91034b6b83632b6b2b73a32b960611b6064820152608401610efa565b6001600160e01b0319811663bc197c8160e01b146125bf5760405162461bcd60e51b8152600401610efa90614183565b6001600160a01b0381163b612c945760405162461bcd60e51b815260206004820152602d60248201527f455243313936373a206e657720696d706c656d656e746174696f6e206973206e60448201526c1bdd08184818dbdb9d1c9858dd609a1b6064820152608401610efa565b60008051602061424783398151915280546001600160a01b0319166001600160a01b0392909216919091179055565b612ccc8361325d565b600082511180612cd95750805b1561109d57612429838361329d565b60c95460ff1661151b5760405162461bcd60e51b815260206004820152601460248201527314185d5cd8589b194e881b9bdd081c185d5cd95960621b6044820152606401610efa565b60408051600180825281830190925260609160009190602080830190803683370190505090508281600081518110612d6b57612d6b613d1e565b602090810291909101015292915050565b6001600160a01b0384163b15611fa15760405163f23a6e6160e01b81526001600160a01b0385169063f23a6e6190612dc090899089908890889088906004016141cb565b602060405180830381600087803b158015612dda57600080fd5b505af1925050508015612e0a575060408051601f3d908101601f19168201909252612e07918101906140c2565b60015b612e1657612b566140df565b6001600160e01b0319811663f23a6e6160e01b146125bf5760405162461bcd60e51b8152600401610efa90614183565b60c95460ff161561151b5760405162461bcd60e51b815260206004820152601060248201526f14185d5cd8589b194e881c185d5cd95960821b6044820152606401610efa565b600054610100900460ff16612eb35760405162461bcd60e51b8152600401610efa90613fa4565b6111f981611c8e565b600054610100900460ff16612ee35760405162461bcd60e51b8152600401610efa90613fa4565b60c9805460ff19169055565b600054610100900460ff16612f165760405162461bcd60e51b8152600401610efa90613fa4565b61151b3361248a565b6060610f366001600160a01b03831660145b60606000612f40836002614210565b612f4b906002613e38565b6001600160401b03811115612f6257612f6261352f565b6040519080825280601f01601f191660200182016040528015612f8c576020820181803683370190505b509050600360fc1b81600081518110612fa757612fa7613d1e565b60200101906001600160f81b031916908160001a905350600f60fb1b81600181518110612fd657612fd6613d1e565b60200101906001600160f81b031916908160001a9053506000612ffa846002614210565b613005906001613e38565b90505b600181111561307d576f181899199a1a9b1b9c1cb0b131b232b360811b85600f166010811061303957613039613d1e565b1a60f81b82828151811061304f5761304f613d1e565b60200101906001600160f81b031916908160001a90535060049490941c936130768161422f565b9050613008565b5083156130cc5760405162461bcd60e51b815260206004820181905260248201527f537472696e67733a20686578206c656e67746820696e73756666696369656e746044820152606401610efa565b9392505050565b6130e1868686868686613391565b6001600160a01b0385166131695760005b83518110156131675782818151811061310d5761310d613d1e565b60200260200101516101f5600086848151811061312c5761312c613d1e565b6020026020010151815260200190815260200160002060008282546131519190613e38565b90915550613160905081613d4a565b90506130f2565b505b6001600160a01b038416611fa15760005b83518110156125bf57600084828151811061319757613197613d1e565b6020026020010151905060008483815181106131b5576131b5613d1e565b6020026020010151905060006101f56000848152602001908152602001600020549050818110156132395760405162461bcd60e51b815260206004820152602860248201527f455243313135353a206275726e20616d6f756e74206578636565647320746f74604482015267616c537570706c7960c01b6064820152608401610efa565b60009283526101f560205260409092209103905561325681613d4a565b905061317a565b61326681612c27565b6040516001600160a01b038216907fbc7cd75a20ee27fd9adebab32041f755214dbc6bffa90cc0225b39da2e5c2d3b90600090a250565b60606001600160a01b0383163b6133055760405162461bcd60e51b815260206004820152602660248201527f416464726573733a2064656c65676174652063616c6c20746f206e6f6e2d636f6044820152651b9d1c9858dd60d21b6064820152608401610efa565b600080846001600160a01b0316846040516133209190613d65565b600060405180830381855af49150503d806000811461335b576040519150601f19603f3d011682016040523d82523d6000602084013e613360565b606091505b50915091506133888282604051806060016040528060278152602001614287602791396133f9565b95945050505050565b60c95460ff1615611fa15760405162461bcd60e51b815260206004820152602c60248201527f455243313135355061757361626c653a20746f6b656e207472616e736665722060448201526b1dda1a5b19481c185d5cd95960a21b6064820152608401610efa565b606083156134085750816130cc565b6130cc8383815115612b765781518083602001fd5b82805461342990613bfd565b90600052602060002090601f01602090048101928261344b5760008555613491565b82601f1061346457805160ff1916838001178555613491565b82800160010185558215613491579182015b82811115613491578251825591602001919060010190613476565b5061349d9291506134a1565b5090565b5b8082111561349d57600081556001016134a2565b80356001600160a01b03811681146134cd57600080fd5b919050565b600080604083850312156134e557600080fd5b6134ee836134b6565b946020939093013593505050565b6001600160e01b0319811681146111f957600080fd5b60006020828403121561352457600080fd5b81356130cc816134fc565b634e487b7160e01b600052604160045260246000fd5b601f8201601f191681016001600160401b038111828210171561356a5761356a61352f565b6040525050565b60006001600160401b0383111561358a5761358a61352f565b6040516135a1601f8501601f191660200182613545565b8091508381528484840111156135b657600080fd5b83836020830137600060208583010152509392505050565b6000602082840312156135e057600080fd5b81356001600160401b038111156135f657600080fd5b8201601f8101841361360757600080fd5b61361684823560208401613571565b949350505050565b60006020828403121561363057600080fd5b5035919050565b60005b8381101561365257818101518382015260200161363a565b838111156124295750506000910152565b6000815180845261367b816020860160208601613637565b601f01601f19169290920160200192915050565b6020815260006130cc6020830184613663565b60006001600160401b038211156136bb576136bb61352f565b5060051b60200190565b600082601f8301126136d657600080fd5b813560206136e3826136a2565b6040516136f08282613545565b83815260059390931b850182019282810191508684111561371057600080fd5b8286015b8481101561372b5780358352918301918301613714565b509695505050505050565b600082601f83011261374757600080fd5b6130cc83833560208501613571565b6000806000806080858703121561376c57600080fd5b613775856134b6565b935060208501356001600160401b038082111561379157600080fd5b61379d888389016136c5565b945060408701359150808211156137b357600080fd5b6137bf888389016136c5565b935060608701359150808211156137d557600080fd5b506137e287828801613736565b91505092959194509250565b600080600080600060a0868803121561380657600080fd5b61380f866134b6565b945061381d602087016134b6565b935060408601356001600160401b038082111561383957600080fd5b61384589838a016136c5565b9450606088013591508082111561385b57600080fd5b61386789838a016136c5565b9350608088013591508082111561387d57600080fd5b5061388a88828901613736565b9150509295509295909350565b600080604083850312156138aa57600080fd5b823591506138ba602084016134b6565b90509250929050565b6000602082840312156138d557600080fd5b6130cc826134b6565b600080604083850312156138f157600080fd5b82356001600160401b038082111561390857600080fd5b818501915085601f83011261391c57600080fd5b81356020613929826136a2565b6040516139368282613545565b83815260059390931b850182019282810191508984111561395657600080fd5b948201945b8386101561397b5761396c866134b6565b8252948201949082019061395b565b9650508601359250508082111561399157600080fd5b5061399e858286016136c5565b9150509250929050565b600081518084526020808501945080840160005b838110156139d8578151875295820195908201906001016139bc565b509495945050505050565b6020815260006130cc60208301846139a8565b60008060408385031215613a0957600080fd5b613a12836134b6565b915060208301356001600160401b03811115613a2d57600080fd5b61399e85828601613736565b600080600060608486031215613a4e57600080fd5b613a57846134b6565b925060208401356001600160401b0380821115613a7357600080fd5b613a7f878388016136c5565b93506040860135915080821115613a9557600080fd5b50613aa2868287016136c5565b9150509250925092565b60008060008060808587031215613ac257600080fd5b613acb856134b6565b9350602085013592506040850135915060608501356001600160401b03811115613af457600080fd5b6137e287828801613736565b60008060408385031215613b1357600080fd5b613b1c836134b6565b915060208301358015158114613b3157600080fd5b809150509250929050565b60008060408385031215613b4f57600080fd5b613b58836134b6565b91506138ba602084016134b6565b600080600080600060a08688031215613b7e57600080fd5b613b87866134b6565b9450613b95602087016134b6565b9350604086013592506060860135915060808601356001600160401b03811115613bbe57600080fd5b61388a88828901613736565b600080600060608486031215613bdf57600080fd5b613be8846134b6565b95602085013595506040909401359392505050565b600181811c90821680613c1157607f821691505b60208210811415613c3257634e487b7160e01b600052602260045260246000fd5b50919050565b6020808252602e908201527f455243313135353a2063616c6c6572206973206e6f7420746f6b656e206f776e60408201526d195c881bdc88185c1c1c9bdd995960921b606082015260800190565b6020808252602c908201527f46756e6374696f6e206d7573742062652063616c6c6564207468726f7567682060408201526b19195b1959d85d1958d85b1b60a21b606082015260800190565b6020808252602c908201527f46756e6374696f6e206d7573742062652063616c6c6564207468726f7567682060408201526b6163746976652070726f787960a01b606082015260800190565b634e487b7160e01b600052603260045260246000fd5b634e487b7160e01b600052601160045260246000fd5b6000600019821415613d5e57613d5e613d34565b5060010190565b60008251613d77818460208701613637565b9190910192915050565b60208082526014908201527311195b1959d85d194818d85b1b0819985a5b195960621b604082015260600190565b60208082526021908201527f455243313135353a206d696e7420746f20746865207a65726f206164647265736040820152607360f81b606082015260800190565b60208082526028908201527f455243313135353a2069647320616e6420616d6f756e7473206c656e677468206040820152670dad2e6dac2e8c6d60c31b606082015260800190565b60008219821115613e4b57613e4b613d34565b500190565b604081526000613e6360408301856139a8565b828103602084015261338881856139a8565b60208082526025908201527f455243313135353a207472616e7366657220746f20746865207a65726f206164604082015264647265737360d81b606082015260800190565b6020808252602a908201527f455243313135353a20696e73756666696369656e742062616c616e636520666f60408201526939103a3930b739b332b960b11b606082015260800190565b600060208284031215613f1657600080fd5b5051919050565b60208082526023908201527f455243313135353a206275726e2066726f6d20746865207a65726f206164647260408201526265737360e81b606082015260800190565b60208082526024908201527f455243313135353a206275726e20616d6f756e7420657863656564732062616c604082015263616e636560e01b606082015260800190565b6020808252602b908201527f496e697469616c697a61626c653a20636f6e7472616374206973206e6f74206960408201526a6e697469616c697a696e6760a81b606082015260800190565b7f416363657373436f6e74726f6c3a206163636f756e7420000000000000000000815260008351614027816017850160208801613637565b7001034b99036b4b9b9b4b733903937b6329607d1b6017918401918201528351614058816028840160208801613637565b01602801949350505050565b6001600160a01b0386811682528516602082015260a060408201819052600090614090908301866139a8565b82810360608401526140a281866139a8565b905082810360808401526140b68185613663565b98975050505050505050565b6000602082840312156140d457600080fd5b81516130cc816134fc565b600060033d11156114c35760046000803e5060005160e01c90565b600060443d10156141085790565b6040516003193d81016004833e81513d6001600160401b03816024840111818411171561413757505050505090565b828501915081518181111561414f5750505050505090565b843d87010160208285010111156141695750505050505090565b61417860208286010187613545565b509095945050505050565b60208082526028908201527f455243313135353a204552433131353552656365697665722072656a656374656040820152676420746f6b656e7360c01b606082015260800190565b6001600160a01b03868116825285166020820152604081018490526060810183905260a06080820181905260009061420590830184613663565b979650505050505050565b600081600019048311821515161561422a5761422a613d34565b500290565b60008161423e5761423e613d34565b50600019019056fe360894a13ba1a3210667c828492db98dca3e2076cc3735a920a3ca505d382bbc65d7a28e3265b37a6474929f336521b332c1681b933f6cb9f3376673440d862a416464726573733a206c6f772d6c6576656c2064656c65676174652063616c6c206661696c65649f2df0fed2c77648de5860a4cc508cd0818c85b8b8a1ab4ceeef8d981c8956a6a26469706673582212206a71f0befae771a8b5472e25e4db3b901091b61756160ef8e5fcf64ebdf8935164736f6c63430008090033",
  "immutableReferences": {
    "1129": [
      {
        "length": 32,
        "start": 4391
      },
      {
        "length": 32,
        "start": 4455
      },
      {
        "length": 32,
        "start": 4944
      },
      {
        "length": 32,
        "start": 5008
      },
      {
        "length": 32,
        "start": 5151
      }
    ]
  },
  "source": "// SPDX-License-Identifier: MIT\r\npragma solidity ^0.8.4;\r\n\r\nimport \"@openzeppelin/contracts-upgradeable/token/ERC1155/ERC1155Upgradeable.sol\";\r\nimport \"@openzeppelin/contracts-upgradeable/token/ERC1155/extensions/ERC1155BurnableUpgradeable.sol\";\r\nimport \"@openzeppelin/contracts-upgradeable/token/ERC1155/extensions/ERC1155PausableUpgradeable.sol\";\r\nimport \"@openzeppelin/contracts-upgradeable/access/OwnableUpgradeable.sol\";\r\nimport \"@openzeppelin/contracts-upgradeable/proxy/utils/Initializable.sol\";\r\nimport \"@openzeppelin/contracts-upgradeable/proxy/utils/UUPSUpgradeable.sol\";\r\nimport \"@openzeppelin/contracts-upgradeable/access/AccessControlUpgradeable.sol\";\r\nimport \"@openzeppelin/contracts-upgradeable/token/ERC1155/extensions/ERC1155SupplyUpgradeable.sol\";\r\n\r\n// nWonderland (nW) v0.1.0\r\n// nW creates profiles for people and programs\r\n// This contract is used to register people and programs\r\n// it is called by the nHome to register itself\r\n// nHome uses 008_trade to create a non-fungible of itself and then calls this contract to register itself\r\n// the trade token creates a new profile and registers it with the nHome\r\n// the nHome then trades the token to the user and the user then calls this contract to register themselves\r\n\r\n\r\ncontract nWonderland is Initializable, ERC1155Upgradeable, ERC1155BurnableUpgradeable, ERC1155PausableUpgradeable, OwnableUpgradeable, UUPSUpgradeable, AccessControlUpgradeable, ERC1155SupplyUpgradeable {\r\n    struct Item {\r\n        bytes32[] encryptedItem;\r\n    }\r\n    uint256 public itemID;\r\n    mapping (uint256 => Item) internal items;\r\n    event EncryptionToolsSet(address _encryptionTools);\r\n    bytes32 public constant URI_SETTER_ROLE = keccak256(\"URI_SETTER_ROLE\");\r\n    bytes32 public constant PAUSER_ROLE = keccak256(\"PAUSER_ROLE\");\r\n    bytes32 public constant MINTER_ROLE = keccak256(\"MINTER_ROLE\");\r\n    bytes32 public constant UPGRADER_ROLE = keccak256(\"UPGRADER_ROLE\");\r\n    address public ETAddress;\r\n    address public ITAddress;\r\n    address public newOwner;\r\n    address public IDAddress;\r\n    event ItemTrackerSet(address _itemTracker);\r\n    mapping(uint256 => address) public itemOwners;\r\n    address public vaultAddress;\r\n    mapping(uint256 => address) public vaults;\r\n    mapping(uint256 => uint256) public vaultIDs;\r\n    mapping(uint256 => uint256) public vaultBalances;\r\n    event VaultSet(address _vault);\r\n    // this is the address of the nWonderland contract\r\n    address public profileAddress;\r\n    mapping(uint256 => uint256) public Profiles;\r\n    mapping(uint256 => uint256) public ProfileIDs;\r\n    mapping(uint256 => uint256) public ProfileBalances;\r\n    event ProfileSet(address _profile);\r\n    // this is the nHome contract address that local clients can use to connect to the server locally\r\n    address public homeAddress;\r\n    mapping(uint256 => uint256) public Homes;\r\n    mapping(uint256 => uint256) public HomeIDs;\r\n    mapping(uint256 => uint256) public HomeBalances;\r\n    event HomeSet(address _home);\r\n    // this is the nWonderland contract addresses that clients can use to connect to the server remotely\r\n    address public officeAddress;\r\n    mapping(uint256 => uint256) public Offices;\r\n    mapping(uint256 => uint256) public OfficeIDs;\r\n    mapping(uint256 => uint256) public OfficeBalances;\r\n    event OfficeSet(address _office);\r\n    // this is the brain instance of the server\r\n    address public nodeAddress;\r\n    mapping(uint256 => uint256) public Nodes;\r\n    mapping(uint256 => uint256) public NodeIDs;\r\n    mapping(uint256 => uint256) public NodeBalances;\r\n    event NodeSet(address _node);\r\n    // this is the program list the player has access to\r\n    address public programAddress;\r\n    mapping(uint256 => uint256) public Programs;\r\n    mapping(uint256 => uint256) public ProgramIDs;\r\n    mapping(uint256 => uint256) public ProgramBalances;\r\n    event ProgramSet(address _program);\r\n    // this is the player's profile (public and semi-private)\r\n    address public tradeAddress;\r\n    mapping(uint256 => uint256) public Trades;\r\n    mapping(uint256 => uint256) public TradeIDs;\r\n    mapping(uint256 => uint256) public TradeBalances;\r\n    event TradeSet(address _trade);\r\n\r\n\r\n\r\nfunction initialize(address _profileAddress) public {\r\n        __ERC1155_init(\"https://ipfs.io/ipfs/\");\r\n        __ERC1155Burnable_init();\r\n        __ERC1155Pausable_init();\r\n        __Ownable_init();\r\n        __UUPSUpgradeable_init();\r\n        __AccessControl_init();\r\n        __ERC1155Supply_init();\r\n        _setupRole(DEFAULT_ADMIN_ROLE, msg.sender);\r\n        _setupRole(URI_SETTER_ROLE, msg.sender);\r\n        _setupRole(PAUSER_ROLE, msg.sender);\r\n        _setupRole(MINTER_ROLE, msg.sender);\r\n        _setupRole(UPGRADER_ROLE, msg.sender);\r\n        profileAddress = _profileAddress;\r\n    }\r\n    // this function creates a delegate call to the profile contract to set the encryption tools, the item tracker, the Item Distributor, and then creates a vault and then \r\n    // creates an item and sets the owner of the item to this contract and then transfers the vault to the owner of the item\r\n\r\n    // 1. create profile (delegate call that creates a new profile and adds a new vault to the profile)\r\n    // 2. add 5 vaults to profile\r\n    // 3. add homes to vault 2 (homes are the local servers that this profile is connected to)\r\n    // 4. add offices to vault 3 (offices are wonderland servers that this profile is connected to)\r\n    // 5. add nodes to vault 4 (nodes are trades with nhomes that this profile is connected to)\r\n    // 6. add Familiars to vault 5 (Familiars are the program list the player has access to)\r\n    // 7. add Avatars to vault 6 (Avatars are the player's profile (public and semi-private))\r\n\r\n    function activateProfile()public{\r\n        (bool success, bytes memory result) = profileAddress.delegatecall(abi.encodeWithSignature(\"setEncryptionTools\", ETAddress));\r\n        require(success, \"Delegate call failed\");\r\n        (bool success2, bytes memory result2) = profileAddress.delegatecall(abi.encodeWithSignature(\"setItemTracker\", ITAddress));\r\n        require(success2, \"Delegate call failed\");\r\n        (bool success3, bytes memory result3) = profileAddress.delegatecall(abi.encodeWithSignature(\"setItemDistributor\", IDAddress));\r\n        require(success3, \"Delegate call failed\");\r\n        (bool success4, bytes memory result4) = profileAddress.delegatecall(abi.encodeWithSignature(\"createVault\", vaultAddress));\r\n        require(success4, \"Delegate call failed\");\r\n        (bool success5, bytes memory result5) = profileAddress.delegatecall(abi.encodeWithSignature(\"createItem\", itemID, vaultAddress));\r\n        require(success5, \"Delegate call failed\");\r\n        (bool success6, bytes memory result6) = profileAddress.delegatecall(abi.encodeWithSignature(\"setItemOwner\", itemID, address(this)));\r\n        require(success6, \"Delegate call failed\");\r\n\r\n    }\r\n            function setURI(string memory newuri) public onlyRole(URI_SETTER_ROLE) {\r\n        _setURI(newuri);\r\n    }\r\n\r\n    function pause() public onlyRole(PAUSER_ROLE) {\r\n        _pause();\r\n    }\r\n\r\n    function unpause() public onlyRole(PAUSER_ROLE) {\r\n        _unpause();\r\n    }\r\n\r\n    function mint(address account, uint256 id, uint256 amount, bytes memory data)\r\n        public\r\n        onlyRole(MINTER_ROLE)\r\n    {\r\n        _mint(account, id, amount, data);\r\n    }\r\n\r\n    function mintBatch(address to, uint256[] memory ids, uint256[] memory amounts, bytes memory data)\r\n        public\r\n        onlyRole(MINTER_ROLE)\r\n    {\r\n        _mintBatch(to, ids, amounts, data);\r\n    }\r\n\r\n    function _beforeTokenTransfer(address operator, address from, address to, uint256[] memory ids, uint256[] memory amounts, bytes memory data)\r\n        internal\r\n        whenNotPaused\r\n        override(ERC1155PausableUpgradeable, ERC1155Upgradeable, ERC1155SupplyUpgradeable)\r\n    {\r\n        super._beforeTokenTransfer(operator, from, to, ids, amounts, data);\r\n    }\r\n\r\n    function _authorizeUpgrade(address newImplementation)\r\n        internal\r\n        onlyRole(UPGRADER_ROLE)\r\n        override\r\n    {}\r\n\r\n    // The following functions are overrides required by Solidity.\r\n\r\n    function supportsInterface(bytes4 interfaceId)\r\n        public\r\n        view\r\n        override(ERC1155Upgradeable, AccessControlUpgradeable)\r\n        returns (bool)\r\n    {\r\n        return super.supportsInterface(interfaceId);\r\n    }\r\n}",
  "sourcePath": "C:\\Users\\mosle\\Documents\\GitHub\\nWonderland\\contracts\\DALI\\007_nWonderlands.sol",
  "compiler": {
    "name": "solc",
    "version": "0.8.9+commit.e5eed63a.Emscripten.clang"
  },
  "schemaVersion": "3.4.8",
  "updatedAt": "2022-12-15T15:57:16.616Z",
  "networkType": "ethereum",
  "devdoc": {
    "kind": "dev",
    "methods": {
      "balanceOf(address,uint256)": {
        "details": "See {IERC1155-balanceOf}. Requirements: - `account` cannot be the zero address."
      },
      "balanceOfBatch(address[],uint256[])": {
        "details": "See {IERC1155-balanceOfBatch}. Requirements: - `accounts` and `ids` must have the same length."
      },
      "exists(uint256)": {
        "details": "Indicates whether any token exist with a given id, or not."
      },
      "getRoleAdmin(bytes32)": {
        "details": "Returns the admin role that controls `role`. See {grantRole} and {revokeRole}. To change a role's admin, use {_setRoleAdmin}."
      },
      "grantRole(bytes32,address)": {
        "details": "Grants `role` to `account`. If `account` had not been already granted `role`, emits a {RoleGranted} event. Requirements: - the caller must have ``role``'s admin role. May emit a {RoleGranted} event."
      },
      "hasRole(bytes32,address)": {
        "details": "Returns `true` if `account` has been granted `role`."
      },
      "isApprovedForAll(address,address)": {
        "details": "See {IERC1155-isApprovedForAll}."
      },
      "owner()": {
        "details": "Returns the address of the current owner."
      },
      "paused()": {
        "details": "Returns true if the contract is paused, and false otherwise."
      },
      "proxiableUUID()": {
        "details": "Implementation of the ERC1822 {proxiableUUID} function. This returns the storage slot used by the implementation. It is used to validate the implementation's compatibility when performing an upgrade. IMPORTANT: A proxy pointing at a proxiable contract should not be considered proxiable itself, because this risks bricking a proxy that upgrades to it, by delegating to itself until out of gas. Thus it is critical that this function revert if invoked through a proxy. This is guaranteed by the `notDelegated` modifier."
      },
      "renounceOwnership()": {
        "details": "Leaves the contract without owner. It will not be possible to call `onlyOwner` functions anymore. Can only be called by the current owner. NOTE: Renouncing ownership will leave the contract without an owner, thereby removing any functionality that is only available to the owner."
      },
      "renounceRole(bytes32,address)": {
        "details": "Revokes `role` from the calling account. Roles are often managed via {grantRole} and {revokeRole}: this function's purpose is to provide a mechanism for accounts to lose their privileges if they are compromised (such as when a trusted device is misplaced). If the calling account had been revoked `role`, emits a {RoleRevoked} event. Requirements: - the caller must be `account`. May emit a {RoleRevoked} event."
      },
      "revokeRole(bytes32,address)": {
        "details": "Revokes `role` from `account`. If `account` had been granted `role`, emits a {RoleRevoked} event. Requirements: - the caller must have ``role``'s admin role. May emit a {RoleRevoked} event."
      },
      "safeBatchTransferFrom(address,address,uint256[],uint256[],bytes)": {
        "details": "See {IERC1155-safeBatchTransferFrom}."
      },
      "safeTransferFrom(address,address,uint256,uint256,bytes)": {
        "details": "See {IERC1155-safeTransferFrom}."
      },
      "setApprovalForAll(address,bool)": {
        "details": "See {IERC1155-setApprovalForAll}."
      },
      "totalSupply(uint256)": {
        "details": "Total amount of tokens in with a given id."
      },
      "transferOwnership(address)": {
        "details": "Transfers ownership of the contract to a new account (`newOwner`). Can only be called by the current owner."
      },
      "upgradeTo(address)": {
        "details": "Upgrade the implementation of the proxy to `newImplementation`. Calls {_authorizeUpgrade}. Emits an {Upgraded} event."
      },
      "upgradeToAndCall(address,bytes)": {
        "details": "Upgrade the implementation of the proxy to `newImplementation`, and subsequently execute the function call encoded in `data`. Calls {_authorizeUpgrade}. Emits an {Upgraded} event."
      },
      "uri(uint256)": {
        "details": "See {IERC1155MetadataURI-uri}. This implementation returns the same URI for *all* token types. It relies on the token type ID substitution mechanism https://eips.ethereum.org/EIPS/eip-1155#metadata[defined in the EIP]. Clients calling this function must replace the `\\{id\\}` substring with the actual token type ID."
      }
    },
    "version": 1
  },
  "userdoc": {
    "kind": "user",
    "methods": {},
    "version": 1
  }
}