{
  "contractName": "Profile",
  "abi": [
    {
      "anonymous": false,
      "inputs": [
        {
          "indexed": false,
          "internalType": "address",
          "name": "previousAdmin",
          "type": "address"
        },
        {
          "indexed": false,
          "internalType": "address",
          "name": "newAdmin",
          "type": "address"
        }
      ],
      "name": "AdminChanged",
      "type": "event"
    },
    {
      "anonymous": false,
      "inputs": [
        {
          "indexed": true,
          "internalType": "address",
          "name": "account",
          "type": "address"
        },
        {
          "indexed": true,
          "internalType": "address",
          "name": "operator",
          "type": "address"
        },
        {
          "indexed": false,
          "internalType": "bool",
          "name": "approved",
          "type": "bool"
        }
      ],
      "name": "ApprovalForAll",
      "type": "event"
    },
    {
      "anonymous": false,
      "inputs": [
        {
          "indexed": true,
          "internalType": "address",
          "name": "beacon",
          "type": "address"
        }
      ],
      "name": "BeaconUpgraded",
      "type": "event"
    },
    {
      "anonymous": false,
      "inputs": [
        {
          "indexed": false,
          "internalType": "address",
          "name": "_encryptionTools",
          "type": "address"
        }
      ],
      "name": "EncryptionToolsSet",
      "type": "event"
    },
    {
      "anonymous": false,
      "inputs": [
        {
          "indexed": false,
          "internalType": "uint8",
          "name": "version",
          "type": "uint8"
        }
      ],
      "name": "Initialized",
      "type": "event"
    },
    {
      "anonymous": false,
      "inputs": [
        {
          "indexed": false,
          "internalType": "address",
          "name": "_itemDisplacer",
          "type": "address"
        }
      ],
      "name": "ItemDisplacerSet",
      "type": "event"
    },
    {
      "anonymous": false,
      "inputs": [
        {
          "indexed": false,
          "internalType": "address",
          "name": "_itemTracker",
          "type": "address"
        }
      ],
      "name": "ItemTrackerSet",
      "type": "event"
    },
    {
      "anonymous": false,
      "inputs": [
        {
          "indexed": true,
          "internalType": "address",
          "name": "previousOwner",
          "type": "address"
        },
        {
          "indexed": true,
          "internalType": "address",
          "name": "newOwner",
          "type": "address"
        }
      ],
      "name": "OwnershipTransferred",
      "type": "event"
    },
    {
      "anonymous": false,
      "inputs": [
        {
          "indexed": false,
          "internalType": "address",
          "name": "account",
          "type": "address"
        }
      ],
      "name": "Paused",
      "type": "event"
    },
    {
      "anonymous": false,
      "inputs": [
        {
          "indexed": true,
          "internalType": "bytes32",
          "name": "role",
          "type": "bytes32"
        },
        {
          "indexed": true,
          "internalType": "bytes32",
          "name": "previousAdminRole",
          "type": "bytes32"
        },
        {
          "indexed": true,
          "internalType": "bytes32",
          "name": "newAdminRole",
          "type": "bytes32"
        }
      ],
      "name": "RoleAdminChanged",
      "type": "event"
    },
    {
      "anonymous": false,
      "inputs": [
        {
          "indexed": true,
          "internalType": "bytes32",
          "name": "role",
          "type": "bytes32"
        },
        {
          "indexed": true,
          "internalType": "address",
          "name": "account",
          "type": "address"
        },
        {
          "indexed": true,
          "internalType": "address",
          "name": "sender",
          "type": "address"
        }
      ],
      "name": "RoleGranted",
      "type": "event"
    },
    {
      "anonymous": false,
      "inputs": [
        {
          "indexed": true,
          "internalType": "bytes32",
          "name": "role",
          "type": "bytes32"
        },
        {
          "indexed": true,
          "internalType": "address",
          "name": "account",
          "type": "address"
        },
        {
          "indexed": true,
          "internalType": "address",
          "name": "sender",
          "type": "address"
        }
      ],
      "name": "RoleRevoked",
      "type": "event"
    },
    {
      "anonymous": false,
      "inputs": [
        {
          "indexed": true,
          "internalType": "address",
          "name": "operator",
          "type": "address"
        },
        {
          "indexed": true,
          "internalType": "address",
          "name": "from",
          "type": "address"
        },
        {
          "indexed": true,
          "internalType": "address",
          "name": "to",
          "type": "address"
        },
        {
          "indexed": false,
          "internalType": "uint256[]",
          "name": "ids",
          "type": "uint256[]"
        },
        {
          "indexed": false,
          "internalType": "uint256[]",
          "name": "values",
          "type": "uint256[]"
        }
      ],
      "name": "TransferBatch",
      "type": "event"
    },
    {
      "anonymous": false,
      "inputs": [
        {
          "indexed": true,
          "internalType": "address",
          "name": "operator",
          "type": "address"
        },
        {
          "indexed": true,
          "internalType": "address",
          "name": "from",
          "type": "address"
        },
        {
          "indexed": true,
          "internalType": "address",
          "name": "to",
          "type": "address"
        },
        {
          "indexed": false,
          "internalType": "uint256",
          "name": "id",
          "type": "uint256"
        },
        {
          "indexed": false,
          "internalType": "uint256",
          "name": "value",
          "type": "uint256"
        }
      ],
      "name": "TransferSingle",
      "type": "event"
    },
    {
      "anonymous": false,
      "inputs": [
        {
          "indexed": false,
          "internalType": "string",
          "name": "value",
          "type": "string"
        },
        {
          "indexed": true,
          "internalType": "uint256",
          "name": "id",
          "type": "uint256"
        }
      ],
      "name": "URI",
      "type": "event"
    },
    {
      "anonymous": false,
      "inputs": [
        {
          "indexed": false,
          "internalType": "address",
          "name": "account",
          "type": "address"
        }
      ],
      "name": "Unpaused",
      "type": "event"
    },
    {
      "anonymous": false,
      "inputs": [
        {
          "indexed": true,
          "internalType": "address",
          "name": "implementation",
          "type": "address"
        }
      ],
      "name": "Upgraded",
      "type": "event"
    },
    {
      "anonymous": false,
      "inputs": [
        {
          "indexed": false,
          "internalType": "address",
          "name": "_vault",
          "type": "address"
        }
      ],
      "name": "VaultSet",
      "type": "event"
    },
    {
      "inputs": [],
      "name": "DEFAULT_ADMIN_ROLE",
      "outputs": [
        {
          "internalType": "bytes32",
          "name": "",
          "type": "bytes32"
        }
      ],
      "stateMutability": "view",
      "type": "function"
    },
    {
      "inputs": [],
      "name": "ETAddress",
      "outputs": [
        {
          "internalType": "address",
          "name": "",
          "type": "address"
        }
      ],
      "stateMutability": "view",
      "type": "function"
    },
    {
      "inputs": [],
      "name": "IDAddress",
      "outputs": [
        {
          "internalType": "address",
          "name": "",
          "type": "address"
        }
      ],
      "stateMutability": "view",
      "type": "function"
    },
    {
      "inputs": [],
      "name": "ITAddress",
      "outputs": [
        {
          "internalType": "address",
          "name": "",
          "type": "address"
        }
      ],
      "stateMutability": "view",
      "type": "function"
    },
    {
      "inputs": [],
      "name": "MINTER_ROLE",
      "outputs": [
        {
          "internalType": "bytes32",
          "name": "",
          "type": "bytes32"
        }
      ],
      "stateMutability": "view",
      "type": "function"
    },
    {
      "inputs": [],
      "name": "PAUSER_ROLE",
      "outputs": [
        {
          "internalType": "bytes32",
          "name": "",
          "type": "bytes32"
        }
      ],
      "stateMutability": "view",
      "type": "function"
    },
    {
      "inputs": [
        {
          "internalType": "uint256",
          "name": "",
          "type": "uint256"
        }
      ],
      "name": "ProfileBalances",
      "outputs": [
        {
          "internalType": "uint256",
          "name": "",
          "type": "uint256"
        }
      ],
      "stateMutability": "view",
      "type": "function"
    },
    {
      "inputs": [
        {
          "internalType": "uint256",
          "name": "",
          "type": "uint256"
        }
      ],
      "name": "ProfileIDs",
      "outputs": [
        {
          "internalType": "uint256",
          "name": "",
          "type": "uint256"
        }
      ],
      "stateMutability": "view",
      "type": "function"
    },
    {
      "inputs": [
        {
          "internalType": "uint256",
          "name": "",
          "type": "uint256"
        }
      ],
      "name": "Profiles",
      "outputs": [
        {
          "internalType": "uint256",
          "name": "",
          "type": "uint256"
        }
      ],
      "stateMutability": "view",
      "type": "function"
    },
    {
      "inputs": [],
      "name": "UPGRADER_ROLE",
      "outputs": [
        {
          "internalType": "bytes32",
          "name": "",
          "type": "bytes32"
        }
      ],
      "stateMutability": "view",
      "type": "function"
    },
    {
      "inputs": [],
      "name": "URI_SETTER_ROLE",
      "outputs": [
        {
          "internalType": "bytes32",
          "name": "",
          "type": "bytes32"
        }
      ],
      "stateMutability": "view",
      "type": "function"
    },
    {
      "inputs": [
        {
          "internalType": "address",
          "name": "account",
          "type": "address"
        },
        {
          "internalType": "uint256",
          "name": "id",
          "type": "uint256"
        }
      ],
      "name": "balanceOf",
      "outputs": [
        {
          "internalType": "uint256",
          "name": "",
          "type": "uint256"
        }
      ],
      "stateMutability": "view",
      "type": "function"
    },
    {
      "inputs": [
        {
          "internalType": "address[]",
          "name": "accounts",
          "type": "address[]"
        },
        {
          "internalType": "uint256[]",
          "name": "ids",
          "type": "uint256[]"
        }
      ],
      "name": "balanceOfBatch",
      "outputs": [
        {
          "internalType": "uint256[]",
          "name": "",
          "type": "uint256[]"
        }
      ],
      "stateMutability": "view",
      "type": "function"
    },
    {
      "inputs": [
        {
          "internalType": "address",
          "name": "account",
          "type": "address"
        },
        {
          "internalType": "uint256",
          "name": "id",
          "type": "uint256"
        },
        {
          "internalType": "uint256",
          "name": "value",
          "type": "uint256"
        }
      ],
      "name": "burn",
      "outputs": [],
      "stateMutability": "nonpayable",
      "type": "function"
    },
    {
      "inputs": [
        {
          "internalType": "address",
          "name": "account",
          "type": "address"
        },
        {
          "internalType": "uint256[]",
          "name": "ids",
          "type": "uint256[]"
        },
        {
          "internalType": "uint256[]",
          "name": "values",
          "type": "uint256[]"
        }
      ],
      "name": "burnBatch",
      "outputs": [],
      "stateMutability": "nonpayable",
      "type": "function"
    },
    {
      "inputs": [
        {
          "internalType": "uint256",
          "name": "id",
          "type": "uint256"
        }
      ],
      "name": "exists",
      "outputs": [
        {
          "internalType": "bool",
          "name": "",
          "type": "bool"
        }
      ],
      "stateMutability": "view",
      "type": "function"
    },
    {
      "inputs": [
        {
          "internalType": "bytes32",
          "name": "role",
          "type": "bytes32"
        }
      ],
      "name": "getRoleAdmin",
      "outputs": [
        {
          "internalType": "bytes32",
          "name": "",
          "type": "bytes32"
        }
      ],
      "stateMutability": "view",
      "type": "function"
    },
    {
      "inputs": [
        {
          "internalType": "bytes32",
          "name": "role",
          "type": "bytes32"
        },
        {
          "internalType": "address",
          "name": "account",
          "type": "address"
        }
      ],
      "name": "grantRole",
      "outputs": [],
      "stateMutability": "nonpayable",
      "type": "function"
    },
    {
      "inputs": [
        {
          "internalType": "bytes32",
          "name": "role",
          "type": "bytes32"
        },
        {
          "internalType": "address",
          "name": "account",
          "type": "address"
        }
      ],
      "name": "hasRole",
      "outputs": [
        {
          "internalType": "bool",
          "name": "",
          "type": "bool"
        }
      ],
      "stateMutability": "view",
      "type": "function"
    },
    {
      "inputs": [
        {
          "internalType": "address",
          "name": "account",
          "type": "address"
        },
        {
          "internalType": "address",
          "name": "operator",
          "type": "address"
        }
      ],
      "name": "isApprovedForAll",
      "outputs": [
        {
          "internalType": "bool",
          "name": "",
          "type": "bool"
        }
      ],
      "stateMutability": "view",
      "type": "function"
    },
    {
      "inputs": [],
      "name": "itemID",
      "outputs": [
        {
          "internalType": "uint256",
          "name": "",
          "type": "uint256"
        }
      ],
      "stateMutability": "view",
      "type": "function"
    },
    {
      "inputs": [
        {
          "internalType": "uint256",
          "name": "",
          "type": "uint256"
        }
      ],
      "name": "itemOwners",
      "outputs": [
        {
          "internalType": "address",
          "name": "",
          "type": "address"
        }
      ],
      "stateMutability": "view",
      "type": "function"
    },
    {
      "inputs": [],
      "name": "newOwner",
      "outputs": [
        {
          "internalType": "address",
          "name": "",
          "type": "address"
        }
      ],
      "stateMutability": "view",
      "type": "function"
    },
    {
      "inputs": [],
      "name": "owner",
      "outputs": [
        {
          "internalType": "address",
          "name": "",
          "type": "address"
        }
      ],
      "stateMutability": "view",
      "type": "function"
    },
    {
      "inputs": [],
      "name": "paused",
      "outputs": [
        {
          "internalType": "bool",
          "name": "",
          "type": "bool"
        }
      ],
      "stateMutability": "view",
      "type": "function"
    },
    {
      "inputs": [],
      "name": "proxiableUUID",
      "outputs": [
        {
          "internalType": "bytes32",
          "name": "",
          "type": "bytes32"
        }
      ],
      "stateMutability": "view",
      "type": "function"
    },
    {
      "inputs": [],
      "name": "renounceOwnership",
      "outputs": [],
      "stateMutability": "nonpayable",
      "type": "function"
    },
    {
      "inputs": [
        {
          "internalType": "bytes32",
          "name": "role",
          "type": "bytes32"
        },
        {
          "internalType": "address",
          "name": "account",
          "type": "address"
        }
      ],
      "name": "renounceRole",
      "outputs": [],
      "stateMutability": "nonpayable",
      "type": "function"
    },
    {
      "inputs": [
        {
          "internalType": "bytes32",
          "name": "role",
          "type": "bytes32"
        },
        {
          "internalType": "address",
          "name": "account",
          "type": "address"
        }
      ],
      "name": "revokeRole",
      "outputs": [],
      "stateMutability": "nonpayable",
      "type": "function"
    },
    {
      "inputs": [
        {
          "internalType": "address",
          "name": "from",
          "type": "address"
        },
        {
          "internalType": "address",
          "name": "to",
          "type": "address"
        },
        {
          "internalType": "uint256[]",
          "name": "ids",
          "type": "uint256[]"
        },
        {
          "internalType": "uint256[]",
          "name": "amounts",
          "type": "uint256[]"
        },
        {
          "internalType": "bytes",
          "name": "data",
          "type": "bytes"
        }
      ],
      "name": "safeBatchTransferFrom",
      "outputs": [],
      "stateMutability": "nonpayable",
      "type": "function"
    },
    {
      "inputs": [
        {
          "internalType": "address",
          "name": "from",
          "type": "address"
        },
        {
          "internalType": "address",
          "name": "to",
          "type": "address"
        },
        {
          "internalType": "uint256",
          "name": "id",
          "type": "uint256"
        },
        {
          "internalType": "uint256",
          "name": "amount",
          "type": "uint256"
        },
        {
          "internalType": "bytes",
          "name": "data",
          "type": "bytes"
        }
      ],
      "name": "safeTransferFrom",
      "outputs": [],
      "stateMutability": "nonpayable",
      "type": "function"
    },
    {
      "inputs": [
        {
          "internalType": "address",
          "name": "operator",
          "type": "address"
        },
        {
          "internalType": "bool",
          "name": "approved",
          "type": "bool"
        }
      ],
      "name": "setApprovalForAll",
      "outputs": [],
      "stateMutability": "nonpayable",
      "type": "function"
    },
    {
      "inputs": [
        {
          "internalType": "uint256",
          "name": "id",
          "type": "uint256"
        }
      ],
      "name": "totalSupply",
      "outputs": [
        {
          "internalType": "uint256",
          "name": "",
          "type": "uint256"
        }
      ],
      "stateMutability": "view",
      "type": "function"
    },
    {
      "inputs": [
        {
          "internalType": "address",
          "name": "newOwner",
          "type": "address"
        }
      ],
      "name": "transferOwnership",
      "outputs": [],
      "stateMutability": "nonpayable",
      "type": "function"
    },
    {
      "inputs": [
        {
          "internalType": "address",
          "name": "newImplementation",
          "type": "address"
        }
      ],
      "name": "upgradeTo",
      "outputs": [],
      "stateMutability": "nonpayable",
      "type": "function"
    },
    {
      "inputs": [
        {
          "internalType": "address",
          "name": "newImplementation",
          "type": "address"
        },
        {
          "internalType": "bytes",
          "name": "data",
          "type": "bytes"
        }
      ],
      "name": "upgradeToAndCall",
      "outputs": [],
      "stateMutability": "payable",
      "type": "function"
    },
    {
      "inputs": [
        {
          "internalType": "uint256",
          "name": "",
          "type": "uint256"
        }
      ],
      "name": "uri",
      "outputs": [
        {
          "internalType": "string",
          "name": "",
          "type": "string"
        }
      ],
      "stateMutability": "view",
      "type": "function"
    },
    {
      "inputs": [],
      "name": "vaultAddress",
      "outputs": [
        {
          "internalType": "address",
          "name": "",
          "type": "address"
        }
      ],
      "stateMutability": "view",
      "type": "function"
    },
    {
      "inputs": [
        {
          "internalType": "uint256",
          "name": "",
          "type": "uint256"
        }
      ],
      "name": "vaultBalances",
      "outputs": [
        {
          "internalType": "uint256",
          "name": "",
          "type": "uint256"
        }
      ],
      "stateMutability": "view",
      "type": "function"
    },
    {
      "inputs": [
        {
          "internalType": "uint256",
          "name": "",
          "type": "uint256"
        }
      ],
      "name": "vaultIDs",
      "outputs": [
        {
          "internalType": "uint256",
          "name": "",
          "type": "uint256"
        }
      ],
      "stateMutability": "view",
      "type": "function"
    },
    {
      "inputs": [
        {
          "internalType": "uint256",
          "name": "",
          "type": "uint256"
        }
      ],
      "name": "vaults",
      "outputs": [
        {
          "internalType": "address",
          "name": "",
          "type": "address"
        }
      ],
      "stateMutability": "view",
      "type": "function"
    },
    {
      "inputs": [
        {
          "internalType": "address",
          "name": "_vaultAddress",
          "type": "address"
        }
      ],
      "name": "initialize",
      "outputs": [],
      "stateMutability": "nonpayable",
      "type": "function"
    },
    {
      "inputs": [
        {
          "internalType": "address",
          "name": "_encryptionTools",
          "type": "address"
        }
      ],
      "name": "setEncryptionTools",
      "outputs": [],
      "stateMutability": "nonpayable",
      "type": "function"
    },
    {
      "inputs": [
        {
          "internalType": "address",
          "name": "_itemTracker",
          "type": "address"
        }
      ],
      "name": "setItemTracker",
      "outputs": [],
      "stateMutability": "nonpayable",
      "type": "function"
    },
    {
      "inputs": [
        {
          "internalType": "address",
          "name": "_itemDistributor",
          "type": "address"
        }
      ],
      "name": "setItemDistributor",
      "outputs": [],
      "stateMutability": "nonpayable",
      "type": "function"
    },
    {
      "inputs": [
        {
          "internalType": "bytes32[]",
          "name": "_encryptedItem",
          "type": "bytes32[]"
        }
      ],
      "name": "createItem",
      "outputs": [],
      "stateMutability": "nonpayable",
      "type": "function"
    },
    {
      "inputs": [],
      "name": "createVault",
      "outputs": [],
      "stateMutability": "nonpayable",
      "type": "function"
    },
    {
      "inputs": [
        {
          "internalType": "uint256",
          "name": "_vaultID",
          "type": "uint256"
        },
        {
          "internalType": "address",
          "name": "_newOwner",
          "type": "address"
        }
      ],
      "name": "transferVault",
      "outputs": [],
      "stateMutability": "nonpayable",
      "type": "function"
    },
    {
      "inputs": [
        {
          "internalType": "string",
          "name": "newuri",
          "type": "string"
        }
      ],
      "name": "setURI",
      "outputs": [],
      "stateMutability": "nonpayable",
      "type": "function"
    },
    {
      "inputs": [],
      "name": "pause",
      "outputs": [],
      "stateMutability": "nonpayable",
      "type": "function"
    },
    {
      "inputs": [],
      "name": "unpause",
      "outputs": [],
      "stateMutability": "nonpayable",
      "type": "function"
    },
    {
      "inputs": [
        {
          "internalType": "address",
          "name": "account",
          "type": "address"
        },
        {
          "internalType": "uint256",
          "name": "id",
          "type": "uint256"
        },
        {
          "internalType": "uint256",
          "name": "amount",
          "type": "uint256"
        },
        {
          "internalType": "bytes",
          "name": "data",
          "type": "bytes"
        }
      ],
      "name": "mint",
      "outputs": [],
      "stateMutability": "nonpayable",
      "type": "function"
    },
    {
      "inputs": [
        {
          "internalType": "address",
          "name": "to",
          "type": "address"
        },
        {
          "internalType": "uint256[]",
          "name": "ids",
          "type": "uint256[]"
        },
        {
          "internalType": "uint256[]",
          "name": "amounts",
          "type": "uint256[]"
        },
        {
          "internalType": "bytes",
          "name": "data",
          "type": "bytes"
        }
      ],
      "name": "mintBatch",
      "outputs": [],
      "stateMutability": "nonpayable",
      "type": "function"
    },
    {
      "inputs": [
        {
          "internalType": "bytes4",
          "name": "interfaceId",
          "type": "bytes4"
        }
      ],
      "name": "supportsInterface",
      "outputs": [
        {
          "internalType": "bool",
          "name": "",
          "type": "bool"
        }
      ],
      "stateMutability": "view",
      "type": "function"
    }
  ],
  "bytecode": "0x60a06040523073ffffffffffffffffffffffffffffffffffffffff1660809073ffffffffffffffffffffffffffffffffffffffff1681525034801561004357600080fd5b5060805161772f6200007c6000396000818161110501528181611193015281816115b80152818161164601526117ef015261772f6000f3fe6080604052600436106103335760003560e01c8063715018a6116101ab578063d547741f116100f7578063f242432a11610095578063f5298aca1161006f578063f5298aca14610c3d578063f57d85af14610c66578063f72c0d8b14610c91578063fff967a814610cbc57610333565b8063f242432a14610bae578063f2fde38b14610bd7578063f36039c714610c0057610333565b8063e63ab1e9116100d1578063e63ab1e914610ae0578063e985e9c514610b0b578063f0feff0514610b48578063f1fe483314610b8557610333565b8063d547741f14610a4f578063de1d019b14610a78578063de8bfd5514610ab557610333565b806391d1485411610164578063bd85b0391161013e578063bd85b03914610993578063c4d66de8146109d0578063d4ee1d90146109f9578063d539139314610a2457610333565b806391d1485414610902578063a217fddf1461093f578063a22cb4651461096a57610333565b8063715018a614610818578063731133e91461082f5780637f345710146108585780638456cb59146108835780638c64ea4a1461089a5780638da5cb5b146108d757610333565b80633f4ba83a116102855780634f558e79116102235780635c975abb116101fd5780635c975abb146107705780635d12928b1461079b578063651b31bd146107b25780636b20c454146107ef57610333565b80634f558e79146106df5780634fd5bbeb1461071c57806352d1902d1461074557610333565b80634a2e30bb1161025f5780634a2e30bb1461060c5780634cea965e146106495780634e1273f4146106865780634f1ef286146106c357610333565b80633f4ba83a1461059f578063430bf08a146105b657806343cdef60146105e157610333565b8063248a9ca3116102f25780632f2ff15d116102cc5780632f2ff15d146104fb57806336568abe146105245780633659cfe61461054d5780633e61facd1461057657610333565b8063248a9ca31461046c57806329fb0f3d146104a95780632eb2c2d6146104d257610333565b806249192014610338578062fdd58e1461036357806301ffc9a7146103a057806302fe5305146103dd5780630e89341c146104065780631f7fdffa14610443575b600080fd5b34801561034457600080fd5b5061034d610ce5565b60405161035a9190614ec8565b60405180910390f35b34801561036f57600080fd5b5061038a60048036038101906103859190614f59565b610d0c565b6040516103979190614fa8565b60405180910390f35b3480156103ac57600080fd5b506103c760048036038101906103c2919061501b565b610dd5565b6040516103d49190615063565b60405180910390f35b3480156103e957600080fd5b5061040460048036038101906103ff91906151c4565b610de7565b005b34801561041257600080fd5b5061042d6004803603810190610428919061520d565b610e1e565b60405161043a91906152c2565b60405180910390f35b34801561044f57600080fd5b5061046a6004803603810190610465919061544d565b610eb2565b005b34801561047857600080fd5b50610493600480360381019061048e919061553e565b610eef565b6040516104a0919061557a565b60405180910390f35b3480156104b557600080fd5b506104d060048036038101906104cb9190615595565b610f10565b005b3480156104de57600080fd5b506104f960048036038101906104f491906155c2565b610fbe565b005b34801561050757600080fd5b50610522600480360381019061051d9190615691565b61105f565b005b34801561053057600080fd5b5061054b60048036038101906105469190615691565b611080565b005b34801561055957600080fd5b50610574600480360381019061056f9190615595565b611103565b005b34801561058257600080fd5b5061059d600480360381019061059891906156d1565b61128b565b005b3480156105ab57600080fd5b506105b46113ed565b005b3480156105c257600080fd5b506105cb611422565b6040516105d89190614ec8565b60405180910390f35b3480156105ed57600080fd5b506105f6611449565b6040516106039190614fa8565b60405180910390f35b34801561061857600080fd5b50610633600480360381019061062e919061520d565b611450565b6040516106409190614ec8565b60405180910390f35b34801561065557600080fd5b50610670600480360381019061066b919061520d565b611484565b60405161067d9190614fa8565b60405180910390f35b34801561069257600080fd5b506106ad60048036038101906106a891906157d4565b61149d565b6040516106ba919061590a565b60405180910390f35b6106dd60048036038101906106d8919061592c565b6115b6565b005b3480156106eb57600080fd5b506107066004803603810190610701919061520d565b6116f2565b6040516107139190615063565b60405180910390f35b34801561072857600080fd5b50610743600480360381019061073e9190615595565b611706565b005b34801561075157600080fd5b5061075a6117eb565b604051610767919061557a565b60405180910390f35b34801561077c57600080fd5b506107856118a4565b6040516107929190615063565b60405180910390f35b3480156107a757600080fd5b506107b06118bb565b005b3480156107be57600080fd5b506107d960048036038101906107d4919061520d565b611adb565b6040516107e69190614fa8565b60405180910390f35b3480156107fb57600080fd5b5061081660048036038101906108119190615988565b611af4565b005b34801561082457600080fd5b5061082d611b91565b005b34801561083b57600080fd5b5061085660048036038101906108519190615a13565b611ba5565b005b34801561086457600080fd5b5061086d611be2565b60405161087a919061557a565b60405180910390f35b34801561088f57600080fd5b50610898611c06565b005b3480156108a657600080fd5b506108c160048036038101906108bc919061520d565b611c3b565b6040516108ce9190614ec8565b60405180910390f35b3480156108e357600080fd5b506108ec611c6f565b6040516108f99190614ec8565b60405180910390f35b34801561090e57600080fd5b5061092960048036038101906109249190615691565b611c9a565b6040516109369190615063565b60405180910390f35b34801561094b57600080fd5b50610954611d06565b604051610961919061557a565b60405180910390f35b34801561097657600080fd5b50610991600480360381019061098c9190615ac2565b611d0d565b005b34801561099f57600080fd5b506109ba60048036038101906109b5919061520d565b611d23565b6040516109c79190614fa8565b60405180910390f35b3480156109dc57600080fd5b506109f760048036038101906109f29190615595565b611d41565b005b348015610a0557600080fd5b50610a0e611ea9565b604051610a1b9190614ec8565b60405180910390f35b348015610a3057600080fd5b50610a39611ed0565b604051610a46919061557a565b60405180910390f35b348015610a5b57600080fd5b50610a766004803603810190610a719190615691565b611ef4565b005b348015610a8457600080fd5b50610a9f6004803603810190610a9a919061520d565b611f15565b604051610aac9190614fa8565b60405180910390f35b348015610ac157600080fd5b50610aca611f2e565b604051610ad79190614ec8565b60405180910390f35b348015610aec57600080fd5b50610af5611f55565b604051610b02919061557a565b60405180910390f35b348015610b1757600080fd5b50610b326004803603810190610b2d9190615b02565b611f79565b604051610b3f9190615063565b60405180910390f35b348015610b5457600080fd5b50610b6f6004803603810190610b6a919061520d565b61200d565b604051610b7c9190614fa8565b60405180910390f35b348015610b9157600080fd5b50610bac6004803603810190610ba79190615c05565b612026565b005b348015610bba57600080fd5b50610bd56004803603810190610bd09190615c4e565b612273565b005b348015610be357600080fd5b50610bfe6004803603810190610bf99190615595565b612314565b005b348015610c0c57600080fd5b50610c276004803603810190610c22919061520d565b612397565b604051610c349190614fa8565b60405180910390f35b348015610c4957600080fd5b50610c646004803603810190610c5f9190615ce5565b6123b0565b005b348015610c7257600080fd5b50610c7b61244d565b604051610c889190614ec8565b60405180910390f35b348015610c9d57600080fd5b50610ca6612474565b604051610cb3919061557a565b60405180910390f35b348015610cc857600080fd5b50610ce36004803603810190610cde9190615595565b612498565b005b61022760009054906101000a900473ffffffffffffffffffffffffffffffffffffffff1681565b60008073ffffffffffffffffffffffffffffffffffffffff168373ffffffffffffffffffffffffffffffffffffffff1603610d7c576040517f08c379a0000000000000000000000000000000000000000000000000000000008152600401610d7390615daa565b60405180910390fd5b6065600083815260200190815260200160002060008473ffffffffffffffffffffffffffffffffffffffff1673ffffffffffffffffffffffffffffffffffffffff16815260200190815260200160002054905092915050565b6000610de082612546565b9050919050565b7f7804d923f43a17d325d77e781528e0793b2edd9890ab45fc64efd7b4b427744c610e11816125c0565b610e1a826125d4565b5050565b606060678054610e2d90615df9565b80601f0160208091040260200160405190810160405280929190818152602001828054610e5990615df9565b8015610ea65780601f10610e7b57610100808354040283529160200191610ea6565b820191906000526020600020905b815481529060010190602001808311610e8957829003601f168201915b50505050509050919050565b7f9f2df0fed2c77648de5860a4cc508cd0818c85b8b8a1ab4ceeef8d981c8956a6610edc816125c0565b610ee8858585856125ee565b5050505050565b60006101c36000838152602001908152602001600020600101549050919050565b610f3a7f189ab7a9244df0848122154315af71fe140f3db0fe014031783b0946b8c9d2e333611c9a565b610f79576040517f08c379a0000000000000000000000000000000000000000000000000000000008152600401610f7090615e9c565b60405180910390fd5b8061022c60006101000a81548173ffffffffffffffffffffffffffffffffffffffff021916908373ffffffffffffffffffffffffffffffffffffffff16021790555050565b610fc661281b565b73ffffffffffffffffffffffffffffffffffffffff168573ffffffffffffffffffffffffffffffffffffffff16148061100c575061100b8561100661281b565b611f79565b5b61104b576040517f08c379a000000000000000000000000000000000000000000000000000000000815260040161104290615f2e565b60405180910390fd5b6110588585858585612823565b5050505050565b61106882610eef565b611071816125c0565b61107b8383612b47565b505050565b61108861281b565b73ffffffffffffffffffffffffffffffffffffffff168173ffffffffffffffffffffffffffffffffffffffff16146110f5576040517f08c379a00000000000000000000000000000000000000000000000000000000081526004016110ec90615fc0565b60405180910390fd5b6110ff8282612c29565b5050565b7f000000000000000000000000000000000000000000000000000000000000000073ffffffffffffffffffffffffffffffffffffffff163073ffffffffffffffffffffffffffffffffffffffff1603611191576040517f08c379a000000000000000000000000000000000000000000000000000000000815260040161118890616052565b60405180910390fd5b7f000000000000000000000000000000000000000000000000000000000000000073ffffffffffffffffffffffffffffffffffffffff166111d0612d0c565b73ffffffffffffffffffffffffffffffffffffffff1614611226576040517f08c379a000000000000000000000000000000000000000000000000000000000815260040161121d906160e4565b60405180910390fd5b61122f81612d63565b61128881600067ffffffffffffffff81111561124e5761124d615099565b5b6040519080825280601f01601f1916602001820160405280156112805781602001600182028036833780820191505090505b506000612d91565b50565b6112b57f9f2df0fed2c77648de5860a4cc508cd0818c85b8b8a1ab4ceeef8d981c8956a633611c9a565b6112f4576040517f08c379a00000000000000000000000000000000000000000000000000000000081526004016112eb90616176565b60405180910390fd5b3373ffffffffffffffffffffffffffffffffffffffff1661022f600084815260200190815260200160002060009054906101000a900473ffffffffffffffffffffffffffffffffffffffff1673ffffffffffffffffffffffffffffffffffffffff1614611396576040517f08c379a000000000000000000000000000000000000000000000000000000000815260040161138d90616208565b60405180910390fd5b8061022f600084815260200190815260200160002060006101000a81548173ffffffffffffffffffffffffffffffffffffffff021916908373ffffffffffffffffffffffffffffffffffffffff1602179055505050565b7f65d7a28e3265b37a6474929f336521b332c1681b933f6cb9f3376673440d862a611417816125c0565b61141f612eff565b50565b61022e60009054906101000a900473ffffffffffffffffffffffffffffffffffffffff1681565b6102285481565b61022d6020528060005260406000206000915054906101000a900473ffffffffffffffffffffffffffffffffffffffff1681565b6102326020528060005260406000206000915090505481565b606081518351146114e3576040517f08c379a00000000000000000000000000000000000000000000000000000000081526004016114da9061629a565b60405180910390fd5b6000835167ffffffffffffffff811115611500576114ff615099565b5b60405190808252806020026020018201604052801561152e5781602001602082028036833780820191505090505b50905060005b84518110156115ab5761157b858281518110611553576115526162ba565b5b602002602001015185838151811061156e5761156d6162ba565b5b6020026020010151610d0c565b82828151811061158e5761158d6162ba565b5b602002602001018181525050806115a490616318565b9050611534565b508091505092915050565b7f000000000000000000000000000000000000000000000000000000000000000073ffffffffffffffffffffffffffffffffffffffff163073ffffffffffffffffffffffffffffffffffffffff1603611644576040517f08c379a000000000000000000000000000000000000000000000000000000000815260040161163b90616052565b60405180910390fd5b7f000000000000000000000000000000000000000000000000000000000000000073ffffffffffffffffffffffffffffffffffffffff16611683612d0c565b73ffffffffffffffffffffffffffffffffffffffff16146116d9576040517f08c379a00000000000000000000000000000000000000000000000000000000081526004016116d0906160e4565b60405180910390fd5b6116e282612d63565b6116ee82826001612d91565b5050565b6000806116fe83611d23565b119050919050565b6117307f189ab7a9244df0848122154315af71fe140f3db0fe014031783b0946b8c9d2e333611c9a565b61176f576040517f08c379a0000000000000000000000000000000000000000000000000000000008152600401611766906163d2565b60405180910390fd5b8061022760006101000a81548173ffffffffffffffffffffffffffffffffffffffff021916908373ffffffffffffffffffffffffffffffffffffffff1602179055507f0573c2d2fd76ad8f23cc8f19f84f77126c2b45713345e7cdd8b9783de3eff5e0816040516117e09190614ec8565b60405180910390a150565b60007f000000000000000000000000000000000000000000000000000000000000000073ffffffffffffffffffffffffffffffffffffffff163073ffffffffffffffffffffffffffffffffffffffff161461187b576040517f08c379a000000000000000000000000000000000000000000000000000000000815260040161187290616464565b60405180910390fd5b7f360894a13ba1a3210667c828492db98dca3e2076cc3735a920a3ca505d382bbc60001b905090565b600060c960009054906101000a900460ff16905090565b6118e57f9f2df0fed2c77648de5860a4cc508cd0818c85b8b8a1ab4ceeef8d981c8956a633611c9a565b611924576040517f08c379a000000000000000000000000000000000000000000000000000000000815260040161191b906164f6565b60405180910390fd5b60008061022e60009054906101000a900473ffffffffffffffffffffffffffffffffffffffff1673ffffffffffffffffffffffffffffffffffffffff166040516024016040516020818303038152906040527f5d12928b000000000000000000000000000000000000000000000000000000007bffffffffffffffffffffffffffffffffffffffffffffffffffffffff19166020820180517bffffffffffffffffffffffffffffffffffffffffffffffffffffffff83818316178352505050506040516119f1919061655d565b6000604051808303816000865af19150503d8060008114611a2e576040519150601f19603f3d011682016040523d82523d6000602084013e611a33565b606091505b5091509150600081806020019051810190611a4e9190616589565b90503361022f600083815260200190815260200160002060006101000a81548173ffffffffffffffffffffffffffffffffffffffff021916908373ffffffffffffffffffffffffffffffffffffffff160217905550806102306000838152602001908152602001600020819055506001610231600083815260200190815260200160002081905550505050565b6102346020528060005260406000206000915090505481565b611afc61281b565b73ffffffffffffffffffffffffffffffffffffffff168373ffffffffffffffffffffffffffffffffffffffff161480611b425750611b4183611b3c61281b565b611f79565b5b611b81576040517f08c379a0000000000000000000000000000000000000000000000000000000008152600401611b7890615f2e565b60405180910390fd5b611b8c838383612f62565b505050565b611b99613232565b611ba360006132b0565b565b7f9f2df0fed2c77648de5860a4cc508cd0818c85b8b8a1ab4ceeef8d981c8956a6611bcf816125c0565b611bdb85858585613378565b5050505050565b7f7804d923f43a17d325d77e781528e0793b2edd9890ab45fc64efd7b4b427744c81565b7f65d7a28e3265b37a6474929f336521b332c1681b933f6cb9f3376673440d862a611c30816125c0565b611c38613529565b50565b61022f6020528060005260406000206000915054906101000a900473ffffffffffffffffffffffffffffffffffffffff1681565b600061012d60009054906101000a900473ffffffffffffffffffffffffffffffffffffffff16905090565b60006101c3600084815260200190815260200160002060000160008373ffffffffffffffffffffffffffffffffffffffff1673ffffffffffffffffffffffffffffffffffffffff16815260200190815260200160002060009054906101000a900460ff16905092915050565b6000801b81565b611d1f611d1861281b565b838361358c565b5050565b60006101f56000838152602001908152602001600020549050919050565b611d7f6040518060400160405280601581526020017f68747470733a2f2f697066732e696f2f697066732f00000000000000000000008152506136f8565b611d87613753565b611d8f6137a4565b611d976137fd565b611d9f613856565b611da76138a7565b611daf6138f8565b611dbc6000801b33613949565b611de67f7804d923f43a17d325d77e781528e0793b2edd9890ab45fc64efd7b4b427744c33613949565b611e107f65d7a28e3265b37a6474929f336521b332c1681b933f6cb9f3376673440d862a33613949565b611e3a7f9f2df0fed2c77648de5860a4cc508cd0818c85b8b8a1ab4ceeef8d981c8956a633613949565b611e647f189ab7a9244df0848122154315af71fe140f3db0fe014031783b0946b8c9d2e333613949565b8061022e60006101000a81548173ffffffffffffffffffffffffffffffffffffffff021916908373ffffffffffffffffffffffffffffffffffffffff16021790555050565b61022b60009054906101000a900473ffffffffffffffffffffffffffffffffffffffff1681565b7f9f2df0fed2c77648de5860a4cc508cd0818c85b8b8a1ab4ceeef8d981c8956a681565b611efd82610eef565b611f06816125c0565b611f108383612c29565b505050565b6102306020528060005260406000206000915090505481565b61022c60009054906101000a900473ffffffffffffffffffffffffffffffffffffffff1681565b7f65d7a28e3265b37a6474929f336521b332c1681b933f6cb9f3376673440d862a81565b6000606660008473ffffffffffffffffffffffffffffffffffffffff1673ffffffffffffffffffffffffffffffffffffffff16815260200190815260200160002060008373ffffffffffffffffffffffffffffffffffffffff1673ffffffffffffffffffffffffffffffffffffffff16815260200190815260200160002060009054906101000a900460ff16905092915050565b6102316020528060005260406000206000915090505481565b6120507f9f2df0fed2c77648de5860a4cc508cd0818c85b8b8a1ab4ceeef8d981c8956a633611c9a565b61208f576040517f08c379a000000000000000000000000000000000000000000000000000000000815260040161208690616628565b60405180910390fd5b80610229600061022854815260200190815260200160002060000190805190602001906120bd929190614d7a565b503361022d600061022854815260200190815260200160002060006101000a81548173ffffffffffffffffffffffffffffffffffffffff021916908373ffffffffffffffffffffffffffffffffffffffff1602179055506121333361022854600160405180602001604052806000815250613378565b610228600081548092919061214790616318565b919050555060008061022e60009054906101000a900473ffffffffffffffffffffffffffffffffffffffff1673ffffffffffffffffffffffffffffffffffffffff166102285460405160240161219d9190614fa8565b6040516020818303038152906040527fbe634045000000000000000000000000000000000000000000000000000000007bffffffffffffffffffffffffffffffffffffffffffffffffffffffff19166020820180517bffffffffffffffffffffffffffffffffffffffffffffffffffffffff8381831617835250505050604051612227919061655d565b6000604051808303816000865af19150503d8060008114612264576040519150601f19603f3d011682016040523d82523d6000602084013e612269565b606091505b5091509150505050565b61227b61281b565b73ffffffffffffffffffffffffffffffffffffffff168573ffffffffffffffffffffffffffffffffffffffff1614806122c157506122c0856122bb61281b565b611f79565b5b612300576040517f08c379a00000000000000000000000000000000000000000000000000000000081526004016122f790615f2e565b60405180910390fd5b61230d8585858585613957565b5050505050565b61231c613232565b600073ffffffffffffffffffffffffffffffffffffffff168173ffffffffffffffffffffffffffffffffffffffff160361238b576040517f08c379a0000000000000000000000000000000000000000000000000000000008152600401612382906166ba565b60405180910390fd5b612394816132b0565b50565b6102336020528060005260406000206000915090505481565b6123b861281b565b73ffffffffffffffffffffffffffffffffffffffff168373ffffffffffffffffffffffffffffffffffffffff1614806123fe57506123fd836123f861281b565b611f79565b5b61243d576040517f08c379a000000000000000000000000000000000000000000000000000000000815260040161243490615f2e565b60405180910390fd5b612448838383613bf5565b505050565b61022a60009054906101000a900473ffffffffffffffffffffffffffffffffffffffff1681565b7f189ab7a9244df0848122154315af71fe140f3db0fe014031783b0946b8c9d2e381565b6124c27f189ab7a9244df0848122154315af71fe140f3db0fe014031783b0946b8c9d2e333611c9a565b612501576040517f08c379a00000000000000000000000000000000000000000000000000000000081526004016124f89061674c565b60405180910390fd5b8061022a60006101000a81548173ffffffffffffffffffffffffffffffffffffffff021916908373ffffffffffffffffffffffffffffffffffffffff16021790555050565b60007f7965db0b000000000000000000000000000000000000000000000000000000007bffffffffffffffffffffffffffffffffffffffffffffffffffffffff1916827bffffffffffffffffffffffffffffffffffffffffffffffffffffffff191614806125b957506125b882613e3d565b5b9050919050565b6125d1816125cc61281b565b613f1f565b50565b80606790805190602001906125ea929190614dc7565b5050565b600073ffffffffffffffffffffffffffffffffffffffff168473ffffffffffffffffffffffffffffffffffffffff160361265d576040517f08c379a0000000000000000000000000000000000000000000000000000000008152600401612654906167de565b60405180910390fd5b81518351146126a1576040517f08c379a000000000000000000000000000000000000000000000000000000000815260040161269890616870565b60405180910390fd5b60006126ab61281b565b90506126bc81600087878787613fa4565b60005b8451811015612776578381815181106126db576126da6162ba565b5b6020026020010151606560008784815181106126fa576126f96162ba565b5b6020026020010151815260200190815260200160002060008873ffffffffffffffffffffffffffffffffffffffff1673ffffffffffffffffffffffffffffffffffffffff168152602001908152602001600020600082825461275c9190616890565b92505081905550808061276e90616318565b9150506126bf565b508473ffffffffffffffffffffffffffffffffffffffff16600073ffffffffffffffffffffffffffffffffffffffff168273ffffffffffffffffffffffffffffffffffffffff167f4a39dc06d4c0dbc64b70af90fd698a233a518aa5d07e595d983b8c0526c8f7fb87876040516127ee9291906168e6565b60405180910390a461280581600087878787613fc2565b61281481600087878787613fca565b5050505050565b600033905090565b8151835114612867576040517f08c379a000000000000000000000000000000000000000000000000000000000815260040161285e90616870565b60405180910390fd5b600073ffffffffffffffffffffffffffffffffffffffff168473ffffffffffffffffffffffffffffffffffffffff16036128d6576040517f08c379a00000000000000000000000000000000000000000000000000000000081526004016128cd9061698f565b60405180910390fd5b60006128e061281b565b90506128f0818787878787613fa4565b60005b8451811015612aa4576000858281518110612911576129106162ba565b5b6020026020010151905060008583815181106129305761292f6162ba565b5b6020026020010151905060006065600084815260200190815260200160002060008b73ffffffffffffffffffffffffffffffffffffffff1673ffffffffffffffffffffffffffffffffffffffff168152602001908152602001600020549050818110156129d2576040517f08c379a00000000000000000000000000000000000000000000000000000000081526004016129c990616a21565b60405180910390fd5b8181036065600085815260200190815260200160002060008c73ffffffffffffffffffffffffffffffffffffffff1673ffffffffffffffffffffffffffffffffffffffff16815260200190815260200160002081905550816065600085815260200190815260200160002060008b73ffffffffffffffffffffffffffffffffffffffff1673ffffffffffffffffffffffffffffffffffffffff1681526020019081526020016000206000828254612a899190616890565b9250508190555050505080612a9d90616318565b90506128f3565b508473ffffffffffffffffffffffffffffffffffffffff168673ffffffffffffffffffffffffffffffffffffffff168273ffffffffffffffffffffffffffffffffffffffff167f4a39dc06d4c0dbc64b70af90fd698a233a518aa5d07e595d983b8c0526c8f7fb8787604051612b1b9291906168e6565b60405180910390a4612b31818787878787613fc2565b612b3f818787878787613fca565b505050505050565b612b518282611c9a565b612c255760016101c3600084815260200190815260200160002060000160008373ffffffffffffffffffffffffffffffffffffffff1673ffffffffffffffffffffffffffffffffffffffff16815260200190815260200160002060006101000a81548160ff021916908315150217905550612bca61281b565b73ffffffffffffffffffffffffffffffffffffffff168173ffffffffffffffffffffffffffffffffffffffff16837f2f8788117e7eff1d82e926ec794901d17c78024a50270940304540a733656f0d60405160405180910390a45b5050565b612c338282611c9a565b15612d085760006101c3600084815260200190815260200160002060000160008373ffffffffffffffffffffffffffffffffffffffff1673ffffffffffffffffffffffffffffffffffffffff16815260200190815260200160002060006101000a81548160ff021916908315150217905550612cad61281b565b73ffffffffffffffffffffffffffffffffffffffff168173ffffffffffffffffffffffffffffffffffffffff16837ff6391f5c32d9c69d2a47ea670b442974b53935d1edc7fd64eb21e047a839171b60405160405180910390a45b5050565b6000612d3a7f360894a13ba1a3210667c828492db98dca3e2076cc3735a920a3ca505d382bbc60001b6141a1565b60000160009054906101000a900473ffffffffffffffffffffffffffffffffffffffff16905090565b7f189ab7a9244df0848122154315af71fe140f3db0fe014031783b0946b8c9d2e3612d8d816125c0565b5050565b612dbd7f4910fdfa16fed3260ed0e7147f7cc6da11a60208b5b9406d12a635614ffd914360001b6141ab565b60000160009054906101000a900460ff1615612de157612ddc836141b5565b612efa565b8273ffffffffffffffffffffffffffffffffffffffff166352d1902d6040518163ffffffff1660e01b8152600401602060405180830381865afa925050508015612e4957506040513d601f19601f82011682018060405250810190612e469190616a56565b60015b612e88576040517f08c379a0000000000000000000000000000000000000000000000000000000008152600401612e7f90616af5565b60405180910390fd5b7f360894a13ba1a3210667c828492db98dca3e2076cc3735a920a3ca505d382bbc60001b8114612eed576040517f08c379a0000000000000000000000000000000000000000000000000000000008152600401612ee490616b87565b60405180910390fd5b50612ef983838361426e565b5b505050565b612f0761429a565b600060c960006101000a81548160ff0219169083151502179055507f5db9ee0a495bf2e6ff9c91a7834c1ba4fdd244a5e8aa4e537bd38aeae4b073aa612f4b61281b565b604051612f589190614ec8565b60405180910390a1565b600073ffffffffffffffffffffffffffffffffffffffff168373ffffffffffffffffffffffffffffffffffffffff1603612fd1576040517f08c379a0000000000000000000000000000000000000000000000000000000008152600401612fc890616c19565b60405180910390fd5b8051825114613015576040517f08c379a000000000000000000000000000000000000000000000000000000000815260040161300c90616870565b60405180910390fd5b600061301f61281b565b905061303f81856000868660405180602001604052806000815250613fa4565b60005b835181101561318e5760008482815181106130605761305f6162ba565b5b60200260200101519050600084838151811061307f5761307e6162ba565b5b6020026020010151905060006065600084815260200190815260200160002060008973ffffffffffffffffffffffffffffffffffffffff1673ffffffffffffffffffffffffffffffffffffffff16815260200190815260200160002054905081811015613121576040517f08c379a000000000000000000000000000000000000000000000000000000000815260040161311890616cab565b60405180910390fd5b8181036065600085815260200190815260200160002060008a73ffffffffffffffffffffffffffffffffffffffff1673ffffffffffffffffffffffffffffffffffffffff16815260200190815260200160002081905550505050808061318690616318565b915050613042565b50600073ffffffffffffffffffffffffffffffffffffffff168473ffffffffffffffffffffffffffffffffffffffff168273ffffffffffffffffffffffffffffffffffffffff167f4a39dc06d4c0dbc64b70af90fd698a233a518aa5d07e595d983b8c0526c8f7fb86866040516132069291906168e6565b60405180910390a461322c81856000868660405180602001604052806000815250613fc2565b50505050565b61323a61281b565b73ffffffffffffffffffffffffffffffffffffffff16613258611c6f565b73ffffffffffffffffffffffffffffffffffffffff16146132ae576040517f08c379a00000000000000000000000000000000000000000000000000000000081526004016132a590616d17565b60405180910390fd5b565b600061012d60009054906101000a900473ffffffffffffffffffffffffffffffffffffffff1690508161012d60006101000a81548173ffffffffffffffffffffffffffffffffffffffff021916908373ffffffffffffffffffffffffffffffffffffffff1602179055508173ffffffffffffffffffffffffffffffffffffffff168173ffffffffffffffffffffffffffffffffffffffff167f8be0079c531659141344cd1fd0a4f28419497f9722a3daafe3b4186f6b6457e060405160405180910390a35050565b600073ffffffffffffffffffffffffffffffffffffffff168473ffffffffffffffffffffffffffffffffffffffff16036133e7576040517f08c379a00000000000000000000000000000000000000000000000000000000081526004016133de906167de565b60405180910390fd5b60006133f161281b565b905060006133fe856142e3565b9050600061340b856142e3565b905061341c83600089858589613fa4565b846065600088815260200190815260200160002060008973ffffffffffffffffffffffffffffffffffffffff1673ffffffffffffffffffffffffffffffffffffffff168152602001908152602001600020600082825461347c9190616890565b925050819055508673ffffffffffffffffffffffffffffffffffffffff16600073ffffffffffffffffffffffffffffffffffffffff168473ffffffffffffffffffffffffffffffffffffffff167fc3d58168c5ae7397731d063d5bbf3d657854427343f4c083240f7aacaa2d0f6289896040516134fa929190616d37565b60405180910390a461351183600089858589613fc2565b6135208360008989898961435d565b50505050505050565b613531614534565b600160c960006101000a81548160ff0219169083151502179055507f62e78cea01bee320cd4e420270b5ea74000d11b0c9f74754ebdbfc544b05a25861357561281b565b6040516135829190614ec8565b60405180910390a1565b8173ffffffffffffffffffffffffffffffffffffffff168373ffffffffffffffffffffffffffffffffffffffff16036135fa576040517f08c379a00000000000000000000000000000000000000000000000000000000081526004016135f190616dd2565b60405180910390fd5b80606660008573ffffffffffffffffffffffffffffffffffffffff1673ffffffffffffffffffffffffffffffffffffffff16815260200190815260200160002060008473ffffffffffffffffffffffffffffffffffffffff1673ffffffffffffffffffffffffffffffffffffffff16815260200190815260200160002060006101000a81548160ff0219169083151502179055508173ffffffffffffffffffffffffffffffffffffffff168373ffffffffffffffffffffffffffffffffffffffff167f17307eab39ab6107e8899845ad3d59bd9653f200f220920489ca2b5937696c31836040516136eb9190615063565b60405180910390a3505050565b600060019054906101000a900460ff16613747576040517f08c379a000000000000000000000000000000000000000000000000000000000815260040161373e90616e64565b60405180910390fd5b6137508161457e565b50565b600060019054906101000a900460ff166137a2576040517f08c379a000000000000000000000000000000000000000000000000000000000815260040161379990616e64565b60405180910390fd5b565b600060019054906101000a900460ff166137f3576040517f08c379a00000000000000000000000000000000000000000000000000000000081526004016137ea90616e64565b60405180910390fd5b6137fb6145d9565b565b600060019054906101000a900460ff1661384c576040517f08c379a000000000000000000000000000000000000000000000000000000000815260040161384390616e64565b60405180910390fd5b613854614645565b565b600060019054906101000a900460ff166138a5576040517f08c379a000000000000000000000000000000000000000000000000000000000815260040161389c90616e64565b60405180910390fd5b565b600060019054906101000a900460ff166138f6576040517f08c379a00000000000000000000000000000000000000000000000000000000081526004016138ed90616e64565b60405180910390fd5b565b600060019054906101000a900460ff16613947576040517f08c379a000000000000000000000000000000000000000000000000000000000815260040161393e90616e64565b60405180910390fd5b565b6139538282612b47565b5050565b600073ffffffffffffffffffffffffffffffffffffffff168473ffffffffffffffffffffffffffffffffffffffff16036139c6576040517f08c379a00000000000000000000000000000000000000000000000000000000081526004016139bd9061698f565b60405180910390fd5b60006139d061281b565b905060006139dd856142e3565b905060006139ea856142e3565b90506139fa838989858589613fa4565b60006065600088815260200190815260200160002060008a73ffffffffffffffffffffffffffffffffffffffff1673ffffffffffffffffffffffffffffffffffffffff16815260200190815260200160002054905085811015613a92576040517f08c379a0000000000000000000000000000000000000000000000000000000008152600401613a8990616a21565b60405180910390fd5b8581036065600089815260200190815260200160002060008b73ffffffffffffffffffffffffffffffffffffffff1673ffffffffffffffffffffffffffffffffffffffff16815260200190815260200160002081905550856065600089815260200190815260200160002060008a73ffffffffffffffffffffffffffffffffffffffff1673ffffffffffffffffffffffffffffffffffffffff1681526020019081526020016000206000828254613b499190616890565b925050819055508773ffffffffffffffffffffffffffffffffffffffff168973ffffffffffffffffffffffffffffffffffffffff168573ffffffffffffffffffffffffffffffffffffffff167fc3d58168c5ae7397731d063d5bbf3d657854427343f4c083240f7aacaa2d0f628a8a604051613bc6929190616d37565b60405180910390a4613bdc848a8a86868a613fc2565b613bea848a8a8a8a8a61435d565b505050505050505050565b600073ffffffffffffffffffffffffffffffffffffffff168373ffffffffffffffffffffffffffffffffffffffff1603613c64576040517f08c379a0000000000000000000000000000000000000000000000000000000008152600401613c5b90616c19565b60405180910390fd5b6000613c6e61281b565b90506000613c7b846142e3565b90506000613c88846142e3565b9050613ca883876000858560405180602001604052806000815250613fa4565b60006065600087815260200190815260200160002060008873ffffffffffffffffffffffffffffffffffffffff1673ffffffffffffffffffffffffffffffffffffffff16815260200190815260200160002054905084811015613d40576040517f08c379a0000000000000000000000000000000000000000000000000000000008152600401613d3790616cab565b60405180910390fd5b8481036065600088815260200190815260200160002060008973ffffffffffffffffffffffffffffffffffffffff1673ffffffffffffffffffffffffffffffffffffffff16815260200190815260200160002081905550600073ffffffffffffffffffffffffffffffffffffffff168773ffffffffffffffffffffffffffffffffffffffff168573ffffffffffffffffffffffffffffffffffffffff167fc3d58168c5ae7397731d063d5bbf3d657854427343f4c083240f7aacaa2d0f628989604051613e0e929190616d37565b60405180910390a4613e3484886000868660405180602001604052806000815250613fc2565b50505050505050565b60007fd9b67a26000000000000000000000000000000000000000000000000000000007bffffffffffffffffffffffffffffffffffffffffffffffffffffffff1916827bffffffffffffffffffffffffffffffffffffffffffffffffffffffff19161480613f0857507f0e89341c000000000000000000000000000000000000000000000000000000007bffffffffffffffffffffffffffffffffffffffffffffffffffffffff1916827bffffffffffffffffffffffffffffffffffffffffffffffffffffffff1916145b80613f185750613f17826146a6565b5b9050919050565b613f298282611c9a565b613fa057613f3681614710565b613f448360001c602061473d565b604051602001613f55929190616f58565b6040516020818303038152906040526040517f08c379a0000000000000000000000000000000000000000000000000000000008152600401613f9791906152c2565b60405180910390fd5b5050565b613fac614534565b613fba868686868686614979565b505050505050565b505050505050565b613fe98473ffffffffffffffffffffffffffffffffffffffff16614b4c565b15614199578373ffffffffffffffffffffffffffffffffffffffff1663bc197c8187878686866040518663ffffffff1660e01b815260040161402f959493929190616fdc565b6020604051808303816000875af192505050801561406b57506040513d601f19601f820116820180604052508101906140689190617059565b60015b61411057614077617093565b806308c379a0036140d3575061408b6170b5565b8061409657506140d5565b806040517f08c379a00000000000000000000000000000000000000000000000000000000081526004016140ca91906152c2565b60405180910390fd5b505b6040517f08c379a0000000000000000000000000000000000000000000000000000000008152600401614107906171b7565b60405180910390fd5b63bc197c8160e01b7bffffffffffffffffffffffffffffffffffffffffffffffffffffffff1916817bffffffffffffffffffffffffffffffffffffffffffffffffffffffff191614614197576040517f08c379a000000000000000000000000000000000000000000000000000000000815260040161418e90617249565b60405180910390fd5b505b505050505050565b6000819050919050565b6000819050919050565b6141be81614b4c565b6141fd576040517f08c379a00000000000000000000000000000000000000000000000000000000081526004016141f4906172db565b60405180910390fd5b8061422a7f360894a13ba1a3210667c828492db98dca3e2076cc3735a920a3ca505d382bbc60001b6141a1565b60000160006101000a81548173ffffffffffffffffffffffffffffffffffffffff021916908373ffffffffffffffffffffffffffffffffffffffff16021790555050565b61427783614b6f565b6000825111806142845750805b15614295576142938383614bbe565b505b505050565b6142a26118a4565b6142e1576040517f08c379a00000000000000000000000000000000000000000000000000000000081526004016142d890617347565b60405180910390fd5b565b60606000600167ffffffffffffffff81111561430257614301615099565b5b6040519080825280602002602001820160405280156143305781602001602082028036833780820191505090505b5090508281600081518110614348576143476162ba565b5b60200260200101818152505080915050919050565b61437c8473ffffffffffffffffffffffffffffffffffffffff16614b4c565b1561452c578373ffffffffffffffffffffffffffffffffffffffff1663f23a6e6187878686866040518663ffffffff1660e01b81526004016143c2959493929190617367565b6020604051808303816000875af19250505080156143fe57506040513d601f19601f820116820180604052508101906143fb9190617059565b60015b6144a35761440a617093565b806308c379a003614466575061441e6170b5565b806144295750614468565b806040517f08c379a000000000000000000000000000000000000000000000000000000000815260040161445d91906152c2565b60405180910390fd5b505b6040517f08c379a000000000000000000000000000000000000000000000000000000000815260040161449a906171b7565b60405180910390fd5b63f23a6e6160e01b7bffffffffffffffffffffffffffffffffffffffffffffffffffffffff1916817bffffffffffffffffffffffffffffffffffffffffffffffffffffffff19161461452a576040517f08c379a000000000000000000000000000000000000000000000000000000000815260040161452190617249565b60405180910390fd5b505b505050505050565b61453c6118a4565b1561457c576040517f08c379a00000000000000000000000000000000000000000000000000000000081526004016145739061740d565b60405180910390fd5b565b600060019054906101000a900460ff166145cd576040517f08c379a00000000000000000000000000000000000000000000000000000000081526004016145c490616e64565b60405180910390fd5b6145d6816125d4565b50565b600060019054906101000a900460ff16614628576040517f08c379a000000000000000000000000000000000000000000000000000000000815260040161461f90616e64565b60405180910390fd5b600060c960006101000a81548160ff021916908315150217905550565b600060019054906101000a900460ff16614694576040517f08c379a000000000000000000000000000000000000000000000000000000000815260040161468b90616e64565b60405180910390fd5b6146a461469f61281b565b6132b0565b565b60007f01ffc9a7000000000000000000000000000000000000000000000000000000007bffffffffffffffffffffffffffffffffffffffffffffffffffffffff1916827bffffffffffffffffffffffffffffffffffffffffffffffffffffffff1916149050919050565b60606147368273ffffffffffffffffffffffffffffffffffffffff16601460ff1661473d565b9050919050565b606060006002836002614750919061742d565b61475a9190616890565b67ffffffffffffffff81111561477357614772615099565b5b6040519080825280601f01601f1916602001820160405280156147a55781602001600182028036833780820191505090505b5090507f3000000000000000000000000000000000000000000000000000000000000000816000815181106147dd576147dc6162ba565b5b60200101907effffffffffffffffffffffffffffffffffffffffffffffffffffffffffffff1916908160001a9053507f780000000000000000000000000000000000000000000000000000000000000081600181518110614841576148406162ba565b5b60200101907effffffffffffffffffffffffffffffffffffffffffffffffffffffffffffff1916908160001a90535060006001846002614881919061742d565b61488b9190616890565b90505b600181111561492b577f3031323334353637383961626364656600000000000000000000000000000000600f8616601081106148cd576148cc6162ba565b5b1a60f81b8282815181106148e4576148e36162ba565b5b60200101907effffffffffffffffffffffffffffffffffffffffffffffffffffffffffffff1916908160001a905350600485901c94508061492490617487565b905061488e565b506000841461496f576040517f08c379a0000000000000000000000000000000000000000000000000000000008152600401614966906174fc565b60405180910390fd5b8091505092915050565b614987868686868686614ca2565b600073ffffffffffffffffffffffffffffffffffffffff168573ffffffffffffffffffffffffffffffffffffffff1603614a395760005b8351811015614a37578281815181106149da576149d96162ba565b5b60200260200101516101f560008684815181106149fa576149f96162ba565b5b602002602001015181526020019081526020016000206000828254614a1f9190616890565b9250508190555080614a3090616318565b90506149be565b505b600073ffffffffffffffffffffffffffffffffffffffff168473ffffffffffffffffffffffffffffffffffffffff1603614b445760005b8351811015614b42576000848281518110614a8e57614a8d6162ba565b5b602002602001015190506000848381518110614aad57614aac6162ba565b5b6020026020010151905060006101f5600084815260200190815260200160002054905081811015614b13576040517f08c379a0000000000000000000000000000000000000000000000000000000008152600401614b0a9061758e565b60405180910390fd5b8181036101f560008581526020019081526020016000208190555050505080614b3b90616318565b9050614a70565b505b505050505050565b6000808273ffffffffffffffffffffffffffffffffffffffff163b119050919050565b614b78816141b5565b8073ffffffffffffffffffffffffffffffffffffffff167fbc7cd75a20ee27fd9adebab32041f755214dbc6bffa90cc0225b39da2e5c2d3b60405160405180910390a250565b6060614bc983614b4c565b614c08576040517f08c379a0000000000000000000000000000000000000000000000000000000008152600401614bff90617620565b60405180910390fd5b6000808473ffffffffffffffffffffffffffffffffffffffff1684604051614c30919061655d565b600060405180830381855af49150503d8060008114614c6b576040519150601f19603f3d011682016040523d82523d6000602084013e614c70565b606091505b5091509150614c9882826040518060600160405280602781526020016176d360279139614d00565b9250505092915050565b614cb0868686868686614d22565b614cb86118a4565b15614cf8576040517f08c379a0000000000000000000000000000000000000000000000000000000008152600401614cef906176b2565b60405180910390fd5b505050505050565b60608315614d1057829050614d1b565b614d1a8383614d2a565b5b9392505050565b505050505050565b600082511115614d3d5781518083602001fd5b806040517f08c379a0000000000000000000000000000000000000000000000000000000008152600401614d7191906152c2565b60405180910390fd5b828054828255906000526020600020908101928215614db6579160200282015b82811115614db5578251825591602001919060010190614d9a565b5b509050614dc39190614e4d565b5090565b828054614dd390615df9565b90600052602060002090601f016020900481019282614df55760008555614e3c565b82601f10614e0e57805160ff1916838001178555614e3c565b82800160010185558215614e3c579182015b82811115614e3b578251825591602001919060010190614e20565b5b509050614e499190614e6a565b5090565b5b80821115614e66576000816000905550600101614e4e565b5090565b5b80821115614e83576000816000905550600101614e6b565b5090565b600073ffffffffffffffffffffffffffffffffffffffff82169050919050565b6000614eb282614e87565b9050919050565b614ec281614ea7565b82525050565b6000602082019050614edd6000830184614eb9565b92915050565b6000604051905090565b600080fd5b600080fd5b614f0081614ea7565b8114614f0b57600080fd5b50565b600081359050614f1d81614ef7565b92915050565b6000819050919050565b614f3681614f23565b8114614f4157600080fd5b50565b600081359050614f5381614f2d565b92915050565b60008060408385031215614f7057614f6f614eed565b5b6000614f7e85828601614f0e565b9250506020614f8f85828601614f44565b9150509250929050565b614fa281614f23565b82525050565b6000602082019050614fbd6000830184614f99565b92915050565b60007fffffffff0000000000000000000000000000000000000000000000000000000082169050919050565b614ff881614fc3565b811461500357600080fd5b50565b60008135905061501581614fef565b92915050565b60006020828403121561503157615030614eed565b5b600061503f84828501615006565b91505092915050565b60008115159050919050565b61505d81615048565b82525050565b60006020820190506150786000830184615054565b92915050565b600080fd5b600080fd5b6000601f19601f8301169050919050565b7f4e487b7100000000000000000000000000000000000000000000000000000000600052604160045260246000fd5b6150d182615088565b810181811067ffffffffffffffff821117156150f0576150ef615099565b5b80604052505050565b6000615103614ee3565b905061510f82826150c8565b919050565b600067ffffffffffffffff82111561512f5761512e615099565b5b61513882615088565b9050602081019050919050565b82818337600083830152505050565b600061516761516284615114565b6150f9565b90508281526020810184848401111561518357615182615083565b5b61518e848285615145565b509392505050565b600082601f8301126151ab576151aa61507e565b5b81356151bb848260208601615154565b91505092915050565b6000602082840312156151da576151d9614eed565b5b600082013567ffffffffffffffff8111156151f8576151f7614ef2565b5b61520484828501615196565b91505092915050565b60006020828403121561522357615222614eed565b5b600061523184828501614f44565b91505092915050565b600081519050919050565b600082825260208201905092915050565b60005b83811015615274578082015181840152602081019050615259565b83811115615283576000848401525b50505050565b60006152948261523a565b61529e8185615245565b93506152ae818560208601615256565b6152b781615088565b840191505092915050565b600060208201905081810360008301526152dc8184615289565b905092915050565b600067ffffffffffffffff8211156152ff576152fe615099565b5b602082029050602081019050919050565b600080fd5b6000615328615323846152e4565b6150f9565b9050808382526020820190506020840283018581111561534b5761534a615310565b5b835b8181101561537457806153608882614f44565b84526020840193505060208101905061534d565b5050509392505050565b600082601f8301126153935761539261507e565b5b81356153a3848260208601615315565b91505092915050565b600067ffffffffffffffff8211156153c7576153c6615099565b5b6153d082615088565b9050602081019050919050565b60006153f06153eb846153ac565b6150f9565b90508281526020810184848401111561540c5761540b615083565b5b615417848285615145565b509392505050565b600082601f8301126154345761543361507e565b5b81356154448482602086016153dd565b91505092915050565b6000806000806080858703121561546757615466614eed565b5b600061547587828801614f0e565b945050602085013567ffffffffffffffff81111561549657615495614ef2565b5b6154a28782880161537e565b935050604085013567ffffffffffffffff8111156154c3576154c2614ef2565b5b6154cf8782880161537e565b925050606085013567ffffffffffffffff8111156154f0576154ef614ef2565b5b6154fc8782880161541f565b91505092959194509250565b6000819050919050565b61551b81615508565b811461552657600080fd5b50565b60008135905061553881615512565b92915050565b60006020828403121561555457615553614eed565b5b600061556284828501615529565b91505092915050565b61557481615508565b82525050565b600060208201905061558f600083018461556b565b92915050565b6000602082840312156155ab576155aa614eed565b5b60006155b984828501614f0e565b91505092915050565b600080600080600060a086880312156155de576155dd614eed565b5b60006155ec88828901614f0e565b95505060206155fd88828901614f0e565b945050604086013567ffffffffffffffff81111561561e5761561d614ef2565b5b61562a8882890161537e565b935050606086013567ffffffffffffffff81111561564b5761564a614ef2565b5b6156578882890161537e565b925050608086013567ffffffffffffffff81111561567857615677614ef2565b5b6156848882890161541f565b9150509295509295909350565b600080604083850312156156a8576156a7614eed565b5b60006156b685828601615529565b92505060206156c785828601614f0e565b9150509250929050565b600080604083850312156156e8576156e7614eed565b5b60006156f685828601614f44565b925050602061570785828601614f0e565b9150509250929050565b600067ffffffffffffffff82111561572c5761572b615099565b5b602082029050602081019050919050565b600061575061574b84615711565b6150f9565b9050808382526020820190506020840283018581111561577357615772615310565b5b835b8181101561579c57806157888882614f0e565b845260208401935050602081019050615775565b5050509392505050565b600082601f8301126157bb576157ba61507e565b5b81356157cb84826020860161573d565b91505092915050565b600080604083850312156157eb576157ea614eed565b5b600083013567ffffffffffffffff81111561580957615808614ef2565b5b615815858286016157a6565b925050602083013567ffffffffffffffff81111561583657615835614ef2565b5b6158428582860161537e565b9150509250929050565b600081519050919050565b600082825260208201905092915050565b6000819050602082019050919050565b61588181614f23565b82525050565b60006158938383615878565b60208301905092915050565b6000602082019050919050565b60006158b78261584c565b6158c18185615857565b93506158cc83615868565b8060005b838110156158fd5781516158e48882615887565b97506158ef8361589f565b9250506001810190506158d0565b5085935050505092915050565b6000602082019050818103600083015261592481846158ac565b905092915050565b6000806040838503121561594357615942614eed565b5b600061595185828601614f0e565b925050602083013567ffffffffffffffff81111561597257615971614ef2565b5b61597e8582860161541f565b9150509250929050565b6000806000606084860312156159a1576159a0614eed565b5b60006159af86828701614f0e565b935050602084013567ffffffffffffffff8111156159d0576159cf614ef2565b5b6159dc8682870161537e565b925050604084013567ffffffffffffffff8111156159fd576159fc614ef2565b5b615a098682870161537e565b9150509250925092565b60008060008060808587031215615a2d57615a2c614eed565b5b6000615a3b87828801614f0e565b9450506020615a4c87828801614f44565b9350506040615a5d87828801614f44565b925050606085013567ffffffffffffffff811115615a7e57615a7d614ef2565b5b615a8a8782880161541f565b91505092959194509250565b615a9f81615048565b8114615aaa57600080fd5b50565b600081359050615abc81615a96565b92915050565b60008060408385031215615ad957615ad8614eed565b5b6000615ae785828601614f0e565b9250506020615af885828601615aad565b9150509250929050565b60008060408385031215615b1957615b18614eed565b5b6000615b2785828601614f0e565b9250506020615b3885828601614f0e565b9150509250929050565b600067ffffffffffffffff821115615b5d57615b5c615099565b5b602082029050602081019050919050565b6000615b81615b7c84615b42565b6150f9565b90508083825260208201905060208402830185811115615ba457615ba3615310565b5b835b81811015615bcd5780615bb98882615529565b845260208401935050602081019050615ba6565b5050509392505050565b600082601f830112615bec57615beb61507e565b5b8135615bfc848260208601615b6e565b91505092915050565b600060208284031215615c1b57615c1a614eed565b5b600082013567ffffffffffffffff811115615c3957615c38614ef2565b5b615c4584828501615bd7565b91505092915050565b600080600080600060a08688031215615c6a57615c69614eed565b5b6000615c7888828901614f0e565b9550506020615c8988828901614f0e565b9450506040615c9a88828901614f44565b9350506060615cab88828901614f44565b925050608086013567ffffffffffffffff811115615ccc57615ccb614ef2565b5b615cd88882890161541f565b9150509295509295909350565b600080600060608486031215615cfe57615cfd614eed565b5b6000615d0c86828701614f0e565b9350506020615d1d86828701614f44565b9250506040615d2e86828701614f44565b9150509250925092565b7f455243313135353a2061646472657373207a65726f206973206e6f742061207660008201527f616c6964206f776e657200000000000000000000000000000000000000000000602082015250565b6000615d94602a83615245565b9150615d9f82615d38565b604082019050919050565b60006020820190508181036000830152615dc381615d87565b9050919050565b7f4e487b7100000000000000000000000000000000000000000000000000000000600052602260045260246000fd5b60006002820490506001821680615e1157607f821691505b602082108103615e2457615e23615dca565b5b50919050565b7f50726f66696c653a206d757374206861766520757067726164657220726f6c6560008201527f20746f20736574206974656d206469737472696275746f720000000000000000602082015250565b6000615e86603883615245565b9150615e9182615e2a565b604082019050919050565b60006020820190508181036000830152615eb581615e79565b9050919050565b7f455243313135353a2063616c6c6572206973206e6f7420746f6b656e206f776e60008201527f6572206f7220617070726f766564000000000000000000000000000000000000602082015250565b6000615f18602e83615245565b9150615f2382615ebc565b604082019050919050565b60006020820190508181036000830152615f4781615f0b565b9050919050565b7f416363657373436f6e74726f6c3a2063616e206f6e6c792072656e6f756e636560008201527f20726f6c657320666f722073656c660000000000000000000000000000000000602082015250565b6000615faa602f83615245565b9150615fb582615f4e565b604082019050919050565b60006020820190508181036000830152615fd981615f9d565b9050919050565b7f46756e6374696f6e206d7573742062652063616c6c6564207468726f7567682060008201527f64656c656761746563616c6c0000000000000000000000000000000000000000602082015250565b600061603c602c83615245565b915061604782615fe0565b604082019050919050565b6000602082019050818103600083015261606b8161602f565b9050919050565b7f46756e6374696f6e206d7573742062652063616c6c6564207468726f7567682060008201527f6163746976652070726f78790000000000000000000000000000000000000000602082015250565b60006160ce602c83615245565b91506160d982616072565b604082019050919050565b600060208201905081810360008301526160fd816160c1565b9050919050565b7f50726f66696c653a206d7573742068617665206d696e74657220726f6c65207460008201527f6f207472616e73666572207661756c7400000000000000000000000000000000602082015250565b6000616160603083615245565b915061616b82616104565b604082019050919050565b6000602082019050818103600083015261618f81616153565b9050919050565b7f50726f66696c653a206d757374206265206f776e6572206f66207661756c742060008201527f746f207472616e73666572207661756c74000000000000000000000000000000602082015250565b60006161f2603183615245565b91506161fd82616196565b604082019050919050565b60006020820190508181036000830152616221816161e5565b9050919050565b7f455243313135353a206163636f756e747320616e6420696473206c656e67746860008201527f206d69736d617463680000000000000000000000000000000000000000000000602082015250565b6000616284602983615245565b915061628f82616228565b604082019050919050565b600060208201905081810360008301526162b381616277565b9050919050565b7f4e487b7100000000000000000000000000000000000000000000000000000000600052603260045260246000fd5b7f4e487b7100000000000000000000000000000000000000000000000000000000600052601160045260246000fd5b600061632382614f23565b91507fffffffffffffffffffffffffffffffffffffffffffffffffffffffffffffffff8203616355576163546162e9565b5b600182019050919050565b7f50726f66696c653a206d757374206861766520757067726164657220726f6c6560008201527f20746f2073657420656e6372797074696f6e20746f6f6c730000000000000000602082015250565b60006163bc603883615245565b91506163c782616360565b604082019050919050565b600060208201905081810360008301526163eb816163af565b9050919050565b7f555550535570677261646561626c653a206d757374206e6f742062652063616c60008201527f6c6564207468726f7567682064656c656761746563616c6c0000000000000000602082015250565b600061644e603883615245565b9150616459826163f2565b604082019050919050565b6000602082019050818103600083015261647d81616441565b9050919050565b7f50726f66696c653a206d7573742068617665206d696e74657220726f6c65207460008201527f6f20637265617465207661756c74000000000000000000000000000000000000602082015250565b60006164e0602e83615245565b91506164eb82616484565b604082019050919050565b6000602082019050818103600083015261650f816164d3565b9050919050565b600081519050919050565b600081905092915050565b600061653782616516565b6165418185616521565b9350616551818560208601615256565b80840191505092915050565b6000616569828461652c565b915081905092915050565b60008151905061658381614f2d565b92915050565b60006020828403121561659f5761659e614eed565b5b60006165ad84828501616574565b91505092915050565b7f50726f66696c653a206d7573742068617665206d696e74657220726f6c65207460008201527f6f20637265617465206974656d00000000000000000000000000000000000000602082015250565b6000616612602d83615245565b915061661d826165b6565b604082019050919050565b6000602082019050818103600083015261664181616605565b9050919050565b7f4f776e61626c653a206e6577206f776e657220697320746865207a65726f206160008201527f6464726573730000000000000000000000000000000000000000000000000000602082015250565b60006166a4602683615245565b91506166af82616648565b604082019050919050565b600060208201905081810360008301526166d381616697565b9050919050565b7f50726f66696c653a206d757374206861766520757067726164657220726f6c6560008201527f20746f20736574206974656d20747261636b6572000000000000000000000000602082015250565b6000616736603483615245565b9150616741826166da565b604082019050919050565b6000602082019050818103600083015261676581616729565b9050919050565b7f455243313135353a206d696e7420746f20746865207a65726f2061646472657360008201527f7300000000000000000000000000000000000000000000000000000000000000602082015250565b60006167c8602183615245565b91506167d38261676c565b604082019050919050565b600060208201905081810360008301526167f7816167bb565b9050919050565b7f455243313135353a2069647320616e6420616d6f756e7473206c656e6774682060008201527f6d69736d61746368000000000000000000000000000000000000000000000000602082015250565b600061685a602883615245565b9150616865826167fe565b604082019050919050565b600060208201905081810360008301526168898161684d565b9050919050565b600061689b82614f23565b91506168a683614f23565b9250827fffffffffffffffffffffffffffffffffffffffffffffffffffffffffffffffff038211156168db576168da6162e9565b5b828201905092915050565b6000604082019050818103600083015261690081856158ac565b9050818103602083015261691481846158ac565b90509392505050565b7f455243313135353a207472616e7366657220746f20746865207a65726f20616460008201527f6472657373000000000000000000000000000000000000000000000000000000602082015250565b6000616979602583615245565b91506169848261691d565b604082019050919050565b600060208201905081810360008301526169a88161696c565b9050919050565b7f455243313135353a20696e73756666696369656e742062616c616e636520666f60008201527f72207472616e7366657200000000000000000000000000000000000000000000602082015250565b6000616a0b602a83615245565b9150616a16826169af565b604082019050919050565b60006020820190508181036000830152616a3a816169fe565b9050919050565b600081519050616a5081615512565b92915050565b600060208284031215616a6c57616a6b614eed565b5b6000616a7a84828501616a41565b91505092915050565b7f45524331393637557067726164653a206e657720696d706c656d656e7461746960008201527f6f6e206973206e6f742055555053000000000000000000000000000000000000602082015250565b6000616adf602e83615245565b9150616aea82616a83565b604082019050919050565b60006020820190508181036000830152616b0e81616ad2565b9050919050565b7f45524331393637557067726164653a20756e737570706f727465642070726f7860008201527f6961626c65555549440000000000000000000000000000000000000000000000602082015250565b6000616b71602983615245565b9150616b7c82616b15565b604082019050919050565b60006020820190508181036000830152616ba081616b64565b9050919050565b7f455243313135353a206275726e2066726f6d20746865207a65726f206164647260008201527f6573730000000000000000000000000000000000000000000000000000000000602082015250565b6000616c03602383615245565b9150616c0e82616ba7565b604082019050919050565b60006020820190508181036000830152616c3281616bf6565b9050919050565b7f455243313135353a206275726e20616d6f756e7420657863656564732062616c60008201527f616e636500000000000000000000000000000000000000000000000000000000602082015250565b6000616c95602483615245565b9150616ca082616c39565b604082019050919050565b60006020820190508181036000830152616cc481616c88565b9050919050565b7f4f776e61626c653a2063616c6c6572206973206e6f7420746865206f776e6572600082015250565b6000616d01602083615245565b9150616d0c82616ccb565b602082019050919050565b60006020820190508181036000830152616d3081616cf4565b9050919050565b6000604082019050616d4c6000830185614f99565b616d596020830184614f99565b9392505050565b7f455243313135353a2073657474696e6720617070726f76616c2073746174757360008201527f20666f722073656c660000000000000000000000000000000000000000000000602082015250565b6000616dbc602983615245565b9150616dc782616d60565b604082019050919050565b60006020820190508181036000830152616deb81616daf565b9050919050565b7f496e697469616c697a61626c653a20636f6e7472616374206973206e6f74206960008201527f6e697469616c697a696e67000000000000000000000000000000000000000000602082015250565b6000616e4e602b83615245565b9150616e5982616df2565b604082019050919050565b60006020820190508181036000830152616e7d81616e41565b9050919050565b600081905092915050565b7f416363657373436f6e74726f6c3a206163636f756e7420000000000000000000600082015250565b6000616ec5601783616e84565b9150616ed082616e8f565b601782019050919050565b6000616ee68261523a565b616ef08185616e84565b9350616f00818560208601615256565b80840191505092915050565b7f206973206d697373696e6720726f6c6520000000000000000000000000000000600082015250565b6000616f42601183616e84565b9150616f4d82616f0c565b601182019050919050565b6000616f6382616eb8565b9150616f6f8285616edb565b9150616f7a82616f35565b9150616f868284616edb565b91508190509392505050565b600082825260208201905092915050565b6000616fae82616516565b616fb88185616f92565b9350616fc8818560208601615256565b616fd181615088565b840191505092915050565b600060a082019050616ff16000830188614eb9565b616ffe6020830187614eb9565b818103604083015261701081866158ac565b9050818103606083015261702481856158ac565b905081810360808301526170388184616fa3565b90509695505050505050565b60008151905061705381614fef565b92915050565b60006020828403121561706f5761706e614eed565b5b600061707d84828501617044565b91505092915050565b60008160e01c9050919050565b600060033d11156170b25760046000803e6170af600051617086565b90505b90565b600060443d10617142576170c7614ee3565b60043d036004823e80513d602482011167ffffffffffffffff821117156170ef575050617142565b808201805167ffffffffffffffff81111561710d5750505050617142565b80602083010160043d03850181111561712a575050505050617142565b617139826020018501866150c8565b82955050505050505b90565b7f455243313135353a207472616e7366657220746f206e6f6e2d4552433131353560008201527f526563656976657220696d706c656d656e746572000000000000000000000000602082015250565b60006171a1603483615245565b91506171ac82617145565b604082019050919050565b600060208201905081810360008301526171d081617194565b9050919050565b7f455243313135353a204552433131353552656365697665722072656a6563746560008201527f6420746f6b656e73000000000000000000000000000000000000000000000000602082015250565b6000617233602883615245565b915061723e826171d7565b604082019050919050565b6000602082019050818103600083015261726281617226565b9050919050565b7f455243313936373a206e657720696d706c656d656e746174696f6e206973206e60008201527f6f74206120636f6e747261637400000000000000000000000000000000000000602082015250565b60006172c5602d83615245565b91506172d082617269565b604082019050919050565b600060208201905081810360008301526172f4816172b8565b9050919050565b7f5061757361626c653a206e6f7420706175736564000000000000000000000000600082015250565b6000617331601483615245565b915061733c826172fb565b602082019050919050565b6000602082019050818103600083015261736081617324565b9050919050565b600060a08201905061737c6000830188614eb9565b6173896020830187614eb9565b6173966040830186614f99565b6173a36060830185614f99565b81810360808301526173b58184616fa3565b90509695505050505050565b7f5061757361626c653a2070617573656400000000000000000000000000000000600082015250565b60006173f7601083615245565b9150617402826173c1565b602082019050919050565b60006020820190508181036000830152617426816173ea565b9050919050565b600061743882614f23565b915061744383614f23565b9250817fffffffffffffffffffffffffffffffffffffffffffffffffffffffffffffffff048311821515161561747c5761747b6162e9565b5b828202905092915050565b600061749282614f23565b9150600082036174a5576174a46162e9565b5b600182039050919050565b7f537472696e67733a20686578206c656e67746820696e73756666696369656e74600082015250565b60006174e6602083615245565b91506174f1826174b0565b602082019050919050565b60006020820190508181036000830152617515816174d9565b9050919050565b7f455243313135353a206275726e20616d6f756e74206578636565647320746f7460008201527f616c537570706c79000000000000000000000000000000000000000000000000602082015250565b6000617578602883615245565b91506175838261751c565b604082019050919050565b600060208201905081810360008301526175a78161756b565b9050919050565b7f416464726573733a2064656c65676174652063616c6c20746f206e6f6e2d636f60008201527f6e74726163740000000000000000000000000000000000000000000000000000602082015250565b600061760a602683615245565b9150617615826175ae565b604082019050919050565b60006020820190508181036000830152617639816175fd565b9050919050565b7f455243313135355061757361626c653a20746f6b656e207472616e736665722060008201527f7768696c65207061757365640000000000000000000000000000000000000000602082015250565b600061769c602c83615245565b91506176a782617640565b604082019050919050565b600060208201905081810360008301526176cb8161768f565b905091905056fe416464726573733a206c6f772d6c6576656c2064656c65676174652063616c6c206661696c6564a264697066735822122006b76f1462e2ecca1c9cef3cac24e0071a63a884302024d77b747403cd1fe70e64736f6c634300080e0033",
  "immutableReferences": {
    "1129": [
      {
        "length": 32,
        "start": 4357
      },
      {
        "length": 32,
        "start": 4499
      },
      {
        "length": 32,
        "start": 5560
      },
      {
        "length": 32,
        "start": 5702
      },
      {
        "length": 32,
        "start": 6127
      }
    ]
  },
  "source": "// SPDX-License-Identifier: MIT\r\npragma solidity ^0.8.4;\r\n\r\nimport \"@openzeppelin/contracts-upgradeable/token/ERC1155/ERC1155Upgradeable.sol\";\r\nimport \"@openzeppelin/contracts-upgradeable/token/ERC1155/extensions/ERC1155BurnableUpgradeable.sol\";\r\nimport \"@openzeppelin/contracts-upgradeable/token/ERC1155/extensions/ERC1155PausableUpgradeable.sol\";\r\nimport \"@openzeppelin/contracts-upgradeable/access/OwnableUpgradeable.sol\";\r\nimport \"@openzeppelin/contracts-upgradeable/proxy/utils/Initializable.sol\";\r\nimport \"@openzeppelin/contracts-upgradeable/proxy/utils/UUPSUpgradeable.sol\";\r\nimport \"@openzeppelin/contracts-upgradeable/access/AccessControlUpgradeable.sol\";\r\nimport \"@openzeppelin/contracts-upgradeable/token/ERC1155/extensions/ERC1155SupplyUpgradeable.sol\";\r\n\r\n// this contract is a proxy to the Vault Contract\r\n// This contract is used to manage vaults and can be accessed by users as an interface to the vault contract\r\n// it is used to create a new vaults and to access and manage vaults, and create items\r\n// it is used to create a new vault fragment and to access vault fragments\r\n// \r\n\r\n\r\n\r\ncontract Profile is Initializable, ERC1155Upgradeable, ERC1155BurnableUpgradeable, ERC1155PausableUpgradeable, OwnableUpgradeable, UUPSUpgradeable, AccessControlUpgradeable, ERC1155SupplyUpgradeable {\r\n    struct Item {\r\n        bytes32[] encryptedItem;\r\n    }\r\n    event EncryptionToolsSet(address _encryptionTools);\r\n    bytes32 public constant URI_SETTER_ROLE = keccak256(\"URI_SETTER_ROLE\");\r\n    bytes32 public constant PAUSER_ROLE = keccak256(\"PAUSER_ROLE\");\r\n    bytes32 public constant MINTER_ROLE = keccak256(\"MINTER_ROLE\");\r\n    bytes32 public constant UPGRADER_ROLE = keccak256(\"UPGRADER_ROLE\");\r\n    address public ETAddress;\r\n    uint256 public itemID;\r\n    mapping (uint256 => Item) internal items;\r\n    address public ITAddress;\r\n    address public newOwner;\r\n    address public IDAddress;\r\n    event ItemTrackerSet(address _itemTracker);\r\n    mapping(uint256 => address) public itemOwners;\r\n    event ItemDisplacerSet(address _itemDisplacer);\r\n    address public vaultAddress;\r\n    mapping(uint256 => address) public vaults;\r\n    mapping(uint256 => uint256) public vaultIDs;\r\n    mapping(uint256 => uint256) public vaultBalances;\r\n    event VaultSet(address _vault);\r\n    mapping(uint256 => uint256) public Profiles;\r\n    mapping(uint256 => uint256) public ProfileIDs;\r\n    mapping(uint256 => uint256) public ProfileBalances;\r\n        \r\n\r\n    // initialize the contract\r\n    function initialize(address _vaultAddress) public {\r\n        __ERC1155_init(\"https://ipfs.io/ipfs/\");\r\n        __ERC1155Burnable_init();\r\n        __ERC1155Pausable_init();\r\n        __Ownable_init();\r\n        __UUPSUpgradeable_init();\r\n        __AccessControl_init();\r\n        __ERC1155Supply_init();\r\n        _setupRole(DEFAULT_ADMIN_ROLE, msg.sender);\r\n        _setupRole(URI_SETTER_ROLE, msg.sender);\r\n        _setupRole(PAUSER_ROLE, msg.sender);\r\n        _setupRole(MINTER_ROLE, msg.sender);\r\n        _setupRole(UPGRADER_ROLE, msg.sender);\r\n        vaultAddress = _vaultAddress;\r\n    }\r\n\r\n    // set the encryption tools address\r\n    function setEncryptionTools(address _encryptionTools) public {\r\n        require(hasRole(UPGRADER_ROLE, msg.sender), \"Profile: must have upgrader role to set encryption tools\");\r\n        ETAddress = _encryptionTools;\r\n        emit EncryptionToolsSet(_encryptionTools);\r\n    }\r\n    // set the item tracker address\r\n    function setItemTracker(address _itemTracker) public {\r\n        require(hasRole(UPGRADER_ROLE, msg.sender), \"Profile: must have upgrader role to set item tracker\");\r\n        ITAddress = _itemTracker;\r\n    }\r\n\r\n    // set the item distributor address\r\n    function setItemDistributor(address _itemDistributor) public {\r\n        require(hasRole(UPGRADER_ROLE, msg.sender), \"Profile: must have upgrader role to set item distributor\");\r\n        IDAddress = _itemDistributor;\r\n    }\r\n\r\n    // create a new item\r\n    function createItem(bytes32[] memory _encryptedItem) public {\r\n        require(hasRole(MINTER_ROLE, msg.sender), \"Profile: must have minter role to create item\");\r\n        items[itemID].encryptedItem = _encryptedItem;\r\n        itemOwners[itemID] = msg.sender;\r\n        _mint(msg.sender, itemID, 1, \"\");\r\n        itemID++;\r\n        (bool success, bytes memory result) = vaultAddress.call(abi.encodeWithSignature(\"addItem(uint256)\", itemID));\r\n    }\r\n\r\n    // create a new vault and add it to the profile\r\n    function createVault() public {\r\n        require(hasRole(MINTER_ROLE, msg.sender), \"Profile: must have minter role to create vault\");\r\n        (bool success, bytes memory result) = vaultAddress.call(abi.encodeWithSignature(\"createVault()\"));\r\n        uint256 vaultID = abi.decode(result, (uint256));\r\n        vaults[vaultID] = msg.sender;\r\n        vaultIDs[vaultID] = vaultID;\r\n        vaultBalances[vaultID] = 1;\r\n    }\r\n\r\n    // transfer ownership of a vault\r\n    function transferVault(uint256 _vaultID, address _newOwner) public {\r\n        require(hasRole(MINTER_ROLE, msg.sender), \"Profile: must have minter role to transfer vault\");\r\n        require(vaults[_vaultID] == msg.sender, \"Profile: must be owner of vault to transfer vault\");\r\n        vaults[_vaultID] = _newOwner;\r\n    }\r\n\r\n    // The following functions are overrides required by Solidity.\r\n    \r\n            function setURI(string memory newuri) public onlyRole(URI_SETTER_ROLE) {\r\n        _setURI(newuri);\r\n    }\r\n\r\n    function pause() public onlyRole(PAUSER_ROLE) {\r\n        _pause();\r\n    }\r\n\r\n    function unpause() public onlyRole(PAUSER_ROLE) {\r\n        _unpause();\r\n    }\r\n\r\n    function mint(address account, uint256 id, uint256 amount, bytes memory data)\r\n        public\r\n        onlyRole(MINTER_ROLE)\r\n    {\r\n        _mint(account, id, amount, data);\r\n    }\r\n\r\n    function mintBatch(address to, uint256[] memory ids, uint256[] memory amounts, bytes memory data)\r\n        public\r\n        onlyRole(MINTER_ROLE)\r\n    {\r\n        _mintBatch(to, ids, amounts, data);\r\n    }\r\n\r\n    function _beforeTokenTransfer(address operator, address from, address to, uint256[] memory ids, uint256[] memory amounts, bytes memory data)\r\n        internal\r\n        whenNotPaused\r\n        override(ERC1155PausableUpgradeable, ERC1155Upgradeable, ERC1155SupplyUpgradeable)\r\n    {\r\n        super._beforeTokenTransfer(operator, from, to, ids, amounts, data);\r\n    }\r\n\r\n    function _authorizeUpgrade(address newImplementation)\r\n        internal\r\n        onlyRole(UPGRADER_ROLE)\r\n        override\r\n    {}\r\n\r\n    function supportsInterface(bytes4 interfaceId)\r\n        public\r\n        view\r\n        override(ERC1155Upgradeable, AccessControlUpgradeable)\r\n        returns (bool)\r\n    {\r\n        return super.supportsInterface(interfaceId);\r\n    }\r\n\r\n}\r\n    \r\n",
  "sourcePath": "C:\\Users\\mosle\\Documents\\GitHub\\nWonderland\\contracts\\DALI\\005_Profile.sol",
  "compiler": {
    "name": "solc",
    "version": "0.8.14+commit.80d49f37.Emscripten.clang"
  },
  "schemaVersion": "3.4.8",
  "updatedAt": "2022-12-09T15:56:11.733Z",
  "devdoc": {
    "kind": "dev",
    "methods": {
      "balanceOf(address,uint256)": {
        "details": "See {IERC1155-balanceOf}. Requirements: - `account` cannot be the zero address."
      },
      "balanceOfBatch(address[],uint256[])": {
        "details": "See {IERC1155-balanceOfBatch}. Requirements: - `accounts` and `ids` must have the same length."
      },
      "exists(uint256)": {
        "details": "Indicates whether any token exist with a given id, or not."
      },
      "getRoleAdmin(bytes32)": {
        "details": "Returns the admin role that controls `role`. See {grantRole} and {revokeRole}. To change a role's admin, use {_setRoleAdmin}."
      },
      "grantRole(bytes32,address)": {
        "details": "Grants `role` to `account`. If `account` had not been already granted `role`, emits a {RoleGranted} event. Requirements: - the caller must have ``role``'s admin role. May emit a {RoleGranted} event."
      },
      "hasRole(bytes32,address)": {
        "details": "Returns `true` if `account` has been granted `role`."
      },
      "isApprovedForAll(address,address)": {
        "details": "See {IERC1155-isApprovedForAll}."
      },
      "owner()": {
        "details": "Returns the address of the current owner."
      },
      "paused()": {
        "details": "Returns true if the contract is paused, and false otherwise."
      },
      "proxiableUUID()": {
        "details": "Implementation of the ERC1822 {proxiableUUID} function. This returns the storage slot used by the implementation. It is used to validate the implementation's compatibility when performing an upgrade. IMPORTANT: A proxy pointing at a proxiable contract should not be considered proxiable itself, because this risks bricking a proxy that upgrades to it, by delegating to itself until out of gas. Thus it is critical that this function revert if invoked through a proxy. This is guaranteed by the `notDelegated` modifier."
      },
      "renounceOwnership()": {
        "details": "Leaves the contract without owner. It will not be possible to call `onlyOwner` functions anymore. Can only be called by the current owner. NOTE: Renouncing ownership will leave the contract without an owner, thereby removing any functionality that is only available to the owner."
      },
      "renounceRole(bytes32,address)": {
        "details": "Revokes `role` from the calling account. Roles are often managed via {grantRole} and {revokeRole}: this function's purpose is to provide a mechanism for accounts to lose their privileges if they are compromised (such as when a trusted device is misplaced). If the calling account had been revoked `role`, emits a {RoleRevoked} event. Requirements: - the caller must be `account`. May emit a {RoleRevoked} event."
      },
      "revokeRole(bytes32,address)": {
        "details": "Revokes `role` from `account`. If `account` had been granted `role`, emits a {RoleRevoked} event. Requirements: - the caller must have ``role``'s admin role. May emit a {RoleRevoked} event."
      },
      "safeBatchTransferFrom(address,address,uint256[],uint256[],bytes)": {
        "details": "See {IERC1155-safeBatchTransferFrom}."
      },
      "safeTransferFrom(address,address,uint256,uint256,bytes)": {
        "details": "See {IERC1155-safeTransferFrom}."
      },
      "setApprovalForAll(address,bool)": {
        "details": "See {IERC1155-setApprovalForAll}."
      },
      "totalSupply(uint256)": {
        "details": "Total amount of tokens in with a given id."
      },
      "transferOwnership(address)": {
        "details": "Transfers ownership of the contract to a new account (`newOwner`). Can only be called by the current owner."
      },
      "upgradeTo(address)": {
        "details": "Upgrade the implementation of the proxy to `newImplementation`. Calls {_authorizeUpgrade}. Emits an {Upgraded} event."
      },
      "upgradeToAndCall(address,bytes)": {
        "details": "Upgrade the implementation of the proxy to `newImplementation`, and subsequently execute the function call encoded in `data`. Calls {_authorizeUpgrade}. Emits an {Upgraded} event."
      },
      "uri(uint256)": {
        "details": "See {IERC1155MetadataURI-uri}. This implementation returns the same URI for *all* token types. It relies on the token type ID substitution mechanism https://eips.ethereum.org/EIPS/eip-1155#metadata[defined in the EIP]. Clients calling this function must replace the `\\{id\\}` substring with the actual token type ID."
      }
    },
    "version": 1
  },
  "userdoc": {
    "kind": "user",
    "methods": {},
    "version": 1
  }
}