{
  "contractName": "Profile",
  "abi": [
    {
      "anonymous": false,
      "inputs": [
        {
          "indexed": false,
          "internalType": "address",
          "name": "previousAdmin",
          "type": "address"
        },
        {
          "indexed": false,
          "internalType": "address",
          "name": "newAdmin",
          "type": "address"
        }
      ],
      "name": "AdminChanged",
      "type": "event"
    },
    {
      "anonymous": false,
      "inputs": [
        {
          "indexed": true,
          "internalType": "address",
          "name": "account",
          "type": "address"
        },
        {
          "indexed": true,
          "internalType": "address",
          "name": "operator",
          "type": "address"
        },
        {
          "indexed": false,
          "internalType": "bool",
          "name": "approved",
          "type": "bool"
        }
      ],
      "name": "ApprovalForAll",
      "type": "event"
    },
    {
      "anonymous": false,
      "inputs": [
        {
          "indexed": true,
          "internalType": "address",
          "name": "beacon",
          "type": "address"
        }
      ],
      "name": "BeaconUpgraded",
      "type": "event"
    },
    {
      "anonymous": false,
      "inputs": [
        {
          "indexed": false,
          "internalType": "address",
          "name": "_encryptionTools",
          "type": "address"
        }
      ],
      "name": "EncryptionToolsSet",
      "type": "event"
    },
    {
      "anonymous": false,
      "inputs": [
        {
          "indexed": false,
          "internalType": "uint8",
          "name": "version",
          "type": "uint8"
        }
      ],
      "name": "Initialized",
      "type": "event"
    },
    {
      "anonymous": false,
      "inputs": [
        {
          "indexed": false,
          "internalType": "address",
          "name": "_itemDisplacer",
          "type": "address"
        }
      ],
      "name": "ItemDisplacerSet",
      "type": "event"
    },
    {
      "anonymous": false,
      "inputs": [
        {
          "indexed": false,
          "internalType": "address",
          "name": "_itemTracker",
          "type": "address"
        }
      ],
      "name": "ItemTrackerSet",
      "type": "event"
    },
    {
      "anonymous": false,
      "inputs": [
        {
          "indexed": true,
          "internalType": "address",
          "name": "previousOwner",
          "type": "address"
        },
        {
          "indexed": true,
          "internalType": "address",
          "name": "newOwner",
          "type": "address"
        }
      ],
      "name": "OwnershipTransferred",
      "type": "event"
    },
    {
      "anonymous": false,
      "inputs": [
        {
          "indexed": false,
          "internalType": "address",
          "name": "account",
          "type": "address"
        }
      ],
      "name": "Paused",
      "type": "event"
    },
    {
      "anonymous": false,
      "inputs": [
        {
          "indexed": true,
          "internalType": "bytes32",
          "name": "role",
          "type": "bytes32"
        },
        {
          "indexed": true,
          "internalType": "bytes32",
          "name": "previousAdminRole",
          "type": "bytes32"
        },
        {
          "indexed": true,
          "internalType": "bytes32",
          "name": "newAdminRole",
          "type": "bytes32"
        }
      ],
      "name": "RoleAdminChanged",
      "type": "event"
    },
    {
      "anonymous": false,
      "inputs": [
        {
          "indexed": true,
          "internalType": "bytes32",
          "name": "role",
          "type": "bytes32"
        },
        {
          "indexed": true,
          "internalType": "address",
          "name": "account",
          "type": "address"
        },
        {
          "indexed": true,
          "internalType": "address",
          "name": "sender",
          "type": "address"
        }
      ],
      "name": "RoleGranted",
      "type": "event"
    },
    {
      "anonymous": false,
      "inputs": [
        {
          "indexed": true,
          "internalType": "bytes32",
          "name": "role",
          "type": "bytes32"
        },
        {
          "indexed": true,
          "internalType": "address",
          "name": "account",
          "type": "address"
        },
        {
          "indexed": true,
          "internalType": "address",
          "name": "sender",
          "type": "address"
        }
      ],
      "name": "RoleRevoked",
      "type": "event"
    },
    {
      "anonymous": false,
      "inputs": [
        {
          "indexed": true,
          "internalType": "address",
          "name": "operator",
          "type": "address"
        },
        {
          "indexed": true,
          "internalType": "address",
          "name": "from",
          "type": "address"
        },
        {
          "indexed": true,
          "internalType": "address",
          "name": "to",
          "type": "address"
        },
        {
          "indexed": false,
          "internalType": "uint256[]",
          "name": "ids",
          "type": "uint256[]"
        },
        {
          "indexed": false,
          "internalType": "uint256[]",
          "name": "values",
          "type": "uint256[]"
        }
      ],
      "name": "TransferBatch",
      "type": "event"
    },
    {
      "anonymous": false,
      "inputs": [
        {
          "indexed": true,
          "internalType": "address",
          "name": "operator",
          "type": "address"
        },
        {
          "indexed": true,
          "internalType": "address",
          "name": "from",
          "type": "address"
        },
        {
          "indexed": true,
          "internalType": "address",
          "name": "to",
          "type": "address"
        },
        {
          "indexed": false,
          "internalType": "uint256",
          "name": "id",
          "type": "uint256"
        },
        {
          "indexed": false,
          "internalType": "uint256",
          "name": "value",
          "type": "uint256"
        }
      ],
      "name": "TransferSingle",
      "type": "event"
    },
    {
      "anonymous": false,
      "inputs": [
        {
          "indexed": false,
          "internalType": "string",
          "name": "value",
          "type": "string"
        },
        {
          "indexed": true,
          "internalType": "uint256",
          "name": "id",
          "type": "uint256"
        }
      ],
      "name": "URI",
      "type": "event"
    },
    {
      "anonymous": false,
      "inputs": [
        {
          "indexed": false,
          "internalType": "address",
          "name": "account",
          "type": "address"
        }
      ],
      "name": "Unpaused",
      "type": "event"
    },
    {
      "anonymous": false,
      "inputs": [
        {
          "indexed": true,
          "internalType": "address",
          "name": "implementation",
          "type": "address"
        }
      ],
      "name": "Upgraded",
      "type": "event"
    },
    {
      "anonymous": false,
      "inputs": [
        {
          "indexed": false,
          "internalType": "address",
          "name": "_vault",
          "type": "address"
        }
      ],
      "name": "VaultSet",
      "type": "event"
    },
    {
      "inputs": [],
      "name": "DEFAULT_ADMIN_ROLE",
      "outputs": [
        {
          "internalType": "bytes32",
          "name": "",
          "type": "bytes32"
        }
      ],
      "stateMutability": "view",
      "type": "function"
    },
    {
      "inputs": [],
      "name": "ETAddress",
      "outputs": [
        {
          "internalType": "address",
          "name": "",
          "type": "address"
        }
      ],
      "stateMutability": "view",
      "type": "function"
    },
    {
      "inputs": [],
      "name": "IDAddress",
      "outputs": [
        {
          "internalType": "address",
          "name": "",
          "type": "address"
        }
      ],
      "stateMutability": "view",
      "type": "function"
    },
    {
      "inputs": [],
      "name": "ITAddress",
      "outputs": [
        {
          "internalType": "address",
          "name": "",
          "type": "address"
        }
      ],
      "stateMutability": "view",
      "type": "function"
    },
    {
      "inputs": [],
      "name": "MINTER_ROLE",
      "outputs": [
        {
          "internalType": "bytes32",
          "name": "",
          "type": "bytes32"
        }
      ],
      "stateMutability": "view",
      "type": "function"
    },
    {
      "inputs": [],
      "name": "PAUSER_ROLE",
      "outputs": [
        {
          "internalType": "bytes32",
          "name": "",
          "type": "bytes32"
        }
      ],
      "stateMutability": "view",
      "type": "function"
    },
    {
      "inputs": [
        {
          "internalType": "uint256",
          "name": "",
          "type": "uint256"
        }
      ],
      "name": "ProfileBalances",
      "outputs": [
        {
          "internalType": "uint256",
          "name": "",
          "type": "uint256"
        }
      ],
      "stateMutability": "view",
      "type": "function"
    },
    {
      "inputs": [
        {
          "internalType": "uint256",
          "name": "",
          "type": "uint256"
        }
      ],
      "name": "ProfileIDs",
      "outputs": [
        {
          "internalType": "uint256",
          "name": "",
          "type": "uint256"
        }
      ],
      "stateMutability": "view",
      "type": "function"
    },
    {
      "inputs": [
        {
          "internalType": "uint256",
          "name": "",
          "type": "uint256"
        }
      ],
      "name": "Profiles",
      "outputs": [
        {
          "internalType": "uint256",
          "name": "",
          "type": "uint256"
        }
      ],
      "stateMutability": "view",
      "type": "function"
    },
    {
      "inputs": [],
      "name": "UPGRADER_ROLE",
      "outputs": [
        {
          "internalType": "bytes32",
          "name": "",
          "type": "bytes32"
        }
      ],
      "stateMutability": "view",
      "type": "function"
    },
    {
      "inputs": [],
      "name": "URI_SETTER_ROLE",
      "outputs": [
        {
          "internalType": "bytes32",
          "name": "",
          "type": "bytes32"
        }
      ],
      "stateMutability": "view",
      "type": "function"
    },
    {
      "inputs": [
        {
          "internalType": "address",
          "name": "account",
          "type": "address"
        },
        {
          "internalType": "uint256",
          "name": "id",
          "type": "uint256"
        }
      ],
      "name": "balanceOf",
      "outputs": [
        {
          "internalType": "uint256",
          "name": "",
          "type": "uint256"
        }
      ],
      "stateMutability": "view",
      "type": "function"
    },
    {
      "inputs": [
        {
          "internalType": "address[]",
          "name": "accounts",
          "type": "address[]"
        },
        {
          "internalType": "uint256[]",
          "name": "ids",
          "type": "uint256[]"
        }
      ],
      "name": "balanceOfBatch",
      "outputs": [
        {
          "internalType": "uint256[]",
          "name": "",
          "type": "uint256[]"
        }
      ],
      "stateMutability": "view",
      "type": "function"
    },
    {
      "inputs": [
        {
          "internalType": "address",
          "name": "account",
          "type": "address"
        },
        {
          "internalType": "uint256",
          "name": "id",
          "type": "uint256"
        },
        {
          "internalType": "uint256",
          "name": "value",
          "type": "uint256"
        }
      ],
      "name": "burn",
      "outputs": [],
      "stateMutability": "nonpayable",
      "type": "function"
    },
    {
      "inputs": [
        {
          "internalType": "address",
          "name": "account",
          "type": "address"
        },
        {
          "internalType": "uint256[]",
          "name": "ids",
          "type": "uint256[]"
        },
        {
          "internalType": "uint256[]",
          "name": "values",
          "type": "uint256[]"
        }
      ],
      "name": "burnBatch",
      "outputs": [],
      "stateMutability": "nonpayable",
      "type": "function"
    },
    {
      "inputs": [
        {
          "internalType": "uint256",
          "name": "id",
          "type": "uint256"
        }
      ],
      "name": "exists",
      "outputs": [
        {
          "internalType": "bool",
          "name": "",
          "type": "bool"
        }
      ],
      "stateMutability": "view",
      "type": "function"
    },
    {
      "inputs": [
        {
          "internalType": "bytes32",
          "name": "role",
          "type": "bytes32"
        }
      ],
      "name": "getRoleAdmin",
      "outputs": [
        {
          "internalType": "bytes32",
          "name": "",
          "type": "bytes32"
        }
      ],
      "stateMutability": "view",
      "type": "function"
    },
    {
      "inputs": [
        {
          "internalType": "bytes32",
          "name": "role",
          "type": "bytes32"
        },
        {
          "internalType": "address",
          "name": "account",
          "type": "address"
        }
      ],
      "name": "grantRole",
      "outputs": [],
      "stateMutability": "nonpayable",
      "type": "function"
    },
    {
      "inputs": [
        {
          "internalType": "bytes32",
          "name": "role",
          "type": "bytes32"
        },
        {
          "internalType": "address",
          "name": "account",
          "type": "address"
        }
      ],
      "name": "hasRole",
      "outputs": [
        {
          "internalType": "bool",
          "name": "",
          "type": "bool"
        }
      ],
      "stateMutability": "view",
      "type": "function"
    },
    {
      "inputs": [
        {
          "internalType": "address",
          "name": "account",
          "type": "address"
        },
        {
          "internalType": "address",
          "name": "operator",
          "type": "address"
        }
      ],
      "name": "isApprovedForAll",
      "outputs": [
        {
          "internalType": "bool",
          "name": "",
          "type": "bool"
        }
      ],
      "stateMutability": "view",
      "type": "function"
    },
    {
      "inputs": [],
      "name": "itemID",
      "outputs": [
        {
          "internalType": "uint256",
          "name": "",
          "type": "uint256"
        }
      ],
      "stateMutability": "view",
      "type": "function"
    },
    {
      "inputs": [
        {
          "internalType": "uint256",
          "name": "",
          "type": "uint256"
        }
      ],
      "name": "itemOwners",
      "outputs": [
        {
          "internalType": "address",
          "name": "",
          "type": "address"
        }
      ],
      "stateMutability": "view",
      "type": "function"
    },
    {
      "inputs": [],
      "name": "newOwner",
      "outputs": [
        {
          "internalType": "address",
          "name": "",
          "type": "address"
        }
      ],
      "stateMutability": "view",
      "type": "function"
    },
    {
      "inputs": [],
      "name": "owner",
      "outputs": [
        {
          "internalType": "address",
          "name": "",
          "type": "address"
        }
      ],
      "stateMutability": "view",
      "type": "function"
    },
    {
      "inputs": [],
      "name": "paused",
      "outputs": [
        {
          "internalType": "bool",
          "name": "",
          "type": "bool"
        }
      ],
      "stateMutability": "view",
      "type": "function"
    },
    {
      "inputs": [],
      "name": "proxiableUUID",
      "outputs": [
        {
          "internalType": "bytes32",
          "name": "",
          "type": "bytes32"
        }
      ],
      "stateMutability": "view",
      "type": "function"
    },
    {
      "inputs": [],
      "name": "renounceOwnership",
      "outputs": [],
      "stateMutability": "nonpayable",
      "type": "function"
    },
    {
      "inputs": [
        {
          "internalType": "bytes32",
          "name": "role",
          "type": "bytes32"
        },
        {
          "internalType": "address",
          "name": "account",
          "type": "address"
        }
      ],
      "name": "renounceRole",
      "outputs": [],
      "stateMutability": "nonpayable",
      "type": "function"
    },
    {
      "inputs": [
        {
          "internalType": "bytes32",
          "name": "role",
          "type": "bytes32"
        },
        {
          "internalType": "address",
          "name": "account",
          "type": "address"
        }
      ],
      "name": "revokeRole",
      "outputs": [],
      "stateMutability": "nonpayable",
      "type": "function"
    },
    {
      "inputs": [
        {
          "internalType": "address",
          "name": "from",
          "type": "address"
        },
        {
          "internalType": "address",
          "name": "to",
          "type": "address"
        },
        {
          "internalType": "uint256[]",
          "name": "ids",
          "type": "uint256[]"
        },
        {
          "internalType": "uint256[]",
          "name": "amounts",
          "type": "uint256[]"
        },
        {
          "internalType": "bytes",
          "name": "data",
          "type": "bytes"
        }
      ],
      "name": "safeBatchTransferFrom",
      "outputs": [],
      "stateMutability": "nonpayable",
      "type": "function"
    },
    {
      "inputs": [
        {
          "internalType": "address",
          "name": "from",
          "type": "address"
        },
        {
          "internalType": "address",
          "name": "to",
          "type": "address"
        },
        {
          "internalType": "uint256",
          "name": "id",
          "type": "uint256"
        },
        {
          "internalType": "uint256",
          "name": "amount",
          "type": "uint256"
        },
        {
          "internalType": "bytes",
          "name": "data",
          "type": "bytes"
        }
      ],
      "name": "safeTransferFrom",
      "outputs": [],
      "stateMutability": "nonpayable",
      "type": "function"
    },
    {
      "inputs": [
        {
          "internalType": "address",
          "name": "operator",
          "type": "address"
        },
        {
          "internalType": "bool",
          "name": "approved",
          "type": "bool"
        }
      ],
      "name": "setApprovalForAll",
      "outputs": [],
      "stateMutability": "nonpayable",
      "type": "function"
    },
    {
      "inputs": [
        {
          "internalType": "uint256",
          "name": "id",
          "type": "uint256"
        }
      ],
      "name": "totalSupply",
      "outputs": [
        {
          "internalType": "uint256",
          "name": "",
          "type": "uint256"
        }
      ],
      "stateMutability": "view",
      "type": "function"
    },
    {
      "inputs": [
        {
          "internalType": "address",
          "name": "newOwner",
          "type": "address"
        }
      ],
      "name": "transferOwnership",
      "outputs": [],
      "stateMutability": "nonpayable",
      "type": "function"
    },
    {
      "inputs": [
        {
          "internalType": "address",
          "name": "newImplementation",
          "type": "address"
        }
      ],
      "name": "upgradeTo",
      "outputs": [],
      "stateMutability": "nonpayable",
      "type": "function"
    },
    {
      "inputs": [
        {
          "internalType": "address",
          "name": "newImplementation",
          "type": "address"
        },
        {
          "internalType": "bytes",
          "name": "data",
          "type": "bytes"
        }
      ],
      "name": "upgradeToAndCall",
      "outputs": [],
      "stateMutability": "payable",
      "type": "function"
    },
    {
      "inputs": [
        {
          "internalType": "uint256",
          "name": "",
          "type": "uint256"
        }
      ],
      "name": "uri",
      "outputs": [
        {
          "internalType": "string",
          "name": "",
          "type": "string"
        }
      ],
      "stateMutability": "view",
      "type": "function"
    },
    {
      "inputs": [],
      "name": "vaultAddress",
      "outputs": [
        {
          "internalType": "address",
          "name": "",
          "type": "address"
        }
      ],
      "stateMutability": "view",
      "type": "function"
    },
    {
      "inputs": [
        {
          "internalType": "uint256",
          "name": "",
          "type": "uint256"
        }
      ],
      "name": "vaultBalances",
      "outputs": [
        {
          "internalType": "uint256",
          "name": "",
          "type": "uint256"
        }
      ],
      "stateMutability": "view",
      "type": "function"
    },
    {
      "inputs": [
        {
          "internalType": "uint256",
          "name": "",
          "type": "uint256"
        }
      ],
      "name": "vaultIDs",
      "outputs": [
        {
          "internalType": "uint256",
          "name": "",
          "type": "uint256"
        }
      ],
      "stateMutability": "view",
      "type": "function"
    },
    {
      "inputs": [
        {
          "internalType": "uint256",
          "name": "",
          "type": "uint256"
        }
      ],
      "name": "vaults",
      "outputs": [
        {
          "internalType": "address",
          "name": "",
          "type": "address"
        }
      ],
      "stateMutability": "view",
      "type": "function"
    },
    {
      "inputs": [
        {
          "internalType": "address",
          "name": "_vaultAddress",
          "type": "address"
        }
      ],
      "name": "initialize",
      "outputs": [],
      "stateMutability": "nonpayable",
      "type": "function"
    },
    {
      "inputs": [
        {
          "internalType": "address",
          "name": "_encryptionTools",
          "type": "address"
        }
      ],
      "name": "setEncryptionTools",
      "outputs": [],
      "stateMutability": "nonpayable",
      "type": "function"
    },
    {
      "inputs": [
        {
          "internalType": "address",
          "name": "_itemTracker",
          "type": "address"
        }
      ],
      "name": "setItemTracker",
      "outputs": [],
      "stateMutability": "nonpayable",
      "type": "function"
    },
    {
      "inputs": [
        {
          "internalType": "address",
          "name": "_itemDistributor",
          "type": "address"
        }
      ],
      "name": "setItemDistributor",
      "outputs": [],
      "stateMutability": "nonpayable",
      "type": "function"
    },
    {
      "inputs": [
        {
          "internalType": "bytes32[]",
          "name": "_encryptedItem",
          "type": "bytes32[]"
        }
      ],
      "name": "createItem",
      "outputs": [],
      "stateMutability": "nonpayable",
      "type": "function"
    },
    {
      "inputs": [
        {
          "internalType": "string",
          "name": "_description",
          "type": "string"
        }
      ],
      "name": "createVault",
      "outputs": [],
      "stateMutability": "nonpayable",
      "type": "function"
    },
    {
      "inputs": [
        {
          "internalType": "uint256",
          "name": "_vaultID",
          "type": "uint256"
        },
        {
          "internalType": "address",
          "name": "_newOwner",
          "type": "address"
        }
      ],
      "name": "transferVault",
      "outputs": [],
      "stateMutability": "nonpayable",
      "type": "function"
    },
    {
      "inputs": [
        {
          "internalType": "string",
          "name": "newuri",
          "type": "string"
        }
      ],
      "name": "setURI",
      "outputs": [],
      "stateMutability": "nonpayable",
      "type": "function"
    },
    {
      "inputs": [],
      "name": "pause",
      "outputs": [],
      "stateMutability": "nonpayable",
      "type": "function"
    },
    {
      "inputs": [],
      "name": "unpause",
      "outputs": [],
      "stateMutability": "nonpayable",
      "type": "function"
    },
    {
      "inputs": [
        {
          "internalType": "address",
          "name": "account",
          "type": "address"
        },
        {
          "internalType": "uint256",
          "name": "id",
          "type": "uint256"
        },
        {
          "internalType": "uint256",
          "name": "amount",
          "type": "uint256"
        },
        {
          "internalType": "bytes",
          "name": "data",
          "type": "bytes"
        }
      ],
      "name": "mint",
      "outputs": [],
      "stateMutability": "nonpayable",
      "type": "function"
    },
    {
      "inputs": [
        {
          "internalType": "address",
          "name": "to",
          "type": "address"
        },
        {
          "internalType": "uint256[]",
          "name": "ids",
          "type": "uint256[]"
        },
        {
          "internalType": "uint256[]",
          "name": "amounts",
          "type": "uint256[]"
        },
        {
          "internalType": "bytes",
          "name": "data",
          "type": "bytes"
        }
      ],
      "name": "mintBatch",
      "outputs": [],
      "stateMutability": "nonpayable",
      "type": "function"
    },
    {
      "inputs": [
        {
          "internalType": "bytes4",
          "name": "interfaceId",
          "type": "bytes4"
        }
      ],
      "name": "supportsInterface",
      "outputs": [
        {
          "internalType": "bool",
          "name": "",
          "type": "bool"
        }
      ],
      "stateMutability": "view",
      "type": "function"
    }
  ],
  "bytecode": "0x60a06040523060805234801561001457600080fd5b5060805161426061004c60003960008181610e2501528181610e65015281816113270152818161136701526114d501526142606000f3fe6080604052600436106103335760003560e01c8063715018a6116101ab578063d547741f116100f7578063f242432a11610095578063f5298aca1161006f578063f5298aca14610a61578063f57d85af14610a81578063f72c0d8b14610aa2578063fff967a814610ac457600080fd5b8063f242432a146109f3578063f2fde38b14610a13578063f36039c714610a3357600080fd5b8063e63ab1e9116100d1578063e63ab1e91461093a578063e985e9c51461095c578063f0feff05146109a5578063f1fe4833146109d357600080fd5b8063d547741f146108cb578063de1d019b146108eb578063de8bfd551461091957600080fd5b806391d1485411610164578063bd85b0391161013e578063bd85b0391461083a578063c4d66de814610868578063d4ee1d9014610888578063d5391393146108a957600080fd5b806391d14854146107e5578063a217fddf14610805578063a22cb4651461081a57600080fd5b8063715018a614610711578063731133e9146107265780637f345710146107465780638456cb591461077a5780638c64ea4a1461078f5780638da5cb5b146107c657600080fd5b80633f4ba83a116102855780634f1ef2861161022357806352d1902d116101fd57806352d1902d146106965780635c975abb146106ab578063651b31bd146106c35780636b20c454146106f157600080fd5b80634f1ef286146106335780634f558e79146106465780634fd5bbeb1461067657600080fd5b806343cdef601161025f57806343cdef601461058a5780634a2e30bb146105a15780634cea965e146105d85780634e1273f41461060657600080fd5b80633f4ba83a146105345780633fe1da8814610549578063430bf08a1461056957600080fd5b8063248a9ca3116102f25780632f2ff15d116102cc5780632f2ff15d146104b457806336568abe146104d45780633659cfe6146104f45780633e61facd1461051457600080fd5b8063248a9ca31461044357806329fb0f3d146104745780632eb2c2d61461049457600080fd5b806249192014610338578062fdd58e1461037657806301ffc9a7146103a457806302fe5305146103d45780630e89341c146103f65780631f7fdffa14610423575b600080fd5b34801561034457600080fd5b5061022954610359906001600160a01b031681565b6040516001600160a01b0390911681526020015b60405180910390f35b34801561038257600080fd5b506103966103913660046133ad565b610ae4565b60405190815260200161036d565b3480156103b057600080fd5b506103c46103bf3660046133ed565b610b7c565b604051901515815260200161036d565b3480156103e057600080fd5b506103f46103ef3660046134a9565b610b8d565b005b34801561040257600080fd5b506104166104113660046134f9565b610bc4565b60405161036d919061356a565b34801561042f57600080fd5b506103f461043e366004613631565b610c58565b34801561044f57600080fd5b5061039661045e3660046134f9565b60009081526101c3602052604090206001015490565b34801561048057600080fd5b506103f461048f3660046136c9565b610c83565b3480156104a057600080fd5b506103f46104af3660046136e4565b610d30565b3480156104c057600080fd5b506103f46104cf36600461378d565b610d75565b3480156104e057600080fd5b506103f46104ef36600461378d565b610da0565b34801561050057600080fd5b506103f461050f3660046136c9565b610e1a565b34801561052057600080fd5b506103f461052f36600461378d565b610efa565b34801561054057600080fd5b506103f4611027565b34801561055557600080fd5b506103f46105643660046134a9565b611047565b34801561057557600080fd5b5061022e54610359906001600160a01b031681565b34801561059657600080fd5b506103966102275481565b3480156105ad57600080fd5b506103596105bc3660046134f9565b61022d602052600090815260409020546001600160a01b031681565b3480156105e457600080fd5b506103966105f33660046134f9565b6102326020526000908152604090205481565b34801561061257600080fd5b506106266106213660046137b9565b6111f3565b60405161036d91906138be565b6103f46106413660046138d1565b61131c565b34801561065257600080fd5b506103c46106613660046134f9565b60009081526101f56020526040902054151590565b34801561068257600080fd5b506103f46106913660046136c9565b6113e9565b3480156106a257600080fd5b506103966114c8565b3480156106b757600080fd5b5060c95460ff166103c4565b3480156106cf57600080fd5b506103966106de3660046134f9565b6102346020526000908152604090205481565b3480156106fd57600080fd5b506103f461070c366004613914565b61157c565b34801561071d57600080fd5b506103f46115bf565b34801561073257600080fd5b506103f4610741366004613987565b6115d3565b34801561075257600080fd5b506103967f7804d923f43a17d325d77e781528e0793b2edd9890ab45fc64efd7b4b427744c81565b34801561078657600080fd5b506103f46115f7565b34801561079b57600080fd5b506103596107aa3660046134f9565b61022f602052600090815260409020546001600160a01b031681565b3480156107d257600080fd5b5061012d546001600160a01b0316610359565b3480156107f157600080fd5b506103c461080036600461378d565b611617565b34801561081157600080fd5b50610396600081565b34801561082657600080fd5b506103f46108353660046139db565b611643565b34801561084657600080fd5b506103966108553660046134f9565b60009081526101f5602052604090205490565b34801561087457600080fd5b506103f46108833660046136c9565b61164e565b34801561089457600080fd5b5061022b54610359906001600160a01b031681565b3480156108b557600080fd5b5061039660008051602061420b83398151915281565b3480156108d757600080fd5b506103f46108e636600461378d565b611754565b3480156108f757600080fd5b506103966109063660046134f9565b6102306020526000908152604090205481565b34801561092557600080fd5b5061022c54610359906001600160a01b031681565b34801561094657600080fd5b506103966000805160206141c483398151915281565b34801561096857600080fd5b506103c4610977366004613a17565b6001600160a01b03918216600090815260666020908152604080832093909416825291909152205460ff1690565b3480156109b157600080fd5b506103966109c03660046134f9565b6102316020526000908152604090205481565b3480156109df57600080fd5b506103f46109ee366004613a41565b61177a565b3480156109ff57600080fd5b506103f4610a0e366004613adc565b611970565b348015610a1f57600080fd5b506103f4610a2e3660046136c9565b6119b5565b348015610a3f57600080fd5b50610396610a4e3660046134f9565b6102336020526000908152604090205481565b348015610a6d57600080fd5b506103f4610a7c366004613b40565b611a2b565b348015610a8d57600080fd5b5061022a54610359906001600160a01b031681565b348015610aae57600080fd5b5061039660008051602061418483398151915281565b348015610ad057600080fd5b506103f4610adf3660046136c9565b611a6e565b60006001600160a01b038316610b545760405162461bcd60e51b815260206004820152602a60248201527f455243313135353a2061646472657373207a65726f206973206e6f742061207660448201526930b634b21037bbb732b960b11b60648201526084015b60405180910390fd5b5060009081526065602090815260408083206001600160a01b03949094168352929052205490565b6000610b8782611b12565b92915050565b7f7804d923f43a17d325d77e781528e0793b2edd9890ab45fc64efd7b4b427744c610bb781611b37565b610bc082611b41565b5050565b606060678054610bd390613b73565b80601f0160208091040260200160405190810160405280929190818152602001828054610bff90613b73565b8015610c4c5780601f10610c2157610100808354040283529160200191610c4c565b820191906000526020600020905b815481529060010190602001808311610c2f57829003601f168201915b50505050509050919050565b60008051602061420b833981519152610c7081611b37565b610c7c85858585611b54565b5050505050565b610c9b60008051602061418483398151915233611617565b610d0d5760405162461bcd60e51b815260206004820152603860248201527f50726f66696c653a206d757374206861766520757067726164657220726f6c6560448201527f20746f20736574206974656d206469737472696275746f7200000000000000006064820152608401610b4b565b61022c80546001600160a01b0319166001600160a01b0392909216919091179055565b6001600160a01b038516331480610d4c5750610d4c8533610977565b610d685760405162461bcd60e51b8152600401610b4b90613bae565b610c7c8585858585611caf565b60008281526101c36020526040902060010154610d9181611b37565b610d9b8383611e5c565b505050565b6001600160a01b0381163314610e105760405162461bcd60e51b815260206004820152602f60248201527f416363657373436f6e74726f6c3a2063616e206f6e6c792072656e6f756e636560448201526e103937b632b9903337b91039b2b63360891b6064820152608401610b4b565b610bc08282611ee3565b306001600160a01b037f0000000000000000000000000000000000000000000000000000000000000000161415610e635760405162461bcd60e51b8152600401610b4b90613bfc565b7f00000000000000000000000000000000000000000000000000000000000000006001600160a01b0316610eac6000805160206141a4833981519152546001600160a01b031690565b6001600160a01b031614610ed25760405162461bcd60e51b8152600401610b4b90613c48565b610edb81611f4b565b60408051600080825260208201909252610ef791839190611f63565b50565b610f1260008051602061420b83398151915233611617565b610f775760405162461bcd60e51b815260206004820152603060248201527f50726f66696c653a206d7573742068617665206d696e74657220726f6c65207460448201526f1bc81d1c985b9cd9995c881d985d5b1d60821b6064820152608401610b4b565b600082815261022f60205260409020546001600160a01b03163314610ff85760405162461bcd60e51b815260206004820152603160248201527f50726f66696c653a206d757374206265206f776e6572206f66207661756c74206044820152701d1bc81d1c985b9cd9995c881d985d5b1d607a1b6064820152608401610b4b565b600091825261022f602052604090912080546001600160a01b0319166001600160a01b03909216919091179055565b6000805160206141c483398151915261103f81611b37565b610ef76120dd565b61105f60008051602061420b83398151915233611617565b6110c25760405162461bcd60e51b815260206004820152602e60248201527f50726f66696c653a206d7573742068617665206d696e74657220726f6c65207460448201526d1bc818dc99585d19481d985d5b1d60921b6064820152608401610b4b565b61022e5460408051600481526024810182526020810180516001600160e01b0316635d12928b60e01b179052905160009283926001600160a01b039091169161110b9190613c94565b6000604051808303816000865af19150503d8060008114611148576040519150601f19603f3d011682016040523d82523d6000602084013e61114d565b606091505b50915091508161119f5760405162461bcd60e51b815260206004820152601f60248201527f50726f66696c653a206661696c656420746f20637265617465207661756c74006044820152606401610b4b565b6000818060200190518101906111b59190613cb0565b600081815261022f6020908152604080832080546001600160a01b031916331790556102308252808320939093556102319052206001905550505050565b606081518351146112585760405162461bcd60e51b815260206004820152602960248201527f455243313135353a206163636f756e747320616e6420696473206c656e677468604482015268040dad2e6dac2e8c6d60bb1b6064820152608401610b4b565b600083516001600160401b038111156112735761127361340a565b60405190808252806020026020018201604052801561129c578160200160208202803683370190505b50905060005b8451811015611314576112e78582815181106112c0576112c0613cc9565b60200260200101518583815181106112da576112da613cc9565b6020026020010151610ae4565b8282815181106112f9576112f9613cc9565b602090810291909101015261130d81613cf5565b90506112a2565b509392505050565b306001600160a01b037f00000000000000000000000000000000000000000000000000000000000000001614156113655760405162461bcd60e51b8152600401610b4b90613bfc565b7f00000000000000000000000000000000000000000000000000000000000000006001600160a01b03166113ae6000805160206141a4833981519152546001600160a01b031690565b6001600160a01b0316146113d45760405162461bcd60e51b8152600401610b4b90613c48565b6113dd82611f4b565b610bc082826001611f63565b61140160008051602061418483398151915233611617565b6114735760405162461bcd60e51b815260206004820152603860248201527f50726f66696c653a206d757374206861766520757067726164657220726f6c6560448201527f20746f2073657420656e6372797074696f6e20746f6f6c7300000000000000006064820152608401610b4b565b61022980546001600160a01b0319166001600160a01b0383169081179091556040519081527f0573c2d2fd76ad8f23cc8f19f84f77126c2b45713345e7cdd8b9783de3eff5e09060200160405180910390a150565b6000306001600160a01b037f000000000000000000000000000000000000000000000000000000000000000016146115685760405162461bcd60e51b815260206004820152603860248201527f555550535570677261646561626c653a206d757374206e6f742062652063616c60448201527f6c6564207468726f7567682064656c656761746563616c6c00000000000000006064820152608401610b4b565b506000805160206141a48339815191525b90565b6001600160a01b03831633148061159857506115988333610977565b6115b45760405162461bcd60e51b8152600401610b4b90613bae565b610d9b83838361212f565b6115c76122d0565b6115d1600061232b565b565b60008051602061420b8339815191526115eb81611b37565b610c7c8585858561237e565b6000805160206141c483398151915261160f81611b37565b610ef7612469565b60009182526101c3602090815260408084206001600160a01b0393909316845291905290205460ff1690565b610bc03383836124a6565b6116846040518060400160405280601581526020017468747470733a2f2f697066732e696f2f697066732f60581b815250612587565b61168c6125b7565b6116946125de565b61169c61260d565b6116a46125b7565b6116ac6125b7565b6116b46125b7565b6116bf60003361263c565b6116e97f7804d923f43a17d325d77e781528e0793b2edd9890ab45fc64efd7b4b427744c3361263c565b6117016000805160206141c48339815191523361263c565b61171960008051602061420b8339815191523361263c565b6117316000805160206141848339815191523361263c565b61022e80546001600160a01b0319166001600160a01b0392909216919091179055565b60008281526101c3602052604090206001015461177081611b37565b610d9b8383611ee3565b61179260008051602061420b83398151915233611617565b6117f45760405162461bcd60e51b815260206004820152602d60248201527f50726f66696c653a206d7573742068617665206d696e74657220726f6c65207460448201526c6f20637265617465206974656d60981b6064820152608401610b4b565b610227546000908152610228602090815260409091208251611818928401906132be565b506102278054600090815261022d6020908152604080832080546001600160a01b031916339081179091559354815192830190915291815261185e92919060019061237e565b610227805490600061186f83613cf5565b909155505061022e5461022754604051602481019190915260009182916001600160a01b039091169060440160408051601f198184030181529181526020820180516001600160e01b031663d7a5d5d360e01b179052516118d09190613c94565b6000604051808303816000865af19150503d806000811461190d576040519150601f19603f3d011682016040523d82523d6000602084013e611912565b606091505b509150915081610d9b5760405162461bcd60e51b8152602060048201526024808201527f50726f66696c653a206661696c656420746f20616464206974656d20746f2076604482015263185d5b1d60e21b6064820152608401610b4b565b6001600160a01b03851633148061198c575061198c8533610977565b6119a85760405162461bcd60e51b8152600401610b4b90613bae565b610c7c8585858585612646565b6119bd6122d0565b6001600160a01b038116611a225760405162461bcd60e51b815260206004820152602660248201527f4f776e61626c653a206e6577206f776e657220697320746865207a65726f206160448201526564647265737360d01b6064820152608401610b4b565b610ef78161232b565b6001600160a01b038316331480611a475750611a478333610977565b611a635760405162461bcd60e51b8152600401610b4b90613bae565b610d9b838383612782565b611a8660008051602061418483398151915233611617565b611aef5760405162461bcd60e51b815260206004820152603460248201527f50726f66696c653a206d757374206861766520757067726164657220726f6c65604482015273103a379039b2ba1034ba32b6903a3930b1b5b2b960611b6064820152608401610b4b565b61022a80546001600160a01b0319166001600160a01b0392909216919091179055565b60006001600160e01b03198216637965db0b60e01b1480610b875750610b878261289e565b610ef781336128ee565b8051610bc0906067906020840190613309565b6001600160a01b038416611b7a5760405162461bcd60e51b8152600401610b4b90613d10565b8151835114611b9b5760405162461bcd60e51b8152600401610b4b90613d51565b33611bab81600087878787612947565b60005b8451811015611c4757838181518110611bc957611bc9613cc9565b602002602001015160656000878481518110611be757611be7613cc9565b602002602001015181526020019081526020016000206000886001600160a01b03166001600160a01b031681526020019081526020016000206000828254611c2f9190613d99565b90915550819050611c3f81613cf5565b915050611bae565b50846001600160a01b031660006001600160a01b0316826001600160a01b03167f4a39dc06d4c0dbc64b70af90fd698a233a518aa5d07e595d983b8c0526c8f7fb8787604051611c98929190613db1565b60405180910390a4610c7c8160008787878761295d565b8151835114611cd05760405162461bcd60e51b8152600401610b4b90613d51565b6001600160a01b038416611cf65760405162461bcd60e51b8152600401610b4b90613dd6565b33611d05818787878787612947565b60005b8451811015611dee576000858281518110611d2557611d25613cc9565b602002602001015190506000858381518110611d4357611d43613cc9565b60209081029190910181015160008481526065835260408082206001600160a01b038e168352909352919091205490915081811015611d945760405162461bcd60e51b8152600401610b4b90613e1b565b60008381526065602090815260408083206001600160a01b038e8116855292528083208585039055908b16825281208054849290611dd3908490613d99565b9250508190555050505080611de790613cf5565b9050611d08565b50846001600160a01b0316866001600160a01b0316826001600160a01b03167f4a39dc06d4c0dbc64b70af90fd698a233a518aa5d07e595d983b8c0526c8f7fb8787604051611e3e929190613db1565b60405180910390a4611e5481878787878761295d565b505050505050565b611e668282611617565b610bc05760008281526101c3602090815260408083206001600160a01b03851684529091529020805460ff19166001179055611e9f3390565b6001600160a01b0316816001600160a01b0316837f2f8788117e7eff1d82e926ec794901d17c78024a50270940304540a733656f0d60405160405180910390a45050565b611eed8282611617565b15610bc05760008281526101c3602090815260408083206001600160a01b0385168085529252808320805460ff1916905551339285917ff6391f5c32d9c69d2a47ea670b442974b53935d1edc7fd64eb21e047a839171b9190a45050565b600080516020614184833981519152610bc081611b37565b7f4910fdfa16fed3260ed0e7147f7cc6da11a60208b5b9406d12a635614ffd91435460ff1615611f9657610d9b83612ac8565b826001600160a01b03166352d1902d6040518163ffffffff1660e01b815260040160206040518083038186803b158015611fcf57600080fd5b505afa925050508015611fff575060408051601f3d908101601f19168201909252611ffc91810190613cb0565b60015b6120625760405162461bcd60e51b815260206004820152602e60248201527f45524331393637557067726164653a206e657720696d706c656d656e7461746960448201526d6f6e206973206e6f74205555505360901b6064820152608401610b4b565b6000805160206141a483398151915281146120d15760405162461bcd60e51b815260206004820152602960248201527f45524331393637557067726164653a20756e737570706f727465642070726f786044820152681a58589b195555525160ba1b6064820152608401610b4b565b50610d9b838383612b64565b6120e5612b89565b60c9805460ff191690557f5db9ee0a495bf2e6ff9c91a7834c1ba4fdd244a5e8aa4e537bd38aeae4b073aa335b6040516001600160a01b03909116815260200160405180910390a1565b6001600160a01b0383166121555760405162461bcd60e51b8152600401610b4b90613e65565b80518251146121765760405162461bcd60e51b8152600401610b4b90613d51565b600033905061219981856000868660405180602001604052806000815250612947565b60005b83518110156122615760008482815181106121b9576121b9613cc9565b6020026020010151905060008483815181106121d7576121d7613cc9565b60209081029190910181015160008481526065835260408082206001600160a01b038c1683529093529190912054909150818110156122285760405162461bcd60e51b8152600401610b4b90613ea8565b60009283526065602090815260408085206001600160a01b038b168652909152909220910390558061225981613cf5565b91505061219c565b5060006001600160a01b0316846001600160a01b0316826001600160a01b03167f4a39dc06d4c0dbc64b70af90fd698a233a518aa5d07e595d983b8c0526c8f7fb86866040516122b2929190613db1565b60405180910390a46040805160208101909152600090525b50505050565b61012d546001600160a01b031633146115d15760405162461bcd60e51b815260206004820181905260248201527f4f776e61626c653a2063616c6c6572206973206e6f7420746865206f776e65726044820152606401610b4b565b61012d80546001600160a01b038381166001600160a01b0319831681179093556040519116919082907f8be0079c531659141344cd1fd0a4f28419497f9722a3daafe3b4186f6b6457e090600090a35050565b6001600160a01b0384166123a45760405162461bcd60e51b8152600401610b4b90613d10565b3360006123b085612bd2565b905060006123bd85612bd2565b90506123ce83600089858589612947565b60008681526065602090815260408083206001600160a01b038b16845290915281208054879290612400908490613d99565b909155505060408051878152602081018790526001600160a01b03808a1692600092918716917fc3d58168c5ae7397731d063d5bbf3d657854427343f4c083240f7aacaa2d0f62910160405180910390a461246083600089898989612c1d565b50505050505050565b612471612ce7565b60c9805460ff191660011790557f62e78cea01bee320cd4e420270b5ea74000d11b0c9f74754ebdbfc544b05a2586121123390565b816001600160a01b0316836001600160a01b0316141561251a5760405162461bcd60e51b815260206004820152602960248201527f455243313135353a2073657474696e6720617070726f76616c20737461747573604482015268103337b91039b2b63360b91b6064820152608401610b4b565b6001600160a01b03838116600081815260666020908152604080832094871680845294825291829020805460ff191686151590811790915591519182527f17307eab39ab6107e8899845ad3d59bd9653f200f220920489ca2b5937696c31910160405180910390a3505050565b600054610100900460ff166125ae5760405162461bcd60e51b8152600401610b4b90613eec565b610ef781612d2d565b600054610100900460ff166115d15760405162461bcd60e51b8152600401610b4b90613eec565b600054610100900460ff166126055760405162461bcd60e51b8152600401610b4b90613eec565b6115d1612d5d565b600054610100900460ff166126345760405162461bcd60e51b8152600401610b4b90613eec565b6115d1612d90565b610bc08282611e5c565b6001600160a01b03841661266c5760405162461bcd60e51b8152600401610b4b90613dd6565b33600061267885612bd2565b9050600061268585612bd2565b9050612695838989858589612947565b60008681526065602090815260408083206001600160a01b038c168452909152902054858110156126d85760405162461bcd60e51b8152600401610b4b90613e1b565b60008781526065602090815260408083206001600160a01b038d8116855292528083208985039055908a16825281208054889290612717908490613d99565b909155505060408051888152602081018890526001600160a01b03808b16928c821692918816917fc3d58168c5ae7397731d063d5bbf3d657854427343f4c083240f7aacaa2d0f62910160405180910390a4612777848a8a8a8a8a612c1d565b505050505050505050565b6001600160a01b0383166127a85760405162461bcd60e51b8152600401610b4b90613e65565b3360006127b484612bd2565b905060006127c184612bd2565b90506127e183876000858560405180602001604052806000815250612947565b60008581526065602090815260408083206001600160a01b038a168452909152902054848110156128245760405162461bcd60e51b8152600401610b4b90613ea8565b60008681526065602090815260408083206001600160a01b038b81168086529184528285208a8703905582518b81529384018a90529092908816917fc3d58168c5ae7397731d063d5bbf3d657854427343f4c083240f7aacaa2d0f62910160405180910390a4604080516020810190915260009052612460565b60006001600160e01b03198216636cdb3d1360e11b14806128cf57506001600160e01b031982166303a24d0760e21b145b80610b8757506301ffc9a760e01b6001600160e01b0319831614610b87565b6128f88282611617565b610bc05761290581612dc0565b612910836020612dd2565b604051602001612921929190613f37565b60408051601f198184030181529082905262461bcd60e51b8252610b4b9160040161356a565b61294f612ce7565b611e54868686868686612f74565b6001600160a01b0384163b15611e545760405163bc197c8160e01b81526001600160a01b0385169063bc197c81906129a19089908990889088908890600401613fac565b602060405180830381600087803b1580156129bb57600080fd5b505af19250505080156129eb575060408051601f3d908101601f191682019092526129e89181019061400a565b60015b612a98576129f7614027565b806308c379a01415612a315750612a0c614042565b80612a175750612a33565b8060405162461bcd60e51b8152600401610b4b919061356a565b505b60405162461bcd60e51b815260206004820152603460248201527f455243313135353a207472616e7366657220746f206e6f6e2d455243313135356044820152732932b1b2b4bb32b91034b6b83632b6b2b73a32b960611b6064820152608401610b4b565b6001600160e01b0319811663bc197c8160e01b146124605760405162461bcd60e51b8152600401610b4b906140cb565b6001600160a01b0381163b612b355760405162461bcd60e51b815260206004820152602d60248201527f455243313936373a206e657720696d706c656d656e746174696f6e206973206e60448201526c1bdd08184818dbdb9d1c9858dd609a1b6064820152608401610b4b565b6000805160206141a483398151915280546001600160a01b0319166001600160a01b0392909216919091179055565b612b6d836130fe565b600082511180612b7a5750805b15610d9b576122ca838361313e565b60c95460ff166115d15760405162461bcd60e51b815260206004820152601460248201527314185d5cd8589b194e881b9bdd081c185d5cd95960621b6044820152606401610b4b565b60408051600180825281830190925260609160009190602080830190803683370190505090508281600081518110612c0c57612c0c613cc9565b602090810291909101015292915050565b6001600160a01b0384163b15611e545760405163f23a6e6160e01b81526001600160a01b0385169063f23a6e6190612c619089908990889088908890600401614113565b602060405180830381600087803b158015612c7b57600080fd5b505af1925050508015612cab575060408051601f3d908101601f19168201909252612ca89181019061400a565b60015b612cb7576129f7614027565b6001600160e01b0319811663f23a6e6160e01b146124605760405162461bcd60e51b8152600401610b4b906140cb565b60c95460ff16156115d15760405162461bcd60e51b815260206004820152601060248201526f14185d5cd8589b194e881c185d5cd95960821b6044820152606401610b4b565b600054610100900460ff16612d545760405162461bcd60e51b8152600401610b4b90613eec565b610ef781611b41565b600054610100900460ff16612d845760405162461bcd60e51b8152600401610b4b90613eec565b60c9805460ff19169055565b600054610100900460ff16612db75760405162461bcd60e51b8152600401610b4b90613eec565b6115d13361232b565b6060610b876001600160a01b03831660145b60606000612de183600261414d565b612dec906002613d99565b6001600160401b03811115612e0357612e0361340a565b6040519080825280601f01601f191660200182016040528015612e2d576020820181803683370190505b509050600360fc1b81600081518110612e4857612e48613cc9565b60200101906001600160f81b031916908160001a905350600f60fb1b81600181518110612e7757612e77613cc9565b60200101906001600160f81b031916908160001a9053506000612e9b84600261414d565b612ea6906001613d99565b90505b6001811115612f1e576f181899199a1a9b1b9c1cb0b131b232b360811b85600f1660108110612eda57612eda613cc9565b1a60f81b828281518110612ef057612ef0613cc9565b60200101906001600160f81b031916908160001a90535060049490941c93612f178161416c565b9050612ea9565b508315612f6d5760405162461bcd60e51b815260206004820181905260248201527f537472696e67733a20686578206c656e67746820696e73756666696369656e746044820152606401610b4b565b9392505050565b612f82868686868686613232565b6001600160a01b03851661300a5760005b835181101561300857828181518110612fae57612fae613cc9565b60200260200101516101f56000868481518110612fcd57612fcd613cc9565b602002602001015181526020019081526020016000206000828254612ff29190613d99565b90915550613001905081613cf5565b9050612f93565b505b6001600160a01b038416611e545760005b835181101561246057600084828151811061303857613038613cc9565b60200260200101519050600084838151811061305657613056613cc9565b6020026020010151905060006101f56000848152602001908152602001600020549050818110156130da5760405162461bcd60e51b815260206004820152602860248201527f455243313135353a206275726e20616d6f756e74206578636565647320746f74604482015267616c537570706c7960c01b6064820152608401610b4b565b60009283526101f56020526040909220910390556130f781613cf5565b905061301b565b61310781612ac8565b6040516001600160a01b038216907fbc7cd75a20ee27fd9adebab32041f755214dbc6bffa90cc0225b39da2e5c2d3b90600090a250565b60606001600160a01b0383163b6131a65760405162461bcd60e51b815260206004820152602660248201527f416464726573733a2064656c65676174652063616c6c20746f206e6f6e2d636f6044820152651b9d1c9858dd60d21b6064820152608401610b4b565b600080846001600160a01b0316846040516131c19190613c94565b600060405180830381855af49150503d80600081146131fc576040519150601f19603f3d011682016040523d82523d6000602084013e613201565b606091505b509150915061322982826040518060600160405280602781526020016141e46027913961329a565b95945050505050565b60c95460ff1615611e545760405162461bcd60e51b815260206004820152602c60248201527f455243313135355061757361626c653a20746f6b656e207472616e736665722060448201526b1dda1a5b19481c185d5cd95960a21b6064820152608401610b4b565b606083156132a9575081612f6d565b612f6d8383815115612a175781518083602001fd5b8280548282559060005260206000209081019282156132f9579160200282015b828111156132f95782518255916020019190600101906132de565b5061330592915061337c565b5090565b82805461331590613b73565b90600052602060002090601f01602090048101928261333757600085556132f9565b82601f1061335057805160ff19168380011785556132f9565b828001600101855582156132f957918201828111156132f95782518255916020019190600101906132de565b5b80821115613305576000815560010161337d565b80356001600160a01b03811681146133a857600080fd5b919050565b600080604083850312156133c057600080fd5b6133c983613391565b946020939093013593505050565b6001600160e01b031981168114610ef757600080fd5b6000602082840312156133ff57600080fd5b8135612f6d816133d7565b634e487b7160e01b600052604160045260246000fd5b601f8201601f191681016001600160401b03811182821017156134455761344561340a565b6040525050565b60006001600160401b038311156134655761346561340a565b60405161347c601f8501601f191660200182613420565b80915083815284848401111561349157600080fd5b83836020830137600060208583010152509392505050565b6000602082840312156134bb57600080fd5b81356001600160401b038111156134d157600080fd5b8201601f810184136134e257600080fd5b6134f18482356020840161344c565b949350505050565b60006020828403121561350b57600080fd5b5035919050565b60005b8381101561352d578181015183820152602001613515565b838111156122ca5750506000910152565b60008151808452613556816020860160208601613512565b601f01601f19169290920160200192915050565b602081526000612f6d602083018461353e565b60006001600160401b038211156135965761359661340a565b5060051b60200190565b600082601f8301126135b157600080fd5b813560206135be8261357d565b6040516135cb8282613420565b83815260059390931b85018201928281019150868411156135eb57600080fd5b8286015b8481101561360657803583529183019183016135ef565b509695505050505050565b600082601f83011261362257600080fd5b612f6d8383356020850161344c565b6000806000806080858703121561364757600080fd5b61365085613391565b935060208501356001600160401b038082111561366c57600080fd5b613678888389016135a0565b9450604087013591508082111561368e57600080fd5b61369a888389016135a0565b935060608701359150808211156136b057600080fd5b506136bd87828801613611565b91505092959194509250565b6000602082840312156136db57600080fd5b612f6d82613391565b600080600080600060a086880312156136fc57600080fd5b61370586613391565b945061371360208701613391565b935060408601356001600160401b038082111561372f57600080fd5b61373b89838a016135a0565b9450606088013591508082111561375157600080fd5b61375d89838a016135a0565b9350608088013591508082111561377357600080fd5b5061378088828901613611565b9150509295509295909350565b600080604083850312156137a057600080fd5b823591506137b060208401613391565b90509250929050565b600080604083850312156137cc57600080fd5b82356001600160401b03808211156137e357600080fd5b818501915085601f8301126137f757600080fd5b813560206138048261357d565b6040516138118282613420565b83815260059390931b850182019282810191508984111561383157600080fd5b948201945b838610156138565761384786613391565b82529482019490820190613836565b9650508601359250508082111561386c57600080fd5b50613879858286016135a0565b9150509250929050565b600081518084526020808501945080840160005b838110156138b357815187529582019590820190600101613897565b509495945050505050565b602081526000612f6d6020830184613883565b600080604083850312156138e457600080fd5b6138ed83613391565b915060208301356001600160401b0381111561390857600080fd5b61387985828601613611565b60008060006060848603121561392957600080fd5b61393284613391565b925060208401356001600160401b038082111561394e57600080fd5b61395a878388016135a0565b9350604086013591508082111561397057600080fd5b5061397d868287016135a0565b9150509250925092565b6000806000806080858703121561399d57600080fd5b6139a685613391565b9350602085013592506040850135915060608501356001600160401b038111156139cf57600080fd5b6136bd87828801613611565b600080604083850312156139ee57600080fd5b6139f783613391565b915060208301358015158114613a0c57600080fd5b809150509250929050565b60008060408385031215613a2a57600080fd5b613a3383613391565b91506137b060208401613391565b60006020808385031215613a5457600080fd5b82356001600160401b03811115613a6a57600080fd5b8301601f81018513613a7b57600080fd5b8035613a868161357d565b604051613a938282613420565b82815260059290921b8301840191848101915087831115613ab357600080fd5b928401925b82841015613ad157833582529284019290840190613ab8565b979650505050505050565b600080600080600060a08688031215613af457600080fd5b613afd86613391565b9450613b0b60208701613391565b9350604086013592506060860135915060808601356001600160401b03811115613b3457600080fd5b61378088828901613611565b600080600060608486031215613b5557600080fd5b613b5e84613391565b95602085013595506040909401359392505050565b600181811c90821680613b8757607f821691505b60208210811415613ba857634e487b7160e01b600052602260045260246000fd5b50919050565b6020808252602e908201527f455243313135353a2063616c6c6572206973206e6f7420746f6b656e206f776e60408201526d195c881bdc88185c1c1c9bdd995960921b606082015260800190565b6020808252602c908201527f46756e6374696f6e206d7573742062652063616c6c6564207468726f7567682060408201526b19195b1959d85d1958d85b1b60a21b606082015260800190565b6020808252602c908201527f46756e6374696f6e206d7573742062652063616c6c6564207468726f7567682060408201526b6163746976652070726f787960a01b606082015260800190565b60008251613ca6818460208701613512565b9190910192915050565b600060208284031215613cc257600080fd5b5051919050565b634e487b7160e01b600052603260045260246000fd5b634e487b7160e01b600052601160045260246000fd5b6000600019821415613d0957613d09613cdf565b5060010190565b60208082526021908201527f455243313135353a206d696e7420746f20746865207a65726f206164647265736040820152607360f81b606082015260800190565b60208082526028908201527f455243313135353a2069647320616e6420616d6f756e7473206c656e677468206040820152670dad2e6dac2e8c6d60c31b606082015260800190565b60008219821115613dac57613dac613cdf565b500190565b604081526000613dc46040830185613883565b82810360208401526132298185613883565b60208082526025908201527f455243313135353a207472616e7366657220746f20746865207a65726f206164604082015264647265737360d81b606082015260800190565b6020808252602a908201527f455243313135353a20696e73756666696369656e742062616c616e636520666f60408201526939103a3930b739b332b960b11b606082015260800190565b60208082526023908201527f455243313135353a206275726e2066726f6d20746865207a65726f206164647260408201526265737360e81b606082015260800190565b60208082526024908201527f455243313135353a206275726e20616d6f756e7420657863656564732062616c604082015263616e636560e01b606082015260800190565b6020808252602b908201527f496e697469616c697a61626c653a20636f6e7472616374206973206e6f74206960408201526a6e697469616c697a696e6760a81b606082015260800190565b7f416363657373436f6e74726f6c3a206163636f756e7420000000000000000000815260008351613f6f816017850160208801613512565b7001034b99036b4b9b9b4b733903937b6329607d1b6017918401918201528351613fa0816028840160208801613512565b01602801949350505050565b6001600160a01b0386811682528516602082015260a060408201819052600090613fd890830186613883565b8281036060840152613fea8186613883565b90508281036080840152613ffe818561353e565b98975050505050505050565b60006020828403121561401c57600080fd5b8151612f6d816133d7565b600060033d11156115795760046000803e5060005160e01c90565b600060443d10156140505790565b6040516003193d81016004833e81513d6001600160401b03816024840111818411171561407f57505050505090565b82850191508151818111156140975750505050505090565b843d87010160208285010111156140b15750505050505090565b6140c060208286010187613420565b509095945050505050565b60208082526028908201527f455243313135353a204552433131353552656365697665722072656a656374656040820152676420746f6b656e7360c01b606082015260800190565b6001600160a01b03868116825285166020820152604081018490526060810183905260a060808201819052600090613ad19083018461353e565b600081600019048311821515161561416757614167613cdf565b500290565b60008161417b5761417b613cdf565b50600019019056fe189ab7a9244df0848122154315af71fe140f3db0fe014031783b0946b8c9d2e3360894a13ba1a3210667c828492db98dca3e2076cc3735a920a3ca505d382bbc65d7a28e3265b37a6474929f336521b332c1681b933f6cb9f3376673440d862a416464726573733a206c6f772d6c6576656c2064656c65676174652063616c6c206661696c65649f2df0fed2c77648de5860a4cc508cd0818c85b8b8a1ab4ceeef8d981c8956a6a26469706673582212202dc1165c1a2fec956790e41a510bfc52885fa38eec1682cc48fa96f1b9e07a0264736f6c63430008090033",
  "immutableReferences": {
    "1129": [
      {
        "length": 32,
        "start": 3621
      },
      {
        "length": 32,
        "start": 3685
      },
      {
        "length": 32,
        "start": 4903
      },
      {
        "length": 32,
        "start": 4967
      },
      {
        "length": 32,
        "start": 5333
      }
    ]
  },
  "source": "// SPDX-License-Identifier: MIT\r\npragma solidity ^0.8.9;\r\n\r\nimport \"@openzeppelin/contracts-upgradeable/token/ERC1155/ERC1155Upgradeable.sol\";\r\nimport \"@openzeppelin/contracts-upgradeable/token/ERC1155/extensions/ERC1155BurnableUpgradeable.sol\";\r\nimport \"@openzeppelin/contracts-upgradeable/token/ERC1155/extensions/ERC1155PausableUpgradeable.sol\";\r\nimport \"@openzeppelin/contracts-upgradeable/access/OwnableUpgradeable.sol\";\r\nimport \"@openzeppelin/contracts-upgradeable/proxy/utils/Initializable.sol\";\r\nimport \"@openzeppelin/contracts-upgradeable/proxy/utils/UUPSUpgradeable.sol\";\r\nimport \"@openzeppelin/contracts-upgradeable/access/AccessControlUpgradeable.sol\";\r\nimport \"@openzeppelin/contracts-upgradeable/token/ERC1155/extensions/ERC1155SupplyUpgradeable.sol\";\r\n\r\n// Profile (P) v0.1.0\r\n// Profile recieves data and creates items as Vaults\r\n\r\n\r\n\r\n\r\ncontract Profile is Initializable, ERC1155Upgradeable, ERC1155BurnableUpgradeable, ERC1155PausableUpgradeable, OwnableUpgradeable, UUPSUpgradeable, AccessControlUpgradeable, ERC1155SupplyUpgradeable {\r\n    struct Item {\r\n        bytes32[] encryptedItem;\r\n    }\r\n    uint256 public itemID;\r\n    mapping (uint256 => Item) internal items;\r\n    event EncryptionToolsSet(address _encryptionTools);\r\n    bytes32 public constant URI_SETTER_ROLE = keccak256(\"URI_SETTER_ROLE\");\r\n    bytes32 public constant PAUSER_ROLE = keccak256(\"PAUSER_ROLE\");\r\n    bytes32 public constant MINTER_ROLE = keccak256(\"MINTER_ROLE\");\r\n    bytes32 public constant UPGRADER_ROLE = keccak256(\"UPGRADER_ROLE\");\r\n    address public ETAddress;\r\n    address public ITAddress;\r\n    address public newOwner;\r\n    address public IDAddress;\r\n    event ItemTrackerSet(address _itemTracker);\r\n    mapping(uint256 => address) public itemOwners;\r\n    event ItemDisplacerSet(address _itemDisplacer);\r\n    address public vaultAddress;\r\n    mapping(uint256 => address) public vaults;\r\n    mapping(uint256 => uint256) public vaultIDs;\r\n    mapping(uint256 => uint256) public vaultBalances;\r\n    event VaultSet(address _vault);\r\n    mapping(uint256 => uint256) public Profiles;\r\n    mapping(uint256 => uint256) public ProfileIDs;\r\n    mapping(uint256 => uint256) public ProfileBalances;\r\n        \r\n\r\n    // initialize the contract\r\n    function initialize(address _vaultAddress) public {\r\n        __ERC1155_init(\"https://ipfs.io/ipfs/\");\r\n        __ERC1155Burnable_init();\r\n        __ERC1155Pausable_init();\r\n        __Ownable_init();\r\n        __UUPSUpgradeable_init();\r\n        __AccessControl_init();\r\n        __ERC1155Supply_init();\r\n        _setupRole(DEFAULT_ADMIN_ROLE, msg.sender);\r\n        _setupRole(URI_SETTER_ROLE, msg.sender);\r\n        _setupRole(PAUSER_ROLE, msg.sender);\r\n        _setupRole(MINTER_ROLE, msg.sender);\r\n        _setupRole(UPGRADER_ROLE, msg.sender);\r\n        vaultAddress = _vaultAddress;\r\n    }\r\n\r\n    // set the encryption tools address\r\n    function setEncryptionTools(address _encryptionTools) public {\r\n        require(hasRole(UPGRADER_ROLE, msg.sender), \"Profile: must have upgrader role to set encryption tools\");\r\n        ETAddress = _encryptionTools;\r\n        emit EncryptionToolsSet(_encryptionTools);\r\n    }\r\n    // set the item tracker address\r\n    function setItemTracker(address _itemTracker) public {\r\n        require(hasRole(UPGRADER_ROLE, msg.sender), \"Profile: must have upgrader role to set item tracker\");\r\n        ITAddress = _itemTracker;\r\n    }\r\n\r\n    // set the item distributor address\r\n    function setItemDistributor(address _itemDistributor) public {\r\n        require(hasRole(UPGRADER_ROLE, msg.sender), \"Profile: must have upgrader role to set item distributor\");\r\n        IDAddress = _itemDistributor;\r\n    }\r\n\r\n    // create a new item\r\n    function createItem(bytes32[] memory _encryptedItem) public {\r\n        require(hasRole(MINTER_ROLE, msg.sender), \"Profile: must have minter role to create item\");\r\n        items[itemID].encryptedItem = _encryptedItem;\r\n        itemOwners[itemID] = msg.sender;\r\n        _mint(msg.sender, itemID, 1, \"\");\r\n        itemID++;\r\n        (bool success, bytes memory result) = vaultAddress.call(abi.encodeWithSignature(\"createItem(uint256)\", itemID));\r\n        require(success, \"Profile: failed to add item to vault\");\r\n    }\r\n\r\n    // create a new vault and add it to the profile\r\n    function createVault(string memory _description) public {\r\n        require(hasRole(MINTER_ROLE, msg.sender), \"Profile: must have minter role to create vault\");\r\n        (bool success, bytes memory result) = vaultAddress.call(abi.encodeWithSignature(\"createVault()\"));\r\n        require(success, \"Profile: failed to create vault\");\r\n        uint256 vaultID = abi.decode(result, (uint256));\r\n        vaults[vaultID] = msg.sender;\r\n        vaultIDs[vaultID] = vaultID;\r\n        vaultBalances[vaultID] = 1;\r\n    }\r\n\r\n    // transfer ownership of a vault\r\n    function transferVault(uint256 _vaultID, address _newOwner) public {\r\n        require(hasRole(MINTER_ROLE, msg.sender), \"Profile: must have minter role to transfer vault\");\r\n        require(vaults[_vaultID] == msg.sender, \"Profile: must be owner of vault to transfer vault\");\r\n        vaults[_vaultID] = _newOwner;\r\n    }\r\n\r\n    // The following functions are overrides required by Solidity.\r\n    \r\n            function setURI(string memory newuri) public onlyRole(URI_SETTER_ROLE) {\r\n        _setURI(newuri);\r\n    }\r\n\r\n    function pause() public onlyRole(PAUSER_ROLE) {\r\n        _pause();\r\n    }\r\n\r\n    function unpause() public onlyRole(PAUSER_ROLE) {\r\n        _unpause();\r\n    }\r\n\r\n    function mint(address account, uint256 id, uint256 amount, bytes memory data)\r\n        public\r\n        onlyRole(MINTER_ROLE)\r\n    {\r\n        _mint(account, id, amount, data);\r\n    }\r\n\r\n    function mintBatch(address to, uint256[] memory ids, uint256[] memory amounts, bytes memory data)\r\n        public\r\n        onlyRole(MINTER_ROLE)\r\n    {\r\n        _mintBatch(to, ids, amounts, data);\r\n    }\r\n\r\n    function _beforeTokenTransfer(address operator, address from, address to, uint256[] memory ids, uint256[] memory amounts, bytes memory data)\r\n        internal\r\n        whenNotPaused\r\n        override(ERC1155PausableUpgradeable, ERC1155Upgradeable, ERC1155SupplyUpgradeable)\r\n    {\r\n        super._beforeTokenTransfer(operator, from, to, ids, amounts, data);\r\n    }\r\n\r\n    function _authorizeUpgrade(address newImplementation)\r\n        internal\r\n        onlyRole(UPGRADER_ROLE)\r\n        override\r\n    {}\r\n\r\n    function supportsInterface(bytes4 interfaceId)\r\n        public\r\n        view\r\n        override(ERC1155Upgradeable, AccessControlUpgradeable)\r\n        returns (bool)\r\n    {\r\n        return super.supportsInterface(interfaceId);\r\n    }\r\n\r\n}",
  "sourcePath": "C:\\Users\\mosle\\Documents\\GitHub\\nWonderland\\contracts\\DALI\\005_Profile.sol",
  "compiler": {
    "name": "solc",
    "version": "0.8.9+commit.e5eed63a.Emscripten.clang"
  },
  "schemaVersion": "3.4.8",
  "updatedAt": "2022-12-15T17:05:23.970Z",
  "devdoc": {
    "kind": "dev",
    "methods": {
      "balanceOf(address,uint256)": {
        "details": "See {IERC1155-balanceOf}. Requirements: - `account` cannot be the zero address."
      },
      "balanceOfBatch(address[],uint256[])": {
        "details": "See {IERC1155-balanceOfBatch}. Requirements: - `accounts` and `ids` must have the same length."
      },
      "exists(uint256)": {
        "details": "Indicates whether any token exist with a given id, or not."
      },
      "getRoleAdmin(bytes32)": {
        "details": "Returns the admin role that controls `role`. See {grantRole} and {revokeRole}. To change a role's admin, use {_setRoleAdmin}."
      },
      "grantRole(bytes32,address)": {
        "details": "Grants `role` to `account`. If `account` had not been already granted `role`, emits a {RoleGranted} event. Requirements: - the caller must have ``role``'s admin role. May emit a {RoleGranted} event."
      },
      "hasRole(bytes32,address)": {
        "details": "Returns `true` if `account` has been granted `role`."
      },
      "isApprovedForAll(address,address)": {
        "details": "See {IERC1155-isApprovedForAll}."
      },
      "owner()": {
        "details": "Returns the address of the current owner."
      },
      "paused()": {
        "details": "Returns true if the contract is paused, and false otherwise."
      },
      "proxiableUUID()": {
        "details": "Implementation of the ERC1822 {proxiableUUID} function. This returns the storage slot used by the implementation. It is used to validate the implementation's compatibility when performing an upgrade. IMPORTANT: A proxy pointing at a proxiable contract should not be considered proxiable itself, because this risks bricking a proxy that upgrades to it, by delegating to itself until out of gas. Thus it is critical that this function revert if invoked through a proxy. This is guaranteed by the `notDelegated` modifier."
      },
      "renounceOwnership()": {
        "details": "Leaves the contract without owner. It will not be possible to call `onlyOwner` functions anymore. Can only be called by the current owner. NOTE: Renouncing ownership will leave the contract without an owner, thereby removing any functionality that is only available to the owner."
      },
      "renounceRole(bytes32,address)": {
        "details": "Revokes `role` from the calling account. Roles are often managed via {grantRole} and {revokeRole}: this function's purpose is to provide a mechanism for accounts to lose their privileges if they are compromised (such as when a trusted device is misplaced). If the calling account had been revoked `role`, emits a {RoleRevoked} event. Requirements: - the caller must be `account`. May emit a {RoleRevoked} event."
      },
      "revokeRole(bytes32,address)": {
        "details": "Revokes `role` from `account`. If `account` had been granted `role`, emits a {RoleRevoked} event. Requirements: - the caller must have ``role``'s admin role. May emit a {RoleRevoked} event."
      },
      "safeBatchTransferFrom(address,address,uint256[],uint256[],bytes)": {
        "details": "See {IERC1155-safeBatchTransferFrom}."
      },
      "safeTransferFrom(address,address,uint256,uint256,bytes)": {
        "details": "See {IERC1155-safeTransferFrom}."
      },
      "setApprovalForAll(address,bool)": {
        "details": "See {IERC1155-setApprovalForAll}."
      },
      "totalSupply(uint256)": {
        "details": "Total amount of tokens in with a given id."
      },
      "transferOwnership(address)": {
        "details": "Transfers ownership of the contract to a new account (`newOwner`). Can only be called by the current owner."
      },
      "upgradeTo(address)": {
        "details": "Upgrade the implementation of the proxy to `newImplementation`. Calls {_authorizeUpgrade}. Emits an {Upgraded} event."
      },
      "upgradeToAndCall(address,bytes)": {
        "details": "Upgrade the implementation of the proxy to `newImplementation`, and subsequently execute the function call encoded in `data`. Calls {_authorizeUpgrade}. Emits an {Upgraded} event."
      },
      "uri(uint256)": {
        "details": "See {IERC1155MetadataURI-uri}. This implementation returns the same URI for *all* token types. It relies on the token type ID substitution mechanism https://eips.ethereum.org/EIPS/eip-1155#metadata[defined in the EIP]. Clients calling this function must replace the `\\{id\\}` substring with the actual token type ID."
      }
    },
    "version": 1
  },
  "userdoc": {
    "kind": "user",
    "methods": {},
    "version": 1
  }
}