{
  "contractName": "Vault",
  "abi": [
    {
      "anonymous": false,
      "inputs": [
        {
          "indexed": false,
          "internalType": "address",
          "name": "previousAdmin",
          "type": "address"
        },
        {
          "indexed": false,
          "internalType": "address",
          "name": "newAdmin",
          "type": "address"
        }
      ],
      "name": "AdminChanged",
      "type": "event"
    },
    {
      "anonymous": false,
      "inputs": [
        {
          "indexed": true,
          "internalType": "address",
          "name": "account",
          "type": "address"
        },
        {
          "indexed": true,
          "internalType": "address",
          "name": "operator",
          "type": "address"
        },
        {
          "indexed": false,
          "internalType": "bool",
          "name": "approved",
          "type": "bool"
        }
      ],
      "name": "ApprovalForAll",
      "type": "event"
    },
    {
      "anonymous": false,
      "inputs": [
        {
          "indexed": true,
          "internalType": "address",
          "name": "beacon",
          "type": "address"
        }
      ],
      "name": "BeaconUpgraded",
      "type": "event"
    },
    {
      "anonymous": false,
      "inputs": [
        {
          "indexed": false,
          "internalType": "address",
          "name": "_encryptionTools",
          "type": "address"
        }
      ],
      "name": "EncryptionToolsSet",
      "type": "event"
    },
    {
      "anonymous": false,
      "inputs": [
        {
          "indexed": false,
          "internalType": "uint8",
          "name": "version",
          "type": "uint8"
        }
      ],
      "name": "Initialized",
      "type": "event"
    },
    {
      "anonymous": false,
      "inputs": [
        {
          "indexed": false,
          "internalType": "address",
          "name": "_itemDisplacer",
          "type": "address"
        }
      ],
      "name": "ItemDisplacerSet",
      "type": "event"
    },
    {
      "anonymous": false,
      "inputs": [
        {
          "indexed": false,
          "internalType": "address",
          "name": "_itemTracker",
          "type": "address"
        }
      ],
      "name": "ItemTrackerSet",
      "type": "event"
    },
    {
      "anonymous": false,
      "inputs": [
        {
          "indexed": false,
          "internalType": "address",
          "name": "account",
          "type": "address"
        }
      ],
      "name": "Paused",
      "type": "event"
    },
    {
      "anonymous": false,
      "inputs": [
        {
          "indexed": true,
          "internalType": "bytes32",
          "name": "role",
          "type": "bytes32"
        },
        {
          "indexed": true,
          "internalType": "bytes32",
          "name": "previousAdminRole",
          "type": "bytes32"
        },
        {
          "indexed": true,
          "internalType": "bytes32",
          "name": "newAdminRole",
          "type": "bytes32"
        }
      ],
      "name": "RoleAdminChanged",
      "type": "event"
    },
    {
      "anonymous": false,
      "inputs": [
        {
          "indexed": true,
          "internalType": "bytes32",
          "name": "role",
          "type": "bytes32"
        },
        {
          "indexed": true,
          "internalType": "address",
          "name": "account",
          "type": "address"
        },
        {
          "indexed": true,
          "internalType": "address",
          "name": "sender",
          "type": "address"
        }
      ],
      "name": "RoleGranted",
      "type": "event"
    },
    {
      "anonymous": false,
      "inputs": [
        {
          "indexed": true,
          "internalType": "bytes32",
          "name": "role",
          "type": "bytes32"
        },
        {
          "indexed": true,
          "internalType": "address",
          "name": "account",
          "type": "address"
        },
        {
          "indexed": true,
          "internalType": "address",
          "name": "sender",
          "type": "address"
        }
      ],
      "name": "RoleRevoked",
      "type": "event"
    },
    {
      "anonymous": false,
      "inputs": [
        {
          "indexed": true,
          "internalType": "address",
          "name": "operator",
          "type": "address"
        },
        {
          "indexed": true,
          "internalType": "address",
          "name": "from",
          "type": "address"
        },
        {
          "indexed": true,
          "internalType": "address",
          "name": "to",
          "type": "address"
        },
        {
          "indexed": false,
          "internalType": "uint256[]",
          "name": "ids",
          "type": "uint256[]"
        },
        {
          "indexed": false,
          "internalType": "uint256[]",
          "name": "values",
          "type": "uint256[]"
        }
      ],
      "name": "TransferBatch",
      "type": "event"
    },
    {
      "anonymous": false,
      "inputs": [
        {
          "indexed": true,
          "internalType": "address",
          "name": "operator",
          "type": "address"
        },
        {
          "indexed": true,
          "internalType": "address",
          "name": "from",
          "type": "address"
        },
        {
          "indexed": true,
          "internalType": "address",
          "name": "to",
          "type": "address"
        },
        {
          "indexed": false,
          "internalType": "uint256",
          "name": "id",
          "type": "uint256"
        },
        {
          "indexed": false,
          "internalType": "uint256",
          "name": "value",
          "type": "uint256"
        }
      ],
      "name": "TransferSingle",
      "type": "event"
    },
    {
      "anonymous": false,
      "inputs": [
        {
          "indexed": false,
          "internalType": "string",
          "name": "value",
          "type": "string"
        },
        {
          "indexed": true,
          "internalType": "uint256",
          "name": "id",
          "type": "uint256"
        }
      ],
      "name": "URI",
      "type": "event"
    },
    {
      "anonymous": false,
      "inputs": [
        {
          "indexed": false,
          "internalType": "address",
          "name": "account",
          "type": "address"
        }
      ],
      "name": "Unpaused",
      "type": "event"
    },
    {
      "anonymous": false,
      "inputs": [
        {
          "indexed": true,
          "internalType": "address",
          "name": "implementation",
          "type": "address"
        }
      ],
      "name": "Upgraded",
      "type": "event"
    },
    {
      "inputs": [],
      "name": "DEFAULT_ADMIN_ROLE",
      "outputs": [
        {
          "internalType": "bytes32",
          "name": "",
          "type": "bytes32"
        }
      ],
      "stateMutability": "view",
      "type": "function"
    },
    {
      "inputs": [],
      "name": "ETAddress",
      "outputs": [
        {
          "internalType": "address",
          "name": "",
          "type": "address"
        }
      ],
      "stateMutability": "view",
      "type": "function"
    },
    {
      "inputs": [],
      "name": "IDAddress",
      "outputs": [
        {
          "internalType": "address",
          "name": "",
          "type": "address"
        }
      ],
      "stateMutability": "view",
      "type": "function"
    },
    {
      "inputs": [],
      "name": "ITAddress",
      "outputs": [
        {
          "internalType": "address",
          "name": "",
          "type": "address"
        }
      ],
      "stateMutability": "view",
      "type": "function"
    },
    {
      "inputs": [],
      "name": "MINTER_ROLE",
      "outputs": [
        {
          "internalType": "bytes32",
          "name": "",
          "type": "bytes32"
        }
      ],
      "stateMutability": "view",
      "type": "function"
    },
    {
      "inputs": [],
      "name": "PAUSER_ROLE",
      "outputs": [
        {
          "internalType": "bytes32",
          "name": "",
          "type": "bytes32"
        }
      ],
      "stateMutability": "view",
      "type": "function"
    },
    {
      "inputs": [],
      "name": "UPGRADER_ROLE",
      "outputs": [
        {
          "internalType": "bytes32",
          "name": "",
          "type": "bytes32"
        }
      ],
      "stateMutability": "view",
      "type": "function"
    },
    {
      "inputs": [],
      "name": "URI_SETTER_ROLE",
      "outputs": [
        {
          "internalType": "bytes32",
          "name": "",
          "type": "bytes32"
        }
      ],
      "stateMutability": "view",
      "type": "function"
    },
    {
      "inputs": [
        {
          "internalType": "address",
          "name": "account",
          "type": "address"
        },
        {
          "internalType": "uint256",
          "name": "id",
          "type": "uint256"
        }
      ],
      "name": "balanceOf",
      "outputs": [
        {
          "internalType": "uint256",
          "name": "",
          "type": "uint256"
        }
      ],
      "stateMutability": "view",
      "type": "function"
    },
    {
      "inputs": [
        {
          "internalType": "address[]",
          "name": "accounts",
          "type": "address[]"
        },
        {
          "internalType": "uint256[]",
          "name": "ids",
          "type": "uint256[]"
        }
      ],
      "name": "balanceOfBatch",
      "outputs": [
        {
          "internalType": "uint256[]",
          "name": "",
          "type": "uint256[]"
        }
      ],
      "stateMutability": "view",
      "type": "function"
    },
    {
      "inputs": [
        {
          "internalType": "address",
          "name": "account",
          "type": "address"
        },
        {
          "internalType": "uint256",
          "name": "id",
          "type": "uint256"
        },
        {
          "internalType": "uint256",
          "name": "value",
          "type": "uint256"
        }
      ],
      "name": "burn",
      "outputs": [],
      "stateMutability": "nonpayable",
      "type": "function"
    },
    {
      "inputs": [
        {
          "internalType": "address",
          "name": "account",
          "type": "address"
        },
        {
          "internalType": "uint256[]",
          "name": "ids",
          "type": "uint256[]"
        },
        {
          "internalType": "uint256[]",
          "name": "values",
          "type": "uint256[]"
        }
      ],
      "name": "burnBatch",
      "outputs": [],
      "stateMutability": "nonpayable",
      "type": "function"
    },
    {
      "inputs": [
        {
          "internalType": "uint256",
          "name": "id",
          "type": "uint256"
        }
      ],
      "name": "exists",
      "outputs": [
        {
          "internalType": "bool",
          "name": "",
          "type": "bool"
        }
      ],
      "stateMutability": "view",
      "type": "function"
    },
    {
      "inputs": [
        {
          "internalType": "bytes32",
          "name": "role",
          "type": "bytes32"
        }
      ],
      "name": "getRoleAdmin",
      "outputs": [
        {
          "internalType": "bytes32",
          "name": "",
          "type": "bytes32"
        }
      ],
      "stateMutability": "view",
      "type": "function"
    },
    {
      "inputs": [
        {
          "internalType": "bytes32",
          "name": "role",
          "type": "bytes32"
        },
        {
          "internalType": "address",
          "name": "account",
          "type": "address"
        }
      ],
      "name": "grantRole",
      "outputs": [],
      "stateMutability": "nonpayable",
      "type": "function"
    },
    {
      "inputs": [
        {
          "internalType": "bytes32",
          "name": "role",
          "type": "bytes32"
        },
        {
          "internalType": "address",
          "name": "account",
          "type": "address"
        }
      ],
      "name": "hasRole",
      "outputs": [
        {
          "internalType": "bool",
          "name": "",
          "type": "bool"
        }
      ],
      "stateMutability": "view",
      "type": "function"
    },
    {
      "inputs": [
        {
          "internalType": "address",
          "name": "account",
          "type": "address"
        },
        {
          "internalType": "address",
          "name": "operator",
          "type": "address"
        }
      ],
      "name": "isApprovedForAll",
      "outputs": [
        {
          "internalType": "bool",
          "name": "",
          "type": "bool"
        }
      ],
      "stateMutability": "view",
      "type": "function"
    },
    {
      "inputs": [],
      "name": "itemID",
      "outputs": [
        {
          "internalType": "uint256",
          "name": "",
          "type": "uint256"
        }
      ],
      "stateMutability": "view",
      "type": "function"
    },
    {
      "inputs": [
        {
          "internalType": "uint256",
          "name": "",
          "type": "uint256"
        }
      ],
      "name": "itemOwners",
      "outputs": [
        {
          "internalType": "address",
          "name": "",
          "type": "address"
        }
      ],
      "stateMutability": "view",
      "type": "function"
    },
    {
      "inputs": [],
      "name": "newOwner",
      "outputs": [
        {
          "internalType": "address",
          "name": "",
          "type": "address"
        }
      ],
      "stateMutability": "view",
      "type": "function"
    },
    {
      "inputs": [],
      "name": "paused",
      "outputs": [
        {
          "internalType": "bool",
          "name": "",
          "type": "bool"
        }
      ],
      "stateMutability": "view",
      "type": "function"
    },
    {
      "inputs": [],
      "name": "proxiableUUID",
      "outputs": [
        {
          "internalType": "bytes32",
          "name": "",
          "type": "bytes32"
        }
      ],
      "stateMutability": "view",
      "type": "function"
    },
    {
      "inputs": [
        {
          "internalType": "bytes32",
          "name": "role",
          "type": "bytes32"
        },
        {
          "internalType": "address",
          "name": "account",
          "type": "address"
        }
      ],
      "name": "renounceRole",
      "outputs": [],
      "stateMutability": "nonpayable",
      "type": "function"
    },
    {
      "inputs": [
        {
          "internalType": "bytes32",
          "name": "role",
          "type": "bytes32"
        },
        {
          "internalType": "address",
          "name": "account",
          "type": "address"
        }
      ],
      "name": "revokeRole",
      "outputs": [],
      "stateMutability": "nonpayable",
      "type": "function"
    },
    {
      "inputs": [
        {
          "internalType": "address",
          "name": "from",
          "type": "address"
        },
        {
          "internalType": "address",
          "name": "to",
          "type": "address"
        },
        {
          "internalType": "uint256[]",
          "name": "ids",
          "type": "uint256[]"
        },
        {
          "internalType": "uint256[]",
          "name": "amounts",
          "type": "uint256[]"
        },
        {
          "internalType": "bytes",
          "name": "data",
          "type": "bytes"
        }
      ],
      "name": "safeBatchTransferFrom",
      "outputs": [],
      "stateMutability": "nonpayable",
      "type": "function"
    },
    {
      "inputs": [
        {
          "internalType": "address",
          "name": "from",
          "type": "address"
        },
        {
          "internalType": "address",
          "name": "to",
          "type": "address"
        },
        {
          "internalType": "uint256",
          "name": "id",
          "type": "uint256"
        },
        {
          "internalType": "uint256",
          "name": "amount",
          "type": "uint256"
        },
        {
          "internalType": "bytes",
          "name": "data",
          "type": "bytes"
        }
      ],
      "name": "safeTransferFrom",
      "outputs": [],
      "stateMutability": "nonpayable",
      "type": "function"
    },
    {
      "inputs": [
        {
          "internalType": "address",
          "name": "operator",
          "type": "address"
        },
        {
          "internalType": "bool",
          "name": "approved",
          "type": "bool"
        }
      ],
      "name": "setApprovalForAll",
      "outputs": [],
      "stateMutability": "nonpayable",
      "type": "function"
    },
    {
      "inputs": [
        {
          "internalType": "uint256",
          "name": "id",
          "type": "uint256"
        }
      ],
      "name": "totalSupply",
      "outputs": [
        {
          "internalType": "uint256",
          "name": "",
          "type": "uint256"
        }
      ],
      "stateMutability": "view",
      "type": "function"
    },
    {
      "inputs": [
        {
          "internalType": "address",
          "name": "newImplementation",
          "type": "address"
        }
      ],
      "name": "upgradeTo",
      "outputs": [],
      "stateMutability": "nonpayable",
      "type": "function"
    },
    {
      "inputs": [
        {
          "internalType": "address",
          "name": "newImplementation",
          "type": "address"
        },
        {
          "internalType": "bytes",
          "name": "data",
          "type": "bytes"
        }
      ],
      "name": "upgradeToAndCall",
      "outputs": [],
      "stateMutability": "payable",
      "type": "function"
    },
    {
      "inputs": [
        {
          "internalType": "uint256",
          "name": "",
          "type": "uint256"
        }
      ],
      "name": "uri",
      "outputs": [
        {
          "internalType": "string",
          "name": "",
          "type": "string"
        }
      ],
      "stateMutability": "view",
      "type": "function"
    },
    {
      "inputs": [],
      "name": "vaultAddress",
      "outputs": [
        {
          "internalType": "address",
          "name": "",
          "type": "address"
        }
      ],
      "stateMutability": "view",
      "type": "function"
    },
    {
      "inputs": [
        {
          "internalType": "uint256",
          "name": "",
          "type": "uint256"
        }
      ],
      "name": "vaultBalances",
      "outputs": [
        {
          "internalType": "uint256",
          "name": "",
          "type": "uint256"
        }
      ],
      "stateMutability": "view",
      "type": "function"
    },
    {
      "inputs": [
        {
          "internalType": "uint256",
          "name": "",
          "type": "uint256"
        }
      ],
      "name": "vaultIDs",
      "outputs": [
        {
          "internalType": "uint256",
          "name": "",
          "type": "uint256"
        }
      ],
      "stateMutability": "view",
      "type": "function"
    },
    {
      "inputs": [
        {
          "internalType": "uint256",
          "name": "",
          "type": "uint256"
        }
      ],
      "name": "vaults",
      "outputs": [
        {
          "internalType": "address",
          "name": "",
          "type": "address"
        }
      ],
      "stateMutability": "view",
      "type": "function"
    },
    {
      "inputs": [
        {
          "internalType": "address",
          "name": "_IDAddress",
          "type": "address"
        },
        {
          "internalType": "address",
          "name": "_ITAddress",
          "type": "address"
        },
        {
          "internalType": "address",
          "name": "_ETAddress",
          "type": "address"
        }
      ],
      "name": "initialize",
      "outputs": [],
      "stateMutability": "nonpayable",
      "type": "function"
    },
    {
      "inputs": [
        {
          "internalType": "address",
          "name": "_ETAddress",
          "type": "address"
        }
      ],
      "name": "setEncryptionTools",
      "outputs": [],
      "stateMutability": "nonpayable",
      "type": "function"
    },
    {
      "inputs": [
        {
          "internalType": "bytes32[]",
          "name": "_encryptedItem",
          "type": "bytes32[]"
        }
      ],
      "name": "createItem",
      "outputs": [],
      "stateMutability": "nonpayable",
      "type": "function"
    },
    {
      "inputs": [
        {
          "internalType": "uint256",
          "name": "_itemID",
          "type": "uint256"
        },
        {
          "internalType": "uint256",
          "name": "_amount",
          "type": "uint256"
        }
      ],
      "name": "splitItem",
      "outputs": [],
      "stateMutability": "nonpayable",
      "type": "function"
    },
    {
      "inputs": [
        {
          "internalType": "uint256[]",
          "name": "_itemIDs",
          "type": "uint256[]"
        }
      ],
      "name": "combineItems",
      "outputs": [],
      "stateMutability": "nonpayable",
      "type": "function"
    },
    {
      "inputs": [
        {
          "internalType": "uint256",
          "name": "_itemID",
          "type": "uint256"
        },
        {
          "internalType": "address",
          "name": "_to",
          "type": "address"
        }
      ],
      "name": "transferItem",
      "outputs": [],
      "stateMutability": "nonpayable",
      "type": "function"
    },
    {
      "inputs": [
        {
          "internalType": "uint256[]",
          "name": "_itemIDs",
          "type": "uint256[]"
        },
        {
          "internalType": "address",
          "name": "_to",
          "type": "address"
        }
      ],
      "name": "transferItems",
      "outputs": [],
      "stateMutability": "nonpayable",
      "type": "function"
    },
    {
      "inputs": [
        {
          "internalType": "uint256",
          "name": "_itemID",
          "type": "uint256"
        }
      ],
      "name": "getItem",
      "outputs": [
        {
          "internalType": "bytes32[]",
          "name": "",
          "type": "bytes32[]"
        }
      ],
      "stateMutability": "view",
      "type": "function"
    },
    {
      "inputs": [
        {
          "internalType": "uint256",
          "name": "_itemID",
          "type": "uint256"
        }
      ],
      "name": "getItemOwner",
      "outputs": [
        {
          "internalType": "address",
          "name": "",
          "type": "address"
        }
      ],
      "stateMutability": "view",
      "type": "function"
    },
    {
      "inputs": [],
      "name": "getItemID",
      "outputs": [
        {
          "internalType": "uint256",
          "name": "",
          "type": "uint256"
        }
      ],
      "stateMutability": "view",
      "type": "function"
    },
    {
      "inputs": [],
      "name": "pause",
      "outputs": [],
      "stateMutability": "nonpayable",
      "type": "function"
    },
    {
      "inputs": [],
      "name": "unpause",
      "outputs": [],
      "stateMutability": "nonpayable",
      "type": "function"
    },
    {
      "inputs": [
        {
          "internalType": "string",
          "name": "newuri",
          "type": "string"
        }
      ],
      "name": "setURI",
      "outputs": [],
      "stateMutability": "nonpayable",
      "type": "function"
    },
    {
      "inputs": [
        {
          "internalType": "address",
          "name": "account",
          "type": "address"
        },
        {
          "internalType": "uint256",
          "name": "id",
          "type": "uint256"
        },
        {
          "internalType": "uint256",
          "name": "amount",
          "type": "uint256"
        },
        {
          "internalType": "bytes",
          "name": "data",
          "type": "bytes"
        }
      ],
      "name": "mint",
      "outputs": [],
      "stateMutability": "nonpayable",
      "type": "function"
    },
    {
      "inputs": [
        {
          "internalType": "address",
          "name": "to",
          "type": "address"
        },
        {
          "internalType": "uint256[]",
          "name": "ids",
          "type": "uint256[]"
        },
        {
          "internalType": "uint256[]",
          "name": "amounts",
          "type": "uint256[]"
        },
        {
          "internalType": "bytes",
          "name": "data",
          "type": "bytes"
        }
      ],
      "name": "mintBatch",
      "outputs": [],
      "stateMutability": "nonpayable",
      "type": "function"
    },
    {
      "inputs": [
        {
          "internalType": "bytes4",
          "name": "interfaceId",
          "type": "bytes4"
        }
      ],
      "name": "supportsInterface",
      "outputs": [
        {
          "internalType": "bool",
          "name": "",
          "type": "bool"
        }
      ],
      "stateMutability": "view",
      "type": "function"
    }
  ],
  "bytecode": "0x60a06040523073ffffffffffffffffffffffffffffffffffffffff1660809073ffffffffffffffffffffffffffffffffffffffff168152503480156200004457600080fd5b5060805161832b6200007d60003960008181611333015281816113c1015281816116b40152818161174201526118eb015261832b6000f3fe6080604052600436106102e15760003560e01c80636b20c45411610190578063d5391393116100dc578063f0feff0511610095578063f30357a01161006f578063f30357a014610b80578063f5298aca14610ba9578063f57d85af14610bd2578063f72c0d8b14610bfd576102e1565b8063f0feff0514610af1578063f1fe483314610b2e578063f242432a14610b57576102e1565b8063d5391393146109cd578063d547741f146109f8578063de1d019b14610a21578063de8bfd5514610a5e578063e63ab1e914610a89578063e985e9c514610ab4576102e1565b8063a217fddf11610149578063abcd9a9c11610123578063abcd9a9c14610913578063bd85b0391461093c578063c0c53b8b14610979578063d4ee1d90146109a2576102e1565b8063a217fddf14610896578063a22cb465146108c1578063a4229101146108ea576102e1565b80636b20c45414610788578063731133e9146107b15780637f345710146107da5780638456cb59146108055780638c64ea4a1461081c57806391d1485414610859576102e1565b806336568abe1161024f5780634a2e30bb116102085780634f558e79116101e25780634f558e79146106cc5780634fd5bbeb1461070957806352d1902d146107325780635c975abb1461075d576102e1565b80634a2e30bb146106365780634e1273f4146106735780634f1ef286146106b0576102e1565b806336568abe1461054c5780633659cfe6146105755780633a0ed00e1461059e5780633f4ba83a146105c9578063430bf08a146105e057806343cdef601461060b576102e1565b80631d1440fd116102a15780631d1440fd1461041a5780631f7fdffa14610457578063248a9ca3146104805780632eb2c2d6146104bd5780632f2ff15d146104e65780633129e7731461050f576102e1565b8062491920146102e65780626d13d214610311578062fdd58e1461033a57806301ffc9a71461037757806302fe5305146103b45780630e89341c146103dd575b600080fd5b3480156102f257600080fd5b506102fb610c28565b6040516103089190615429565b60405180910390f35b34801561031d57600080fd5b5061033860048036038101906103339190615613565b610c4f565b005b34801561034657600080fd5b50610361600480360381019061035c919061566f565b610f3c565b60405161036e91906156be565b60405180910390f35b34801561038357600080fd5b5061039e60048036038101906103999190615731565b611005565b6040516103ab9190615779565b60405180910390f35b3480156103c057600080fd5b506103db60048036038101906103d69190615849565b611017565b005b3480156103e957600080fd5b5061040460048036038101906103ff9190615892565b61104e565b6040516104119190615947565b60405180910390f35b34801561042657600080fd5b50610441600480360381019061043c9190615892565b6110e2565b60405161044e9190615429565b60405180910390f35b34801561046357600080fd5b5061047e60048036038101906104799190615a0a565b611120565b005b34801561048c57600080fd5b506104a760048036038101906104a29190615afb565b61115d565b6040516104b49190615b37565b60405180910390f35b3480156104c957600080fd5b506104e460048036038101906104df9190615b52565b61117d565b005b3480156104f257600080fd5b5061050d60048036038101906105089190615c21565b61121e565b005b34801561051b57600080fd5b5061053660048036038101906105319190615892565b61123f565b6040516105439190615d1f565b60405180910390f35b34801561055857600080fd5b50610573600480360381019061056e9190615c21565b6112ae565b005b34801561058157600080fd5b5061059c60048036038101906105979190615d41565b611331565b005b3480156105aa57600080fd5b506105b36114b9565b6040516105c091906156be565b60405180910390f35b3480156105d557600080fd5b506105de6114c4565b005b3480156105ec57600080fd5b506105f5611537565b6040516106029190615429565b60405180910390f35b34801561061757600080fd5b5061062061155e565b60405161062d91906156be565b60405180910390f35b34801561064257600080fd5b5061065d60048036038101906106589190615892565b611565565b60405161066a9190615429565b60405180910390f35b34801561067f57600080fd5b5061069a60048036038101906106959190615e31565b611599565b6040516106a79190615f67565b60405180910390f35b6106ca60048036038101906106c59190615f89565b6116b2565b005b3480156106d857600080fd5b506106f360048036038101906106ee9190615892565b6117ee565b6040516107009190615779565b60405180910390f35b34801561071557600080fd5b50610730600480360381019061072b9190615d41565b611802565b005b34801561073e57600080fd5b506107476118e7565b6040516107549190615b37565b60405180910390f35b34801561076957600080fd5b506107726119a0565b60405161077f9190615779565b60405180910390f35b34801561079457600080fd5b506107af60048036038101906107aa9190615fe5565b6119b7565b005b3480156107bd57600080fd5b506107d860048036038101906107d39190616070565b611a54565b005b3480156107e657600080fd5b506107ef611a91565b6040516107fc9190615b37565b60405180910390f35b34801561081157600080fd5b5061081a611ab5565b005b34801561082857600080fd5b50610843600480360381019061083e9190615892565b611b28565b6040516108509190615429565b60405180910390f35b34801561086557600080fd5b50610880600480360381019061087b9190615c21565b611b5c565b60405161088d9190615779565b60405180910390f35b3480156108a257600080fd5b506108ab611bc7565b6040516108b89190615b37565b60405180910390f35b3480156108cd57600080fd5b506108e860048036038101906108e3919061611f565b611bce565b005b3480156108f657600080fd5b50610911600480360381019061090c919061615f565b611be4565b005b34801561091f57600080fd5b5061093a6004803603810190610935919061619f565b611e2f565b005b34801561094857600080fd5b50610963600480360381019061095e9190615892565b612180565b60405161097091906156be565b60405180910390f35b34801561098557600080fd5b506109a0600480360381019061099b91906161df565b61219e565b005b3480156109ae57600080fd5b506109b76124c1565b6040516109c49190615429565b60405180910390f35b3480156109d957600080fd5b506109e26124e8565b6040516109ef9190615b37565b60405180910390f35b348015610a0457600080fd5b50610a1f6004803603810190610a1a9190615c21565b61250c565b005b348015610a2d57600080fd5b50610a486004803603810190610a439190615892565b61252d565b604051610a5591906156be565b60405180910390f35b348015610a6a57600080fd5b50610a73612546565b604051610a809190615429565b60405180910390f35b348015610a9557600080fd5b50610a9e61256d565b604051610aab9190615b37565b60405180910390f35b348015610ac057600080fd5b50610adb6004803603810190610ad69190616232565b612591565b604051610ae89190615779565b60405180910390f35b348015610afd57600080fd5b50610b186004803603810190610b139190615892565b612625565b604051610b2591906156be565b60405180910390f35b348015610b3a57600080fd5b50610b556004803603810190610b509190616335565b61263e565b005b348015610b6357600080fd5b50610b7e6004803603810190610b79919061637e565b6126f2565b005b348015610b8c57600080fd5b50610ba76004803603810190610ba29190616415565b612793565b005b348015610bb557600080fd5b50610bd06004803603810190610bcb919061645e565b612c1f565b005b348015610bde57600080fd5b50610be7612cbc565b604051610bf49190615429565b60405180910390f35b348015610c0957600080fd5b50610c12612ce3565b604051610c1f9190615b37565b60405180910390f35b6101c360009054906101000a900473ffffffffffffffffffffffffffffffffffffffff1681565b610c797f9f2df0fed2c77648de5860a4cc508cd0818c85b8b8a1ab4ceeef8d981c8956a633611b5c565b610cb8576040517f08c379a0000000000000000000000000000000000000000000000000000000008152600401610caf90616523565b60405180910390fd5b60005b8251811015610f37573373ffffffffffffffffffffffffffffffffffffffff166101cb6000858481518110610cf357610cf2616543565b5b6020026020010151815260200190815260200160002060009054906101000a900473ffffffffffffffffffffffffffffffffffffffff1673ffffffffffffffffffffffffffffffffffffffff1614610d80576040517f08c379a0000000000000000000000000000000000000000000000000000000008152600401610d77906165e4565b60405180910390fd5b60006101cd6000858481518110610d9a57610d99616543565b5b602002602001015181526020019081526020016000205411610df1576040517f08c379a0000000000000000000000000000000000000000000000000000000008152600401610de890616676565b60405180910390fd5b816101cb6000858481518110610e0a57610e09616543565b5b6020026020010151815260200190815260200160002060006101000a81548173ffffffffffffffffffffffffffffffffffffffff021916908373ffffffffffffffffffffffffffffffffffffffff1602179055508173ffffffffffffffffffffffffffffffffffffffff163373ffffffffffffffffffffffffffffffffffffffff163373ffffffffffffffffffffffffffffffffffffffff167fc3d58168c5ae7397731d063d5bbf3d657854427343f4c083240f7aacaa2d0f62868581518110610ed757610ed6616543565b5b60200260200101516101cd6000898881518110610ef757610ef6616543565b5b6020026020010151815260200190815260200160002054604051610f1c929190616696565b60405180910390a48080610f2f906166ee565b915050610cbb565b505050565b60008073ffffffffffffffffffffffffffffffffffffffff168373ffffffffffffffffffffffffffffffffffffffff1603610fac576040517f08c379a0000000000000000000000000000000000000000000000000000000008152600401610fa3906167a8565b60405180910390fd5b6065600083815260200190815260200160002060008473ffffffffffffffffffffffffffffffffffffffff1673ffffffffffffffffffffffffffffffffffffffff16815260200190815260200160002054905092915050565b600061101082612d07565b9050919050565b7f7804d923f43a17d325d77e781528e0793b2edd9890ab45fc64efd7b4b427744c61104181612d81565b61104a82612d95565b5050565b60606067805461105d906167f7565b80601f0160208091040260200160405190810160405280929190818152602001828054611089906167f7565b80156110d65780601f106110ab576101008083540402835291602001916110d6565b820191906000526020600020905b8154815290600101906020018083116110b957829003601f168201915b50505050509050919050565b60006101c9600083815260200190815260200160002060009054906101000a900473ffffffffffffffffffffffffffffffffffffffff169050919050565b7f9f2df0fed2c77648de5860a4cc508cd0818c85b8b8a1ab4ceeef8d981c8956a661114a81612d81565b61115685858585612daf565b5050505050565b600060976000838152602001908152602001600020600101549050919050565b611185612fdc565b73ffffffffffffffffffffffffffffffffffffffff168573ffffffffffffffffffffffffffffffffffffffff1614806111cb57506111ca856111c5612fdc565b612591565b5b61120a576040517f08c379a00000000000000000000000000000000000000000000000000000000081526004016112019061689a565b60405180910390fd5b6112178585858585612fe4565b5050505050565b6112278261115d565b61123081612d81565b61123a8383613308565b505050565b60606101c560008381526020019081526020016000206000018054806020026020016040519081016040528092919081815260200182805480156112a257602002820191906000526020600020905b81548152602001906001019080831161128e575b50505050509050919050565b6112b6612fdc565b73ffffffffffffffffffffffffffffffffffffffff168173ffffffffffffffffffffffffffffffffffffffff1614611323576040517f08c379a000000000000000000000000000000000000000000000000000000000815260040161131a9061692c565b60405180910390fd5b61132d82826133e9565b5050565b7f000000000000000000000000000000000000000000000000000000000000000073ffffffffffffffffffffffffffffffffffffffff163073ffffffffffffffffffffffffffffffffffffffff16036113bf576040517f08c379a00000000000000000000000000000000000000000000000000000000081526004016113b6906169be565b60405180910390fd5b7f000000000000000000000000000000000000000000000000000000000000000073ffffffffffffffffffffffffffffffffffffffff166113fe6134cb565b73ffffffffffffffffffffffffffffffffffffffff1614611454576040517f08c379a000000000000000000000000000000000000000000000000000000000815260040161144b90616a50565b60405180910390fd5b61145d81613522565b6114b681600067ffffffffffffffff81111561147c5761147b61546e565b5b6040519080825280601f01601f1916602001820160405280156114ae5781602001600182028036833780820191505090505b506000613550565b50565b60006101c454905090565b6114ee7f65d7a28e3265b37a6474929f336521b332c1681b933f6cb9f3376673440d862a33611b5c565b61152d576040517f08c379a000000000000000000000000000000000000000000000000000000000815260040161152490616ae2565b60405180910390fd5b6115356136be565b565b6101ca60009054906101000a900473ffffffffffffffffffffffffffffffffffffffff1681565b6101c45481565b6101c96020528060005260406000206000915054906101000a900473ffffffffffffffffffffffffffffffffffffffff1681565b606081518351146115df576040517f08c379a00000000000000000000000000000000000000000000000000000000081526004016115d690616b74565b60405180910390fd5b6000835167ffffffffffffffff8111156115fc576115fb61546e565b5b60405190808252806020026020018201604052801561162a5781602001602082028036833780820191505090505b50905060005b84518110156116a75761167785828151811061164f5761164e616543565b5b602002602001015185838151811061166a57611669616543565b5b6020026020010151610f3c565b82828151811061168a57611689616543565b5b602002602001018181525050806116a0906166ee565b9050611630565b508091505092915050565b7f000000000000000000000000000000000000000000000000000000000000000073ffffffffffffffffffffffffffffffffffffffff163073ffffffffffffffffffffffffffffffffffffffff1603611740576040517f08c379a0000000000000000000000000000000000000000000000000000000008152600401611737906169be565b60405180910390fd5b7f000000000000000000000000000000000000000000000000000000000000000073ffffffffffffffffffffffffffffffffffffffff1661177f6134cb565b73ffffffffffffffffffffffffffffffffffffffff16146117d5576040517f08c379a00000000000000000000000000000000000000000000000000000000081526004016117cc90616a50565b60405180910390fd5b6117de82613522565b6117ea82826001613550565b5050565b6000806117fa83612180565b119050919050565b61182c7f189ab7a9244df0848122154315af71fe140f3db0fe014031783b0946b8c9d2e333611b5c565b61186b576040517f08c379a000000000000000000000000000000000000000000000000000000000815260040161186290616c06565b60405180910390fd5b806101c360006101000a81548173ffffffffffffffffffffffffffffffffffffffff021916908373ffffffffffffffffffffffffffffffffffffffff1602179055507f0573c2d2fd76ad8f23cc8f19f84f77126c2b45713345e7cdd8b9783de3eff5e0816040516118dc9190615429565b60405180910390a150565b60007f000000000000000000000000000000000000000000000000000000000000000073ffffffffffffffffffffffffffffffffffffffff163073ffffffffffffffffffffffffffffffffffffffff1614611977576040517f08c379a000000000000000000000000000000000000000000000000000000000815260040161196e90616c98565b60405180910390fd5b7f360894a13ba1a3210667c828492db98dca3e2076cc3735a920a3ca505d382bbc60001b905090565b600060c960009054906101000a900460ff16905090565b6119bf612fdc565b73ffffffffffffffffffffffffffffffffffffffff168373ffffffffffffffffffffffffffffffffffffffff161480611a055750611a04836119ff612fdc565b612591565b5b611a44576040517f08c379a0000000000000000000000000000000000000000000000000000000008152600401611a3b9061689a565b60405180910390fd5b611a4f838383613721565b505050565b7f9f2df0fed2c77648de5860a4cc508cd0818c85b8b8a1ab4ceeef8d981c8956a6611a7e81612d81565b611a8a858585856139f1565b5050505050565b7f7804d923f43a17d325d77e781528e0793b2edd9890ab45fc64efd7b4b427744c81565b611adf7f65d7a28e3265b37a6474929f336521b332c1681b933f6cb9f3376673440d862a33611b5c565b611b1e576040517f08c379a0000000000000000000000000000000000000000000000000000000008152600401611b1590616d2a565b60405180910390fd5b611b26613ba2565b565b6101cb6020528060005260406000206000915054906101000a900473ffffffffffffffffffffffffffffffffffffffff1681565b60006097600084815260200190815260200160002060000160008373ffffffffffffffffffffffffffffffffffffffff1673ffffffffffffffffffffffffffffffffffffffff16815260200190815260200160002060009054906101000a900460ff16905092915050565b6000801b81565b611be0611bd9612fdc565b8383613c05565b5050565b611c0e7f9f2df0fed2c77648de5860a4cc508cd0818c85b8b8a1ab4ceeef8d981c8956a633611b5c565b611c4d576040517f08c379a0000000000000000000000000000000000000000000000000000000008152600401611c4490616dbc565b60405180910390fd5b3373ffffffffffffffffffffffffffffffffffffffff166101cb600084815260200190815260200160002060009054906101000a900473ffffffffffffffffffffffffffffffffffffffff1673ffffffffffffffffffffffffffffffffffffffff1614611cef576040517f08c379a0000000000000000000000000000000000000000000000000000000008152600401611ce690616e4e565b60405180910390fd5b60006101cd60008481526020019081526020016000205411611d46576040517f08c379a0000000000000000000000000000000000000000000000000000000008152600401611d3d90616676565b60405180910390fd5b806101cb600084815260200190815260200160002060006101000a81548173ffffffffffffffffffffffffffffffffffffffff021916908373ffffffffffffffffffffffffffffffffffffffff1602179055508073ffffffffffffffffffffffffffffffffffffffff163373ffffffffffffffffffffffffffffffffffffffff163373ffffffffffffffffffffffffffffffffffffffff167fc3d58168c5ae7397731d063d5bbf3d657854427343f4c083240f7aacaa2d0f62856101cd600088815260200190815260200160002054604051611e23929190616696565b60405180910390a45050565b611e597f9f2df0fed2c77648de5860a4cc508cd0818c85b8b8a1ab4ceeef8d981c8956a633611b5c565b611e98576040517f08c379a0000000000000000000000000000000000000000000000000000000008152600401611e8f90616ee0565b60405180910390fd5b60008111611edb576040517f08c379a0000000000000000000000000000000000000000000000000000000008152600401611ed290616f72565b60405180910390fd5b6101cd600083815260200190815260200160002054811115611f32576040517f08c379a0000000000000000000000000000000000000000000000000000000008152600401611f2990617004565b60405180910390fd5b60006101cd60008481526020019081526020016000205411611f89576040517f08c379a0000000000000000000000000000000000000000000000000000000008152600401611f8090616676565b60405180910390fd5b3373ffffffffffffffffffffffffffffffffffffffff166101cb600084815260200190815260200160002060009054906101000a900473ffffffffffffffffffffffffffffffffffffffff1673ffffffffffffffffffffffffffffffffffffffff161461202b576040517f08c379a000000000000000000000000000000000000000000000000000000000815260040161202290617096565b60405180910390fd5b806101cd6000848152602001908152602001600020600082825461204f91906170b6565b9250508190555060006101c45490506101c46000815480929190612072906166ee565b9190505550336101cb600083815260200190815260200160002060006101000a81548173ffffffffffffffffffffffffffffffffffffffff021916908373ffffffffffffffffffffffffffffffffffffffff160217905550826101cc600083815260200190815260200160002081905550816101cd6000838152602001908152602001600020819055503373ffffffffffffffffffffffffffffffffffffffff16600073ffffffffffffffffffffffffffffffffffffffff163373ffffffffffffffffffffffffffffffffffffffff167fc3d58168c5ae7397731d063d5bbf3d657854427343f4c083240f7aacaa2d0f628486604051612173929190616696565b60405180910390a4505050565b600061012d6000838152602001908152602001600020549050919050565b60008060019054906101000a900460ff161590508080156121cf5750600160008054906101000a900460ff1660ff16105b806121fc57506121de30613d71565b1580156121fb5750600160008054906101000a900460ff1660ff16145b5b61223b576040517f08c379a00000000000000000000000000000000000000000000000000000000081526004016122329061715c565b60405180910390fd5b60016000806101000a81548160ff021916908360ff1602179055508015612278576001600060016101000a81548160ff0219169083151502179055505b6122b66040518060400160405280601581526020017f68747470733a2f2f697066732e696f2f697066732f0000000000000000000000815250613d94565b6122be613def565b6122c6613e40565b6122ce613e99565b6122d6613eea565b6122de613f3b565b6122eb6000801b33613f8c565b6123157f7804d923f43a17d325d77e781528e0793b2edd9890ab45fc64efd7b4b427744c33613f8c565b61233f7f65d7a28e3265b37a6474929f336521b332c1681b933f6cb9f3376673440d862a33613f8c565b6123697f9f2df0fed2c77648de5860a4cc508cd0818c85b8b8a1ab4ceeef8d981c8956a633613f8c565b6123937f189ab7a9244df0848122154315af71fe140f3db0fe014031783b0946b8c9d2e333613f8c565b836101c860006101000a81548173ffffffffffffffffffffffffffffffffffffffff021916908373ffffffffffffffffffffffffffffffffffffffff160217905550826101c660006101000a81548173ffffffffffffffffffffffffffffffffffffffff021916908373ffffffffffffffffffffffffffffffffffffffff160217905550816101c360006101000a81548173ffffffffffffffffffffffffffffffffffffffff021916908373ffffffffffffffffffffffffffffffffffffffff16021790555060006101c48190555080156124bb5760008060016101000a81548160ff0219169083151502179055507f7f26b83ff96e1f2b6a682f133852f6798a09c465da95921460cefb384740249860016040516124b291906171ce565b60405180910390a15b50505050565b6101c760009054906101000a900473ffffffffffffffffffffffffffffffffffffffff1681565b7f9f2df0fed2c77648de5860a4cc508cd0818c85b8b8a1ab4ceeef8d981c8956a681565b6125158261115d565b61251e81612d81565b61252883836133e9565b505050565b6101cc6020528060005260406000206000915090505481565b6101c860009054906101000a900473ffffffffffffffffffffffffffffffffffffffff1681565b7f65d7a28e3265b37a6474929f336521b332c1681b933f6cb9f3376673440d862a81565b6000606660008473ffffffffffffffffffffffffffffffffffffffff1673ffffffffffffffffffffffffffffffffffffffff16815260200190815260200160002060008373ffffffffffffffffffffffffffffffffffffffff1673ffffffffffffffffffffffffffffffffffffffff16815260200190815260200160002060009054906101000a900460ff16905092915050565b6101cd6020528060005260406000206000915090505481565b6126687f9f2df0fed2c77648de5860a4cc508cd0818c85b8b8a1ab4ceeef8d981c8956a633611b5c565b6126a7576040517f08c379a000000000000000000000000000000000000000000000000000000000815260040161269e9061725b565b60405180910390fd5b806101c560006101c454815260200190815260200160002060000190805190602001906126d59291906152db565b506101c460008154809291906126ea906166ee565b919050555050565b6126fa612fdc565b73ffffffffffffffffffffffffffffffffffffffff168573ffffffffffffffffffffffffffffffffffffffff161480612740575061273f8561273a612fdc565b612591565b5b61277f576040517f08c379a00000000000000000000000000000000000000000000000000000000081526004016127769061689a565b60405180910390fd5b61278c8585858585613f9a565b5050505050565b6127bd7f9f2df0fed2c77648de5860a4cc508cd0818c85b8b8a1ab4ceeef8d981c8956a633611b5c565b6127fc576040517f08c379a00000000000000000000000000000000000000000000000000000000081526004016127f3906172ed565b60405180910390fd5b6001815111612840576040517f08c379a00000000000000000000000000000000000000000000000000000000081526004016128379061737f565b60405180910390fd5b60006101c45490506101c4600081548092919061285c906166ee565b9190505550336101cb600083815260200190815260200160002060006101000a81548173ffffffffffffffffffffffffffffffffffffffff021916908373ffffffffffffffffffffffffffffffffffffffff16021790555060005b8251811015612b87573373ffffffffffffffffffffffffffffffffffffffff166101cb60008584815181106128ef576128ee616543565b5b6020026020010151815260200190815260200160002060009054906101000a900473ffffffffffffffffffffffffffffffffffffffff1673ffffffffffffffffffffffffffffffffffffffff161461297c576040517f08c379a000000000000000000000000000000000000000000000000000000000815260040161297390617411565b60405180910390fd5b60006101cd600085848151811061299657612995616543565b5b6020026020010151815260200190815260200160002054116129ed576040517f08c379a00000000000000000000000000000000000000000000000000000000081526004016129e490616676565b60405180910390fd5b828181518110612a00576129ff616543565b5b60200260200101516101cc6000848152602001908152602001600020819055506101cd6000848381518110612a3857612a37616543565b5b60200260200101518152602001908152602001600020546101cd60008481526020019081526020016000206000828254612a729190617431565b9250508190555060006101cd6000858481518110612a9357612a92616543565b5b6020026020010151815260200190815260200160002081905550600073ffffffffffffffffffffffffffffffffffffffff163373ffffffffffffffffffffffffffffffffffffffff163373ffffffffffffffffffffffffffffffffffffffff167fc3d58168c5ae7397731d063d5bbf3d657854427343f4c083240f7aacaa2d0f62868581518110612b2757612b26616543565b5b60200260200101516101cd6000898881518110612b4757612b46616543565b5b6020026020010151815260200190815260200160002054604051612b6c929190616696565b60405180910390a48080612b7f906166ee565b9150506128b7565b503373ffffffffffffffffffffffffffffffffffffffff16600073ffffffffffffffffffffffffffffffffffffffff163373ffffffffffffffffffffffffffffffffffffffff167fc3d58168c5ae7397731d063d5bbf3d657854427343f4c083240f7aacaa2d0f62846101cd600087815260200190815260200160002054604051612c13929190616696565b60405180910390a45050565b612c27612fdc565b73ffffffffffffffffffffffffffffffffffffffff168373ffffffffffffffffffffffffffffffffffffffff161480612c6d5750612c6c83612c67612fdc565b612591565b5b612cac576040517f08c379a0000000000000000000000000000000000000000000000000000000008152600401612ca39061689a565b60405180910390fd5b612cb7838383614238565b505050565b6101c660009054906101000a900473ffffffffffffffffffffffffffffffffffffffff1681565b7f189ab7a9244df0848122154315af71fe140f3db0fe014031783b0946b8c9d2e381565b60007f7965db0b000000000000000000000000000000000000000000000000000000007bffffffffffffffffffffffffffffffffffffffffffffffffffffffff1916827bffffffffffffffffffffffffffffffffffffffffffffffffffffffff19161480612d7a5750612d7982614480565b5b9050919050565b612d9281612d8d612fdc565b614562565b50565b8060679080519060200190612dab929190615328565b5050565b600073ffffffffffffffffffffffffffffffffffffffff168473ffffffffffffffffffffffffffffffffffffffff1603612e1e576040517f08c379a0000000000000000000000000000000000000000000000000000000008152600401612e15906174f9565b60405180910390fd5b8151835114612e62576040517f08c379a0000000000000000000000000000000000000000000000000000000008152600401612e599061758b565b60405180910390fd5b6000612e6c612fdc565b9050612e7d816000878787876145e7565b60005b8451811015612f3757838181518110612e9c57612e9b616543565b5b602002602001015160656000878481518110612ebb57612eba616543565b5b6020026020010151815260200190815260200160002060008873ffffffffffffffffffffffffffffffffffffffff1673ffffffffffffffffffffffffffffffffffffffff1681526020019081526020016000206000828254612f1d9190617431565b925050819055508080612f2f906166ee565b915050612e80565b508473ffffffffffffffffffffffffffffffffffffffff16600073ffffffffffffffffffffffffffffffffffffffff168273ffffffffffffffffffffffffffffffffffffffff167f4a39dc06d4c0dbc64b70af90fd698a233a518aa5d07e595d983b8c0526c8f7fb8787604051612faf9291906175ab565b60405180910390a4612fc681600087878787614605565b612fd58160008787878761460d565b5050505050565b600033905090565b8151835114613028576040517f08c379a000000000000000000000000000000000000000000000000000000000815260040161301f9061758b565b60405180910390fd5b600073ffffffffffffffffffffffffffffffffffffffff168473ffffffffffffffffffffffffffffffffffffffff1603613097576040517f08c379a000000000000000000000000000000000000000000000000000000000815260040161308e90617654565b60405180910390fd5b60006130a1612fdc565b90506130b18187878787876145e7565b60005b84518110156132655760008582815181106130d2576130d1616543565b5b6020026020010151905060008583815181106130f1576130f0616543565b5b6020026020010151905060006065600084815260200190815260200160002060008b73ffffffffffffffffffffffffffffffffffffffff1673ffffffffffffffffffffffffffffffffffffffff16815260200190815260200160002054905081811015613193576040517f08c379a000000000000000000000000000000000000000000000000000000000815260040161318a906176e6565b60405180910390fd5b8181036065600085815260200190815260200160002060008c73ffffffffffffffffffffffffffffffffffffffff1673ffffffffffffffffffffffffffffffffffffffff16815260200190815260200160002081905550816065600085815260200190815260200160002060008b73ffffffffffffffffffffffffffffffffffffffff1673ffffffffffffffffffffffffffffffffffffffff168152602001908152602001600020600082825461324a9190617431565b925050819055505050508061325e906166ee565b90506130b4565b508473ffffffffffffffffffffffffffffffffffffffff168673ffffffffffffffffffffffffffffffffffffffff168273ffffffffffffffffffffffffffffffffffffffff167f4a39dc06d4c0dbc64b70af90fd698a233a518aa5d07e595d983b8c0526c8f7fb87876040516132dc9291906175ab565b60405180910390a46132f2818787878787614605565b61330081878787878761460d565b505050505050565b6133128282611b5c565b6133e55760016097600084815260200190815260200160002060000160008373ffffffffffffffffffffffffffffffffffffffff1673ffffffffffffffffffffffffffffffffffffffff16815260200190815260200160002060006101000a81548160ff02191690831515021790555061338a612fdc565b73ffffffffffffffffffffffffffffffffffffffff168173ffffffffffffffffffffffffffffffffffffffff16837f2f8788117e7eff1d82e926ec794901d17c78024a50270940304540a733656f0d60405160405180910390a45b5050565b6133f38282611b5c565b156134c75760006097600084815260200190815260200160002060000160008373ffffffffffffffffffffffffffffffffffffffff1673ffffffffffffffffffffffffffffffffffffffff16815260200190815260200160002060006101000a81548160ff02191690831515021790555061346c612fdc565b73ffffffffffffffffffffffffffffffffffffffff168173ffffffffffffffffffffffffffffffffffffffff16837ff6391f5c32d9c69d2a47ea670b442974b53935d1edc7fd64eb21e047a839171b60405160405180910390a45b5050565b60006134f97f360894a13ba1a3210667c828492db98dca3e2076cc3735a920a3ca505d382bbc60001b6147e4565b60000160009054906101000a900473ffffffffffffffffffffffffffffffffffffffff16905090565b7f189ab7a9244df0848122154315af71fe140f3db0fe014031783b0946b8c9d2e361354c81612d81565b5050565b61357c7f4910fdfa16fed3260ed0e7147f7cc6da11a60208b5b9406d12a635614ffd914360001b6147ee565b60000160009054906101000a900460ff16156135a05761359b836147f8565b6136b9565b8273ffffffffffffffffffffffffffffffffffffffff166352d1902d6040518163ffffffff1660e01b8152600401602060405180830381865afa92505050801561360857506040513d601f19601f82011682018060405250810190613605919061771b565b60015b613647576040517f08c379a000000000000000000000000000000000000000000000000000000000815260040161363e906177ba565b60405180910390fd5b7f360894a13ba1a3210667c828492db98dca3e2076cc3735a920a3ca505d382bbc60001b81146136ac576040517f08c379a00000000000000000000000000000000000000000000000000000000081526004016136a39061784c565b60405180910390fd5b506136b88383836148b1565b5b505050565b6136c66148dd565b600060c960006101000a81548160ff0219169083151502179055507f5db9ee0a495bf2e6ff9c91a7834c1ba4fdd244a5e8aa4e537bd38aeae4b073aa61370a612fdc565b6040516137179190615429565b60405180910390a1565b600073ffffffffffffffffffffffffffffffffffffffff168373ffffffffffffffffffffffffffffffffffffffff1603613790576040517f08c379a0000000000000000000000000000000000000000000000000000000008152600401613787906178de565b60405180910390fd5b80518251146137d4576040517f08c379a00000000000000000000000000000000000000000000000000000000081526004016137cb9061758b565b60405180910390fd5b60006137de612fdc565b90506137fe818560008686604051806020016040528060008152506145e7565b60005b835181101561394d57600084828151811061381f5761381e616543565b5b60200260200101519050600084838151811061383e5761383d616543565b5b6020026020010151905060006065600084815260200190815260200160002060008973ffffffffffffffffffffffffffffffffffffffff1673ffffffffffffffffffffffffffffffffffffffff168152602001908152602001600020549050818110156138e0576040517f08c379a00000000000000000000000000000000000000000000000000000000081526004016138d790617970565b60405180910390fd5b8181036065600085815260200190815260200160002060008a73ffffffffffffffffffffffffffffffffffffffff1673ffffffffffffffffffffffffffffffffffffffff168152602001908152602001600020819055505050508080613945906166ee565b915050613801565b50600073ffffffffffffffffffffffffffffffffffffffff168473ffffffffffffffffffffffffffffffffffffffff168273ffffffffffffffffffffffffffffffffffffffff167f4a39dc06d4c0dbc64b70af90fd698a233a518aa5d07e595d983b8c0526c8f7fb86866040516139c59291906175ab565b60405180910390a46139eb81856000868660405180602001604052806000815250614605565b50505050565b600073ffffffffffffffffffffffffffffffffffffffff168473ffffffffffffffffffffffffffffffffffffffff1603613a60576040517f08c379a0000000000000000000000000000000000000000000000000000000008152600401613a57906174f9565b60405180910390fd5b6000613a6a612fdc565b90506000613a7785614926565b90506000613a8485614926565b9050613a95836000898585896145e7565b846065600088815260200190815260200160002060008973ffffffffffffffffffffffffffffffffffffffff1673ffffffffffffffffffffffffffffffffffffffff1681526020019081526020016000206000828254613af59190617431565b925050819055508673ffffffffffffffffffffffffffffffffffffffff16600073ffffffffffffffffffffffffffffffffffffffff168473ffffffffffffffffffffffffffffffffffffffff167fc3d58168c5ae7397731d063d5bbf3d657854427343f4c083240f7aacaa2d0f628989604051613b73929190616696565b60405180910390a4613b8a83600089858589614605565b613b99836000898989896149a0565b50505050505050565b613baa614b77565b600160c960006101000a81548160ff0219169083151502179055507f62e78cea01bee320cd4e420270b5ea74000d11b0c9f74754ebdbfc544b05a258613bee612fdc565b604051613bfb9190615429565b60405180910390a1565b8173ffffffffffffffffffffffffffffffffffffffff168373ffffffffffffffffffffffffffffffffffffffff1603613c73576040517f08c379a0000000000000000000000000000000000000000000000000000000008152600401613c6a90617a02565b60405180910390fd5b80606660008573ffffffffffffffffffffffffffffffffffffffff1673ffffffffffffffffffffffffffffffffffffffff16815260200190815260200160002060008473ffffffffffffffffffffffffffffffffffffffff1673ffffffffffffffffffffffffffffffffffffffff16815260200190815260200160002060006101000a81548160ff0219169083151502179055508173ffffffffffffffffffffffffffffffffffffffff168373ffffffffffffffffffffffffffffffffffffffff167f17307eab39ab6107e8899845ad3d59bd9653f200f220920489ca2b5937696c3183604051613d649190615779565b60405180910390a3505050565b6000808273ffffffffffffffffffffffffffffffffffffffff163b119050919050565b600060019054906101000a900460ff16613de3576040517f08c379a0000000000000000000000000000000000000000000000000000000008152600401613dda90617a94565b60405180910390fd5b613dec81614bc1565b50565b600060019054906101000a900460ff16613e3e576040517f08c379a0000000000000000000000000000000000000000000000000000000008152600401613e3590617a94565b60405180910390fd5b565b600060019054906101000a900460ff16613e8f576040517f08c379a0000000000000000000000000000000000000000000000000000000008152600401613e8690617a94565b60405180910390fd5b613e97614c1c565b565b600060019054906101000a900460ff16613ee8576040517f08c379a0000000000000000000000000000000000000000000000000000000008152600401613edf90617a94565b60405180910390fd5b565b600060019054906101000a900460ff16613f39576040517f08c379a0000000000000000000000000000000000000000000000000000000008152600401613f3090617a94565b60405180910390fd5b565b600060019054906101000a900460ff16613f8a576040517f08c379a0000000000000000000000000000000000000000000000000000000008152600401613f8190617a94565b60405180910390fd5b565b613f968282613308565b5050565b600073ffffffffffffffffffffffffffffffffffffffff168473ffffffffffffffffffffffffffffffffffffffff1603614009576040517f08c379a000000000000000000000000000000000000000000000000000000000815260040161400090617654565b60405180910390fd5b6000614013612fdc565b9050600061402085614926565b9050600061402d85614926565b905061403d8389898585896145e7565b60006065600088815260200190815260200160002060008a73ffffffffffffffffffffffffffffffffffffffff1673ffffffffffffffffffffffffffffffffffffffff168152602001908152602001600020549050858110156140d5576040517f08c379a00000000000000000000000000000000000000000000000000000000081526004016140cc906176e6565b60405180910390fd5b8581036065600089815260200190815260200160002060008b73ffffffffffffffffffffffffffffffffffffffff1673ffffffffffffffffffffffffffffffffffffffff16815260200190815260200160002081905550856065600089815260200190815260200160002060008a73ffffffffffffffffffffffffffffffffffffffff1673ffffffffffffffffffffffffffffffffffffffff168152602001908152602001600020600082825461418c9190617431565b925050819055508773ffffffffffffffffffffffffffffffffffffffff168973ffffffffffffffffffffffffffffffffffffffff168573ffffffffffffffffffffffffffffffffffffffff167fc3d58168c5ae7397731d063d5bbf3d657854427343f4c083240f7aacaa2d0f628a8a604051614209929190616696565b60405180910390a461421f848a8a86868a614605565b61422d848a8a8a8a8a6149a0565b505050505050505050565b600073ffffffffffffffffffffffffffffffffffffffff168373ffffffffffffffffffffffffffffffffffffffff16036142a7576040517f08c379a000000000000000000000000000000000000000000000000000000000815260040161429e906178de565b60405180910390fd5b60006142b1612fdc565b905060006142be84614926565b905060006142cb84614926565b90506142eb838760008585604051806020016040528060008152506145e7565b60006065600087815260200190815260200160002060008873ffffffffffffffffffffffffffffffffffffffff1673ffffffffffffffffffffffffffffffffffffffff16815260200190815260200160002054905084811015614383576040517f08c379a000000000000000000000000000000000000000000000000000000000815260040161437a90617970565b60405180910390fd5b8481036065600088815260200190815260200160002060008973ffffffffffffffffffffffffffffffffffffffff1673ffffffffffffffffffffffffffffffffffffffff16815260200190815260200160002081905550600073ffffffffffffffffffffffffffffffffffffffff168773ffffffffffffffffffffffffffffffffffffffff168573ffffffffffffffffffffffffffffffffffffffff167fc3d58168c5ae7397731d063d5bbf3d657854427343f4c083240f7aacaa2d0f628989604051614451929190616696565b60405180910390a461447784886000868660405180602001604052806000815250614605565b50505050505050565b60007fd9b67a26000000000000000000000000000000000000000000000000000000007bffffffffffffffffffffffffffffffffffffffffffffffffffffffff1916827bffffffffffffffffffffffffffffffffffffffffffffffffffffffff1916148061454b57507f0e89341c000000000000000000000000000000000000000000000000000000007bffffffffffffffffffffffffffffffffffffffffffffffffffffffff1916827bffffffffffffffffffffffffffffffffffffffffffffffffffffffff1916145b8061455b575061455a82614c88565b5b9050919050565b61456c8282611b5c565b6145e35761457981614cf2565b6145878360001c6020614d1f565b604051602001614598929190617b88565b6040516020818303038152906040526040517f08c379a00000000000000000000000000000000000000000000000000000000081526004016145da9190615947565b60405180910390fd5b5050565b6145ef614b77565b6145fd868686868686614f5b565b505050505050565b505050505050565b61462c8473ffffffffffffffffffffffffffffffffffffffff16613d71565b156147dc578373ffffffffffffffffffffffffffffffffffffffff1663bc197c8187878686866040518663ffffffff1660e01b8152600401614672959493929190617c17565b6020604051808303816000875af19250505080156146ae57506040513d601f19601f820116820180604052508101906146ab9190617c94565b60015b614753576146ba617cce565b806308c379a00361471657506146ce617cf0565b806146d95750614718565b806040517f08c379a000000000000000000000000000000000000000000000000000000000815260040161470d9190615947565b60405180910390fd5b505b6040517f08c379a000000000000000000000000000000000000000000000000000000000815260040161474a90617df2565b60405180910390fd5b63bc197c8160e01b7bffffffffffffffffffffffffffffffffffffffffffffffffffffffff1916817bffffffffffffffffffffffffffffffffffffffffffffffffffffffff1916146147da576040517f08c379a00000000000000000000000000000000000000000000000000000000081526004016147d190617e84565b60405180910390fd5b505b505050505050565b6000819050919050565b6000819050919050565b61480181613d71565b614840576040517f08c379a000000000000000000000000000000000000000000000000000000000815260040161483790617f16565b60405180910390fd5b8061486d7f360894a13ba1a3210667c828492db98dca3e2076cc3735a920a3ca505d382bbc60001b6147e4565b60000160006101000a81548173ffffffffffffffffffffffffffffffffffffffff021916908373ffffffffffffffffffffffffffffffffffffffff16021790555050565b6148ba8361512e565b6000825111806148c75750805b156148d8576148d6838361517d565b505b505050565b6148e56119a0565b614924576040517f08c379a000000000000000000000000000000000000000000000000000000000815260040161491b90617f82565b60405180910390fd5b565b60606000600167ffffffffffffffff8111156149455761494461546e565b5b6040519080825280602002602001820160405280156149735781602001602082028036833780820191505090505b509050828160008151811061498b5761498a616543565b5b60200260200101818152505080915050919050565b6149bf8473ffffffffffffffffffffffffffffffffffffffff16613d71565b15614b6f578373ffffffffffffffffffffffffffffffffffffffff1663f23a6e6187878686866040518663ffffffff1660e01b8152600401614a05959493929190617fa2565b6020604051808303816000875af1925050508015614a4157506040513d601f19601f82011682018060405250810190614a3e9190617c94565b60015b614ae657614a4d617cce565b806308c379a003614aa95750614a61617cf0565b80614a6c5750614aab565b806040517f08c379a0000000000000000000000000000000000000000000000000000000008152600401614aa09190615947565b60405180910390fd5b505b6040517f08c379a0000000000000000000000000000000000000000000000000000000008152600401614add90617df2565b60405180910390fd5b63f23a6e6160e01b7bffffffffffffffffffffffffffffffffffffffffffffffffffffffff1916817bffffffffffffffffffffffffffffffffffffffffffffffffffffffff191614614b6d576040517f08c379a0000000000000000000000000000000000000000000000000000000008152600401614b6490617e84565b60405180910390fd5b505b505050505050565b614b7f6119a0565b15614bbf576040517f08c379a0000000000000000000000000000000000000000000000000000000008152600401614bb690618048565b60405180910390fd5b565b600060019054906101000a900460ff16614c10576040517f08c379a0000000000000000000000000000000000000000000000000000000008152600401614c0790617a94565b60405180910390fd5b614c1981612d95565b50565b600060019054906101000a900460ff16614c6b576040517f08c379a0000000000000000000000000000000000000000000000000000000008152600401614c6290617a94565b60405180910390fd5b600060c960006101000a81548160ff021916908315150217905550565b60007f01ffc9a7000000000000000000000000000000000000000000000000000000007bffffffffffffffffffffffffffffffffffffffffffffffffffffffff1916827bffffffffffffffffffffffffffffffffffffffffffffffffffffffff1916149050919050565b6060614d188273ffffffffffffffffffffffffffffffffffffffff16601460ff16614d1f565b9050919050565b606060006002836002614d329190618068565b614d3c9190617431565b67ffffffffffffffff811115614d5557614d5461546e565b5b6040519080825280601f01601f191660200182016040528015614d875781602001600182028036833780820191505090505b5090507f300000000000000000000000000000000000000000000000000000000000000081600081518110614dbf57614dbe616543565b5b60200101907effffffffffffffffffffffffffffffffffffffffffffffffffffffffffffff1916908160001a9053507f780000000000000000000000000000000000000000000000000000000000000081600181518110614e2357614e22616543565b5b60200101907effffffffffffffffffffffffffffffffffffffffffffffffffffffffffffff1916908160001a90535060006001846002614e639190618068565b614e6d9190617431565b90505b6001811115614f0d577f3031323334353637383961626364656600000000000000000000000000000000600f861660108110614eaf57614eae616543565b5b1a60f81b828281518110614ec657614ec5616543565b5b60200101907effffffffffffffffffffffffffffffffffffffffffffffffffffffffffffff1916908160001a905350600485901c945080614f06906180c2565b9050614e70565b5060008414614f51576040517f08c379a0000000000000000000000000000000000000000000000000000000008152600401614f4890618137565b60405180910390fd5b8091505092915050565b614f69868686868686615261565b600073ffffffffffffffffffffffffffffffffffffffff168573ffffffffffffffffffffffffffffffffffffffff160361501b5760005b835181101561501957828181518110614fbc57614fbb616543565b5b602002602001015161012d6000868481518110614fdc57614fdb616543565b5b6020026020010151815260200190815260200160002060008282546150019190617431565b9250508190555080615012906166ee565b9050614fa0565b505b600073ffffffffffffffffffffffffffffffffffffffff168473ffffffffffffffffffffffffffffffffffffffff16036151265760005b83518110156151245760008482815181106150705761506f616543565b5b60200260200101519050600084838151811061508f5761508e616543565b5b60200260200101519050600061012d6000848152602001908152602001600020549050818110156150f5576040517f08c379a00000000000000000000000000000000000000000000000000000000081526004016150ec906181c9565b60405180910390fd5b81810361012d6000858152602001908152602001600020819055505050508061511d906166ee565b9050615052565b505b505050505050565b615137816147f8565b8073ffffffffffffffffffffffffffffffffffffffff167fbc7cd75a20ee27fd9adebab32041f755214dbc6bffa90cc0225b39da2e5c2d3b60405160405180910390a250565b606061518883613d71565b6151c7576040517f08c379a00000000000000000000000000000000000000000000000000000000081526004016151be9061825b565b60405180910390fd5b6000808473ffffffffffffffffffffffffffffffffffffffff16846040516151ef91906182b7565b600060405180830381855af49150503d806000811461522a576040519150601f19603f3d011682016040523d82523d6000602084013e61522f565b606091505b509150915061525782826040518060600160405280602781526020016182cf60279139615269565b9250505092915050565b505050505050565b6060831561527957829050615284565b615283838361528b565b5b9392505050565b60008251111561529e5781518083602001fd5b806040517f08c379a00000000000000000000000000000000000000000000000000000000081526004016152d29190615947565b60405180910390fd5b828054828255906000526020600020908101928215615317579160200282015b828111156153165782518255916020019190600101906152fb565b5b50905061532491906153ae565b5090565b828054615334906167f7565b90600052602060002090601f016020900481019282615356576000855561539d565b82601f1061536f57805160ff191683800117855561539d565b8280016001018555821561539d579182015b8281111561539c578251825591602001919060010190615381565b5b5090506153aa91906153cb565b5090565b5b808211156153c75760008160009055506001016153af565b5090565b5b808211156153e45760008160009055506001016153cc565b5090565b600073ffffffffffffffffffffffffffffffffffffffff82169050919050565b6000615413826153e8565b9050919050565b61542381615408565b82525050565b600060208201905061543e600083018461541a565b92915050565b6000604051905090565b600080fd5b600080fd5b600080fd5b6000601f19601f8301169050919050565b7f4e487b7100000000000000000000000000000000000000000000000000000000600052604160045260246000fd5b6154a68261545d565b810181811067ffffffffffffffff821117156154c5576154c461546e565b5b80604052505050565b60006154d8615444565b90506154e4828261549d565b919050565b600067ffffffffffffffff8211156155045761550361546e565b5b602082029050602081019050919050565b600080fd5b6000819050919050565b61552d8161551a565b811461553857600080fd5b50565b60008135905061554a81615524565b92915050565b600061556361555e846154e9565b6154ce565b9050808382526020820190506020840283018581111561558657615585615515565b5b835b818110156155af578061559b888261553b565b845260208401935050602081019050615588565b5050509392505050565b600082601f8301126155ce576155cd615458565b5b81356155de848260208601615550565b91505092915050565b6155f081615408565b81146155fb57600080fd5b50565b60008135905061560d816155e7565b92915050565b6000806040838503121561562a5761562961544e565b5b600083013567ffffffffffffffff81111561564857615647615453565b5b615654858286016155b9565b9250506020615665858286016155fe565b9150509250929050565b600080604083850312156156865761568561544e565b5b6000615694858286016155fe565b92505060206156a58582860161553b565b9150509250929050565b6156b88161551a565b82525050565b60006020820190506156d360008301846156af565b92915050565b60007fffffffff0000000000000000000000000000000000000000000000000000000082169050919050565b61570e816156d9565b811461571957600080fd5b50565b60008135905061572b81615705565b92915050565b6000602082840312156157475761574661544e565b5b60006157558482850161571c565b91505092915050565b60008115159050919050565b6157738161575e565b82525050565b600060208201905061578e600083018461576a565b92915050565b600080fd5b600067ffffffffffffffff8211156157b4576157b361546e565b5b6157bd8261545d565b9050602081019050919050565b82818337600083830152505050565b60006157ec6157e784615799565b6154ce565b90508281526020810184848401111561580857615807615794565b5b6158138482856157ca565b509392505050565b600082601f8301126158305761582f615458565b5b81356158408482602086016157d9565b91505092915050565b60006020828403121561585f5761585e61544e565b5b600082013567ffffffffffffffff81111561587d5761587c615453565b5b6158898482850161581b565b91505092915050565b6000602082840312156158a8576158a761544e565b5b60006158b68482850161553b565b91505092915050565b600081519050919050565b600082825260208201905092915050565b60005b838110156158f95780820151818401526020810190506158de565b83811115615908576000848401525b50505050565b6000615919826158bf565b61592381856158ca565b93506159338185602086016158db565b61593c8161545d565b840191505092915050565b60006020820190508181036000830152615961818461590e565b905092915050565b600067ffffffffffffffff8211156159845761598361546e565b5b61598d8261545d565b9050602081019050919050565b60006159ad6159a884615969565b6154ce565b9050828152602081018484840111156159c9576159c8615794565b5b6159d48482856157ca565b509392505050565b600082601f8301126159f1576159f0615458565b5b8135615a0184826020860161599a565b91505092915050565b60008060008060808587031215615a2457615a2361544e565b5b6000615a32878288016155fe565b945050602085013567ffffffffffffffff811115615a5357615a52615453565b5b615a5f878288016155b9565b935050604085013567ffffffffffffffff811115615a8057615a7f615453565b5b615a8c878288016155b9565b925050606085013567ffffffffffffffff811115615aad57615aac615453565b5b615ab9878288016159dc565b91505092959194509250565b6000819050919050565b615ad881615ac5565b8114615ae357600080fd5b50565b600081359050615af581615acf565b92915050565b600060208284031215615b1157615b1061544e565b5b6000615b1f84828501615ae6565b91505092915050565b615b3181615ac5565b82525050565b6000602082019050615b4c6000830184615b28565b92915050565b600080600080600060a08688031215615b6e57615b6d61544e565b5b6000615b7c888289016155fe565b9550506020615b8d888289016155fe565b945050604086013567ffffffffffffffff811115615bae57615bad615453565b5b615bba888289016155b9565b935050606086013567ffffffffffffffff811115615bdb57615bda615453565b5b615be7888289016155b9565b925050608086013567ffffffffffffffff811115615c0857615c07615453565b5b615c14888289016159dc565b9150509295509295909350565b60008060408385031215615c3857615c3761544e565b5b6000615c4685828601615ae6565b9250506020615c57858286016155fe565b9150509250929050565b600081519050919050565b600082825260208201905092915050565b6000819050602082019050919050565b615c9681615ac5565b82525050565b6000615ca88383615c8d565b60208301905092915050565b6000602082019050919050565b6000615ccc82615c61565b615cd68185615c6c565b9350615ce183615c7d565b8060005b83811015615d12578151615cf98882615c9c565b9750615d0483615cb4565b925050600181019050615ce5565b5085935050505092915050565b60006020820190508181036000830152615d398184615cc1565b905092915050565b600060208284031215615d5757615d5661544e565b5b6000615d65848285016155fe565b91505092915050565b600067ffffffffffffffff821115615d8957615d8861546e565b5b602082029050602081019050919050565b6000615dad615da884615d6e565b6154ce565b90508083825260208201905060208402830185811115615dd057615dcf615515565b5b835b81811015615df95780615de588826155fe565b845260208401935050602081019050615dd2565b5050509392505050565b600082601f830112615e1857615e17615458565b5b8135615e28848260208601615d9a565b91505092915050565b60008060408385031215615e4857615e4761544e565b5b600083013567ffffffffffffffff811115615e6657615e65615453565b5b615e7285828601615e03565b925050602083013567ffffffffffffffff811115615e9357615e92615453565b5b615e9f858286016155b9565b9150509250929050565b600081519050919050565b600082825260208201905092915050565b6000819050602082019050919050565b615ede8161551a565b82525050565b6000615ef08383615ed5565b60208301905092915050565b6000602082019050919050565b6000615f1482615ea9565b615f1e8185615eb4565b9350615f2983615ec5565b8060005b83811015615f5a578151615f418882615ee4565b9750615f4c83615efc565b925050600181019050615f2d565b5085935050505092915050565b60006020820190508181036000830152615f818184615f09565b905092915050565b60008060408385031215615fa057615f9f61544e565b5b6000615fae858286016155fe565b925050602083013567ffffffffffffffff811115615fcf57615fce615453565b5b615fdb858286016159dc565b9150509250929050565b600080600060608486031215615ffe57615ffd61544e565b5b600061600c868287016155fe565b935050602084013567ffffffffffffffff81111561602d5761602c615453565b5b616039868287016155b9565b925050604084013567ffffffffffffffff81111561605a57616059615453565b5b616066868287016155b9565b9150509250925092565b6000806000806080858703121561608a5761608961544e565b5b6000616098878288016155fe565b94505060206160a98782880161553b565b93505060406160ba8782880161553b565b925050606085013567ffffffffffffffff8111156160db576160da615453565b5b6160e7878288016159dc565b91505092959194509250565b6160fc8161575e565b811461610757600080fd5b50565b600081359050616119816160f3565b92915050565b600080604083850312156161365761613561544e565b5b6000616144858286016155fe565b92505060206161558582860161610a565b9150509250929050565b600080604083850312156161765761617561544e565b5b60006161848582860161553b565b9250506020616195858286016155fe565b9150509250929050565b600080604083850312156161b6576161b561544e565b5b60006161c48582860161553b565b92505060206161d58582860161553b565b9150509250929050565b6000806000606084860312156161f8576161f761544e565b5b6000616206868287016155fe565b9350506020616217868287016155fe565b9250506040616228868287016155fe565b9150509250925092565b600080604083850312156162495761624861544e565b5b6000616257858286016155fe565b9250506020616268858286016155fe565b9150509250929050565b600067ffffffffffffffff82111561628d5761628c61546e565b5b602082029050602081019050919050565b60006162b16162ac84616272565b6154ce565b905080838252602082019050602084028301858111156162d4576162d3615515565b5b835b818110156162fd57806162e98882615ae6565b8452602084019350506020810190506162d6565b5050509392505050565b600082601f83011261631c5761631b615458565b5b813561632c84826020860161629e565b91505092915050565b60006020828403121561634b5761634a61544e565b5b600082013567ffffffffffffffff81111561636957616368615453565b5b61637584828501616307565b91505092915050565b600080600080600060a0868803121561639a5761639961544e565b5b60006163a8888289016155fe565b95505060206163b9888289016155fe565b94505060406163ca8882890161553b565b93505060606163db8882890161553b565b925050608086013567ffffffffffffffff8111156163fc576163fb615453565b5b616408888289016159dc565b9150509295509295909350565b60006020828403121561642b5761642a61544e565b5b600082013567ffffffffffffffff81111561644957616448615453565b5b616455848285016155b9565b91505092915050565b6000806000606084860312156164775761647661544e565b5b6000616485868287016155fe565b93505060206164968682870161553b565b92505060406164a78682870161553b565b9150509250925092565b7f5661756c743a206d7573742068617665206d696e74657220726f6c6520746f2060008201527f7472616e73666572206974656d73000000000000000000000000000000000000602082015250565b600061650d602e836158ca565b9150616518826164b1565b604082019050919050565b6000602082019050818103600083015261653c81616500565b9050919050565b7f4e487b7100000000000000000000000000000000000000000000000000000000600052603260045260246000fd5b7f5661756c743a206d757374206265207661756c74206f776e657220746f20747260008201527f616e73666572206974656d730000000000000000000000000000000000000000602082015250565b60006165ce602c836158ca565b91506165d982616572565b604082019050919050565b600060208201905081810360008301526165fd816165c1565b9050919050565b7f5661756c743a207661756c742062616c616e6365206d7573742062652067726560008201527f61746572207468616e2030000000000000000000000000000000000000000000602082015250565b6000616660602b836158ca565b915061666b82616604565b604082019050919050565b6000602082019050818103600083015261668f81616653565b9050919050565b60006040820190506166ab60008301856156af565b6166b860208301846156af565b9392505050565b7f4e487b7100000000000000000000000000000000000000000000000000000000600052601160045260246000fd5b60006166f98261551a565b91507fffffffffffffffffffffffffffffffffffffffffffffffffffffffffffffffff820361672b5761672a6166bf565b5b600182019050919050565b7f455243313135353a2061646472657373207a65726f206973206e6f742061207660008201527f616c6964206f776e657200000000000000000000000000000000000000000000602082015250565b6000616792602a836158ca565b915061679d82616736565b604082019050919050565b600060208201905081810360008301526167c181616785565b9050919050565b7f4e487b7100000000000000000000000000000000000000000000000000000000600052602260045260246000fd5b6000600282049050600182168061680f57607f821691505b602082108103616822576168216167c8565b5b50919050565b7f455243313135353a2063616c6c6572206973206e6f7420746f6b656e206f776e60008201527f6572206f7220617070726f766564000000000000000000000000000000000000602082015250565b6000616884602e836158ca565b915061688f82616828565b604082019050919050565b600060208201905081810360008301526168b381616877565b9050919050565b7f416363657373436f6e74726f6c3a2063616e206f6e6c792072656e6f756e636560008201527f20726f6c657320666f722073656c660000000000000000000000000000000000602082015250565b6000616916602f836158ca565b9150616921826168ba565b604082019050919050565b6000602082019050818103600083015261694581616909565b9050919050565b7f46756e6374696f6e206d7573742062652063616c6c6564207468726f7567682060008201527f64656c656761746563616c6c0000000000000000000000000000000000000000602082015250565b60006169a8602c836158ca565b91506169b38261694c565b604082019050919050565b600060208201905081810360008301526169d78161699b565b9050919050565b7f46756e6374696f6e206d7573742062652063616c6c6564207468726f7567682060008201527f6163746976652070726f78790000000000000000000000000000000000000000602082015250565b6000616a3a602c836158ca565b9150616a45826169de565b604082019050919050565b60006020820190508181036000830152616a6981616a2d565b9050919050565b7f5661756c743a206d75737420686176652070617573657220726f6c6520746f2060008201527f756e706175736500000000000000000000000000000000000000000000000000602082015250565b6000616acc6027836158ca565b9150616ad782616a70565b604082019050919050565b60006020820190508181036000830152616afb81616abf565b9050919050565b7f455243313135353a206163636f756e747320616e6420696473206c656e67746860008201527f206d69736d617463680000000000000000000000000000000000000000000000602082015250565b6000616b5e6029836158ca565b9150616b6982616b02565b604082019050919050565b60006020820190508181036000830152616b8d81616b51565b9050919050565b7f5661756c743a206d757374206861766520757067726164657220726f6c65207460008201527f6f2073657420656e6372797074696f6e20746f6f6c7300000000000000000000602082015250565b6000616bf06036836158ca565b9150616bfb82616b94565b604082019050919050565b60006020820190508181036000830152616c1f81616be3565b9050919050565b7f555550535570677261646561626c653a206d757374206e6f742062652063616c60008201527f6c6564207468726f7567682064656c656761746563616c6c0000000000000000602082015250565b6000616c826038836158ca565b9150616c8d82616c26565b604082019050919050565b60006020820190508181036000830152616cb181616c75565b9050919050565b7f5661756c743a206d75737420686176652070617573657220726f6c6520746f2060008201527f7061757365000000000000000000000000000000000000000000000000000000602082015250565b6000616d146025836158ca565b9150616d1f82616cb8565b604082019050919050565b60006020820190508181036000830152616d4381616d07565b9050919050565b7f5661756c743a206d7573742068617665206d696e74657220726f6c6520746f2060008201527f7472616e73666572206974656d00000000000000000000000000000000000000602082015250565b6000616da6602d836158ca565b9150616db182616d4a565b604082019050919050565b60006020820190508181036000830152616dd581616d99565b9050919050565b7f5661756c743a206d757374206265207661756c74206f776e657220746f20747260008201527f616e73666572206974656d000000000000000000000000000000000000000000602082015250565b6000616e38602b836158ca565b9150616e4382616ddc565b604082019050919050565b60006020820190508181036000830152616e6781616e2b565b9050919050565b7f5661756c743a206d7573742068617665206d696e74657220726f6c6520746f2060008201527f73706c6974206974656d00000000000000000000000000000000000000000000602082015250565b6000616eca602a836158ca565b9150616ed582616e6e565b604082019050919050565b60006020820190508181036000830152616ef981616ebd565b9050919050565b7f5661756c743a20616d6f756e74206d757374206265206772656174657220746860008201527f616e203000000000000000000000000000000000000000000000000000000000602082015250565b6000616f5c6024836158ca565b9150616f6782616f00565b604082019050919050565b60006020820190508181036000830152616f8b81616f4f565b9050919050565b7f5661756c743a20616d6f756e74206d757374206265206c657373207468616e2060008201527f6f7220657175616c20746f207661756c742062616c616e636500000000000000602082015250565b6000616fee6039836158ca565b9150616ff982616f92565b604082019050919050565b6000602082019050818103600083015261701d81616fe1565b9050919050565b7f5661756c743a206d757374206265207661756c74206f776e657220746f20737060008201527f6c6974206974656d000000000000000000000000000000000000000000000000602082015250565b60006170806028836158ca565b915061708b82617024565b604082019050919050565b600060208201905081810360008301526170af81617073565b9050919050565b60006170c18261551a565b91506170cc8361551a565b9250828210156170df576170de6166bf565b5b828203905092915050565b7f496e697469616c697a61626c653a20636f6e747261637420697320616c72656160008201527f647920696e697469616c697a6564000000000000000000000000000000000000602082015250565b6000617146602e836158ca565b9150617151826170ea565b604082019050919050565b6000602082019050818103600083015261717581617139565b9050919050565b6000819050919050565b600060ff82169050919050565b6000819050919050565b60006171b86171b36171ae8461717c565b617193565b617186565b9050919050565b6171c88161719d565b82525050565b60006020820190506171e360008301846171bf565b92915050565b7f5661756c743a206d7573742068617665206d696e74657220726f6c6520746f2060008201527f637265617465206974656d000000000000000000000000000000000000000000602082015250565b6000617245602b836158ca565b9150617250826171e9565b604082019050919050565b6000602082019050818103600083015261727481617238565b9050919050565b7f5661756c743a206d7573742068617665206d696e74657220726f6c6520746f2060008201527f636f6d62696e65206974656d7300000000000000000000000000000000000000602082015250565b60006172d7602d836158ca565b91506172e28261727b565b604082019050919050565b60006020820190508181036000830152617306816172ca565b9050919050565b7f5661756c743a206d7573742068617665206d6f7265207468616e20312069746560008201527f6d20746f20636f6d62696e650000000000000000000000000000000000000000602082015250565b6000617369602c836158ca565b91506173748261730d565b604082019050919050565b600060208201905081810360008301526173988161735c565b9050919050565b7f5661756c743a206d757374206265207661756c74206f776e657220746f20636f60008201527f6d62696e65206974656d73000000000000000000000000000000000000000000602082015250565b60006173fb602b836158ca565b91506174068261739f565b604082019050919050565b6000602082019050818103600083015261742a816173ee565b9050919050565b600061743c8261551a565b91506174478361551a565b9250827fffffffffffffffffffffffffffffffffffffffffffffffffffffffffffffffff0382111561747c5761747b6166bf565b5b828201905092915050565b7f455243313135353a206d696e7420746f20746865207a65726f2061646472657360008201527f7300000000000000000000000000000000000000000000000000000000000000602082015250565b60006174e36021836158ca565b91506174ee82617487565b604082019050919050565b60006020820190508181036000830152617512816174d6565b9050919050565b7f455243313135353a2069647320616e6420616d6f756e7473206c656e6774682060008201527f6d69736d61746368000000000000000000000000000000000000000000000000602082015250565b60006175756028836158ca565b915061758082617519565b604082019050919050565b600060208201905081810360008301526175a481617568565b9050919050565b600060408201905081810360008301526175c58185615f09565b905081810360208301526175d98184615f09565b90509392505050565b7f455243313135353a207472616e7366657220746f20746865207a65726f20616460008201527f6472657373000000000000000000000000000000000000000000000000000000602082015250565b600061763e6025836158ca565b9150617649826175e2565b604082019050919050565b6000602082019050818103600083015261766d81617631565b9050919050565b7f455243313135353a20696e73756666696369656e742062616c616e636520666f60008201527f72207472616e7366657200000000000000000000000000000000000000000000602082015250565b60006176d0602a836158ca565b91506176db82617674565b604082019050919050565b600060208201905081810360008301526176ff816176c3565b9050919050565b60008151905061771581615acf565b92915050565b6000602082840312156177315761773061544e565b5b600061773f84828501617706565b91505092915050565b7f45524331393637557067726164653a206e657720696d706c656d656e7461746960008201527f6f6e206973206e6f742055555053000000000000000000000000000000000000602082015250565b60006177a4602e836158ca565b91506177af82617748565b604082019050919050565b600060208201905081810360008301526177d381617797565b9050919050565b7f45524331393637557067726164653a20756e737570706f727465642070726f7860008201527f6961626c65555549440000000000000000000000000000000000000000000000602082015250565b60006178366029836158ca565b9150617841826177da565b604082019050919050565b6000602082019050818103600083015261786581617829565b9050919050565b7f455243313135353a206275726e2066726f6d20746865207a65726f206164647260008201527f6573730000000000000000000000000000000000000000000000000000000000602082015250565b60006178c86023836158ca565b91506178d38261786c565b604082019050919050565b600060208201905081810360008301526178f7816178bb565b9050919050565b7f455243313135353a206275726e20616d6f756e7420657863656564732062616c60008201527f616e636500000000000000000000000000000000000000000000000000000000602082015250565b600061795a6024836158ca565b9150617965826178fe565b604082019050919050565b600060208201905081810360008301526179898161794d565b9050919050565b7f455243313135353a2073657474696e6720617070726f76616c2073746174757360008201527f20666f722073656c660000000000000000000000000000000000000000000000602082015250565b60006179ec6029836158ca565b91506179f782617990565b604082019050919050565b60006020820190508181036000830152617a1b816179df565b9050919050565b7f496e697469616c697a61626c653a20636f6e7472616374206973206e6f74206960008201527f6e697469616c697a696e67000000000000000000000000000000000000000000602082015250565b6000617a7e602b836158ca565b9150617a8982617a22565b604082019050919050565b60006020820190508181036000830152617aad81617a71565b9050919050565b600081905092915050565b7f416363657373436f6e74726f6c3a206163636f756e7420000000000000000000600082015250565b6000617af5601783617ab4565b9150617b0082617abf565b601782019050919050565b6000617b16826158bf565b617b208185617ab4565b9350617b308185602086016158db565b80840191505092915050565b7f206973206d697373696e6720726f6c6520000000000000000000000000000000600082015250565b6000617b72601183617ab4565b9150617b7d82617b3c565b601182019050919050565b6000617b9382617ae8565b9150617b9f8285617b0b565b9150617baa82617b65565b9150617bb68284617b0b565b91508190509392505050565b600081519050919050565b600082825260208201905092915050565b6000617be982617bc2565b617bf38185617bcd565b9350617c038185602086016158db565b617c0c8161545d565b840191505092915050565b600060a082019050617c2c600083018861541a565b617c39602083018761541a565b8181036040830152617c4b8186615f09565b90508181036060830152617c5f8185615f09565b90508181036080830152617c738184617bde565b90509695505050505050565b600081519050617c8e81615705565b92915050565b600060208284031215617caa57617ca961544e565b5b6000617cb884828501617c7f565b91505092915050565b60008160e01c9050919050565b600060033d1115617ced5760046000803e617cea600051617cc1565b90505b90565b600060443d10617d7d57617d02615444565b60043d036004823e80513d602482011167ffffffffffffffff82111715617d2a575050617d7d565b808201805167ffffffffffffffff811115617d485750505050617d7d565b80602083010160043d038501811115617d65575050505050617d7d565b617d748260200185018661549d565b82955050505050505b90565b7f455243313135353a207472616e7366657220746f206e6f6e2d4552433131353560008201527f526563656976657220696d706c656d656e746572000000000000000000000000602082015250565b6000617ddc6034836158ca565b9150617de782617d80565b604082019050919050565b60006020820190508181036000830152617e0b81617dcf565b9050919050565b7f455243313135353a204552433131353552656365697665722072656a6563746560008201527f6420746f6b656e73000000000000000000000000000000000000000000000000602082015250565b6000617e6e6028836158ca565b9150617e7982617e12565b604082019050919050565b60006020820190508181036000830152617e9d81617e61565b9050919050565b7f455243313936373a206e657720696d706c656d656e746174696f6e206973206e60008201527f6f74206120636f6e747261637400000000000000000000000000000000000000602082015250565b6000617f00602d836158ca565b9150617f0b82617ea4565b604082019050919050565b60006020820190508181036000830152617f2f81617ef3565b9050919050565b7f5061757361626c653a206e6f7420706175736564000000000000000000000000600082015250565b6000617f6c6014836158ca565b9150617f7782617f36565b602082019050919050565b60006020820190508181036000830152617f9b81617f5f565b9050919050565b600060a082019050617fb7600083018861541a565b617fc4602083018761541a565b617fd160408301866156af565b617fde60608301856156af565b8181036080830152617ff08184617bde565b90509695505050505050565b7f5061757361626c653a2070617573656400000000000000000000000000000000600082015250565b60006180326010836158ca565b915061803d82617ffc565b602082019050919050565b6000602082019050818103600083015261806181618025565b9050919050565b60006180738261551a565b915061807e8361551a565b9250817fffffffffffffffffffffffffffffffffffffffffffffffffffffffffffffffff04831182151516156180b7576180b66166bf565b5b828202905092915050565b60006180cd8261551a565b9150600082036180e0576180df6166bf565b5b600182039050919050565b7f537472696e67733a20686578206c656e67746820696e73756666696369656e74600082015250565b60006181216020836158ca565b915061812c826180eb565b602082019050919050565b6000602082019050818103600083015261815081618114565b9050919050565b7f455243313135353a206275726e20616d6f756e74206578636565647320746f7460008201527f616c537570706c79000000000000000000000000000000000000000000000000602082015250565b60006181b36028836158ca565b91506181be82618157565b604082019050919050565b600060208201905081810360008301526181e2816181a6565b9050919050565b7f416464726573733a2064656c65676174652063616c6c20746f206e6f6e2d636f60008201527f6e74726163740000000000000000000000000000000000000000000000000000602082015250565b60006182456026836158ca565b9150618250826181e9565b604082019050919050565b6000602082019050818103600083015261827481618238565b9050919050565b600081905092915050565b600061829182617bc2565b61829b818561827b565b93506182ab8185602086016158db565b80840191505092915050565b60006182c38284618286565b91508190509291505056fe416464726573733a206c6f772d6c6576656c2064656c65676174652063616c6c206661696c6564a26469706673582212204528bb48d688b332c15165d014149ae2f177d91e11cab48defeb33801cbf313f64736f6c634300080e0033",
  "immutableReferences": {
    "1129": [
      {
        "length": 32,
        "start": 4915
      },
      {
        "length": 32,
        "start": 5057
      },
      {
        "length": 32,
        "start": 5812
      },
      {
        "length": 32,
        "start": 5954
      },
      {
        "length": 32,
        "start": 6379
      }
    ]
  },
  "source": "// SPDX-License-Identifier: MIT\r\npragma solidity ^0.8.4;\r\n\r\nimport \"@openzeppelin/contracts-upgradeable/token/ERC1155/ERC1155Upgradeable.sol\";\r\nimport \"@openzeppelin/contracts-upgradeable/token/ERC1155/extensions/ERC1155BurnableUpgradeable.sol\";\r\nimport \"@openzeppelin/contracts-upgradeable/token/ERC1155/extensions/ERC1155PausableUpgradeable.sol\";\r\nimport \"@openzeppelin/contracts-upgradeable/access/OwnableUpgradeable.sol\";\r\nimport \"@openzeppelin/contracts-upgradeable/proxy/utils/Initializable.sol\";\r\nimport \"@openzeppelin/contracts-upgradeable/proxy/utils/UUPSUpgradeable.sol\";\r\nimport \"@openzeppelin/contracts-upgradeable/access/AccessControlUpgradeable.sol\";\r\nimport \"@openzeppelin/contracts-upgradeable/token/ERC1155/extensions/ERC1155SupplyUpgradeable.sol\";\r\n\r\n// this contract is a proxy the itemDisplacer contract\r\n// it is used to organize items as an array of items\r\n// it calls the itemDisplacer contract to do the actual transfer of ownership by buring the item and minting a new one with the same ID\r\n// this allows items to be combined into a single item to save on storage costs and gas fees while allowing the items to be split up again or to share ownership over multiple addresses\r\n// this contract is not intended to be used by the public, but by other contracts\r\n// this calls on the ItemDisplacer by address, so it can be used with any ItemDisplacer contract\r\n\r\ncontract Vault is Initializable, ERC1155Upgradeable, AccessControlUpgradeable, PausableUpgradeable, ERC1155BurnableUpgradeable, ERC1155SupplyUpgradeable, UUPSUpgradeable {\r\n    struct Item {\r\n        bytes32[] encryptedItem;\r\n    }\r\n    event EncryptionToolsSet(address _encryptionTools);\r\n    bytes32 public constant URI_SETTER_ROLE = keccak256(\"URI_SETTER_ROLE\");\r\n    bytes32 public constant PAUSER_ROLE = keccak256(\"PAUSER_ROLE\");\r\n    bytes32 public constant MINTER_ROLE = keccak256(\"MINTER_ROLE\");\r\n    bytes32 public constant UPGRADER_ROLE = keccak256(\"UPGRADER_ROLE\");\r\n    address public ETAddress;\r\n    uint256 public itemID;\r\n    mapping (uint256 => Item) internal items;\r\n    address public ITAddress;\r\n    address public newOwner;\r\n    address public IDAddress;\r\n    event ItemTrackerSet(address _itemTracker);\r\n    mapping(uint256 => address) public itemOwners;\r\n    event ItemDisplacerSet(address _itemDisplacer);\r\n    address public vaultAddress;\r\n    mapping(uint256 => address) public vaults;\r\n    mapping(uint256 => uint256) public vaultIDs;\r\n    mapping(uint256 => uint256) public vaultBalances;\r\n\r\n    // initialize the contract\r\n    function initialize(address _IDAddress, address _ITAddress, address _ETAddress) public initializer {\r\n        __ERC1155_init(\"https://ipfs.io/ipfs/\");\r\n        __AccessControl_init();\r\n        __Pausable_init();\r\n        __ERC1155Burnable_init();\r\n        __ERC1155Supply_init();\r\n        __UUPSUpgradeable_init();\r\n        _setupRole(DEFAULT_ADMIN_ROLE, msg.sender);\r\n        _setupRole(URI_SETTER_ROLE, msg.sender);\r\n        _setupRole(PAUSER_ROLE, msg.sender);\r\n        _setupRole(MINTER_ROLE, msg.sender);\r\n        _setupRole(UPGRADER_ROLE, msg.sender);\r\n        IDAddress = _IDAddress;\r\n        ITAddress = _ITAddress;\r\n        ETAddress = _ETAddress;\r\n        itemID = 0;\r\n    }\r\n\r\n    // set the encryption tools contract address\r\n    function setEncryptionTools(address _ETAddress) public {\r\n        require(hasRole(UPGRADER_ROLE, msg.sender), \"Vault: must have upgrader role to set encryption tools\");\r\n        ETAddress = _ETAddress;\r\n        emit EncryptionToolsSet(_ETAddress);\r\n    }\r\n\r\n    // create an item using the encryption tools contract and store it in the items mapping with the itemID as the key\r\n    function createItem(bytes32[] memory _encryptedItem) public {\r\n        require(hasRole(MINTER_ROLE, msg.sender), \"Vault: must have minter role to create item\");\r\n        items[itemID].encryptedItem = _encryptedItem;\r\n        itemID++;\r\n    }\r\n\r\n\r\n    // split an item\r\n    function splitItem(uint256 _itemID, uint256 _amount) public {\r\n        require(hasRole(MINTER_ROLE, msg.sender), \"Vault: must have minter role to split item\");\r\n        require(_amount > 0, \"Vault: amount must be greater than 0\");\r\n        require(_amount <= vaultBalances[_itemID], \"Vault: amount must be less than or equal to vault balance\");\r\n        require(vaultBalances[_itemID] > 0, \"Vault: vault balance must be greater than 0\");\r\n        require(vaults[_itemID] == msg.sender, \"Vault: must be vault owner to split item\");\r\n        vaultBalances[_itemID] -= _amount;\r\n        uint256 newItemID = itemID;\r\n        itemID++;\r\n        vaults[newItemID] = msg.sender;\r\n        vaultIDs[newItemID] = _itemID;\r\n        vaultBalances[newItemID] = _amount;\r\n        emit TransferSingle(msg.sender, address(0), msg.sender, newItemID, _amount);\r\n    }\r\n\r\n    // combine items\r\n    function combineItems(uint256[] memory _itemIDs) public {\r\n        require(hasRole(MINTER_ROLE, msg.sender), \"Vault: must have minter role to combine items\");\r\n        require(_itemIDs.length > 1, \"Vault: must have more than 1 item to combine\");\r\n        uint256 newItemID = itemID;\r\n        itemID++;\r\n        vaults[newItemID] = msg.sender;\r\n        for (uint256 i = 0; i < _itemIDs.length; i++) {\r\n            require(vaults[_itemIDs[i]] == msg.sender, \"Vault: must be vault owner to combine items\");\r\n            require(vaultBalances[_itemIDs[i]] > 0, \"Vault: vault balance must be greater than 0\");\r\n            vaultIDs[newItemID] = _itemIDs[i];\r\n            vaultBalances[newItemID] += vaultBalances[_itemIDs[i]];\r\n            vaultBalances[_itemIDs[i]] = 0;\r\n            emit TransferSingle(msg.sender, msg.sender, address(0), _itemIDs[i], vaultBalances[_itemIDs[i]]);\r\n        }\r\n        emit TransferSingle(msg.sender, address(0), msg.sender, newItemID, vaultBalances[newItemID]);\r\n    }\r\n\r\n    // transfer an item\r\n    function transferItem(uint256 _itemID, address _to) public {\r\n        require(hasRole(MINTER_ROLE, msg.sender), \"Vault: must have minter role to transfer item\");\r\n        require(vaults[_itemID] == msg.sender, \"Vault: must be vault owner to transfer item\");\r\n        require(vaultBalances[_itemID] > 0, \"Vault: vault balance must be greater than 0\");\r\n        vaults[_itemID] = _to;\r\n        emit TransferSingle(msg.sender, msg.sender, _to, _itemID, vaultBalances[_itemID]);\r\n    }\r\n\r\n    // transfer multiple items\r\n    function transferItems(uint256[] memory _itemIDs, address _to) public {\r\n        require(hasRole(MINTER_ROLE, msg.sender), \"Vault: must have minter role to transfer items\");\r\n        for (uint256 i = 0; i < _itemIDs.length; i++) {\r\n            require(vaults[_itemIDs[i]] == msg.sender, \"Vault: must be vault owner to transfer items\");\r\n            require(vaultBalances[_itemIDs[i]] > 0, \"Vault: vault balance must be greater than 0\");\r\n            vaults[_itemIDs[i]] = _to;\r\n            emit TransferSingle(msg.sender, msg.sender, _to, _itemIDs[i], vaultBalances[_itemIDs[i]]);\r\n        }\r\n    }\r\n\r\n    // get the item\r\n    function getItem(uint256 _itemID) public view returns (bytes32[] memory) {\r\n        return items[_itemID].encryptedItem;\r\n    }\r\n\r\n    // get the item owner\r\n    function getItemOwner(uint256 _itemID) public view returns (address) {\r\n        return itemOwners[_itemID];\r\n    }\r\n\r\n    // get the item ID\r\n    function getItemID() public view returns (uint256) {\r\n        return itemID;\r\n    }\r\n    \r\n    // pause the contract\r\n    function pause() public {\r\n        require(hasRole(PAUSER_ROLE, msg.sender), \"Vault: must have pauser role to pause\");\r\n        _pause();\r\n    }\r\n\r\n    // unpause the contract\r\n    function unpause() public {\r\n        require(hasRole(PAUSER_ROLE, msg.sender), \"Vault: must have pauser role to unpause\");\r\n        _unpause();\r\n    }\r\n\r\n\r\n        function setURI(string memory newuri) public onlyRole(URI_SETTER_ROLE) {\r\n        _setURI(newuri);\r\n    }\r\n\r\n    function mint(address account, uint256 id, uint256 amount, bytes memory data)\r\n        public\r\n        onlyRole(MINTER_ROLE)\r\n    {\r\n        _mint(account, id, amount, data);\r\n    }\r\n\r\n    function mintBatch(address to, uint256[] memory ids, uint256[] memory amounts, bytes memory data)\r\n        public\r\n        onlyRole(MINTER_ROLE)\r\n    {\r\n        _mintBatch(to, ids, amounts, data);\r\n    }\r\n\r\n    function _beforeTokenTransfer(address operator, address from, address to, uint256[] memory ids, uint256[] memory amounts, bytes memory data)\r\n        internal\r\n        whenNotPaused\r\n        override(ERC1155Upgradeable, ERC1155SupplyUpgradeable)\r\n    {\r\n        super._beforeTokenTransfer(operator, from, to, ids, amounts, data);\r\n    }\r\n\r\n    function _authorizeUpgrade(address newImplementation)\r\n        internal\r\n        onlyRole(UPGRADER_ROLE)\r\n        override\r\n    {}\r\n\r\n    // The following functions are overrides required by Solidity.\r\n\r\n    function supportsInterface(bytes4 interfaceId)\r\n        public\r\n        view\r\n        override(ERC1155Upgradeable, AccessControlUpgradeable)\r\n        returns (bool)\r\n    {\r\n        return super.supportsInterface(interfaceId);\r\n    }\r\n}",
  "sourcePath": "C:\\Users\\mosle\\Documents\\GitHub\\nWonderland\\contracts\\DALI\\004_Vault.sol",
  "compiler": {
    "name": "solc",
    "version": "0.8.14+commit.80d49f37.Emscripten.clang"
  },
  "schemaVersion": "3.4.8",
  "updatedAt": "2022-12-09T15:56:11.715Z",
  "devdoc": {
    "kind": "dev",
    "methods": {
      "balanceOf(address,uint256)": {
        "details": "See {IERC1155-balanceOf}. Requirements: - `account` cannot be the zero address."
      },
      "balanceOfBatch(address[],uint256[])": {
        "details": "See {IERC1155-balanceOfBatch}. Requirements: - `accounts` and `ids` must have the same length."
      },
      "exists(uint256)": {
        "details": "Indicates whether any token exist with a given id, or not."
      },
      "getRoleAdmin(bytes32)": {
        "details": "Returns the admin role that controls `role`. See {grantRole} and {revokeRole}. To change a role's admin, use {_setRoleAdmin}."
      },
      "grantRole(bytes32,address)": {
        "details": "Grants `role` to `account`. If `account` had not been already granted `role`, emits a {RoleGranted} event. Requirements: - the caller must have ``role``'s admin role. May emit a {RoleGranted} event."
      },
      "hasRole(bytes32,address)": {
        "details": "Returns `true` if `account` has been granted `role`."
      },
      "isApprovedForAll(address,address)": {
        "details": "See {IERC1155-isApprovedForAll}."
      },
      "paused()": {
        "details": "Returns true if the contract is paused, and false otherwise."
      },
      "proxiableUUID()": {
        "details": "Implementation of the ERC1822 {proxiableUUID} function. This returns the storage slot used by the implementation. It is used to validate the implementation's compatibility when performing an upgrade. IMPORTANT: A proxy pointing at a proxiable contract should not be considered proxiable itself, because this risks bricking a proxy that upgrades to it, by delegating to itself until out of gas. Thus it is critical that this function revert if invoked through a proxy. This is guaranteed by the `notDelegated` modifier."
      },
      "renounceRole(bytes32,address)": {
        "details": "Revokes `role` from the calling account. Roles are often managed via {grantRole} and {revokeRole}: this function's purpose is to provide a mechanism for accounts to lose their privileges if they are compromised (such as when a trusted device is misplaced). If the calling account had been revoked `role`, emits a {RoleRevoked} event. Requirements: - the caller must be `account`. May emit a {RoleRevoked} event."
      },
      "revokeRole(bytes32,address)": {
        "details": "Revokes `role` from `account`. If `account` had been granted `role`, emits a {RoleRevoked} event. Requirements: - the caller must have ``role``'s admin role. May emit a {RoleRevoked} event."
      },
      "safeBatchTransferFrom(address,address,uint256[],uint256[],bytes)": {
        "details": "See {IERC1155-safeBatchTransferFrom}."
      },
      "safeTransferFrom(address,address,uint256,uint256,bytes)": {
        "details": "See {IERC1155-safeTransferFrom}."
      },
      "setApprovalForAll(address,bool)": {
        "details": "See {IERC1155-setApprovalForAll}."
      },
      "totalSupply(uint256)": {
        "details": "Total amount of tokens in with a given id."
      },
      "upgradeTo(address)": {
        "details": "Upgrade the implementation of the proxy to `newImplementation`. Calls {_authorizeUpgrade}. Emits an {Upgraded} event."
      },
      "upgradeToAndCall(address,bytes)": {
        "details": "Upgrade the implementation of the proxy to `newImplementation`, and subsequently execute the function call encoded in `data`. Calls {_authorizeUpgrade}. Emits an {Upgraded} event."
      },
      "uri(uint256)": {
        "details": "See {IERC1155MetadataURI-uri}. This implementation returns the same URI for *all* token types. It relies on the token type ID substitution mechanism https://eips.ethereum.org/EIPS/eip-1155#metadata[defined in the EIP]. Clients calling this function must replace the `\\{id\\}` substring with the actual token type ID."
      }
    },
    "version": 1
  },
  "userdoc": {
    "kind": "user",
    "methods": {},
    "version": 1
  }
}