{
  "contractName": "Vault",
  "abi": [
    {
      "anonymous": false,
      "inputs": [
        {
          "indexed": false,
          "internalType": "address",
          "name": "previousAdmin",
          "type": "address"
        },
        {
          "indexed": false,
          "internalType": "address",
          "name": "newAdmin",
          "type": "address"
        }
      ],
      "name": "AdminChanged",
      "type": "event"
    },
    {
      "anonymous": false,
      "inputs": [
        {
          "indexed": true,
          "internalType": "address",
          "name": "account",
          "type": "address"
        },
        {
          "indexed": true,
          "internalType": "address",
          "name": "operator",
          "type": "address"
        },
        {
          "indexed": false,
          "internalType": "bool",
          "name": "approved",
          "type": "bool"
        }
      ],
      "name": "ApprovalForAll",
      "type": "event"
    },
    {
      "anonymous": false,
      "inputs": [
        {
          "indexed": true,
          "internalType": "address",
          "name": "beacon",
          "type": "address"
        }
      ],
      "name": "BeaconUpgraded",
      "type": "event"
    },
    {
      "anonymous": false,
      "inputs": [
        {
          "indexed": false,
          "internalType": "address",
          "name": "_encryptionTools",
          "type": "address"
        }
      ],
      "name": "EncryptionToolsSet",
      "type": "event"
    },
    {
      "anonymous": false,
      "inputs": [
        {
          "indexed": false,
          "internalType": "uint8",
          "name": "version",
          "type": "uint8"
        }
      ],
      "name": "Initialized",
      "type": "event"
    },
    {
      "anonymous": false,
      "inputs": [
        {
          "indexed": false,
          "internalType": "address",
          "name": "_itemDisplacer",
          "type": "address"
        }
      ],
      "name": "ItemDisplacerSet",
      "type": "event"
    },
    {
      "anonymous": false,
      "inputs": [
        {
          "indexed": false,
          "internalType": "address",
          "name": "_itemTracker",
          "type": "address"
        }
      ],
      "name": "ItemTrackerSet",
      "type": "event"
    },
    {
      "anonymous": false,
      "inputs": [
        {
          "indexed": false,
          "internalType": "address",
          "name": "account",
          "type": "address"
        }
      ],
      "name": "Paused",
      "type": "event"
    },
    {
      "anonymous": false,
      "inputs": [
        {
          "indexed": true,
          "internalType": "bytes32",
          "name": "role",
          "type": "bytes32"
        },
        {
          "indexed": true,
          "internalType": "bytes32",
          "name": "previousAdminRole",
          "type": "bytes32"
        },
        {
          "indexed": true,
          "internalType": "bytes32",
          "name": "newAdminRole",
          "type": "bytes32"
        }
      ],
      "name": "RoleAdminChanged",
      "type": "event"
    },
    {
      "anonymous": false,
      "inputs": [
        {
          "indexed": true,
          "internalType": "bytes32",
          "name": "role",
          "type": "bytes32"
        },
        {
          "indexed": true,
          "internalType": "address",
          "name": "account",
          "type": "address"
        },
        {
          "indexed": true,
          "internalType": "address",
          "name": "sender",
          "type": "address"
        }
      ],
      "name": "RoleGranted",
      "type": "event"
    },
    {
      "anonymous": false,
      "inputs": [
        {
          "indexed": true,
          "internalType": "bytes32",
          "name": "role",
          "type": "bytes32"
        },
        {
          "indexed": true,
          "internalType": "address",
          "name": "account",
          "type": "address"
        },
        {
          "indexed": true,
          "internalType": "address",
          "name": "sender",
          "type": "address"
        }
      ],
      "name": "RoleRevoked",
      "type": "event"
    },
    {
      "anonymous": false,
      "inputs": [
        {
          "indexed": true,
          "internalType": "address",
          "name": "operator",
          "type": "address"
        },
        {
          "indexed": true,
          "internalType": "address",
          "name": "from",
          "type": "address"
        },
        {
          "indexed": true,
          "internalType": "address",
          "name": "to",
          "type": "address"
        },
        {
          "indexed": false,
          "internalType": "uint256[]",
          "name": "ids",
          "type": "uint256[]"
        },
        {
          "indexed": false,
          "internalType": "uint256[]",
          "name": "values",
          "type": "uint256[]"
        }
      ],
      "name": "TransferBatch",
      "type": "event"
    },
    {
      "anonymous": false,
      "inputs": [
        {
          "indexed": true,
          "internalType": "address",
          "name": "operator",
          "type": "address"
        },
        {
          "indexed": true,
          "internalType": "address",
          "name": "from",
          "type": "address"
        },
        {
          "indexed": true,
          "internalType": "address",
          "name": "to",
          "type": "address"
        },
        {
          "indexed": false,
          "internalType": "uint256",
          "name": "id",
          "type": "uint256"
        },
        {
          "indexed": false,
          "internalType": "uint256",
          "name": "value",
          "type": "uint256"
        }
      ],
      "name": "TransferSingle",
      "type": "event"
    },
    {
      "anonymous": false,
      "inputs": [
        {
          "indexed": false,
          "internalType": "string",
          "name": "value",
          "type": "string"
        },
        {
          "indexed": true,
          "internalType": "uint256",
          "name": "id",
          "type": "uint256"
        }
      ],
      "name": "URI",
      "type": "event"
    },
    {
      "anonymous": false,
      "inputs": [
        {
          "indexed": false,
          "internalType": "address",
          "name": "account",
          "type": "address"
        }
      ],
      "name": "Unpaused",
      "type": "event"
    },
    {
      "anonymous": false,
      "inputs": [
        {
          "indexed": true,
          "internalType": "address",
          "name": "implementation",
          "type": "address"
        }
      ],
      "name": "Upgraded",
      "type": "event"
    },
    {
      "inputs": [],
      "name": "DEFAULT_ADMIN_ROLE",
      "outputs": [
        {
          "internalType": "bytes32",
          "name": "",
          "type": "bytes32"
        }
      ],
      "stateMutability": "view",
      "type": "function"
    },
    {
      "inputs": [],
      "name": "ETAddress",
      "outputs": [
        {
          "internalType": "address",
          "name": "",
          "type": "address"
        }
      ],
      "stateMutability": "view",
      "type": "function"
    },
    {
      "inputs": [],
      "name": "IDAddress",
      "outputs": [
        {
          "internalType": "address",
          "name": "",
          "type": "address"
        }
      ],
      "stateMutability": "view",
      "type": "function"
    },
    {
      "inputs": [],
      "name": "ITAddress",
      "outputs": [
        {
          "internalType": "address",
          "name": "",
          "type": "address"
        }
      ],
      "stateMutability": "view",
      "type": "function"
    },
    {
      "inputs": [],
      "name": "MINTER_ROLE",
      "outputs": [
        {
          "internalType": "bytes32",
          "name": "",
          "type": "bytes32"
        }
      ],
      "stateMutability": "view",
      "type": "function"
    },
    {
      "inputs": [],
      "name": "PAUSER_ROLE",
      "outputs": [
        {
          "internalType": "bytes32",
          "name": "",
          "type": "bytes32"
        }
      ],
      "stateMutability": "view",
      "type": "function"
    },
    {
      "inputs": [],
      "name": "UPGRADER_ROLE",
      "outputs": [
        {
          "internalType": "bytes32",
          "name": "",
          "type": "bytes32"
        }
      ],
      "stateMutability": "view",
      "type": "function"
    },
    {
      "inputs": [],
      "name": "URI_SETTER_ROLE",
      "outputs": [
        {
          "internalType": "bytes32",
          "name": "",
          "type": "bytes32"
        }
      ],
      "stateMutability": "view",
      "type": "function"
    },
    {
      "inputs": [
        {
          "internalType": "address",
          "name": "account",
          "type": "address"
        },
        {
          "internalType": "uint256",
          "name": "id",
          "type": "uint256"
        }
      ],
      "name": "balanceOf",
      "outputs": [
        {
          "internalType": "uint256",
          "name": "",
          "type": "uint256"
        }
      ],
      "stateMutability": "view",
      "type": "function"
    },
    {
      "inputs": [
        {
          "internalType": "address[]",
          "name": "accounts",
          "type": "address[]"
        },
        {
          "internalType": "uint256[]",
          "name": "ids",
          "type": "uint256[]"
        }
      ],
      "name": "balanceOfBatch",
      "outputs": [
        {
          "internalType": "uint256[]",
          "name": "",
          "type": "uint256[]"
        }
      ],
      "stateMutability": "view",
      "type": "function"
    },
    {
      "inputs": [
        {
          "internalType": "address",
          "name": "account",
          "type": "address"
        },
        {
          "internalType": "uint256",
          "name": "id",
          "type": "uint256"
        },
        {
          "internalType": "uint256",
          "name": "value",
          "type": "uint256"
        }
      ],
      "name": "burn",
      "outputs": [],
      "stateMutability": "nonpayable",
      "type": "function"
    },
    {
      "inputs": [
        {
          "internalType": "address",
          "name": "account",
          "type": "address"
        },
        {
          "internalType": "uint256[]",
          "name": "ids",
          "type": "uint256[]"
        },
        {
          "internalType": "uint256[]",
          "name": "values",
          "type": "uint256[]"
        }
      ],
      "name": "burnBatch",
      "outputs": [],
      "stateMutability": "nonpayable",
      "type": "function"
    },
    {
      "inputs": [
        {
          "internalType": "uint256",
          "name": "id",
          "type": "uint256"
        }
      ],
      "name": "exists",
      "outputs": [
        {
          "internalType": "bool",
          "name": "",
          "type": "bool"
        }
      ],
      "stateMutability": "view",
      "type": "function"
    },
    {
      "inputs": [
        {
          "internalType": "bytes32",
          "name": "role",
          "type": "bytes32"
        }
      ],
      "name": "getRoleAdmin",
      "outputs": [
        {
          "internalType": "bytes32",
          "name": "",
          "type": "bytes32"
        }
      ],
      "stateMutability": "view",
      "type": "function"
    },
    {
      "inputs": [
        {
          "internalType": "bytes32",
          "name": "role",
          "type": "bytes32"
        },
        {
          "internalType": "address",
          "name": "account",
          "type": "address"
        }
      ],
      "name": "grantRole",
      "outputs": [],
      "stateMutability": "nonpayable",
      "type": "function"
    },
    {
      "inputs": [
        {
          "internalType": "bytes32",
          "name": "role",
          "type": "bytes32"
        },
        {
          "internalType": "address",
          "name": "account",
          "type": "address"
        }
      ],
      "name": "hasRole",
      "outputs": [
        {
          "internalType": "bool",
          "name": "",
          "type": "bool"
        }
      ],
      "stateMutability": "view",
      "type": "function"
    },
    {
      "inputs": [
        {
          "internalType": "address",
          "name": "account",
          "type": "address"
        },
        {
          "internalType": "address",
          "name": "operator",
          "type": "address"
        }
      ],
      "name": "isApprovedForAll",
      "outputs": [
        {
          "internalType": "bool",
          "name": "",
          "type": "bool"
        }
      ],
      "stateMutability": "view",
      "type": "function"
    },
    {
      "inputs": [],
      "name": "itemID",
      "outputs": [
        {
          "internalType": "uint256",
          "name": "",
          "type": "uint256"
        }
      ],
      "stateMutability": "view",
      "type": "function"
    },
    {
      "inputs": [
        {
          "internalType": "uint256",
          "name": "",
          "type": "uint256"
        }
      ],
      "name": "itemOwners",
      "outputs": [
        {
          "internalType": "address",
          "name": "",
          "type": "address"
        }
      ],
      "stateMutability": "view",
      "type": "function"
    },
    {
      "inputs": [],
      "name": "newOwner",
      "outputs": [
        {
          "internalType": "address",
          "name": "",
          "type": "address"
        }
      ],
      "stateMutability": "view",
      "type": "function"
    },
    {
      "inputs": [],
      "name": "paused",
      "outputs": [
        {
          "internalType": "bool",
          "name": "",
          "type": "bool"
        }
      ],
      "stateMutability": "view",
      "type": "function"
    },
    {
      "inputs": [],
      "name": "proxiableUUID",
      "outputs": [
        {
          "internalType": "bytes32",
          "name": "",
          "type": "bytes32"
        }
      ],
      "stateMutability": "view",
      "type": "function"
    },
    {
      "inputs": [
        {
          "internalType": "bytes32",
          "name": "role",
          "type": "bytes32"
        },
        {
          "internalType": "address",
          "name": "account",
          "type": "address"
        }
      ],
      "name": "renounceRole",
      "outputs": [],
      "stateMutability": "nonpayable",
      "type": "function"
    },
    {
      "inputs": [
        {
          "internalType": "bytes32",
          "name": "role",
          "type": "bytes32"
        },
        {
          "internalType": "address",
          "name": "account",
          "type": "address"
        }
      ],
      "name": "revokeRole",
      "outputs": [],
      "stateMutability": "nonpayable",
      "type": "function"
    },
    {
      "inputs": [
        {
          "internalType": "address",
          "name": "from",
          "type": "address"
        },
        {
          "internalType": "address",
          "name": "to",
          "type": "address"
        },
        {
          "internalType": "uint256[]",
          "name": "ids",
          "type": "uint256[]"
        },
        {
          "internalType": "uint256[]",
          "name": "amounts",
          "type": "uint256[]"
        },
        {
          "internalType": "bytes",
          "name": "data",
          "type": "bytes"
        }
      ],
      "name": "safeBatchTransferFrom",
      "outputs": [],
      "stateMutability": "nonpayable",
      "type": "function"
    },
    {
      "inputs": [
        {
          "internalType": "address",
          "name": "from",
          "type": "address"
        },
        {
          "internalType": "address",
          "name": "to",
          "type": "address"
        },
        {
          "internalType": "uint256",
          "name": "id",
          "type": "uint256"
        },
        {
          "internalType": "uint256",
          "name": "amount",
          "type": "uint256"
        },
        {
          "internalType": "bytes",
          "name": "data",
          "type": "bytes"
        }
      ],
      "name": "safeTransferFrom",
      "outputs": [],
      "stateMutability": "nonpayable",
      "type": "function"
    },
    {
      "inputs": [
        {
          "internalType": "address",
          "name": "operator",
          "type": "address"
        },
        {
          "internalType": "bool",
          "name": "approved",
          "type": "bool"
        }
      ],
      "name": "setApprovalForAll",
      "outputs": [],
      "stateMutability": "nonpayable",
      "type": "function"
    },
    {
      "inputs": [
        {
          "internalType": "uint256",
          "name": "id",
          "type": "uint256"
        }
      ],
      "name": "totalSupply",
      "outputs": [
        {
          "internalType": "uint256",
          "name": "",
          "type": "uint256"
        }
      ],
      "stateMutability": "view",
      "type": "function"
    },
    {
      "inputs": [
        {
          "internalType": "address",
          "name": "newImplementation",
          "type": "address"
        }
      ],
      "name": "upgradeTo",
      "outputs": [],
      "stateMutability": "nonpayable",
      "type": "function"
    },
    {
      "inputs": [
        {
          "internalType": "address",
          "name": "newImplementation",
          "type": "address"
        },
        {
          "internalType": "bytes",
          "name": "data",
          "type": "bytes"
        }
      ],
      "name": "upgradeToAndCall",
      "outputs": [],
      "stateMutability": "payable",
      "type": "function"
    },
    {
      "inputs": [
        {
          "internalType": "uint256",
          "name": "",
          "type": "uint256"
        }
      ],
      "name": "uri",
      "outputs": [
        {
          "internalType": "string",
          "name": "",
          "type": "string"
        }
      ],
      "stateMutability": "view",
      "type": "function"
    },
    {
      "inputs": [],
      "name": "vaultAddress",
      "outputs": [
        {
          "internalType": "address",
          "name": "",
          "type": "address"
        }
      ],
      "stateMutability": "view",
      "type": "function"
    },
    {
      "inputs": [
        {
          "internalType": "uint256",
          "name": "",
          "type": "uint256"
        }
      ],
      "name": "vaultBalances",
      "outputs": [
        {
          "internalType": "uint256",
          "name": "",
          "type": "uint256"
        }
      ],
      "stateMutability": "view",
      "type": "function"
    },
    {
      "inputs": [
        {
          "internalType": "uint256",
          "name": "",
          "type": "uint256"
        }
      ],
      "name": "vaultIDs",
      "outputs": [
        {
          "internalType": "uint256",
          "name": "",
          "type": "uint256"
        }
      ],
      "stateMutability": "view",
      "type": "function"
    },
    {
      "inputs": [
        {
          "internalType": "uint256",
          "name": "",
          "type": "uint256"
        }
      ],
      "name": "vaults",
      "outputs": [
        {
          "internalType": "address",
          "name": "",
          "type": "address"
        }
      ],
      "stateMutability": "view",
      "type": "function"
    },
    {
      "inputs": [
        {
          "internalType": "address",
          "name": "_IDAddress",
          "type": "address"
        },
        {
          "internalType": "address",
          "name": "_ITAddress",
          "type": "address"
        },
        {
          "internalType": "address",
          "name": "_ETAddress",
          "type": "address"
        }
      ],
      "name": "initialize",
      "outputs": [],
      "stateMutability": "nonpayable",
      "type": "function"
    },
    {
      "inputs": [
        {
          "internalType": "address",
          "name": "_ETAddress",
          "type": "address"
        }
      ],
      "name": "setEncryptionTools",
      "outputs": [],
      "stateMutability": "nonpayable",
      "type": "function"
    },
    {
      "inputs": [
        {
          "internalType": "bytes32[]",
          "name": "_encryptedItem",
          "type": "bytes32[]"
        }
      ],
      "name": "createItem",
      "outputs": [],
      "stateMutability": "nonpayable",
      "type": "function"
    },
    {
      "inputs": [
        {
          "internalType": "uint256",
          "name": "_itemID",
          "type": "uint256"
        },
        {
          "internalType": "uint256",
          "name": "_amount",
          "type": "uint256"
        }
      ],
      "name": "splitItem",
      "outputs": [],
      "stateMutability": "nonpayable",
      "type": "function"
    },
    {
      "inputs": [
        {
          "internalType": "uint256[]",
          "name": "_itemIDs",
          "type": "uint256[]"
        }
      ],
      "name": "combineItems",
      "outputs": [],
      "stateMutability": "nonpayable",
      "type": "function"
    },
    {
      "inputs": [
        {
          "internalType": "uint256",
          "name": "_itemID",
          "type": "uint256"
        },
        {
          "internalType": "address",
          "name": "_to",
          "type": "address"
        }
      ],
      "name": "transferItem",
      "outputs": [],
      "stateMutability": "nonpayable",
      "type": "function"
    },
    {
      "inputs": [
        {
          "internalType": "uint256[]",
          "name": "_itemIDs",
          "type": "uint256[]"
        },
        {
          "internalType": "address",
          "name": "_to",
          "type": "address"
        }
      ],
      "name": "transferItems",
      "outputs": [],
      "stateMutability": "nonpayable",
      "type": "function"
    },
    {
      "inputs": [
        {
          "internalType": "uint256",
          "name": "_itemID",
          "type": "uint256"
        }
      ],
      "name": "getItem",
      "outputs": [
        {
          "internalType": "bytes32[]",
          "name": "",
          "type": "bytes32[]"
        }
      ],
      "stateMutability": "view",
      "type": "function"
    },
    {
      "inputs": [
        {
          "internalType": "uint256",
          "name": "_itemID",
          "type": "uint256"
        }
      ],
      "name": "getItemOwner",
      "outputs": [
        {
          "internalType": "address",
          "name": "",
          "type": "address"
        }
      ],
      "stateMutability": "view",
      "type": "function"
    },
    {
      "inputs": [],
      "name": "getItemID",
      "outputs": [
        {
          "internalType": "uint256",
          "name": "",
          "type": "uint256"
        }
      ],
      "stateMutability": "view",
      "type": "function"
    },
    {
      "inputs": [],
      "name": "pause",
      "outputs": [],
      "stateMutability": "nonpayable",
      "type": "function"
    },
    {
      "inputs": [],
      "name": "unpause",
      "outputs": [],
      "stateMutability": "nonpayable",
      "type": "function"
    },
    {
      "inputs": [
        {
          "internalType": "string",
          "name": "newuri",
          "type": "string"
        }
      ],
      "name": "setURI",
      "outputs": [],
      "stateMutability": "nonpayable",
      "type": "function"
    },
    {
      "inputs": [
        {
          "internalType": "address",
          "name": "account",
          "type": "address"
        },
        {
          "internalType": "uint256",
          "name": "id",
          "type": "uint256"
        },
        {
          "internalType": "uint256",
          "name": "amount",
          "type": "uint256"
        },
        {
          "internalType": "bytes",
          "name": "data",
          "type": "bytes"
        }
      ],
      "name": "mint",
      "outputs": [],
      "stateMutability": "nonpayable",
      "type": "function"
    },
    {
      "inputs": [
        {
          "internalType": "address",
          "name": "to",
          "type": "address"
        },
        {
          "internalType": "uint256[]",
          "name": "ids",
          "type": "uint256[]"
        },
        {
          "internalType": "uint256[]",
          "name": "amounts",
          "type": "uint256[]"
        },
        {
          "internalType": "bytes",
          "name": "data",
          "type": "bytes"
        }
      ],
      "name": "mintBatch",
      "outputs": [],
      "stateMutability": "nonpayable",
      "type": "function"
    },
    {
      "inputs": [
        {
          "internalType": "bytes4",
          "name": "interfaceId",
          "type": "bytes4"
        }
      ],
      "name": "supportsInterface",
      "outputs": [
        {
          "internalType": "bool",
          "name": "",
          "type": "bool"
        }
      ],
      "stateMutability": "view",
      "type": "function"
    }
  ],
  "bytecode": "0x60a06040523060805234801561001457600080fd5b506080516147df61004c60003960008181610f8301528181610fc30152818161120a0152818161124a01526113b101526147df6000f3fe6080604052600436106102e15760003560e01c80636b20c45411610190578063d5391393116100dc578063f0feff0511610095578063f30357a01161006f578063f30357a0146109aa578063f5298aca146109ca578063f57d85af146109ea578063f72c0d8b14610a0b57600080fd5b8063f0feff051461093c578063f1fe48331461096a578063f242432a1461098a57600080fd5b8063d539139314610840578063d547741f14610862578063de1d019b14610882578063de8bfd55146108b0578063e63ab1e9146108d1578063e985e9c5146108f357600080fd5b8063a217fddf11610149578063abcd9a9c11610123578063abcd9a9c146107b1578063bd85b039146107d1578063c0c53b8b146107ff578063d4ee1d901461081f57600080fd5b8063a217fddf1461075c578063a22cb46514610771578063a42291011461079157600080fd5b80636b20c4541461067c578063731133e91461069c5780637f345710146106bc5780638456cb59146106f05780638c64ea4a1461070557806391d148541461073c57600080fd5b806336568abe1161024f5780634a2e30bb116102085780634f558e79116101e25780634f558e79146105ff5780634fd5bbeb1461062f57806352d1902d1461064f5780635c975abb1461066457600080fd5b80634a2e30bb146105885780634e1273f4146105bf5780634f1ef286146105ec57600080fd5b806336568abe146104e55780633659cfe6146105055780633a0ed00e146105255780633f4ba83a1461053b578063430bf08a1461055057806343cdef601461057157600080fd5b80631d1440fd116102a15780631d1440fd146103f15780631f7fdffa14610428578063248a9ca3146104485780632eb2c2d6146104785780632f2ff15d146104985780633129e773146104b857600080fd5b8062491920146102e65780626d13d214610324578062fdd58e1461034657806301ffc9a71461037457806302fe5305146103a45780630e89341c146103c4575b600080fd5b3480156102f257600080fd5b506101c354610307906001600160a01b031681565b6040516001600160a01b0390911681526020015b60405180910390f35b34801561033057600080fd5b5061034461033f36600461383f565b610a2d565b005b34801561035257600080fd5b5061036661036136600461388c565b610c98565b60405190815260200161031b565b34801561038057600080fd5b5061039461038f3660046138cc565b610d2b565b604051901515815260200161031b565b3480156103b057600080fd5b506103446103bf366004613946565b610d3c565b3480156103d057600080fd5b506103e46103df366004613996565b610d73565b60405161031b9190613a07565b3480156103fd57600080fd5b5061030761040c366004613996565b60009081526101c960205260409020546001600160a01b031690565b34801561043457600080fd5b50610344610443366004613a3a565b610e07565b34801561045457600080fd5b50610366610463366004613996565b60009081526097602052604090206001015490565b34801561048457600080fd5b50610344610493366004613ad2565b610e32565b3480156104a457600080fd5b506103446104b3366004613b7b565b610e77565b3480156104c457600080fd5b506104d86104d3366004613996565b610e9c565b60405161031b9190613b9e565b3480156104f157600080fd5b50610344610500366004613b7b565b610efe565b34801561051157600080fd5b50610344610520366004613be2565b610f78565b34801561053157600080fd5b506101c454610366565b34801561054757600080fd5b50610344611058565b34801561055c57600080fd5b506101ca54610307906001600160a01b031681565b34801561057d57600080fd5b506103666101c45481565b34801561059457600080fd5b506103076105a3366004613996565b6101c9602052600090815260409020546001600160a01b031681565b3480156105cb57600080fd5b506105df6105da366004613bfd565b6110d6565b60405161031b9190613d02565b6103446105fa366004613d15565b6111ff565b34801561060b57600080fd5b5061039461061a366004613996565b600090815261012d6020526040902054151590565b34801561063b57600080fd5b5061034461064a366004613be2565b6112cc565b34801561065b57600080fd5b506103666113a4565b34801561067057600080fd5b5060c95460ff16610394565b34801561068857600080fd5b50610344610697366004613d58565b611458565b3480156106a857600080fd5b506103446106b7366004613dcb565b61149b565b3480156106c857600080fd5b506103667f7804d923f43a17d325d77e781528e0793b2edd9890ab45fc64efd7b4b427744c81565b3480156106fc57600080fd5b506103446114bf565b34801561071157600080fd5b50610307610720366004613996565b6101cb602052600090815260409020546001600160a01b031681565b34801561074857600080fd5b50610394610757366004613b7b565b611539565b34801561076857600080fd5b50610366600081565b34801561077d57600080fd5b5061034461078c366004613e1f565b611564565b34801561079d57600080fd5b506103446107ac366004613b7b565b61156f565b3480156107bd57600080fd5b506103446107cc366004613e5b565b6116e1565b3480156107dd57600080fd5b506103666107ec366004613996565b600090815261012d602052604090205490565b34801561080b57600080fd5b5061034461081a366004613e7d565b61196f565b34801561082b57600080fd5b506101c754610307906001600160a01b031681565b34801561084c57600080fd5b5061036660008051602061476a83398151915281565b34801561086e57600080fd5b5061034461087d366004613b7b565b611b9c565b34801561088e57600080fd5b5061036661089d366004613996565b6101cc6020526000908152604090205481565b3480156108bc57600080fd5b506101c854610307906001600160a01b031681565b3480156108dd57600080fd5b5061036660008051602061472383398151915281565b3480156108ff57600080fd5b5061039461090e366004613ec0565b6001600160a01b03918216600090815260666020908152604080832093909416825291909152205460ff1690565b34801561094857600080fd5b50610366610957366004613996565b6101cd6020526000908152604090205481565b34801561097657600080fd5b50610344610985366004613eea565b611bc1565b34801561099657600080fd5b506103446109a5366004613f85565b611c65565b3480156109b657600080fd5b506103446109c5366004613fe9565b611caa565b3480156109d657600080fd5b506103446109e536600461401d565b612048565b3480156109f657600080fd5b506101c654610307906001600160a01b031681565b348015610a1757600080fd5b506103666000805160206146e383398151915281565b610a4560008051602061476a83398151915233611539565b610a9b5760405162461bcd60e51b815260206004820152602e602482015260008051602061478a83398151915260448201526d7472616e73666572206974656d7360901b60648201526084015b60405180910390fd5b60005b8251811015610c9357336001600160a01b03166101cb6000858481518110610ac857610ac8614050565b6020908102919091018101518252810191909152604001600020546001600160a01b031614610b4e5760405162461bcd60e51b815260206004820152602c60248201527f5661756c743a206d757374206265207661756c74206f776e657220746f20747260448201526b616e73666572206974656d7360a01b6064820152608401610a92565b60006101cd6000858481518110610b6757610b67614050565b602002602001015181526020019081526020016000205411610b9b5760405162461bcd60e51b8152600401610a9290614066565b816101cb6000858481518110610bb357610bb3614050565b6020026020010151815260200190815260200160002060006101000a8154816001600160a01b0302191690836001600160a01b03160217905550816001600160a01b0316336001600160a01b0316336001600160a01b03166000805160206146c3833981519152868581518110610c2c57610c2c614050565b60200260200101516101cd6000898881518110610c4b57610c4b614050565b6020026020010151815260200190815260200160002054604051610c79929190918252602082015260400190565b60405180910390a480610c8b816140c7565b915050610a9e565b505050565b60006001600160a01b038316610d035760405162461bcd60e51b815260206004820152602a60248201527f455243313135353a2061646472657373207a65726f206973206e6f742061207660448201526930b634b21037bbb732b960b11b6064820152608401610a92565b5060009081526065602090815260408083206001600160a01b03949094168352929052205490565b6000610d368261208b565b92915050565b7f7804d923f43a17d325d77e781528e0793b2edd9890ab45fc64efd7b4b427744c610d66816120b0565b610d6f826120ba565b5050565b606060678054610d82906140e2565b80601f0160208091040260200160405190810160405280929190818152602001828054610dae906140e2565b8015610dfb5780601f10610dd057610100808354040283529160200191610dfb565b820191906000526020600020905b815481529060010190602001808311610dde57829003601f168201915b50505050509050919050565b60008051602061476a833981519152610e1f816120b0565b610e2b858585856120cd565b5050505050565b6001600160a01b038516331480610e4e5750610e4e853361090e565b610e6a5760405162461bcd60e51b8152600401610a929061411d565b610e2b8585858585612228565b600082815260976020526040902060010154610e92816120b0565b610c9383836123d5565b60008181526101c56020908152604091829020805483518184028101840190945280845260609392830182828015610dfb57602002820191906000526020600020905b815481526020019060010190808311610edf5750505050509050919050565b6001600160a01b0381163314610f6e5760405162461bcd60e51b815260206004820152602f60248201527f416363657373436f6e74726f6c3a2063616e206f6e6c792072656e6f756e636560448201526e103937b632b9903337b91039b2b63360891b6064820152608401610a92565b610d6f828261245b565b306001600160a01b037f0000000000000000000000000000000000000000000000000000000000000000161415610fc15760405162461bcd60e51b8152600401610a929061416b565b7f00000000000000000000000000000000000000000000000000000000000000006001600160a01b031661100a600080516020614703833981519152546001600160a01b031690565b6001600160a01b0316146110305760405162461bcd60e51b8152600401610a92906141b7565b611039816124c2565b60408051600080825260208201909252611055918391906124da565b50565b61107060008051602061472383398151915233611539565b6110cc5760405162461bcd60e51b815260206004820152602760248201527f5661756c743a206d75737420686176652070617573657220726f6c6520746f20604482015266756e706175736560c81b6064820152608401610a92565b6110d4612654565b565b6060815183511461113b5760405162461bcd60e51b815260206004820152602960248201527f455243313135353a206163636f756e747320616e6420696473206c656e677468604482015268040dad2e6dac2e8c6d60bb1b6064820152608401610a92565b600083516001600160401b038111156111565761115661374d565b60405190808252806020026020018201604052801561117f578160200160208202803683370190505b50905060005b84518110156111f7576111ca8582815181106111a3576111a3614050565b60200260200101518583815181106111bd576111bd614050565b6020026020010151610c98565b8282815181106111dc576111dc614050565b60209081029190910101526111f0816140c7565b9050611185565b509392505050565b306001600160a01b037f00000000000000000000000000000000000000000000000000000000000000001614156112485760405162461bcd60e51b8152600401610a929061416b565b7f00000000000000000000000000000000000000000000000000000000000000006001600160a01b0316611291600080516020614703833981519152546001600160a01b031690565b6001600160a01b0316146112b75760405162461bcd60e51b8152600401610a92906141b7565b6112c0826124c2565b610d6f828260016124da565b6112e46000805160206146e383398151915233611539565b61134f5760405162461bcd60e51b815260206004820152603660248201527f5661756c743a206d757374206861766520757067726164657220726f6c6520746044820152756f2073657420656e6372797074696f6e20746f6f6c7360501b6064820152608401610a92565b6101c380546001600160a01b0319166001600160a01b0383169081179091556040519081527f0573c2d2fd76ad8f23cc8f19f84f77126c2b45713345e7cdd8b9783de3eff5e09060200160405180910390a150565b6000306001600160a01b037f000000000000000000000000000000000000000000000000000000000000000016146114445760405162461bcd60e51b815260206004820152603860248201527f555550535570677261646561626c653a206d757374206e6f742062652063616c60448201527f6c6564207468726f7567682064656c656761746563616c6c00000000000000006064820152608401610a92565b506000805160206147038339815191525b90565b6001600160a01b0383163314806114745750611474833361090e565b6114905760405162461bcd60e51b8152600401610a929061411d565b610c938383836126a6565b60008051602061476a8339815191526114b3816120b0565b610e2b85858585612845565b6114d760008051602061472383398151915233611539565b6115315760405162461bcd60e51b815260206004820152602560248201527f5661756c743a206d75737420686176652070617573657220726f6c6520746f20604482015264706175736560d81b6064820152608401610a92565b6110d461291e565b60009182526097602090815260408084206001600160a01b0393909316845291905290205460ff1690565b610d6f33838361295b565b61158760008051602061476a83398151915233611539565b6115d75760405162461bcd60e51b815260206004820152602d602482015260008051602061478a83398151915260448201526c7472616e73666572206974656d60981b6064820152608401610a92565b60008281526101cb60205260409020546001600160a01b031633146116525760405162461bcd60e51b815260206004820152602b60248201527f5661756c743a206d757374206265207661756c74206f776e657220746f20747260448201526a616e73666572206974656d60a81b6064820152608401610a92565b60008281526101cd602052604090205461167e5760405162461bcd60e51b8152600401610a9290614066565b60008281526101cb6020908152604080832080546001600160a01b0319166001600160a01b0386169081179091556101cd83529281902054815186815292830152339182916000805160206146c383398151915291015b60405180910390a45050565b6116f960008051602061476a83398151915233611539565b6117465760405162461bcd60e51b815260206004820152602a602482015260008051602061478a83398151915260448201526973706c6974206974656d60b01b6064820152608401610a92565b600081116117a25760405162461bcd60e51b8152602060048201526024808201527f5661756c743a20616d6f756e74206d75737420626520677265617465722074686044820152630616e20360e41b6064820152608401610a92565b60008281526101cd60205260409020548111156118275760405162461bcd60e51b815260206004820152603960248201527f5661756c743a20616d6f756e74206d757374206265206c657373207468616e2060448201527f6f7220657175616c20746f207661756c742062616c616e6365000000000000006064820152608401610a92565b60008281526101cd60205260409020546118535760405162461bcd60e51b8152600401610a9290614066565b60008281526101cb60205260409020546001600160a01b031633146118cb5760405162461bcd60e51b815260206004820152602860248201527f5661756c743a206d757374206265207661756c74206f776e657220746f2073706044820152676c6974206974656d60c01b6064820152608401610a92565b60008281526101cd6020526040812080548392906118ea908490614203565b90915550506101c480549081906000611902836140c7565b909155505060008181526101cb6020908152604080832080546001600160a01b031916339081179091556101cc83528184208790556101cd83528184208690558151858152928301869052929183916000805160206146c3833981519152910160405180910390a4505050565b600054610100900460ff161580801561198f5750600054600160ff909116105b806119a95750303b1580156119a9575060005460ff166001145b611a0c5760405162461bcd60e51b815260206004820152602e60248201527f496e697469616c697a61626c653a20636f6e747261637420697320616c72656160448201526d191e481a5b9a5d1a585b1a5e995960921b6064820152608401610a92565b6000805460ff191660011790558015611a2f576000805461ff0019166101001790555b611a656040518060400160405280601581526020017468747470733a2f2f697066732e696f2f697066732f60581b815250612a3c565b611a6d612a6c565b611a75612a93565b611a7d612a6c565b611a85612a6c565b611a8d612a6c565b611a98600033612ac2565b611ac27f7804d923f43a17d325d77e781528e0793b2edd9890ab45fc64efd7b4b427744c33612ac2565b611ada60008051602061472383398151915233612ac2565b611af260008051602061476a83398151915233612ac2565b611b0a6000805160206146e383398151915233612ac2565b6101c880546001600160a01b038087166001600160a01b0319928316179092556101c680548684169083161790556101c380549285169290911691909117905560006101c4558015611b96576000805461ff0019169055604051600181527f7f26b83ff96e1f2b6a682f133852f6798a09c465da95921460cefb38474024989060200160405180910390a15b50505050565b600082815260976020526040902060010154611bb7816120b0565b610c93838361245b565b611bd960008051602061476a83398151915233611539565b611c275760405162461bcd60e51b815260206004820152602b602482015260008051602061478a83398151915260448201526a637265617465206974656d60a81b6064820152608401610a92565b6101c45460009081526101c5602090815260409091208251611c4b9284019061367a565b506101c48054906000611c5d836140c7565b919050555050565b6001600160a01b038516331480611c815750611c81853361090e565b611c9d5760405162461bcd60e51b8152600401610a929061411d565b610e2b8585858585612acc565b611cc260008051602061476a83398151915233611539565b611d125760405162461bcd60e51b815260206004820152602d602482015260008051602061478a83398151915260448201526c636f6d62696e65206974656d7360981b6064820152608401610a92565b6001815111611d785760405162461bcd60e51b815260206004820152602c60248201527f5661756c743a206d7573742068617665206d6f7265207468616e20312069746560448201526b6d20746f20636f6d62696e6560a01b6064820152608401610a92565b6101c480549081906000611d8b836140c7565b909155505060008181526101cb6020526040812080546001600160a01b031916331790555b825181101561201057336001600160a01b03166101cb6000858481518110611dda57611dda614050565b6020908102919091018101518252810191909152604001600020546001600160a01b031614611e5f5760405162461bcd60e51b815260206004820152602b60248201527f5661756c743a206d757374206265207661756c74206f776e657220746f20636f60448201526a6d62696e65206974656d7360a81b6064820152608401610a92565b60006101cd6000858481518110611e7857611e78614050565b602002602001015181526020019081526020016000205411611eac5760405162461bcd60e51b8152600401610a9290614066565b828181518110611ebe57611ebe614050565b60200260200101516101cc6000848152602001908152602001600020819055506101cd6000848381518110611ef557611ef5614050565b60200260200101518152602001908152602001600020546101cd60008481526020019081526020016000206000828254611f2f919061421a565b9250508190555060006101cd6000858481518110611f4f57611f4f614050565b602002602001015181526020019081526020016000208190555060006001600160a01b0316336001600160a01b0316336001600160a01b03166000805160206146c3833981519152868581518110611fa957611fa9614050565b60200260200101516101cd6000898881518110611fc857611fc8614050565b6020026020010151815260200190815260200160002054604051611ff6929190918252602082015260400190565b60405180910390a480612008816140c7565b915050611db0565b5060008181526101cd602090815260408083205481518581529283015233929183916000805160206146c383398151915291016116d5565b6001600160a01b0383163314806120645750612064833361090e565b6120805760405162461bcd60e51b8152600401610a929061411d565b610c93838383612bf6565b60006001600160e01b03198216637965db0b60e01b1480610d365750610d3682612d00565b6110558133612d50565b8051610d6f9060679060208401906136c5565b6001600160a01b0384166120f35760405162461bcd60e51b8152600401610a9290614232565b81518351146121145760405162461bcd60e51b8152600401610a9290614273565b3361212481600087878787612da9565b60005b84518110156121c05783818151811061214257612142614050565b60200260200101516065600087848151811061216057612160614050565b602002602001015181526020019081526020016000206000886001600160a01b03166001600160a01b0316815260200190815260200160002060008282546121a8919061421a565b909155508190506121b8816140c7565b915050612127565b50846001600160a01b031660006001600160a01b0316826001600160a01b03167f4a39dc06d4c0dbc64b70af90fd698a233a518aa5d07e595d983b8c0526c8f7fb87876040516122119291906142bb565b60405180910390a4610e2b81600087878787612dbf565b81518351146122495760405162461bcd60e51b8152600401610a9290614273565b6001600160a01b03841661226f5760405162461bcd60e51b8152600401610a92906142e0565b3361227e818787878787612da9565b60005b845181101561236757600085828151811061229e5761229e614050565b6020026020010151905060008583815181106122bc576122bc614050565b60209081029190910181015160008481526065835260408082206001600160a01b038e16835290935291909120549091508181101561230d5760405162461bcd60e51b8152600401610a9290614325565b60008381526065602090815260408083206001600160a01b038e8116855292528083208585039055908b1682528120805484929061234c90849061421a565b9250508190555050505080612360906140c7565b9050612281565b50846001600160a01b0316866001600160a01b0316826001600160a01b03167f4a39dc06d4c0dbc64b70af90fd698a233a518aa5d07e595d983b8c0526c8f7fb87876040516123b79291906142bb565b60405180910390a46123cd818787878787612dbf565b505050505050565b6123df8282611539565b610d6f5760008281526097602090815260408083206001600160a01b03851684529091529020805460ff191660011790556124173390565b6001600160a01b0316816001600160a01b0316837f2f8788117e7eff1d82e926ec794901d17c78024a50270940304540a733656f0d60405160405180910390a45050565b6124658282611539565b15610d6f5760008281526097602090815260408083206001600160a01b0385168085529252808320805460ff1916905551339285917ff6391f5c32d9c69d2a47ea670b442974b53935d1edc7fd64eb21e047a839171b9190a45050565b6000805160206146e3833981519152610d6f816120b0565b7f4910fdfa16fed3260ed0e7147f7cc6da11a60208b5b9406d12a635614ffd91435460ff161561250d57610c9383612f2a565b826001600160a01b03166352d1902d6040518163ffffffff1660e01b815260040160206040518083038186803b15801561254657600080fd5b505afa925050508015612576575060408051601f3d908101601f191682019092526125739181019061436f565b60015b6125d95760405162461bcd60e51b815260206004820152602e60248201527f45524331393637557067726164653a206e657720696d706c656d656e7461746960448201526d6f6e206973206e6f74205555505360901b6064820152608401610a92565b60008051602061470383398151915281146126485760405162461bcd60e51b815260206004820152602960248201527f45524331393637557067726164653a20756e737570706f727465642070726f786044820152681a58589b195555525160ba1b6064820152608401610a92565b50610c93838383612fc6565b61265c612feb565b60c9805460ff191690557f5db9ee0a495bf2e6ff9c91a7834c1ba4fdd244a5e8aa4e537bd38aeae4b073aa335b6040516001600160a01b03909116815260200160405180910390a1565b6001600160a01b0383166126cc5760405162461bcd60e51b8152600401610a9290614388565b80518251146126ed5760405162461bcd60e51b8152600401610a9290614273565b600033905061271081856000868660405180602001604052806000815250612da9565b60005b83518110156127d857600084828151811061273057612730614050565b60200260200101519050600084838151811061274e5761274e614050565b60209081029190910181015160008481526065835260408082206001600160a01b038c16835290935291909120549091508181101561279f5760405162461bcd60e51b8152600401610a92906143cb565b60009283526065602090815260408085206001600160a01b038b16865290915290922091039055806127d0816140c7565b915050612713565b5060006001600160a01b0316846001600160a01b0316826001600160a01b03167f4a39dc06d4c0dbc64b70af90fd698a233a518aa5d07e595d983b8c0526c8f7fb86866040516128299291906142bb565b60405180910390a4604080516020810190915260009052611b96565b6001600160a01b03841661286b5760405162461bcd60e51b8152600401610a9290614232565b33600061287785613034565b9050600061288485613034565b905061289583600089858589612da9565b60008681526065602090815260408083206001600160a01b038b168452909152812080548792906128c790849061421a565b909155505060408051878152602081018790526001600160a01b03808a1692600092918716916000805160206146c3833981519152910160405180910390a46129158360008989898961307f565b50505050505050565b612926613149565b60c9805460ff191660011790557f62e78cea01bee320cd4e420270b5ea74000d11b0c9f74754ebdbfc544b05a2586126893390565b816001600160a01b0316836001600160a01b031614156129cf5760405162461bcd60e51b815260206004820152602960248201527f455243313135353a2073657474696e6720617070726f76616c20737461747573604482015268103337b91039b2b63360b91b6064820152608401610a92565b6001600160a01b03838116600081815260666020908152604080832094871680845294825291829020805460ff191686151590811790915591519182527f17307eab39ab6107e8899845ad3d59bd9653f200f220920489ca2b5937696c31910160405180910390a3505050565b600054610100900460ff16612a635760405162461bcd60e51b8152600401610a929061440f565b6110558161318f565b600054610100900460ff166110d45760405162461bcd60e51b8152600401610a929061440f565b600054610100900460ff16612aba5760405162461bcd60e51b8152600401610a929061440f565b6110d46131bf565b610d6f82826123d5565b6001600160a01b038416612af25760405162461bcd60e51b8152600401610a92906142e0565b336000612afe85613034565b90506000612b0b85613034565b9050612b1b838989858589612da9565b60008681526065602090815260408083206001600160a01b038c16845290915290205485811015612b5e5760405162461bcd60e51b8152600401610a9290614325565b60008781526065602090815260408083206001600160a01b038d8116855292528083208985039055908a16825281208054889290612b9d90849061421a565b909155505060408051888152602081018890526001600160a01b03808b16928c821692918816916000805160206146c3833981519152910160405180910390a4612beb848a8a8a8a8a61307f565b505050505050505050565b6001600160a01b038316612c1c5760405162461bcd60e51b8152600401610a9290614388565b336000612c2884613034565b90506000612c3584613034565b9050612c5583876000858560405180602001604052806000815250612da9565b60008581526065602090815260408083206001600160a01b038a16845290915290205484811015612c985760405162461bcd60e51b8152600401610a92906143cb565b60008681526065602090815260408083206001600160a01b038b81168086529184528285208a8703905582518b81529384018a90529092908816916000805160206146c3833981519152910160405180910390a4604080516020810190915260009052612915565b60006001600160e01b03198216636cdb3d1360e11b1480612d3157506001600160e01b031982166303a24d0760e21b145b80610d3657506301ffc9a760e01b6001600160e01b0319831614610d36565b612d5a8282611539565b610d6f57612d67816131f2565b612d72836020613204565b604051602001612d8392919061445a565b60408051601f198184030181529082905262461bcd60e51b8252610a9291600401613a07565b612db1613149565b6123cd8686868686866133a6565b6001600160a01b0384163b156123cd5760405163bc197c8160e01b81526001600160a01b0385169063bc197c8190612e0390899089908890889088906004016144cf565b602060405180830381600087803b158015612e1d57600080fd5b505af1925050508015612e4d575060408051601f3d908101601f19168201909252612e4a9181019061452d565b60015b612efa57612e5961454a565b806308c379a01415612e935750612e6e614565565b80612e795750612e95565b8060405162461bcd60e51b8152600401610a929190613a07565b505b60405162461bcd60e51b815260206004820152603460248201527f455243313135353a207472616e7366657220746f206e6f6e2d455243313135356044820152732932b1b2b4bb32b91034b6b83632b6b2b73a32b960611b6064820152608401610a92565b6001600160e01b0319811663bc197c8160e01b146129155760405162461bcd60e51b8152600401610a92906145ee565b6001600160a01b0381163b612f975760405162461bcd60e51b815260206004820152602d60248201527f455243313936373a206e657720696d706c656d656e746174696f6e206973206e60448201526c1bdd08184818dbdb9d1c9858dd609a1b6064820152608401610a92565b60008051602061470383398151915280546001600160a01b0319166001600160a01b0392909216919091179055565b612fcf83613522565b600082511180612fdc5750805b15610c9357611b968383613562565b60c95460ff166110d45760405162461bcd60e51b815260206004820152601460248201527314185d5cd8589b194e881b9bdd081c185d5cd95960621b6044820152606401610a92565b6040805160018082528183019092526060916000919060208083019080368337019050509050828160008151811061306e5761306e614050565b602090810291909101015292915050565b6001600160a01b0384163b156123cd5760405163f23a6e6160e01b81526001600160a01b0385169063f23a6e61906130c39089908990889088908890600401614636565b602060405180830381600087803b1580156130dd57600080fd5b505af192505050801561310d575060408051601f3d908101601f1916820190925261310a9181019061452d565b60015b61311957612e5961454a565b6001600160e01b0319811663f23a6e6160e01b146129155760405162461bcd60e51b8152600401610a92906145ee565b60c95460ff16156110d45760405162461bcd60e51b815260206004820152601060248201526f14185d5cd8589b194e881c185d5cd95960821b6044820152606401610a92565b600054610100900460ff166131b65760405162461bcd60e51b8152600401610a929061440f565b611055816120ba565b600054610100900460ff166131e65760405162461bcd60e51b8152600401610a929061440f565b60c9805460ff19169055565b6060610d366001600160a01b03831660145b60606000613213836002614670565b61321e90600261421a565b6001600160401b038111156132355761323561374d565b6040519080825280601f01601f19166020018201604052801561325f576020820181803683370190505b509050600360fc1b8160008151811061327a5761327a614050565b60200101906001600160f81b031916908160001a905350600f60fb1b816001815181106132a9576132a9614050565b60200101906001600160f81b031916908160001a90535060006132cd846002614670565b6132d890600161421a565b90505b6001811115613350576f181899199a1a9b1b9c1cb0b131b232b360811b85600f166010811061330c5761330c614050565b1a60f81b82828151811061332257613322614050565b60200101906001600160f81b031916908160001a90535060049490941c936133498161468f565b90506132db565b50831561339f5760405162461bcd60e51b815260206004820181905260248201527f537472696e67733a20686578206c656e67746820696e73756666696369656e746044820152606401610a92565b9392505050565b6001600160a01b03851661342e5760005b835181101561342c578281815181106133d2576133d2614050565b602002602001015161012d60008684815181106133f1576133f1614050565b602002602001015181526020019081526020016000206000828254613416919061421a565b909155506134259050816140c7565b90506133b7565b505b6001600160a01b0384166123cd5760005b835181101561291557600084828151811061345c5761345c614050565b60200260200101519050600084838151811061347a5761347a614050565b60200260200101519050600061012d6000848152602001908152602001600020549050818110156134fe5760405162461bcd60e51b815260206004820152602860248201527f455243313135353a206275726e20616d6f756e74206578636565647320746f74604482015267616c537570706c7960c01b6064820152608401610a92565b600092835261012d60205260409092209103905561351b816140c7565b905061343f565b61352b81612f2a565b6040516001600160a01b038216907fbc7cd75a20ee27fd9adebab32041f755214dbc6bffa90cc0225b39da2e5c2d3b90600090a250565b60606001600160a01b0383163b6135ca5760405162461bcd60e51b815260206004820152602660248201527f416464726573733a2064656c65676174652063616c6c20746f206e6f6e2d636f6044820152651b9d1c9858dd60d21b6064820152608401610a92565b600080846001600160a01b0316846040516135e591906146a6565b600060405180830381855af49150503d8060008114613620576040519150601f19603f3d011682016040523d82523d6000602084013e613625565b606091505b509150915061364d828260405180606001604052806027815260200161474360279139613656565b95945050505050565b6060831561366557508161339f565b61339f8383815115612e795781518083602001fd5b8280548282559060005260206000209081019282156136b5579160200282015b828111156136b557825182559160200191906001019061369a565b506136c1929150613738565b5090565b8280546136d1906140e2565b90600052602060002090601f0160209004810192826136f357600085556136b5565b82601f1061370c57805160ff19168380011785556136b5565b828001600101855582156136b557918201828111156136b557825182559160200191906001019061369a565b5b808211156136c15760008155600101613739565b634e487b7160e01b600052604160045260246000fd5b601f8201601f191681016001600160401b03811182821017156137885761378861374d565b6040525050565b60006001600160401b038211156137a8576137a861374d565b5060051b60200190565b600082601f8301126137c357600080fd5b813560206137d08261378f565b6040516137dd8282613763565b83815260059390931b85018201928281019150868411156137fd57600080fd5b8286015b848110156138185780358352918301918301613801565b509695505050505050565b80356001600160a01b038116811461383a57600080fd5b919050565b6000806040838503121561385257600080fd5b82356001600160401b0381111561386857600080fd5b613874858286016137b2565b92505061388360208401613823565b90509250929050565b6000806040838503121561389f57600080fd5b6138a883613823565b946020939093013593505050565b6001600160e01b03198116811461105557600080fd5b6000602082840312156138de57600080fd5b813561339f816138b6565b60006001600160401b038311156139025761390261374d565b604051613919601f8501601f191660200182613763565b80915083815284848401111561392e57600080fd5b83836020830137600060208583010152509392505050565b60006020828403121561395857600080fd5b81356001600160401b0381111561396e57600080fd5b8201601f8101841361397f57600080fd5b61398e848235602084016138e9565b949350505050565b6000602082840312156139a857600080fd5b5035919050565b60005b838110156139ca5781810151838201526020016139b2565b83811115611b965750506000910152565b600081518084526139f38160208601602086016139af565b601f01601f19169290920160200192915050565b60208152600061339f60208301846139db565b600082601f830112613a2b57600080fd5b61339f838335602085016138e9565b60008060008060808587031215613a5057600080fd5b613a5985613823565b935060208501356001600160401b0380821115613a7557600080fd5b613a81888389016137b2565b94506040870135915080821115613a9757600080fd5b613aa3888389016137b2565b93506060870135915080821115613ab957600080fd5b50613ac687828801613a1a565b91505092959194509250565b600080600080600060a08688031215613aea57600080fd5b613af386613823565b9450613b0160208701613823565b935060408601356001600160401b0380821115613b1d57600080fd5b613b2989838a016137b2565b94506060880135915080821115613b3f57600080fd5b613b4b89838a016137b2565b93506080880135915080821115613b6157600080fd5b50613b6e88828901613a1a565b9150509295509295909350565b60008060408385031215613b8e57600080fd5b8235915061388360208401613823565b6020808252825182820181905260009190848201906040850190845b81811015613bd657835183529284019291840191600101613bba565b50909695505050505050565b600060208284031215613bf457600080fd5b61339f82613823565b60008060408385031215613c1057600080fd5b82356001600160401b0380821115613c2757600080fd5b818501915085601f830112613c3b57600080fd5b81356020613c488261378f565b604051613c558282613763565b83815260059390931b8501820192828101915089841115613c7557600080fd5b948201945b83861015613c9a57613c8b86613823565b82529482019490820190613c7a565b96505086013592505080821115613cb057600080fd5b50613cbd858286016137b2565b9150509250929050565b600081518084526020808501945080840160005b83811015613cf757815187529582019590820190600101613cdb565b509495945050505050565b60208152600061339f6020830184613cc7565b60008060408385031215613d2857600080fd5b613d3183613823565b915060208301356001600160401b03811115613d4c57600080fd5b613cbd85828601613a1a565b600080600060608486031215613d6d57600080fd5b613d7684613823565b925060208401356001600160401b0380821115613d9257600080fd5b613d9e878388016137b2565b93506040860135915080821115613db457600080fd5b50613dc1868287016137b2565b9150509250925092565b60008060008060808587031215613de157600080fd5b613dea85613823565b9350602085013592506040850135915060608501356001600160401b03811115613e1357600080fd5b613ac687828801613a1a565b60008060408385031215613e3257600080fd5b613e3b83613823565b915060208301358015158114613e5057600080fd5b809150509250929050565b60008060408385031215613e6e57600080fd5b50508035926020909101359150565b600080600060608486031215613e9257600080fd5b613e9b84613823565b9250613ea960208501613823565b9150613eb760408501613823565b90509250925092565b60008060408385031215613ed357600080fd5b613edc83613823565b915061388360208401613823565b60006020808385031215613efd57600080fd5b82356001600160401b03811115613f1357600080fd5b8301601f81018513613f2457600080fd5b8035613f2f8161378f565b604051613f3c8282613763565b82815260059290921b8301840191848101915087831115613f5c57600080fd5b928401925b82841015613f7a57833582529284019290840190613f61565b979650505050505050565b600080600080600060a08688031215613f9d57600080fd5b613fa686613823565b9450613fb460208701613823565b9350604086013592506060860135915060808601356001600160401b03811115613fdd57600080fd5b613b6e88828901613a1a565b600060208284031215613ffb57600080fd5b81356001600160401b0381111561401157600080fd5b61398e848285016137b2565b60008060006060848603121561403257600080fd5b61403b84613823565b95602085013595506040909401359392505050565b634e487b7160e01b600052603260045260246000fd5b6020808252602b908201527f5661756c743a207661756c742062616c616e6365206d7573742062652067726560408201526a061746572207468616e20360ac1b606082015260800190565b634e487b7160e01b600052601160045260246000fd5b60006000198214156140db576140db6140b1565b5060010190565b600181811c908216806140f657607f821691505b6020821081141561411757634e487b7160e01b600052602260045260246000fd5b50919050565b6020808252602e908201527f455243313135353a2063616c6c6572206973206e6f7420746f6b656e206f776e60408201526d195c881bdc88185c1c1c9bdd995960921b606082015260800190565b6020808252602c908201527f46756e6374696f6e206d7573742062652063616c6c6564207468726f7567682060408201526b19195b1959d85d1958d85b1b60a21b606082015260800190565b6020808252602c908201527f46756e6374696f6e206d7573742062652063616c6c6564207468726f7567682060408201526b6163746976652070726f787960a01b606082015260800190565b600082821015614215576142156140b1565b500390565b6000821982111561422d5761422d6140b1565b500190565b60208082526021908201527f455243313135353a206d696e7420746f20746865207a65726f206164647265736040820152607360f81b606082015260800190565b60208082526028908201527f455243313135353a2069647320616e6420616d6f756e7473206c656e677468206040820152670dad2e6dac2e8c6d60c31b606082015260800190565b6040815260006142ce6040830185613cc7565b828103602084015261364d8185613cc7565b60208082526025908201527f455243313135353a207472616e7366657220746f20746865207a65726f206164604082015264647265737360d81b606082015260800190565b6020808252602a908201527f455243313135353a20696e73756666696369656e742062616c616e636520666f60408201526939103a3930b739b332b960b11b606082015260800190565b60006020828403121561438157600080fd5b5051919050565b60208082526023908201527f455243313135353a206275726e2066726f6d20746865207a65726f206164647260408201526265737360e81b606082015260800190565b60208082526024908201527f455243313135353a206275726e20616d6f756e7420657863656564732062616c604082015263616e636560e01b606082015260800190565b6020808252602b908201527f496e697469616c697a61626c653a20636f6e7472616374206973206e6f74206960408201526a6e697469616c697a696e6760a81b606082015260800190565b7f416363657373436f6e74726f6c3a206163636f756e74200000000000000000008152600083516144928160178501602088016139af565b7001034b99036b4b9b9b4b733903937b6329607d1b60179184019182015283516144c38160288401602088016139af565b01602801949350505050565b6001600160a01b0386811682528516602082015260a0604082018190526000906144fb90830186613cc7565b828103606084015261450d8186613cc7565b9050828103608084015261452181856139db565b98975050505050505050565b60006020828403121561453f57600080fd5b815161339f816138b6565b600060033d11156114555760046000803e5060005160e01c90565b600060443d10156145735790565b6040516003193d81016004833e81513d6001600160401b0381602484011181841117156145a257505050505090565b82850191508151818111156145ba5750505050505090565b843d87010160208285010111156145d45750505050505090565b6145e360208286010187613763565b509095945050505050565b60208082526028908201527f455243313135353a204552433131353552656365697665722072656a656374656040820152676420746f6b656e7360c01b606082015260800190565b6001600160a01b03868116825285166020820152604081018490526060810183905260a060808201819052600090613f7a908301846139db565b600081600019048311821515161561468a5761468a6140b1565b500290565b60008161469e5761469e6140b1565b506000190190565b600082516146b88184602087016139af565b919091019291505056fec3d58168c5ae7397731d063d5bbf3d657854427343f4c083240f7aacaa2d0f62189ab7a9244df0848122154315af71fe140f3db0fe014031783b0946b8c9d2e3360894a13ba1a3210667c828492db98dca3e2076cc3735a920a3ca505d382bbc65d7a28e3265b37a6474929f336521b332c1681b933f6cb9f3376673440d862a416464726573733a206c6f772d6c6576656c2064656c65676174652063616c6c206661696c65649f2df0fed2c77648de5860a4cc508cd0818c85b8b8a1ab4ceeef8d981c8956a65661756c743a206d7573742068617665206d696e74657220726f6c6520746f20a26469706673582212205302c63427f35b34501de000234666354cef49e76bd5fc064a8291a2956d53dc64736f6c63430008090033",
  "immutableReferences": {
    "1129": [
      {
        "length": 32,
        "start": 3971
      },
      {
        "length": 32,
        "start": 4035
      },
      {
        "length": 32,
        "start": 4618
      },
      {
        "length": 32,
        "start": 4682
      },
      {
        "length": 32,
        "start": 5041
      }
    ]
  },
  "source": "// SPDX-License-Identifier: MIT\r\npragma solidity ^0.8.9;\r\n\r\nimport \"@openzeppelin/contracts-upgradeable/token/ERC1155/ERC1155Upgradeable.sol\";\r\nimport \"@openzeppelin/contracts-upgradeable/token/ERC1155/extensions/ERC1155BurnableUpgradeable.sol\";\r\nimport \"@openzeppelin/contracts-upgradeable/token/ERC1155/extensions/ERC1155PausableUpgradeable.sol\";\r\nimport \"@openzeppelin/contracts-upgradeable/access/OwnableUpgradeable.sol\";\r\nimport \"@openzeppelin/contracts-upgradeable/proxy/utils/Initializable.sol\";\r\nimport \"@openzeppelin/contracts-upgradeable/proxy/utils/UUPSUpgradeable.sol\";\r\nimport \"@openzeppelin/contracts-upgradeable/access/AccessControlUpgradeable.sol\";\r\nimport \"@openzeppelin/contracts-upgradeable/token/ERC1155/extensions/ERC1155SupplyUpgradeable.sol\";\r\n\r\n// Vault (V) v0.1.0 \r\n// V creates descriptions of items\r\n\r\ncontract Vault is Initializable, ERC1155Upgradeable, AccessControlUpgradeable, PausableUpgradeable, ERC1155BurnableUpgradeable, ERC1155SupplyUpgradeable, UUPSUpgradeable {\r\n    struct Item {\r\n        bytes32[] encryptedItem;\r\n    }\r\n    address public ETAddress;\r\n    uint256 public itemID;\r\n    event EncryptionToolsSet(address _encryptionTools);\r\n    bytes32 public constant URI_SETTER_ROLE = keccak256(\"URI_SETTER_ROLE\");\r\n    bytes32 public constant PAUSER_ROLE = keccak256(\"PAUSER_ROLE\");\r\n    bytes32 public constant MINTER_ROLE = keccak256(\"MINTER_ROLE\");\r\n    bytes32 public constant UPGRADER_ROLE = keccak256(\"UPGRADER_ROLE\");\r\n    mapping (uint256 => Item) internal items;\r\n    address public ITAddress;\r\n    address public newOwner;\r\n    address public IDAddress;\r\n    event ItemTrackerSet(address _itemTracker);\r\n    mapping(uint256 => address) public itemOwners;\r\n    event ItemDisplacerSet(address _itemDisplacer);\r\n    address public vaultAddress;\r\n    mapping(uint256 => address) public vaults;\r\n    mapping(uint256 => uint256) public vaultIDs;\r\n    mapping(uint256 => uint256) public vaultBalances;\r\n\r\n    // initialize the contract\r\n    function initialize(address _IDAddress, address _ITAddress, address _ETAddress) public initializer {\r\n        __ERC1155_init(\"https://ipfs.io/ipfs/\");\r\n        __AccessControl_init();\r\n        __Pausable_init();\r\n        __ERC1155Burnable_init();\r\n        __ERC1155Supply_init();\r\n        __UUPSUpgradeable_init();\r\n        _setupRole(DEFAULT_ADMIN_ROLE, msg.sender);\r\n        _setupRole(URI_SETTER_ROLE, msg.sender);\r\n        _setupRole(PAUSER_ROLE, msg.sender);\r\n        _setupRole(MINTER_ROLE, msg.sender);\r\n        _setupRole(UPGRADER_ROLE, msg.sender);\r\n        IDAddress = _IDAddress;\r\n        ITAddress = _ITAddress;\r\n        ETAddress = _ETAddress;\r\n        itemID = 0;\r\n    }\r\n\r\n    // set the encryption tools contract address\r\n    function setEncryptionTools(address _ETAddress) public {\r\n        require(hasRole(UPGRADER_ROLE, msg.sender), \"Vault: must have upgrader role to set encryption tools\");\r\n        ETAddress = _ETAddress;\r\n        emit EncryptionToolsSet(_ETAddress);\r\n    }\r\n\r\n    // create an item using the encryption tools contract and store it in the items mapping with the itemID as the key\r\n    function createItem(bytes32[] memory _encryptedItem) public {\r\n        require(hasRole(MINTER_ROLE, msg.sender), \"Vault: must have minter role to create item\");\r\n        items[itemID].encryptedItem = _encryptedItem;\r\n        itemID++;\r\n    }\r\n\r\n    // split an item\r\n    function splitItem(uint256 _itemID, uint256 _amount) public {\r\n        require(hasRole(MINTER_ROLE, msg.sender), \"Vault: must have minter role to split item\");\r\n        require(_amount > 0, \"Vault: amount must be greater than 0\");\r\n        require(_amount <= vaultBalances[_itemID], \"Vault: amount must be less than or equal to vault balance\");\r\n        require(vaultBalances[_itemID] > 0, \"Vault: vault balance must be greater than 0\");\r\n        require(vaults[_itemID] == msg.sender, \"Vault: must be vault owner to split item\");\r\n        vaultBalances[_itemID] -= _amount;\r\n        uint256 newItemID = itemID;\r\n        itemID++;\r\n        vaults[newItemID] = msg.sender;\r\n        vaultIDs[newItemID] = _itemID;\r\n        vaultBalances[newItemID] = _amount;\r\n        emit TransferSingle(msg.sender, address(0), msg.sender, newItemID, _amount);\r\n    }\r\n\r\n    // combine items\r\n    function combineItems(uint256[] memory _itemIDs) public {\r\n        require(hasRole(MINTER_ROLE, msg.sender), \"Vault: must have minter role to combine items\");\r\n        require(_itemIDs.length > 1, \"Vault: must have more than 1 item to combine\");\r\n        uint256 newItemID = itemID;\r\n        itemID++;\r\n        vaults[newItemID] = msg.sender;\r\n        for (uint256 i = 0; i < _itemIDs.length; i++) {\r\n            require(vaults[_itemIDs[i]] == msg.sender, \"Vault: must be vault owner to combine items\");\r\n            require(vaultBalances[_itemIDs[i]] > 0, \"Vault: vault balance must be greater than 0\");\r\n            vaultIDs[newItemID] = _itemIDs[i];\r\n            vaultBalances[newItemID] += vaultBalances[_itemIDs[i]];\r\n            vaultBalances[_itemIDs[i]] = 0;\r\n            emit TransferSingle(msg.sender, msg.sender, address(0), _itemIDs[i], vaultBalances[_itemIDs[i]]);\r\n        }\r\n        emit TransferSingle(msg.sender, address(0), msg.sender, newItemID, vaultBalances[newItemID]);\r\n    }\r\n\r\n    // transfer an item\r\n    function transferItem(uint256 _itemID, address _to) public {\r\n        require(hasRole(MINTER_ROLE, msg.sender), \"Vault: must have minter role to transfer item\");\r\n        require(vaults[_itemID] == msg.sender, \"Vault: must be vault owner to transfer item\");\r\n        require(vaultBalances[_itemID] > 0, \"Vault: vault balance must be greater than 0\");\r\n        vaults[_itemID] = _to;\r\n        emit TransferSingle(msg.sender, msg.sender, _to, _itemID, vaultBalances[_itemID]);\r\n    }\r\n\r\n    // transfer multiple items\r\n    function transferItems(uint256[] memory _itemIDs, address _to) public {\r\n        require(hasRole(MINTER_ROLE, msg.sender), \"Vault: must have minter role to transfer items\");\r\n        for (uint256 i = 0; i < _itemIDs.length; i++) {\r\n            require(vaults[_itemIDs[i]] == msg.sender, \"Vault: must be vault owner to transfer items\");\r\n            require(vaultBalances[_itemIDs[i]] > 0, \"Vault: vault balance must be greater than 0\");\r\n            vaults[_itemIDs[i]] = _to;\r\n            emit TransferSingle(msg.sender, msg.sender, _to, _itemIDs[i], vaultBalances[_itemIDs[i]]);\r\n        }\r\n    }\r\n\r\n    // get the item\r\n    function getItem(uint256 _itemID) public view returns (bytes32[] memory) {\r\n        return items[_itemID].encryptedItem;\r\n    }\r\n\r\n    // get the item owner\r\n    function getItemOwner(uint256 _itemID) public view returns (address) {\r\n        return itemOwners[_itemID];\r\n    }\r\n\r\n    // get the item ID\r\n    function getItemID() public view returns (uint256) {\r\n        return itemID;\r\n    }\r\n    \r\n    // pause the contract\r\n    function pause() public {\r\n        require(hasRole(PAUSER_ROLE, msg.sender), \"Vault: must have pauser role to pause\");\r\n        _pause();\r\n    }\r\n\r\n    // unpause the contract\r\n    function unpause() public {\r\n        require(hasRole(PAUSER_ROLE, msg.sender), \"Vault: must have pauser role to unpause\");\r\n        _unpause();\r\n    }\r\n\r\n\r\n        function setURI(string memory newuri) public onlyRole(URI_SETTER_ROLE) {\r\n        _setURI(newuri);\r\n    }\r\n\r\n    function mint(address account, uint256 id, uint256 amount, bytes memory data)\r\n        public\r\n        onlyRole(MINTER_ROLE)\r\n    {\r\n        _mint(account, id, amount, data);\r\n    }\r\n\r\n    function mintBatch(address to, uint256[] memory ids, uint256[] memory amounts, bytes memory data)\r\n        public\r\n        onlyRole(MINTER_ROLE)\r\n    {\r\n        _mintBatch(to, ids, amounts, data);\r\n    }\r\n\r\n    function _beforeTokenTransfer(address operator, address from, address to, uint256[] memory ids, uint256[] memory amounts, bytes memory data)\r\n        internal\r\n        whenNotPaused\r\n        override(ERC1155Upgradeable, ERC1155SupplyUpgradeable)\r\n    {\r\n        super._beforeTokenTransfer(operator, from, to, ids, amounts, data);\r\n    }\r\n\r\n    function _authorizeUpgrade(address newImplementation)\r\n        internal\r\n        onlyRole(UPGRADER_ROLE)\r\n        override\r\n    {}\r\n\r\n    // The following functions are overrides required by Solidity.\r\n\r\n    function supportsInterface(bytes4 interfaceId)\r\n        public\r\n        view\r\n        override(ERC1155Upgradeable, AccessControlUpgradeable)\r\n        returns (bool)\r\n    {\r\n        return super.supportsInterface(interfaceId);\r\n    }\r\n}",
  "sourcePath": "C:\\Users\\mosle\\Documents\\GitHub\\nWonderland\\contracts\\DALI\\004_Vault.sol",
  "compiler": {
    "name": "solc",
    "version": "0.8.9+commit.e5eed63a.Emscripten.clang"
  },
  "schemaVersion": "3.4.8",
  "updatedAt": "2022-12-15T17:05:23.954Z",
  "devdoc": {
    "kind": "dev",
    "methods": {
      "balanceOf(address,uint256)": {
        "details": "See {IERC1155-balanceOf}. Requirements: - `account` cannot be the zero address."
      },
      "balanceOfBatch(address[],uint256[])": {
        "details": "See {IERC1155-balanceOfBatch}. Requirements: - `accounts` and `ids` must have the same length."
      },
      "exists(uint256)": {
        "details": "Indicates whether any token exist with a given id, or not."
      },
      "getRoleAdmin(bytes32)": {
        "details": "Returns the admin role that controls `role`. See {grantRole} and {revokeRole}. To change a role's admin, use {_setRoleAdmin}."
      },
      "grantRole(bytes32,address)": {
        "details": "Grants `role` to `account`. If `account` had not been already granted `role`, emits a {RoleGranted} event. Requirements: - the caller must have ``role``'s admin role. May emit a {RoleGranted} event."
      },
      "hasRole(bytes32,address)": {
        "details": "Returns `true` if `account` has been granted `role`."
      },
      "isApprovedForAll(address,address)": {
        "details": "See {IERC1155-isApprovedForAll}."
      },
      "paused()": {
        "details": "Returns true if the contract is paused, and false otherwise."
      },
      "proxiableUUID()": {
        "details": "Implementation of the ERC1822 {proxiableUUID} function. This returns the storage slot used by the implementation. It is used to validate the implementation's compatibility when performing an upgrade. IMPORTANT: A proxy pointing at a proxiable contract should not be considered proxiable itself, because this risks bricking a proxy that upgrades to it, by delegating to itself until out of gas. Thus it is critical that this function revert if invoked through a proxy. This is guaranteed by the `notDelegated` modifier."
      },
      "renounceRole(bytes32,address)": {
        "details": "Revokes `role` from the calling account. Roles are often managed via {grantRole} and {revokeRole}: this function's purpose is to provide a mechanism for accounts to lose their privileges if they are compromised (such as when a trusted device is misplaced). If the calling account had been revoked `role`, emits a {RoleRevoked} event. Requirements: - the caller must be `account`. May emit a {RoleRevoked} event."
      },
      "revokeRole(bytes32,address)": {
        "details": "Revokes `role` from `account`. If `account` had been granted `role`, emits a {RoleRevoked} event. Requirements: - the caller must have ``role``'s admin role. May emit a {RoleRevoked} event."
      },
      "safeBatchTransferFrom(address,address,uint256[],uint256[],bytes)": {
        "details": "See {IERC1155-safeBatchTransferFrom}."
      },
      "safeTransferFrom(address,address,uint256,uint256,bytes)": {
        "details": "See {IERC1155-safeTransferFrom}."
      },
      "setApprovalForAll(address,bool)": {
        "details": "See {IERC1155-setApprovalForAll}."
      },
      "totalSupply(uint256)": {
        "details": "Total amount of tokens in with a given id."
      },
      "upgradeTo(address)": {
        "details": "Upgrade the implementation of the proxy to `newImplementation`. Calls {_authorizeUpgrade}. Emits an {Upgraded} event."
      },
      "upgradeToAndCall(address,bytes)": {
        "details": "Upgrade the implementation of the proxy to `newImplementation`, and subsequently execute the function call encoded in `data`. Calls {_authorizeUpgrade}. Emits an {Upgraded} event."
      },
      "uri(uint256)": {
        "details": "See {IERC1155MetadataURI-uri}. This implementation returns the same URI for *all* token types. It relies on the token type ID substitution mechanism https://eips.ethereum.org/EIPS/eip-1155#metadata[defined in the EIP]. Clients calling this function must replace the `\\{id\\}` substring with the actual token type ID."
      }
    },
    "version": 1
  },
  "userdoc": {
    "kind": "user",
    "methods": {},
    "version": 1
  }
}